{
  "address": "0xA420370531391Bdaa1D0506db0C9485Ed1C5baFF",
  "abi": [
    {
      "inputs": [
        {
          "internalType": "address payable",
          "name": "_bettingToken",
          "type": "address"
        },
        {
          "internalType": "uint256",
          "name": "_minimumBet",
          "type": "uint256"
        },
        {
          "internalType": "uint256",
          "name": "_treasuryBps",
          "type": "uint256"
        },
        {
          "internalType": "uint256",
          "name": "_burnBps",
          "type": "uint256"
        },
        {
          "internalType": "address",
          "name": "_treasury",
          "type": "address"
        },
        {
          "internalType": "uint256",
          "name": "_minRaceLength",
          "type": "uint256"
        },
        {
          "internalType": "uint256",
          "name": "_maxRaceLength",
          "type": "uint256"
        },
        {
          "internalType": "address",
          "name": "_controller",
          "type": "address"
        }
      ],
      "stateMutability": "nonpayable",
      "type": "constructor"
    },
    {
      "anonymous": false,
      "inputs": [
        {
          "indexed": false,
          "internalType": "int64",
          "name": "tgChatId",
          "type": "int64"
        },
        {
          "indexed": false,
          "internalType": "address",
          "name": "player",
          "type": "address"
        },
        {
          "indexed": false,
          "internalType": "uint256",
          "name": "amount",
          "type": "uint256"
        }
      ],
      "name": "Bet",
      "type": "event"
    },
    {
      "anonymous": false,
      "inputs": [
        {
          "indexed": false,
          "internalType": "int64",
          "name": "tgChatId",
          "type": "int64"
        }
      ],
      "name": "GameAborted",
      "type": "event"
    },
    {
      "anonymous": false,
      "inputs": [
        {
          "indexed": false,
          "internalType": "int64",
          "name": "tgChatId",
          "type": "int64"
        },
        {
          "indexed": false,
          "internalType": "enum TelegramPEPERace.Suit",
          "name": "winningSuit",
          "type": "uint8"
        }
      ],
      "name": "GameEnded",
      "type": "event"
    },
    {
      "anonymous": false,
      "inputs": [
        {
          "indexed": true,
          "internalType": "address",
          "name": "previousOwner",
          "type": "address"
        },
        {
          "indexed": true,
          "internalType": "address",
          "name": "newOwner",
          "type": "address"
        }
      ],
      "name": "OwnershipTransferred",
      "type": "event"
    },
    {
      "anonymous": false,
      "inputs": [
        {
          "indexed": false,
          "internalType": "int64",
          "name": "tgChatId",
          "type": "int64"
        },
        {
          "indexed": false,
          "internalType": "address",
          "name": "player",
          "type": "address"
        },
        {
          "indexed": false,
          "internalType": "uint256",
          "name": "amount",
          "type": "uint256"
        }
      ],
      "name": "Win",
      "type": "event"
    },
    {
      "inputs": [
        {
          "internalType": "int64",
          "name": "_tgChatId",
          "type": "int64"
        }
      ],
      "name": "abortGame",
      "outputs": [],
      "stateMutability": "nonpayable",
      "type": "function"
    },
    {
      "inputs": [
        {
          "internalType": "uint256",
          "name": "",
          "type": "uint256"
        }
      ],
      "name": "activeTgGroups",
      "outputs": [
        {
          "internalType": "int64",
          "name": "",
          "type": "int64"
        }
      ],
      "stateMutability": "view",
      "type": "function"
    },
    {
      "inputs": [],
      "name": "bettingToken",
      "outputs": [
        {
          "internalType": "contract IERC20",
          "name": "",
          "type": "address"
        }
      ],
      "stateMutability": "view",
      "type": "function"
    },
    {
      "inputs": [],
      "name": "burnBps",
      "outputs": [
        {
          "internalType": "uint256",
          "name": "",
          "type": "uint256"
        }
      ],
      "stateMutability": "view",
      "type": "function"
    },
    {
      "inputs": [],
      "name": "controller",
      "outputs": [
        {
          "internalType": "address",
          "name": "",
          "type": "address"
        }
      ],
      "stateMutability": "view",
      "type": "function"
    },
    {
      "inputs": [
        {
          "internalType": "int64",
          "name": "_tgChatId",
          "type": "int64"
        },
        {
          "internalType": "enum TelegramPEPERace.Suit",
          "name": "winningSuit",
          "type": "uint8"
        }
      ],
      "name": "endGame",
      "outputs": [],
      "stateMutability": "nonpayable",
      "type": "function"
    },
    {
      "inputs": [
        {
          "internalType": "int64",
          "name": "",
          "type": "int64"
        }
      ],
      "name": "games",
      "outputs": [
        {
          "internalType": "uint256",
          "name": "raceLength",
          "type": "uint256"
        },
        {
          "internalType": "uint256",
          "name": "minBet",
          "type": "uint256"
        },
        {
          "internalType": "bool",
          "name": "inProgress",
          "type": "bool"
        }
      ],
      "stateMutability": "view",
      "type": "function"
    },
    {
      "inputs": [
        {
          "internalType": "int64",
          "name": "_tgChatId",
          "type": "int64"
        }
      ],
      "name": "isGameInProgress",
      "outputs": [
        {
          "internalType": "bool",
          "name": "",
          "type": "bool"
        }
      ],
      "stateMutability": "view",
      "type": "function"
    },
    {
      "inputs": [],
      "name": "maxRaceLength",
      "outputs": [
        {
          "internalType": "uint256",
          "name": "",
          "type": "uint256"
        }
      ],
      "stateMutability": "view",
      "type": "function"
    },
    {
      "inputs": [],
      "name": "minRaceLength",
      "outputs": [
        {
          "internalType": "uint256",
          "name": "",
          "type": "uint256"
        }
      ],
      "stateMutability": "view",
      "type": "function"
    },
    {
      "inputs": [],
      "name": "minimumBet",
      "outputs": [
        {
          "internalType": "uint256",
          "name": "",
          "type": "uint256"
        }
      ],
      "stateMutability": "view",
      "type": "function"
    },
    {
      "inputs": [
        {
          "internalType": "int64",
          "name": "_tgChatId",
          "type": "int64"
        },
        {
          "internalType": "uint256",
          "name": "_raceLength",
          "type": "uint256"
        },
        {
          "internalType": "uint256",
          "name": "_minBet",
          "type": "uint256"
        },
        {
          "internalType": "bytes32[]",
          "name": "_drawnCards",
          "type": "bytes32[]"
        },
        {
          "internalType": "address[]",
          "name": "_players",
          "type": "address[]"
        },
        {
          "internalType": "uint256[]",
          "name": "_bets",
          "type": "uint256[]"
        },
        {
          "internalType": "enum TelegramPEPERace.Suit[]",
          "name": "_suits",
          "type": "uint8[]"
        }
      ],
      "name": "newGame",
      "outputs": [
        {
          "internalType": "uint256[]",
          "name": "",
          "type": "uint256[]"
        }
      ],
      "stateMutability": "nonpayable",
      "type": "function"
    },
    {
      "inputs": [],
      "name": "owner",
      "outputs": [
        {
          "internalType": "address",
          "name": "",
          "type": "address"
        }
      ],
      "stateMutability": "view",
      "type": "function"
    },
    {
      "inputs": [],
      "name": "renounceOwnership",
      "outputs": [],
      "stateMutability": "nonpayable",
      "type": "function"
    },
    {
      "inputs": [
        {
          "internalType": "address",
          "name": "newOwner",
          "type": "address"
        }
      ],
      "name": "transferOwnership",
      "outputs": [],
      "stateMutability": "nonpayable",
      "type": "function"
    },
    {
      "inputs": [],
      "name": "treasury",
      "outputs": [
        {
          "internalType": "address",
          "name": "",
          "type": "address"
        }
      ],
      "stateMutability": "view",
      "type": "function"
    },
    {
      "inputs": [],
      "name": "treasuryBps",
      "outputs": [
        {
          "internalType": "uint256",
          "name": "",
          "type": "uint256"
        }
      ],
      "stateMutability": "view",
      "type": "function"
    }
  ],
  "transactionHash": "0xc887c96635781523b1ed309ef5e4aa0c814f7e11d6bd7816158b08688ce1e483",
  "args": [
    "0xe9EC018DC6A993F24b5FFC1bF629E205e167F82f",
    "200000000000000000",
    3,
    2,
    "0xd11334b5a96Cc48f5C2f58B0a4201a9FA984df0D",
    5,
    30,
    "0x6DE01c3DB3AC8ceC90d7516ADE520e0F0Fdc6525"
  ],
  "numDeployments": 2,
  "solcInputHash": "0c1ccb98eab1db4b9649977b97e760e8",
  "bytecode": "0x6101006040523480156200001257600080fd5b5060405162001b1f38038062001b1f833981016040819052620000359162000102565b620000403362000099565b600180546001600160a01b039586166001600160a01b03199182161790915560c09690965260e09490945295821660805260a0949094526003939093556004939093556002805493909216921691909117905562000189565b600080546001600160a01b038381166001600160a01b0319831681178455604051919092169283917f8be0079c531659141344cd1fd0a4f28419497f9722a3daafe3b4186f6b6457e09190a35050565b6001600160a01b0381168114620000ff57600080fd5b50565b600080600080600080600080610100898b0312156200012057600080fd5b88516200012d81620000e9565b8098505060208901519650604089015195506060890151945060808901516200015681620000e9565b8094505060a0890151925060c0890151915060e08901516200017881620000e9565b809150509295985092959890939650565b60805160a05160c05160e051611924620001fb600039600081816101bb0152610c0a01526000818161017d0152610bd0015260008181610265015261040f01526000818161013e0152818161070b01528181610c8101528181610d5501528181610eb6015261113701526119246000f3fe608060405234801561001057600080fd5b506004361061010b5760003560e01c8063748e636e116100a2578063cb99e91f11610071578063cb99e91f14610287578063d057fc1f1461029a578063f2fde38b146102c0578063f3619716146102d3578063f77c47911461032257600080fd5b8063748e636e146102335780638da5cb5b1461023c578063aa84b2291461024d578063c38a8afd1461026057600080fd5b806353deb3d6116100de57806353deb3d6146101b657806361d027b3146101dd57806363c42460146101f0578063715018a61461022957600080fd5b8063192fbbea1461011057806343425e88146101395780634dc10ea11461017857806351385f36146101ad575b600080fd5b61012361011e36600461158d565b610335565b604051610130919061166e565b60405180910390f35b6101607f000000000000000000000000000000000000000000000000000000000000000081565b6040516001600160a01b039091168152602001610130565b61019f7f000000000000000000000000000000000000000000000000000000000000000081565b604051908152602001610130565b61019f60045481565b61019f7f000000000000000000000000000000000000000000000000000000000000000081565b600154610160906001600160a01b031681565b6102196101fe3660046116b2565b60070b60009081526005602052604090206004015460ff1690565b6040519015158152602001610130565b61023161098a565b005b61019f60035481565b6000546001600160a01b0316610160565b61023161025b3660046116d4565b61099e565b61019f7f000000000000000000000000000000000000000000000000000000000000000081565b6102316102953660046116b2565b611041565b6102ad6102a8366004611707565b6112a9565b60405160079190910b8152602001610130565b6102316102ce366004611720565b6112e0565b6103056102e13660046116b2565b60056020526000908152604090208054600182015460049092015490919060ff1683565b604080519384526020840192909252151590820152606001610130565b600254610160906001600160a01b031681565b6002546060906001600160a01b031633146103885760405162461bcd60e51b815260206004820152600e60248201526d3737ba1031b7b73a3937b63632b960911b60448201526064015b60405180910390fd5b6004548a11156103ca5760405162461bcd60e51b815260206004820152600d60248201526c5261636520746f6f206c6f6e6760981b604482015260640161037f565b6003548a101561040d5760405162461bcd60e51b815260206004820152600e60248201526d149858d9481d1bdbc81cda1bdc9d60921b604482015260640161037f565b7f00000000000000000000000000000000000000000000000000000000000000008910156104715760405162461bcd60e51b8152602060048201526011602482015270135a5b8818995d081d1bdbc81cdb585b1b607a1b604482015260640161037f565b84831480156104805750815185145b6104c05760405162461bcd60e51b81526020600482015260116024820152701a5b9c1d5d1cc81b5a5cdb585d18da1959607a1b604482015260640161037f565b600185116105055760405162461bcd60e51b81526020600482015260126024820152714e6f7420656e6f75676820706c617965727360701b604482015260640161037f565b6105248b60070b60009081526005602052604090206004015460ff1690565b156105675760405162461bcd60e51b8152602060048201526013602482015272616c726561647920696e2070726f677265737360681b604482015260640161037f565b60078b900b60009081526005602052604090208a8155600181018a9055610592600282018a8a611403565b5060048101805460ff1916600117905560005b61ffff81168711156108ec578a86868361ffff168181106105c8576105c8611749565b90506020020135101561060d5760405162461bcd60e51b815260206004820152600d60248201526c10995d081d1bdbc81cdb585b1b609a1b604482015260640161037f565b816003016000858361ffff168151811061062957610629611749565b602002602001015160038111156106425761064261175f565b60038111156106535761065361175f565b815260200190815260200160002060405180604001604052808a8a8561ffff1681811061068257610682611749565b90506020020160208101906106979190611720565b6001600160a01b0316815260200188888561ffff168181106106bb576106bb611749565b602090810292909201359092528354600180820186556000958652828620855160029093020180546001600160a01b0319166001600160a01b0393841617815594909201519390910192909255507f0000000000000000000000000000000000000000000000000000000000000000166323b872dd8a8a61ffff861681811061074657610746611749565b905060200201602081019061075b9190611720565b308a8a8761ffff1681811061077257610772611749565b6040516001600160e01b031960e088901b1681526001600160a01b039586166004820152949093166024850152506020909102013560448201526064016020604051808303816000875af11580156107ce573d6000803e3d6000fd5b505050506040513d601f19601f820116820180604052508101906107f29190611775565b9050806108395760405162461bcd60e51b8152602060048201526015602482015274119d5b991cc81d1c985b9cd9995c8819985a5b1959605a1b604482015260640161037f565b7f95d208f3deafce2776ab2b0da2c1b2e6dfc749f9b7993e0fe1df82ed26358d358e8a8a8561ffff1681811061087157610871611749565b90506020020160208101906108869190611720565b89898661ffff1681811061089c5761089c611749565b905060200201356040516108d19392919060079390930b83526001600160a01b03919091166020830152604082015260600190565b60405180910390a150806108e4816117ad565b9150506105a5565b5060068c90806001815401808255809150506001900390600052602060002090600491828204019190066008029091909190916101000a81548167ffffffffffffffff021916908360070b67ffffffffffffffff160217905550848480806020026020016040519081016040528093929190818152602001838360200280828437600092019190915250929f9e505050505050505050505050505050565b610992611359565b61099c60006113b3565b565b6109a6611359565b6109c58260070b60009081526005602052604090206004015460ff1690565b6109e15760405162461bcd60e51b815260040161037f906117ce565b600782900b600090815260056020526040812060048101805460ff191690559080805b60048160ff161015610bc65760005b8460030160008360ff166003811115610a2e57610a2e61175f565b6003811115610a3f57610a3f61175f565b6003811115610a5057610a5061175f565b8152602081019190915260400160002054811015610bb357856003811115610a7a57610a7a61175f565b8260ff166003811115610a8f57610a8f61175f565b6003811115610aa057610aa061175f565b03610b25578460030160008360ff166003811115610ac057610ac061175f565b6003811115610ad157610ad161175f565b6003811115610ae257610ae261175f565b81526020019081526020016000208181548110610b0157610b01611749565b90600052602060002090600202016001015483610b1e919061181b565b9250610ba1565b8460030160008360ff166003811115610b4057610b4061175f565b6003811115610b5157610b5161175f565b6003811115610b6257610b6261175f565b81526020019081526020016000208181548110610b8157610b81611749565b90600052602060002090600202016001015484610b9e919061181b565b93505b80610bab81611834565b915050610a13565b5080610bbe8161184d565b915050610a04565b5060006064610bf57f00000000000000000000000000000000000000000000000000000000000000008561186c565b610bff9190611883565b905060006064610c2f7f00000000000000000000000000000000000000000000000000000000000000008661186c565b610c399190611883565b9050600081610c4884876118a5565b610c5291906118a5565b60015460405163a9059cbb60e01b81526001600160a01b039182166004820152602481018690529192506000917f00000000000000000000000000000000000000000000000000000000000000009091169063a9059cbb906044016020604051808303816000875af1158015610ccc573d6000803e3d6000fd5b505050506040513d601f19601f82011682018060405250810190610cf09190611775565b905080610d3f5760405162461bcd60e51b815260206004820152601b60248201527f5472616e7366657220746f207472656173757279206661696c65640000000000604482015260640161037f565b604051630852cd8d60e31b8152600481018490527f00000000000000000000000000000000000000000000000000000000000000006001600160a01b0316906342966c6890602401600060405180830381600087803b158015610da157600080fd5b505af1158015610db5573d6000803e3d6000fd5b5050505060005b8760030160008a6003811115610dd457610dd461175f565b6003811115610de557610de561175f565b8152602081019190915260400160002054811015610ffc5760008860030160008b6003811115610e1757610e1761175f565b6003811115610e2857610e2861175f565b81526020019081526020016000208281548110610e4757610e47611749565b90600052602060002090600202019050600087858360010154610e6a919061186c565b610e749190611883565b90506000818360010154610e88919061181b565b835460405163a9059cbb60e01b81526001600160a01b039182166004820152602481018390529192506000917f00000000000000000000000000000000000000000000000000000000000000009091169063a9059cbb906044016020604051808303816000875af1158015610f01573d6000803e3d6000fd5b505050506040513d601f19601f82011682018060405250810190610f259190611775565b905080610f745760405162461bcd60e51b815260206004820152601a60248201527f5472616e73666572206661696c656420666f722077696e6e6572000000000000604482015260640161037f565b7fc2dc76ce664ffea95879f58074e6b60c3ebb762a62b91e9af938873a81c28d148e8560000160009054906101000a90046001600160a01b031684604051610fdd9392919060079390930b83526001600160a01b03919091166020830152604082015260600190565b60405180910390a1505050508080610ff490611834565b915050610dbc565b507f877256d94166a4680c11c46305317970e021267850136384bfa290a9d1bbbf84898960405161102e9291906118b8565b60405180910390a1505050505050505050565b611049611359565b6110688160070b60009081526005602052604090206004015460ff1690565b6110845760405162461bcd60e51b815260040161037f906117ce565b600781900b6000908152600560205260408120905b60048160ff1610156112615760008160ff1660038111156110bc576110bc61175f565b905060008360030160008360038111156110d8576110d861175f565b60038111156110e9576110e961175f565b8152602001908152602001600020905060005b815461ffff8216101561124b576000828261ffff168154811061112157611121611749565b90600052602060002090600202016001015490507f00000000000000000000000000000000000000000000000000000000000000006001600160a01b031663a9059cbb848461ffff168154811061117a5761117a611749565b600091825260209091206002909102015460405160e083901b6001600160e01b03191681526001600160a01b039091166004820152602481018490526044016020604051808303816000875af11580156111d8573d6000803e3d6000fd5b505050506040513d601f19601f820116820180604052508101906111fc9190611775565b6112385760405162461bcd60e51b815260206004820152600d60248201526c1499599d5b990819985a5b1959609a1b604482015260640161037f565b5080611243816117ad565b9150506110fc565b50505080806112599061184d565b915050611099565b5060048101805460ff19169055604051600783900b81527f5a51be1110849734862b57434894be46168d278d43436e2240f0e9c97967e8f79060200160405180910390a15050565b600681815481106112b957600080fd5b9060005260206000209060049182820401919006600802915054906101000a900460070b81565b6112e8611359565b6001600160a01b03811661134d5760405162461bcd60e51b815260206004820152602660248201527f4f776e61626c653a206e6577206f776e657220697320746865207a65726f206160448201526564647265737360d01b606482015260840161037f565b611356816113b3565b50565b6000546001600160a01b0316331461099c5760405162461bcd60e51b815260206004820181905260248201527f4f776e61626c653a2063616c6c6572206973206e6f7420746865206f776e6572604482015260640161037f565b600080546001600160a01b038381166001600160a01b0319831681178455604051919092169283917f8be0079c531659141344cd1fd0a4f28419497f9722a3daafe3b4186f6b6457e09190a35050565b82805482825590600052602060002090810192821561143e579160200282015b8281111561143e578235825591602001919060010190611423565b5061144a92915061144e565b5090565b5b8082111561144a576000815560010161144f565b8035600781900b811461147557600080fd5b919050565b60008083601f84011261148c57600080fd5b50813567ffffffffffffffff8111156114a457600080fd5b6020830191508360208260051b85010111156114bf57600080fd5b9250929050565b634e487b7160e01b600052604160045260246000fd5b80356004811061147557600080fd5b600082601f8301126114fc57600080fd5b8135602067ffffffffffffffff80831115611519576115196114c6565b8260051b604051601f19603f8301168101818110848211171561153e5761153e6114c6565b60405293845285810183019383810192508785111561155c57600080fd5b83870191505b8482101561158257611573826114dc565b83529183019190830190611562565b979650505050505050565b60008060008060008060008060008060e08b8d0312156115ac57600080fd5b6115b58b611463565b995060208b0135985060408b0135975060608b013567ffffffffffffffff808211156115e057600080fd5b6115ec8e838f0161147a565b909950975060808d013591508082111561160557600080fd5b6116118e838f0161147a565b909750955060a08d013591508082111561162a57600080fd5b6116368e838f0161147a565b909550935060c08d013591508082111561164f57600080fd5b5061165c8d828e016114eb565b9150509295989b9194979a5092959850565b6020808252825182820181905260009190848201906040850190845b818110156116a65783518352928401929184019160010161168a565b50909695505050505050565b6000602082840312156116c457600080fd5b6116cd82611463565b9392505050565b600080604083850312156116e757600080fd5b6116f083611463565b91506116fe602084016114dc565b90509250929050565b60006020828403121561171957600080fd5b5035919050565b60006020828403121561173257600080fd5b81356001600160a01b03811681146116cd57600080fd5b634e487b7160e01b600052603260045260246000fd5b634e487b7160e01b600052602160045260246000fd5b60006020828403121561178757600080fd5b815180151581146116cd57600080fd5b634e487b7160e01b600052601160045260246000fd5b600061ffff8083168181036117c4576117c4611797565b6001019392505050565b6020808252602d908201527f4e6f2067616d6520696e2070726f677265737320666f7220746869732054656c60408201526c1959dc985b4818da185d081251609a1b606082015260800190565b8082018082111561182e5761182e611797565b92915050565b60006001820161184657611846611797565b5060010190565b600060ff821660ff810361186357611863611797565b60010192915050565b808202811582820484141761182e5761182e611797565b6000826118a057634e487b7160e01b600052601260045260246000fd5b500490565b8181038181111561182e5761182e611797565b600783900b815260408101600483106118e157634e487b7160e01b600052602160045260246000fd5b826020830152939250505056fea2646970667358221220f7c03020d0b456b64b1672bc476497b01c55fa16d51aaa0f6a5dc1c05a0a0e9d64736f6c63430008130033",
  "devdoc": {
    "kind": "dev",
    "methods": {
      "abortGame(int64)": {
        "details": "Abort a game and refund the bets. Use in emergencies      e.g. bot crash.",
        "params": {
          "_tgChatId": "Telegram group of this game"
        }
      },
      "owner()": {
        "details": "Returns the address of the current owner."
      },
      "renounceOwnership()": {
        "details": "Leaves the contract without owner. It will not be possible to call `onlyOwner` functions. Can only be called by the current owner. NOTE: Renouncing ownership will leave the contract without an owner, thereby disabling any functionality that is only available to the owner."
      },
      "transferOwnership(address)": {
        "details": "Transfers ownership of the contract to a new account (`newOwner`). Can only be called by the current owner."
      }
    },
    "version": 1
  },
  "userdoc": {
    "kind": "user",
    "methods": {},
    "version": 1
  },
  "storageLayout": {
    "storage": [
      {
        "astId": 7,
        "contract": "contracts/TelegramPEPERace.sol:TelegramPEPERace",
        "label": "_owner",
        "offset": 0,
        "slot": "0",
        "type": "t_address"
      },
      {
        "astId": 204,
        "contract": "contracts/TelegramPEPERace.sol:TelegramPEPERace",
        "label": "treasury",
        "offset": 0,
        "slot": "1",
        "type": "t_address"
      },
      {
        "astId": 206,
        "contract": "contracts/TelegramPEPERace.sol:TelegramPEPERace",
        "label": "controller",
        "offset": 0,
        "slot": "2",
        "type": "t_address"
      },
      {
        "astId": 217,
        "contract": "contracts/TelegramPEPERace.sol:TelegramPEPERace",
        "label": "minRaceLength",
        "offset": 0,
        "slot": "3",
        "type": "t_uint256"
      },
      {
        "astId": 219,
        "contract": "contracts/TelegramPEPERace.sol:TelegramPEPERace",
        "label": "maxRaceLength",
        "offset": 0,
        "slot": "4",
        "type": "t_uint256"
      },
      {
        "astId": 224,
        "contract": "contracts/TelegramPEPERace.sol:TelegramPEPERace",
        "label": "games",
        "offset": 0,
        "slot": "5",
        "type": "t_mapping(t_int64,t_struct(Game)202_storage)"
      },
      {
        "astId": 227,
        "contract": "contracts/TelegramPEPERace.sol:TelegramPEPERace",
        "label": "activeTgGroups",
        "offset": 0,
        "slot": "6",
        "type": "t_array(t_int64)dyn_storage"
      }
    ],
    "types": {
      "t_address": {
        "encoding": "inplace",
        "label": "address",
        "numberOfBytes": "20"
      },
      "t_array(t_bytes32)dyn_storage": {
        "base": "t_bytes32",
        "encoding": "dynamic_array",
        "label": "bytes32[]",
        "numberOfBytes": "32"
      },
      "t_array(t_int64)dyn_storage": {
        "base": "t_int64",
        "encoding": "dynamic_array",
        "label": "int64[]",
        "numberOfBytes": "32"
      },
      "t_array(t_struct(BetInfo)185_storage)dyn_storage": {
        "base": "t_struct(BetInfo)185_storage",
        "encoding": "dynamic_array",
        "label": "struct TelegramPEPERace.BetInfo[]",
        "numberOfBytes": "32"
      },
      "t_bool": {
        "encoding": "inplace",
        "label": "bool",
        "numberOfBytes": "1"
      },
      "t_bytes32": {
        "encoding": "inplace",
        "label": "bytes32",
        "numberOfBytes": "32"
      },
      "t_enum(Suit)180": {
        "encoding": "inplace",
        "label": "enum TelegramPEPERace.Suit",
        "numberOfBytes": "1"
      },
      "t_int64": {
        "encoding": "inplace",
        "label": "int64",
        "numberOfBytes": "8"
      },
      "t_mapping(t_enum(Suit)180,t_array(t_struct(BetInfo)185_storage)dyn_storage)": {
        "encoding": "mapping",
        "key": "t_enum(Suit)180",
        "label": "mapping(enum TelegramPEPERace.Suit => struct TelegramPEPERace.BetInfo[])",
        "numberOfBytes": "32",
        "value": "t_array(t_struct(BetInfo)185_storage)dyn_storage"
      },
      "t_mapping(t_int64,t_struct(Game)202_storage)": {
        "encoding": "mapping",
        "key": "t_int64",
        "label": "mapping(int64 => struct TelegramPEPERace.Game)",
        "numberOfBytes": "32",
        "value": "t_struct(Game)202_storage"
      },
      "t_struct(BetInfo)185_storage": {
        "encoding": "inplace",
        "label": "struct TelegramPEPERace.BetInfo",
        "members": [
          {
            "astId": 182,
            "contract": "contracts/TelegramPEPERace.sol:TelegramPEPERace",
            "label": "player",
            "offset": 0,
            "slot": "0",
            "type": "t_address"
          },
          {
            "astId": 184,
            "contract": "contracts/TelegramPEPERace.sol:TelegramPEPERace",
            "label": "amount",
            "offset": 0,
            "slot": "1",
            "type": "t_uint256"
          }
        ],
        "numberOfBytes": "64"
      },
      "t_struct(Game)202_storage": {
        "encoding": "inplace",
        "label": "struct TelegramPEPERace.Game",
        "members": [
          {
            "astId": 187,
            "contract": "contracts/TelegramPEPERace.sol:TelegramPEPERace",
            "label": "raceLength",
            "offset": 0,
            "slot": "0",
            "type": "t_uint256"
          },
          {
            "astId": 189,
            "contract": "contracts/TelegramPEPERace.sol:TelegramPEPERace",
            "label": "minBet",
            "offset": 0,
            "slot": "1",
            "type": "t_uint256"
          },
          {
            "astId": 192,
            "contract": "contracts/TelegramPEPERace.sol:TelegramPEPERace",
            "label": "drawnCards",
            "offset": 0,
            "slot": "2",
            "type": "t_array(t_bytes32)dyn_storage"
          },
          {
            "astId": 199,
            "contract": "contracts/TelegramPEPERace.sol:TelegramPEPERace",
            "label": "betsOnSuits",
            "offset": 0,
            "slot": "3",
            "type": "t_mapping(t_enum(Suit)180,t_array(t_struct(BetInfo)185_storage)dyn_storage)"
          },
          {
            "astId": 201,
            "contract": "contracts/TelegramPEPERace.sol:TelegramPEPERace",
            "label": "inProgress",
            "offset": 0,
            "slot": "4",
            "type": "t_bool"
          }
        ],
        "numberOfBytes": "160"
      },
      "t_uint256": {
        "encoding": "inplace",
        "label": "uint256",
        "numberOfBytes": "32"
      }
    }
  }
}