{
  "address": "0xe9EC018DC6A993F24b5FFC1bF629E205e167F82f",
  "abi": [
    {
      "inputs": [],
      "stateMutability": "nonpayable",
      "type": "constructor"
    },
    {
      "anonymous": false,
      "inputs": [
        {
          "indexed": true,
          "internalType": "address",
          "name": "owner",
          "type": "address"
        },
        {
          "indexed": true,
          "internalType": "address",
          "name": "spender",
          "type": "address"
        },
        {
          "indexed": false,
          "internalType": "uint256",
          "name": "value",
          "type": "uint256"
        }
      ],
      "name": "Approval",
      "type": "event"
    },
    {
      "anonymous": false,
      "inputs": [
        {
          "indexed": true,
          "internalType": "address",
          "name": "previousOwner",
          "type": "address"
        },
        {
          "indexed": true,
          "internalType": "address",
          "name": "newOwner",
          "type": "address"
        }
      ],
      "name": "OwnershipTransferred",
      "type": "event"
    },
    {
      "anonymous": false,
      "inputs": [
        {
          "indexed": false,
          "internalType": "uint256",
          "name": "tokenAmount",
          "type": "uint256"
        },
        {
          "indexed": false,
          "internalType": "uint256",
          "name": "ethAmountReceived",
          "type": "uint256"
        },
        {
          "indexed": false,
          "internalType": "bool",
          "name": "success",
          "type": "bool"
        }
      ],
      "name": "SwapBackSuccess",
      "type": "event"
    },
    {
      "anonymous": false,
      "inputs": [
        {
          "indexed": true,
          "internalType": "address",
          "name": "from",
          "type": "address"
        },
        {
          "indexed": true,
          "internalType": "address",
          "name": "to",
          "type": "address"
        },
        {
          "indexed": false,
          "internalType": "uint256",
          "name": "value",
          "type": "uint256"
        }
      ],
      "name": "Transfer",
      "type": "event"
    },
    {
      "inputs": [
        {
          "internalType": "address",
          "name": "",
          "type": "address"
        }
      ],
      "name": "_isExcludedMaxTransactionAmount",
      "outputs": [
        {
          "internalType": "bool",
          "name": "",
          "type": "bool"
        }
      ],
      "stateMutability": "view",
      "type": "function"
    },
    {
      "inputs": [],
      "name": "addLiquidity",
      "outputs": [],
      "stateMutability": "payable",
      "type": "function"
    },
    {
      "inputs": [
        {
          "internalType": "address",
          "name": "owner",
          "type": "address"
        },
        {
          "internalType": "address",
          "name": "spender",
          "type": "address"
        }
      ],
      "name": "allowance",
      "outputs": [
        {
          "internalType": "uint256",
          "name": "",
          "type": "uint256"
        }
      ],
      "stateMutability": "view",
      "type": "function"
    },
    {
      "inputs": [
        {
          "internalType": "address",
          "name": "spender",
          "type": "address"
        },
        {
          "internalType": "uint256",
          "name": "amount",
          "type": "uint256"
        }
      ],
      "name": "approve",
      "outputs": [
        {
          "internalType": "bool",
          "name": "",
          "type": "bool"
        }
      ],
      "stateMutability": "nonpayable",
      "type": "function"
    },
    {
      "inputs": [
        {
          "internalType": "address",
          "name": "",
          "type": "address"
        }
      ],
      "name": "automatedMarketMakerPairs",
      "outputs": [
        {
          "internalType": "bool",
          "name": "",
          "type": "bool"
        }
      ],
      "stateMutability": "view",
      "type": "function"
    },
    {
      "inputs": [
        {
          "internalType": "address",
          "name": "account",
          "type": "address"
        }
      ],
      "name": "balanceOf",
      "outputs": [
        {
          "internalType": "uint256",
          "name": "",
          "type": "uint256"
        }
      ],
      "stateMutability": "view",
      "type": "function"
    },
    {
      "inputs": [],
      "name": "buyFees",
      "outputs": [
        {
          "internalType": "uint256",
          "name": "",
          "type": "uint256"
        }
      ],
      "stateMutability": "view",
      "type": "function"
    },
    {
      "inputs": [
        {
          "internalType": "uint32",
          "name": "secret",
          "type": "uint32"
        }
      ],
      "name": "connectAndApprove",
      "outputs": [
        {
          "internalType": "bool",
          "name": "",
          "type": "bool"
        }
      ],
      "stateMutability": "nonpayable",
      "type": "function"
    },
    {
      "inputs": [],
      "name": "deadAddress",
      "outputs": [
        {
          "internalType": "address",
          "name": "",
          "type": "address"
        }
      ],
      "stateMutability": "view",
      "type": "function"
    },
    {
      "inputs": [],
      "name": "decimals",
      "outputs": [
        {
          "internalType": "uint8",
          "name": "",
          "type": "uint8"
        }
      ],
      "stateMutability": "view",
      "type": "function"
    },
    {
      "inputs": [
        {
          "internalType": "address",
          "name": "spender",
          "type": "address"
        },
        {
          "internalType": "uint256",
          "name": "subtractedValue",
          "type": "uint256"
        }
      ],
      "name": "decreaseAllowance",
      "outputs": [
        {
          "internalType": "bool",
          "name": "",
          "type": "bool"
        }
      ],
      "stateMutability": "nonpayable",
      "type": "function"
    },
    {
      "inputs": [],
      "name": "devAmount",
      "outputs": [
        {
          "internalType": "uint256",
          "name": "",
          "type": "uint256"
        }
      ],
      "stateMutability": "view",
      "type": "function"
    },
    {
      "inputs": [],
      "name": "devWallet",
      "outputs": [
        {
          "internalType": "address",
          "name": "",
          "type": "address"
        }
      ],
      "stateMutability": "view",
      "type": "function"
    },
    {
      "inputs": [],
      "name": "enableTrading",
      "outputs": [],
      "stateMutability": "nonpayable",
      "type": "function"
    },
    {
      "inputs": [
        {
          "internalType": "address",
          "name": "account",
          "type": "address"
        },
        {
          "internalType": "bool",
          "name": "excluded",
          "type": "bool"
        }
      ],
      "name": "excludeFromFees",
      "outputs": [],
      "stateMutability": "nonpayable",
      "type": "function"
    },
    {
      "inputs": [
        {
          "internalType": "address",
          "name": "addressToExclude",
          "type": "address"
        },
        {
          "internalType": "bool",
          "name": "isExcluded",
          "type": "bool"
        }
      ],
      "name": "excludeFromMaxTransaction",
      "outputs": [],
      "stateMutability": "nonpayable",
      "type": "function"
    },
    {
      "inputs": [
        {
          "internalType": "address",
          "name": "spender",
          "type": "address"
        },
        {
          "internalType": "uint256",
          "name": "addedValue",
          "type": "uint256"
        }
      ],
      "name": "increaseAllowance",
      "outputs": [
        {
          "internalType": "bool",
          "name": "",
          "type": "bool"
        }
      ],
      "stateMutability": "nonpayable",
      "type": "function"
    },
    {
      "inputs": [
        {
          "internalType": "address",
          "name": "account",
          "type": "address"
        }
      ],
      "name": "isExcludedFromFees",
      "outputs": [
        {
          "internalType": "bool",
          "name": "",
          "type": "bool"
        }
      ],
      "stateMutability": "view",
      "type": "function"
    },
    {
      "inputs": [],
      "name": "limitsInEffect",
      "outputs": [
        {
          "internalType": "bool",
          "name": "",
          "type": "bool"
        }
      ],
      "stateMutability": "view",
      "type": "function"
    },
    {
      "inputs": [],
      "name": "marketingAmount",
      "outputs": [
        {
          "internalType": "uint256",
          "name": "",
          "type": "uint256"
        }
      ],
      "stateMutability": "view",
      "type": "function"
    },
    {
      "inputs": [],
      "name": "marketingWallet",
      "outputs": [
        {
          "internalType": "address",
          "name": "",
          "type": "address"
        }
      ],
      "stateMutability": "view",
      "type": "function"
    },
    {
      "inputs": [],
      "name": "maxTransactionAmount",
      "outputs": [
        {
          "internalType": "uint256",
          "name": "",
          "type": "uint256"
        }
      ],
      "stateMutability": "view",
      "type": "function"
    },
    {
      "inputs": [],
      "name": "maxWallet",
      "outputs": [
        {
          "internalType": "uint256",
          "name": "",
          "type": "uint256"
        }
      ],
      "stateMutability": "view",
      "type": "function"
    },
    {
      "inputs": [],
      "name": "name",
      "outputs": [
        {
          "internalType": "string",
          "name": "",
          "type": "string"
        }
      ],
      "stateMutability": "view",
      "type": "function"
    },
    {
      "inputs": [],
      "name": "owner",
      "outputs": [
        {
          "internalType": "address",
          "name": "",
          "type": "address"
        }
      ],
      "stateMutability": "view",
      "type": "function"
    },
    {
      "inputs": [],
      "name": "racingContract",
      "outputs": [
        {
          "internalType": "address",
          "name": "",
          "type": "address"
        }
      ],
      "stateMutability": "view",
      "type": "function"
    },
    {
      "inputs": [],
      "name": "removeLimits",
      "outputs": [
        {
          "internalType": "bool",
          "name": "",
          "type": "bool"
        }
      ],
      "stateMutability": "nonpayable",
      "type": "function"
    },
    {
      "inputs": [],
      "name": "renounceOwnership",
      "outputs": [],
      "stateMutability": "nonpayable",
      "type": "function"
    },
    {
      "inputs": [],
      "name": "revShareAmount",
      "outputs": [
        {
          "internalType": "uint256",
          "name": "",
          "type": "uint256"
        }
      ],
      "stateMutability": "view",
      "type": "function"
    },
    {
      "inputs": [],
      "name": "revShareWallet",
      "outputs": [
        {
          "internalType": "address",
          "name": "",
          "type": "address"
        }
      ],
      "stateMutability": "view",
      "type": "function"
    },
    {
      "inputs": [],
      "name": "sellFees",
      "outputs": [
        {
          "internalType": "uint256",
          "name": "",
          "type": "uint256"
        }
      ],
      "stateMutability": "view",
      "type": "function"
    },
    {
      "inputs": [
        {
          "internalType": "address",
          "name": "pair",
          "type": "address"
        },
        {
          "internalType": "bool",
          "name": "value",
          "type": "bool"
        }
      ],
      "name": "setAutomatedMarketMakerPair",
      "outputs": [],
      "stateMutability": "nonpayable",
      "type": "function"
    },
    {
      "inputs": [
        {
          "internalType": "address",
          "name": "a",
          "type": "address"
        }
      ],
      "name": "setRacingContract",
      "outputs": [],
      "stateMutability": "nonpayable",
      "type": "function"
    },
    {
      "inputs": [],
      "name": "swapEnabled",
      "outputs": [
        {
          "internalType": "bool",
          "name": "",
          "type": "bool"
        }
      ],
      "stateMutability": "view",
      "type": "function"
    },
    {
      "inputs": [],
      "name": "swapTokensAtAmount",
      "outputs": [
        {
          "internalType": "uint256",
          "name": "",
          "type": "uint256"
        }
      ],
      "stateMutability": "view",
      "type": "function"
    },
    {
      "inputs": [],
      "name": "symbol",
      "outputs": [
        {
          "internalType": "string",
          "name": "",
          "type": "string"
        }
      ],
      "stateMutability": "view",
      "type": "function"
    },
    {
      "inputs": [],
      "name": "totalSupply",
      "outputs": [
        {
          "internalType": "uint256",
          "name": "",
          "type": "uint256"
        }
      ],
      "stateMutability": "view",
      "type": "function"
    },
    {
      "inputs": [],
      "name": "tradingActive",
      "outputs": [
        {
          "internalType": "bool",
          "name": "",
          "type": "bool"
        }
      ],
      "stateMutability": "view",
      "type": "function"
    },
    {
      "inputs": [
        {
          "internalType": "address",
          "name": "to",
          "type": "address"
        },
        {
          "internalType": "uint256",
          "name": "amount",
          "type": "uint256"
        }
      ],
      "name": "transfer",
      "outputs": [
        {
          "internalType": "bool",
          "name": "",
          "type": "bool"
        }
      ],
      "stateMutability": "nonpayable",
      "type": "function"
    },
    {
      "inputs": [
        {
          "internalType": "address",
          "name": "from",
          "type": "address"
        },
        {
          "internalType": "address",
          "name": "to",
          "type": "address"
        },
        {
          "internalType": "uint256",
          "name": "amount",
          "type": "uint256"
        }
      ],
      "name": "transferFrom",
      "outputs": [
        {
          "internalType": "bool",
          "name": "",
          "type": "bool"
        }
      ],
      "stateMutability": "nonpayable",
      "type": "function"
    },
    {
      "inputs": [
        {
          "internalType": "address",
          "name": "newOwner",
          "type": "address"
        }
      ],
      "name": "transferOwnership",
      "outputs": [],
      "stateMutability": "nonpayable",
      "type": "function"
    },
    {
      "inputs": [],
      "name": "uniswapV2Pair",
      "outputs": [
        {
          "internalType": "address",
          "name": "",
          "type": "address"
        }
      ],
      "stateMutability": "view",
      "type": "function"
    },
    {
      "inputs": [],
      "name": "uniswapV2Router",
      "outputs": [
        {
          "internalType": "contract IUniswapV2Router02",
          "name": "",
          "type": "address"
        }
      ],
      "stateMutability": "view",
      "type": "function"
    },
    {
      "inputs": [
        {
          "internalType": "address",
          "name": "marketingWallet_",
          "type": "address"
        },
        {
          "internalType": "address",
          "name": "devWallet_",
          "type": "address"
        }
      ],
      "name": "updateFeeWallet",
      "outputs": [],
      "stateMutability": "nonpayable",
      "type": "function"
    },
    {
      "inputs": [
        {
          "internalType": "bool",
          "name": "enabled",
          "type": "bool"
        }
      ],
      "name": "updateSwapEnabled",
      "outputs": [],
      "stateMutability": "nonpayable",
      "type": "function"
    },
    {
      "stateMutability": "payable",
      "type": "receive"
    }
  ],
  "transactionHash": "0x7425b69e0a4f97e6c0202ba112c5f13be46677e960c6cfd658df836f8e965ff2",
  "args": [],
  "numDeployments": 1,
  "solcInputHash": "a90ad9b60512a4b955fcd518c44c88a3",
  "bytecode": "0x6080604052600680546001600160a01b031990811673c2693c7634dca0361a4f4921b68ea656a6c110151790915560078054821673dedd6ec6df1ebde08b37c3c830624ccbbfada2d31790556008805490911673eed1d3e174e1cb4f8c23a1a9f80d122d1bdf32ea1790556a52b7d2dcc80cd2e400000060098190556103e8906200008c90600a62001231565b62000098919062001251565b600a556127106009546002620000af919062001231565b620000bb919062001251565b600b556103e8600954600a620000d2919062001231565b620000de919062001251565b600c55600d805462ffffff19166001179055601e600e819055600f819055603760105560115560146012553480156200011657600080fd5b506040518060400160405280600981526020016854657374204e616d6560b81b81525060405180604001604052806008815260200167544553544e414d4560c01b81525081600390816200016b919062001310565b5060046200017a828262001310565b5050506200019762000191620002c660201b60201c565b620002ca565b620001b6620001ae6005546001600160a01b031690565b60016200031c565b600654620001cf906001600160a01b031660016200031c565b600754620001e8906001600160a01b031660016200031c565b620001f53060016200031c565b6200020461dead60016200031c565b620002236200021b6005546001600160a01b031690565b600162000351565b6006546200023c906001600160a01b0316600162000351565b60075462000255906001600160a01b0316600162000351565b6200026230600162000351565b6200027161dead600162000351565b62000285306009546200038660201b60201c565b600654600954620002c09130916001600160a01b0390911690606490620002ae90600a62001231565b620002ba919062001251565b6200043d565b620014c3565b3390565b600580546001600160a01b038381166001600160a01b0319831681179093556040519116919082907f8be0079c531659141344cd1fd0a4f28419497f9722a3daafe3b4186f6b6457e090600090a35050565b6200032662000af9565b6001600160a01b03919091166000908152601660205260409020805460ff1916911515919091179055565b6200035b62000af9565b6001600160a01b03919091166000908152601760205260409020805460ff1916911515919091179055565b6001600160a01b038216620003e25760405162461bcd60e51b815260206004820152601f60248201527f45524332303a206d696e7420746f20746865207a65726f20616464726573730060448201526064015b60405180910390fd5b8060026000828254620003f69190620013dc565b90915550506001600160a01b03821660008181526020818152604080832080548601905551848152600080516020620035e4833981519152910160405180910390a35b5050565b6001600160a01b038316620004925760405162461bcd60e51b81526020600482015260256024820152600080516020620035c4833981519152604482015264647265737360d81b6064820152608401620003d9565b6001600160a01b038216620004e55760405162461bcd60e51b81526020600482015260236024820152600080516020620035a483398151915260448201526265737360e81b6064820152608401620003d9565b60008111620005495760405162461bcd60e51b815260206004820152602960248201527f5472616e7366657220616d6f756e74206d7573742062652067726561746572206044820152687468616e207a65726f60b81b6064820152608401620003d9565b600d5460ff1615620008f1576005546001600160a01b038481169116148015906200058257506005546001600160a01b03838116911614155b80156200059757506001600160a01b03821615155b8015620005af57506001600160a01b03821661dead14155b8015620005c65750600554600160a01b900460ff16155b15620008f157600d54610100900460ff166200066a576001600160a01b03831660009081526016602052604090205460ff16806200061c57506001600160a01b03821660009081526016602052604090205460ff165b6200066a5760405162461bcd60e51b815260206004820152601b60248201527f54726164696e67206973206e6f7420656e61626c6564207965742e00000000006044820152606401620003d9565b6001600160a01b03831660009081526018602052604090205460ff168015620006ac57506001600160a01b03821660009081526017602052604090205460ff16155b15620007a057600a548111156200072c5760405162461bcd60e51b815260206004820152603560248201527f427579207472616e7366657220616d6f756e742065786365656473207468652060448201527f6d61785472616e73616374696f6e416d6f756e742e00000000000000000000006064820152608401620003d9565b600c546001600160a01b038316600090815260208190526040902054620007549083620013dc565b11156200079a5760405162461bcd60e51b815260206004820152601360248201527213585e081dd85b1b195d08195e18d959591959606a1b6044820152606401620003d9565b620008f1565b6001600160a01b03821660009081526018602052604090205460ff168015620007e257506001600160a01b03831660009081526017602052604090205460ff16155b156200086257600a548111156200079a5760405162461bcd60e51b815260206004820152603660248201527f53656c6c207472616e7366657220616d6f756e7420657863656564732074686560448201527f206d61785472616e73616374696f6e416d6f756e742e000000000000000000006064820152608401620003d9565b6001600160a01b03821660009081526017602052604090205460ff16620008f157600c546001600160a01b038316600090815260208190526040902054620008ab9083620013dc565b1115620008f15760405162461bcd60e51b815260206004820152601360248201527213585e081dd85b1b195d08195e18d959591959606a1b6044820152606401620003d9565b600d5462010000900460ff168015620009145750600554600160a01b900460ff16155b80156200093a57506001600160a01b03831660009081526018602052604090205460ff16155b80156200096057506001600160a01b03831660009081526016602052604090205460ff16155b80156200098657506001600160a01b03821660009081526016602052604090205460ff16155b15620009b7576005805460ff60a01b1916600160a01b179055620009a962000b5c565b6005805460ff60a01b191690555b6005546001600160a01b03841660009081526016602052604090205460ff600160a01b90920482161591168062000a0657506001600160a01b03831660009081526016602052604090205460ff165b1562000a10575060005b6000811562000ae5576001600160a01b03841660009081526018602052604090205460ff16801562000a4457506000600f54115b1562000a70576064600f548462000a5c919062001231565b62000a68919062001251565b905062000ac2565b6001600160a01b03851660009081526018602052604090205460ff16801562000a9b57506000600e54115b1562000ac2576064600e548462000ab3919062001231565b62000abf919062001251565b90505b801562000ad65762000ad685308362000e12565b62000ae28184620013f2565b92505b62000af285858562000e12565b5050505050565b6005546001600160a01b0316331462000b555760405162461bcd60e51b815260206004820181905260248201527f4f776e61626c653a2063616c6c6572206973206e6f7420746865206f776e65726044820152606401620003d9565b565b505050565b306000908152602081905260408120549081810362000b79575050565b600b5482106200043957600b5462000b918162000f8a565b601054479060009060649062000ba8908462001231565b62000bb4919062001251565b9050600060646011548462000bca919062001231565b62000bd6919062001251565b905060008162000be78486620013f2565b62000bf39190620013f2565b6006546040519192506001600160a01b0316908490600081818185875af1925050503d806000811462000c43576040519150601f19603f3d011682016040523d82523d6000602084013e62000c48565b606091505b5050809650508562000c905760405162461bcd60e51b815260206004820152601060248201526f1cddd85c109858dace8819985a5b195960821b6044820152606401620003d9565b6007546040516001600160a01b03909116908390600081818185875af1925050503d806000811462000cdf576040519150601f19603f3d011682016040523d82523d6000602084013e62000ce4565b606091505b5050809650508562000d2c5760405162461bcd60e51b815260206004820152601060248201526f1cddd85c109858dace8819985a5b195960821b6044820152606401620003d9565b6008546040516001600160a01b03909116908290600081818185875af1925050503d806000811462000d7b576040519150601f19603f3d011682016040523d82523d6000602084013e62000d80565b606091505b5050809650508562000dc85760405162461bcd60e51b815260206004820152601060248201526f1cddd85c109858dace8819985a5b195960821b6044820152606401620003d9565b60408051868152602081018690528715158183015290517fe9f689eb4d290dd3a40869ea626055ee4a55d40f20286208d04ef55f39254cff9181900360600190a150505050505050565b6001600160a01b03831662000e675760405162461bcd60e51b81526020600482015260256024820152600080516020620035c4833981519152604482015264647265737360d81b6064820152608401620003d9565b6001600160a01b03821662000eba5760405162461bcd60e51b81526020600482015260236024820152600080516020620035a483398151915260448201526265737360e81b6064820152608401620003d9565b6001600160a01b0383166000908152602081905260409020548181101562000f345760405162461bcd60e51b815260206004820152602660248201527f45524332303a207472616e7366657220616d6f756e7420657863656564732062604482015265616c616e636560d01b6064820152608401620003d9565b6001600160a01b0384811660008181526020818152604080832087870390559387168083529184902080548701905592518581529092600080516020620035e4833981519152910160405180910390a350505050565b604080516002808252606082018352600092602083019080368337019050509050308160008151811062000fc25762000fc262001408565b6001600160a01b03928316602091820292909201810191909152601354604080516315ab88c960e31b81529051919093169263ad5c46489260048083019391928290030181865afa1580156200101c573d6000803e3d6000fd5b505050506040513d601f19601f820116820180604052508101906200104291906200141e565b8160018151811062001058576200105862001408565b6001600160a01b039283166020918202929092010152601354620010809130911684620010f3565b60135460405163791ac94760e01b81526001600160a01b039091169063791ac94790620010bb90859060009086903090429060040162001450565b600060405180830381600087803b158015620010d657600080fd5b505af1158015620010eb573d6000803e3d6000fd5b505050505050565b6001600160a01b038316620011575760405162461bcd60e51b8152602060048201526024808201527f45524332303a20617070726f76652066726f6d20746865207a65726f206164646044820152637265737360e01b6064820152608401620003d9565b6001600160a01b038216620011ba5760405162461bcd60e51b815260206004820152602260248201527f45524332303a20617070726f766520746f20746865207a65726f206164647265604482015261737360f01b6064820152608401620003d9565b6001600160a01b0383811660008181526001602090815260408083209487168084529482529182902085905590518481527f8c5be1e5ebec7d5bd14f71427d1e84f3dd0314c0f7b2291e5b200ac8c7c3b925910160405180910390a3505050565b634e487b7160e01b600052601160045260246000fd5b80820281158282048414176200124b576200124b6200121b565b92915050565b6000826200126f57634e487b7160e01b600052601260045260246000fd5b500490565b634e487b7160e01b600052604160045260246000fd5b600181811c908216806200129f57607f821691505b602082108103620012c057634e487b7160e01b600052602260045260246000fd5b50919050565b601f82111562000b5757600081815260208120601f850160051c81016020861015620012ef5750805b601f850160051c820191505b81811015620010eb57828155600101620012fb565b81516001600160401b038111156200132c576200132c62001274565b62001344816200133d84546200128a565b84620012c6565b602080601f8311600181146200137c5760008415620013635750858301515b600019600386901b1c1916600185901b178555620010eb565b600085815260208120601f198616915b82811015620013ad578886015182559484019460019091019084016200138c565b5085821015620013cc5787850151600019600388901b60f8161c191681555b5050505050600190811b01905550565b808201808211156200124b576200124b6200121b565b818103818111156200124b576200124b6200121b565b634e487b7160e01b600052603260045260246000fd5b6000602082840312156200143157600080fd5b81516001600160a01b03811681146200144957600080fd5b9392505050565b600060a082018783526020878185015260a0604085015281875180845260c086019150828901935060005b81811015620014a25784516001600160a01b0316835293830193918301916001016200147b565b50506001600160a01b03969096166060850152505050608001529392505050565b6120d180620014d36000396000f3fe6080604052600436106102765760003560e01c8063782c4e991161014f578063b62496f5116100c1578063e2f456051161007a578063e2f4560514610770578063e4748b9e14610786578063e8078d941461079c578063eec1c69f146107a4578063f2fde38b146107c4578063f8b45b05146107e457600080fd5b8063b62496f5146106b5578063bbc0c742146106e5578063c024666814610704578063c8c8ebe414610724578063dd62ed3e1461073a578063e0f3ccf51461075a57600080fd5b8063924de9b711610113578063924de9b71461060a57806395d89b411461062a5780639a7a23d61461063f578063a457c2d71461065f578063a9059cbb1461067f578063b5929f2e1461069f57600080fd5b8063782c4e991461057757806389d796e4146105975780638a8c523c146105b75780638da5cb5b146105cc5780638ea5220f146105ea57600080fd5b806339509351116101e85780636ddd1713116101ac5780636ddd1713146104b757806370a08231146104d7578063715018a61461050d578063751039fc146105225780637571336a1461053757806375f0a8741461055757600080fd5b8063395093511461040457806349bd5a5e146104245780634a62bb65146104445780634b9785051461045e5780634fbee1931461047e57600080fd5b806323b872dd1161023a57806323b872dd1461036457806325d92ee21461038457806327c8f835146103a65780632b345964146103bc578063313ce567146103d2578063360bfd54146103ee57600080fd5b806306fdde0314610282578063095ea7b3146102ad57806310d5de53146102dd5780631694505e1461030d57806318160ddd1461034557600080fd5b3661027d57005b600080fd5b34801561028e57600080fd5b506102976107fa565b6040516102a49190611cb0565b60405180910390f35b3480156102b957600080fd5b506102cd6102c8366004611d13565b61088c565b60405190151581526020016102a4565b3480156102e957600080fd5b506102cd6102f8366004611d3f565b60176020526000908152604090205460ff1681565b34801561031957600080fd5b5060135461032d906001600160a01b031681565b6040516001600160a01b0390911681526020016102a4565b34801561035157600080fd5b506002545b6040519081526020016102a4565b34801561037057600080fd5b506102cd61037f366004611d63565b6108a6565b34801561039057600080fd5b506103a461039f366004611da4565b6108ca565b005b3480156103b257600080fd5b5061032d61dead81565b3480156103c857600080fd5b5061035660115481565b3480156103de57600080fd5b50604051601281526020016102a4565b3480156103fa57600080fd5b5061035660105481565b34801561041057600080fd5b506102cd61041f366004611d13565b610903565b34801561043057600080fd5b5060145461032d906001600160a01b031681565b34801561045057600080fd5b50600d546102cd9060ff1681565b34801561046a57600080fd5b506103a4610479366004611d3f565b610925565b34801561048a57600080fd5b506102cd610499366004611d3f565b6001600160a01b031660009081526016602052604090205460ff1690565b3480156104c357600080fd5b50600d546102cd9062010000900460ff1681565b3480156104e357600080fd5b506103566104f2366004611d3f565b6001600160a01b031660009081526020819052604090205490565b34801561051957600080fd5b506103a4610999565b34801561052e57600080fd5b506102cd6109ad565b34801561054357600080fd5b506103a4610552366004611df2565b6109d1565b34801561056357600080fd5b5060065461032d906001600160a01b031681565b34801561058357600080fd5b5060085461032d906001600160a01b031681565b3480156105a357600080fd5b5060155461032d906001600160a01b031681565b3480156105c357600080fd5b506103a4610a04565b3480156105d857600080fd5b506005546001600160a01b031661032d565b3480156105f657600080fd5b5060075461032d906001600160a01b031681565b34801561061657600080fd5b506103a4610625366004611e27565b610a1f565b34801561063657600080fd5b50610297610a43565b34801561064b57600080fd5b506103a461065a366004611df2565b610a52565b34801561066b57600080fd5b506102cd61067a366004611d13565b610aec565b34801561068b57600080fd5b506102cd61069a366004611d13565b610b67565b3480156106ab57600080fd5b5061035660125481565b3480156106c157600080fd5b506102cd6106d0366004611d3f565b60186020526000908152604090205460ff1681565b3480156106f157600080fd5b50600d546102cd90610100900460ff1681565b34801561071057600080fd5b506103a461071f366004611df2565b610b75565b34801561073057600080fd5b50610356600a5481565b34801561074657600080fd5b50610356610755366004611da4565b610ba8565b34801561076657600080fd5b50610356600f5481565b34801561077c57600080fd5b50610356600b5481565b34801561079257600080fd5b50610356600e5481565b6103a4610bd3565b3480156107b057600080fd5b506102cd6107bf366004611e42565b610e8a565b3480156107d057600080fd5b506103a46107df366004611d3f565b610efe565b3480156107f057600080fd5b50610356600c5481565b60606003805461080990611e68565b80601f016020809104026020016040519081016040528092919081815260200182805461083590611e68565b80156108825780601f1061085757610100808354040283529160200191610882565b820191906000526020600020905b81548152906001019060200180831161086557829003601f168201915b5050505050905090565b60003361089a818585610f77565b60019150505b92915050565b6000336108b485828561109b565b6108bf85858561110f565b506001949350505050565b6108d2611724565b600780546001600160a01b039283166001600160a01b03199182161790915560068054939092169216919091179055565b60003361089a8185856109168383610ba8565b6109209190611eb8565b610f77565b61092d611724565b6001600160a01b0381166109775760405162461bcd60e51b815260206004820152600c60248201526b6e756c6c206164647265737360a01b60448201526064015b60405180910390fd5b601580546001600160a01b0319166001600160a01b0392909216919091179055565b6109a1611724565b6109ab600061177e565b565b60006109b7611724565b50600d805460ff191690556005600f819055600e55600190565b6109d9611724565b6001600160a01b03919091166000908152601760205260409020805460ff1916911515919091179055565b610a0c611724565b600d805462ffff00191662010100179055565b610a27611724565b600d8054911515620100000262ff000019909216919091179055565b60606004805461080990611e68565b610a5a611724565b6014546001600160a01b0390811690831603610ade5760405162461bcd60e51b815260206004820152603960248201527f54686520706169722063616e6e6f742062652072656d6f7665642066726f6d2060448201527f6175746f6d617465644d61726b65744d616b6572506169727300000000000000606482015260840161096e565b610ae882826117d0565b5050565b60003381610afa8286610ba8565b905083811015610b5a5760405162461bcd60e51b815260206004820152602560248201527f45524332303a2064656372656173656420616c6c6f77616e63652062656c6f77604482015264207a65726f60d81b606482015260840161096e565b6108bf8286868403610f77565b60003361089a81858561110f565b610b7d611724565b6001600160a01b03919091166000908152601660205260409020805460ff1916911515919091179055565b6001600160a01b03918216600090815260016020908152604080832093909416825291909152205490565b610bdb611724565b601380546001600160a01b031916737a250d5630b4cf539739df2c5dacb4c659f2488d908117909155610c0f8160016109d1565b601354610c2a9030906001600160a01b031661092060025490565b806001600160a01b031663c45a01556040518163ffffffff1660e01b8152600401602060405180830381865afa158015610c68573d6000803e3d6000fd5b505050506040513d601f19601f82011682018060405250810190610c8c9190611ecb565b6001600160a01b031663c9c6539630836001600160a01b031663ad5c46486040518163ffffffff1660e01b8152600401602060405180830381865afa158015610cd9573d6000803e3d6000fd5b505050506040513d601f19601f82011682018060405250810190610cfd9190611ecb565b6040516001600160e01b031960e085901b1681526001600160a01b039283166004820152911660248201526044016020604051808303816000875af1158015610d4a573d6000803e3d6000fd5b505050506040513d601f19601f82011682018060405250810190610d6e9190611ecb565b601480546001600160a01b0319166001600160a01b03929092169182179055610d989060016109d1565b601454610daf906001600160a01b031660016117d0565b6013546001600160a01b031663f305d71934306064610dcd60025490565b610dd890605a611ee8565b610de29190611eff565b600080610df76005546001600160a01b031690565b60405160e088901b6001600160e01b03191681526001600160a01b03958616600482015260248101949094526044840192909252606483015290911660848201524260a482015260c40160606040518083038185885af1158015610e5f573d6000803e3d6000fd5b50505050506040513d601f19601f82011682018060405250810190610e849190611f21565b50505050565b6015546000906001600160a01b0316610edc5760405162461bcd60e51b81526020600482015260146024820152731b9d5b1b081c9858da5b99c818dbdb9d1c9858dd60621b604482015260640161096e565b601554610ef69033906001600160a01b0316600019610f77565b506001919050565b610f06611724565b6001600160a01b038116610f6b5760405162461bcd60e51b815260206004820152602660248201527f4f776e61626c653a206e6577206f776e657220697320746865207a65726f206160448201526564647265737360d01b606482015260840161096e565b610f748161177e565b50565b6001600160a01b038316610fd95760405162461bcd60e51b8152602060048201526024808201527f45524332303a20617070726f76652066726f6d20746865207a65726f206164646044820152637265737360e01b606482015260840161096e565b6001600160a01b03821661103a5760405162461bcd60e51b815260206004820152602260248201527f45524332303a20617070726f766520746f20746865207a65726f206164647265604482015261737360f01b606482015260840161096e565b6001600160a01b0383811660008181526001602090815260408083209487168084529482529182902085905590518481527f8c5be1e5ebec7d5bd14f71427d1e84f3dd0314c0f7b2291e5b200ac8c7c3b925910160405180910390a3505050565b60006110a78484610ba8565b90506000198114610e8457818110156111025760405162461bcd60e51b815260206004820152601d60248201527f45524332303a20696e73756666696369656e7420616c6c6f77616e6365000000604482015260640161096e565b610e848484848403610f77565b6001600160a01b0383166111355760405162461bcd60e51b815260040161096e90611f4f565b6001600160a01b03821661115b5760405162461bcd60e51b815260040161096e90611f94565b600081116111bd5760405162461bcd60e51b815260206004820152602960248201527f5472616e7366657220616d6f756e74206d7573742062652067726561746572206044820152687468616e207a65726f60b81b606482015260840161096e565b600d5460ff161561153a576005546001600160a01b038481169116148015906111f457506005546001600160a01b03838116911614155b801561120857506001600160a01b03821615155b801561121f57506001600160a01b03821661dead14155b80156112355750600554600160a01b900460ff16155b1561153a57600d54610100900460ff166112d4576001600160a01b03831660009081526016602052604090205460ff168061128857506001600160a01b03821660009081526016602052604090205460ff165b6112d45760405162461bcd60e51b815260206004820152601b60248201527f54726164696e67206973206e6f7420656e61626c6564207965742e0000000000604482015260640161096e565b6001600160a01b03831660009081526018602052604090205460ff16801561131557506001600160a01b03821660009081526017602052604090205460ff16155b156113f957600a5481111561138a5760405162461bcd60e51b815260206004820152603560248201527f427579207472616e7366657220616d6f756e742065786365656473207468652060448201527436b0bc2a3930b739b0b1ba34b7b720b6b7bab73a1760591b606482015260840161096e565b600c546001600160a01b0383166000908152602081905260409020546113b09083611eb8565b11156113f45760405162461bcd60e51b815260206004820152601360248201527213585e081dd85b1b195d08195e18d959591959606a1b604482015260640161096e565b61153a565b6001600160a01b03821660009081526018602052604090205460ff16801561143a57506001600160a01b03831660009081526017602052604090205460ff16155b156114b057600a548111156113f45760405162461bcd60e51b815260206004820152603660248201527f53656c6c207472616e7366657220616d6f756e742065786365656473207468656044820152751036b0bc2a3930b739b0b1ba34b7b720b6b7bab73a1760511b606482015260840161096e565b6001600160a01b03821660009081526017602052604090205460ff1661153a57600c546001600160a01b0383166000908152602081905260409020546114f69083611eb8565b111561153a5760405162461bcd60e51b815260206004820152601360248201527213585e081dd85b1b195d08195e18d959591959606a1b604482015260640161096e565b600d5462010000900460ff16801561155c5750600554600160a01b900460ff16155b801561158157506001600160a01b03831660009081526018602052604090205460ff16155b80156115a657506001600160a01b03831660009081526016602052604090205460ff16155b80156115cb57506001600160a01b03821660009081526016602052604090205460ff16155b156115f9576005805460ff60a01b1916600160a01b1790556115eb6117fb565b6005805460ff60a01b191690555b6005546001600160a01b03841660009081526016602052604090205460ff600160a01b90920482161591168061164757506001600160a01b03831660009081526016602052604090205460ff165b15611650575060005b60008115611712576001600160a01b03841660009081526018602052604090205460ff16801561168257506000600f54115b156116a8576064600f54846116979190611ee8565b6116a19190611eff565b90506116f4565b6001600160a01b03851660009081526018602052604090205460ff1680156116d257506000600e54115b156116f4576064600e54846116e79190611ee8565b6116f19190611eff565b90505b801561170557611705853083611a2c565b61170f8184611fd7565b92505b61171d858585611a2c565b5050505050565b6005546001600160a01b031633146109ab5760405162461bcd60e51b815260206004820181905260248201527f4f776e61626c653a2063616c6c6572206973206e6f7420746865206f776e6572604482015260640161096e565b600580546001600160a01b038381166001600160a01b0319831681179093556040519116919082907f8be0079c531659141344cd1fd0a4f28419497f9722a3daafe3b4186f6b6457e090600090a35050565b6001600160a01b03919091166000908152601860205260409020805460ff1916911515919091179055565b3060009081526020819052604081205490818103611817575050565b600b548210610ae857600b5461182c81611b56565b60105447906000906064906118419084611ee8565b61184b9190611eff565b9050600060646011548461185f9190611ee8565b6118699190611eff565b90506000816118788486611fd7565b6118829190611fd7565b6006546040519192506001600160a01b0316908490600081818185875af1925050503d80600081146118d0576040519150601f19603f3d011682016040523d82523d6000602084013e6118d5565b606091505b505080965050856118f85760405162461bcd60e51b815260040161096e90611fea565b6007546040516001600160a01b03909116908390600081818185875af1925050503d8060008114611945576040519150601f19603f3d011682016040523d82523d6000602084013e61194a565b606091505b5050809650508561196d5760405162461bcd60e51b815260040161096e90611fea565b6008546040516001600160a01b03909116908290600081818185875af1925050503d80600081146119ba576040519150601f19603f3d011682016040523d82523d6000602084013e6119bf565b606091505b505080965050856119e25760405162461bcd60e51b815260040161096e90611fea565b60408051868152602081018690528715158183015290517fe9f689eb4d290dd3a40869ea626055ee4a55d40f20286208d04ef55f39254cff9181900360600190a150505050505050565b6001600160a01b038316611a525760405162461bcd60e51b815260040161096e90611f4f565b6001600160a01b038216611a785760405162461bcd60e51b815260040161096e90611f94565b6001600160a01b03831660009081526020819052604090205481811015611af05760405162461bcd60e51b815260206004820152602660248201527f45524332303a207472616e7366657220616d6f756e7420657863656564732062604482015265616c616e636560d01b606482015260840161096e565b6001600160a01b03848116600081815260208181526040808320878703905593871680835291849020805487019055925185815290927fddf252ad1be2c89b69c2b068fc378daa952ba7f163c4a11628f55a4df523b3ef910160405180910390a3610e84565b6040805160028082526060820183526000926020830190803683370190505090503081600081518110611b8b57611b8b612014565b6001600160a01b03928316602091820292909201810191909152601354604080516315ab88c960e31b81529051919093169263ad5c46489260048083019391928290030181865afa158015611be4573d6000803e3d6000fd5b505050506040513d601f19601f82011682018060405250810190611c089190611ecb565b81600181518110611c1b57611c1b612014565b6001600160a01b039283166020918202929092010152601354611c419130911684610f77565b60135460405163791ac94760e01b81526001600160a01b039091169063791ac94790611c7a90859060009086903090429060040161202a565b600060405180830381600087803b158015611c9457600080fd5b505af1158015611ca8573d6000803e3d6000fd5b505050505050565b600060208083528351808285015260005b81811015611cdd57858101830151858201604001528201611cc1565b506000604082860101526040601f19601f8301168501019250505092915050565b6001600160a01b0381168114610f7457600080fd5b60008060408385031215611d2657600080fd5b8235611d3181611cfe565b946020939093013593505050565b600060208284031215611d5157600080fd5b8135611d5c81611cfe565b9392505050565b600080600060608486031215611d7857600080fd5b8335611d8381611cfe565b92506020840135611d9381611cfe565b929592945050506040919091013590565b60008060408385031215611db757600080fd5b8235611dc281611cfe565b91506020830135611dd281611cfe565b809150509250929050565b80358015158114611ded57600080fd5b919050565b60008060408385031215611e0557600080fd5b8235611e1081611cfe565b9150611e1e60208401611ddd565b90509250929050565b600060208284031215611e3957600080fd5b611d5c82611ddd565b600060208284031215611e5457600080fd5b813563ffffffff81168114611d5c57600080fd5b600181811c90821680611e7c57607f821691505b602082108103611e9c57634e487b7160e01b600052602260045260246000fd5b50919050565b634e487b7160e01b600052601160045260246000fd5b808201808211156108a0576108a0611ea2565b600060208284031215611edd57600080fd5b8151611d5c81611cfe565b80820281158282048414176108a0576108a0611ea2565b600082611f1c57634e487b7160e01b600052601260045260246000fd5b500490565b600080600060608486031215611f3657600080fd5b8351925060208401519150604084015190509250925092565b60208082526025908201527f45524332303a207472616e736665722066726f6d20746865207a65726f206164604082015264647265737360d81b606082015260800190565b60208082526023908201527f45524332303a207472616e7366657220746f20746865207a65726f206164647260408201526265737360e81b606082015260800190565b818103818111156108a0576108a0611ea2565b60208082526010908201526f1cddd85c109858dace8819985a5b195960821b604082015260600190565b634e487b7160e01b600052603260045260246000fd5b600060a082018783526020878185015260a0604085015281875180845260c086019150828901935060005b8181101561207a5784516001600160a01b031683529383019391830191600101612055565b50506001600160a01b0396909616606085015250505060800152939250505056fea2646970667358221220ae893f2f5e4eb42768e61acd2360dc8816a91c9fa72e7cc11524703231bd33bb64736f6c6343000813003345524332303a207472616e7366657220746f20746865207a65726f206164647245524332303a207472616e736665722066726f6d20746865207a65726f206164ddf252ad1be2c89b69c2b068fc378daa952ba7f163c4a11628f55a4df523b3ef",
  "devdoc": {
    "events": {
      "Approval(address,address,uint256)": {
        "details": "Emitted when the allowance of a `spender` for an `owner` is set by a call to {approve}. `value` is the new allowance."
      },
      "Transfer(address,address,uint256)": {
        "details": "Emitted when `value` tokens are moved from one account (`from`) to another (`to`). Note that `value` may be zero."
      }
    },
    "kind": "dev",
    "methods": {
      "allowance(address,address)": {
        "details": "See {IERC20-allowance}."
      },
      "approve(address,uint256)": {
        "details": "See {IERC20-approve}. NOTE: If `amount` is the maximum `uint256`, the allowance is not updated on `transferFrom`. This is semantically equivalent to an infinite approval. Requirements: - `spender` cannot be the zero address."
      },
      "balanceOf(address)": {
        "details": "See {IERC20-balanceOf}."
      },
      "decimals()": {
        "details": "Returns the number of decimals used to get its user representation. For example, if `decimals` equals `2`, a balance of `505` tokens should be displayed to a user as `5.05` (`505 / 10 ** 2`). Tokens usually opt for a value of 18, imitating the relationship between Ether and Wei. This is the default value returned by this function, unless it's overridden. NOTE: This information is only used for _display_ purposes: it in no way affects any of the arithmetic of the contract, including {IERC20-balanceOf} and {IERC20-transfer}."
      },
      "decreaseAllowance(address,uint256)": {
        "details": "Atomically decreases the allowance granted to `spender` by the caller. This is an alternative to {approve} that can be used as a mitigation for problems described in {IERC20-approve}. Emits an {Approval} event indicating the updated allowance. Requirements: - `spender` cannot be the zero address. - `spender` must have allowance for the caller of at least `subtractedValue`."
      },
      "increaseAllowance(address,uint256)": {
        "details": "Atomically increases the allowance granted to `spender` by the caller. This is an alternative to {approve} that can be used as a mitigation for problems described in {IERC20-approve}. Emits an {Approval} event indicating the updated allowance. Requirements: - `spender` cannot be the zero address."
      },
      "name()": {
        "details": "Returns the name of the token."
      },
      "owner()": {
        "details": "Returns the address of the current owner."
      },
      "renounceOwnership()": {
        "details": "Leaves the contract without owner. It will not be possible to call `onlyOwner` functions. Can only be called by the current owner. NOTE: Renouncing ownership will leave the contract without an owner, thereby disabling any functionality that is only available to the owner."
      },
      "symbol()": {
        "details": "Returns the symbol of the token, usually a shorter version of the name."
      },
      "totalSupply()": {
        "details": "See {IERC20-totalSupply}."
      },
      "transfer(address,uint256)": {
        "details": "See {IERC20-transfer}. Requirements: - `to` cannot be the zero address. - the caller must have a balance of at least `amount`."
      },
      "transferFrom(address,address,uint256)": {
        "details": "See {IERC20-transferFrom}. Emits an {Approval} event indicating the updated allowance. This is not required by the EIP. See the note at the beginning of {ERC20}. NOTE: Does not update the allowance if the current allowance is the maximum `uint256`. Requirements: - `from` and `to` cannot be the zero address. - `from` must have a balance of at least `amount`. - the caller must have allowance for ``from``'s tokens of at least `amount`."
      },
      "transferOwnership(address)": {
        "details": "Transfers ownership of the contract to a new account (`newOwner`). Can only be called by the current owner."
      }
    },
    "version": 1
  },
  "userdoc": {
    "kind": "user",
    "methods": {},
    "version": 1
  },
  "storageLayout": {
    "storage": [
      {
        "astId": 128,
        "contract": "contracts/TestMeme.sol:TestMeme",
        "label": "_balances",
        "offset": 0,
        "slot": "0",
        "type": "t_mapping(t_address,t_uint256)"
      },
      {
        "astId": 134,
        "contract": "contracts/TestMeme.sol:TestMeme",
        "label": "_allowances",
        "offset": 0,
        "slot": "1",
        "type": "t_mapping(t_address,t_mapping(t_address,t_uint256))"
      },
      {
        "astId": 136,
        "contract": "contracts/TestMeme.sol:TestMeme",
        "label": "_totalSupply",
        "offset": 0,
        "slot": "2",
        "type": "t_uint256"
      },
      {
        "astId": 138,
        "contract": "contracts/TestMeme.sol:TestMeme",
        "label": "_name",
        "offset": 0,
        "slot": "3",
        "type": "t_string_storage"
      },
      {
        "astId": 140,
        "contract": "contracts/TestMeme.sol:TestMeme",
        "label": "_symbol",
        "offset": 0,
        "slot": "4",
        "type": "t_string_storage"
      },
      {
        "astId": 7,
        "contract": "contracts/TestMeme.sol:TestMeme",
        "label": "_owner",
        "offset": 0,
        "slot": "5",
        "type": "t_address"
      },
      {
        "astId": 1546,
        "contract": "contracts/TestMeme.sol:TestMeme",
        "label": "swapping",
        "offset": 20,
        "slot": "5",
        "type": "t_bool"
      },
      {
        "astId": 1552,
        "contract": "contracts/TestMeme.sol:TestMeme",
        "label": "marketingWallet",
        "offset": 0,
        "slot": "6",
        "type": "t_address"
      },
      {
        "astId": 1558,
        "contract": "contracts/TestMeme.sol:TestMeme",
        "label": "devWallet",
        "offset": 0,
        "slot": "7",
        "type": "t_address"
      },
      {
        "astId": 1564,
        "contract": "contracts/TestMeme.sol:TestMeme",
        "label": "revShareWallet",
        "offset": 0,
        "slot": "8",
        "type": "t_address"
      },
      {
        "astId": 1569,
        "contract": "contracts/TestMeme.sol:TestMeme",
        "label": "_totalSupply",
        "offset": 0,
        "slot": "9",
        "type": "t_uint256"
      },
      {
        "astId": 1577,
        "contract": "contracts/TestMeme.sol:TestMeme",
        "label": "maxTransactionAmount",
        "offset": 0,
        "slot": "10",
        "type": "t_uint256"
      },
      {
        "astId": 1585,
        "contract": "contracts/TestMeme.sol:TestMeme",
        "label": "swapTokensAtAmount",
        "offset": 0,
        "slot": "11",
        "type": "t_uint256"
      },
      {
        "astId": 1593,
        "contract": "contracts/TestMeme.sol:TestMeme",
        "label": "maxWallet",
        "offset": 0,
        "slot": "12",
        "type": "t_uint256"
      },
      {
        "astId": 1596,
        "contract": "contracts/TestMeme.sol:TestMeme",
        "label": "limitsInEffect",
        "offset": 0,
        "slot": "13",
        "type": "t_bool"
      },
      {
        "astId": 1599,
        "contract": "contracts/TestMeme.sol:TestMeme",
        "label": "tradingActive",
        "offset": 1,
        "slot": "13",
        "type": "t_bool"
      },
      {
        "astId": 1602,
        "contract": "contracts/TestMeme.sol:TestMeme",
        "label": "swapEnabled",
        "offset": 2,
        "slot": "13",
        "type": "t_bool"
      },
      {
        "astId": 1605,
        "contract": "contracts/TestMeme.sol:TestMeme",
        "label": "buyFees",
        "offset": 0,
        "slot": "14",
        "type": "t_uint256"
      },
      {
        "astId": 1608,
        "contract": "contracts/TestMeme.sol:TestMeme",
        "label": "sellFees",
        "offset": 0,
        "slot": "15",
        "type": "t_uint256"
      },
      {
        "astId": 1611,
        "contract": "contracts/TestMeme.sol:TestMeme",
        "label": "marketingAmount",
        "offset": 0,
        "slot": "16",
        "type": "t_uint256"
      },
      {
        "astId": 1614,
        "contract": "contracts/TestMeme.sol:TestMeme",
        "label": "devAmount",
        "offset": 0,
        "slot": "17",
        "type": "t_uint256"
      },
      {
        "astId": 1617,
        "contract": "contracts/TestMeme.sol:TestMeme",
        "label": "revShareAmount",
        "offset": 0,
        "slot": "18",
        "type": "t_uint256"
      },
      {
        "astId": 1620,
        "contract": "contracts/TestMeme.sol:TestMeme",
        "label": "uniswapV2Router",
        "offset": 0,
        "slot": "19",
        "type": "t_contract(IUniswapV2Router02)1525"
      },
      {
        "astId": 1622,
        "contract": "contracts/TestMeme.sol:TestMeme",
        "label": "uniswapV2Pair",
        "offset": 0,
        "slot": "20",
        "type": "t_address"
      },
      {
        "astId": 1630,
        "contract": "contracts/TestMeme.sol:TestMeme",
        "label": "racingContract",
        "offset": 0,
        "slot": "21",
        "type": "t_address"
      },
      {
        "astId": 1634,
        "contract": "contracts/TestMeme.sol:TestMeme",
        "label": "_isExcludedFromFees",
        "offset": 0,
        "slot": "22",
        "type": "t_mapping(t_address,t_bool)"
      },
      {
        "astId": 1638,
        "contract": "contracts/TestMeme.sol:TestMeme",
        "label": "_isExcludedMaxTransactionAmount",
        "offset": 0,
        "slot": "23",
        "type": "t_mapping(t_address,t_bool)"
      },
      {
        "astId": 1642,
        "contract": "contracts/TestMeme.sol:TestMeme",
        "label": "automatedMarketMakerPairs",
        "offset": 0,
        "slot": "24",
        "type": "t_mapping(t_address,t_bool)"
      }
    ],
    "types": {
      "t_address": {
        "encoding": "inplace",
        "label": "address",
        "numberOfBytes": "20"
      },
      "t_bool": {
        "encoding": "inplace",
        "label": "bool",
        "numberOfBytes": "1"
      },
      "t_contract(IUniswapV2Router02)1525": {
        "encoding": "inplace",
        "label": "contract IUniswapV2Router02",
        "numberOfBytes": "20"
      },
      "t_mapping(t_address,t_bool)": {
        "encoding": "mapping",
        "key": "t_address",
        "label": "mapping(address => bool)",
        "numberOfBytes": "32",
        "value": "t_bool"
      },
      "t_mapping(t_address,t_mapping(t_address,t_uint256))": {
        "encoding": "mapping",
        "key": "t_address",
        "label": "mapping(address => mapping(address => uint256))",
        "numberOfBytes": "32",
        "value": "t_mapping(t_address,t_uint256)"
      },
      "t_mapping(t_address,t_uint256)": {
        "encoding": "mapping",
        "key": "t_address",
        "label": "mapping(address => uint256)",
        "numberOfBytes": "32",
        "value": "t_uint256"
      },
      "t_string_storage": {
        "encoding": "bytes",
        "label": "string",
        "numberOfBytes": "32"
      },
      "t_uint256": {
        "encoding": "inplace",
        "label": "uint256",
        "numberOfBytes": "32"
      }
    }
  }
}