{
  "address": "0xd32C596994A07946699cAea4e669C6e284A85958",
  "abi": [
    {
      "inputs": [
        {
          "internalType": "string",
          "name": "_name",
          "type": "string"
        },
        {
          "internalType": "string",
          "name": "_symbol",
          "type": "string"
        },
        {
          "internalType": "string",
          "name": "_baseURI",
          "type": "string"
        },
        {
          "internalType": "uint16",
          "name": "maxSupply_",
          "type": "uint16"
        },
        {
          "internalType": "address",
          "name": "withdrawAddress",
          "type": "address"
        },
        {
          "internalType": "address",
          "name": "_whitelistSignerAddress",
          "type": "address"
        },
        {
          "internalType": "uint256",
          "name": "_whitelistMaxMint",
          "type": "uint256"
        },
        {
          "internalType": "address",
          "name": "_incentiveAddress",
          "type": "address"
        }
      ],
      "stateMutability": "nonpayable",
      "type": "constructor"
    },
    {
      "inputs": [],
      "name": "AlreadyMinted",
      "type": "error"
    },
    {
      "inputs": [],
      "name": "InvalidRecipient",
      "type": "error"
    },
    {
      "inputs": [],
      "name": "InvalidTokenId",
      "type": "error"
    },
    {
      "inputs": [],
      "name": "NotMinted",
      "type": "error"
    },
    {
      "inputs": [],
      "name": "Unauthorized",
      "type": "error"
    },
    {
      "inputs": [],
      "name": "UnsafeRecipient",
      "type": "error"
    },
    {
      "inputs": [],
      "name": "WithdrawFailed",
      "type": "error"
    },
    {
      "inputs": [],
      "name": "WrongFrom",
      "type": "error"
    },
    {
      "inputs": [],
      "name": "ZeroAddress",
      "type": "error"
    },
    {
      "anonymous": false,
      "inputs": [
        {
          "indexed": true,
          "internalType": "address",
          "name": "owner",
          "type": "address"
        },
        {
          "indexed": true,
          "internalType": "address",
          "name": "spender",
          "type": "address"
        },
        {
          "indexed": true,
          "internalType": "uint256",
          "name": "id",
          "type": "uint256"
        }
      ],
      "name": "Approval",
      "type": "event"
    },
    {
      "anonymous": false,
      "inputs": [
        {
          "indexed": true,
          "internalType": "address",
          "name": "owner",
          "type": "address"
        },
        {
          "indexed": true,
          "internalType": "address",
          "name": "operator",
          "type": "address"
        },
        {
          "indexed": false,
          "internalType": "bool",
          "name": "approved",
          "type": "bool"
        }
      ],
      "name": "ApprovalForAll",
      "type": "event"
    },
    {
      "anonymous": false,
      "inputs": [
        {
          "indexed": true,
          "internalType": "address",
          "name": "previousOwner",
          "type": "address"
        },
        {
          "indexed": true,
          "internalType": "address",
          "name": "newOwner",
          "type": "address"
        }
      ],
      "name": "OwnershipTransferred",
      "type": "event"
    },
    {
      "anonymous": false,
      "inputs": [
        {
          "indexed": true,
          "internalType": "address",
          "name": "from",
          "type": "address"
        },
        {
          "indexed": true,
          "internalType": "address",
          "name": "to",
          "type": "address"
        },
        {
          "indexed": true,
          "internalType": "uint256",
          "name": "id",
          "type": "uint256"
        }
      ],
      "name": "Transfer",
      "type": "event"
    },
    {
      "inputs": [],
      "name": "INCENTIVE_ADDRESS",
      "outputs": [
        {
          "internalType": "address",
          "name": "",
          "type": "address"
        }
      ],
      "stateMutability": "view",
      "type": "function"
    },
    {
      "inputs": [],
      "name": "MAX_SUPPLY",
      "outputs": [
        {
          "internalType": "uint16",
          "name": "",
          "type": "uint16"
        }
      ],
      "stateMutability": "view",
      "type": "function"
    },
    {
      "inputs": [],
      "name": "WHITELIST_MAX_MINT",
      "outputs": [
        {
          "internalType": "uint256",
          "name": "",
          "type": "uint256"
        }
      ],
      "stateMutability": "view",
      "type": "function"
    },
    {
      "inputs": [],
      "name": "WHITELIST_SIGNER_ADDRESS",
      "outputs": [
        {
          "internalType": "address",
          "name": "",
          "type": "address"
        }
      ],
      "stateMutability": "view",
      "type": "function"
    },
    {
      "inputs": [],
      "name": "WITHDRAW_ADDRESS",
      "outputs": [
        {
          "internalType": "address",
          "name": "",
          "type": "address"
        }
      ],
      "stateMutability": "view",
      "type": "function"
    },
    {
      "inputs": [
        {
          "internalType": "address",
          "name": "spender",
          "type": "address"
        },
        {
          "internalType": "uint256",
          "name": "id",
          "type": "uint256"
        }
      ],
      "name": "approve",
      "outputs": [],
      "stateMutability": "nonpayable",
      "type": "function"
    },
    {
      "inputs": [],
      "name": "availableTokenCount",
      "outputs": [
        {
          "internalType": "uint256",
          "name": "",
          "type": "uint256"
        }
      ],
      "stateMutability": "view",
      "type": "function"
    },
    {
      "inputs": [
        {
          "internalType": "address",
          "name": "owner",
          "type": "address"
        }
      ],
      "name": "balanceOf",
      "outputs": [
        {
          "internalType": "uint256",
          "name": "",
          "type": "uint256"
        }
      ],
      "stateMutability": "view",
      "type": "function"
    },
    {
      "inputs": [],
      "name": "baseURI",
      "outputs": [
        {
          "internalType": "string",
          "name": "",
          "type": "string"
        }
      ],
      "stateMutability": "view",
      "type": "function"
    },
    {
      "inputs": [],
      "name": "currentSupply",
      "outputs": [
        {
          "internalType": "uint256",
          "name": "",
          "type": "uint256"
        }
      ],
      "stateMutability": "view",
      "type": "function"
    },
    {
      "inputs": [
        {
          "internalType": "uint256",
          "name": "_amount",
          "type": "uint256"
        }
      ],
      "name": "devMint",
      "outputs": [],
      "stateMutability": "nonpayable",
      "type": "function"
    },
    {
      "inputs": [
        {
          "internalType": "uint256",
          "name": "",
          "type": "uint256"
        }
      ],
      "name": "getApproved",
      "outputs": [
        {
          "internalType": "address",
          "name": "",
          "type": "address"
        }
      ],
      "stateMutability": "view",
      "type": "function"
    },
    {
      "inputs": [
        {
          "internalType": "address",
          "name": "",
          "type": "address"
        },
        {
          "internalType": "address",
          "name": "",
          "type": "address"
        }
      ],
      "name": "isApprovedForAll",
      "outputs": [
        {
          "internalType": "bool",
          "name": "",
          "type": "bool"
        }
      ],
      "stateMutability": "view",
      "type": "function"
    },
    {
      "inputs": [],
      "name": "name",
      "outputs": [
        {
          "internalType": "string",
          "name": "",
          "type": "string"
        }
      ],
      "stateMutability": "view",
      "type": "function"
    },
    {
      "inputs": [],
      "name": "owner",
      "outputs": [
        {
          "internalType": "address",
          "name": "",
          "type": "address"
        }
      ],
      "stateMutability": "view",
      "type": "function"
    },
    {
      "inputs": [
        {
          "internalType": "uint256",
          "name": "id",
          "type": "uint256"
        }
      ],
      "name": "ownerOf",
      "outputs": [
        {
          "internalType": "address",
          "name": "owner",
          "type": "address"
        }
      ],
      "stateMutability": "view",
      "type": "function"
    },
    {
      "inputs": [
        {
          "internalType": "uint256",
          "name": "_amount",
          "type": "uint256"
        }
      ],
      "name": "publicMint",
      "outputs": [],
      "stateMutability": "payable",
      "type": "function"
    },
    {
      "inputs": [],
      "name": "publicMintPrice",
      "outputs": [
        {
          "internalType": "uint256",
          "name": "",
          "type": "uint256"
        }
      ],
      "stateMutability": "view",
      "type": "function"
    },
    {
      "inputs": [],
      "name": "renounceOwnership",
      "outputs": [],
      "stateMutability": "nonpayable",
      "type": "function"
    },
    {
      "inputs": [
        {
          "internalType": "string",
          "name": "_revealedURI",
          "type": "string"
        }
      ],
      "name": "reveal",
      "outputs": [],
      "stateMutability": "nonpayable",
      "type": "function"
    },
    {
      "inputs": [
        {
          "internalType": "uint256",
          "name": "tokenId",
          "type": "uint256"
        },
        {
          "internalType": "uint256",
          "name": "salePrice",
          "type": "uint256"
        }
      ],
      "name": "royaltyInfo",
      "outputs": [
        {
          "internalType": "address",
          "name": "",
          "type": "address"
        },
        {
          "internalType": "uint256",
          "name": "",
          "type": "uint256"
        }
      ],
      "stateMutability": "view",
      "type": "function"
    },
    {
      "inputs": [
        {
          "internalType": "address",
          "name": "from",
          "type": "address"
        },
        {
          "internalType": "address",
          "name": "to",
          "type": "address"
        },
        {
          "internalType": "uint256",
          "name": "id",
          "type": "uint256"
        }
      ],
      "name": "safeTransferFrom",
      "outputs": [],
      "stateMutability": "nonpayable",
      "type": "function"
    },
    {
      "inputs": [
        {
          "internalType": "address",
          "name": "from",
          "type": "address"
        },
        {
          "internalType": "address",
          "name": "to",
          "type": "address"
        },
        {
          "internalType": "uint256",
          "name": "id",
          "type": "uint256"
        },
        {
          "internalType": "bytes",
          "name": "data",
          "type": "bytes"
        }
      ],
      "name": "safeTransferFrom",
      "outputs": [],
      "stateMutability": "nonpayable",
      "type": "function"
    },
    {
      "inputs": [
        {
          "internalType": "address",
          "name": "operator",
          "type": "address"
        },
        {
          "internalType": "bool",
          "name": "approved",
          "type": "bool"
        }
      ],
      "name": "setApprovalForAll",
      "outputs": [],
      "stateMutability": "nonpayable",
      "type": "function"
    },
    {
      "inputs": [
        {
          "internalType": "string",
          "name": "_baseURI_",
          "type": "string"
        }
      ],
      "name": "setBaseURI",
      "outputs": [],
      "stateMutability": "nonpayable",
      "type": "function"
    },
    {
      "inputs": [
        {
          "internalType": "address",
          "name": "receiver",
          "type": "address"
        },
        {
          "internalType": "uint96",
          "name": "feeNumerator",
          "type": "uint96"
        }
      ],
      "name": "setDefaultRoyalty",
      "outputs": [],
      "stateMutability": "nonpayable",
      "type": "function"
    },
    {
      "inputs": [
        {
          "internalType": "string",
          "name": "_newName",
          "type": "string"
        },
        {
          "internalType": "string",
          "name": "_newSymbol",
          "type": "string"
        }
      ],
      "name": "setNameAndSymbol",
      "outputs": [],
      "stateMutability": "nonpayable",
      "type": "function"
    },
    {
      "inputs": [
        {
          "internalType": "uint256",
          "name": "_publicMintPrice",
          "type": "uint256"
        }
      ],
      "name": "setPublicMintPrice",
      "outputs": [],
      "stateMutability": "nonpayable",
      "type": "function"
    },
    {
      "inputs": [
        {
          "internalType": "uint8",
          "name": "_newStage",
          "type": "uint8"
        }
      ],
      "name": "setStage",
      "outputs": [],
      "stateMutability": "nonpayable",
      "type": "function"
    },
    {
      "inputs": [
        {
          "internalType": "uint256",
          "name": "tokenId",
          "type": "uint256"
        },
        {
          "internalType": "address",
          "name": "receiver",
          "type": "address"
        },
        {
          "internalType": "uint96",
          "name": "feeNumerator",
          "type": "uint96"
        }
      ],
      "name": "setTokenRoyalty",
      "outputs": [],
      "stateMutability": "nonpayable",
      "type": "function"
    },
    {
      "inputs": [
        {
          "internalType": "uint256",
          "name": "_whitelistMintPrice",
          "type": "uint256"
        }
      ],
      "name": "setWhitelistMintPrice",
      "outputs": [],
      "stateMutability": "nonpayable",
      "type": "function"
    },
    {
      "inputs": [],
      "name": "stage",
      "outputs": [
        {
          "internalType": "uint8",
          "name": "",
          "type": "uint8"
        }
      ],
      "stateMutability": "view",
      "type": "function"
    },
    {
      "inputs": [
        {
          "internalType": "bytes4",
          "name": "interfaceId",
          "type": "bytes4"
        }
      ],
      "name": "supportsInterface",
      "outputs": [
        {
          "internalType": "bool",
          "name": "",
          "type": "bool"
        }
      ],
      "stateMutability": "view",
      "type": "function"
    },
    {
      "inputs": [],
      "name": "symbol",
      "outputs": [
        {
          "internalType": "string",
          "name": "",
          "type": "string"
        }
      ],
      "stateMutability": "view",
      "type": "function"
    },
    {
      "inputs": [],
      "name": "tokenCount",
      "outputs": [
        {
          "internalType": "uint256",
          "name": "",
          "type": "uint256"
        }
      ],
      "stateMutability": "view",
      "type": "function"
    },
    {
      "inputs": [
        {
          "internalType": "uint256",
          "name": "tokenId",
          "type": "uint256"
        }
      ],
      "name": "tokenURI",
      "outputs": [
        {
          "internalType": "string",
          "name": "",
          "type": "string"
        }
      ],
      "stateMutability": "view",
      "type": "function"
    },
    {
      "inputs": [],
      "name": "totalMaxSupply",
      "outputs": [
        {
          "internalType": "uint256",
          "name": "",
          "type": "uint256"
        }
      ],
      "stateMutability": "view",
      "type": "function"
    },
    {
      "inputs": [],
      "name": "totalSupply",
      "outputs": [
        {
          "internalType": "uint256",
          "name": "",
          "type": "uint256"
        }
      ],
      "stateMutability": "view",
      "type": "function"
    },
    {
      "inputs": [
        {
          "internalType": "address",
          "name": "from",
          "type": "address"
        },
        {
          "internalType": "address",
          "name": "to",
          "type": "address"
        },
        {
          "internalType": "uint256",
          "name": "id",
          "type": "uint256"
        }
      ],
      "name": "transferFrom",
      "outputs": [],
      "stateMutability": "nonpayable",
      "type": "function"
    },
    {
      "inputs": [
        {
          "internalType": "address",
          "name": "newOwner",
          "type": "address"
        }
      ],
      "name": "transferOwnership",
      "outputs": [],
      "stateMutability": "nonpayable",
      "type": "function"
    },
    {
      "inputs": [
        {
          "internalType": "uint256",
          "name": "_amount",
          "type": "uint256"
        },
        {
          "internalType": "bytes",
          "name": "nonce",
          "type": "bytes"
        },
        {
          "internalType": "bytes",
          "name": "signature",
          "type": "bytes"
        }
      ],
      "name": "whitelistMint",
      "outputs": [],
      "stateMutability": "payable",
      "type": "function"
    },
    {
      "inputs": [
        {
          "internalType": "address",
          "name": "",
          "type": "address"
        }
      ],
      "name": "whitelistMintCount",
      "outputs": [
        {
          "internalType": "uint256",
          "name": "",
          "type": "uint256"
        }
      ],
      "stateMutability": "view",
      "type": "function"
    },
    {
      "inputs": [],
      "name": "whitelistMintPrice",
      "outputs": [
        {
          "internalType": "uint256",
          "name": "",
          "type": "uint256"
        }
      ],
      "stateMutability": "view",
      "type": "function"
    },
    {
      "inputs": [],
      "name": "withdraw",
      "outputs": [],
      "stateMutability": "nonpayable",
      "type": "function"
    }
  ],
  "transactionHash": "0x056d12b2b6795b98c0848356086a003353f1d6692eac2b925f41dc94253bad3a",
  "args": [
    "ArgoPetz",
    "ARGOPETZ",
    "ipfs://bafybeiftfn2trjds7ncovc7lieviekqdeb2ddhaevf3a22bgjz26pztvsy/",
    8888,
    "0x7AECa63e4B51b0Ff8A8a82b3231033ca4CA6301b",
    "0x6A952f966c5DcC36A094c8AB141f027fb58F864e",
    50,
    "0x31ea6CF75114191C701A4fbf294b69f6f06e0A2b"
  ],
  "numDeployments": 5,
  "solcInputHash": "f68edfeaeb4cd010d9ae01294b18c339",
  "bytecode": "0x61012060405268185720711896640000600f55681b0d04202f47ec00006010553480156200002c57600080fd5b5060405162003372380380620033728339810160408190526200004f91620003a4565b61ffff85166006818a8a600062000067838262000519565b50600162000076828262000519565b505050600955600b55506200008b3362000116565b61ffff85166080526200009e8662000168565b6001600160a01b0380851660c05283811660e05260a0839052811661010052600d805460059190600090620000d5908490620005e5565b90915550600190505b60058111620000fc57620000f3338262000184565b600101620000de565b50506013805460ff19169055506200060d95505050505050565b600c80546001600160a01b038381166001600160a01b0319831681179093556040519116919082907f8be0079c531659141344cd1fd0a4f28419497f9722a3daafe3b4186f6b6457e090600090a35050565b620001726200024e565b601262000180828262000519565b5050565b6001600160a01b038216620001ac57604051634e46966960e11b815260040160405180910390fd5b6000818152600260205260409020546001600160a01b031615620001e357604051631bbdf5c560e31b815260040160405180910390fd5b6001600160a01b038216600081815260036020908152604080832080546001019055848352600290915280822080546001600160a01b0319168417905551839291907fddf252ad1be2c89b69c2b068fc378daa952ba7f163c4a11628f55a4df523b3ef908290a45050565b600c546001600160a01b03163314620002ad5760405162461bcd60e51b815260206004820181905260248201527f4f776e61626c653a2063616c6c6572206973206e6f7420746865206f776e6572604482015260640160405180910390fd5b565b634e487b7160e01b600052604160045260246000fd5b600082601f830112620002d757600080fd5b81516001600160401b0380821115620002f457620002f4620002af565b604051601f8301601f19908116603f011681019082821181831017156200031f576200031f620002af565b816040528381526020925086838588010111156200033c57600080fd5b600091505b8382101562000360578582018301518183018401529082019062000341565b600093810190920192909252949350505050565b805161ffff811681146200038757600080fd5b919050565b80516001600160a01b03811681146200038757600080fd5b600080600080600080600080610100898b031215620003c257600080fd5b88516001600160401b0380821115620003da57600080fd5b620003e88c838d01620002c5565b995060208b0151915080821115620003ff57600080fd5b6200040d8c838d01620002c5565b985060408b01519150808211156200042457600080fd5b50620004338b828c01620002c5565b9650506200044460608a0162000374565b94506200045460808a016200038c565b93506200046460a08a016200038c565b925060c089015191506200047b60e08a016200038c565b90509295985092959890939650565b600181811c908216806200049f57607f821691505b602082108103620004c057634e487b7160e01b600052602260045260246000fd5b50919050565b601f8211156200051457600081815260208120601f850160051c81016020861015620004ef5750805b601f850160051c820191505b818110156200051057828155600101620004fb565b5050505b505050565b81516001600160401b03811115620005355762000535620002af565b6200054d816200054684546200048a565b84620004c6565b602080601f8311600181146200058557600084156200056c5750858301515b600019600386901b1c1916600185901b17855562000510565b600085815260208120601f198616915b82811015620005b65788860151825594840194600190910190840162000595565b5085821015620005d55787850151600019600388901b60f8161c191681555b5050505050600190811b01905550565b808201808211156200060757634e487b7160e01b600052601160045260246000fd5b92915050565b60805160a05160c05160e05161010051612cef620006836000396000818161051c01526110e00152600081816106ed015261185d01526000818161036501526111120152600081816107410152610d3e01526000818161043d01528181610c9301528181610fb601526110570152612cef6000f3fe6080604052600436106102675760003560e01c80635d82cf6e11610144578063a591c4cb116100b6578063c87b56dd1161007a578063c87b56dd146107af578063ce3cd997146107cf578063dc53fd92146107ef578063e14ca35314610805578063e985e9c51461081a578063f2fde38b1461085557600080fd5b8063a591c4cb146106db578063a611708e1461070f578063aeb167681461072f578063b88d4fde14610763578063c040e6b81461078357600080fd5b8063771282f611610108578063771282f6146106485780638da5cb5b1461065e57806395d89b411461067c5780639f181b5e14610691578063a0617ad0146106a6578063a22cb465146106bb57600080fd5b80635d82cf6e146105be5780636352211e146105de5780636c0360eb146105fe57806370a0823114610613578063715018a61461063357600080fd5b806332cb6b0c116101dd57806342842e0e116101a157806342842e0e146104ea578063442238851461050a5780634c2612471461053e57806355f804b31461055e5780635944c7531461057e5780635a4462151461059e57600080fd5b806332cb6b0c1461042b57806335c6aaf814610472578063375a069a146104885780633bdf4ac6146104a85780633ccfd60b146104d557600080fd5b8063122e04a81161022f578063122e04a81461035357806318160ddd1461038757806323b872dd146103a657806324436f77146103c65780632a55205a146103d95780632db115441461041857600080fd5b806301ffc9a71461026c57806304634d8d146102a157806306fdde03146102c3578063081812fc146102e5578063095ea7b314610333575b600080fd5b34801561027857600080fd5b5061028c610287366004612055565b610875565b60405190151581526020015b60405180910390f35b3480156102ad57600080fd5b506102c16102bc3660046120a7565b610895565b005b3480156102cf57600080fd5b506102d86108ab565b60405161029891906120fe565b3480156102f157600080fd5b5061031b610300366004612131565b6004602052600090815260409020546001600160a01b031681565b6040516001600160a01b039091168152602001610298565b34801561033f57600080fd5b506102c161034e36600461214a565b610939565b34801561035f57600080fd5b5061031b7f000000000000000000000000000000000000000000000000000000000000000081565b34801561039357600080fd5b50600d545b604051908152602001610298565b3480156103b257600080fd5b506102c16103c1366004612174565b6109fe565b6102c16103d43660046121f2565b610b6b565b3480156103e557600080fd5b506103f96103f436600461226c565b610e56565b604080516001600160a01b039093168352602083019190915201610298565b6102c1610426366004612131565b610f04565b34801561043757600080fd5b5061045f7f000000000000000000000000000000000000000000000000000000000000000081565b60405161ffff9091168152602001610298565b34801561047e57600080fd5b50610398600f5481565b34801561049457600080fd5b506102c16104a3366004612131565b61104d565b3480156104b457600080fd5b506103986104c336600461228e565b600e6020526000908152604090205481565b3480156104e157600080fd5b506102c161110e565b3480156104f657600080fd5b506102c1610505366004612174565b6111a5565b34801561051657600080fd5b5061031b7f000000000000000000000000000000000000000000000000000000000000000081565b34801561054a57600080fd5b506102c16105593660046122bf565b611278565b34801561056a57600080fd5b506102c16105793660046122bf565b611292565b34801561058a57600080fd5b506102c1610599366004612370565b6112a6565b3480156105aa57600080fd5b506102c16105b93660046123ac565b6112b9565b3480156105ca57600080fd5b506102c16105d9366004612131565b6112e3565b3480156105ea57600080fd5b5061031b6105f9366004612131565b6112f0565b34801561060a57600080fd5b506102d861132b565b34801561061f57600080fd5b5061039861062e36600461228e565b611338565b34801561063f57600080fd5b506102c161137d565b34801561065457600080fd5b50610398600d5481565b34801561066a57600080fd5b50600c546001600160a01b031661031b565b34801561068857600080fd5b506102d8611391565b34801561069d57600080fd5b5061039861139e565b3480156106b257600080fd5b50600954610398565b3480156106c757600080fd5b506102c16106d6366004612418565b6113ae565b3480156106e757600080fd5b5061031b7f000000000000000000000000000000000000000000000000000000000000000081565b34801561071b57600080fd5b506102c161072a366004612131565b61141a565b34801561073b57600080fd5b506103987f000000000000000000000000000000000000000000000000000000000000000081565b34801561076f57600080fd5b506102c161077e366004612454565b611427565b34801561078f57600080fd5b5060115461079d9060ff1681565b60405160ff9091168152602001610298565b3480156107bb57600080fd5b506102d86107ca366004612131565b6114e3565b3480156107db57600080fd5b506102c16107ea3660046124b2565b611593565b3480156107fb57600080fd5b5061039860105481565b34801561081157600080fd5b506103986115b1565b34801561082657600080fd5b5061028c6108353660046124d5565b600560209081526000928352604080842090915290825290205460ff1681565b34801561086157600080fd5b506102c161087036600461228e565b6115c8565b60006108808261163e565b8061088f575061088f8261168c565b92915050565b61089d6116c1565b6108a7828261171b565b5050565b600080546108b8906124ff565b80601f01602080910402602001604051908101604052809291908181526020018280546108e4906124ff565b80156109315780601f1061090657610100808354040283529160200191610931565b820191906000526020600020905b81548152906001019060200180831161091457829003601f168201915b505050505081565b6000818152600260205260409020546001600160a01b031633811480159061098557506001600160a01b038116600090815260056020908152604080832033845290915290205460ff16155b156109a2576040516282b42960e81b815260040160405180910390fd5b60008281526004602052604080822080546001600160a01b0319166001600160a01b0387811691821790925591518593918516917f8c5be1e5ebec7d5bd14f71427d1e84f3dd0314c0f7b2291e5b200ac8c7c3b92591a4505050565b6000818152600260205260409020546001600160a01b03848116911614610a385760405163c6de3f2560e01b815260040160405180910390fd5b6001600160a01b038216610a5f57604051634e46966960e11b815260040160405180910390fd5b336001600160a01b03841614801590610a9c57506001600160a01b038316600090815260056020908152604080832033845290915290205460ff16155b8015610abf57506000818152600460205260409020546001600160a01b03163314155b15610adc576040516282b42960e81b815260040160405180910390fd5b6001600160a01b0380841660008181526003602090815260408083208054600019019055938616808352848320805460010190558583526002825284832080546001600160a01b03199081168317909155600490925284832080549092169091559251849392917fddf252ad1be2c89b69c2b068fc378daa952ba7f163c4a11628f55a4df523b3ef91a4505050565b601154610b84903390869086908690869060ff166117d5565b610bd55760405162461bcd60e51b815260206004820152601c60248201527f4172676f5065747a3a20496e76616c6964205369676e6174757265210000000060448201526064015b60405180910390fd5b60115460ff16600114610c365760405162461bcd60e51b8152602060048201526024808201527f4172676f5065747a3a2057686974656c697374204d696e74206973206e6f742060448201526337b832b760e11b6064820152608401610bcc565b600f54610c43908661254f565b3414610c915760405162461bcd60e51b815260206004820152601b60248201527f4172676f5065747a3a20496e73756666696369656e742043524f2100000000006044820152606401610bcc565b7f000000000000000000000000000000000000000000000000000000000000000061ffff1685610cc0600d5490565b610cca9190612566565b1115610d2c5760405162461bcd60e51b815260206004820152602b60248201527f4172676f5065747a3a204578636565646564204d617820537570706c7920666f60448201526a72204172676f5065747a2160a81b6064820152608401610bcc565b336000908152600e60205260409020547f000000000000000000000000000000000000000000000000000000000000000090610d69908790612566565b1115610de85760405162461bcd60e51b815260206004820152604260248201527f4172676f5065747a3a2057616c6c65742068617320616c7265616479206d696e60448201527f746564204d617820416d6f756e7420666f722057686974656c697374204d696e606482015261742160f01b608482015260a401610bcc565b84600d6000828254610dfa9190612566565b9091555050336000908152600e602052604081208054879290610e1e908490612566565b90915550600090505b85811015610e4e576000610e39611893565b9050610e453382611a2c565b50600101610e27565b505050505050565b60008281526007602090815260408083208151808301909252546001600160a01b038116808352600160a01b9091046001600160601b0316928201929092528291610ecb5750604080518082019091526006546001600160a01b0381168252600160a01b90046001600160601b031660208201525b602081015160009061271090610eea906001600160601b03168761254f565b610ef4919061258f565b91519350909150505b9250929050565b60115460ff16600214610f595760405162461bcd60e51b815260206004820152601d60248201527f4172676f5065747a3a205075626c69632053616c6520436c6f736564210000006044820152606401610bcc565b601054610f66908261254f565b3414610fb45760405162461bcd60e51b815260206004820152601b60248201527f4172676f5065747a3a20496e73756666696369656e742043524f2100000000006044820152606401610bcc565b7f000000000000000000000000000000000000000000000000000000000000000061ffff1681610fe3600d5490565b610fed9190612566565b111561100b5760405162461bcd60e51b8152600401610bcc906125a3565b80600d600082825461101d9190612566565b90915550600090505b818110156108a7576000611038611893565b90506110443382611a2c565b50600101611026565b6110556116c1565b7f000000000000000000000000000000000000000000000000000000000000000061ffff1681611084600d5490565b61108e9190612566565b11156110ac5760405162461bcd60e51b8152600401610bcc906125a3565b80600d60008282546110be9190612566565b90915550600090505b818110156108a75760006110d9611893565b90506111057f000000000000000000000000000000000000000000000000000000000000000082611a2c565b506001016110c7565b60007f00000000000000000000000000000000000000000000000000000000000000006001600160a01b03164760405160006040518083038185875af1925050503d806000811461117b576040519150601f19603f3d011682016040523d82523d6000602084013e611180565b606091505b50509050806111a257604051631d42c86760e21b815260040160405180910390fd5b50565b6111b08383836109fe565b6001600160a01b0382163b1561127357604051630a85bd0160e11b8082523360048301526001600160a01b03858116602484015260448301849052608060648401526000608484015290919084169063150b7a029060a4016020604051808303816000875af1158015611227573d6000803e3d6000fd5b505050506040513d601f19601f8201168201806040525081019061124b91906125f0565b6001600160e01b0319161461127357604051633da6393160e01b815260040160405180910390fd5b505050565b6112806116c1565b6013805460ff191660011790556111a2815b61129a6116c1565b60126108a78282612653565b6112ae6116c1565b611273838383611af4565b6112c16116c1565b60006112ce848683612713565b5060016112dc828483612713565b5050505050565b6112eb6116c1565b601055565b6000818152600260205260409020546001600160a01b03168061132657604051634d5e5fb360e01b815260040160405180910390fd5b919050565b601280546108b8906124ff565b60006001600160a01b0382166113615760405163d92e233d60e01b815260040160405180910390fd5b506001600160a01b031660009081526003602052604090205490565b6113856116c1565b61138f6000611bbf565b565b600180546108b8906124ff565b60006113a960085490565b905090565b3360008181526005602090815260408083206001600160a01b03871680855290835292819020805460ff191686151590811790915590519081529192917f17307eab39ab6107e8899845ad3d59bd9653f200f220920489ca2b5937696c31910160405180910390a35050565b6114226116c1565b600f55565b6114328585856109fe565b6001600160a01b0384163b156112dc57604051630a85bd0160e11b808252906001600160a01b0386169063150b7a02906114789033908a908990899089906004016127d3565b6020604051808303816000875af1158015611497573d6000803e3d6000fd5b505050506040513d601f19601f820116820180604052508101906114bb91906125f0565b6001600160e01b031916146112dc57604051633da6393160e01b815260040160405180910390fd5b6000818152600260205260409020546060906001600160a01b031661151b576040516307ed98ed60e31b815260040160405180910390fd5b60135460ff1661156157600061153083611c11565b61153984611c11565b60405160200161154a929190612843565b60408051601f198184030181529190529392505050565b601261156c83611c11565b60405160200161157d929190612b5e565b6040516020818303038152906040529050919050565b61159b6116c1565b6011805460ff191660ff92909216919091179055565b60006115bb61139e565b6009546113a99190612bf5565b6115d06116c1565b6001600160a01b0381166116355760405162461bcd60e51b815260206004820152602660248201527f4f776e61626c653a206e6577206f776e657220697320746865207a65726f206160448201526564647265737360d01b6064820152608401610bcc565b6111a281611bbf565b60006301ffc9a760e01b6001600160e01b03198316148061166f57506380ac58cd60e01b6001600160e01b03198316145b8061088f5750506001600160e01b031916635b5e139f60e01b1490565b60006001600160e01b0319821663152a902d60e11b148061088f57506301ffc9a760e01b6001600160e01b031983161461088f565b600c546001600160a01b0316331461138f5760405162461bcd60e51b815260206004820181905260248201527f4f776e61626c653a2063616c6c6572206973206e6f7420746865206f776e65726044820152606401610bcc565b6127106001600160601b03821611156117465760405162461bcd60e51b8152600401610bcc90612c08565b6001600160a01b03821661179c5760405162461bcd60e51b815260206004820152601960248201527f455243323938313a20696e76616c6964207265636569766572000000000000006044820152606401610bcc565b604080518082019091526001600160a01b039092168083526001600160601b039091166020909201829052600160a01b90910217600655565b600080878787856040516020016117ef9493929190612c52565b60405160208183030381529060405280519060200120905061185285858080601f01602080910402602001604051908101604052809392919081815260200183838082843760009201919091525061184c9250859150611ca49050565b90611cd7565b6001600160a01b03167f00000000000000000000000000000000000000000000000000000000000000006001600160a01b0316149150509695505050505050565b60008061189e6115b1565b116118eb5760405162461bcd60e51b815260206004820152601860248201527f4e6f206d6f726520746f6b656e7320617661696c61626c6500000000000000006044820152606401610bcc565b60006118f561139e565b6009546119029190612bf5565b6040516bffffffffffffffffffffffff1933606090811b8216602084015241901b166034820152446048820152456068820152426088820152909150600090829060a8016040516020818303038152906040528051906020012060001c6119699190612c8f565b6000818152600a602052604081205491925090810361198957508061199a565b506000818152600a60205260409020545b600a60006119a9600186612bf5565b8152602001908152602001600020546000036119de576119ca600184612bf5565b6000838152600a6020526040902055611a0e565b600a60006119ed600186612bf5565b81526020808201929092526040908101600090812054858252600a90935220555b611a16611cfb565b50600b54611a249082612566565b935050505090565b6001600160a01b038216611a5357604051634e46966960e11b815260040160405180910390fd5b6000818152600260205260409020546001600160a01b031615611a8957604051631bbdf5c560e31b815260040160405180910390fd5b6001600160a01b038216600081815260036020908152604080832080546001019055848352600290915280822080546001600160a01b0319168417905551839291907fddf252ad1be2c89b69c2b068fc378daa952ba7f163c4a11628f55a4df523b3ef908290a45050565b6127106001600160601b0382161115611b1f5760405162461bcd60e51b8152600401610bcc90612c08565b6001600160a01b038216611b755760405162461bcd60e51b815260206004820152601b60248201527f455243323938313a20496e76616c696420706172616d657465727300000000006044820152606401610bcc565b6040805180820182526001600160a01b0393841681526001600160601b0392831660208083019182526000968752600790529190942093519051909116600160a01b029116179055565b600c80546001600160a01b038381166001600160a01b0319831681179093556040519116919082907f8be0079c531659141344cd1fd0a4f28419497f9722a3daafe3b4186f6b6457e090600090a35050565b60606000611c1e83611d17565b600101905060008167ffffffffffffffff811115611c3e57611c3e6122a9565b6040519080825280601f01601f191660200182016040528015611c68576020820181803683370190505b5090508181016020015b600019016f181899199a1a9b1b9c1cb0b131b232b360811b600a86061a8153600a8504945084611c7257509392505050565b7f19457468657265756d205369676e6564204d6573736167653a0a3332000000006000908152601c91909152603c902090565b6000806000611ce68585611def565b91509150611cf381611e31565b509392505050565b600080611d0760085490565b9050611326600880546001019055565b60008072184f03e93ff9f4daa797ed6e38ed64bf6a1f0160401b8310611d565772184f03e93ff9f4daa797ed6e38ed64bf6a1f0160401b830492506040015b6d04ee2d6d415b85acef81000000008310611d82576d04ee2d6d415b85acef8100000000830492506020015b662386f26fc100008310611da057662386f26fc10000830492506010015b6305f5e1008310611db8576305f5e100830492506008015b6127108310611dcc57612710830492506004015b60648310611dde576064830492506002015b600a831061088f5760010192915050565b6000808251604103611e255760208301516040840151606085015160001a611e1987828585611f7b565b94509450505050610efd565b50600090506002610efd565b6000816004811115611e4557611e45612ca3565b03611e4d5750565b6001816004811115611e6157611e61612ca3565b03611eae5760405162461bcd60e51b815260206004820152601860248201527f45434453413a20696e76616c6964207369676e617475726500000000000000006044820152606401610bcc565b6002816004811115611ec257611ec2612ca3565b03611f0f5760405162461bcd60e51b815260206004820152601f60248201527f45434453413a20696e76616c6964207369676e6174757265206c656e677468006044820152606401610bcc565b6003816004811115611f2357611f23612ca3565b036111a25760405162461bcd60e51b815260206004820152602260248201527f45434453413a20696e76616c6964207369676e6174757265202773272076616c604482015261756560f01b6064820152608401610bcc565b6000807f7fffffffffffffffffffffffffffffff5d576e7357a4501ddfe92f46681b20a0831115611fb25750600090506003612036565b6040805160008082526020820180845289905260ff881692820192909252606081018690526080810185905260019060a0016020604051602081039080840390855afa158015612006573d6000803e3d6000fd5b5050604051601f1901519150506001600160a01b03811661202f57600060019250925050612036565b9150600090505b94509492505050565b6001600160e01b0319811681146111a257600080fd5b60006020828403121561206757600080fd5b81356120728161203f565b9392505050565b80356001600160a01b038116811461132657600080fd5b80356001600160601b038116811461132657600080fd5b600080604083850312156120ba57600080fd5b6120c383612079565b91506120d160208401612090565b90509250929050565b60005b838110156120f55781810151838201526020016120dd565b50506000910152565b602081526000825180602084015261211d8160408501602087016120da565b601f01601f19169190910160400192915050565b60006020828403121561214357600080fd5b5035919050565b6000806040838503121561215d57600080fd5b61216683612079565b946020939093013593505050565b60008060006060848603121561218957600080fd5b61219284612079565b92506121a060208501612079565b9150604084013590509250925092565b60008083601f8401126121c257600080fd5b50813567ffffffffffffffff8111156121da57600080fd5b602083019150836020828501011115610efd57600080fd5b60008060008060006060868803121561220a57600080fd5b85359450602086013567ffffffffffffffff8082111561222957600080fd5b61223589838a016121b0565b9096509450604088013591508082111561224e57600080fd5b5061225b888289016121b0565b969995985093965092949392505050565b6000806040838503121561227f57600080fd5b50508035926020909101359150565b6000602082840312156122a057600080fd5b61207282612079565b634e487b7160e01b600052604160045260246000fd5b6000602082840312156122d157600080fd5b813567ffffffffffffffff808211156122e957600080fd5b818401915084601f8301126122fd57600080fd5b81358181111561230f5761230f6122a9565b604051601f8201601f19908116603f01168101908382118183101715612337576123376122a9565b8160405282815287602084870101111561235057600080fd5b826020860160208301376000928101602001929092525095945050505050565b60008060006060848603121561238557600080fd5b8335925061239560208501612079565b91506123a360408501612090565b90509250925092565b600080600080604085870312156123c257600080fd5b843567ffffffffffffffff808211156123da57600080fd5b6123e6888389016121b0565b909650945060208701359150808211156123ff57600080fd5b5061240c878288016121b0565b95989497509550505050565b6000806040838503121561242b57600080fd5b61243483612079565b91506020830135801515811461244957600080fd5b809150509250929050565b60008060008060006080868803121561246c57600080fd5b61247586612079565b945061248360208701612079565b935060408601359250606086013567ffffffffffffffff8111156124a657600080fd5b61225b888289016121b0565b6000602082840312156124c457600080fd5b813560ff8116811461207257600080fd5b600080604083850312156124e857600080fd5b6124f183612079565b91506120d160208401612079565b600181811c9082168061251357607f821691505b60208210810361253357634e487b7160e01b600052602260045260246000fd5b50919050565b634e487b7160e01b600052601160045260246000fd5b808202811582820484141761088f5761088f612539565b8082018082111561088f5761088f612539565b634e487b7160e01b600052601260045260246000fd5b60008261259e5761259e612579565b500490565b6020808252602d908201527f4172676f5065747a3a204d617820537570706c7920666f72205075626c69632060408201526c4d696e7420526561636865642160981b606082015260800190565b60006020828403121561260257600080fd5b81516120728161203f565b601f82111561127357600081815260208120601f850160051c810160208610156126345750805b601f850160051c820191505b81811015610e4e57828155600101612640565b815167ffffffffffffffff81111561266d5761266d6122a9565b6126818161267b84546124ff565b8461260d565b602080601f8311600181146126b6576000841561269e5750858301515b600019600386901b1c1916600185901b178555610e4e565b600085815260208120601f198616915b828110156126e5578886015182559484019460019091019084016126c6565b50858210156127035787850151600019600388901b60f8161c191681555b5050505050600190811b01905550565b67ffffffffffffffff83111561272b5761272b6122a9565b61273f8361273983546124ff565b8361260d565b6000601f841160018114612773576000851561275b5750838201355b600019600387901b1c1916600186901b1783556112dc565b600083815260209020601f19861690835b828110156127a45786850135825560209485019460019092019101612784565b50868210156127c15760001960f88860031b161c19848701351681555b505060018560011b0183555050505050565b6001600160a01b038681168252851660208201526040810184905260806060820181905281018290526000828460a0840137600060a0848401015260a0601f19601f85011683010190509695505050505050565b600081516128398185602086016120da565b9290920192915050565b607b60f81b81527f226e616d65223a20224172676f5065747a204c6f6f74626f782023000000000060018201526000835161288581601c8501602088016120da565b61088b60f21b601c918401918201527f226465736372697074696f6e223a20224172676f5065747a206973206120636f601e8201527f6c6c656374696f6e206f6620382c38383820756e69717565207574696c697479603e8201527f2d656e61626c6564206368617261637465727320616e64206172652070617274605e8201527f6e65727320746f20746865204172676f6e6175747320636f6c6c656374696f6e607e8201527f206f6e207468652043726f6e6f7320636861696e2e2045616368204172676f50609e8201527f65747a20686f6c64657220676574732061636365737320746f207574696c697460be8201527f79206163726f73732074686520656e74697265204172676f2065636f7379737460de8201527f656d2c206c756372617469766520726577617264732c2061697264726f70732c60fe8201527f20616e642077696c6c2062652061206b657920617373657420696e206675747561011e8201527f7265204172676f20646576656c6f706d656e74732e222c00000000000000000061013e820152612b55612b48612b3a612b11612ae8612acc612abf612ab9612aa76101558a017f22696d616765223a2022697066733a2f2f6261667962656967646767686a647581527f6e767170736a71656b6e353570746d34336b6837636a736e7a7532687271643760208201527f3275776c653474677875716d2f4172676f2532305065747a2e6d7034222c00006040820152605e0190565b6501134b2111d160d51b815260060190565b8b612827565b600b60fa1b815260010190565b6f2261747472696275746573223a205b7b60801b815260100190565b7f2020202274726169745f74797065223a202254797065222c0000000000000000815260180190565b7f2020202276616c7565223a2022556e72657665616c6564220000000000000000815260180190565b617d5d60f01b815260020190565b607d60f81b815260010190565b95945050505050565b6000808454612b6c816124ff565b60018281168015612b845760018114612b9957612bc8565b60ff1984168752821515830287019450612bc8565b8860005260208060002060005b85811015612bbf5781548a820152908401908201612ba6565b50505082870194505b505050508351612bdc8183602088016120da565b64173539b7b760d91b9101908152600501949350505050565b8181038181111561088f5761088f612539565b6020808252602a908201527f455243323938313a20726f79616c7479206665652077696c6c206578636565646040820152692073616c65507269636560b01b606082015260800190565b6001600160601b03198560601b1681528284601483013760f89190911b6001600160f81b0319166014919092019081019190915260150192915050565b600082612c9e57612c9e612579565b500690565b634e487b7160e01b600052602160045260246000fdfea264697066735822122028ca7a95fd0765e88d54c11a7444ca98b9459bf33b70383a3d441b272e2cb00064736f6c63430008120033",
  "devdoc": {
    "kind": "dev",
    "methods": {
      "availableTokenCount()": {
        "details": "Check whether tokens are still available",
        "returns": {
          "_0": "the available token count"
        }
      },
      "owner()": {
        "details": "Returns the address of the current owner."
      },
      "renounceOwnership()": {
        "details": "Leaves the contract without owner. It will not be possible to call `onlyOwner` functions. Can only be called by the current owner. NOTE: Renouncing ownership will leave the contract without an owner, thereby disabling any functionality that is only available to the owner."
      },
      "royaltyInfo(uint256,uint256)": {
        "details": "Returns how much royalty is owed and to whom, based on a sale price that may be denominated in any unit of exchange. The royalty amount is denominated and should be paid in that same unit of exchange."
      },
      "tokenCount()": {
        "details": "Get the current token count",
        "returns": {
          "_0": "the created token count"
        }
      },
      "totalMaxSupply()": {
        "details": "Get the max Supply",
        "returns": {
          "_0": "the maximum token count"
        }
      },
      "transferOwnership(address)": {
        "details": "Transfers ownership of the contract to a new account (`newOwner`). Can only be called by the current owner."
      }
    },
    "version": 1
  },
  "userdoc": {
    "errors": {
      "NotMinted()": [
        {
          "notice": "----------------------------------------------------------------------- Custom Errors -----------------------------------------------------------------------"
        }
      ]
    },
    "events": {
      "Transfer(address,address,uint256)": {
        "notice": "----------------------------------------------------------------------- Events -----------------------------------------------------------------------"
      }
    },
    "kind": "user",
    "methods": {
      "approve(address,uint256)": {
        "notice": "----------------------------------------------------------------------- ERC721 Logic -----------------------------------------------------------------------"
      },
      "getApproved(uint256)": {
        "notice": "----------------------------------------------------------------------- ERC721 Approval Storage -----------------------------------------------------------------------"
      },
      "name()": {
        "notice": "----------------------------------------------------------------------- Metadata Storage/Logic -----------------------------------------------------------------------"
      }
    },
    "version": 1
  },
  "storageLayout": {
    "storage": [
      {
        "astId": 2677,
        "contract": "contracts/ArgoPetz.sol:ArgoPetz",
        "label": "name",
        "offset": 0,
        "slot": "0",
        "type": "t_string_storage"
      },
      {
        "astId": 2679,
        "contract": "contracts/ArgoPetz.sol:ArgoPetz",
        "label": "symbol",
        "offset": 0,
        "slot": "1",
        "type": "t_string_storage"
      },
      {
        "astId": 2691,
        "contract": "contracts/ArgoPetz.sol:ArgoPetz",
        "label": "_ownerOf",
        "offset": 0,
        "slot": "2",
        "type": "t_mapping(t_uint256,t_address)"
      },
      {
        "astId": 2695,
        "contract": "contracts/ArgoPetz.sol:ArgoPetz",
        "label": "_balanceOf",
        "offset": 0,
        "slot": "3",
        "type": "t_mapping(t_address,t_uint256)"
      },
      {
        "astId": 2745,
        "contract": "contracts/ArgoPetz.sol:ArgoPetz",
        "label": "getApproved",
        "offset": 0,
        "slot": "4",
        "type": "t_mapping(t_uint256,t_address)"
      },
      {
        "astId": 2751,
        "contract": "contracts/ArgoPetz.sol:ArgoPetz",
        "label": "isApprovedForAll",
        "offset": 0,
        "slot": "5",
        "type": "t_mapping(t_address,t_mapping(t_address,t_bool))"
      },
      {
        "astId": 148,
        "contract": "contracts/ArgoPetz.sol:ArgoPetz",
        "label": "_defaultRoyaltyInfo",
        "offset": 0,
        "slot": "6",
        "type": "t_struct(RoyaltyInfo)145_storage"
      },
      {
        "astId": 153,
        "contract": "contracts/ArgoPetz.sol:ArgoPetz",
        "label": "_tokenRoyaltyInfo",
        "offset": 0,
        "slot": "7",
        "type": "t_mapping(t_uint256,t_struct(RoyaltyInfo)145_storage)"
      },
      {
        "astId": 3365,
        "contract": "contracts/ArgoPetz.sol:ArgoPetz",
        "label": "_tokenCount",
        "offset": 0,
        "slot": "8",
        "type": "t_struct(Counter)357_storage"
      },
      {
        "astId": 3368,
        "contract": "contracts/ArgoPetz.sol:ArgoPetz",
        "label": "_totalMaxSupply",
        "offset": 0,
        "slot": "9",
        "type": "t_uint256"
      },
      {
        "astId": 3235,
        "contract": "contracts/ArgoPetz.sol:ArgoPetz",
        "label": "tokenMatrix",
        "offset": 0,
        "slot": "10",
        "type": "t_mapping(t_uint256,t_uint256)"
      },
      {
        "astId": 3237,
        "contract": "contracts/ArgoPetz.sol:ArgoPetz",
        "label": "startFrom",
        "offset": 0,
        "slot": "11",
        "type": "t_uint256"
      },
      {
        "astId": 7,
        "contract": "contracts/ArgoPetz.sol:ArgoPetz",
        "label": "_owner",
        "offset": 0,
        "slot": "12",
        "type": "t_address"
      },
      {
        "astId": 2059,
        "contract": "contracts/ArgoPetz.sol:ArgoPetz",
        "label": "currentSupply",
        "offset": 0,
        "slot": "13",
        "type": "t_uint256"
      },
      {
        "astId": 2071,
        "contract": "contracts/ArgoPetz.sol:ArgoPetz",
        "label": "whitelistMintCount",
        "offset": 0,
        "slot": "14",
        "type": "t_mapping(t_address,t_uint256)"
      },
      {
        "astId": 2074,
        "contract": "contracts/ArgoPetz.sol:ArgoPetz",
        "label": "whitelistMintPrice",
        "offset": 0,
        "slot": "15",
        "type": "t_uint256"
      },
      {
        "astId": 2077,
        "contract": "contracts/ArgoPetz.sol:ArgoPetz",
        "label": "publicMintPrice",
        "offset": 0,
        "slot": "16",
        "type": "t_uint256"
      },
      {
        "astId": 2079,
        "contract": "contracts/ArgoPetz.sol:ArgoPetz",
        "label": "stage",
        "offset": 0,
        "slot": "17",
        "type": "t_uint8"
      },
      {
        "astId": 2081,
        "contract": "contracts/ArgoPetz.sol:ArgoPetz",
        "label": "baseURI",
        "offset": 0,
        "slot": "18",
        "type": "t_string_storage"
      },
      {
        "astId": 2083,
        "contract": "contracts/ArgoPetz.sol:ArgoPetz",
        "label": "revealed",
        "offset": 0,
        "slot": "19",
        "type": "t_bool"
      }
    ],
    "types": {
      "t_address": {
        "encoding": "inplace",
        "label": "address",
        "numberOfBytes": "20"
      },
      "t_bool": {
        "encoding": "inplace",
        "label": "bool",
        "numberOfBytes": "1"
      },
      "t_mapping(t_address,t_bool)": {
        "encoding": "mapping",
        "key": "t_address",
        "label": "mapping(address => bool)",
        "numberOfBytes": "32",
        "value": "t_bool"
      },
      "t_mapping(t_address,t_mapping(t_address,t_bool))": {
        "encoding": "mapping",
        "key": "t_address",
        "label": "mapping(address => mapping(address => bool))",
        "numberOfBytes": "32",
        "value": "t_mapping(t_address,t_bool)"
      },
      "t_mapping(t_address,t_uint256)": {
        "encoding": "mapping",
        "key": "t_address",
        "label": "mapping(address => uint256)",
        "numberOfBytes": "32",
        "value": "t_uint256"
      },
      "t_mapping(t_uint256,t_address)": {
        "encoding": "mapping",
        "key": "t_uint256",
        "label": "mapping(uint256 => address)",
        "numberOfBytes": "32",
        "value": "t_address"
      },
      "t_mapping(t_uint256,t_struct(RoyaltyInfo)145_storage)": {
        "encoding": "mapping",
        "key": "t_uint256",
        "label": "mapping(uint256 => struct ERC2981.RoyaltyInfo)",
        "numberOfBytes": "32",
        "value": "t_struct(RoyaltyInfo)145_storage"
      },
      "t_mapping(t_uint256,t_uint256)": {
        "encoding": "mapping",
        "key": "t_uint256",
        "label": "mapping(uint256 => uint256)",
        "numberOfBytes": "32",
        "value": "t_uint256"
      },
      "t_string_storage": {
        "encoding": "bytes",
        "label": "string",
        "numberOfBytes": "32"
      },
      "t_struct(Counter)357_storage": {
        "encoding": "inplace",
        "label": "struct Counters.Counter",
        "members": [
          {
            "astId": 356,
            "contract": "contracts/ArgoPetz.sol:ArgoPetz",
            "label": "_value",
            "offset": 0,
            "slot": "0",
            "type": "t_uint256"
          }
        ],
        "numberOfBytes": "32"
      },
      "t_struct(RoyaltyInfo)145_storage": {
        "encoding": "inplace",
        "label": "struct ERC2981.RoyaltyInfo",
        "members": [
          {
            "astId": 142,
            "contract": "contracts/ArgoPetz.sol:ArgoPetz",
            "label": "receiver",
            "offset": 0,
            "slot": "0",
            "type": "t_address"
          },
          {
            "astId": 144,
            "contract": "contracts/ArgoPetz.sol:ArgoPetz",
            "label": "royaltyFraction",
            "offset": 20,
            "slot": "0",
            "type": "t_uint96"
          }
        ],
        "numberOfBytes": "32"
      },
      "t_uint256": {
        "encoding": "inplace",
        "label": "uint256",
        "numberOfBytes": "32"
      },
      "t_uint8": {
        "encoding": "inplace",
        "label": "uint8",
        "numberOfBytes": "1"
      },
      "t_uint96": {
        "encoding": "inplace",
        "label": "uint96",
        "numberOfBytes": "12"
      }
    }
  }
}