{
  "address": "0xEd2719B371b100e351d9a2Cfa9062AdE036e3be1",
  "abi": [
    {
      "inputs": [
        {
          "internalType": "address",
          "name": "_argopetz",
          "type": "address"
        }
      ],
      "stateMutability": "nonpayable",
      "type": "constructor"
    },
    {
      "anonymous": false,
      "inputs": [
        {
          "indexed": true,
          "internalType": "address",
          "name": "previousOwner",
          "type": "address"
        },
        {
          "indexed": true,
          "internalType": "address",
          "name": "newOwner",
          "type": "address"
        }
      ],
      "name": "OwnershipTransferred",
      "type": "event"
    },
    {
      "anonymous": false,
      "inputs": [
        {
          "indexed": true,
          "internalType": "address",
          "name": "user",
          "type": "address"
        },
        {
          "indexed": true,
          "internalType": "uint256",
          "name": "nftId",
          "type": "uint256"
        },
        {
          "indexed": false,
          "internalType": "uint256",
          "name": "startTime",
          "type": "uint256"
        }
      ],
      "name": "StakedNFT",
      "type": "event"
    },
    {
      "anonymous": false,
      "inputs": [
        {
          "indexed": true,
          "internalType": "address",
          "name": "user",
          "type": "address"
        },
        {
          "indexed": true,
          "internalType": "uint256",
          "name": "nftId",
          "type": "uint256"
        },
        {
          "indexed": false,
          "internalType": "uint256",
          "name": "unstakeTime",
          "type": "uint256"
        }
      ],
      "name": "UnstakedNFT",
      "type": "event"
    },
    {
      "inputs": [],
      "name": "argopetz",
      "outputs": [
        {
          "internalType": "contract IERC721",
          "name": "",
          "type": "address"
        }
      ],
      "stateMutability": "view",
      "type": "function"
    },
    {
      "inputs": [
        {
          "internalType": "address",
          "name": "_user",
          "type": "address"
        }
      ],
      "name": "getStakedNFTCount",
      "outputs": [
        {
          "internalType": "uint256",
          "name": "",
          "type": "uint256"
        }
      ],
      "stateMutability": "view",
      "type": "function"
    },
    {
      "inputs": [
        {
          "internalType": "address",
          "name": "_user",
          "type": "address"
        }
      ],
      "name": "getStakedNFTs",
      "outputs": [
        {
          "internalType": "uint256[]",
          "name": "",
          "type": "uint256[]"
        }
      ],
      "stateMutability": "view",
      "type": "function"
    },
    {
      "inputs": [
        {
          "internalType": "address",
          "name": "",
          "type": "address"
        },
        {
          "internalType": "address",
          "name": "",
          "type": "address"
        },
        {
          "internalType": "uint256",
          "name": "",
          "type": "uint256"
        },
        {
          "internalType": "bytes",
          "name": "",
          "type": "bytes"
        }
      ],
      "name": "onERC721Received",
      "outputs": [
        {
          "internalType": "bytes4",
          "name": "",
          "type": "bytes4"
        }
      ],
      "stateMutability": "pure",
      "type": "function"
    },
    {
      "inputs": [],
      "name": "owner",
      "outputs": [
        {
          "internalType": "address",
          "name": "",
          "type": "address"
        }
      ],
      "stateMutability": "view",
      "type": "function"
    },
    {
      "inputs": [],
      "name": "renounceOwnership",
      "outputs": [],
      "stateMutability": "nonpayable",
      "type": "function"
    },
    {
      "inputs": [
        {
          "internalType": "address",
          "name": "_argopetz",
          "type": "address"
        }
      ],
      "name": "setArgopetz",
      "outputs": [],
      "stateMutability": "nonpayable",
      "type": "function"
    },
    {
      "inputs": [
        {
          "internalType": "uint256[]",
          "name": "_nftIds",
          "type": "uint256[]"
        }
      ],
      "name": "stakeNFT",
      "outputs": [],
      "stateMutability": "nonpayable",
      "type": "function"
    },
    {
      "inputs": [
        {
          "internalType": "address",
          "name": "newOwner",
          "type": "address"
        }
      ],
      "name": "transferOwnership",
      "outputs": [],
      "stateMutability": "nonpayable",
      "type": "function"
    },
    {
      "inputs": [
        {
          "internalType": "uint256[]",
          "name": "_nftIds",
          "type": "uint256[]"
        }
      ],
      "name": "unstakeNFT",
      "outputs": [],
      "stateMutability": "nonpayable",
      "type": "function"
    }
  ],
  "transactionHash": "0x4396690e374f522dffbcd91655f5b8215aedeab8627f2d5d1d6685f8d70afb43",
  "args": [
    "0xd32C596994A07946699cAea4e669C6e284A85958"
  ],
  "numDeployments": 2,
  "solcInputHash": "680b6f5203e6d988bfe9ba615617d55a",
  "bytecode": "0x608060405234801561001057600080fd5b50604051610eb0380380610eb083398101604081905261002f916100ad565b6100383361005d565b600280546001600160a01b0319166001600160a01b03929092169190911790556100dd565b600080546001600160a01b038381166001600160a01b0319831681178455604051919092169283917f8be0079c531659141344cd1fd0a4f28419497f9722a3daafe3b4186f6b6457e09190a35050565b6000602082840312156100bf57600080fd5b81516001600160a01b03811681146100d657600080fd5b9392505050565b610dc4806100ec6000396000f3fe608060405234801561001057600080fd5b50600436106100be5760003560e01c80638453734d11610076578063b390bd911161005b578063b390bd91146101e4578063decfb2d714610205578063f2fde38b1461021857600080fd5b80638453734d146101b35780638da5cb5b146101c657600080fd5b8063182c5744116100a7578063182c5744146101765780636f70d2121461018b578063715018a6146101ab57600080fd5b8063150b7a02146100c3578063180f458314610131575b600080fd5b6100fb6100d1366004610b18565b7f150b7a020000000000000000000000000000000000000000000000000000000095945050505050565b6040517fffffffff0000000000000000000000000000000000000000000000000000000090911681526020015b60405180910390f35b6002546101519073ffffffffffffffffffffffffffffffffffffffff1681565b60405173ffffffffffffffffffffffffffffffffffffffff9091168152602001610128565b610189610184366004610bb3565b61022b565b005b61019e610199366004610c28565b610412565b6040516101289190610c43565b610189610449565b6101896101c1366004610bb3565b61045d565b60005473ffffffffffffffffffffffffffffffffffffffff16610151565b6101f76101f2366004610c28565b61066c565b604051908152602001610128565b610189610213366004610c28565b61069a565b610189610226366004610c28565b6106e9565b80610297576040517f08c379a000000000000000000000000000000000000000000000000000000000815260206004820152601960248201527f4d757374207374616b65206174206c656173742031204e46540000000000000060448201526064015b60405180910390fd5b60005b8181101561040d576102d58383838181106102b7576102b7610c87565b336000908152600160209081526040909120939102013590506107a0565b5060025473ffffffffffffffffffffffffffffffffffffffff166342842e0e333086868681811061030857610308610c87565b6040517fffffffff0000000000000000000000000000000000000000000000000000000060e088901b16815273ffffffffffffffffffffffffffffffffffffffff958616600482015294909316602485015250602090910201356044820152606401600060405180830381600087803b15801561038457600080fd5b505af1158015610398573d6000803e3d6000fd5b505050508282828181106103ae576103ae610c87565b905060200201353373ffffffffffffffffffffffffffffffffffffffff167fd4832bcae9834661799ae29001c73a6d9915f2668ab97c975b2470c6d188a97f426040516103fd91815260200190565b60405180910390a360010161029a565b505050565b73ffffffffffffffffffffffffffffffffffffffff81166000908152600160205260409020606090610443906107b3565b92915050565b610451610853565b61045b60006108d4565b565b60005b8181101561040d5761049b83838381811061047d5761047d610c87565b33600090815260016020908152604090912093910201359050610949565b610501576040517f08c379a000000000000000000000000000000000000000000000000000000000815260206004820152601160248201527f4e4654206973206e6f74207374616b6564000000000000000000000000000000604482015260640161028e565b61053483838381811061051657610516610c87565b33600090815260016020908152604090912093910201359050610961565b5060025473ffffffffffffffffffffffffffffffffffffffff166342842e0e303386868681811061056757610567610c87565b6040517fffffffff0000000000000000000000000000000000000000000000000000000060e088901b16815273ffffffffffffffffffffffffffffffffffffffff958616600482015294909316602485015250602090910201356044820152606401600060405180830381600087803b1580156105e357600080fd5b505af11580156105f7573d6000803e3d6000fd5b5050505082828281811061060d5761060d610c87565b905060200201353373ffffffffffffffffffffffffffffffffffffffff167f7675d67b1a43620fbbbdbe07ab3aa82cac67ccfc994ca205bd2a2fd9f0a59af34260405161065c91815260200190565b60405180910390a3600101610460565b73ffffffffffffffffffffffffffffffffffffffff811660009081526001602052604081206104439061096d565b6106a2610853565b600280547fffffffffffffffffffffffff00000000000000000000000000000000000000001673ffffffffffffffffffffffffffffffffffffffff92909216919091179055565b6106f1610853565b73ffffffffffffffffffffffffffffffffffffffff8116610794576040517f08c379a000000000000000000000000000000000000000000000000000000000815260206004820152602660248201527f4f776e61626c653a206e6577206f776e657220697320746865207a65726f206160448201527f6464726573730000000000000000000000000000000000000000000000000000606482015260840161028e565b61079d816108d4565b50565b60006107ac8383610977565b9392505050565b606060006107c08361096d565b905060008167ffffffffffffffff8111156107dd576107dd610cb6565b604051908082528060200260200182016040528015610806578160200160208202803683370190505b50905060005b8281101561084b5761081e85826109c6565b82828151811061083057610830610c87565b602090810291909101015261084481610d14565b905061080c565b509392505050565b60005473ffffffffffffffffffffffffffffffffffffffff16331461045b576040517f08c379a000000000000000000000000000000000000000000000000000000000815260206004820181905260248201527f4f776e61626c653a2063616c6c6572206973206e6f7420746865206f776e6572604482015260640161028e565b6000805473ffffffffffffffffffffffffffffffffffffffff8381167fffffffffffffffffffffffff0000000000000000000000000000000000000000831681178455604051919092169283917f8be0079c531659141344cd1fd0a4f28419497f9722a3daafe3b4186f6b6457e09190a35050565b600081815260018301602052604081205415156107ac565b60006107ac83836109d2565b6000610443825490565b60008181526001830160205260408120546109be57508154600181810184556000848152602080822090930184905584548482528286019093526040902091909155610443565b506000610443565b60006107ac8383610ac5565b60008181526001830160205260408120548015610abb5760006109f6600183610d4c565b8554909150600090610a0a90600190610d4c565b9050818114610a6f576000866000018281548110610a2a57610a2a610c87565b9060005260206000200154905080876000018481548110610a4d57610a4d610c87565b6000918252602080832090910192909255918252600188019052604090208390555b8554869080610a8057610a80610d5f565b600190038181906000526020600020016000905590558560010160008681526020019081526020016000206000905560019350505050610443565b6000915050610443565b6000826000018281548110610adc57610adc610c87565b9060005260206000200154905092915050565b803573ffffffffffffffffffffffffffffffffffffffff81168114610b1357600080fd5b919050565b600080600080600060808688031215610b3057600080fd5b610b3986610aef565b9450610b4760208701610aef565b935060408601359250606086013567ffffffffffffffff80821115610b6b57600080fd5b818801915088601f830112610b7f57600080fd5b813581811115610b8e57600080fd5b896020828501011115610ba057600080fd5b9699959850939650602001949392505050565b60008060208385031215610bc657600080fd5b823567ffffffffffffffff80821115610bde57600080fd5b818501915085601f830112610bf257600080fd5b813581811115610c0157600080fd5b8660208260051b8501011115610c1657600080fd5b60209290920196919550909350505050565b600060208284031215610c3a57600080fd5b6107ac82610aef565b6020808252825182820181905260009190848201906040850190845b81811015610c7b57835183529284019291840191600101610c5f565b50909695505050505050565b7f4e487b7100000000000000000000000000000000000000000000000000000000600052603260045260246000fd5b7f4e487b7100000000000000000000000000000000000000000000000000000000600052604160045260246000fd5b7f4e487b7100000000000000000000000000000000000000000000000000000000600052601160045260246000fd5b60007fffffffffffffffffffffffffffffffffffffffffffffffffffffffffffffffff8203610d4557610d45610ce5565b5060010190565b8181038181111561044357610443610ce5565b7f4e487b7100000000000000000000000000000000000000000000000000000000600052603160045260246000fdfea2646970667358221220af07fc6675d056b6e180c4f41ce1a1277d3931a0ad728a08ff15e7f5f7a8f41464736f6c63430008130033",
  "devdoc": {
    "author": "Kratos",
    "kind": "dev",
    "methods": {
      "getStakedNFTCount(address)": {
        "params": {
          "_user": "The address of the user"
        },
        "returns": {
          "_0": "The number of staked NFTs"
        }
      },
      "getStakedNFTs(address)": {
        "params": {
          "_user": "The address of the user"
        },
        "returns": {
          "_0": "The IDs of the NFTs"
        }
      },
      "owner()": {
        "details": "Returns the address of the current owner."
      },
      "renounceOwnership()": {
        "details": "Leaves the contract without owner. It will not be possible to call `onlyOwner` functions. Can only be called by the current owner. NOTE: Renouncing ownership will leave the contract without an owner, thereby disabling any functionality that is only available to the owner."
      },
      "stakeNFT(uint256[])": {
        "params": {
          "_nftIds": "The IDs of the NFTs"
        }
      },
      "transferOwnership(address)": {
        "details": "Transfers ownership of the contract to a new account (`newOwner`). Can only be called by the current owner."
      },
      "unstakeNFT(uint256[])": {
        "params": {
          "_nftIds": "The IDs of the NFTs"
        }
      }
    },
    "title": "StarMapCrafting",
    "version": 1
  },
  "userdoc": {
    "events": {
      "StakedNFT(address,uint256,uint256)": {
        "notice": "Event emitted when an NFT is staked"
      },
      "UnstakedNFT(address,uint256,uint256)": {
        "notice": "Event emitted when an NFT is unstaked"
      }
    },
    "kind": "user",
    "methods": {
      "getStakedNFTCount(address)": {
        "notice": "Get staked NFT count of a user"
      },
      "getStakedNFTs(address)": {
        "notice": "Get staked NFTs of a user"
      },
      "stakeNFT(uint256[])": {
        "notice": "Stake NFTs"
      },
      "unstakeNFT(uint256[])": {
        "notice": "Unstake NFTs"
      }
    },
    "notice": "This contract is used to craft starmaps with Argopetz",
    "version": 1
  },
  "storageLayout": {
    "storage": [
      {
        "astId": 7,
        "contract": "contracts/StarMapCrafting.sol:StarMapCrafting",
        "label": "_owner",
        "offset": 0,
        "slot": "0",
        "type": "t_address"
      },
      {
        "astId": 4396,
        "contract": "contracts/StarMapCrafting.sol:StarMapCrafting",
        "label": "userStakedNFTs",
        "offset": 0,
        "slot": "1",
        "type": "t_mapping(t_address,t_struct(UintSet)2671_storage)"
      },
      {
        "astId": 4417,
        "contract": "contracts/StarMapCrafting.sol:StarMapCrafting",
        "label": "argopetz",
        "offset": 0,
        "slot": "2",
        "type": "t_contract(IERC721)247"
      }
    ],
    "types": {
      "t_address": {
        "encoding": "inplace",
        "label": "address",
        "numberOfBytes": "20"
      },
      "t_array(t_bytes32)dyn_storage": {
        "base": "t_bytes32",
        "encoding": "dynamic_array",
        "label": "bytes32[]",
        "numberOfBytes": "32"
      },
      "t_bytes32": {
        "encoding": "inplace",
        "label": "bytes32",
        "numberOfBytes": "32"
      },
      "t_contract(IERC721)247": {
        "encoding": "inplace",
        "label": "contract IERC721",
        "numberOfBytes": "20"
      },
      "t_mapping(t_address,t_struct(UintSet)2671_storage)": {
        "encoding": "mapping",
        "key": "t_address",
        "label": "mapping(address => struct EnumerableSet.UintSet)",
        "numberOfBytes": "32",
        "value": "t_struct(UintSet)2671_storage"
      },
      "t_mapping(t_bytes32,t_uint256)": {
        "encoding": "mapping",
        "key": "t_bytes32",
        "label": "mapping(bytes32 => uint256)",
        "numberOfBytes": "32",
        "value": "t_uint256"
      },
      "t_struct(Set)2199_storage": {
        "encoding": "inplace",
        "label": "struct EnumerableSet.Set",
        "members": [
          {
            "astId": 2194,
            "contract": "contracts/StarMapCrafting.sol:StarMapCrafting",
            "label": "_values",
            "offset": 0,
            "slot": "0",
            "type": "t_array(t_bytes32)dyn_storage"
          },
          {
            "astId": 2198,
            "contract": "contracts/StarMapCrafting.sol:StarMapCrafting",
            "label": "_indexes",
            "offset": 0,
            "slot": "1",
            "type": "t_mapping(t_bytes32,t_uint256)"
          }
        ],
        "numberOfBytes": "64"
      },
      "t_struct(UintSet)2671_storage": {
        "encoding": "inplace",
        "label": "struct EnumerableSet.UintSet",
        "members": [
          {
            "astId": 2670,
            "contract": "contracts/StarMapCrafting.sol:StarMapCrafting",
            "label": "_inner",
            "offset": 0,
            "slot": "0",
            "type": "t_struct(Set)2199_storage"
          }
        ],
        "numberOfBytes": "64"
      },
      "t_uint256": {
        "encoding": "inplace",
        "label": "uint256",
        "numberOfBytes": "32"
      }
    }
  }
}