{
  "address": "0xE48C9E09119D8Dce47A66975CE441e49f407def2",
  "abi": [
    {
      "inputs": [
        {
          "internalType": "address",
          "name": "_argopetz",
          "type": "address"
        }
      ],
      "stateMutability": "nonpayable",
      "type": "constructor"
    },
    {
      "anonymous": false,
      "inputs": [
        {
          "indexed": true,
          "internalType": "address",
          "name": "previousOwner",
          "type": "address"
        },
        {
          "indexed": true,
          "internalType": "address",
          "name": "newOwner",
          "type": "address"
        }
      ],
      "name": "OwnershipTransferred",
      "type": "event"
    },
    {
      "anonymous": false,
      "inputs": [
        {
          "indexed": true,
          "internalType": "address",
          "name": "user",
          "type": "address"
        },
        {
          "indexed": true,
          "internalType": "uint256",
          "name": "nftId",
          "type": "uint256"
        },
        {
          "indexed": false,
          "internalType": "uint256",
          "name": "startTime",
          "type": "uint256"
        }
      ],
      "name": "StakedNFT",
      "type": "event"
    },
    {
      "anonymous": false,
      "inputs": [
        {
          "indexed": false,
          "internalType": "uint256",
          "name": "craftingTime",
          "type": "uint256"
        }
      ],
      "name": "StarmapCraftingTimeSet",
      "type": "event"
    },
    {
      "anonymous": false,
      "inputs": [
        {
          "indexed": true,
          "internalType": "address",
          "name": "user",
          "type": "address"
        },
        {
          "indexed": true,
          "internalType": "uint256",
          "name": "nftId",
          "type": "uint256"
        },
        {
          "indexed": false,
          "internalType": "uint256",
          "name": "unstakeTime",
          "type": "uint256"
        }
      ],
      "name": "UnstakedNFT",
      "type": "event"
    },
    {
      "inputs": [],
      "name": "argopetz",
      "outputs": [
        {
          "internalType": "contract IERC721",
          "name": "",
          "type": "address"
        }
      ],
      "stateMutability": "view",
      "type": "function"
    },
    {
      "inputs": [
        {
          "internalType": "address",
          "name": "_user",
          "type": "address"
        }
      ],
      "name": "getStakedNFTCount",
      "outputs": [
        {
          "internalType": "uint256",
          "name": "",
          "type": "uint256"
        }
      ],
      "stateMutability": "view",
      "type": "function"
    },
    {
      "inputs": [
        {
          "internalType": "address",
          "name": "_user",
          "type": "address"
        }
      ],
      "name": "getStakedNFTs",
      "outputs": [
        {
          "internalType": "uint256[]",
          "name": "",
          "type": "uint256[]"
        }
      ],
      "stateMutability": "view",
      "type": "function"
    },
    {
      "inputs": [
        {
          "internalType": "address",
          "name": "",
          "type": "address"
        },
        {
          "internalType": "address",
          "name": "",
          "type": "address"
        },
        {
          "internalType": "uint256",
          "name": "",
          "type": "uint256"
        },
        {
          "internalType": "bytes",
          "name": "",
          "type": "bytes"
        }
      ],
      "name": "onERC721Received",
      "outputs": [
        {
          "internalType": "bytes4",
          "name": "",
          "type": "bytes4"
        }
      ],
      "stateMutability": "pure",
      "type": "function"
    },
    {
      "inputs": [],
      "name": "owner",
      "outputs": [
        {
          "internalType": "address",
          "name": "",
          "type": "address"
        }
      ],
      "stateMutability": "view",
      "type": "function"
    },
    {
      "inputs": [],
      "name": "renounceOwnership",
      "outputs": [],
      "stateMutability": "nonpayable",
      "type": "function"
    },
    {
      "inputs": [
        {
          "internalType": "address",
          "name": "_argopetz",
          "type": "address"
        }
      ],
      "name": "setArgopetz",
      "outputs": [],
      "stateMutability": "nonpayable",
      "type": "function"
    },
    {
      "inputs": [
        {
          "internalType": "uint256",
          "name": "_starmapCraftingTime",
          "type": "uint256"
        }
      ],
      "name": "setStarmapCraftingTime",
      "outputs": [],
      "stateMutability": "nonpayable",
      "type": "function"
    },
    {
      "inputs": [
        {
          "internalType": "uint256[]",
          "name": "_nftIds",
          "type": "uint256[]"
        }
      ],
      "name": "stakeNFT",
      "outputs": [],
      "stateMutability": "nonpayable",
      "type": "function"
    },
    {
      "inputs": [],
      "name": "starmapCraftingTime",
      "outputs": [
        {
          "internalType": "uint256",
          "name": "",
          "type": "uint256"
        }
      ],
      "stateMutability": "view",
      "type": "function"
    },
    {
      "inputs": [
        {
          "internalType": "address",
          "name": "newOwner",
          "type": "address"
        }
      ],
      "name": "transferOwnership",
      "outputs": [],
      "stateMutability": "nonpayable",
      "type": "function"
    },
    {
      "inputs": [
        {
          "internalType": "uint256[]",
          "name": "_nftIds",
          "type": "uint256[]"
        }
      ],
      "name": "unstakeNFT",
      "outputs": [],
      "stateMutability": "nonpayable",
      "type": "function"
    }
  ],
  "transactionHash": "0x4dba533d36104bdc578002cae69e3721743cc84ef6a3d61f9e1eba14ede0ba05",
  "args": [
    "0xd32C596994A07946699cAea4e669C6e284A85958"
  ],
  "numDeployments": 1,
  "solcInputHash": "f96a8ed5e0f369fae825cc0ac1d30d82",
  "bytecode": "0x60806040526203f48060025534801561001757600080fd5b50604051610cb5380380610cb5833981016040819052610036916100b4565b61003f33610064565b600380546001600160a01b0319166001600160a01b03929092169190911790556100e4565b600080546001600160a01b038381166001600160a01b0319831681178455604051919092169283917f8be0079c531659141344cd1fd0a4f28419497f9722a3daafe3b4186f6b6457e09190a35050565b6000602082840312156100c657600080fd5b81516001600160a01b03811681146100dd57600080fd5b9392505050565b610bc2806100f36000396000f3fe608060405234801561001057600080fd5b50600436106100b35760003560e01c8063715018a611610071578063715018a61461017f5780638453734d146101875780638da5cb5b1461019a578063b390bd91146101ab578063decfb2d7146101be578063f2fde38b146101d157600080fd5b8062ea14c8146100b8578063150b7a02146100d4578063180f45831461010c578063182c57441461013757806357ff239a1461014c5780636f70d2121461015f575b600080fd5b6100c160025481565b6040519081526020015b60405180910390f35b6100f36100e2366004610980565b630a85bd0160e11b95945050505050565b6040516001600160e01b031990911681526020016100cb565b60035461011f906001600160a01b031681565b6040516001600160a01b0390911681526020016100cb565b61014a610145366004610a1b565b6101e4565b005b61014a61015a366004610a90565b610372565b61017261016d366004610aa9565b6103b5565b6040516100cb9190610ac4565b61014a6103df565b61014a610195366004610a1b565b6103f3565b6000546001600160a01b031661011f565b6100c16101b9366004610aa9565b61059d565b61014a6101cc366004610aa9565b6105be565b61014a6101df366004610aa9565b6105e8565b806102365760405162461bcd60e51b815260206004820152601960248201527f4d757374207374616b65206174206c656173742031204e46540000000000000060448201526064015b60405180910390fd5b60005b8181101561036d5761027483838381811061025657610256610b08565b33600090815260016020908152604090912093910201359050610661565b506003546001600160a01b03166342842e0e333086868681811061029a5761029a610b08565b6040516001600160e01b031960e088901b1681526001600160a01b03958616600482015294909316602485015250602090910201356044820152606401600060405180830381600087803b1580156102f157600080fd5b505af1158015610305573d6000803e3d6000fd5b5050505082828281811061031b5761031b610b08565b90506020020135336001600160a01b03167fd4832bcae9834661799ae29001c73a6d9915f2668ab97c975b2470c6d188a97f4260405161035d91815260200190565b60405180910390a3600101610239565b505050565b61037a610674565b60028190556040518181527f7b9377883a93ee3b1fd4d20c61c36b427701e7783a6a2059542187ee89bf06909060200160405180910390a150565b6001600160a01b03811660009081526001602052604090206060906103d9906106ce565b92915050565b6103e7610674565b6103f1600061076e565b565b60005b8181101561036d5761043183838381811061041357610413610b08565b336000908152600160209081526040909120939102013590506107be565b6104715760405162461bcd60e51b8152602060048201526011602482015270139195081a5cc81b9bdd081cdd185ad959607a1b604482015260640161022d565b6104a483838381811061048657610486610b08565b336000908152600160209081526040909120939102013590506107d6565b506003546001600160a01b03166342842e0e30338686868181106104ca576104ca610b08565b6040516001600160e01b031960e088901b1681526001600160a01b03958616600482015294909316602485015250602090910201356044820152606401600060405180830381600087803b15801561052157600080fd5b505af1158015610535573d6000803e3d6000fd5b5050505082828281811061054b5761054b610b08565b90506020020135336001600160a01b03167f7675d67b1a43620fbbbdbe07ab3aa82cac67ccfc994ca205bd2a2fd9f0a59af34260405161058d91815260200190565b60405180910390a36001016103f6565b6001600160a01b03811660009081526001602052604081206103d9906107e2565b6105c6610674565b600380546001600160a01b0319166001600160a01b0392909216919091179055565b6105f0610674565b6001600160a01b0381166106555760405162461bcd60e51b815260206004820152602660248201527f4f776e61626c653a206e6577206f776e657220697320746865207a65726f206160448201526564647265737360d01b606482015260840161022d565b61065e8161076e565b50565b600061066d83836107ec565b9392505050565b6000546001600160a01b031633146103f15760405162461bcd60e51b815260206004820181905260248201527f4f776e61626c653a2063616c6c6572206973206e6f7420746865206f776e6572604482015260640161022d565b606060006106db836107e2565b905060008167ffffffffffffffff8111156106f8576106f8610b1e565b604051908082528060200260200182016040528015610721578160200160208202803683370190505b50905060005b8281101561076657610739858261083b565b82828151811061074b5761074b610b08565b602090810291909101015261075f81610b4a565b9050610727565b509392505050565b600080546001600160a01b038381166001600160a01b0319831681178455604051919092169283917f8be0079c531659141344cd1fd0a4f28419497f9722a3daafe3b4186f6b6457e09190a35050565b6000818152600183016020526040812054151561066d565b600061066d8383610847565b60006103d9825490565b6000818152600183016020526040812054610833575081546001818101845560008481526020808220909301849055845484825282860190935260409020919091556103d9565b5060006103d9565b600061066d838361093a565b6000818152600183016020526040812054801561093057600061086b600183610b63565b855490915060009061087f90600190610b63565b90508181146108e457600086600001828154811061089f5761089f610b08565b90600052602060002001549050808760000184815481106108c2576108c2610b08565b6000918252602080832090910192909255918252600188019052604090208390555b85548690806108f5576108f5610b76565b6001900381819060005260206000200160009055905585600101600086815260200190815260200160002060009055600193505050506103d9565b60009150506103d9565b600082600001828154811061095157610951610b08565b9060005260206000200154905092915050565b80356001600160a01b038116811461097b57600080fd5b919050565b60008060008060006080868803121561099857600080fd5b6109a186610964565b94506109af60208701610964565b935060408601359250606086013567ffffffffffffffff808211156109d357600080fd5b818801915088601f8301126109e757600080fd5b8135818111156109f657600080fd5b896020828501011115610a0857600080fd5b9699959850939650602001949392505050565b60008060208385031215610a2e57600080fd5b823567ffffffffffffffff80821115610a4657600080fd5b818501915085601f830112610a5a57600080fd5b813581811115610a6957600080fd5b8660208260051b8501011115610a7e57600080fd5b60209290920196919550909350505050565b600060208284031215610aa257600080fd5b5035919050565b600060208284031215610abb57600080fd5b61066d82610964565b6020808252825182820181905260009190848201906040850190845b81811015610afc57835183529284019291840191600101610ae0565b50909695505050505050565b634e487b7160e01b600052603260045260246000fd5b634e487b7160e01b600052604160045260246000fd5b634e487b7160e01b600052601160045260246000fd5b600060018201610b5c57610b5c610b34565b5060010190565b818103818111156103d9576103d9610b34565b634e487b7160e01b600052603160045260246000fdfea264697066735822122061df50a51c2516e13995e8bb552c59ae1184f86d6602e1f7b280cb81ab1970bb64736f6c63430008120033",
  "devdoc": {
    "author": "Kratos",
    "kind": "dev",
    "methods": {
      "getStakedNFTCount(address)": {
        "params": {
          "_user": "The address of the user"
        },
        "returns": {
          "_0": "The number of staked NFTs"
        }
      },
      "getStakedNFTs(address)": {
        "params": {
          "_user": "The address of the user"
        },
        "returns": {
          "_0": "The IDs of the NFTs"
        }
      },
      "owner()": {
        "details": "Returns the address of the current owner."
      },
      "renounceOwnership()": {
        "details": "Leaves the contract without owner. It will not be possible to call `onlyOwner` functions. Can only be called by the current owner. NOTE: Renouncing ownership will leave the contract without an owner, thereby disabling any functionality that is only available to the owner."
      },
      "setStarmapCraftingTime(uint256)": {
        "params": {
          "_starmapCraftingTime": "The starmap crafting time"
        }
      },
      "stakeNFT(uint256[])": {
        "params": {
          "_nftIds": "The IDs of the NFTs"
        }
      },
      "transferOwnership(address)": {
        "details": "Transfers ownership of the contract to a new account (`newOwner`). Can only be called by the current owner."
      },
      "unstakeNFT(uint256[])": {
        "params": {
          "_nftIds": "The IDs of the NFTs"
        }
      }
    },
    "title": "StarMapCrafting",
    "version": 1
  },
  "userdoc": {
    "events": {
      "StakedNFT(address,uint256,uint256)": {
        "notice": "Event emitted when an NFT is staked"
      },
      "StarmapCraftingTimeSet(uint256)": {
        "notice": "Event emitted when crafting time is set"
      },
      "UnstakedNFT(address,uint256,uint256)": {
        "notice": "Event emitted when an NFT is unstaked"
      }
    },
    "kind": "user",
    "methods": {
      "getStakedNFTCount(address)": {
        "notice": "Get staked NFT count of a user"
      },
      "getStakedNFTs(address)": {
        "notice": "Get staked NFTs of a user"
      },
      "setStarmapCraftingTime(uint256)": {
        "notice": "Set starmap crafting time"
      },
      "stakeNFT(uint256[])": {
        "notice": "Stake NFTs"
      },
      "starmapCraftingTime()": {
        "notice": "Starmap crafting time"
      },
      "unstakeNFT(uint256[])": {
        "notice": "Unstake NFTs"
      }
    },
    "notice": "This contract is used to craft starmaps with Argopetz",
    "version": 1
  },
  "storageLayout": {
    "storage": [
      {
        "astId": 7,
        "contract": "contracts/StarMapCrafting.sol:StarMapCrafting",
        "label": "_owner",
        "offset": 0,
        "slot": "0",
        "type": "t_address"
      },
      {
        "astId": 4329,
        "contract": "contracts/StarMapCrafting.sol:StarMapCrafting",
        "label": "userStakedNFTs",
        "offset": 0,
        "slot": "1",
        "type": "t_mapping(t_address,t_struct(UintSet)2671_storage)"
      },
      {
        "astId": 4333,
        "contract": "contracts/StarMapCrafting.sol:StarMapCrafting",
        "label": "starmapCraftingTime",
        "offset": 0,
        "slot": "2",
        "type": "t_uint256"
      },
      {
        "astId": 4359,
        "contract": "contracts/StarMapCrafting.sol:StarMapCrafting",
        "label": "argopetz",
        "offset": 0,
        "slot": "3",
        "type": "t_contract(IERC721)247"
      }
    ],
    "types": {
      "t_address": {
        "encoding": "inplace",
        "label": "address",
        "numberOfBytes": "20"
      },
      "t_array(t_bytes32)dyn_storage": {
        "base": "t_bytes32",
        "encoding": "dynamic_array",
        "label": "bytes32[]",
        "numberOfBytes": "32"
      },
      "t_bytes32": {
        "encoding": "inplace",
        "label": "bytes32",
        "numberOfBytes": "32"
      },
      "t_contract(IERC721)247": {
        "encoding": "inplace",
        "label": "contract IERC721",
        "numberOfBytes": "20"
      },
      "t_mapping(t_address,t_struct(UintSet)2671_storage)": {
        "encoding": "mapping",
        "key": "t_address",
        "label": "mapping(address => struct EnumerableSet.UintSet)",
        "numberOfBytes": "32",
        "value": "t_struct(UintSet)2671_storage"
      },
      "t_mapping(t_bytes32,t_uint256)": {
        "encoding": "mapping",
        "key": "t_bytes32",
        "label": "mapping(bytes32 => uint256)",
        "numberOfBytes": "32",
        "value": "t_uint256"
      },
      "t_struct(Set)2199_storage": {
        "encoding": "inplace",
        "label": "struct EnumerableSet.Set",
        "members": [
          {
            "astId": 2194,
            "contract": "contracts/StarMapCrafting.sol:StarMapCrafting",
            "label": "_values",
            "offset": 0,
            "slot": "0",
            "type": "t_array(t_bytes32)dyn_storage"
          },
          {
            "astId": 2198,
            "contract": "contracts/StarMapCrafting.sol:StarMapCrafting",
            "label": "_indexes",
            "offset": 0,
            "slot": "1",
            "type": "t_mapping(t_bytes32,t_uint256)"
          }
        ],
        "numberOfBytes": "64"
      },
      "t_struct(UintSet)2671_storage": {
        "encoding": "inplace",
        "label": "struct EnumerableSet.UintSet",
        "members": [
          {
            "astId": 2670,
            "contract": "contracts/StarMapCrafting.sol:StarMapCrafting",
            "label": "_inner",
            "offset": 0,
            "slot": "0",
            "type": "t_struct(Set)2199_storage"
          }
        ],
        "numberOfBytes": "64"
      },
      "t_uint256": {
        "encoding": "inplace",
        "label": "uint256",
        "numberOfBytes": "32"
      }
    }
  }
}