{
  "address": "0xcd50c5bAAA765A0c761DDd58D6e1aB95fA76eA7C",
  "abi": [
    {
      "inputs": [
        {
          "internalType": "string",
          "name": "_name",
          "type": "string"
        },
        {
          "internalType": "string",
          "name": "_symbol",
          "type": "string"
        },
        {
          "internalType": "string",
          "name": "_baseURI",
          "type": "string"
        },
        {
          "internalType": "uint16",
          "name": "maxSupply_",
          "type": "uint16"
        },
        {
          "internalType": "address",
          "name": "withdrawAddress",
          "type": "address"
        },
        {
          "internalType": "address",
          "name": "_whitelistSignerAddress",
          "type": "address"
        },
        {
          "internalType": "uint256",
          "name": "_whitelistMaxMint",
          "type": "uint256"
        }
      ],
      "stateMutability": "nonpayable",
      "type": "constructor"
    },
    {
      "inputs": [],
      "name": "AlreadyMinted",
      "type": "error"
    },
    {
      "inputs": [],
      "name": "InvalidRecipient",
      "type": "error"
    },
    {
      "inputs": [],
      "name": "InvalidTokenId",
      "type": "error"
    },
    {
      "inputs": [],
      "name": "NotMinted",
      "type": "error"
    },
    {
      "inputs": [],
      "name": "Unauthorized",
      "type": "error"
    },
    {
      "inputs": [],
      "name": "UnsafeRecipient",
      "type": "error"
    },
    {
      "inputs": [],
      "name": "WithdrawFailed",
      "type": "error"
    },
    {
      "inputs": [],
      "name": "WrongFrom",
      "type": "error"
    },
    {
      "inputs": [],
      "name": "ZeroAddress",
      "type": "error"
    },
    {
      "anonymous": false,
      "inputs": [
        {
          "indexed": true,
          "internalType": "address",
          "name": "owner",
          "type": "address"
        },
        {
          "indexed": true,
          "internalType": "address",
          "name": "spender",
          "type": "address"
        },
        {
          "indexed": true,
          "internalType": "uint256",
          "name": "id",
          "type": "uint256"
        }
      ],
      "name": "Approval",
      "type": "event"
    },
    {
      "anonymous": false,
      "inputs": [
        {
          "indexed": true,
          "internalType": "address",
          "name": "owner",
          "type": "address"
        },
        {
          "indexed": true,
          "internalType": "address",
          "name": "operator",
          "type": "address"
        },
        {
          "indexed": false,
          "internalType": "bool",
          "name": "approved",
          "type": "bool"
        }
      ],
      "name": "ApprovalForAll",
      "type": "event"
    },
    {
      "anonymous": false,
      "inputs": [
        {
          "indexed": true,
          "internalType": "address",
          "name": "previousOwner",
          "type": "address"
        },
        {
          "indexed": true,
          "internalType": "address",
          "name": "newOwner",
          "type": "address"
        }
      ],
      "name": "OwnershipTransferred",
      "type": "event"
    },
    {
      "anonymous": false,
      "inputs": [
        {
          "indexed": true,
          "internalType": "address",
          "name": "from",
          "type": "address"
        },
        {
          "indexed": true,
          "internalType": "address",
          "name": "to",
          "type": "address"
        },
        {
          "indexed": true,
          "internalType": "uint256",
          "name": "id",
          "type": "uint256"
        }
      ],
      "name": "Transfer",
      "type": "event"
    },
    {
      "inputs": [],
      "name": "MAX_SUPPLY",
      "outputs": [
        {
          "internalType": "uint16",
          "name": "",
          "type": "uint16"
        }
      ],
      "stateMutability": "view",
      "type": "function"
    },
    {
      "inputs": [],
      "name": "WHITELIST_MAX_MINT",
      "outputs": [
        {
          "internalType": "uint256",
          "name": "",
          "type": "uint256"
        }
      ],
      "stateMutability": "view",
      "type": "function"
    },
    {
      "inputs": [],
      "name": "WHITELIST_SIGNER_ADDRESS",
      "outputs": [
        {
          "internalType": "address",
          "name": "",
          "type": "address"
        }
      ],
      "stateMutability": "view",
      "type": "function"
    },
    {
      "inputs": [],
      "name": "WITHDRAW_ADDRESS",
      "outputs": [
        {
          "internalType": "address",
          "name": "",
          "type": "address"
        }
      ],
      "stateMutability": "view",
      "type": "function"
    },
    {
      "inputs": [
        {
          "internalType": "address",
          "name": "spender",
          "type": "address"
        },
        {
          "internalType": "uint256",
          "name": "id",
          "type": "uint256"
        }
      ],
      "name": "approve",
      "outputs": [],
      "stateMutability": "nonpayable",
      "type": "function"
    },
    {
      "inputs": [],
      "name": "availableTokenCount",
      "outputs": [
        {
          "internalType": "uint256",
          "name": "",
          "type": "uint256"
        }
      ],
      "stateMutability": "view",
      "type": "function"
    },
    {
      "inputs": [
        {
          "internalType": "address",
          "name": "owner",
          "type": "address"
        }
      ],
      "name": "balanceOf",
      "outputs": [
        {
          "internalType": "uint256",
          "name": "",
          "type": "uint256"
        }
      ],
      "stateMutability": "view",
      "type": "function"
    },
    {
      "inputs": [],
      "name": "baseURI",
      "outputs": [
        {
          "internalType": "string",
          "name": "",
          "type": "string"
        }
      ],
      "stateMutability": "view",
      "type": "function"
    },
    {
      "inputs": [],
      "name": "currentSupply",
      "outputs": [
        {
          "internalType": "uint256",
          "name": "",
          "type": "uint256"
        }
      ],
      "stateMutability": "view",
      "type": "function"
    },
    {
      "inputs": [
        {
          "internalType": "uint256",
          "name": "",
          "type": "uint256"
        }
      ],
      "name": "getApproved",
      "outputs": [
        {
          "internalType": "address",
          "name": "",
          "type": "address"
        }
      ],
      "stateMutability": "view",
      "type": "function"
    },
    {
      "inputs": [
        {
          "internalType": "address",
          "name": "",
          "type": "address"
        },
        {
          "internalType": "address",
          "name": "",
          "type": "address"
        }
      ],
      "name": "isApprovedForAll",
      "outputs": [
        {
          "internalType": "bool",
          "name": "",
          "type": "bool"
        }
      ],
      "stateMutability": "view",
      "type": "function"
    },
    {
      "inputs": [],
      "name": "name",
      "outputs": [
        {
          "internalType": "string",
          "name": "",
          "type": "string"
        }
      ],
      "stateMutability": "view",
      "type": "function"
    },
    {
      "inputs": [],
      "name": "owner",
      "outputs": [
        {
          "internalType": "address",
          "name": "",
          "type": "address"
        }
      ],
      "stateMutability": "view",
      "type": "function"
    },
    {
      "inputs": [
        {
          "internalType": "uint256",
          "name": "id",
          "type": "uint256"
        }
      ],
      "name": "ownerOf",
      "outputs": [
        {
          "internalType": "address",
          "name": "owner",
          "type": "address"
        }
      ],
      "stateMutability": "view",
      "type": "function"
    },
    {
      "inputs": [
        {
          "internalType": "uint256",
          "name": "_amount",
          "type": "uint256"
        }
      ],
      "name": "publicMint",
      "outputs": [],
      "stateMutability": "payable",
      "type": "function"
    },
    {
      "inputs": [],
      "name": "publicMintPrice",
      "outputs": [
        {
          "internalType": "uint256",
          "name": "",
          "type": "uint256"
        }
      ],
      "stateMutability": "view",
      "type": "function"
    },
    {
      "inputs": [],
      "name": "renounceOwnership",
      "outputs": [],
      "stateMutability": "nonpayable",
      "type": "function"
    },
    {
      "inputs": [
        {
          "internalType": "string",
          "name": "_revealedURI",
          "type": "string"
        }
      ],
      "name": "reveal",
      "outputs": [],
      "stateMutability": "nonpayable",
      "type": "function"
    },
    {
      "inputs": [
        {
          "internalType": "uint256",
          "name": "tokenId",
          "type": "uint256"
        },
        {
          "internalType": "uint256",
          "name": "salePrice",
          "type": "uint256"
        }
      ],
      "name": "royaltyInfo",
      "outputs": [
        {
          "internalType": "address",
          "name": "",
          "type": "address"
        },
        {
          "internalType": "uint256",
          "name": "",
          "type": "uint256"
        }
      ],
      "stateMutability": "view",
      "type": "function"
    },
    {
      "inputs": [
        {
          "internalType": "address",
          "name": "from",
          "type": "address"
        },
        {
          "internalType": "address",
          "name": "to",
          "type": "address"
        },
        {
          "internalType": "uint256",
          "name": "id",
          "type": "uint256"
        }
      ],
      "name": "safeTransferFrom",
      "outputs": [],
      "stateMutability": "nonpayable",
      "type": "function"
    },
    {
      "inputs": [
        {
          "internalType": "address",
          "name": "from",
          "type": "address"
        },
        {
          "internalType": "address",
          "name": "to",
          "type": "address"
        },
        {
          "internalType": "uint256",
          "name": "id",
          "type": "uint256"
        },
        {
          "internalType": "bytes",
          "name": "data",
          "type": "bytes"
        }
      ],
      "name": "safeTransferFrom",
      "outputs": [],
      "stateMutability": "nonpayable",
      "type": "function"
    },
    {
      "inputs": [
        {
          "internalType": "address",
          "name": "operator",
          "type": "address"
        },
        {
          "internalType": "bool",
          "name": "approved",
          "type": "bool"
        }
      ],
      "name": "setApprovalForAll",
      "outputs": [],
      "stateMutability": "nonpayable",
      "type": "function"
    },
    {
      "inputs": [
        {
          "internalType": "string",
          "name": "_baseURI_",
          "type": "string"
        }
      ],
      "name": "setBaseURI",
      "outputs": [],
      "stateMutability": "nonpayable",
      "type": "function"
    },
    {
      "inputs": [
        {
          "internalType": "address",
          "name": "receiver",
          "type": "address"
        },
        {
          "internalType": "uint96",
          "name": "feeNumerator",
          "type": "uint96"
        }
      ],
      "name": "setDefaultRoyalty",
      "outputs": [],
      "stateMutability": "nonpayable",
      "type": "function"
    },
    {
      "inputs": [
        {
          "internalType": "string",
          "name": "_newName",
          "type": "string"
        },
        {
          "internalType": "string",
          "name": "_newSymbol",
          "type": "string"
        }
      ],
      "name": "setNameAndSymbol",
      "outputs": [],
      "stateMutability": "nonpayable",
      "type": "function"
    },
    {
      "inputs": [
        {
          "internalType": "uint256",
          "name": "_publicMintPrice",
          "type": "uint256"
        }
      ],
      "name": "setPublicMintPrice",
      "outputs": [],
      "stateMutability": "nonpayable",
      "type": "function"
    },
    {
      "inputs": [
        {
          "internalType": "uint8",
          "name": "_newStage",
          "type": "uint8"
        }
      ],
      "name": "setStage",
      "outputs": [],
      "stateMutability": "nonpayable",
      "type": "function"
    },
    {
      "inputs": [
        {
          "internalType": "uint256",
          "name": "tokenId",
          "type": "uint256"
        },
        {
          "internalType": "address",
          "name": "receiver",
          "type": "address"
        },
        {
          "internalType": "uint96",
          "name": "feeNumerator",
          "type": "uint96"
        }
      ],
      "name": "setTokenRoyalty",
      "outputs": [],
      "stateMutability": "nonpayable",
      "type": "function"
    },
    {
      "inputs": [
        {
          "internalType": "uint256",
          "name": "_whitelistMintPrice",
          "type": "uint256"
        }
      ],
      "name": "setWhitelistMintPrice",
      "outputs": [],
      "stateMutability": "nonpayable",
      "type": "function"
    },
    {
      "inputs": [],
      "name": "stage",
      "outputs": [
        {
          "internalType": "uint8",
          "name": "",
          "type": "uint8"
        }
      ],
      "stateMutability": "view",
      "type": "function"
    },
    {
      "inputs": [
        {
          "internalType": "bytes4",
          "name": "interfaceId",
          "type": "bytes4"
        }
      ],
      "name": "supportsInterface",
      "outputs": [
        {
          "internalType": "bool",
          "name": "",
          "type": "bool"
        }
      ],
      "stateMutability": "view",
      "type": "function"
    },
    {
      "inputs": [],
      "name": "symbol",
      "outputs": [
        {
          "internalType": "string",
          "name": "",
          "type": "string"
        }
      ],
      "stateMutability": "view",
      "type": "function"
    },
    {
      "inputs": [],
      "name": "tokenCount",
      "outputs": [
        {
          "internalType": "uint256",
          "name": "",
          "type": "uint256"
        }
      ],
      "stateMutability": "view",
      "type": "function"
    },
    {
      "inputs": [
        {
          "internalType": "uint256",
          "name": "tokenId",
          "type": "uint256"
        }
      ],
      "name": "tokenURI",
      "outputs": [
        {
          "internalType": "string",
          "name": "",
          "type": "string"
        }
      ],
      "stateMutability": "view",
      "type": "function"
    },
    {
      "inputs": [],
      "name": "totalMaxSupply",
      "outputs": [
        {
          "internalType": "uint256",
          "name": "",
          "type": "uint256"
        }
      ],
      "stateMutability": "view",
      "type": "function"
    },
    {
      "inputs": [],
      "name": "totalSupply",
      "outputs": [
        {
          "internalType": "uint256",
          "name": "",
          "type": "uint256"
        }
      ],
      "stateMutability": "view",
      "type": "function"
    },
    {
      "inputs": [
        {
          "internalType": "address",
          "name": "from",
          "type": "address"
        },
        {
          "internalType": "address",
          "name": "to",
          "type": "address"
        },
        {
          "internalType": "uint256",
          "name": "id",
          "type": "uint256"
        }
      ],
      "name": "transferFrom",
      "outputs": [],
      "stateMutability": "nonpayable",
      "type": "function"
    },
    {
      "inputs": [
        {
          "internalType": "address",
          "name": "newOwner",
          "type": "address"
        }
      ],
      "name": "transferOwnership",
      "outputs": [],
      "stateMutability": "nonpayable",
      "type": "function"
    },
    {
      "inputs": [
        {
          "internalType": "uint256",
          "name": "_amount",
          "type": "uint256"
        },
        {
          "internalType": "bytes",
          "name": "nonce",
          "type": "bytes"
        },
        {
          "internalType": "bytes",
          "name": "signature",
          "type": "bytes"
        }
      ],
      "name": "whitelistMint",
      "outputs": [],
      "stateMutability": "payable",
      "type": "function"
    },
    {
      "inputs": [
        {
          "internalType": "address",
          "name": "",
          "type": "address"
        }
      ],
      "name": "whitelistMintCount",
      "outputs": [
        {
          "internalType": "uint256",
          "name": "",
          "type": "uint256"
        }
      ],
      "stateMutability": "view",
      "type": "function"
    },
    {
      "inputs": [],
      "name": "whitelistMintPrice",
      "outputs": [
        {
          "internalType": "uint256",
          "name": "",
          "type": "uint256"
        }
      ],
      "stateMutability": "view",
      "type": "function"
    },
    {
      "inputs": [],
      "name": "withdraw",
      "outputs": [],
      "stateMutability": "nonpayable",
      "type": "function"
    }
  ],
  "transactionHash": "0x295d753319b72d95c153d103c171b675ea8e99b3f2a0c62240f76f887a1d8a6c",
  "args": [
    "Mock Minion",
    "Minion",
    "ipfs://bafybeiftfn2trjds7ncovc7lieviekqdeb2ddhaevf3a22bgjz26pztvsy/",
    8888,
    "0x865F4c222D7B23365C7Eb2F4f74d1a2533CD663E",
    "0x6A952f966c5DcC36A094c8AB141f027fb58F864e",
    50
  ],
  "numDeployments": 7,
  "solcInputHash": "81c32e1332350636da148f1ebeb54f12",
  "bytecode": "0x61010060405268185720711896640000600f55681b0d04202f47ec00006010553480156200002c57600080fd5b50604051620032bc380380620032bc8339810160408190526200004f916200036b565b61ffff841660068189896000620000678382620004d5565b506001620000768282620004d5565b505050600955600b55506200008b33620000f0565b61ffff84166080526200009e8562000142565b6001600160a01b0380841660c052821660e05260a081905260015b60058111620000d757620000ce33826200015e565b600101620000b9565b50506013805460ff1916905550620005a1945050505050565b600c80546001600160a01b038381166001600160a01b0319831681179093556040519116919082907f8be0079c531659141344cd1fd0a4f28419497f9722a3daafe3b4186f6b6457e090600090a35050565b6200014c62000228565b60126200015a8282620004d5565b5050565b6001600160a01b0382166200018657604051634e46966960e11b815260040160405180910390fd5b6000818152600260205260409020546001600160a01b031615620001bd57604051631bbdf5c560e31b815260040160405180910390fd5b6001600160a01b038216600081815260036020908152604080832080546001019055848352600290915280822080546001600160a01b0319168417905551839291907fddf252ad1be2c89b69c2b068fc378daa952ba7f163c4a11628f55a4df523b3ef908290a45050565b600c546001600160a01b03163314620002875760405162461bcd60e51b815260206004820181905260248201527f4f776e61626c653a2063616c6c6572206973206e6f7420746865206f776e6572604482015260640160405180910390fd5b565b634e487b7160e01b600052604160045260246000fd5b600082601f830112620002b157600080fd5b81516001600160401b0380821115620002ce57620002ce62000289565b604051601f8301601f19908116603f01168101908282118183101715620002f957620002f962000289565b816040528381526020925086838588010111156200031657600080fd5b600091505b838210156200033a57858201830151818301840152908201906200031b565b600093810190920192909252949350505050565b80516001600160a01b03811681146200036657600080fd5b919050565b600080600080600080600060e0888a0312156200038757600080fd5b87516001600160401b03808211156200039f57600080fd5b620003ad8b838c016200029f565b985060208a0151915080821115620003c457600080fd5b620003d28b838c016200029f565b975060408a0151915080821115620003e957600080fd5b50620003f88a828b016200029f565b955050606088015161ffff811681146200041157600080fd5b935062000421608089016200034e565b92506200043160a089016200034e565b915060c0880151905092959891949750929550565b600181811c908216806200045b57607f821691505b6020821081036200047c57634e487b7160e01b600052602260045260246000fd5b50919050565b601f821115620004d057600081815260208120601f850160051c81016020861015620004ab5750805b601f850160051c820191505b81811015620004cc57828155600101620004b7565b5050505b505050565b81516001600160401b03811115620004f157620004f162000289565b620005098162000502845462000446565b8462000482565b602080601f831160018114620005415760008415620005285750858301515b600019600386901b1c1916600185901b178555620004cc565b600085815260208120601f198616915b82811015620005725788860151825594840194600190910190840162000551565b5085821015620005915787850151600019600388901b60f8161c191681555b5050505050600190811b01905550565b60805160a05160c05160e051612cbe620005fe6000396000818161068301526117dd01526000818161034f015261102d0152600081816106d70152610cd401526000818161042701528181610c290152610f4c0152612cbe6000f3fe6080604052600436106102515760003560e01c80636352211e11610139578063a591c4cb116100b6578063c87b56dd1161007a578063c87b56dd14610745578063ce3cd99714610765578063dc53fd9214610785578063e14ca3531461079b578063e985e9c5146107b0578063f2fde38b146107eb57600080fd5b8063a591c4cb14610671578063a611708e146106a5578063aeb16768146106c5578063b88d4fde146106f9578063c040e6b81461071957600080fd5b80638da5cb5b116100fd5780638da5cb5b146105f457806395d89b41146106125780639f181b5e14610627578063a0617ad01461063c578063a22cb4651461065157600080fd5b80636352211e146105745780636c0360eb1461059457806370a08231146105a9578063715018a6146105c9578063771282f6146105de57600080fd5b80632db11544116101d257806342842e0e1161019657806342842e0e146104b45780634c261247146104d457806355f804b3146104f45780635944c753146105145780635a446215146105345780635d82cf6e1461055457600080fd5b80632db115441461040257806332cb6b0c1461041557806335c6aaf81461045c5780633bdf4ac6146104725780633ccfd60b1461049f57600080fd5b8063122e04a811610219578063122e04a81461033d57806318160ddd1461037157806323b872dd1461039057806324436f77146103b05780632a55205a146103c357600080fd5b806301ffc9a71461025657806304634d8d1461028b57806306fdde03146102ad578063081812fc146102cf578063095ea7b31461031d575b600080fd5b34801561026257600080fd5b5061027661027136600461203b565b61080b565b60405190151581526020015b60405180910390f35b34801561029757600080fd5b506102ab6102a636600461208d565b61082b565b005b3480156102b957600080fd5b506102c2610841565b6040516102829190612110565b3480156102db57600080fd5b506103056102ea366004612123565b6004602052600090815260409020546001600160a01b031681565b6040516001600160a01b039091168152602001610282565b34801561032957600080fd5b506102ab61033836600461213c565b6108cf565b34801561034957600080fd5b506103057f000000000000000000000000000000000000000000000000000000000000000081565b34801561037d57600080fd5b50600d545b604051908152602001610282565b34801561039c57600080fd5b506102ab6103ab366004612166565b610994565b6102ab6103be3660046121e4565b610b01565b3480156103cf57600080fd5b506103e36103de36600461225e565b610dec565b604080516001600160a01b039093168352602083019190915201610282565b6102ab610410366004612123565b610e9a565b34801561042157600080fd5b506104497f000000000000000000000000000000000000000000000000000000000000000081565b60405161ffff9091168152602001610282565b34801561046857600080fd5b50610382600f5481565b34801561047e57600080fd5b5061038261048d366004612280565b600e6020526000908152604090205481565b3480156104ab57600080fd5b506102ab611029565b3480156104c057600080fd5b506102ab6104cf366004612166565b6110c0565b3480156104e057600080fd5b506102ab6104ef3660046122b1565b611193565b34801561050057600080fd5b506102ab61050f3660046122b1565b6111ad565b34801561052057600080fd5b506102ab61052f366004612362565b6111c1565b34801561054057600080fd5b506102ab61054f36600461239e565b6111d4565b34801561056057600080fd5b506102ab61056f366004612123565b6111fe565b34801561058057600080fd5b5061030561058f366004612123565b61120b565b3480156105a057600080fd5b506102c2611246565b3480156105b557600080fd5b506103826105c4366004612280565b611253565b3480156105d557600080fd5b506102ab611298565b3480156105ea57600080fd5b50610382600d5481565b34801561060057600080fd5b50600c546001600160a01b0316610305565b34801561061e57600080fd5b506102c26112ac565b34801561063357600080fd5b506103826112b9565b34801561064857600080fd5b50600954610382565b34801561065d57600080fd5b506102ab61066c36600461240a565b6112c9565b34801561067d57600080fd5b506103057f000000000000000000000000000000000000000000000000000000000000000081565b3480156106b157600080fd5b506102ab6106c0366004612123565b611335565b3480156106d157600080fd5b506103827f000000000000000000000000000000000000000000000000000000000000000081565b34801561070557600080fd5b506102ab610714366004612446565b611342565b34801561072557600080fd5b506011546107339060ff1681565b60405160ff9091168152602001610282565b34801561075157600080fd5b506102c2610760366004612123565b6113fe565b34801561077157600080fd5b506102ab6107803660046124a4565b6114ae565b34801561079157600080fd5b5061038260105481565b3480156107a757600080fd5b506103826114cc565b3480156107bc57600080fd5b506102766107cb3660046124c7565b600560209081526000928352604080842090915290825290205460ff1681565b3480156107f757600080fd5b506102ab610806366004612280565b6114e3565b600061081682611559565b806108255750610825826115a7565b92915050565b6108336115dc565b61083d8282611636565b5050565b6000805461084e906124f1565b80601f016020809104026020016040519081016040528092919081815260200182805461087a906124f1565b80156108c75780601f1061089c576101008083540402835291602001916108c7565b820191906000526020600020905b8154815290600101906020018083116108aa57829003601f168201915b505050505081565b6000818152600260205260409020546001600160a01b031633811480159061091b57506001600160a01b038116600090815260056020908152604080832033845290915290205460ff16155b15610938576040516282b42960e81b815260040160405180910390fd5b60008281526004602052604080822080546001600160a01b0319166001600160a01b0387811691821790925591518593918516917f8c5be1e5ebec7d5bd14f71427d1e84f3dd0314c0f7b2291e5b200ac8c7c3b92591a4505050565b6000818152600260205260409020546001600160a01b038481169116146109ce5760405163c6de3f2560e01b815260040160405180910390fd5b6001600160a01b0382166109f557604051634e46966960e11b815260040160405180910390fd5b336001600160a01b03841614801590610a3257506001600160a01b038316600090815260056020908152604080832033845290915290205460ff16155b8015610a5557506000818152600460205260409020546001600160a01b03163314155b15610a72576040516282b42960e81b815260040160405180910390fd5b6001600160a01b0380841660008181526003602090815260408083208054600019019055938616808352848320805460010190558583526002825284832080546001600160a01b03199081168317909155600490925284832080549092169091559251849392917fddf252ad1be2c89b69c2b068fc378daa952ba7f163c4a11628f55a4df523b3ef91a4505050565b601154610b1a903390869086908690869060ff166116f0565b610b6b5760405162461bcd60e51b815260206004820152601c60248201527f4172676f5065747a3a20496e76616c6964205369676e6174757265210000000060448201526064015b60405180910390fd5b60115460ff16600114610bcc5760405162461bcd60e51b8152602060048201526024808201527f4172676f5065747a3a2057686974656c697374204d696e74206973206e6f742060448201526337b832b760e11b6064820152608401610b62565b600f54610bd99086612541565b3414610c275760405162461bcd60e51b815260206004820152601b60248201527f4172676f5065747a3a20496e73756666696369656e742043524f2100000000006044820152606401610b62565b7f000000000000000000000000000000000000000000000000000000000000000061ffff1685610c56600d5490565b610c609190612558565b1115610cc25760405162461bcd60e51b815260206004820152602b60248201527f4172676f5065747a3a204578636565646564204d617820537570706c7920666f60448201526a72204172676f5065747a2160a81b6064820152608401610b62565b336000908152600e60205260409020547f000000000000000000000000000000000000000000000000000000000000000090610cff908790612558565b1115610d7e5760405162461bcd60e51b815260206004820152604260248201527f4172676f5065747a3a2057616c6c65742068617320616c7265616479206d696e60448201527f746564204d617820416d6f756e7420666f722057686974656c697374204d696e606482015261742160f01b608482015260a401610b62565b84600d6000828254610d909190612558565b9091555050336000908152600e602052604081208054879290610db4908490612558565b90915550600090505b85811015610de4576000610dcf611813565b9050610ddb33826119ac565b50600101610dbd565b505050505050565b60008281526007602090815260408083208151808301909252546001600160a01b038116808352600160a01b9091046001600160601b0316928201929092528291610e615750604080518082019091526006546001600160a01b0381168252600160a01b90046001600160601b031660208201525b602081015160009061271090610e80906001600160601b031687612541565b610e8a9190612581565b91519350909150505b9250929050565b60115460ff16600214610eef5760405162461bcd60e51b815260206004820152601d60248201527f4172676f5065747a3a205075626c69632053616c6520436c6f736564210000006044820152606401610b62565b601054610efc9082612541565b3414610f4a5760405162461bcd60e51b815260206004820152601b60248201527f4172676f5065747a3a20496e73756666696369656e742043524f2100000000006044820152606401610b62565b7f000000000000000000000000000000000000000000000000000000000000000061ffff1681610f79600d5490565b610f839190612558565b1115610fe75760405162461bcd60e51b815260206004820152602d60248201527f4172676f5065747a3a204d617820537570706c7920666f72205075626c69632060448201526c4d696e7420526561636865642160981b6064820152608401610b62565b80600d6000828254610ff99190612558565b90915550600090505b8181101561083d576000611014611813565b905061102033826119ac565b50600101611002565b60007f00000000000000000000000000000000000000000000000000000000000000006001600160a01b03164760405160006040518083038185875af1925050503d8060008114611096576040519150601f19603f3d011682016040523d82523d6000602084013e61109b565b606091505b50509050806110bd57604051631d42c86760e21b815260040160405180910390fd5b50565b6110cb838383610994565b6001600160a01b0382163b1561118e57604051630a85bd0160e11b8082523360048301526001600160a01b03858116602484015260448301849052608060648401526000608484015290919084169063150b7a029060a4016020604051808303816000875af1158015611142573d6000803e3d6000fd5b505050506040513d601f19601f820116820180604052508101906111669190612595565b6001600160e01b0319161461118e57604051633da6393160e01b815260040160405180910390fd5b505050565b61119b6115dc565b6013805460ff191660011790556110bd815b6111b56115dc565b601261083d82826125f8565b6111c96115dc565b61118e838383611a74565b6111dc6115dc565b60006111e98486836126b8565b5060016111f78284836126b8565b5050505050565b6112066115dc565b601055565b6000818152600260205260409020546001600160a01b03168061124157604051634d5e5fb360e01b815260040160405180910390fd5b919050565b6012805461084e906124f1565b60006001600160a01b03821661127c5760405163d92e233d60e01b815260040160405180910390fd5b506001600160a01b031660009081526003602052604090205490565b6112a06115dc565b6112aa6000611b3f565b565b6001805461084e906124f1565b60006112c460085490565b905090565b3360008181526005602090815260408083206001600160a01b03871680855290835292819020805460ff191686151590811790915590519081529192917f17307eab39ab6107e8899845ad3d59bd9653f200f220920489ca2b5937696c31910160405180910390a35050565b61133d6115dc565b600f55565b61134d858585610994565b6001600160a01b0384163b156111f757604051630a85bd0160e11b808252906001600160a01b0386169063150b7a02906113939033908a90899089908990600401612778565b6020604051808303816000875af11580156113b2573d6000803e3d6000fd5b505050506040513d601f19601f820116820180604052508101906113d69190612595565b6001600160e01b031916146111f757604051633da6393160e01b815260040160405180910390fd5b6000818152600260205260409020546060906001600160a01b0316611436576040516307ed98ed60e31b815260040160405180910390fd5b60135460ff1661147c57600061144b83611b91565b61145484611b91565b6040516020016114659291906127e8565b60408051601f198184030181529190529392505050565b601261148783611b91565b604051602001611498929190612b03565b6040516020818303038152906040529050919050565b6114b66115dc565b6011805460ff191660ff92909216919091179055565b60006114d66112b9565b6009546112c49190612b9a565b6114eb6115dc565b6001600160a01b0381166115505760405162461bcd60e51b815260206004820152602660248201527f4f776e61626c653a206e6577206f776e657220697320746865207a65726f206160448201526564647265737360d01b6064820152608401610b62565b6110bd81611b3f565b60006301ffc9a760e01b6001600160e01b03198316148061158a57506380ac58cd60e01b6001600160e01b03198316145b806108255750506001600160e01b031916635b5e139f60e01b1490565b60006001600160e01b0319821663152a902d60e11b148061082557506301ffc9a760e01b6001600160e01b0319831614610825565b600c546001600160a01b031633146112aa5760405162461bcd60e51b815260206004820181905260248201527f4f776e61626c653a2063616c6c6572206973206e6f7420746865206f776e65726044820152606401610b62565b6127106001600160601b03821611156116615760405162461bcd60e51b8152600401610b6290612bad565b6001600160a01b0382166116b75760405162461bcd60e51b815260206004820152601960248201527f455243323938313a20696e76616c6964207265636569766572000000000000006044820152606401610b62565b604080518082019091526001600160a01b039092168083526001600160601b039091166020909201829052600160a01b90910217600655565b6000808787878560405160200161170a9493929190612bf7565b60408051601f19818403018152828252805160209182012083830183526009845268020b2323932b9b99d160bd1b848301528251601f8901839004830281018301909352878352935061178d92916117889189908990819084018382808284376000920191909152506117829250879150611c249050565b90611c57565b611c7b565b6117d285858080601f0160208091040260200160405190810160405280939291908181526020018383808284376000920191909152506117829250859150611c249050565b6001600160a01b03167f00000000000000000000000000000000000000000000000000000000000000006001600160a01b0316149150509695505050505050565b60008061181e6114cc565b1161186b5760405162461bcd60e51b815260206004820152601860248201527f4e6f206d6f726520746f6b656e7320617661696c61626c6500000000000000006044820152606401610b62565b60006118756112b9565b6009546118829190612b9a565b6040516bffffffffffffffffffffffff1933606090811b8216602084015241901b166034820152446048820152456068820152426088820152909150600090829060a8016040516020818303038152906040528051906020012060001c6118e99190612c34565b6000818152600a602052604081205491925090810361190957508061191a565b506000818152600a60205260409020545b600a6000611929600186612b9a565b81526020019081526020016000205460000361195e5761194a600184612b9a565b6000838152600a602052604090205561198e565b600a600061196d600186612b9a565b81526020808201929092526040908101600090812054858252600a90935220555b611996611cc0565b50600b546119a49082612558565b935050505090565b6001600160a01b0382166119d357604051634e46966960e11b815260040160405180910390fd5b6000818152600260205260409020546001600160a01b031615611a0957604051631bbdf5c560e31b815260040160405180910390fd5b6001600160a01b038216600081815260036020908152604080832080546001019055848352600290915280822080546001600160a01b0319168417905551839291907fddf252ad1be2c89b69c2b068fc378daa952ba7f163c4a11628f55a4df523b3ef908290a45050565b6127106001600160601b0382161115611a9f5760405162461bcd60e51b8152600401610b6290612bad565b6001600160a01b038216611af55760405162461bcd60e51b815260206004820152601b60248201527f455243323938313a20496e76616c696420706172616d657465727300000000006044820152606401610b62565b6040805180820182526001600160a01b0393841681526001600160601b0392831660208083019182526000968752600790529190942093519051909116600160a01b029116179055565b600c80546001600160a01b038381166001600160a01b0319831681179093556040519116919082907f8be0079c531659141344cd1fd0a4f28419497f9722a3daafe3b4186f6b6457e090600090a35050565b60606000611b9e83611cdc565b600101905060008167ffffffffffffffff811115611bbe57611bbe61229b565b6040519080825280601f01601f191660200182016040528015611be8576020820181803683370190505b5090508181016020015b600019016f181899199a1a9b1b9c1cb0b131b232b360811b600a86061a8153600a8504945084611bf257509392505050565b7f19457468657265756d205369676e6564204d6573736167653a0a3332000000006000908152601c91909152603c902090565b6000806000611c668585611db4565b91509150611c7381611df6565b509392505050565b61083d8282604051602401611c91929190612c48565b60408051601f198184030181529190526020810180516001600160e01b031663319af33360e01b179052611f40565b600080611ccc60085490565b9050611241600880546001019055565b60008072184f03e93ff9f4daa797ed6e38ed64bf6a1f0160401b8310611d1b5772184f03e93ff9f4daa797ed6e38ed64bf6a1f0160401b830492506040015b6d04ee2d6d415b85acef81000000008310611d47576d04ee2d6d415b85acef8100000000830492506020015b662386f26fc100008310611d6557662386f26fc10000830492506010015b6305f5e1008310611d7d576305f5e100830492506008015b6127108310611d9157612710830492506004015b60648310611da3576064830492506002015b600a83106108255760010192915050565b6000808251604103611dea5760208301516040840151606085015160001a611dde87828585611f61565b94509450505050610e93565b50600090506002610e93565b6000816004811115611e0a57611e0a612c72565b03611e125750565b6001816004811115611e2657611e26612c72565b03611e735760405162461bcd60e51b815260206004820152601860248201527f45434453413a20696e76616c6964207369676e617475726500000000000000006044820152606401610b62565b6002816004811115611e8757611e87612c72565b03611ed45760405162461bcd60e51b815260206004820152601f60248201527f45434453413a20696e76616c6964207369676e6174757265206c656e677468006044820152606401610b62565b6003816004811115611ee857611ee8612c72565b036110bd5760405162461bcd60e51b815260206004820152602260248201527f45434453413a20696e76616c6964207369676e6174757265202773272076616c604482015261756560f01b6064820152608401610b62565b60006a636f6e736f6c652e6c6f679050600080835160208501845afa505050565b6000807f7fffffffffffffffffffffffffffffff5d576e7357a4501ddfe92f46681b20a0831115611f98575060009050600361201c565b6040805160008082526020820180845289905260ff881692820192909252606081018690526080810185905260019060a0016020604051602081039080840390855afa158015611fec573d6000803e3d6000fd5b5050604051601f1901519150506001600160a01b0381166120155760006001925092505061201c565b9150600090505b94509492505050565b6001600160e01b0319811681146110bd57600080fd5b60006020828403121561204d57600080fd5b813561205881612025565b9392505050565b80356001600160a01b038116811461124157600080fd5b80356001600160601b038116811461124157600080fd5b600080604083850312156120a057600080fd5b6120a98361205f565b91506120b760208401612076565b90509250929050565b60005b838110156120db5781810151838201526020016120c3565b50506000910152565b600081518084526120fc8160208601602086016120c0565b601f01601f19169290920160200192915050565b60208152600061205860208301846120e4565b60006020828403121561213557600080fd5b5035919050565b6000806040838503121561214f57600080fd5b6121588361205f565b946020939093013593505050565b60008060006060848603121561217b57600080fd5b6121848461205f565b92506121926020850161205f565b9150604084013590509250925092565b60008083601f8401126121b457600080fd5b50813567ffffffffffffffff8111156121cc57600080fd5b602083019150836020828501011115610e9357600080fd5b6000806000806000606086880312156121fc57600080fd5b85359450602086013567ffffffffffffffff8082111561221b57600080fd5b61222789838a016121a2565b9096509450604088013591508082111561224057600080fd5b5061224d888289016121a2565b969995985093965092949392505050565b6000806040838503121561227157600080fd5b50508035926020909101359150565b60006020828403121561229257600080fd5b6120588261205f565b634e487b7160e01b600052604160045260246000fd5b6000602082840312156122c357600080fd5b813567ffffffffffffffff808211156122db57600080fd5b818401915084601f8301126122ef57600080fd5b8135818111156123015761230161229b565b604051601f8201601f19908116603f011681019083821181831017156123295761232961229b565b8160405282815287602084870101111561234257600080fd5b826020860160208301376000928101602001929092525095945050505050565b60008060006060848603121561237757600080fd5b833592506123876020850161205f565b915061239560408501612076565b90509250925092565b600080600080604085870312156123b457600080fd5b843567ffffffffffffffff808211156123cc57600080fd5b6123d8888389016121a2565b909650945060208701359150808211156123f157600080fd5b506123fe878288016121a2565b95989497509550505050565b6000806040838503121561241d57600080fd5b6124268361205f565b91506020830135801515811461243b57600080fd5b809150509250929050565b60008060008060006080868803121561245e57600080fd5b6124678661205f565b94506124756020870161205f565b935060408601359250606086013567ffffffffffffffff81111561249857600080fd5b61224d888289016121a2565b6000602082840312156124b657600080fd5b813560ff8116811461205857600080fd5b600080604083850312156124da57600080fd5b6124e38361205f565b91506120b76020840161205f565b600181811c9082168061250557607f821691505b60208210810361252557634e487b7160e01b600052602260045260246000fd5b50919050565b634e487b7160e01b600052601160045260246000fd5b80820281158282048414176108255761082561252b565b808201808211156108255761082561252b565b634e487b7160e01b600052601260045260246000fd5b6000826125905761259061256b565b500490565b6000602082840312156125a757600080fd5b815161205881612025565b601f82111561118e57600081815260208120601f850160051c810160208610156125d95750805b601f850160051c820191505b81811015610de4578281556001016125e5565b815167ffffffffffffffff8111156126125761261261229b565b6126268161262084546124f1565b846125b2565b602080601f83116001811461265b57600084156126435750858301515b600019600386901b1c1916600185901b178555610de4565b600085815260208120601f198616915b8281101561268a5788860151825594840194600190910190840161266b565b50858210156126a85787850151600019600388901b60f8161c191681555b5050505050600190811b01905550565b67ffffffffffffffff8311156126d0576126d061229b565b6126e4836126de83546124f1565b836125b2565b6000601f84116001811461271857600085156127005750838201355b600019600387901b1c1916600186901b1783556111f7565b600083815260209020601f19861690835b828110156127495786850135825560209485019460019092019101612729565b50868210156127665760001960f88860031b161c19848701351681555b505060018560011b0183555050505050565b6001600160a01b038681168252851660208201526040810184905260806060820181905281018290526000828460a0840137600060a0848401015260a0601f19601f85011683010190509695505050505050565b600081516127de8185602086016120c0565b9290920192915050565b607b60f81b81527f226e616d65223a20224172676f5065747a204c6f6f74626f782023000000000060018201526000835161282a81601c8501602088016120c0565b61088b60f21b601c918401918201527f226465736372697074696f6e223a20224172676f5065747a206973206120636f601e8201527f6c6c656374696f6e206f6620382c38383820756e69717565207574696c697479603e8201527f2d656e61626c6564206368617261637465727320616e64206172652070617274605e8201527f6e65727320746f20746865204172676f6e6175747320636f6c6c656374696f6e607e8201527f206f6e207468652043726f6e6f7320636861696e2e2045616368204172676f50609e8201527f65747a20686f6c64657220676574732061636365737320746f207574696c697460be8201527f79206163726f73732074686520656e74697265204172676f2065636f7379737460de8201527f656d2c206c756372617469766520726577617264732c2061697264726f70732c60fe8201527f20616e642077696c6c2062652061206b657920617373657420696e206675747561011e8201527f7265204172676f20646576656c6f706d656e74732e222c00000000000000000061013e820152612afa612aed612adf612ab6612a8d612a71612a64612a5e612a4c6101558a017f22696d616765223a2022697066733a2f2f6261667962656967646767686a647581527f6e767170736a71656b6e353570746d34336b6837636a736e7a7532687271643760208201527f3275776c653474677875716d2f4172676f2532305065747a2e6d7034222c00006040820152605e0190565b6501134b2111d160d51b815260060190565b8b6127cc565b600b60fa1b815260010190565b6f2261747472696275746573223a205b7b60801b815260100190565b7f2020202274726169745f74797065223a202254797065222c0000000000000000815260180190565b7f2020202276616c7565223a2022556e72657665616c6564220000000000000000815260180190565b617d5d60f01b815260020190565b607d60f81b815260010190565b95945050505050565b6000808454612b11816124f1565b60018281168015612b295760018114612b3e57612b6d565b60ff1984168752821515830287019450612b6d565b8860005260208060002060005b85811015612b645781548a820152908401908201612b4b565b50505082870194505b505050508351612b818183602088016120c0565b64173539b7b760d91b9101908152600501949350505050565b818103818111156108255761082561252b565b6020808252602a908201527f455243323938313a20726f79616c7479206665652077696c6c206578636565646040820152692073616c65507269636560b01b606082015260800190565b6001600160601b03198560601b1681528284601483013760f89190911b6001600160f81b0319166014919092019081019190915260150192915050565b600082612c4357612c4361256b565b500690565b604081526000612c5b60408301856120e4565b905060018060a01b03831660208301529392505050565b634e487b7160e01b600052602160045260246000fdfea26469706673582212200f5492071b91db9f1df6f426ccb05b760cd9c71f8d7b720755e7678d4d83b51564736f6c63430008120033",
  "devdoc": {
    "kind": "dev",
    "methods": {
      "availableTokenCount()": {
        "details": "Check whether tokens are still available",
        "returns": {
          "_0": "the available token count"
        }
      },
      "owner()": {
        "details": "Returns the address of the current owner."
      },
      "renounceOwnership()": {
        "details": "Leaves the contract without owner. It will not be possible to call `onlyOwner` functions. Can only be called by the current owner. NOTE: Renouncing ownership will leave the contract without an owner, thereby disabling any functionality that is only available to the owner."
      },
      "royaltyInfo(uint256,uint256)": {
        "details": "Returns how much royalty is owed and to whom, based on a sale price that may be denominated in any unit of exchange. The royalty amount is denominated and should be paid in that same unit of exchange."
      },
      "tokenCount()": {
        "details": "Get the current token count",
        "returns": {
          "_0": "the created token count"
        }
      },
      "totalMaxSupply()": {
        "details": "Get the max Supply",
        "returns": {
          "_0": "the maximum token count"
        }
      },
      "transferOwnership(address)": {
        "details": "Transfers ownership of the contract to a new account (`newOwner`). Can only be called by the current owner."
      }
    },
    "version": 1
  },
  "userdoc": {
    "errors": {
      "NotMinted()": [
        {
          "notice": "----------------------------------------------------------------------- Custom Errors -----------------------------------------------------------------------"
        }
      ]
    },
    "events": {
      "Transfer(address,address,uint256)": {
        "notice": "----------------------------------------------------------------------- Events -----------------------------------------------------------------------"
      }
    },
    "kind": "user",
    "methods": {
      "approve(address,uint256)": {
        "notice": "----------------------------------------------------------------------- ERC721 Logic -----------------------------------------------------------------------"
      },
      "getApproved(uint256)": {
        "notice": "----------------------------------------------------------------------- ERC721 Approval Storage -----------------------------------------------------------------------"
      },
      "name()": {
        "notice": "----------------------------------------------------------------------- Metadata Storage/Logic -----------------------------------------------------------------------"
      }
    },
    "version": 1
  },
  "storageLayout": {
    "storage": [
      {
        "astId": 2635,
        "contract": "contracts/ArgoPetz.sol:ArgoPetz",
        "label": "name",
        "offset": 0,
        "slot": "0",
        "type": "t_string_storage"
      },
      {
        "astId": 2637,
        "contract": "contracts/ArgoPetz.sol:ArgoPetz",
        "label": "symbol",
        "offset": 0,
        "slot": "1",
        "type": "t_string_storage"
      },
      {
        "astId": 2649,
        "contract": "contracts/ArgoPetz.sol:ArgoPetz",
        "label": "_ownerOf",
        "offset": 0,
        "slot": "2",
        "type": "t_mapping(t_uint256,t_address)"
      },
      {
        "astId": 2653,
        "contract": "contracts/ArgoPetz.sol:ArgoPetz",
        "label": "_balanceOf",
        "offset": 0,
        "slot": "3",
        "type": "t_mapping(t_address,t_uint256)"
      },
      {
        "astId": 2703,
        "contract": "contracts/ArgoPetz.sol:ArgoPetz",
        "label": "getApproved",
        "offset": 0,
        "slot": "4",
        "type": "t_mapping(t_uint256,t_address)"
      },
      {
        "astId": 2709,
        "contract": "contracts/ArgoPetz.sol:ArgoPetz",
        "label": "isApprovedForAll",
        "offset": 0,
        "slot": "5",
        "type": "t_mapping(t_address,t_mapping(t_address,t_bool))"
      },
      {
        "astId": 148,
        "contract": "contracts/ArgoPetz.sol:ArgoPetz",
        "label": "_defaultRoyaltyInfo",
        "offset": 0,
        "slot": "6",
        "type": "t_struct(RoyaltyInfo)145_storage"
      },
      {
        "astId": 153,
        "contract": "contracts/ArgoPetz.sol:ArgoPetz",
        "label": "_tokenRoyaltyInfo",
        "offset": 0,
        "slot": "7",
        "type": "t_mapping(t_uint256,t_struct(RoyaltyInfo)145_storage)"
      },
      {
        "astId": 3323,
        "contract": "contracts/ArgoPetz.sol:ArgoPetz",
        "label": "_tokenCount",
        "offset": 0,
        "slot": "8",
        "type": "t_struct(Counter)357_storage"
      },
      {
        "astId": 3326,
        "contract": "contracts/ArgoPetz.sol:ArgoPetz",
        "label": "_totalMaxSupply",
        "offset": 0,
        "slot": "9",
        "type": "t_uint256"
      },
      {
        "astId": 3193,
        "contract": "contracts/ArgoPetz.sol:ArgoPetz",
        "label": "tokenMatrix",
        "offset": 0,
        "slot": "10",
        "type": "t_mapping(t_uint256,t_uint256)"
      },
      {
        "astId": 3195,
        "contract": "contracts/ArgoPetz.sol:ArgoPetz",
        "label": "startFrom",
        "offset": 0,
        "slot": "11",
        "type": "t_uint256"
      },
      {
        "astId": 7,
        "contract": "contracts/ArgoPetz.sol:ArgoPetz",
        "label": "_owner",
        "offset": 0,
        "slot": "12",
        "type": "t_address"
      },
      {
        "astId": 2060,
        "contract": "contracts/ArgoPetz.sol:ArgoPetz",
        "label": "currentSupply",
        "offset": 0,
        "slot": "13",
        "type": "t_uint256"
      },
      {
        "astId": 2070,
        "contract": "contracts/ArgoPetz.sol:ArgoPetz",
        "label": "whitelistMintCount",
        "offset": 0,
        "slot": "14",
        "type": "t_mapping(t_address,t_uint256)"
      },
      {
        "astId": 2073,
        "contract": "contracts/ArgoPetz.sol:ArgoPetz",
        "label": "whitelistMintPrice",
        "offset": 0,
        "slot": "15",
        "type": "t_uint256"
      },
      {
        "astId": 2076,
        "contract": "contracts/ArgoPetz.sol:ArgoPetz",
        "label": "publicMintPrice",
        "offset": 0,
        "slot": "16",
        "type": "t_uint256"
      },
      {
        "astId": 2078,
        "contract": "contracts/ArgoPetz.sol:ArgoPetz",
        "label": "stage",
        "offset": 0,
        "slot": "17",
        "type": "t_uint8"
      },
      {
        "astId": 2080,
        "contract": "contracts/ArgoPetz.sol:ArgoPetz",
        "label": "baseURI",
        "offset": 0,
        "slot": "18",
        "type": "t_string_storage"
      },
      {
        "astId": 2082,
        "contract": "contracts/ArgoPetz.sol:ArgoPetz",
        "label": "revealed",
        "offset": 0,
        "slot": "19",
        "type": "t_bool"
      }
    ],
    "types": {
      "t_address": {
        "encoding": "inplace",
        "label": "address",
        "numberOfBytes": "20"
      },
      "t_bool": {
        "encoding": "inplace",
        "label": "bool",
        "numberOfBytes": "1"
      },
      "t_mapping(t_address,t_bool)": {
        "encoding": "mapping",
        "key": "t_address",
        "label": "mapping(address => bool)",
        "numberOfBytes": "32",
        "value": "t_bool"
      },
      "t_mapping(t_address,t_mapping(t_address,t_bool))": {
        "encoding": "mapping",
        "key": "t_address",
        "label": "mapping(address => mapping(address => bool))",
        "numberOfBytes": "32",
        "value": "t_mapping(t_address,t_bool)"
      },
      "t_mapping(t_address,t_uint256)": {
        "encoding": "mapping",
        "key": "t_address",
        "label": "mapping(address => uint256)",
        "numberOfBytes": "32",
        "value": "t_uint256"
      },
      "t_mapping(t_uint256,t_address)": {
        "encoding": "mapping",
        "key": "t_uint256",
        "label": "mapping(uint256 => address)",
        "numberOfBytes": "32",
        "value": "t_address"
      },
      "t_mapping(t_uint256,t_struct(RoyaltyInfo)145_storage)": {
        "encoding": "mapping",
        "key": "t_uint256",
        "label": "mapping(uint256 => struct ERC2981.RoyaltyInfo)",
        "numberOfBytes": "32",
        "value": "t_struct(RoyaltyInfo)145_storage"
      },
      "t_mapping(t_uint256,t_uint256)": {
        "encoding": "mapping",
        "key": "t_uint256",
        "label": "mapping(uint256 => uint256)",
        "numberOfBytes": "32",
        "value": "t_uint256"
      },
      "t_string_storage": {
        "encoding": "bytes",
        "label": "string",
        "numberOfBytes": "32"
      },
      "t_struct(Counter)357_storage": {
        "encoding": "inplace",
        "label": "struct Counters.Counter",
        "members": [
          {
            "astId": 356,
            "contract": "contracts/ArgoPetz.sol:ArgoPetz",
            "label": "_value",
            "offset": 0,
            "slot": "0",
            "type": "t_uint256"
          }
        ],
        "numberOfBytes": "32"
      },
      "t_struct(RoyaltyInfo)145_storage": {
        "encoding": "inplace",
        "label": "struct ERC2981.RoyaltyInfo",
        "members": [
          {
            "astId": 142,
            "contract": "contracts/ArgoPetz.sol:ArgoPetz",
            "label": "receiver",
            "offset": 0,
            "slot": "0",
            "type": "t_address"
          },
          {
            "astId": 144,
            "contract": "contracts/ArgoPetz.sol:ArgoPetz",
            "label": "royaltyFraction",
            "offset": 20,
            "slot": "0",
            "type": "t_uint96"
          }
        ],
        "numberOfBytes": "32"
      },
      "t_uint256": {
        "encoding": "inplace",
        "label": "uint256",
        "numberOfBytes": "32"
      },
      "t_uint8": {
        "encoding": "inplace",
        "label": "uint8",
        "numberOfBytes": "1"
      },
      "t_uint96": {
        "encoding": "inplace",
        "label": "uint96",
        "numberOfBytes": "12"
      }
    }
  }
}