{
  "address": "0x42E47D7956af9d6fC4144B493009409Ef1D3D10d",
  "abi": [
    {
      "inputs": [
        {
          "internalType": "address payable",
          "name": "_bettingToken",
          "type": "address"
        },
        {
          "internalType": "uint256",
          "name": "_minimumBet",
          "type": "uint256"
        },
        {
          "internalType": "uint256",
          "name": "_treasuryBps",
          "type": "uint256"
        },
        {
          "internalType": "address",
          "name": "_treasury",
          "type": "address"
        },
        {
          "internalType": "uint256",
          "name": "_minRaceLength",
          "type": "uint256"
        },
        {
          "internalType": "uint256",
          "name": "_maxRaceLength",
          "type": "uint256"
        },
        {
          "internalType": "address",
          "name": "_controller",
          "type": "address"
        }
      ],
      "stateMutability": "nonpayable",
      "type": "constructor"
    },
    {
      "anonymous": false,
      "inputs": [
        {
          "indexed": false,
          "internalType": "int64",
          "name": "tgChatId",
          "type": "int64"
        },
        {
          "indexed": false,
          "internalType": "address",
          "name": "player",
          "type": "address"
        },
        {
          "indexed": false,
          "internalType": "uint256",
          "name": "amount",
          "type": "uint256"
        }
      ],
      "name": "Bet",
      "type": "event"
    },
    {
      "anonymous": false,
      "inputs": [
        {
          "indexed": false,
          "internalType": "int64",
          "name": "tgChatId",
          "type": "int64"
        }
      ],
      "name": "GameAborted",
      "type": "event"
    },
    {
      "anonymous": false,
      "inputs": [
        {
          "indexed": false,
          "internalType": "int64",
          "name": "tgChatId",
          "type": "int64"
        },
        {
          "indexed": false,
          "internalType": "enum TelegramPEPERace.Suit",
          "name": "winningSuit",
          "type": "uint8"
        }
      ],
      "name": "GameEnded",
      "type": "event"
    },
    {
      "anonymous": false,
      "inputs": [
        {
          "indexed": true,
          "internalType": "address",
          "name": "previousOwner",
          "type": "address"
        },
        {
          "indexed": true,
          "internalType": "address",
          "name": "newOwner",
          "type": "address"
        }
      ],
      "name": "OwnershipTransferred",
      "type": "event"
    },
    {
      "anonymous": false,
      "inputs": [
        {
          "indexed": false,
          "internalType": "int64",
          "name": "tgChatId",
          "type": "int64"
        },
        {
          "indexed": false,
          "internalType": "address",
          "name": "player",
          "type": "address"
        },
        {
          "indexed": false,
          "internalType": "uint256",
          "name": "amount",
          "type": "uint256"
        }
      ],
      "name": "Win",
      "type": "event"
    },
    {
      "inputs": [
        {
          "internalType": "int64",
          "name": "_tgChatId",
          "type": "int64"
        }
      ],
      "name": "abortGame",
      "outputs": [],
      "stateMutability": "nonpayable",
      "type": "function"
    },
    {
      "inputs": [
        {
          "internalType": "uint256",
          "name": "",
          "type": "uint256"
        }
      ],
      "name": "activeTgGroups",
      "outputs": [
        {
          "internalType": "int64",
          "name": "",
          "type": "int64"
        }
      ],
      "stateMutability": "view",
      "type": "function"
    },
    {
      "inputs": [],
      "name": "bettingToken",
      "outputs": [
        {
          "internalType": "contract IERC20",
          "name": "",
          "type": "address"
        }
      ],
      "stateMutability": "view",
      "type": "function"
    },
    {
      "inputs": [],
      "name": "controller",
      "outputs": [
        {
          "internalType": "address",
          "name": "",
          "type": "address"
        }
      ],
      "stateMutability": "view",
      "type": "function"
    },
    {
      "inputs": [
        {
          "internalType": "int64",
          "name": "_tgChatId",
          "type": "int64"
        },
        {
          "internalType": "enum TelegramPEPERace.Suit",
          "name": "winningSuit",
          "type": "uint8"
        }
      ],
      "name": "endGame",
      "outputs": [],
      "stateMutability": "nonpayable",
      "type": "function"
    },
    {
      "inputs": [
        {
          "internalType": "int64",
          "name": "",
          "type": "int64"
        }
      ],
      "name": "games",
      "outputs": [
        {
          "internalType": "uint256",
          "name": "raceLength",
          "type": "uint256"
        },
        {
          "internalType": "uint256",
          "name": "minBet",
          "type": "uint256"
        },
        {
          "internalType": "bool",
          "name": "inProgress",
          "type": "bool"
        }
      ],
      "stateMutability": "view",
      "type": "function"
    },
    {
      "inputs": [
        {
          "internalType": "int64",
          "name": "_tgChatId",
          "type": "int64"
        }
      ],
      "name": "isGameInProgress",
      "outputs": [
        {
          "internalType": "bool",
          "name": "",
          "type": "bool"
        }
      ],
      "stateMutability": "view",
      "type": "function"
    },
    {
      "inputs": [],
      "name": "maxRaceLength",
      "outputs": [
        {
          "internalType": "uint256",
          "name": "",
          "type": "uint256"
        }
      ],
      "stateMutability": "view",
      "type": "function"
    },
    {
      "inputs": [],
      "name": "minRaceLength",
      "outputs": [
        {
          "internalType": "uint256",
          "name": "",
          "type": "uint256"
        }
      ],
      "stateMutability": "view",
      "type": "function"
    },
    {
      "inputs": [],
      "name": "minimumBet",
      "outputs": [
        {
          "internalType": "uint256",
          "name": "",
          "type": "uint256"
        }
      ],
      "stateMutability": "view",
      "type": "function"
    },
    {
      "inputs": [
        {
          "internalType": "int64",
          "name": "_tgChatId",
          "type": "int64"
        },
        {
          "internalType": "uint256",
          "name": "_raceLength",
          "type": "uint256"
        },
        {
          "internalType": "uint256",
          "name": "_minBet",
          "type": "uint256"
        },
        {
          "internalType": "bytes32[]",
          "name": "_drawnCards",
          "type": "bytes32[]"
        },
        {
          "internalType": "address[]",
          "name": "_players",
          "type": "address[]"
        },
        {
          "internalType": "uint256[]",
          "name": "_bets",
          "type": "uint256[]"
        },
        {
          "internalType": "enum TelegramPEPERace.Suit[]",
          "name": "_suits",
          "type": "uint8[]"
        }
      ],
      "name": "newGame",
      "outputs": [
        {
          "internalType": "uint256[]",
          "name": "",
          "type": "uint256[]"
        }
      ],
      "stateMutability": "nonpayable",
      "type": "function"
    },
    {
      "inputs": [],
      "name": "owner",
      "outputs": [
        {
          "internalType": "address",
          "name": "",
          "type": "address"
        }
      ],
      "stateMutability": "view",
      "type": "function"
    },
    {
      "inputs": [],
      "name": "renounceOwnership",
      "outputs": [],
      "stateMutability": "nonpayable",
      "type": "function"
    },
    {
      "inputs": [
        {
          "internalType": "address",
          "name": "newOwner",
          "type": "address"
        }
      ],
      "name": "transferOwnership",
      "outputs": [],
      "stateMutability": "nonpayable",
      "type": "function"
    },
    {
      "inputs": [],
      "name": "treasury",
      "outputs": [
        {
          "internalType": "address",
          "name": "",
          "type": "address"
        }
      ],
      "stateMutability": "view",
      "type": "function"
    },
    {
      "inputs": [],
      "name": "treasuryBps",
      "outputs": [
        {
          "internalType": "uint256",
          "name": "",
          "type": "uint256"
        }
      ],
      "stateMutability": "view",
      "type": "function"
    }
  ],
  "transactionHash": "0xcd2ccc1f62e777c9dc40cdd0cc4a50ad4a1d24bb3a9c07b45a700f1a087ab6e0",
  "args": [
    "0xB0D151d606353b8187d89132C69a80f73347A452",
    1000,
    5,
    "0x1B590CD65a73350514ba50EEAc51AF9e467D4643",
    5,
    30,
    "0x6DE01c3DB3AC8ceC90d7516ADE520e0F0Fdc6525"
  ],
  "numDeployments": 2,
  "solcInputHash": "2c5fca87c67924030c4f555fbeaa18c5",
  "bytecode": "0x60e06040523480156200001157600080fd5b5060405162001b9e38038062001b9e8339810160408190526200003491620000f8565b6200003f336200008f565b600180546001600160a01b039586166001600160a01b03199182161790915560c09590955295831660805260a0949094526003556004929092556002805493909216921691909117905562000175565b600080546001600160a01b038381166001600160a01b0319831681178455604051919092169283917f8be0079c531659141344cd1fd0a4f28419497f9722a3daafe3b4186f6b6457e09190a35050565b6001600160a01b0381168114620000f557600080fd5b50565b600080600080600080600060e0888a0312156200011457600080fd5b87516200012181620000df565b80975050602088015195506040880151945060608801516200014381620000df565b809450506080880151925060a0880151915060c08801516200016581620000df565b8091505092959891949750929550565b60805160a05160c0516119cf620001cf600039600081816101720152610c0b01526000818161023301526103dd015260008181610133015281816106d901528181610cea01528181610ea3015261112301526119cf6000f3fe608060405234801561001057600080fd5b50600436106101005760003560e01c80638da5cb5b11610097578063d057fc1f11610066578063d057fc1f14610268578063f2fde38b1461028e578063f3619716146102a1578063f77c4791146102f057600080fd5b80638da5cb5b1461020a578063aa84b2291461021b578063c38a8afd1461022e578063cb99e91f1461025557600080fd5b806361d027b3116100d357806361d027b3146101ab57806363c42460146101be578063715018a6146101f7578063748e636e1461020157600080fd5b8063192fbbea1461010557806343425e881461012e5780634dc10ea11461016d57806351385f36146101a2575b600080fd5b6101186101133660046115e3565b610303565b60405161012591906116c4565b60405180910390f35b6101557f000000000000000000000000000000000000000000000000000000000000000081565b6040516001600160a01b039091168152602001610125565b6101947f000000000000000000000000000000000000000000000000000000000000000081565b604051908152602001610125565b61019460045481565b600154610155906001600160a01b031681565b6101e76101cc366004611708565b60070b60009081526005602052604090206004015460ff1690565b6040519015158152602001610125565b6101ff610958565b005b61019460035481565b6000546001600160a01b0316610155565b6101ff61022936600461172a565b61096c565b6101947f000000000000000000000000000000000000000000000000000000000000000081565b6101ff610263366004611708565b61102d565b61027b61027636600461175d565b611295565b60405160079190910b8152602001610125565b6101ff61029c366004611776565b6112cc565b6102d36102af366004611708565b60056020526000908152604090208054600182015460049092015490919060ff1683565b604080519384526020840192909252151590820152606001610125565b600254610155906001600160a01b031681565b6002546060906001600160a01b031633146103565760405162461bcd60e51b815260206004820152600e60248201526d3737ba1031b7b73a3937b63632b960911b60448201526064015b60405180910390fd5b6004548a11156103985760405162461bcd60e51b815260206004820152600d60248201526c5261636520746f6f206c6f6e6760981b604482015260640161034d565b6003548a10156103db5760405162461bcd60e51b815260206004820152600e60248201526d149858d9481d1bdbc81cda1bdc9d60921b604482015260640161034d565b7f000000000000000000000000000000000000000000000000000000000000000089101561043f5760405162461bcd60e51b8152602060048201526011602482015270135a5b8818995d081d1bdbc81cdb585b1b607a1b604482015260640161034d565b848314801561044e5750815185145b61048e5760405162461bcd60e51b81526020600482015260116024820152701a5b9c1d5d1cc81b5a5cdb585d18da1959607a1b604482015260640161034d565b600185116104d35760405162461bcd60e51b81526020600482015260126024820152714e6f7420656e6f75676820706c617965727360701b604482015260640161034d565b6104f28b60070b60009081526005602052604090206004015460ff1690565b156105355760405162461bcd60e51b8152602060048201526013602482015272616c726561647920696e2070726f677265737360681b604482015260640161034d565b60078b900b60009081526005602052604090208a8155600181018a9055610560600282018a8a611459565b5060048101805460ff1916600117905560005b61ffff81168711156108ba578a86868361ffff168181106105965761059661179f565b9050602002013510156105db5760405162461bcd60e51b815260206004820152600d60248201526c10995d081d1bdbc81cdb585b1b609a1b604482015260640161034d565b816003016000858361ffff16815181106105f7576105f761179f565b60200260200101516003811115610610576106106117b5565b6003811115610621576106216117b5565b815260200190815260200160002060405180604001604052808a8a8561ffff168181106106505761065061179f565b90506020020160208101906106659190611776565b6001600160a01b0316815260200188888561ffff168181106106895761068961179f565b602090810292909201359092528354600180820186556000958652828620855160029093020180546001600160a01b0319166001600160a01b0393841617815594909201519390910192909255507f0000000000000000000000000000000000000000000000000000000000000000166323b872dd8a8a61ffff86168181106107145761071461179f565b90506020020160208101906107299190611776565b308a8a8761ffff168181106107405761074061179f565b6040516001600160e01b031960e088901b1681526001600160a01b039586166004820152949093166024850152506020909102013560448201526064016020604051808303816000875af115801561079c573d6000803e3d6000fd5b505050506040513d601f19601f820116820180604052508101906107c091906117cb565b9050806108075760405162461bcd60e51b8152602060048201526015602482015274119d5b991cc81d1c985b9cd9995c8819985a5b1959605a1b604482015260640161034d565b7f95d208f3deafce2776ab2b0da2c1b2e6dfc749f9b7993e0fe1df82ed26358d358e8a8a8561ffff1681811061083f5761083f61179f565b90506020020160208101906108549190611776565b89898661ffff1681811061086a5761086a61179f565b9050602002013560405161089f9392919060079390930b83526001600160a01b03919091166020830152604082015260600190565b60405180910390a150806108b281611803565b915050610573565b5060068c90806001815401808255809150506001900390600052602060002090600491828204019190066008029091909190916101000a81548167ffffffffffffffff021916908360070b67ffffffffffffffff160217905550848480806020026020016040519081016040528093929190818152602001838360200280828437600092019190915250929f9e505050505050505050505050505050565b610960611345565b61096a600061139f565b565b610974611345565b6109938260070b60009081526005602052604090206004015460ff1690565b6109af5760405162461bcd60e51b815260040161034d90611824565b600782900b600090815260056020526040812060048101805460ff191690559080805b60048160ff161015610b945760005b8460030160008360ff1660038111156109fc576109fc6117b5565b6003811115610a0d57610a0d6117b5565b6003811115610a1e57610a1e6117b5565b8152602081019190915260400160002054811015610b8157856003811115610a4857610a486117b5565b8260ff166003811115610a5d57610a5d6117b5565b6003811115610a6e57610a6e6117b5565b03610af3578460030160008360ff166003811115610a8e57610a8e6117b5565b6003811115610a9f57610a9f6117b5565b6003811115610ab057610ab06117b5565b81526020019081526020016000208181548110610acf57610acf61179f565b90600052602060002090600202016001015483610aec9190611871565b9250610b6f565b8460030160008360ff166003811115610b0e57610b0e6117b5565b6003811115610b1f57610b1f6117b5565b6003811115610b3057610b306117b5565b81526020019081526020016000208181548110610b4f57610b4f61179f565b90600052602060002090600202016001015484610b6c9190611871565b93505b80610b798161188a565b9150506109e1565b5080610b8c816118a3565b9150506109d2565b50610bcc6040518060400160405280601581526020017457696e6e65727320746f74616c206265743a20257360581b815250826113ef565b610c02604051806040016040528060148152602001734c6f7365727320746f74616c206265743a20257360601b815250836113ef565b60006064610c307f0000000000000000000000000000000000000000000000000000000000000000856118c2565b610c3a91906118d9565b9050610c7160405180604001604052806013815260200172547265617375727920616d6f756e743a20257360681b815250826113ef565b6000610c7d82856118fb565b9050610cbe6040518060400160405280601981526020017f417661696c61626c6520666f722077696e6e6572733a20257300000000000000815250826113ef565b60015460405163a9059cbb60e01b81526001600160a01b039182166004820152602481018490526000917f0000000000000000000000000000000000000000000000000000000000000000169063a9059cbb906044016020604051808303816000875af1158015610d33573d6000803e3d6000fd5b505050506040513d601f19601f82011682018060405250810190610d5791906117cb565b905080610da65760405162461bcd60e51b815260206004820152601b60248201527f5472616e7366657220746f207472656173757279206661696c65640000000000604482015260640161034d565b60005b866003016000896003811115610dc157610dc16117b5565b6003811115610dd257610dd26117b5565b8152602081019190915260400160002054811015610fe95760008760030160008a6003811115610e0457610e046117b5565b6003811115610e1557610e156117b5565b81526020019081526020016000208281548110610e3457610e3461179f565b90600052602060002090600202019050600086858360010154610e5791906118c2565b610e6191906118d9565b90506000818360010154610e759190611871565b835460405163a9059cbb60e01b81526001600160a01b039182166004820152602481018390529192506000917f00000000000000000000000000000000000000000000000000000000000000009091169063a9059cbb906044016020604051808303816000875af1158015610eee573d6000803e3d6000fd5b505050506040513d601f19601f82011682018060405250810190610f1291906117cb565b905080610f615760405162461bcd60e51b815260206004820152601a60248201527f5472616e73666572206661696c656420666f722077696e6e6572000000000000604482015260640161034d565b7fc2dc76ce664ffea95879f58074e6b60c3ebb762a62b91e9af938873a81c28d148d8560000160009054906101000a90046001600160a01b031684604051610fca9392919060079390930b83526001600160a01b03919091166020830152604082015260600190565b60405180910390a1505050508080610fe19061188a565b915050610da9565b507f877256d94166a4680c11c46305317970e021267850136384bfa290a9d1bbbf84888860405161101b92919061190e565b60405180910390a15050505050505050565b611035611345565b6110548160070b60009081526005602052604090206004015460ff1690565b6110705760405162461bcd60e51b815260040161034d90611824565b600781900b6000908152600560205260408120905b60048160ff16101561124d5760008160ff1660038111156110a8576110a86117b5565b905060008360030160008360038111156110c4576110c46117b5565b60038111156110d5576110d56117b5565b8152602001908152602001600020905060005b815461ffff82161015611237576000828261ffff168154811061110d5761110d61179f565b90600052602060002090600202016001015490507f00000000000000000000000000000000000000000000000000000000000000006001600160a01b031663a9059cbb848461ffff16815481106111665761116661179f565b600091825260209091206002909102015460405160e083901b6001600160e01b03191681526001600160a01b039091166004820152602481018490526044016020604051808303816000875af11580156111c4573d6000803e3d6000fd5b505050506040513d601f19601f820116820180604052508101906111e891906117cb565b6112245760405162461bcd60e51b815260206004820152600d60248201526c1499599d5b990819985a5b1959609a1b604482015260640161034d565b508061122f81611803565b9150506110e8565b5050508080611245906118a3565b915050611085565b5060048101805460ff19169055604051600783900b81527f5a51be1110849734862b57434894be46168d278d43436e2240f0e9c97967e8f79060200160405180910390a15050565b600681815481106112a557600080fd5b9060005260206000209060049182820401919006600802915054906101000a900460070b81565b6112d4611345565b6001600160a01b0381166113395760405162461bcd60e51b815260206004820152602660248201527f4f776e61626c653a206e6577206f776e657220697320746865207a65726f206160448201526564647265737360d01b606482015260840161034d565b6113428161139f565b50565b6000546001600160a01b0316331461096a5760405162461bcd60e51b815260206004820181905260248201527f4f776e61626c653a2063616c6c6572206973206e6f7420746865206f776e6572604482015260640161034d565b600080546001600160a01b038381166001600160a01b0319831681178455604051919092169283917f8be0079c531659141344cd1fd0a4f28419497f9722a3daafe3b4186f6b6457e09190a35050565b6114348282604051602401611405929190611944565b60408051601f198184030181529190526020810180516001600160e01b0316632d839cb360e21b179052611438565b5050565b60006a636f6e736f6c652e6c6f679050600080835160208501845afa505050565b828054828255906000526020600020908101928215611494579160200282015b82811115611494578235825591602001919060010190611479565b506114a09291506114a4565b5090565b5b808211156114a057600081556001016114a5565b8035600781900b81146114cb57600080fd5b919050565b60008083601f8401126114e257600080fd5b50813567ffffffffffffffff8111156114fa57600080fd5b6020830191508360208260051b850101111561151557600080fd5b9250929050565b634e487b7160e01b600052604160045260246000fd5b8035600481106114cb57600080fd5b600082601f83011261155257600080fd5b8135602067ffffffffffffffff8083111561156f5761156f61151c565b8260051b604051601f19603f830116810181811084821117156115945761159461151c565b6040529384528581018301938381019250878511156115b257600080fd5b83870191505b848210156115d8576115c982611532565b835291830191908301906115b8565b979650505050505050565b60008060008060008060008060008060e08b8d03121561160257600080fd5b61160b8b6114b9565b995060208b0135985060408b0135975060608b013567ffffffffffffffff8082111561163657600080fd5b6116428e838f016114d0565b909950975060808d013591508082111561165b57600080fd5b6116678e838f016114d0565b909750955060a08d013591508082111561168057600080fd5b61168c8e838f016114d0565b909550935060c08d01359150808211156116a557600080fd5b506116b28d828e01611541565b9150509295989b9194979a5092959850565b6020808252825182820181905260009190848201906040850190845b818110156116fc578351835292840192918401916001016116e0565b50909695505050505050565b60006020828403121561171a57600080fd5b611723826114b9565b9392505050565b6000806040838503121561173d57600080fd5b611746836114b9565b915061175460208401611532565b90509250929050565b60006020828403121561176f57600080fd5b5035919050565b60006020828403121561178857600080fd5b81356001600160a01b038116811461172357600080fd5b634e487b7160e01b600052603260045260246000fd5b634e487b7160e01b600052602160045260246000fd5b6000602082840312156117dd57600080fd5b8151801515811461172357600080fd5b634e487b7160e01b600052601160045260246000fd5b600061ffff80831681810361181a5761181a6117ed565b6001019392505050565b6020808252602d908201527f4e6f2067616d6520696e2070726f677265737320666f7220746869732054656c60408201526c1959dc985b4818da185d081251609a1b606082015260800190565b80820180821115611884576118846117ed565b92915050565b60006001820161189c5761189c6117ed565b5060010190565b600060ff821660ff81036118b9576118b96117ed565b60010192915050565b8082028115828204841417611884576118846117ed565b6000826118f657634e487b7160e01b600052601260045260246000fd5b500490565b81810381811115611884576118846117ed565b600783900b8152604081016004831061193757634e487b7160e01b600052602160045260246000fd5b8260208301529392505050565b604081526000835180604084015260005b818110156119725760208187018101516060868401015201611955565b506000606082850101526060601f19601f830116840101915050826020830152939250505056fea2646970667358221220deb987d70c523c64df23c5548be81b1ed11214d3a6d12fd07e2584c0d072fea664736f6c63430008130033",
  "devdoc": {
    "kind": "dev",
    "methods": {
      "abortGame(int64)": {
        "details": "Abort a game and refund the bets. Use in emergencies      e.g. bot crash.",
        "params": {
          "_tgChatId": "Telegram group of this game"
        }
      },
      "owner()": {
        "details": "Returns the address of the current owner."
      },
      "renounceOwnership()": {
        "details": "Leaves the contract without owner. It will not be possible to call `onlyOwner` functions. Can only be called by the current owner. NOTE: Renouncing ownership will leave the contract without an owner, thereby disabling any functionality that is only available to the owner."
      },
      "transferOwnership(address)": {
        "details": "Transfers ownership of the contract to a new account (`newOwner`). Can only be called by the current owner."
      }
    },
    "version": 1
  },
  "userdoc": {
    "kind": "user",
    "methods": {},
    "version": 1
  },
  "storageLayout": {
    "storage": [
      {
        "astId": 7,
        "contract": "contracts/TelegramPEPERace.sol:TelegramPEPERace",
        "label": "_owner",
        "offset": 0,
        "slot": "0",
        "type": "t_address"
      },
      {
        "astId": 204,
        "contract": "contracts/TelegramPEPERace.sol:TelegramPEPERace",
        "label": "treasury",
        "offset": 0,
        "slot": "1",
        "type": "t_address"
      },
      {
        "astId": 206,
        "contract": "contracts/TelegramPEPERace.sol:TelegramPEPERace",
        "label": "controller",
        "offset": 0,
        "slot": "2",
        "type": "t_address"
      },
      {
        "astId": 215,
        "contract": "contracts/TelegramPEPERace.sol:TelegramPEPERace",
        "label": "minRaceLength",
        "offset": 0,
        "slot": "3",
        "type": "t_uint256"
      },
      {
        "astId": 217,
        "contract": "contracts/TelegramPEPERace.sol:TelegramPEPERace",
        "label": "maxRaceLength",
        "offset": 0,
        "slot": "4",
        "type": "t_uint256"
      },
      {
        "astId": 222,
        "contract": "contracts/TelegramPEPERace.sol:TelegramPEPERace",
        "label": "games",
        "offset": 0,
        "slot": "5",
        "type": "t_mapping(t_int64,t_struct(Game)202_storage)"
      },
      {
        "astId": 225,
        "contract": "contracts/TelegramPEPERace.sol:TelegramPEPERace",
        "label": "activeTgGroups",
        "offset": 0,
        "slot": "6",
        "type": "t_array(t_int64)dyn_storage"
      }
    ],
    "types": {
      "t_address": {
        "encoding": "inplace",
        "label": "address",
        "numberOfBytes": "20"
      },
      "t_array(t_bytes32)dyn_storage": {
        "base": "t_bytes32",
        "encoding": "dynamic_array",
        "label": "bytes32[]",
        "numberOfBytes": "32"
      },
      "t_array(t_int64)dyn_storage": {
        "base": "t_int64",
        "encoding": "dynamic_array",
        "label": "int64[]",
        "numberOfBytes": "32"
      },
      "t_array(t_struct(BetInfo)185_storage)dyn_storage": {
        "base": "t_struct(BetInfo)185_storage",
        "encoding": "dynamic_array",
        "label": "struct TelegramPEPERace.BetInfo[]",
        "numberOfBytes": "32"
      },
      "t_bool": {
        "encoding": "inplace",
        "label": "bool",
        "numberOfBytes": "1"
      },
      "t_bytes32": {
        "encoding": "inplace",
        "label": "bytes32",
        "numberOfBytes": "32"
      },
      "t_enum(Suit)180": {
        "encoding": "inplace",
        "label": "enum TelegramPEPERace.Suit",
        "numberOfBytes": "1"
      },
      "t_int64": {
        "encoding": "inplace",
        "label": "int64",
        "numberOfBytes": "8"
      },
      "t_mapping(t_enum(Suit)180,t_array(t_struct(BetInfo)185_storage)dyn_storage)": {
        "encoding": "mapping",
        "key": "t_enum(Suit)180",
        "label": "mapping(enum TelegramPEPERace.Suit => struct TelegramPEPERace.BetInfo[])",
        "numberOfBytes": "32",
        "value": "t_array(t_struct(BetInfo)185_storage)dyn_storage"
      },
      "t_mapping(t_int64,t_struct(Game)202_storage)": {
        "encoding": "mapping",
        "key": "t_int64",
        "label": "mapping(int64 => struct TelegramPEPERace.Game)",
        "numberOfBytes": "32",
        "value": "t_struct(Game)202_storage"
      },
      "t_struct(BetInfo)185_storage": {
        "encoding": "inplace",
        "label": "struct TelegramPEPERace.BetInfo",
        "members": [
          {
            "astId": 182,
            "contract": "contracts/TelegramPEPERace.sol:TelegramPEPERace",
            "label": "player",
            "offset": 0,
            "slot": "0",
            "type": "t_address"
          },
          {
            "astId": 184,
            "contract": "contracts/TelegramPEPERace.sol:TelegramPEPERace",
            "label": "amount",
            "offset": 0,
            "slot": "1",
            "type": "t_uint256"
          }
        ],
        "numberOfBytes": "64"
      },
      "t_struct(Game)202_storage": {
        "encoding": "inplace",
        "label": "struct TelegramPEPERace.Game",
        "members": [
          {
            "astId": 187,
            "contract": "contracts/TelegramPEPERace.sol:TelegramPEPERace",
            "label": "raceLength",
            "offset": 0,
            "slot": "0",
            "type": "t_uint256"
          },
          {
            "astId": 189,
            "contract": "contracts/TelegramPEPERace.sol:TelegramPEPERace",
            "label": "minBet",
            "offset": 0,
            "slot": "1",
            "type": "t_uint256"
          },
          {
            "astId": 192,
            "contract": "contracts/TelegramPEPERace.sol:TelegramPEPERace",
            "label": "drawnCards",
            "offset": 0,
            "slot": "2",
            "type": "t_array(t_bytes32)dyn_storage"
          },
          {
            "astId": 199,
            "contract": "contracts/TelegramPEPERace.sol:TelegramPEPERace",
            "label": "betsOnSuits",
            "offset": 0,
            "slot": "3",
            "type": "t_mapping(t_enum(Suit)180,t_array(t_struct(BetInfo)185_storage)dyn_storage)"
          },
          {
            "astId": 201,
            "contract": "contracts/TelegramPEPERace.sol:TelegramPEPERace",
            "label": "inProgress",
            "offset": 0,
            "slot": "4",
            "type": "t_bool"
          }
        ],
        "numberOfBytes": "160"
      },
      "t_uint256": {
        "encoding": "inplace",
        "label": "uint256",
        "numberOfBytes": "32"
      }
    }
  }
}