{
  "address": "0x3B58116f657a24bDf5A37aa5ffe458d9A5D9A719",
  "abi": [
    {
      "inputs": [
        {
          "internalType": "address",
          "name": "_kazo",
          "type": "address"
        }
      ],
      "stateMutability": "nonpayable",
      "type": "constructor"
    },
    {
      "anonymous": false,
      "inputs": [
        {
          "indexed": true,
          "internalType": "address",
          "name": "previousOwner",
          "type": "address"
        },
        {
          "indexed": true,
          "internalType": "address",
          "name": "newOwner",
          "type": "address"
        }
      ],
      "name": "OwnershipTransferred",
      "type": "event"
    },
    {
      "anonymous": false,
      "inputs": [
        {
          "indexed": true,
          "internalType": "address",
          "name": "user",
          "type": "address"
        },
        {
          "indexed": true,
          "internalType": "uint256",
          "name": "nftId",
          "type": "uint256"
        },
        {
          "indexed": false,
          "internalType": "uint256",
          "name": "startTime",
          "type": "uint256"
        }
      ],
      "name": "StakedNFT",
      "type": "event"
    },
    {
      "anonymous": false,
      "inputs": [
        {
          "indexed": true,
          "internalType": "address",
          "name": "user",
          "type": "address"
        },
        {
          "indexed": true,
          "internalType": "uint256",
          "name": "nftId",
          "type": "uint256"
        },
        {
          "indexed": false,
          "internalType": "uint256",
          "name": "unstakeTime",
          "type": "uint256"
        }
      ],
      "name": "UnstakedNFT",
      "type": "event"
    },
    {
      "inputs": [
        {
          "internalType": "address",
          "name": "_user",
          "type": "address"
        }
      ],
      "name": "getStakedNFTCount",
      "outputs": [
        {
          "internalType": "uint256",
          "name": "",
          "type": "uint256"
        }
      ],
      "stateMutability": "view",
      "type": "function"
    },
    {
      "inputs": [
        {
          "internalType": "address",
          "name": "_user",
          "type": "address"
        }
      ],
      "name": "getStakedNFTs",
      "outputs": [
        {
          "internalType": "uint256[]",
          "name": "",
          "type": "uint256[]"
        }
      ],
      "stateMutability": "view",
      "type": "function"
    },
    {
      "inputs": [],
      "name": "kazo",
      "outputs": [
        {
          "internalType": "contract IERC721",
          "name": "",
          "type": "address"
        }
      ],
      "stateMutability": "view",
      "type": "function"
    },
    {
      "inputs": [
        {
          "internalType": "address",
          "name": "",
          "type": "address"
        },
        {
          "internalType": "address",
          "name": "",
          "type": "address"
        },
        {
          "internalType": "uint256",
          "name": "",
          "type": "uint256"
        },
        {
          "internalType": "bytes",
          "name": "",
          "type": "bytes"
        }
      ],
      "name": "onERC721Received",
      "outputs": [
        {
          "internalType": "bytes4",
          "name": "",
          "type": "bytes4"
        }
      ],
      "stateMutability": "pure",
      "type": "function"
    },
    {
      "inputs": [],
      "name": "owner",
      "outputs": [
        {
          "internalType": "address",
          "name": "",
          "type": "address"
        }
      ],
      "stateMutability": "view",
      "type": "function"
    },
    {
      "inputs": [],
      "name": "renounceOwnership",
      "outputs": [],
      "stateMutability": "nonpayable",
      "type": "function"
    },
    {
      "inputs": [
        {
          "internalType": "address",
          "name": "_nftAddress",
          "type": "address"
        }
      ],
      "name": "setStakingNFT",
      "outputs": [],
      "stateMutability": "nonpayable",
      "type": "function"
    },
    {
      "inputs": [
        {
          "internalType": "uint256[]",
          "name": "_nftIds",
          "type": "uint256[]"
        }
      ],
      "name": "stakeNFT",
      "outputs": [],
      "stateMutability": "nonpayable",
      "type": "function"
    },
    {
      "inputs": [
        {
          "internalType": "address",
          "name": "newOwner",
          "type": "address"
        }
      ],
      "name": "transferOwnership",
      "outputs": [],
      "stateMutability": "nonpayable",
      "type": "function"
    },
    {
      "inputs": [
        {
          "internalType": "uint256[]",
          "name": "_nftIds",
          "type": "uint256[]"
        }
      ],
      "name": "unstakeNFT",
      "outputs": [],
      "stateMutability": "nonpayable",
      "type": "function"
    }
  ],
  "transactionHash": "0x972160d191a3a58d64f114d32efb6017f4f9c4a409b855616c0fdbcb706e28c0",
  "args": [
    "0x671308A7069711B4e0a9B3886e68D986C05a49Bd"
  ],
  "numDeployments": 1,
  "solcInputHash": "4841704a9ab6cb0880ce00b517a60b85",
  "bytecode": "0x608060405234801561001057600080fd5b50604051610eaf380380610eaf83398101604081905261002f916100ad565b6100383361005d565b600280546001600160a01b0319166001600160a01b03929092169190911790556100dd565b600080546001600160a01b038381166001600160a01b0319831681178455604051919092169283917f8be0079c531659141344cd1fd0a4f28419497f9722a3daafe3b4186f6b6457e09190a35050565b6000602082840312156100bf57600080fd5b81516001600160a01b03811681146100d657600080fd5b9392505050565b610dc3806100ec6000396000f3fe608060405234801561001057600080fd5b50600436106100bd5760003560e01c806382efd1ec116100765780638da5cb5b1161005b5780638da5cb5b146101d8578063b390bd91146101f6578063f2fde38b1461021757600080fd5b806382efd1ec146101b25780638453734d146101c557600080fd5b8063182c5744116100a7578063182c5744146101755780636f70d2121461018a578063715018a6146101aa57600080fd5b80622804cc146100c2578063150b7a021461010c575b600080fd5b6002546100e29073ffffffffffffffffffffffffffffffffffffffff1681565b60405173ffffffffffffffffffffffffffffffffffffffff90911681526020015b60405180910390f35b61014461011a366004610b17565b7f150b7a020000000000000000000000000000000000000000000000000000000095945050505050565b6040517fffffffff000000000000000000000000000000000000000000000000000000009091168152602001610103565b610188610183366004610bb2565b61022a565b005b61019d610198366004610c27565b610411565b6040516101039190610c42565b610188610448565b6101886101c0366004610c27565b61045c565b6101886101d3366004610bb2565b6104ab565b60005473ffffffffffffffffffffffffffffffffffffffff166100e2565b610209610204366004610c27565b6106ba565b604051908152602001610103565b610188610225366004610c27565b6106e8565b80610296576040517f08c379a000000000000000000000000000000000000000000000000000000000815260206004820152601960248201527f4d757374207374616b65206174206c656173742031204e46540000000000000060448201526064015b60405180910390fd5b60005b8181101561040c576102d48383838181106102b6576102b6610c86565b3360009081526001602090815260409091209391020135905061079f565b5060025473ffffffffffffffffffffffffffffffffffffffff166342842e0e333086868681811061030757610307610c86565b6040517fffffffff0000000000000000000000000000000000000000000000000000000060e088901b16815273ffffffffffffffffffffffffffffffffffffffff958616600482015294909316602485015250602090910201356044820152606401600060405180830381600087803b15801561038357600080fd5b505af1158015610397573d6000803e3d6000fd5b505050508282828181106103ad576103ad610c86565b905060200201353373ffffffffffffffffffffffffffffffffffffffff167fd4832bcae9834661799ae29001c73a6d9915f2668ab97c975b2470c6d188a97f426040516103fc91815260200190565b60405180910390a3600101610299565b505050565b73ffffffffffffffffffffffffffffffffffffffff81166000908152600160205260409020606090610442906107b2565b92915050565b610450610852565b61045a60006108d3565b565b610464610852565b600280547fffffffffffffffffffffffff00000000000000000000000000000000000000001673ffffffffffffffffffffffffffffffffffffffff92909216919091179055565b60005b8181101561040c576104e98383838181106104cb576104cb610c86565b33600090815260016020908152604090912093910201359050610948565b61054f576040517f08c379a000000000000000000000000000000000000000000000000000000000815260206004820152601160248201527f4e4654206973206e6f74207374616b6564000000000000000000000000000000604482015260640161028d565b61058283838381811061056457610564610c86565b33600090815260016020908152604090912093910201359050610960565b5060025473ffffffffffffffffffffffffffffffffffffffff166342842e0e30338686868181106105b5576105b5610c86565b6040517fffffffff0000000000000000000000000000000000000000000000000000000060e088901b16815273ffffffffffffffffffffffffffffffffffffffff958616600482015294909316602485015250602090910201356044820152606401600060405180830381600087803b15801561063157600080fd5b505af1158015610645573d6000803e3d6000fd5b5050505082828281811061065b5761065b610c86565b905060200201353373ffffffffffffffffffffffffffffffffffffffff167f7675d67b1a43620fbbbdbe07ab3aa82cac67ccfc994ca205bd2a2fd9f0a59af3426040516106aa91815260200190565b60405180910390a36001016104ae565b73ffffffffffffffffffffffffffffffffffffffff811660009081526001602052604081206104429061096c565b6106f0610852565b73ffffffffffffffffffffffffffffffffffffffff8116610793576040517f08c379a000000000000000000000000000000000000000000000000000000000815260206004820152602660248201527f4f776e61626c653a206e6577206f776e657220697320746865207a65726f206160448201527f6464726573730000000000000000000000000000000000000000000000000000606482015260840161028d565b61079c816108d3565b50565b60006107ab8383610976565b9392505050565b606060006107bf8361096c565b905060008167ffffffffffffffff8111156107dc576107dc610cb5565b604051908082528060200260200182016040528015610805578160200160208202803683370190505b50905060005b8281101561084a5761081d85826109c5565b82828151811061082f5761082f610c86565b602090810291909101015261084381610d13565b905061080b565b509392505050565b60005473ffffffffffffffffffffffffffffffffffffffff16331461045a576040517f08c379a000000000000000000000000000000000000000000000000000000000815260206004820181905260248201527f4f776e61626c653a2063616c6c6572206973206e6f7420746865206f776e6572604482015260640161028d565b6000805473ffffffffffffffffffffffffffffffffffffffff8381167fffffffffffffffffffffffff0000000000000000000000000000000000000000831681178455604051919092169283917f8be0079c531659141344cd1fd0a4f28419497f9722a3daafe3b4186f6b6457e09190a35050565b600081815260018301602052604081205415156107ab565b60006107ab83836109d1565b6000610442825490565b60008181526001830160205260408120546109bd57508154600181810184556000848152602080822090930184905584548482528286019093526040902091909155610442565b506000610442565b60006107ab8383610ac4565b60008181526001830160205260408120548015610aba5760006109f5600183610d4b565b8554909150600090610a0990600190610d4b565b9050818114610a6e576000866000018281548110610a2957610a29610c86565b9060005260206000200154905080876000018481548110610a4c57610a4c610c86565b6000918252602080832090910192909255918252600188019052604090208390555b8554869080610a7f57610a7f610d5e565b600190038181906000526020600020016000905590558560010160008681526020019081526020016000206000905560019350505050610442565b6000915050610442565b6000826000018281548110610adb57610adb610c86565b9060005260206000200154905092915050565b803573ffffffffffffffffffffffffffffffffffffffff81168114610b1257600080fd5b919050565b600080600080600060808688031215610b2f57600080fd5b610b3886610aee565b9450610b4660208701610aee565b935060408601359250606086013567ffffffffffffffff80821115610b6a57600080fd5b818801915088601f830112610b7e57600080fd5b813581811115610b8d57600080fd5b896020828501011115610b9f57600080fd5b9699959850939650602001949392505050565b60008060208385031215610bc557600080fd5b823567ffffffffffffffff80821115610bdd57600080fd5b818501915085601f830112610bf157600080fd5b813581811115610c0057600080fd5b8660208260051b8501011115610c1557600080fd5b60209290920196919550909350505050565b600060208284031215610c3957600080fd5b6107ab82610aee565b6020808252825182820181905260009190848201906040850190845b81811015610c7a57835183529284019291840191600101610c5e565b50909695505050505050565b7f4e487b7100000000000000000000000000000000000000000000000000000000600052603260045260246000fd5b7f4e487b7100000000000000000000000000000000000000000000000000000000600052604160045260246000fd5b7f4e487b7100000000000000000000000000000000000000000000000000000000600052601160045260246000fd5b60007fffffffffffffffffffffffffffffffffffffffffffffffffffffffffffffffff8203610d4457610d44610ce4565b5060010190565b8181038181111561044257610442610ce4565b7f4e487b7100000000000000000000000000000000000000000000000000000000600052603160045260246000fdfea2646970667358221220313e8370479ebdd59d431f05524c5e9cc76a62f67f52d967bdcfaace3b70ade464736f6c63430008130033",
  "devdoc": {
    "kind": "dev",
    "methods": {
      "getStakedNFTCount(address)": {
        "params": {
          "_user": "The address of the user"
        },
        "returns": {
          "_0": "The number of staked NFTs"
        }
      },
      "getStakedNFTs(address)": {
        "params": {
          "_user": "The address of the user"
        },
        "returns": {
          "_0": "The IDs of the NFTs"
        }
      },
      "owner()": {
        "details": "Returns the address of the current owner."
      },
      "renounceOwnership()": {
        "details": "Leaves the contract without owner. It will not be possible to call `onlyOwner` functions. Can only be called by the current owner. NOTE: Renouncing ownership will leave the contract without an owner, thereby disabling any functionality that is only available to the owner."
      },
      "setStakingNFT(address)": {
        "details": "Set the NFT contract address",
        "params": {
          "_nftAddress": "The address of the NFT contract"
        }
      },
      "stakeNFT(uint256[])": {
        "params": {
          "_nftIds": "The IDs of the NFTs"
        }
      },
      "transferOwnership(address)": {
        "details": "Transfers ownership of the contract to a new account (`newOwner`). Can only be called by the current owner."
      },
      "unstakeNFT(uint256[])": {
        "params": {
          "_nftIds": "The IDs of the NFTs"
        }
      }
    },
    "title": "KazoStaking contract",
    "version": 1
  },
  "userdoc": {
    "events": {
      "StakedNFT(address,uint256,uint256)": {
        "notice": "Event emitted when an NFT is staked"
      },
      "UnstakedNFT(address,uint256,uint256)": {
        "notice": "Event emitted when an NFT is unstaked"
      }
    },
    "kind": "user",
    "methods": {
      "getStakedNFTCount(address)": {
        "notice": "Get staked NFT count of a user"
      },
      "getStakedNFTs(address)": {
        "notice": "Get staked NFTs of a user"
      },
      "stakeNFT(uint256[])": {
        "notice": "Stake NFTs"
      },
      "unstakeNFT(uint256[])": {
        "notice": "Unstake NFTs"
      }
    },
    "version": 1
  },
  "storageLayout": {
    "storage": [
      {
        "astId": 7,
        "contract": "contracts/KazoStaking.sol:KazoStaking",
        "label": "_owner",
        "offset": 0,
        "slot": "0",
        "type": "t_address"
      },
      {
        "astId": 919,
        "contract": "contracts/KazoStaking.sol:KazoStaking",
        "label": "userStakedNFTs",
        "offset": 0,
        "slot": "1",
        "type": "t_mapping(t_address,t_struct(UintSet)763_storage)"
      },
      {
        "astId": 940,
        "contract": "contracts/KazoStaking.sol:KazoStaking",
        "label": "kazo",
        "offset": 0,
        "slot": "2",
        "type": "t_contract(IERC721)228"
      }
    ],
    "types": {
      "t_address": {
        "encoding": "inplace",
        "label": "address",
        "numberOfBytes": "20"
      },
      "t_array(t_bytes32)dyn_storage": {
        "base": "t_bytes32",
        "encoding": "dynamic_array",
        "label": "bytes32[]",
        "numberOfBytes": "32"
      },
      "t_bytes32": {
        "encoding": "inplace",
        "label": "bytes32",
        "numberOfBytes": "32"
      },
      "t_contract(IERC721)228": {
        "encoding": "inplace",
        "label": "contract IERC721",
        "numberOfBytes": "20"
      },
      "t_mapping(t_address,t_struct(UintSet)763_storage)": {
        "encoding": "mapping",
        "key": "t_address",
        "label": "mapping(address => struct EnumerableSet.UintSet)",
        "numberOfBytes": "32",
        "value": "t_struct(UintSet)763_storage"
      },
      "t_mapping(t_bytes32,t_uint256)": {
        "encoding": "mapping",
        "key": "t_bytes32",
        "label": "mapping(bytes32 => uint256)",
        "numberOfBytes": "32",
        "value": "t_uint256"
      },
      "t_struct(Set)291_storage": {
        "encoding": "inplace",
        "label": "struct EnumerableSet.Set",
        "members": [
          {
            "astId": 286,
            "contract": "contracts/KazoStaking.sol:KazoStaking",
            "label": "_values",
            "offset": 0,
            "slot": "0",
            "type": "t_array(t_bytes32)dyn_storage"
          },
          {
            "astId": 290,
            "contract": "contracts/KazoStaking.sol:KazoStaking",
            "label": "_indexes",
            "offset": 0,
            "slot": "1",
            "type": "t_mapping(t_bytes32,t_uint256)"
          }
        ],
        "numberOfBytes": "64"
      },
      "t_struct(UintSet)763_storage": {
        "encoding": "inplace",
        "label": "struct EnumerableSet.UintSet",
        "members": [
          {
            "astId": 762,
            "contract": "contracts/KazoStaking.sol:KazoStaking",
            "label": "_inner",
            "offset": 0,
            "slot": "0",
            "type": "t_struct(Set)291_storage"
          }
        ],
        "numberOfBytes": "64"
      },
      "t_uint256": {
        "encoding": "inplace",
        "label": "uint256",
        "numberOfBytes": "32"
      }
    }
  }
}