{
  "address": "0x41150f92EA2ca3D8B5DfA153B88F859ba95Ac992",
  "abi": [
    {
      "inputs": [
        {
          "internalType": "string",
          "name": "_name",
          "type": "string"
        },
        {
          "internalType": "string",
          "name": "_symbol",
          "type": "string"
        },
        {
          "internalType": "uint256",
          "name": "_cost",
          "type": "uint256"
        },
        {
          "internalType": "uint256",
          "name": "_freeMint",
          "type": "uint256"
        },
        {
          "internalType": "address",
          "name": "_withdrawAddress",
          "type": "address"
        }
      ],
      "stateMutability": "nonpayable",
      "type": "constructor"
    },
    {
      "inputs": [],
      "name": "ApprovalCallerNotOwnerNorApproved",
      "type": "error"
    },
    {
      "inputs": [],
      "name": "ApprovalQueryForNonexistentToken",
      "type": "error"
    },
    {
      "inputs": [],
      "name": "BalanceQueryForZeroAddress",
      "type": "error"
    },
    {
      "inputs": [],
      "name": "MintERC2309QuantityExceedsLimit",
      "type": "error"
    },
    {
      "inputs": [],
      "name": "MintToZeroAddress",
      "type": "error"
    },
    {
      "inputs": [],
      "name": "MintZeroQuantity",
      "type": "error"
    },
    {
      "inputs": [],
      "name": "OwnerQueryForNonexistentToken",
      "type": "error"
    },
    {
      "inputs": [],
      "name": "OwnershipNotInitializedForExtraData",
      "type": "error"
    },
    {
      "inputs": [],
      "name": "TransferCallerNotOwnerNorApproved",
      "type": "error"
    },
    {
      "inputs": [],
      "name": "TransferFromIncorrectOwner",
      "type": "error"
    },
    {
      "inputs": [],
      "name": "TransferToNonERC721ReceiverImplementer",
      "type": "error"
    },
    {
      "inputs": [],
      "name": "TransferToZeroAddress",
      "type": "error"
    },
    {
      "inputs": [],
      "name": "URIQueryForNonexistentToken",
      "type": "error"
    },
    {
      "inputs": [],
      "name": "WithdrawFailed",
      "type": "error"
    },
    {
      "anonymous": false,
      "inputs": [
        {
          "indexed": true,
          "internalType": "address",
          "name": "owner",
          "type": "address"
        },
        {
          "indexed": true,
          "internalType": "address",
          "name": "approved",
          "type": "address"
        },
        {
          "indexed": true,
          "internalType": "uint256",
          "name": "tokenId",
          "type": "uint256"
        }
      ],
      "name": "Approval",
      "type": "event"
    },
    {
      "anonymous": false,
      "inputs": [
        {
          "indexed": true,
          "internalType": "address",
          "name": "owner",
          "type": "address"
        },
        {
          "indexed": true,
          "internalType": "address",
          "name": "operator",
          "type": "address"
        },
        {
          "indexed": false,
          "internalType": "bool",
          "name": "approved",
          "type": "bool"
        }
      ],
      "name": "ApprovalForAll",
      "type": "event"
    },
    {
      "anonymous": false,
      "inputs": [
        {
          "indexed": true,
          "internalType": "uint256",
          "name": "fromTokenId",
          "type": "uint256"
        },
        {
          "indexed": false,
          "internalType": "uint256",
          "name": "toTokenId",
          "type": "uint256"
        },
        {
          "indexed": true,
          "internalType": "address",
          "name": "from",
          "type": "address"
        },
        {
          "indexed": true,
          "internalType": "address",
          "name": "to",
          "type": "address"
        }
      ],
      "name": "ConsecutiveTransfer",
      "type": "event"
    },
    {
      "anonymous": false,
      "inputs": [
        {
          "indexed": true,
          "internalType": "address",
          "name": "previousOwner",
          "type": "address"
        },
        {
          "indexed": true,
          "internalType": "address",
          "name": "newOwner",
          "type": "address"
        }
      ],
      "name": "OwnershipTransferred",
      "type": "event"
    },
    {
      "anonymous": false,
      "inputs": [
        {
          "indexed": true,
          "internalType": "address",
          "name": "from",
          "type": "address"
        },
        {
          "indexed": true,
          "internalType": "address",
          "name": "to",
          "type": "address"
        },
        {
          "indexed": true,
          "internalType": "uint256",
          "name": "tokenId",
          "type": "uint256"
        }
      ],
      "name": "Transfer",
      "type": "event"
    },
    {
      "inputs": [],
      "name": "COST",
      "outputs": [
        {
          "internalType": "uint256",
          "name": "",
          "type": "uint256"
        }
      ],
      "stateMutability": "view",
      "type": "function"
    },
    {
      "inputs": [],
      "name": "MAX_FREE_MINT_PER_WALLET",
      "outputs": [
        {
          "internalType": "uint256",
          "name": "",
          "type": "uint256"
        }
      ],
      "stateMutability": "view",
      "type": "function"
    },
    {
      "inputs": [],
      "name": "WITHDRAW_ADDRESS",
      "outputs": [
        {
          "internalType": "address",
          "name": "",
          "type": "address"
        }
      ],
      "stateMutability": "view",
      "type": "function"
    },
    {
      "inputs": [
        {
          "internalType": "address",
          "name": "to",
          "type": "address"
        },
        {
          "internalType": "uint256",
          "name": "tokenId",
          "type": "uint256"
        }
      ],
      "name": "approve",
      "outputs": [],
      "stateMutability": "payable",
      "type": "function"
    },
    {
      "inputs": [
        {
          "internalType": "address",
          "name": "owner",
          "type": "address"
        }
      ],
      "name": "balanceOf",
      "outputs": [
        {
          "internalType": "uint256",
          "name": "",
          "type": "uint256"
        }
      ],
      "stateMutability": "view",
      "type": "function"
    },
    {
      "inputs": [],
      "name": "freeMint",
      "outputs": [],
      "stateMutability": "nonpayable",
      "type": "function"
    },
    {
      "inputs": [
        {
          "internalType": "uint256",
          "name": "tokenId",
          "type": "uint256"
        }
      ],
      "name": "getApproved",
      "outputs": [
        {
          "internalType": "address",
          "name": "",
          "type": "address"
        }
      ],
      "stateMutability": "view",
      "type": "function"
    },
    {
      "inputs": [
        {
          "internalType": "address",
          "name": "owner",
          "type": "address"
        },
        {
          "internalType": "address",
          "name": "operator",
          "type": "address"
        }
      ],
      "name": "isApprovedForAll",
      "outputs": [
        {
          "internalType": "bool",
          "name": "",
          "type": "bool"
        }
      ],
      "stateMutability": "view",
      "type": "function"
    },
    {
      "inputs": [
        {
          "internalType": "uint256",
          "name": "tokenId",
          "type": "uint256"
        }
      ],
      "name": "isRed",
      "outputs": [
        {
          "internalType": "bool",
          "name": "isRed",
          "type": "bool"
        }
      ],
      "stateMutability": "view",
      "type": "function"
    },
    {
      "inputs": [
        {
          "internalType": "uint256",
          "name": "quantity",
          "type": "uint256"
        }
      ],
      "name": "mint",
      "outputs": [],
      "stateMutability": "payable",
      "type": "function"
    },
    {
      "inputs": [],
      "name": "mintEnded",
      "outputs": [
        {
          "internalType": "bool",
          "name": "",
          "type": "bool"
        }
      ],
      "stateMutability": "view",
      "type": "function"
    },
    {
      "inputs": [
        {
          "internalType": "bool",
          "name": "_status",
          "type": "bool"
        }
      ],
      "name": "modifyMint",
      "outputs": [],
      "stateMutability": "nonpayable",
      "type": "function"
    },
    {
      "inputs": [],
      "name": "name",
      "outputs": [
        {
          "internalType": "string",
          "name": "",
          "type": "string"
        }
      ],
      "stateMutability": "view",
      "type": "function"
    },
    {
      "inputs": [],
      "name": "owner",
      "outputs": [
        {
          "internalType": "address",
          "name": "",
          "type": "address"
        }
      ],
      "stateMutability": "view",
      "type": "function"
    },
    {
      "inputs": [
        {
          "internalType": "uint256",
          "name": "tokenId",
          "type": "uint256"
        }
      ],
      "name": "ownerOf",
      "outputs": [
        {
          "internalType": "address",
          "name": "",
          "type": "address"
        }
      ],
      "stateMutability": "view",
      "type": "function"
    },
    {
      "inputs": [],
      "name": "renounceOwnership",
      "outputs": [],
      "stateMutability": "nonpayable",
      "type": "function"
    },
    {
      "inputs": [
        {
          "internalType": "address",
          "name": "from",
          "type": "address"
        },
        {
          "internalType": "address",
          "name": "to",
          "type": "address"
        },
        {
          "internalType": "uint256",
          "name": "tokenId",
          "type": "uint256"
        }
      ],
      "name": "safeTransferFrom",
      "outputs": [],
      "stateMutability": "payable",
      "type": "function"
    },
    {
      "inputs": [
        {
          "internalType": "address",
          "name": "from",
          "type": "address"
        },
        {
          "internalType": "address",
          "name": "to",
          "type": "address"
        },
        {
          "internalType": "uint256",
          "name": "tokenId",
          "type": "uint256"
        },
        {
          "internalType": "bytes",
          "name": "_data",
          "type": "bytes"
        }
      ],
      "name": "safeTransferFrom",
      "outputs": [],
      "stateMutability": "payable",
      "type": "function"
    },
    {
      "inputs": [
        {
          "internalType": "address",
          "name": "operator",
          "type": "address"
        },
        {
          "internalType": "bool",
          "name": "approved",
          "type": "bool"
        }
      ],
      "name": "setApprovalForAll",
      "outputs": [],
      "stateMutability": "nonpayable",
      "type": "function"
    },
    {
      "inputs": [
        {
          "internalType": "bytes4",
          "name": "interfaceId",
          "type": "bytes4"
        }
      ],
      "name": "supportsInterface",
      "outputs": [
        {
          "internalType": "bool",
          "name": "",
          "type": "bool"
        }
      ],
      "stateMutability": "view",
      "type": "function"
    },
    {
      "inputs": [],
      "name": "symbol",
      "outputs": [
        {
          "internalType": "string",
          "name": "",
          "type": "string"
        }
      ],
      "stateMutability": "view",
      "type": "function"
    },
    {
      "inputs": [
        {
          "internalType": "uint256",
          "name": "tokenId",
          "type": "uint256"
        }
      ],
      "name": "tokenURI",
      "outputs": [
        {
          "internalType": "string",
          "name": "",
          "type": "string"
        }
      ],
      "stateMutability": "view",
      "type": "function"
    },
    {
      "inputs": [],
      "name": "totalSupply",
      "outputs": [
        {
          "internalType": "uint256",
          "name": "",
          "type": "uint256"
        }
      ],
      "stateMutability": "view",
      "type": "function"
    },
    {
      "inputs": [
        {
          "internalType": "address",
          "name": "from",
          "type": "address"
        },
        {
          "internalType": "address",
          "name": "to",
          "type": "address"
        },
        {
          "internalType": "uint256",
          "name": "tokenId",
          "type": "uint256"
        }
      ],
      "name": "transferFrom",
      "outputs": [],
      "stateMutability": "payable",
      "type": "function"
    },
    {
      "inputs": [
        {
          "internalType": "address",
          "name": "newOwner",
          "type": "address"
        }
      ],
      "name": "transferOwnership",
      "outputs": [],
      "stateMutability": "nonpayable",
      "type": "function"
    },
    {
      "inputs": [],
      "name": "withdraw",
      "outputs": [],
      "stateMutability": "nonpayable",
      "type": "function"
    }
  ],
  "transactionHash": "0xd913fdef52991169cefb84c269029296f2e840f2181847ee5160d392fa42415e",
  "args": [
    "Test",
    "TESTSYMBOL",
    "50000000000000",
    1,
    "0x6A8f07700CaF7d76BA3Ef4E8C8d0674894587877"
  ],
  "numDeployments": 3,
  "solcInputHash": "5691805edae8f8b4124fa9375d1e2a9a",
  "bytecode": "0x60e0604052600a805460ff191690553480156200001b57600080fd5b5060405162001986380380620019868339810160408190526200003e91620001a5565b848460026200004e8382620002d6565b5060036200005d8282620002d6565b505060016000555062000070336200008e565b60809290925260a0526001600160a01b031660c05250620003a29050565b600880546001600160a01b038381166001600160a01b0319831681179093556040519116919082907f8be0079c531659141344cd1fd0a4f28419497f9722a3daafe3b4186f6b6457e090600090a35050565b634e487b7160e01b600052604160045260246000fd5b600082601f8301126200010857600080fd5b81516001600160401b0380821115620001255762000125620000e0565b604051601f8301601f19908116603f01168101908282118183101715620001505762000150620000e0565b816040528381526020925086838588010111156200016d57600080fd5b600091505b8382101562000191578582018301518183018401529082019062000172565b600093810190920192909252949350505050565b600080600080600060a08688031215620001be57600080fd5b85516001600160401b0380821115620001d657600080fd5b620001e489838a01620000f6565b96506020880151915080821115620001fb57600080fd5b506200020a88828901620000f6565b6040880151606089015160808a0151929750909550935090506001600160a01b03811681146200023957600080fd5b809150509295509295909350565b600181811c908216806200025c57607f821691505b6020821081036200027d57634e487b7160e01b600052602260045260246000fd5b50919050565b601f821115620002d157600081815260208120601f850160051c81016020861015620002ac5750805b601f850160051c820191505b81811015620002cd57828155600101620002b8565b5050505b505050565b81516001600160401b03811115620002f257620002f2620000e0565b6200030a8162000303845462000247565b8462000283565b602080601f831160018114620003425760008415620003295750858301515b600019600386901b1c1916600185901b178555620002cd565b600085815260208120601f198616915b82811015620003735788860151825594840194600190910190840162000352565b5085821015620003925787850151600019600388901b60f8161c191681555b5050505050600190811b01905550565b60805160a05160c051611598620003ee60003960008181610256015261084e0152600081816103dc0152818161095a01526109d50152600081816104530152610ad701526115986000f3fe6080604052600436106101815760003560e01c8063715018a6116100d1578063a6eb27e21161008a578063bf8fbbd211610064578063bf8fbbd214610441578063c87b56dd14610475578063e985e9c514610495578063f2fde38b146104b557600080fd5b8063a6eb27e2146103ca578063ab561c16146103fe578063b88d4fde1461042e57600080fd5b8063715018a61461032f5780637ed80d86146103445780638da5cb5b1461036457806395d89b4114610382578063a0712d6814610397578063a22cb465146103aa57600080fd5b806318160ddd1161013e57806342842e0e1161011857806342842e0e146102c75780635b70ea9f146102da5780636352211e146102ef57806370a082311461030f57600080fd5b806318160ddd1461027857806323b872dd1461029f5780633ccfd60b146102b257600080fd5b806301ffc9a714610186578063021313cf146101bb57806306fdde03146101d5578063081812fc146101f7578063095ea7b31461022f578063122e04a814610244575b600080fd5b34801561019257600080fd5b506101a66101a1366004611116565b6104d5565b60405190151581526020015b60405180910390f35b3480156101c757600080fd5b50600a546101a69060ff1681565b3480156101e157600080fd5b506101ea610527565b6040516101b29190611179565b34801561020357600080fd5b5061021761021236600461118c565b6105b9565b6040516001600160a01b0390911681526020016101b2565b61024261023d3660046111c1565b6105fd565b005b34801561025057600080fd5b506102177f000000000000000000000000000000000000000000000000000000000000000081565b34801561028457600080fd5b5060015460005403600019015b6040519081526020016101b2565b6102426102ad3660046111eb565b61069d565b3480156102be57600080fd5b50610242610842565b6102426102d53660046111eb565b6108e1565b3480156102e657600080fd5b50610242610901565b3480156102fb57600080fd5b5061021761030a36600461118c565b6109f9565b34801561031b57600080fd5b5061029161032a366004611227565b610a04565b34801561033b57600080fd5b50610242610a53565b34801561035057600080fd5b5061024261035f366004611252565b610a67565b34801561037057600080fd5b506008546001600160a01b0316610217565b34801561038e57600080fd5b506101ea610a82565b6102426103a536600461118c565b610a91565b3480156103b657600080fd5b506102426103c536600461126d565b610b45565b3480156103d657600080fd5b506102917f000000000000000000000000000000000000000000000000000000000000000081565b34801561040a57600080fd5b506101a661041936600461118c565b600b6020526000908152604090205460ff1681565b61024261043c3660046112b6565b610bb1565b34801561044d57600080fd5b506102917f000000000000000000000000000000000000000000000000000000000000000081565b34801561048157600080fd5b506101ea61049036600461118c565b610bfb565b3480156104a157600080fd5b506101a66104b0366004611392565b610c78565b3480156104c157600080fd5b506102426104d0366004611227565b610ca6565b60006301ffc9a760e01b6001600160e01b03198316148061050657506380ac58cd60e01b6001600160e01b03198316145b806105215750635b5e139f60e01b6001600160e01b03198316145b92915050565b606060028054610536906113bc565b80601f0160208091040260200160405190810160405280929190818152602001828054610562906113bc565b80156105af5780601f10610584576101008083540402835291602001916105af565b820191906000526020600020905b81548152906001019060200180831161059257829003601f168201915b5050505050905090565b60006105c482610d1c565b6105e1576040516333d1c03960e21b815260040160405180910390fd5b506000908152600660205260409020546001600160a01b031690565b6000610608826109f9565b9050336001600160a01b03821614610641576106248133610c78565b610641576040516367d9dca160e11b815260040160405180910390fd5b60008281526006602052604080822080546001600160a01b0319166001600160a01b0387811691821790925591518593918516917f8c5be1e5ebec7d5bd14f71427d1e84f3dd0314c0f7b2291e5b200ac8c7c3b92591a4505050565b60006106a882610d51565b9050836001600160a01b0316816001600160a01b0316146106db5760405162a1148160e81b815260040160405180910390fd5b60008281526006602052604090208054338082146001600160a01b038816909114176107285761070b8633610c78565b61072857604051632ce44b5f60e11b815260040160405180910390fd5b6001600160a01b03851661074f57604051633a954ecd60e21b815260040160405180910390fd5b61075c8686866001610dc7565b801561076757600082555b6001600160a01b038681166000908152600560205260408082208054600019019055918716808252919020805460010190554260a01b17600160e11b17600085815260046020526040812091909155600160e11b841690036107f9576001840160008181526004602052604081205490036107f75760005481146107f75760008181526004602052604090208490555b505b83856001600160a01b0316876001600160a01b03167fddf252ad1be2c89b69c2b068fc378daa952ba7f163c4a11628f55a4df523b3ef60405160405180910390a4505050505050565b61084a610e5e565b60007f00000000000000000000000000000000000000000000000000000000000000006001600160a01b03164760405160006040518083038185875af1925050503d80600081146108b7576040519150601f19603f3d011682016040523d82523d6000602084013e6108bc565b606091505b50509050806108de57604051631d42c86760e21b815260040160405180910390fd5b50565b6108fc83838360405180602001604052806000815250610bb1565b505050565b600a5460ff16156109465760405162461bcd60e51b815260206004820152600a602482015269135a5b9d08195b99195960b21b60448201526064015b60405180910390fd5b3360009081526005602052604090819020547f0000000000000000000000000000000000000000000000000000000000000000918291610991911c67ffffffffffffffff168261140c565b11156109cf5760405162461bcd60e51b815260206004820152600d60248201526c13585e08119c995948135a5b9d609a1b604482015260640161093d565b6108de337f0000000000000000000000000000000000000000000000000000000000000000610eb8565b600061052182610d51565b60006001600160a01b038216610a2d576040516323d3ad8160e21b815260040160405180910390fd5b506001600160a01b031660009081526005602052604090205467ffffffffffffffff1690565b610a5b610e5e565b610a656000610fc3565b565b610a6f610e5e565b600a805460ff1916911515919091179055565b606060038054610536906113bc565b600a5460ff1615610ad15760405162461bcd60e51b815260206004820152600a602482015269135a5b9d08195b99195960b21b604482015260640161093d565b34610afc7f00000000000000000000000000000000000000000000000000000000000000008361141f565b1115610b3b5760405162461bcd60e51b815260206004820152600e60248201526d09cdee840cadcdeeaced0408aa8960931b604482015260640161093d565b6108de3382610eb8565b3360008181526007602090815260408083206001600160a01b03871680855290835292819020805460ff191686151590811790915590519081529192917f17307eab39ab6107e8899845ad3d59bd9653f200f220920489ca2b5937696c31910160405180910390a35050565b610bbc84848461069d565b6001600160a01b0383163b15610bf557610bd884848484611015565b610bf5576040516368d2bf6b60e11b815260040160405180910390fd5b50505050565b6060610c0682610d1c565b610c2357604051630a14c4b560e41b815260040160405180910390fd5b6000828152600b602052604090205460ff1615610c59576040518060800160405280604b81526020016114cc604b913992915050565b6040518060800160405280604c8152602001611517604c913992915050565b6001600160a01b03918216600090815260076020908152604080832093909416825291909152205460ff1690565b610cae610e5e565b6001600160a01b038116610d135760405162461bcd60e51b815260206004820152602660248201527f4f776e61626c653a206e6577206f776e657220697320746865207a65726f206160448201526564647265737360d01b606482015260840161093d565b6108de81610fc3565b600081600111158015610d30575060005482105b8015610521575050600090815260046020526040902054600160e01b161590565b60008180600111610dae57600054811015610dae5760008181526004602052604081205490600160e01b82169003610dac575b80600003610da5575060001901600081815260046020526040902054610d84565b9392505050565b505b604051636f96cda160e11b815260040160405180910390fd5b60005b81811015610e57576000610dde828561140c565b604080514260208201524491810191909152606081018290529091506002906080016040516020818303038152906040528051906020012060001c610e239190611436565b600003610e44576000818152600b60205260409020805460ff191660011790555b5080610e4f81611458565b915050610dca565b5050505050565b6008546001600160a01b03163314610a655760405162461bcd60e51b815260206004820181905260248201527f4f776e61626c653a2063616c6c6572206973206e6f7420746865206f776e6572604482015260640161093d565b6000805490829003610edd5760405163b562e8dd60e01b815260040160405180910390fd5b610eea6000848385610dc7565b6001600160a01b03831660008181526005602090815260408083208054680100000000000000018802019055848352600490915281206001851460e11b4260a01b178317905582840190839083907fddf252ad1be2c89b69c2b068fc378daa952ba7f163c4a11628f55a4df523b3ef8180a4600183015b818114610f9957808360007fddf252ad1be2c89b69c2b068fc378daa952ba7f163c4a11628f55a4df523b3ef600080a4600101610f61565b5081600003610fba57604051622e076360e81b815260040160405180910390fd5b60005550505050565b600880546001600160a01b038381166001600160a01b0319831681179093556040519116919082907f8be0079c531659141344cd1fd0a4f28419497f9722a3daafe3b4186f6b6457e090600090a35050565b604051630a85bd0160e11b81526000906001600160a01b0385169063150b7a029061104a903390899088908890600401611471565b6020604051808303816000875af1925050508015611085575060408051601f3d908101601f19168201909252611082918101906114ae565b60015b6110e3573d8080156110b3576040519150601f19603f3d011682016040523d82523d6000602084013e6110b8565b606091505b5080516000036110db576040516368d2bf6b60e11b815260040160405180910390fd5b805181602001fd5b6001600160e01b031916630a85bd0160e11b149050949350505050565b6001600160e01b0319811681146108de57600080fd5b60006020828403121561112857600080fd5b8135610da581611100565b6000815180845260005b818110156111595760208185018101518683018201520161113d565b506000602082860101526020601f19601f83011685010191505092915050565b602081526000610da56020830184611133565b60006020828403121561119e57600080fd5b5035919050565b80356001600160a01b03811681146111bc57600080fd5b919050565b600080604083850312156111d457600080fd5b6111dd836111a5565b946020939093013593505050565b60008060006060848603121561120057600080fd5b611209846111a5565b9250611217602085016111a5565b9150604084013590509250925092565b60006020828403121561123957600080fd5b610da5826111a5565b803580151581146111bc57600080fd5b60006020828403121561126457600080fd5b610da582611242565b6000806040838503121561128057600080fd5b611289836111a5565b915061129760208401611242565b90509250929050565b634e487b7160e01b600052604160045260246000fd5b600080600080608085870312156112cc57600080fd5b6112d5856111a5565b93506112e3602086016111a5565b925060408501359150606085013567ffffffffffffffff8082111561130757600080fd5b818701915087601f83011261131b57600080fd5b81358181111561132d5761132d6112a0565b604051601f8201601f19908116603f01168101908382118183101715611355576113556112a0565b816040528281528a602084870101111561136e57600080fd5b82602086016020830137600060208483010152809550505050505092959194509250565b600080604083850312156113a557600080fd5b6113ae836111a5565b9150611297602084016111a5565b600181811c908216806113d057607f821691505b6020821081036113f057634e487b7160e01b600052602260045260246000fd5b50919050565b634e487b7160e01b600052601160045260246000fd5b80820180821115610521576105216113f6565b8082028115828204841417610521576105216113f6565b60008261145357634e487b7160e01b600052601260045260246000fd5b500690565b60006001820161146a5761146a6113f6565b5060010190565b6001600160a01b03858116825284166020820152604081018390526080606082018190526000906114a490830184611133565b9695505050505050565b6000602082840312156114c057600080fd5b8151610da58161110056fe697066733a2f2f626166796265696668347a74343572796a637a6876666f68776e636c68793634373571746561337a6265726d6e70766c656d7266376a78686a68652f7265642e6a736f6e697066733a2f2f626166796265696668347a74343572796a637a6876666f68776e636c68793634373571746561337a6265726d6e70766c656d7266376a78686a68652f626c75652e6a736f6ea2646970667358221220250b5633e32500514d7ece65d53bcf03b7eca25c01aa71f89e06e6804ac6192f64736f6c63430008130033",
  "devdoc": {
    "events": {
      "Approval(address,address,uint256)": {
        "details": "Emitted when `owner` enables `approved` to manage the `tokenId` token."
      },
      "ApprovalForAll(address,address,bool)": {
        "details": "Emitted when `owner` enables or disables (`approved`) `operator` to manage all of its assets."
      },
      "ConsecutiveTransfer(uint256,uint256,address,address)": {
        "details": "Emitted when tokens in `fromTokenId` to `toTokenId` (inclusive) is transferred from `from` to `to`, as defined in the [ERC2309](https://eips.ethereum.org/EIPS/eip-2309) standard. See {_mintERC2309} for more details."
      },
      "Transfer(address,address,uint256)": {
        "details": "Emitted when `tokenId` token is transferred from `from` to `to`."
      }
    },
    "kind": "dev",
    "methods": {
      "approve(address,uint256)": {
        "details": "Gives permission to `to` to transfer `tokenId` token to another account. The approval is cleared when the token is transferred. Only a single account can be approved at a time, so approving the zero address clears previous approvals. Requirements: - The caller must own the token or be an approved operator. - `tokenId` must exist. Emits an {Approval} event."
      },
      "balanceOf(address)": {
        "details": "Returns the number of tokens in `owner`'s account."
      },
      "getApproved(uint256)": {
        "details": "Returns the account approved for `tokenId` token. Requirements: - `tokenId` must exist."
      },
      "isApprovedForAll(address,address)": {
        "details": "Returns if the `operator` is allowed to manage all of the assets of `owner`. See {setApprovalForAll}."
      },
      "name()": {
        "details": "Returns the token collection name."
      },
      "owner()": {
        "details": "Returns the address of the current owner."
      },
      "ownerOf(uint256)": {
        "details": "Returns the owner of the `tokenId` token. Requirements: - `tokenId` must exist."
      },
      "renounceOwnership()": {
        "details": "Leaves the contract without owner. It will not be possible to call `onlyOwner` functions. Can only be called by the current owner. NOTE: Renouncing ownership will leave the contract without an owner, thereby disabling any functionality that is only available to the owner."
      },
      "safeTransferFrom(address,address,uint256)": {
        "details": "Equivalent to `safeTransferFrom(from, to, tokenId, '')`."
      },
      "safeTransferFrom(address,address,uint256,bytes)": {
        "details": "Safely transfers `tokenId` token from `from` to `to`. Requirements: - `from` cannot be the zero address. - `to` cannot be the zero address. - `tokenId` token must exist and be owned by `from`. - If the caller is not `from`, it must be approved to move this token by either {approve} or {setApprovalForAll}. - If `to` refers to a smart contract, it must implement {IERC721Receiver-onERC721Received}, which is called upon a safe transfer. Emits a {Transfer} event."
      },
      "setApprovalForAll(address,bool)": {
        "details": "Approve or remove `operator` as an operator for the caller. Operators can call {transferFrom} or {safeTransferFrom} for any token owned by the caller. Requirements: - The `operator` cannot be the caller. Emits an {ApprovalForAll} event."
      },
      "supportsInterface(bytes4)": {
        "details": "Returns true if this contract implements the interface defined by `interfaceId`. See the corresponding [EIP section](https://eips.ethereum.org/EIPS/eip-165#how-interfaces-are-identified) to learn more about how these ids are created. This function call must use less than 30000 gas."
      },
      "symbol()": {
        "details": "Returns the token collection symbol."
      },
      "tokenURI(uint256)": {
        "details": "Returns the Uniform Resource Identifier (URI) for `tokenId` token."
      },
      "totalSupply()": {
        "details": "Returns the total number of tokens in existence. Burned tokens will reduce the count. To get the total number of tokens minted, please see {_totalMinted}."
      },
      "transferFrom(address,address,uint256)": {
        "details": "Transfers `tokenId` from `from` to `to`. Requirements: - `from` cannot be the zero address. - `to` cannot be the zero address. - `tokenId` token must be owned by `from`. - If the caller is not `from`, it must be approved to move this token by either {approve} or {setApprovalForAll}. Emits a {Transfer} event."
      },
      "transferOwnership(address)": {
        "details": "Transfers ownership of the contract to a new account (`newOwner`). Can only be called by the current owner."
      }
    },
    "version": 1
  },
  "userdoc": {
    "errors": {
      "ApprovalCallerNotOwnerNorApproved()": [
        {
          "notice": "The caller must own the token or be an approved operator."
        }
      ],
      "ApprovalQueryForNonexistentToken()": [
        {
          "notice": "The token does not exist."
        }
      ],
      "BalanceQueryForZeroAddress()": [
        {
          "notice": "Cannot query the balance for the zero address."
        }
      ],
      "MintERC2309QuantityExceedsLimit()": [
        {
          "notice": "The `quantity` minted with ERC2309 exceeds the safety limit."
        }
      ],
      "MintToZeroAddress()": [
        {
          "notice": "Cannot mint to the zero address."
        }
      ],
      "MintZeroQuantity()": [
        {
          "notice": "The quantity of tokens minted must be more than zero."
        }
      ],
      "OwnerQueryForNonexistentToken()": [
        {
          "notice": "The token does not exist."
        }
      ],
      "OwnershipNotInitializedForExtraData()": [
        {
          "notice": "The `extraData` cannot be set on an unintialized ownership slot."
        }
      ],
      "TransferCallerNotOwnerNorApproved()": [
        {
          "notice": "The caller must own the token or be an approved operator."
        }
      ],
      "TransferFromIncorrectOwner()": [
        {
          "notice": "The token must be owned by `from`."
        }
      ],
      "TransferToNonERC721ReceiverImplementer()": [
        {
          "notice": "Cannot safely transfer to a contract that does not implement the ERC721Receiver interface."
        }
      ],
      "TransferToZeroAddress()": [
        {
          "notice": "Cannot transfer to the zero address."
        }
      ],
      "URIQueryForNonexistentToken()": [
        {
          "notice": "The token does not exist."
        }
      ]
    },
    "kind": "user",
    "methods": {},
    "version": 1
  },
  "storageLayout": {
    "storage": [
      {
        "astId": 470,
        "contract": "contracts/KazoPill.sol:KazoPill",
        "label": "_currentIndex",
        "offset": 0,
        "slot": "0",
        "type": "t_uint256"
      },
      {
        "astId": 472,
        "contract": "contracts/KazoPill.sol:KazoPill",
        "label": "_burnCounter",
        "offset": 0,
        "slot": "1",
        "type": "t_uint256"
      },
      {
        "astId": 474,
        "contract": "contracts/KazoPill.sol:KazoPill",
        "label": "_name",
        "offset": 0,
        "slot": "2",
        "type": "t_string_storage"
      },
      {
        "astId": 476,
        "contract": "contracts/KazoPill.sol:KazoPill",
        "label": "_symbol",
        "offset": 0,
        "slot": "3",
        "type": "t_string_storage"
      },
      {
        "astId": 480,
        "contract": "contracts/KazoPill.sol:KazoPill",
        "label": "_packedOwnerships",
        "offset": 0,
        "slot": "4",
        "type": "t_mapping(t_uint256,t_uint256)"
      },
      {
        "astId": 484,
        "contract": "contracts/KazoPill.sol:KazoPill",
        "label": "_packedAddressData",
        "offset": 0,
        "slot": "5",
        "type": "t_mapping(t_address,t_uint256)"
      },
      {
        "astId": 489,
        "contract": "contracts/KazoPill.sol:KazoPill",
        "label": "_tokenApprovals",
        "offset": 0,
        "slot": "6",
        "type": "t_mapping(t_uint256,t_struct(TokenApprovalRef)402_storage)"
      },
      {
        "astId": 495,
        "contract": "contracts/KazoPill.sol:KazoPill",
        "label": "_operatorApprovals",
        "offset": 0,
        "slot": "7",
        "type": "t_mapping(t_address,t_mapping(t_address,t_bool))"
      },
      {
        "astId": 7,
        "contract": "contracts/KazoPill.sol:KazoPill",
        "label": "_owner",
        "offset": 0,
        "slot": "8",
        "type": "t_address"
      },
      {
        "astId": 144,
        "contract": "contracts/KazoPill.sol:KazoPill",
        "label": "_baseTokenURI",
        "offset": 0,
        "slot": "9",
        "type": "t_string_storage"
      },
      {
        "astId": 153,
        "contract": "contracts/KazoPill.sol:KazoPill",
        "label": "mintEnded",
        "offset": 0,
        "slot": "10",
        "type": "t_bool"
      },
      {
        "astId": 157,
        "contract": "contracts/KazoPill.sol:KazoPill",
        "label": "isRed",
        "offset": 0,
        "slot": "11",
        "type": "t_mapping(t_uint256,t_bool)"
      }
    ],
    "types": {
      "t_address": {
        "encoding": "inplace",
        "label": "address",
        "numberOfBytes": "20"
      },
      "t_bool": {
        "encoding": "inplace",
        "label": "bool",
        "numberOfBytes": "1"
      },
      "t_mapping(t_address,t_bool)": {
        "encoding": "mapping",
        "key": "t_address",
        "label": "mapping(address => bool)",
        "numberOfBytes": "32",
        "value": "t_bool"
      },
      "t_mapping(t_address,t_mapping(t_address,t_bool))": {
        "encoding": "mapping",
        "key": "t_address",
        "label": "mapping(address => mapping(address => bool))",
        "numberOfBytes": "32",
        "value": "t_mapping(t_address,t_bool)"
      },
      "t_mapping(t_address,t_uint256)": {
        "encoding": "mapping",
        "key": "t_address",
        "label": "mapping(address => uint256)",
        "numberOfBytes": "32",
        "value": "t_uint256"
      },
      "t_mapping(t_uint256,t_bool)": {
        "encoding": "mapping",
        "key": "t_uint256",
        "label": "mapping(uint256 => bool)",
        "numberOfBytes": "32",
        "value": "t_bool"
      },
      "t_mapping(t_uint256,t_struct(TokenApprovalRef)402_storage)": {
        "encoding": "mapping",
        "key": "t_uint256",
        "label": "mapping(uint256 => struct ERC721A.TokenApprovalRef)",
        "numberOfBytes": "32",
        "value": "t_struct(TokenApprovalRef)402_storage"
      },
      "t_mapping(t_uint256,t_uint256)": {
        "encoding": "mapping",
        "key": "t_uint256",
        "label": "mapping(uint256 => uint256)",
        "numberOfBytes": "32",
        "value": "t_uint256"
      },
      "t_string_storage": {
        "encoding": "bytes",
        "label": "string",
        "numberOfBytes": "32"
      },
      "t_struct(TokenApprovalRef)402_storage": {
        "encoding": "inplace",
        "label": "struct ERC721A.TokenApprovalRef",
        "members": [
          {
            "astId": 401,
            "contract": "contracts/KazoPill.sol:KazoPill",
            "label": "value",
            "offset": 0,
            "slot": "0",
            "type": "t_address"
          }
        ],
        "numberOfBytes": "32"
      },
      "t_uint256": {
        "encoding": "inplace",
        "label": "uint256",
        "numberOfBytes": "32"
      }
    }
  }
}