{
  "address": "0x671308A7069711B4e0a9B3886e68D986C05a49Bd",
  "abi": [
    {
      "inputs": [
        {
          "internalType": "string",
          "name": "_name",
          "type": "string"
        },
        {
          "internalType": "string",
          "name": "_symbol",
          "type": "string"
        },
        {
          "internalType": "string",
          "name": "_baseURI",
          "type": "string"
        },
        {
          "internalType": "uint16",
          "name": "maxSupply_",
          "type": "uint16"
        },
        {
          "internalType": "address",
          "name": "withdrawAddress",
          "type": "address"
        },
        {
          "internalType": "address",
          "name": "_whitelistSignerAddress",
          "type": "address"
        },
        {
          "internalType": "address",
          "name": "_incentiveAddress",
          "type": "address"
        },
        {
          "internalType": "uint16",
          "name": "_whitelistMaxMint",
          "type": "uint16"
        },
        {
          "internalType": "uint256",
          "name": "_whitelistMintPrice",
          "type": "uint256"
        },
        {
          "internalType": "uint256",
          "name": "_publicMintPrice",
          "type": "uint256"
        },
        {
          "internalType": "uint96",
          "name": "_feeNumerator",
          "type": "uint96"
        }
      ],
      "stateMutability": "nonpayable",
      "type": "constructor"
    },
    {
      "inputs": [],
      "name": "AccountBalanceOverflow",
      "type": "error"
    },
    {
      "inputs": [],
      "name": "BalanceQueryForZeroAddress",
      "type": "error"
    },
    {
      "inputs": [],
      "name": "InvalidTokenId",
      "type": "error"
    },
    {
      "inputs": [],
      "name": "NewOwnerIsZeroAddress",
      "type": "error"
    },
    {
      "inputs": [],
      "name": "NoHandoverRequest",
      "type": "error"
    },
    {
      "inputs": [],
      "name": "NoMoreTokenIds",
      "type": "error"
    },
    {
      "inputs": [],
      "name": "NotOwnerNorApproved",
      "type": "error"
    },
    {
      "inputs": [],
      "name": "TokenAlreadyExists",
      "type": "error"
    },
    {
      "inputs": [],
      "name": "TokenDoesNotExist",
      "type": "error"
    },
    {
      "inputs": [],
      "name": "TransferFromIncorrectOwner",
      "type": "error"
    },
    {
      "inputs": [],
      "name": "TransferToNonERC721ReceiverImplementer",
      "type": "error"
    },
    {
      "inputs": [],
      "name": "TransferToZeroAddress",
      "type": "error"
    },
    {
      "inputs": [],
      "name": "Unauthorized",
      "type": "error"
    },
    {
      "inputs": [],
      "name": "WithdrawFailed",
      "type": "error"
    },
    {
      "anonymous": false,
      "inputs": [
        {
          "indexed": true,
          "internalType": "address",
          "name": "owner",
          "type": "address"
        },
        {
          "indexed": true,
          "internalType": "address",
          "name": "account",
          "type": "address"
        },
        {
          "indexed": true,
          "internalType": "uint256",
          "name": "id",
          "type": "uint256"
        }
      ],
      "name": "Approval",
      "type": "event"
    },
    {
      "anonymous": false,
      "inputs": [
        {
          "indexed": true,
          "internalType": "address",
          "name": "owner",
          "type": "address"
        },
        {
          "indexed": true,
          "internalType": "address",
          "name": "operator",
          "type": "address"
        },
        {
          "indexed": false,
          "internalType": "bool",
          "name": "isApproved",
          "type": "bool"
        }
      ],
      "name": "ApprovalForAll",
      "type": "event"
    },
    {
      "anonymous": false,
      "inputs": [
        {
          "indexed": true,
          "internalType": "address",
          "name": "pendingOwner",
          "type": "address"
        }
      ],
      "name": "OwnershipHandoverCanceled",
      "type": "event"
    },
    {
      "anonymous": false,
      "inputs": [
        {
          "indexed": true,
          "internalType": "address",
          "name": "pendingOwner",
          "type": "address"
        }
      ],
      "name": "OwnershipHandoverRequested",
      "type": "event"
    },
    {
      "anonymous": false,
      "inputs": [
        {
          "indexed": true,
          "internalType": "address",
          "name": "oldOwner",
          "type": "address"
        },
        {
          "indexed": true,
          "internalType": "address",
          "name": "newOwner",
          "type": "address"
        }
      ],
      "name": "OwnershipTransferred",
      "type": "event"
    },
    {
      "anonymous": false,
      "inputs": [
        {
          "indexed": true,
          "internalType": "address",
          "name": "from",
          "type": "address"
        },
        {
          "indexed": true,
          "internalType": "address",
          "name": "to",
          "type": "address"
        },
        {
          "indexed": true,
          "internalType": "uint256",
          "name": "id",
          "type": "uint256"
        }
      ],
      "name": "Transfer",
      "type": "event"
    },
    {
      "inputs": [],
      "name": "MAX_SUPPLY",
      "outputs": [
        {
          "internalType": "uint16",
          "name": "",
          "type": "uint16"
        }
      ],
      "stateMutability": "view",
      "type": "function"
    },
    {
      "inputs": [
        {
          "internalType": "address",
          "name": "account",
          "type": "address"
        },
        {
          "internalType": "uint256",
          "name": "id",
          "type": "uint256"
        }
      ],
      "name": "approve",
      "outputs": [],
      "stateMutability": "payable",
      "type": "function"
    },
    {
      "inputs": [
        {
          "internalType": "address",
          "name": "owner",
          "type": "address"
        }
      ],
      "name": "balanceOf",
      "outputs": [
        {
          "internalType": "uint256",
          "name": "result",
          "type": "uint256"
        }
      ],
      "stateMutability": "view",
      "type": "function"
    },
    {
      "inputs": [],
      "name": "baseURI",
      "outputs": [
        {
          "internalType": "string",
          "name": "",
          "type": "string"
        }
      ],
      "stateMutability": "view",
      "type": "function"
    },
    {
      "inputs": [],
      "name": "cancelOwnershipHandover",
      "outputs": [],
      "stateMutability": "payable",
      "type": "function"
    },
    {
      "inputs": [
        {
          "internalType": "address",
          "name": "pendingOwner",
          "type": "address"
        }
      ],
      "name": "completeOwnershipHandover",
      "outputs": [],
      "stateMutability": "payable",
      "type": "function"
    },
    {
      "inputs": [
        {
          "internalType": "bytes",
          "name": "_nonce",
          "type": "bytes"
        },
        {
          "internalType": "bytes",
          "name": "_signature",
          "type": "bytes"
        }
      ],
      "name": "freeMint",
      "outputs": [],
      "stateMutability": "payable",
      "type": "function"
    },
    {
      "inputs": [
        {
          "internalType": "uint256",
          "name": "id",
          "type": "uint256"
        }
      ],
      "name": "getApproved",
      "outputs": [
        {
          "internalType": "address",
          "name": "result",
          "type": "address"
        }
      ],
      "stateMutability": "view",
      "type": "function"
    },
    {
      "inputs": [
        {
          "internalType": "address",
          "name": "",
          "type": "address"
        }
      ],
      "name": "hasMinted",
      "outputs": [
        {
          "internalType": "bool",
          "name": "",
          "type": "bool"
        }
      ],
      "stateMutability": "view",
      "type": "function"
    },
    {
      "inputs": [
        {
          "internalType": "address",
          "name": "owner",
          "type": "address"
        },
        {
          "internalType": "address",
          "name": "operator",
          "type": "address"
        }
      ],
      "name": "isApprovedForAll",
      "outputs": [
        {
          "internalType": "bool",
          "name": "result",
          "type": "bool"
        }
      ],
      "stateMutability": "view",
      "type": "function"
    },
    {
      "inputs": [],
      "name": "name",
      "outputs": [
        {
          "internalType": "string",
          "name": "",
          "type": "string"
        }
      ],
      "stateMutability": "view",
      "type": "function"
    },
    {
      "inputs": [],
      "name": "owner",
      "outputs": [
        {
          "internalType": "address",
          "name": "result",
          "type": "address"
        }
      ],
      "stateMutability": "view",
      "type": "function"
    },
    {
      "inputs": [
        {
          "internalType": "uint256",
          "name": "id",
          "type": "uint256"
        }
      ],
      "name": "ownerOf",
      "outputs": [
        {
          "internalType": "address",
          "name": "result",
          "type": "address"
        }
      ],
      "stateMutability": "view",
      "type": "function"
    },
    {
      "inputs": [
        {
          "internalType": "address",
          "name": "pendingOwner",
          "type": "address"
        }
      ],
      "name": "ownershipHandoverExpiresAt",
      "outputs": [
        {
          "internalType": "uint256",
          "name": "result",
          "type": "uint256"
        }
      ],
      "stateMutability": "view",
      "type": "function"
    },
    {
      "inputs": [
        {
          "internalType": "uint256",
          "name": "_amount",
          "type": "uint256"
        }
      ],
      "name": "publicMint",
      "outputs": [],
      "stateMutability": "payable",
      "type": "function"
    },
    {
      "inputs": [],
      "name": "publicMintPrice",
      "outputs": [
        {
          "internalType": "uint256",
          "name": "",
          "type": "uint256"
        }
      ],
      "stateMutability": "view",
      "type": "function"
    },
    {
      "inputs": [],
      "name": "renounceOwnership",
      "outputs": [],
      "stateMutability": "payable",
      "type": "function"
    },
    {
      "inputs": [],
      "name": "requestOwnershipHandover",
      "outputs": [],
      "stateMutability": "payable",
      "type": "function"
    },
    {
      "inputs": [
        {
          "internalType": "string",
          "name": "_baseURI",
          "type": "string"
        }
      ],
      "name": "reveal",
      "outputs": [],
      "stateMutability": "nonpayable",
      "type": "function"
    },
    {
      "inputs": [],
      "name": "revealed",
      "outputs": [
        {
          "internalType": "bool",
          "name": "",
          "type": "bool"
        }
      ],
      "stateMutability": "view",
      "type": "function"
    },
    {
      "inputs": [
        {
          "internalType": "uint256",
          "name": "tokenId",
          "type": "uint256"
        },
        {
          "internalType": "uint256",
          "name": "salePrice",
          "type": "uint256"
        }
      ],
      "name": "royaltyInfo",
      "outputs": [
        {
          "internalType": "address",
          "name": "",
          "type": "address"
        },
        {
          "internalType": "uint256",
          "name": "",
          "type": "uint256"
        }
      ],
      "stateMutability": "view",
      "type": "function"
    },
    {
      "inputs": [
        {
          "internalType": "address",
          "name": "from",
          "type": "address"
        },
        {
          "internalType": "address",
          "name": "to",
          "type": "address"
        },
        {
          "internalType": "uint256",
          "name": "id",
          "type": "uint256"
        }
      ],
      "name": "safeTransferFrom",
      "outputs": [],
      "stateMutability": "payable",
      "type": "function"
    },
    {
      "inputs": [
        {
          "internalType": "address",
          "name": "from",
          "type": "address"
        },
        {
          "internalType": "address",
          "name": "to",
          "type": "address"
        },
        {
          "internalType": "uint256",
          "name": "id",
          "type": "uint256"
        },
        {
          "internalType": "bytes",
          "name": "data",
          "type": "bytes"
        }
      ],
      "name": "safeTransferFrom",
      "outputs": [],
      "stateMutability": "payable",
      "type": "function"
    },
    {
      "inputs": [
        {
          "internalType": "address",
          "name": "operator",
          "type": "address"
        },
        {
          "internalType": "bool",
          "name": "isApproved",
          "type": "bool"
        }
      ],
      "name": "setApprovalForAll",
      "outputs": [],
      "stateMutability": "nonpayable",
      "type": "function"
    },
    {
      "inputs": [
        {
          "internalType": "string",
          "name": "_baseURI_",
          "type": "string"
        }
      ],
      "name": "setBaseURI",
      "outputs": [],
      "stateMutability": "nonpayable",
      "type": "function"
    },
    {
      "inputs": [
        {
          "internalType": "address",
          "name": "_receiver",
          "type": "address"
        },
        {
          "internalType": "uint96",
          "name": "_feeNumerator",
          "type": "uint96"
        }
      ],
      "name": "setDefaultRoyalty",
      "outputs": [],
      "stateMutability": "nonpayable",
      "type": "function"
    },
    {
      "inputs": [
        {
          "internalType": "uint256",
          "name": "_publicMintPrice",
          "type": "uint256"
        }
      ],
      "name": "setPublicMintPrice",
      "outputs": [],
      "stateMutability": "nonpayable",
      "type": "function"
    },
    {
      "inputs": [
        {
          "internalType": "uint8",
          "name": "_newStage",
          "type": "uint8"
        }
      ],
      "name": "setStage",
      "outputs": [],
      "stateMutability": "nonpayable",
      "type": "function"
    },
    {
      "inputs": [
        {
          "internalType": "uint256",
          "name": "_tokenId",
          "type": "uint256"
        },
        {
          "internalType": "address",
          "name": "_receiver",
          "type": "address"
        },
        {
          "internalType": "uint96",
          "name": "_feeNumerator",
          "type": "uint96"
        }
      ],
      "name": "setTokenRoyalty",
      "outputs": [],
      "stateMutability": "nonpayable",
      "type": "function"
    },
    {
      "inputs": [
        {
          "internalType": "address",
          "name": "_newSigner",
          "type": "address"
        }
      ],
      "name": "setWhitelistSignerAddress",
      "outputs": [],
      "stateMutability": "nonpayable",
      "type": "function"
    },
    {
      "inputs": [
        {
          "internalType": "address",
          "name": "_newWithdrawAddress",
          "type": "address"
        }
      ],
      "name": "setWithdrawAddress",
      "outputs": [],
      "stateMutability": "nonpayable",
      "type": "function"
    },
    {
      "inputs": [],
      "name": "stage",
      "outputs": [
        {
          "internalType": "uint8",
          "name": "",
          "type": "uint8"
        }
      ],
      "stateMutability": "view",
      "type": "function"
    },
    {
      "inputs": [
        {
          "internalType": "bytes4",
          "name": "interfaceId",
          "type": "bytes4"
        }
      ],
      "name": "supportsInterface",
      "outputs": [
        {
          "internalType": "bool",
          "name": "",
          "type": "bool"
        }
      ],
      "stateMutability": "view",
      "type": "function"
    },
    {
      "inputs": [],
      "name": "symbol",
      "outputs": [
        {
          "internalType": "string",
          "name": "",
          "type": "string"
        }
      ],
      "stateMutability": "view",
      "type": "function"
    },
    {
      "inputs": [
        {
          "internalType": "uint256",
          "name": "tokenId",
          "type": "uint256"
        }
      ],
      "name": "tokenURI",
      "outputs": [
        {
          "internalType": "string",
          "name": "",
          "type": "string"
        }
      ],
      "stateMutability": "view",
      "type": "function"
    },
    {
      "inputs": [],
      "name": "totalSupply",
      "outputs": [
        {
          "internalType": "uint256",
          "name": "",
          "type": "uint256"
        }
      ],
      "stateMutability": "view",
      "type": "function"
    },
    {
      "inputs": [
        {
          "internalType": "address",
          "name": "from",
          "type": "address"
        },
        {
          "internalType": "address",
          "name": "to",
          "type": "address"
        },
        {
          "internalType": "uint256",
          "name": "id",
          "type": "uint256"
        }
      ],
      "name": "transferFrom",
      "outputs": [],
      "stateMutability": "payable",
      "type": "function"
    },
    {
      "inputs": [
        {
          "internalType": "address",
          "name": "newOwner",
          "type": "address"
        }
      ],
      "name": "transferOwnership",
      "outputs": [],
      "stateMutability": "payable",
      "type": "function"
    },
    {
      "inputs": [],
      "name": "whitelistMaxMint",
      "outputs": [
        {
          "internalType": "uint16",
          "name": "",
          "type": "uint16"
        }
      ],
      "stateMutability": "view",
      "type": "function"
    },
    {
      "inputs": [
        {
          "internalType": "uint256",
          "name": "_amount",
          "type": "uint256"
        },
        {
          "internalType": "bytes",
          "name": "_nonce",
          "type": "bytes"
        },
        {
          "internalType": "bytes",
          "name": "_signature",
          "type": "bytes"
        }
      ],
      "name": "whitelistMint",
      "outputs": [],
      "stateMutability": "payable",
      "type": "function"
    },
    {
      "inputs": [
        {
          "internalType": "address",
          "name": "",
          "type": "address"
        }
      ],
      "name": "whitelistMintCount",
      "outputs": [
        {
          "internalType": "uint16",
          "name": "",
          "type": "uint16"
        }
      ],
      "stateMutability": "view",
      "type": "function"
    },
    {
      "inputs": [],
      "name": "whitelistMintPrice",
      "outputs": [
        {
          "internalType": "uint256",
          "name": "",
          "type": "uint256"
        }
      ],
      "stateMutability": "view",
      "type": "function"
    },
    {
      "inputs": [],
      "name": "whitelistSignerAddress",
      "outputs": [
        {
          "internalType": "address",
          "name": "",
          "type": "address"
        }
      ],
      "stateMutability": "view",
      "type": "function"
    },
    {
      "inputs": [],
      "name": "withdraw",
      "outputs": [],
      "stateMutability": "nonpayable",
      "type": "function"
    },
    {
      "inputs": [],
      "name": "withdrawAddress",
      "outputs": [
        {
          "internalType": "address",
          "name": "",
          "type": "address"
        }
      ],
      "stateMutability": "view",
      "type": "function"
    }
  ],
  "transactionHash": "0xe98f7d6133e3ef7971ad6ec28464f77c57604e5156044c7fb8994a1d8aecaaee",
  "args": [
    "Mock Leader",
    "MOCK",
    "ipfs://",
    1000,
    "0x6A8f07700CaF7d76BA3Ef4E8C8d0674894587877",
    "0xBDfAAD57daecf05786a5Fca0dB9BB0c7Ea2c04E0",
    "0x6A8f07700CaF7d76BA3Ef4E8C8d0674894587877",
    30,
    "100000000000000000",
    "200000000000000000",
    100
  ],
  "numDeployments": 2,
  "solcInputHash": "b6d349b59b224d5afe57473188c4894f",
  "bytecode": "0x60a06040523480156200001157600080fd5b506040516200323d3803806200323d833981016040819052620000349162000356565b61ffff8816608081905260038054600280546001600160a01b03808d166001600160a01b031992831617909255908a16600160a81b90940216600162ffff0160a01b0319909116179190911790556110048290558a8a8a8a8a8a876110066200009e88826200050b565b50611007620000ae87826200050b565b50611005620000be86826200050b565b5050506110088890555050611009805461ffff191661ffff891617905550620000ec91508690508262000108565b620000f7336200020d565b5050505050505050505050620005d7565b6127106001600160601b03821611156200017c5760405162461bcd60e51b815260206004820152602a60248201527f455243323938313a20726f79616c7479206665652077696c6c206578636565646044820152692073616c65507269636560b01b60648201526084015b60405180910390fd5b6001600160a01b038216620001d45760405162461bcd60e51b815260206004820152601960248201527f455243323938313a20696e76616c696420726563656976657200000000000000604482015260640162000173565b604080518082019091526001600160a01b039092168083526001600160601b039091166020909201829052600160a01b90910217600055565b6001600160a01b0316638b78c6d8198190558060007f8be0079c531659141344cd1fd0a4f28419497f9722a3daafe3b4186f6b6457e08180a350565b634e487b7160e01b600052604160045260246000fd5b600082601f8301126200027157600080fd5b81516001600160401b03808211156200028e576200028e62000249565b604051601f8301601f19908116603f01168101908282118183101715620002b957620002b962000249565b81604052838152602092508683858801011115620002d657600080fd5b600091505b83821015620002fa5785820183015181830184015290820190620002db565b600093810190920192909252949350505050565b805161ffff811681146200032157600080fd5b919050565b80516001600160a01b03811681146200032157600080fd5b80516001600160601b03811681146200032157600080fd5b60008060008060008060008060008060006101608c8e0312156200037957600080fd5b8b516001600160401b038111156200039057600080fd5b6200039e8e828f016200025f565b60208e0151909c5090506001600160401b03811115620003bd57600080fd5b620003cb8e828f016200025f565b60408e0151909b5090506001600160401b03811115620003ea57600080fd5b620003f88e828f016200025f565b9950506200040960608d016200030e565b97506200041960808d0162000326565b96506200042960a08d0162000326565b95506200043960c08d0162000326565b94506200044960e08d016200030e565b93506101008c015192506101208c015191506200046a6101408d016200033e565b90509295989b509295989b9093969950565b600181811c908216806200049157607f821691505b602082108103620004b257634e487b7160e01b600052602260045260246000fd5b50919050565b601f8211156200050657600081815260208120601f850160051c81016020861015620004e15750805b601f850160051c820191505b818110156200050257828155600101620004ed565b5050505b505050565b81516001600160401b0381111562000527576200052762000249565b6200053f816200053884546200047c565b84620004b8565b602080601f8311600181146200057757600084156200055e5750858301515b600019600386901b1c1916600185901b17855562000502565b600085815260208120601f198616915b82811015620005a85788860151825594840194600190910190840162000587565b5085821015620005c75787850151600019600388901b60f8161c191681555b5050505050600190811b01905550565b608051612c27620006166000396000818161042601528181610522015281816119220152818161196d01528181611a500152611a9b0152612c276000f3fe6080604052600436106102f25760003560e01c806354d1f13d1161018f578063a22cb465116100e1578063dc53fd921161008a578063f2fde38b11610064578063f2fde38b146108ae578063f504764d146108c1578063fee81cf4146108e157600080fd5b8063dc53fd921461084e578063e985e9c514610865578063f04e283e1461089b57600080fd5b8063c040e6b8116100bb578063c040e6b8146107ca578063c87b56dd1461080e578063ce3cd9971461082e57600080fd5b8063a22cb46514610784578063a6442fb3146107a4578063b88d4fde146107b757600080fd5b80636c0360eb11610143578063722e141d1161011d578063722e141d1461071f5780638da5cb5b1461073b57806395d89b411461076f57600080fd5b80636c0360eb146106e257806370a08231146106f7578063715018a61461071757600080fd5b80635944c753116101745780635944c753146106825780635d82cf6e146106a25780636352211e146106c257600080fd5b806354d1f13d1461065a57806355f804b31461066257600080fd5b80632a55205a116102485780633ab1a494116101fc57806342842e0e116101d657806342842e0e146106065780634c26124714610619578063518302271461063957600080fd5b80633ab1a4941461059f5780633bdf4ac6146105bf5780633ccfd60b146105f157600080fd5b806332cb6b0c1161022d57806332cb6b0c1461051057806335c6aaf81461055757806338e21cce1461056e57600080fd5b80632a55205a146104b15780632db11544146104fd57600080fd5b80631581b600116102aa57806324436f771161028457806324436f771461046957806324fccf251461047c57806325692962146104a957600080fd5b80631581b600146103c857806318160ddd146103f557806323b872dd1461045657600080fd5b806306fdde03116102db57806306fdde031461034e578063081812fc14610370578063095ea7b3146103b557600080fd5b806301ffc9a7146102f757806304634d8d1461032c575b600080fd5b34801561030357600080fd5b5061031761031236600461227e565b610914565b60405190151581526020015b60405180910390f35b34801561033857600080fd5b5061034c610347366004612307565b610951565b005b34801561035a57600080fd5b50610363610967565b604051610323919061235e565b34801561037c57600080fd5b5061039061038b3660046123af565b6109fa565b60405173ffffffffffffffffffffffffffffffffffffffff9091168152602001610323565b61034c6103c33660046123c8565b610a5f565b3480156103d457600080fd5b506002546103909073ffffffffffffffffffffffffffffffffffffffff1681565b34801561040157600080fd5b506003547501000000000000000000000000000000000000000000900461ffff9081167f000000000000000000000000000000000000000000000000000000000000000003165b604051908152602001610323565b61034c6104643660046123f2565b610a6a565b61034c610477366004612470565b610bc1565b34801561048857600080fd5b506003546103909073ffffffffffffffffffffffffffffffffffffffff1681565b61034c610d02565b3480156104bd57600080fd5b506104d16104cc3660046124ea565b610d52565b6040805173ffffffffffffffffffffffffffffffffffffffff9093168352602083019190915201610323565b61034c61050b3660046123af565b610e4b565b34801561051c57600080fd5b506105447f000000000000000000000000000000000000000000000000000000000000000081565b60405161ffff9091168152602001610323565b34801561056357600080fd5b506104486110085481565b34801561057a57600080fd5b5061031761058936600461250c565b61100b6020526000908152604090205460ff1681565b3480156105ab57600080fd5b5061034c6105ba36600461250c565b610ec3565b3480156105cb57600080fd5b506105446105da36600461250c565b61100a6020526000908152604090205461ffff1681565b3480156105fd57600080fd5b5061034c610f12565b61034c6106143660046123f2565b610faf565b34801561062557600080fd5b5061034c610634366004612556565b610fdc565b34801561064557600080fd5b50611009546103179062010000900460ff1681565b61034c61101b565b34801561066e57600080fd5b5061034c61067d366004612556565b611057565b34801561068e57600080fd5b5061034c61069d366004612625565b61106c565b3480156106ae57600080fd5b5061034c6106bd3660046123af565b61107f565b3480156106ce57600080fd5b506103906106dd3660046123af565b61108d565b3480156106ee57600080fd5b506103636110ed565b34801561070357600080fd5b5061044861071236600461250c565b61117c565b61034c6111cc565b34801561072b57600080fd5b50611009546105449061ffff1681565b34801561074757600080fd5b507fffffffffffffffffffffffffffffffffffffffffffffffffffffffff7487392754610390565b34801561077b57600080fd5b506103636111e0565b34801561079057600080fd5b5061034c61079f366004612661565b6111f0565b61034c6107b236600461269d565b611246565b61034c6107c5366004612709565b61136a565b3480156107d657600080fd5b506003546107fc9074010000000000000000000000000000000000000000900460ff1681565b60405160ff9091168152602001610323565b34801561081a57600080fd5b506103636108293660046123af565b6113be565b34801561083a57600080fd5b5061034c610849366004612767565b611490565b34801561085a57600080fd5b506104486110045481565b34801561087157600080fd5b5061031761088036600461278a565b601c52670a5a2e7a000000006008526000526030600c205490565b61034c6108a936600461250c565b6114e4565b61034c6108bc36600461250c565b611521565b3480156108cd57600080fd5b5061034c6108dc36600461250c565b611548565b3480156108ed57600080fd5b506104486108fc36600461250c565b63389a75e1600c908152600091909152602090205490565b600061093c826301ffc9a760e09190911c9081146380ac58cd821417635b5e139f9091141790565b8061094b575061094b82611597565b92915050565b61095961162e565b6109638282611664565b5050565b60606110068054610977906127b4565b80601f01602080910402602001604051908101604052809291908181526020018280546109a3906127b4565b80156109f05780601f106109c5576101008083540402835291602001916109f0565b820191906000526020600020905b8154815290600101906020018083116109d357829003601f168201915b5050505050905090565b60008181527f7d8825530a5a2e7a000000000000000000000000000000000000000000000000601c526020812082018201805473ffffffffffffffffffffffffffffffffffffffff16610a555763ceea21b66000526004601cfd5b6001015492915050565b6109633383836117a9565b60008181527f7d8825530a5a2e7a0000000000000000000000000000000000000000000000003317601c526020902081018101805473ffffffffffffffffffffffffffffffffffffffff9485169493841693811691908286148302610aea5782610adc5763ceea21b66000526004601cfd5b63a11481006000526004601cfd5b84610afd5763ea553b346000526004601cfd5b856000528160010154925082331486331417610b2b576030600c2054610b2b57634b6e7f186000526004601cfd5b8215610b3957600082600101555b85851818905550601c600c81812080547fffffffffffffffffffffffffffffffffffffffffffffffffffffffffffffffff019055600084905220805460010163ffffffff8116610b91576301336cea6000526004601cfd5b90558082847fddf252ad1be2c89b69c2b068fc378daa952ba7f163c4a11628f55a4df523b3ef600080a45b505050565b60035460019074010000000000000000000000000000000000000000900460ff168114610c355760405162461bcd60e51b815260206004820152600c60248201527f57726f6e6720737461676521000000000000000000000000000000000000000060448201526064015b60405180910390fd5b6110095433600090815261100a602052604090205461ffff91821691610c5d91899116612836565b1115610cab5760405162461bcd60e51b815260206004820152601160248201527f4d6178206d696e742072656163686564210000000000000000000000000000006044820152606401610c2c565b33600090815261100a602052604081208054889290610ccf90849061ffff16612849565b92506101000a81548161ffff021916908361ffff160217905550610cfa86868686866110085461185f565b505050505050565b60006202a30067ffffffffffffffff164201905063389a75e1600c5233600052806020600c2055337fdbf36a107da19e49527a7176a1babf963b4b0ff8cde35ee35d6cd8f1f9ac7e1d600080a250565b600082815260016020908152604080832081518083019092525473ffffffffffffffffffffffffffffffffffffffff8116808352740100000000000000000000000000000000000000009091046bffffffffffffffffffffffff16928201929092528291610e0d57506040805180820190915260005473ffffffffffffffffffffffffffffffffffffffff811682527401000000000000000000000000000000000000000090046bffffffffffffffffffffffff1660208201525b602081015160009061271090610e31906bffffffffffffffffffffffff168761286b565b610e3b91906128b1565b91519350909150505b9250929050565b60035460029074010000000000000000000000000000000000000000900460ff168114610eba5760405162461bcd60e51b815260206004820152600c60248201527f57726f6e672073746167652100000000000000000000000000000000000000006044820152606401610c2c565b610963826119f2565b610ecb61162e565b600280547fffffffffffffffffffffffff00000000000000000000000000000000000000001673ffffffffffffffffffffffffffffffffffffffff92909216919091179055565b60025460405160009173ffffffffffffffffffffffffffffffffffffffff169047908381818185875af1925050503d8060008114610f6c576040519150601f19603f3d011682016040523d82523d6000602084013e610f71565b606091505b5050905080610fac576040517f750b219c00000000000000000000000000000000000000000000000000000000815260040160405180910390fd5b50565b610fba838383610a6a565b813b15610bbc57610bbc83838360405180602001604052806000815250611b20565b610fe461162e565b61100980547fffffffffffffffffffffffffffffffffffffffffffffffffffffffffff00ffff1662010000179055610fac81611057565b63389a75e1600c523360005260006020600c2055337ffa7b8eab7da67f412cc9575ed43464468f9bfbae89d1675917346ca6d8fe3c92600080a2565b61105f61162e565b611005610963828261290b565b61107461162e565b610bbc838383611baa565b61108761162e565b61100455565b60008181527f7d8825530a5a2e7a000000000000000000000000000000000000000000000000601c5260209020810181015473ffffffffffffffffffffffffffffffffffffffff16806110e85763ceea21b66000526004601cfd5b919050565b61100580546110fb906127b4565b80601f0160208091040260200160405190810160405280929190818152602001828054611127906127b4565b80156111745780601f1061114957610100808354040283529160200191611174565b820191906000526020600020905b81548152906001019060200180831161115757829003601f168201915b505050505081565b60008161119157638f4eb6046000526004601cfd5b7f7d8825530a5a2e7a000000000000000000000000000000000000000000000000601c528160005263ffffffff601c600c2054169050919050565b6111d461162e565b6111de6000611d00565b565b60606110078054610977906127b4565b801515905081601c52670a5a2e7a0000000060085233600052806030600c2055806000528160601b60601c337f17307eab39ab6107e8899845ad3d59bd9653f200f220920489ca2b5937696c3160206000a35050565b60035460019074010000000000000000000000000000000000000000900460ff1681146112b55760405162461bcd60e51b815260206004820152600c60248201527f57726f6e672073746167652100000000000000000000000000000000000000006044820152606401610c2c565b33600090815261100b602052604090205460ff16156113165760405162461bcd60e51b815260206004820152600f60248201527f416c7265616479206d696e7465642100000000000000000000000000000000006044820152606401610c2c565b33600090815261100b6020526040812080547fffffffffffffffffffffffffffffffffffffffffffffffffffffffffffffff0016600190811790915561136391879087908790879061185f565b5050505050565b611375858585610a6a565b833b156113635761136385858585858080601f016020809104026020016040519081016040528093929190818152602001838380828437600092019190915250611b2092505050565b606060006114108360008181527f7d8825530a5a2e7a000000000000000000000000000000000000000000000000601c52602090208101015473ffffffffffffffffffffffffffffffffffffffff1690565b73ffffffffffffffffffffffffffffffffffffffff160361145d576040517f3f6cc76800000000000000000000000000000000000000000000000000000000815260040160405180910390fd5b61100561146983611d66565b60405160200161147a929190612a25565b6040516020818303038152906040529050919050565b61149861162e565b6003805460ff90921674010000000000000000000000000000000000000000027fffffffffffffffffffffff00ffffffffffffffffffffffffffffffffffffffff909216919091179055565b6114ec61162e565b63389a75e1600c52806000526020600c20805442111561151457636f5e88186000526004601cfd5b60009055610fac81611d00565b61152961162e565b8060601b61153f57637448fbae6000526004601cfd5b610fac81611d00565b61155061162e565b600380547fffffffffffffffffffffffff00000000000000000000000000000000000000001673ffffffffffffffffffffffffffffffffffffffff92909216919091179055565b60007fffffffff0000000000000000000000000000000000000000000000000000000082167f2a55205a00000000000000000000000000000000000000000000000000000000148061094b57507f01ffc9a7000000000000000000000000000000000000000000000000000000007fffffffff0000000000000000000000000000000000000000000000000000000083161461094b565b7fffffffffffffffffffffffffffffffffffffffffffffffffffffffff748739275433146111de576382b429006000526004601cfd5b6127106bffffffffffffffffffffffff821611156116ea5760405162461bcd60e51b815260206004820152602a60248201527f455243323938313a20726f79616c7479206665652077696c6c2065786365656460448201527f2073616c655072696365000000000000000000000000000000000000000000006064820152608401610c2c565b73ffffffffffffffffffffffffffffffffffffffff821661174d5760405162461bcd60e51b815260206004820152601960248201527f455243323938313a20696e76616c6964207265636569766572000000000000006044820152606401610c2c565b6040805180820190915273ffffffffffffffffffffffffffffffffffffffff9092168083526bffffffffffffffffffffffff90911660209092018290527401000000000000000000000000000000000000000090910217600055565b60001960601c8281169250838116935081600052837f7d8825530a5a2e7a00000000000000000000000000000000000000000000000017601c52602060002082018201805482169150816118055763ceea21b66000526004601cfd5b81851485151761182b57816000526030600c205461182b57634b6e7f186000526004601cfd5b6001018390558183827f8c5be1e5ebec7d5bd14f71427d1e84f3dd0314c0f7b2291e5b200ac8c7c3b925600080a450505050565b61187c3386868686600360149054906101000a900460ff16611dc8565b6118c85760405162461bcd60e51b815260206004820152601260248201527f496e76616c6964205369676e61747572652100000000000000000000000000006044820152606401610c2c565b6118d2818761286b565b34146119205760405162461bcd60e51b815260206004820152601160248201527f496e73756666696369656e7420455448210000000000000000000000000000006044820152606401610c2c565b7f000000000000000000000000000000000000000000000000000000000000000061ffff168661199160035461ffff750100000000000000000000000000000000000000000090910481167f0000000000000000000000000000000000000000000000000000000000000000031690565b61199b9190612836565b11156119e95760405162461bcd60e51b815260206004820152601460248201527f4578636565646564204d617820537570706c79210000000000000000000000006044820152606401610c2c565b610cfa86611e6f565b61100454611a00908261286b565b3414611a4e5760405162461bcd60e51b815260206004820152601060248201527f496e73756666696369656e7420455448000000000000000000000000000000006044820152606401610c2c565b7f000000000000000000000000000000000000000000000000000000000000000061ffff1681611abf60035461ffff750100000000000000000000000000000000000000000090910481167f0000000000000000000000000000000000000000000000000000000000000000031690565b611ac99190612836565b1115611b175760405162461bcd60e51b815260206004820152601460248201527f4578636565646564204d617820537570706c79210000000000000000000000006044820152606401610c2c565b610fac81611e6f565b60405163150b7a028082523360208301528560601b60601c604083015283606083015260808083015282518060a08401528015611b67578060c08401826020870160045afa505b60208360a48301601c860160008a5af1611b90573d15611b8b573d6000803e3d6000fd5b600083525b508060e01b825114610cfa5763d1a57ed66000526004601cfd5b6127106bffffffffffffffffffffffff82161115611c305760405162461bcd60e51b815260206004820152602a60248201527f455243323938313a20726f79616c7479206665652077696c6c2065786365656460448201527f2073616c655072696365000000000000000000000000000000000000000000006064820152608401610c2c565b73ffffffffffffffffffffffffffffffffffffffff8216611c935760405162461bcd60e51b815260206004820152601b60248201527f455243323938313a20496e76616c696420706172616d657465727300000000006044820152606401610c2c565b60408051808201825273ffffffffffffffffffffffffffffffffffffffff93841681526bffffffffffffffffffffffff9283166020808301918252600096875260019052919094209351905190911674010000000000000000000000000000000000000000029116179055565b7fffffffffffffffffffffffffffffffffffffffffffffffffffffffff74873927805473ffffffffffffffffffffffffffffffffffffffff9092169182907f8be0079c531659141344cd1fd0a4f28419497f9722a3daafe3b4186f6b6457e0600080a355565b60606080604051019050602081016040526000815280600019835b928101926030600a8206018453600a900480611d815750508190037fffffffffffffffffffffffffffffffffffffffffffffffffffffffffffffffe0909101908152919050565b60008087878785604051602001611de29493929190612af2565b604051602081830303815290604052805190602001209050611e4585858080601f016020809104026020016040519081016040528093929190818152602001838380828437600092019190915250611e3f9250859150611e999050565b90611ec4565b60035473ffffffffffffffffffffffffffffffffffffffff91821691161498975050505050505050565b60005b81811015610963576000611e84611f1d565b9050611e903382612142565b50600101611e72565b6020527b19457468657265756d205369676e6564204d6573736167653a0a3332600052603c60042090565b6000604051825184600052606084015160001a602052602084015160405260408401516060526020600160806000604185145afa519250503d611f0f57638baa579f6000526004601cfd5b600060605260405292915050565b6003546000907501000000000000000000000000000000000000000000900461ffff16808203611f79576040517faeb0cc9b00000000000000000000000000000000000000000000000000000000815260040160405180910390fd5b6000611f8482612212565b90506000611f928383612b5f565b90506000600482620100008110611fab57611fab612b73565b601091828204019190066002029054906101000a900461ffff1661ffff169050600081600003611fdc575081611fdf565b50805b6000611fec600187612ba2565b90508084146120e357600060048262010000811061200c5761200c612b73565b601091828204019190066002029054906101000a900461ffff1661ffff16905080600003612074578160048662010000811061204a5761204a612b73565b601091828204019190066002026101000a81548161ffff021916908361ffff1602179055506120e1565b8060048662010000811061208a5761208a612b73565b601091828204019190066002026101000a81548161ffff021916908361ffff1602179055506004826201000081106120c4576120c4612b73565b601091828204019190066002026101000a81549061ffff02191690555b505b60038054601590612110907501000000000000000000000000000000000000000000900461ffff16612bb5565b91906101000a81548161ffff021916908361ffff1602179055508160016121379190612836565b965050505050505090565b73ffffffffffffffffffffffffffffffffffffffff909116908161216e5763ea553b346000526004601cfd5b806000527f7d8825530a5a2e7a000000000000000000000000000000000000000000000000601c5260206000208101810180548060601b156121b85763c991cbb16000526004601cfd5b831790556000829052601c600c20805460010163ffffffff81166121e4576301336cea6000526004601cfd5b9055808260007fddf252ad1be2c89b69c2b068fc378daa952ba7f163c4a11628f55a4df523b3ef8180a45050565b600044612220600143612ba2565b6040805160208101939093529040908201523060608201526080810183905260a001604080517fffffffffffffffffffffffffffffffffffffffffffffffffffffffffffffffe0818403018152919052805160209091012092915050565b60006020828403121561229057600080fd5b81357fffffffff00000000000000000000000000000000000000000000000000000000811681146122c057600080fd5b9392505050565b803573ffffffffffffffffffffffffffffffffffffffff811681146110e857600080fd5b80356bffffffffffffffffffffffff811681146110e857600080fd5b6000806040838503121561231a57600080fd5b612323836122c7565b9150612331602084016122eb565b90509250929050565b60005b8381101561235557818101518382015260200161233d565b50506000910152565b602081526000825180602084015261237d81604085016020870161233a565b601f017fffffffffffffffffffffffffffffffffffffffffffffffffffffffffffffffe0169190910160400192915050565b6000602082840312156123c157600080fd5b5035919050565b600080604083850312156123db57600080fd5b6123e4836122c7565b946020939093013593505050565b60008060006060848603121561240757600080fd5b612410846122c7565b925061241e602085016122c7565b9150604084013590509250925092565b60008083601f84011261244057600080fd5b50813567ffffffffffffffff81111561245857600080fd5b602083019150836020828501011115610e4457600080fd5b60008060008060006060868803121561248857600080fd5b85359450602086013567ffffffffffffffff808211156124a757600080fd5b6124b389838a0161242e565b909650945060408801359150808211156124cc57600080fd5b506124d98882890161242e565b969995985093965092949392505050565b600080604083850312156124fd57600080fd5b50508035926020909101359150565b60006020828403121561251e57600080fd5b6122c0826122c7565b7f4e487b7100000000000000000000000000000000000000000000000000000000600052604160045260246000fd5b60006020828403121561256857600080fd5b813567ffffffffffffffff8082111561258057600080fd5b818401915084601f83011261259457600080fd5b8135818111156125a6576125a6612527565b604051601f82017fffffffffffffffffffffffffffffffffffffffffffffffffffffffffffffffe0908116603f011681019083821181831017156125ec576125ec612527565b8160405282815287602084870101111561260557600080fd5b826020860160208301376000928101602001929092525095945050505050565b60008060006060848603121561263a57600080fd5b8335925061264a602085016122c7565b9150612658604085016122eb565b90509250925092565b6000806040838503121561267457600080fd5b61267d836122c7565b91506020830135801515811461269257600080fd5b809150509250929050565b600080600080604085870312156126b357600080fd5b843567ffffffffffffffff808211156126cb57600080fd5b6126d78883890161242e565b909650945060208701359150808211156126f057600080fd5b506126fd8782880161242e565b95989497509550505050565b60008060008060006080868803121561272157600080fd5b61272a866122c7565b9450612738602087016122c7565b935060408601359250606086013567ffffffffffffffff81111561275b57600080fd5b6124d98882890161242e565b60006020828403121561277957600080fd5b813560ff811681146122c057600080fd5b6000806040838503121561279d57600080fd5b6127a6836122c7565b9150612331602084016122c7565b600181811c908216806127c857607f821691505b602082108103612801577f4e487b7100000000000000000000000000000000000000000000000000000000600052602260045260246000fd5b50919050565b7f4e487b7100000000000000000000000000000000000000000000000000000000600052601160045260246000fd5b8082018082111561094b5761094b612807565b61ffff81811683821601908082111561286457612864612807565b5092915050565b808202811582820484141761094b5761094b612807565b7f4e487b7100000000000000000000000000000000000000000000000000000000600052601260045260246000fd5b6000826128c0576128c0612882565b500490565b601f821115610bbc57600081815260208120601f850160051c810160208610156128ec5750805b601f850160051c820191505b81811015610cfa578281556001016128f8565b815167ffffffffffffffff81111561292557612925612527565b6129398161293384546127b4565b846128c5565b602080601f83116001811461298c57600084156129565750858301515b7fffffffffffffffffffffffffffffffffffffffffffffffffffffffffffffffff600386901b1c1916600185901b178555610cfa565b6000858152602081207fffffffffffffffffffffffffffffffffffffffffffffffffffffffffffffffe08616915b828110156129d9578886015182559484019460019091019084016129ba565b5085821015612a1557878501517fffffffffffffffffffffffffffffffffffffffffffffffffffffffffffffffff600388901b60f8161c191681555b5050505050600190811b01905550565b6000808454612a33816127b4565b60018281168015612a4b5760018114612a7e57612aad565b7fffffffffffffffffffffffffffffffffffffffffffffffffffffffffffffff0084168752821515830287019450612aad565b8860005260208060002060005b85811015612aa45781548a820152908401908201612a8b565b50505082870194505b505050508351612ac181836020880161233a565b7f2e6a736f6e0000000000000000000000000000000000000000000000000000009101908152600501949350505050565b7fffffffffffffffffffffffffffffffffffffffff0000000000000000000000008560601b1681528284601483013760f89190911b7fff00000000000000000000000000000000000000000000000000000000000000166014919092019081019190915260150192915050565b600082612b6e57612b6e612882565b500690565b7f4e487b7100000000000000000000000000000000000000000000000000000000600052603260045260246000fd5b8181038181111561094b5761094b612807565b600061ffff821680612bc957612bc9612807565b7fffffffffffffffffffffffffffffffffffffffffffffffffffffffffffffffff019291505056fea2646970667358221220bb5bf1d230b237a94a34b16a69c84e113b384de51c24907e3e784ea0b853a0b164736f6c63430008130033",
  "devdoc": {
    "errors": {
      "AccountBalanceOverflow()": [
        {
          "details": "The recipient's balance has overflowed."
        }
      ],
      "BalanceQueryForZeroAddress()": [
        {
          "details": "Cannot query the balance for the zero address."
        }
      ],
      "NewOwnerIsZeroAddress()": [
        {
          "details": "The `newOwner` cannot be the zero address."
        }
      ],
      "NoHandoverRequest()": [
        {
          "details": "The `pendingOwner` does not have a valid handover request."
        }
      ],
      "NotOwnerNorApproved()": [
        {
          "details": "Only the token owner or an approved account can manage the token."
        }
      ],
      "TokenAlreadyExists()": [
        {
          "details": "The token already exists."
        }
      ],
      "TokenDoesNotExist()": [
        {
          "details": "The token does not exist."
        }
      ],
      "TransferFromIncorrectOwner()": [
        {
          "details": "The token must be owned by `from`."
        }
      ],
      "TransferToNonERC721ReceiverImplementer()": [
        {
          "details": "Cannot safely transfer to a contract that does not implement the ERC721Receiver interface."
        }
      ],
      "TransferToZeroAddress()": [
        {
          "details": "Cannot mint or transfer to the zero address."
        }
      ],
      "Unauthorized()": [
        {
          "details": "The caller is not authorized to call the function."
        }
      ]
    },
    "events": {
      "Approval(address,address,uint256)": {
        "details": "Emitted when `owner` enables `account` to manage the `id` token."
      },
      "ApprovalForAll(address,address,bool)": {
        "details": "Emitted when `owner` enables or disables `operator` to manage all of their tokens."
      },
      "OwnershipHandoverCanceled(address)": {
        "details": "The ownership handover to `pendingOwner` has been canceled."
      },
      "OwnershipHandoverRequested(address)": {
        "details": "An ownership handover to `pendingOwner` has been requested."
      },
      "OwnershipTransferred(address,address)": {
        "details": "The ownership is transferred from `oldOwner` to `newOwner`. This event is intentionally kept the same as OpenZeppelin's Ownable to be compatible with indexers and [EIP-173](https://eips.ethereum.org/EIPS/eip-173), despite it not being as lightweight as a single argument event."
      },
      "Transfer(address,address,uint256)": {
        "details": "Emitted when token `id` is transferred from `from` to `to`."
      }
    },
    "kind": "dev",
    "methods": {
      "approve(address,uint256)": {
        "details": "Sets `account` as the approved account to manage token `id`. Requirements: - Token `id` must exist. - The caller must be the owner of the token,   or an approved operator for the token owner. Emits an {Approval} event."
      },
      "balanceOf(address)": {
        "details": "Returns the number of tokens owned by `owner`. Requirements: - `owner` must not be the zero address."
      },
      "cancelOwnershipHandover()": {
        "details": "Cancels the two-step ownership handover to the caller, if any."
      },
      "completeOwnershipHandover(address)": {
        "details": "Allows the owner to complete the two-step ownership handover to `pendingOwner`. Reverts if there is no existing ownership handover requested by `pendingOwner`."
      },
      "freeMint(bytes,bytes)": {
        "details": "Free mint",
        "params": {
          "_nonce": "Nonce to prevent replay attacks",
          "_signature": "Signature from backend signed by signer address if user is whitelisted"
        }
      },
      "getApproved(uint256)": {
        "details": "Returns the account approved to manage token `id`. Requirements: - Token `id` must exist."
      },
      "isApprovedForAll(address,address)": {
        "details": "Returns whether `operator` is approved to manage the tokens of `owner`."
      },
      "name()": {
        "details": "Returns the name of the token collection",
        "returns": {
          "_0": "Name of the token collection"
        }
      },
      "owner()": {
        "details": "Returns the owner of the contract."
      },
      "ownerOf(uint256)": {
        "details": "Returns the owner of token `id`. Requirements: - Token `id` must exist."
      },
      "ownershipHandoverExpiresAt(address)": {
        "details": "Returns the expiry timestamp for the two-step ownership handover to `pendingOwner`."
      },
      "publicMint(uint256)": {
        "details": "Public Mint",
        "params": {
          "_amount": "Amount to mint"
        }
      },
      "renounceOwnership()": {
        "details": "Allows the owner to renounce their ownership."
      },
      "requestOwnershipHandover()": {
        "details": "Request a two-step ownership handover to the caller. The request will automatically expire in 48 hours (172800 seconds) by default."
      },
      "royaltyInfo(uint256,uint256)": {
        "details": "Returns how much royalty is owed and to whom, based on a sale price that may be denominated in any unit of exchange. The royalty amount is denominated and should be paid in that same unit of exchange."
      },
      "safeTransferFrom(address,address,uint256)": {
        "details": "Equivalent to `safeTransferFrom(from, to, id, \"\")`."
      },
      "safeTransferFrom(address,address,uint256,bytes)": {
        "details": "Transfers token `id` from `from` to `to`. Requirements: - Token `id` must exist. - `from` must be the owner of the token. - `to` cannot be the zero address. - The caller must be the owner of the token, or be approved to manage the token. - If `to` refers to a smart contract, it must implement   {IERC721Receiver-onERC721Received}, which is called upon a safe transfer. Emits a {Transfer} event."
      },
      "setApprovalForAll(address,bool)": {
        "details": "Sets whether `operator` is approved to manage the tokens of the caller. Emits an {ApprovalForAll} event."
      },
      "setBaseURI(string)": {
        "details": "Set base URI for token metadata",
        "params": {
          "_baseURI_": "New base URI"
        }
      },
      "setDefaultRoyalty(address,uint96)": {
        "params": {
          "_feeNumerator": "Fee numerator, in basis points",
          "_receiver": "Address to receive royalties"
        }
      },
      "setPublicMintPrice(uint256)": {
        "details": "Sets the mint price for public mint",
        "params": {
          "_publicMintPrice": "New public mint price"
        }
      },
      "setStage(uint8)": {
        "details": "Sets the stage",
        "params": {
          "_newStage": "New stage"
        }
      },
      "setTokenRoyalty(uint256,address,uint96)": {
        "params": {
          "_feeNumerator": "Fee numerator, in basis points",
          "_receiver": "Address to receive royalties",
          "_tokenId": "Token ID"
        }
      },
      "setWhitelistSignerAddress(address)": {
        "details": "Sets the backend whitelist signer address",
        "params": {
          "_newSigner": "New signer address"
        }
      },
      "setWithdrawAddress(address)": {
        "details": "Sets the withdraw address which mint funds are sent to",
        "params": {
          "_newWithdrawAddress": "New withdraw address"
        }
      },
      "supportsInterface(bytes4)": {
        "details": "Function to adhere to EIP-2981"
      },
      "symbol()": {
        "details": "Returns the symbol of the token collection",
        "returns": {
          "_0": "Symbol of the token collection"
        }
      },
      "tokenURI(uint256)": {
        "details": "Return the metadata URI for a token",
        "params": {
          "tokenId": "Token ID"
        },
        "returns": {
          "_0": "Metadata URI for token"
        }
      },
      "totalSupply()": {
        "details": "Total supply of tokens",
        "returns": {
          "_0": "Total supply of tokens"
        }
      },
      "transferFrom(address,address,uint256)": {
        "details": "Transfers token `id` from `from` to `to`. Requirements: - Token `id` must exist. - `from` must be the owner of the token. - `to` cannot be the zero address. - The caller must be the owner of the token, or be approved to manage the token. Emits a {Transfer} event."
      },
      "transferOwnership(address)": {
        "details": "Allows the owner to transfer the ownership to `newOwner`."
      },
      "whitelistMint(uint256,bytes,bytes)": {
        "details": "Whitelist Mint Phase 1",
        "params": {
          "_amount": "Amount to mint",
          "_nonce": "Nonce to prevent replay attacks",
          "_signature": "Signature from backend signed by signer address if user is whitelisted"
        }
      },
      "withdraw()": {
        "details": "Withdraws ETH from contract to withdraw address"
      }
    },
    "version": 1
  },
  "userdoc": {
    "errors": {
      "InvalidTokenId()": [
        {
          "notice": "Error codes"
        }
      ]
    },
    "kind": "user",
    "methods": {
      "MAX_SUPPLY()": {
        "notice": "Max supply of tokens"
      },
      "baseURI()": {
        "notice": "Base URI of token metadata"
      },
      "hasMinted(address)": {
        "notice": "Mapping used to track who has already minted for free mint"
      },
      "publicMintPrice()": {
        "notice": "Public mint price"
      },
      "revealed()": {
        "notice": "Flag to indicate if the collection is revealed"
      },
      "setDefaultRoyalty(address,uint96)": {
        "notice": "Used to set royalty fees for all tokens, according to EIP-2981"
      },
      "setTokenRoyalty(uint256,address,uint96)": {
        "notice": "Used to set royalty fees for a specific token, according to EIP-2981"
      },
      "stage()": {
        "notice": "Current stage"
      },
      "whitelistMaxMint()": {
        "notice": "Max amount of whitelist mint"
      },
      "whitelistMintCount(address)": {
        "notice": "Mapping used to track how many times an address has minted for whitelist mint"
      },
      "whitelistMintPrice()": {
        "notice": "Price for whitelist mint"
      },
      "whitelistSignerAddress()": {
        "notice": "Backend signer address - used to check if user is whitelisted"
      },
      "withdrawAddress()": {
        "notice": "Address to withdraw ETH to"
      }
    },
    "version": 1
  },
  "storageLayout": {
    "storage": [
      {
        "astId": 35,
        "contract": "contracts/Kazo.sol:Kazo",
        "label": "_defaultRoyaltyInfo",
        "offset": 0,
        "slot": "0",
        "type": "t_struct(RoyaltyInfo)32_storage"
      },
      {
        "astId": 40,
        "contract": "contracts/Kazo.sol:Kazo",
        "label": "_tokenRoyaltyInfo",
        "offset": 0,
        "slot": "1",
        "type": "t_mapping(t_uint256,t_struct(RoyaltyInfo)32_storage)"
      },
      {
        "astId": 281,
        "contract": "contracts/Kazo.sol:Kazo",
        "label": "withdrawAddress",
        "offset": 0,
        "slot": "2",
        "type": "t_address"
      },
      {
        "astId": 284,
        "contract": "contracts/Kazo.sol:Kazo",
        "label": "whitelistSignerAddress",
        "offset": 0,
        "slot": "3",
        "type": "t_address"
      },
      {
        "astId": 287,
        "contract": "contracts/Kazo.sol:Kazo",
        "label": "stage",
        "offset": 20,
        "slot": "3",
        "type": "t_uint8"
      },
      {
        "astId": 293,
        "contract": "contracts/Kazo.sol:Kazo",
        "label": "_numAvailableRemainingTokens",
        "offset": 21,
        "slot": "3",
        "type": "t_uint16"
      },
      {
        "astId": 298,
        "contract": "contracts/Kazo.sol:Kazo",
        "label": "_availableRemainingTokens",
        "offset": 0,
        "slot": "4",
        "type": "t_array(t_uint16)65536_storage"
      },
      {
        "astId": 301,
        "contract": "contracts/Kazo.sol:Kazo",
        "label": "publicMintPrice",
        "offset": 0,
        "slot": "4100",
        "type": "t_uint256"
      },
      {
        "astId": 304,
        "contract": "contracts/Kazo.sol:Kazo",
        "label": "baseURI",
        "offset": 0,
        "slot": "4101",
        "type": "t_string_storage"
      },
      {
        "astId": 307,
        "contract": "contracts/Kazo.sol:Kazo",
        "label": "_name",
        "offset": 0,
        "slot": "4102",
        "type": "t_string_storage"
      },
      {
        "astId": 310,
        "contract": "contracts/Kazo.sol:Kazo",
        "label": "_symbol",
        "offset": 0,
        "slot": "4103",
        "type": "t_string_storage"
      },
      {
        "astId": 868,
        "contract": "contracts/Kazo.sol:Kazo",
        "label": "whitelistMintPrice",
        "offset": 0,
        "slot": "4104",
        "type": "t_uint256"
      },
      {
        "astId": 871,
        "contract": "contracts/Kazo.sol:Kazo",
        "label": "whitelistMaxMint",
        "offset": 0,
        "slot": "4105",
        "type": "t_uint16"
      },
      {
        "astId": 874,
        "contract": "contracts/Kazo.sol:Kazo",
        "label": "revealed",
        "offset": 2,
        "slot": "4105",
        "type": "t_bool"
      },
      {
        "astId": 879,
        "contract": "contracts/Kazo.sol:Kazo",
        "label": "whitelistMintCount",
        "offset": 0,
        "slot": "4106",
        "type": "t_mapping(t_address,t_uint16)"
      },
      {
        "astId": 884,
        "contract": "contracts/Kazo.sol:Kazo",
        "label": "hasMinted",
        "offset": 0,
        "slot": "4107",
        "type": "t_mapping(t_address,t_bool)"
      }
    ],
    "types": {
      "t_address": {
        "encoding": "inplace",
        "label": "address",
        "numberOfBytes": "20"
      },
      "t_array(t_uint16)65536_storage": {
        "base": "t_uint16",
        "encoding": "inplace",
        "label": "uint16[65536]",
        "numberOfBytes": "131072"
      },
      "t_bool": {
        "encoding": "inplace",
        "label": "bool",
        "numberOfBytes": "1"
      },
      "t_mapping(t_address,t_bool)": {
        "encoding": "mapping",
        "key": "t_address",
        "label": "mapping(address => bool)",
        "numberOfBytes": "32",
        "value": "t_bool"
      },
      "t_mapping(t_address,t_uint16)": {
        "encoding": "mapping",
        "key": "t_address",
        "label": "mapping(address => uint16)",
        "numberOfBytes": "32",
        "value": "t_uint16"
      },
      "t_mapping(t_uint256,t_struct(RoyaltyInfo)32_storage)": {
        "encoding": "mapping",
        "key": "t_uint256",
        "label": "mapping(uint256 => struct ERC2981.RoyaltyInfo)",
        "numberOfBytes": "32",
        "value": "t_struct(RoyaltyInfo)32_storage"
      },
      "t_string_storage": {
        "encoding": "bytes",
        "label": "string",
        "numberOfBytes": "32"
      },
      "t_struct(RoyaltyInfo)32_storage": {
        "encoding": "inplace",
        "label": "struct ERC2981.RoyaltyInfo",
        "members": [
          {
            "astId": 29,
            "contract": "contracts/Kazo.sol:Kazo",
            "label": "receiver",
            "offset": 0,
            "slot": "0",
            "type": "t_address"
          },
          {
            "astId": 31,
            "contract": "contracts/Kazo.sol:Kazo",
            "label": "royaltyFraction",
            "offset": 20,
            "slot": "0",
            "type": "t_uint96"
          }
        ],
        "numberOfBytes": "32"
      },
      "t_uint16": {
        "encoding": "inplace",
        "label": "uint16",
        "numberOfBytes": "2"
      },
      "t_uint256": {
        "encoding": "inplace",
        "label": "uint256",
        "numberOfBytes": "32"
      },
      "t_uint8": {
        "encoding": "inplace",
        "label": "uint8",
        "numberOfBytes": "1"
      },
      "t_uint96": {
        "encoding": "inplace",
        "label": "uint96",
        "numberOfBytes": "12"
      }
    }
  }
}