{
  "address": "0x0f844c528B1699C455D9D898F9395240e4D73911",
  "abi": [
    {
      "inputs": [
        {
          "internalType": "string",
          "name": "_name",
          "type": "string"
        },
        {
          "internalType": "string",
          "name": "_symbol",
          "type": "string"
        },
        {
          "internalType": "string",
          "name": "_baseURI",
          "type": "string"
        },
        {
          "internalType": "uint16",
          "name": "maxSupply_",
          "type": "uint16"
        },
        {
          "internalType": "address",
          "name": "withdrawAddress",
          "type": "address"
        },
        {
          "internalType": "address",
          "name": "_whitelistSignerAddress",
          "type": "address"
        },
        {
          "internalType": "address",
          "name": "_incentiveAddress",
          "type": "address"
        },
        {
          "internalType": "uint16",
          "name": "_whitelistMaxMint",
          "type": "uint16"
        },
        {
          "internalType": "uint256",
          "name": "_whitelistMintPrice",
          "type": "uint256"
        },
        {
          "internalType": "uint256",
          "name": "_publicMintPrice",
          "type": "uint256"
        },
        {
          "internalType": "uint96",
          "name": "_feeNumerator",
          "type": "uint96"
        }
      ],
      "stateMutability": "nonpayable",
      "type": "constructor"
    },
    {
      "inputs": [],
      "name": "AccountBalanceOverflow",
      "type": "error"
    },
    {
      "inputs": [],
      "name": "AlreadyInitialized",
      "type": "error"
    },
    {
      "inputs": [],
      "name": "BalanceQueryForZeroAddress",
      "type": "error"
    },
    {
      "inputs": [],
      "name": "InvalidTokenId",
      "type": "error"
    },
    {
      "inputs": [],
      "name": "NewOwnerIsZeroAddress",
      "type": "error"
    },
    {
      "inputs": [],
      "name": "NoHandoverRequest",
      "type": "error"
    },
    {
      "inputs": [],
      "name": "NoMoreTokenIds",
      "type": "error"
    },
    {
      "inputs": [],
      "name": "NotOwnerNorApproved",
      "type": "error"
    },
    {
      "inputs": [],
      "name": "TokenAlreadyExists",
      "type": "error"
    },
    {
      "inputs": [],
      "name": "TokenDoesNotExist",
      "type": "error"
    },
    {
      "inputs": [],
      "name": "TransferFromIncorrectOwner",
      "type": "error"
    },
    {
      "inputs": [],
      "name": "TransferToNonERC721ReceiverImplementer",
      "type": "error"
    },
    {
      "inputs": [],
      "name": "TransferToZeroAddress",
      "type": "error"
    },
    {
      "inputs": [],
      "name": "Unauthorized",
      "type": "error"
    },
    {
      "inputs": [],
      "name": "WithdrawFailed",
      "type": "error"
    },
    {
      "anonymous": false,
      "inputs": [
        {
          "indexed": true,
          "internalType": "address",
          "name": "owner",
          "type": "address"
        },
        {
          "indexed": true,
          "internalType": "address",
          "name": "account",
          "type": "address"
        },
        {
          "indexed": true,
          "internalType": "uint256",
          "name": "id",
          "type": "uint256"
        }
      ],
      "name": "Approval",
      "type": "event"
    },
    {
      "anonymous": false,
      "inputs": [
        {
          "indexed": true,
          "internalType": "address",
          "name": "owner",
          "type": "address"
        },
        {
          "indexed": true,
          "internalType": "address",
          "name": "operator",
          "type": "address"
        },
        {
          "indexed": false,
          "internalType": "bool",
          "name": "isApproved",
          "type": "bool"
        }
      ],
      "name": "ApprovalForAll",
      "type": "event"
    },
    {
      "anonymous": false,
      "inputs": [
        {
          "indexed": true,
          "internalType": "address",
          "name": "pendingOwner",
          "type": "address"
        }
      ],
      "name": "OwnershipHandoverCanceled",
      "type": "event"
    },
    {
      "anonymous": false,
      "inputs": [
        {
          "indexed": true,
          "internalType": "address",
          "name": "pendingOwner",
          "type": "address"
        }
      ],
      "name": "OwnershipHandoverRequested",
      "type": "event"
    },
    {
      "anonymous": false,
      "inputs": [
        {
          "indexed": true,
          "internalType": "address",
          "name": "oldOwner",
          "type": "address"
        },
        {
          "indexed": true,
          "internalType": "address",
          "name": "newOwner",
          "type": "address"
        }
      ],
      "name": "OwnershipTransferred",
      "type": "event"
    },
    {
      "anonymous": false,
      "inputs": [
        {
          "indexed": false,
          "internalType": "uint8",
          "name": "newStage",
          "type": "uint8"
        }
      ],
      "name": "StageChanged",
      "type": "event"
    },
    {
      "anonymous": false,
      "inputs": [
        {
          "indexed": true,
          "internalType": "address",
          "name": "from",
          "type": "address"
        },
        {
          "indexed": true,
          "internalType": "address",
          "name": "to",
          "type": "address"
        },
        {
          "indexed": true,
          "internalType": "uint256",
          "name": "id",
          "type": "uint256"
        }
      ],
      "name": "Transfer",
      "type": "event"
    },
    {
      "inputs": [],
      "name": "MAX_SUPPLY",
      "outputs": [
        {
          "internalType": "uint16",
          "name": "",
          "type": "uint16"
        }
      ],
      "stateMutability": "view",
      "type": "function"
    },
    {
      "inputs": [],
      "name": "TEAM_ADDRESS",
      "outputs": [
        {
          "internalType": "address",
          "name": "",
          "type": "address"
        }
      ],
      "stateMutability": "view",
      "type": "function"
    },
    {
      "inputs": [
        {
          "internalType": "address",
          "name": "account",
          "type": "address"
        },
        {
          "internalType": "uint256",
          "name": "id",
          "type": "uint256"
        }
      ],
      "name": "approve",
      "outputs": [],
      "stateMutability": "payable",
      "type": "function"
    },
    {
      "inputs": [
        {
          "internalType": "address",
          "name": "owner",
          "type": "address"
        }
      ],
      "name": "balanceOf",
      "outputs": [
        {
          "internalType": "uint256",
          "name": "result",
          "type": "uint256"
        }
      ],
      "stateMutability": "view",
      "type": "function"
    },
    {
      "inputs": [],
      "name": "baseURI",
      "outputs": [
        {
          "internalType": "string",
          "name": "",
          "type": "string"
        }
      ],
      "stateMutability": "view",
      "type": "function"
    },
    {
      "inputs": [],
      "name": "cancelOwnershipHandover",
      "outputs": [],
      "stateMutability": "payable",
      "type": "function"
    },
    {
      "inputs": [
        {
          "internalType": "address",
          "name": "pendingOwner",
          "type": "address"
        }
      ],
      "name": "completeOwnershipHandover",
      "outputs": [],
      "stateMutability": "payable",
      "type": "function"
    },
    {
      "inputs": [
        {
          "internalType": "uint256",
          "name": "id",
          "type": "uint256"
        }
      ],
      "name": "getApproved",
      "outputs": [
        {
          "internalType": "address",
          "name": "result",
          "type": "address"
        }
      ],
      "stateMutability": "view",
      "type": "function"
    },
    {
      "inputs": [
        {
          "internalType": "address",
          "name": "",
          "type": "address"
        }
      ],
      "name": "hasMinted",
      "outputs": [
        {
          "internalType": "bool",
          "name": "",
          "type": "bool"
        }
      ],
      "stateMutability": "view",
      "type": "function"
    },
    {
      "inputs": [
        {
          "internalType": "address",
          "name": "owner",
          "type": "address"
        },
        {
          "internalType": "address",
          "name": "operator",
          "type": "address"
        }
      ],
      "name": "isApprovedForAll",
      "outputs": [
        {
          "internalType": "bool",
          "name": "result",
          "type": "bool"
        }
      ],
      "stateMutability": "view",
      "type": "function"
    },
    {
      "inputs": [],
      "name": "name",
      "outputs": [
        {
          "internalType": "string",
          "name": "",
          "type": "string"
        }
      ],
      "stateMutability": "view",
      "type": "function"
    },
    {
      "inputs": [],
      "name": "owner",
      "outputs": [
        {
          "internalType": "address",
          "name": "result",
          "type": "address"
        }
      ],
      "stateMutability": "view",
      "type": "function"
    },
    {
      "inputs": [
        {
          "internalType": "uint256",
          "name": "id",
          "type": "uint256"
        }
      ],
      "name": "ownerOf",
      "outputs": [
        {
          "internalType": "address",
          "name": "result",
          "type": "address"
        }
      ],
      "stateMutability": "view",
      "type": "function"
    },
    {
      "inputs": [
        {
          "internalType": "address",
          "name": "pendingOwner",
          "type": "address"
        }
      ],
      "name": "ownershipHandoverExpiresAt",
      "outputs": [
        {
          "internalType": "uint256",
          "name": "result",
          "type": "uint256"
        }
      ],
      "stateMutability": "view",
      "type": "function"
    },
    {
      "inputs": [
        {
          "internalType": "uint256",
          "name": "_amount",
          "type": "uint256"
        }
      ],
      "name": "publicMint",
      "outputs": [],
      "stateMutability": "payable",
      "type": "function"
    },
    {
      "inputs": [],
      "name": "publicMintPrice",
      "outputs": [
        {
          "internalType": "uint256",
          "name": "",
          "type": "uint256"
        }
      ],
      "stateMutability": "view",
      "type": "function"
    },
    {
      "inputs": [],
      "name": "renounceOwnership",
      "outputs": [],
      "stateMutability": "payable",
      "type": "function"
    },
    {
      "inputs": [],
      "name": "requestOwnershipHandover",
      "outputs": [],
      "stateMutability": "payable",
      "type": "function"
    },
    {
      "inputs": [
        {
          "internalType": "string",
          "name": "_baseURI",
          "type": "string"
        }
      ],
      "name": "reveal",
      "outputs": [],
      "stateMutability": "nonpayable",
      "type": "function"
    },
    {
      "inputs": [],
      "name": "revealed",
      "outputs": [
        {
          "internalType": "bool",
          "name": "",
          "type": "bool"
        }
      ],
      "stateMutability": "view",
      "type": "function"
    },
    {
      "inputs": [
        {
          "internalType": "uint256",
          "name": "tokenId",
          "type": "uint256"
        },
        {
          "internalType": "uint256",
          "name": "salePrice",
          "type": "uint256"
        }
      ],
      "name": "royaltyInfo",
      "outputs": [
        {
          "internalType": "address",
          "name": "",
          "type": "address"
        },
        {
          "internalType": "uint256",
          "name": "",
          "type": "uint256"
        }
      ],
      "stateMutability": "view",
      "type": "function"
    },
    {
      "inputs": [
        {
          "internalType": "address",
          "name": "from",
          "type": "address"
        },
        {
          "internalType": "address",
          "name": "to",
          "type": "address"
        },
        {
          "internalType": "uint256",
          "name": "id",
          "type": "uint256"
        }
      ],
      "name": "safeTransferFrom",
      "outputs": [],
      "stateMutability": "payable",
      "type": "function"
    },
    {
      "inputs": [
        {
          "internalType": "address",
          "name": "from",
          "type": "address"
        },
        {
          "internalType": "address",
          "name": "to",
          "type": "address"
        },
        {
          "internalType": "uint256",
          "name": "id",
          "type": "uint256"
        },
        {
          "internalType": "bytes",
          "name": "data",
          "type": "bytes"
        }
      ],
      "name": "safeTransferFrom",
      "outputs": [],
      "stateMutability": "payable",
      "type": "function"
    },
    {
      "inputs": [
        {
          "internalType": "address",
          "name": "operator",
          "type": "address"
        },
        {
          "internalType": "bool",
          "name": "isApproved",
          "type": "bool"
        }
      ],
      "name": "setApprovalForAll",
      "outputs": [],
      "stateMutability": "nonpayable",
      "type": "function"
    },
    {
      "inputs": [
        {
          "internalType": "string",
          "name": "_baseURI_",
          "type": "string"
        }
      ],
      "name": "setBaseURI",
      "outputs": [],
      "stateMutability": "nonpayable",
      "type": "function"
    },
    {
      "inputs": [
        {
          "internalType": "address",
          "name": "_receiver",
          "type": "address"
        },
        {
          "internalType": "uint96",
          "name": "_feeNumerator",
          "type": "uint96"
        }
      ],
      "name": "setDefaultRoyalty",
      "outputs": [],
      "stateMutability": "nonpayable",
      "type": "function"
    },
    {
      "inputs": [
        {
          "internalType": "uint256",
          "name": "_publicMintPrice",
          "type": "uint256"
        }
      ],
      "name": "setPublicMintPrice",
      "outputs": [],
      "stateMutability": "nonpayable",
      "type": "function"
    },
    {
      "inputs": [
        {
          "internalType": "uint8",
          "name": "_newStage",
          "type": "uint8"
        }
      ],
      "name": "setStage",
      "outputs": [],
      "stateMutability": "nonpayable",
      "type": "function"
    },
    {
      "inputs": [
        {
          "internalType": "uint256",
          "name": "_tokenId",
          "type": "uint256"
        },
        {
          "internalType": "address",
          "name": "_receiver",
          "type": "address"
        },
        {
          "internalType": "uint96",
          "name": "_feeNumerator",
          "type": "uint96"
        }
      ],
      "name": "setTokenRoyalty",
      "outputs": [],
      "stateMutability": "nonpayable",
      "type": "function"
    },
    {
      "inputs": [
        {
          "internalType": "uint256",
          "name": "_whitelistMintPrice",
          "type": "uint256"
        }
      ],
      "name": "setWhitelistMintPrice",
      "outputs": [],
      "stateMutability": "nonpayable",
      "type": "function"
    },
    {
      "inputs": [
        {
          "internalType": "address",
          "name": "_newSigner",
          "type": "address"
        }
      ],
      "name": "setWhitelistSignerAddress",
      "outputs": [],
      "stateMutability": "nonpayable",
      "type": "function"
    },
    {
      "inputs": [
        {
          "internalType": "address",
          "name": "_newWithdrawAddress",
          "type": "address"
        }
      ],
      "name": "setWithdrawAddress",
      "outputs": [],
      "stateMutability": "nonpayable",
      "type": "function"
    },
    {
      "inputs": [],
      "name": "stage",
      "outputs": [
        {
          "internalType": "uint8",
          "name": "",
          "type": "uint8"
        }
      ],
      "stateMutability": "view",
      "type": "function"
    },
    {
      "inputs": [
        {
          "internalType": "bytes4",
          "name": "interfaceId",
          "type": "bytes4"
        }
      ],
      "name": "supportsInterface",
      "outputs": [
        {
          "internalType": "bool",
          "name": "",
          "type": "bool"
        }
      ],
      "stateMutability": "view",
      "type": "function"
    },
    {
      "inputs": [],
      "name": "symbol",
      "outputs": [
        {
          "internalType": "string",
          "name": "",
          "type": "string"
        }
      ],
      "stateMutability": "view",
      "type": "function"
    },
    {
      "inputs": [
        {
          "internalType": "uint256",
          "name": "tokenId",
          "type": "uint256"
        }
      ],
      "name": "tokenURI",
      "outputs": [
        {
          "internalType": "string",
          "name": "",
          "type": "string"
        }
      ],
      "stateMutability": "view",
      "type": "function"
    },
    {
      "inputs": [],
      "name": "totalSupply",
      "outputs": [
        {
          "internalType": "uint256",
          "name": "",
          "type": "uint256"
        }
      ],
      "stateMutability": "view",
      "type": "function"
    },
    {
      "inputs": [
        {
          "internalType": "address",
          "name": "from",
          "type": "address"
        },
        {
          "internalType": "address",
          "name": "to",
          "type": "address"
        },
        {
          "internalType": "uint256",
          "name": "id",
          "type": "uint256"
        }
      ],
      "name": "transferFrom",
      "outputs": [],
      "stateMutability": "payable",
      "type": "function"
    },
    {
      "inputs": [
        {
          "internalType": "address",
          "name": "newOwner",
          "type": "address"
        }
      ],
      "name": "transferOwnership",
      "outputs": [],
      "stateMutability": "payable",
      "type": "function"
    },
    {
      "inputs": [],
      "name": "whitelistMaxMint",
      "outputs": [
        {
          "internalType": "uint16",
          "name": "",
          "type": "uint16"
        }
      ],
      "stateMutability": "view",
      "type": "function"
    },
    {
      "inputs": [
        {
          "internalType": "uint256",
          "name": "_amount",
          "type": "uint256"
        },
        {
          "internalType": "bytes",
          "name": "_nonce",
          "type": "bytes"
        },
        {
          "internalType": "bytes",
          "name": "_signature",
          "type": "bytes"
        }
      ],
      "name": "whitelistMint",
      "outputs": [],
      "stateMutability": "payable",
      "type": "function"
    },
    {
      "inputs": [
        {
          "internalType": "address",
          "name": "",
          "type": "address"
        }
      ],
      "name": "whitelistMintCount",
      "outputs": [
        {
          "internalType": "uint16",
          "name": "",
          "type": "uint16"
        }
      ],
      "stateMutability": "view",
      "type": "function"
    },
    {
      "inputs": [],
      "name": "whitelistMintPrice",
      "outputs": [
        {
          "internalType": "uint256",
          "name": "",
          "type": "uint256"
        }
      ],
      "stateMutability": "view",
      "type": "function"
    },
    {
      "inputs": [],
      "name": "whitelistSignerAddress",
      "outputs": [
        {
          "internalType": "address",
          "name": "",
          "type": "address"
        }
      ],
      "stateMutability": "view",
      "type": "function"
    },
    {
      "inputs": [],
      "name": "withdraw",
      "outputs": [],
      "stateMutability": "nonpayable",
      "type": "function"
    },
    {
      "inputs": [],
      "name": "withdrawAddress",
      "outputs": [
        {
          "internalType": "address",
          "name": "",
          "type": "address"
        }
      ],
      "stateMutability": "view",
      "type": "function"
    }
  ],
  "transactionHash": "0x765b4637ba8a396c4dc9868dd4502aae9f1f7bd0d9a31f0869f51ef06c9dfc5e",
  "args": [
    "KAZO",
    "KAZO",
    "ipfs://bafybeihoqbdoajoihcglk6ydim7bfemkcvo33dnfuobxyjhskiu6gq5fja/",
    5000,
    "0x6A8f07700CaF7d76BA3Ef4E8C8d0674894587877",
    "0xBDfAAD57daecf05786a5Fca0dB9BB0c7Ea2c04E0",
    "0x81A8403887CeB1f6b6AA8A2C14eDE31DB0D8744D",
    5,
    "8000000000000000",
    "10000000000000000",
    500
  ],
  "numDeployments": 7,
  "solcInputHash": "c574d5f6373440e6539e6ff8f5df7d72",
  "bytecode": "0x60a06040523480156200001157600080fd5b50604051620035a1380380620035a1833981016040819052620000349162000737565b61ffff8816608081905260038054600280546001600160a01b03808d166001600160a01b031992831617909255908a16600160a81b90940216600162ffff0160a01b0319909116179190911790556110048290558a8a8a8a8a8a876110066200009e8882620008eb565b50611007620000ae8782620008eb565b50611005620000be8682620008eb565b5050506110088890555050611009805461ffff191661ffff891617905550620000ec91508690508262000112565b620000f73362000217565b6200010162000253565b505050505050505050505062000a59565b6127106001600160601b0382161115620001865760405162461bcd60e51b815260206004820152602a60248201527f455243323938313a20726f79616c7479206665652077696c6c206578636565646044820152692073616c65507269636560b01b60648201526084015b60405180910390fd5b6001600160a01b038216620001de5760405162461bcd60e51b815260206004820152601960248201527f455243323938313a20696e76616c69642072656365697665720000000000000060448201526064016200017d565b604080518082019091526001600160a01b039092168083526001600160601b039091166020909201829052600160a01b90910217600055565b6001600160a01b0316638b78c6d8198190558060007f8be0079c531659141344cd1fd0a4f28419497f9722a3daafe3b4186f6b6457e08180a350565b620002746064730f768d8e84a04475571e807206b98840da5e887962000276565b565b60805160035461ffff808316928592600160a81b900482169003166200029d9190620009cd565b1115620002ed5760405162461bcd60e51b815260206004820152601460248201527f4578636565646564204d617820537570706c792100000000000000000000000060448201526064016200017d565b60005b828110156200031d5760006200030562000322565b905062000313838262000529565b50600101620002f0565b505050565b600354600090600160a81b900461ffff16808203620003545760405163aeb0cc9b60e01b815260040160405180910390fd5b60006200036182620005da565b90506000620003718383620009e9565b905060006004826201000081106200038d576200038d62000a0c565b601091828204019190066002029054906101000a900461ffff1661ffff169050600081600003620003c0575081620003c3565b50805b6000620003d260018762000a22565b9050808414620004d8576000600482620100008110620003f657620003f662000a0c565b601091828204019190066002029054906101000a900461ffff1661ffff1690508060000362000463578160048662010000811062000438576200043862000a0c565b601091828204019190066002026101000a81548161ffff021916908361ffff160217905550620004d6565b806004866201000081106200047c576200047c62000a0c565b601091828204019190066002026101000a81548161ffff021916908361ffff160217905550600482620100008110620004b957620004b962000a0c565b601091828204019190066002026101000a81549061ffff02191690555b505b60038054601590620004f590600160a81b900461ffff1662000a38565b91906101000a81548161ffff021916908361ffff1602179055508160016200051e9190620009cd565b965050505050505090565b6001600160a01b039091169081620005495763ea553b346000526004601cfd5b80600052673ec412a9852d173d60c11b601c5260206000208101810180548060601b156200057f5763c991cbb16000526004601cfd5b831790556000829052601c600c20805460010163ffffffff8116620005ac576301336cea6000526004601cfd5b9055808260007fddf252ad1be2c89b69c2b068fc378daa952ba7f163c4a11628f55a4df523b3ef8138a45050565b600044620005ea60014362000a22565b6040805160208101939093529040908201523060608201526080810183905260a00160408051601f19818403018152919052805160209091012092915050565b634e487b7160e01b600052604160045260246000fd5b600082601f8301126200065257600080fd5b81516001600160401b03808211156200066f576200066f6200062a565b604051601f8301601f19908116603f011681019082821181831017156200069a576200069a6200062a565b81604052838152602092508683858801011115620006b757600080fd5b600091505b83821015620006db5785820183015181830184015290820190620006bc565b600093810190920192909252949350505050565b805161ffff811681146200070257600080fd5b919050565b80516001600160a01b03811681146200070257600080fd5b80516001600160601b03811681146200070257600080fd5b60008060008060008060008060008060006101608c8e0312156200075a57600080fd5b8b516001600160401b038111156200077157600080fd5b6200077f8e828f0162000640565b60208e0151909c5090506001600160401b038111156200079e57600080fd5b620007ac8e828f0162000640565b60408e0151909b5090506001600160401b03811115620007cb57600080fd5b620007d98e828f0162000640565b995050620007ea60608d01620006ef565b9750620007fa60808d0162000707565b96506200080a60a08d0162000707565b95506200081a60c08d0162000707565b94506200082a60e08d01620006ef565b93506101008c015192506101208c015191506200084b6101408d016200071f565b90509295989b509295989b9093969950565b600181811c908216806200087257607f821691505b6020821081036200089357634e487b7160e01b600052602260045260246000fd5b50919050565b601f8211156200031d57600081815260208120601f850160051c81016020861015620008c25750805b601f850160051c820191505b81811015620008e357828155600101620008ce565b505050505050565b81516001600160401b038111156200090757620009076200062a565b6200091f816200091884546200085d565b8462000899565b602080601f8311600181146200095757600084156200093e5750858301515b600019600386901b1c1916600185901b178555620008e3565b600085815260208120601f198616915b82811015620009885788860151825594840194600190910190840162000967565b5085821015620009a75787850151600019600388901b60f8161c191681555b5050505050600190811b01905550565b634e487b7160e01b600052601160045260246000fd5b80820180821115620009e357620009e3620009b7565b92915050565b60008262000a0757634e487b7160e01b600052601260045260246000fd5b500690565b634e487b7160e01b600052603260045260246000fd5b81810381811115620009e357620009e3620009b7565b600061ffff82168062000a4f5762000a4f620009b7565b6000190192915050565b608051612b0962000a98600039600081816104310152818161052d01528181611876015281816118c1015281816119a401526119ef0152612b096000f3fe6080604052600436106102fd5760003560e01c806354d1f13d1161018f578063a22cb465116100e1578063dc53fd921161008a578063f2fde38b11610064578063f2fde38b146108ee578063f504764d14610901578063fee81cf41461092157600080fd5b8063dc53fd921461088e578063e985e9c5146108a5578063f04e283e146108db57600080fd5b8063c040e6b8116100bb578063c040e6b81461080a578063c87b56dd1461084e578063ce3cd9971461086e57600080fd5b8063a22cb465146107b7578063a611708e146107d7578063b88d4fde146107f757600080fd5b80636c0360eb11610143578063722e141d1161011d578063722e141d146107525780638da5cb5b1461076e57806395d89b41146107a257600080fd5b80636c0360eb1461071557806370a082311461072a578063715018a61461074a57600080fd5b80635944c753116101745780635944c753146106b55780635d82cf6e146106d55780636352211e146106f557600080fd5b806354d1f13d1461068d57806355f804b31461069557600080fd5b80632a55205a116102535780633ab1a494116101fc57806342842e0e116101d657806342842e0e146106395780634c2612471461064c578063518302271461066c57600080fd5b80633ab1a494146105d25780633bdf4ac6146105f25780633ccfd60b1461062457600080fd5b8063351509a81161022d578063351509a81461056257806335c6aaf81461058a57806338e21cce146105a157600080fd5b80632a55205a146104bc5780632db115441461050857806332cb6b0c1461051b57600080fd5b80631581b600116102b557806324436f771161028f57806324436f771461047457806324fccf251461048757806325692962146104b457600080fd5b80631581b600146103d357806318160ddd1461040057806323b872dd1461046157600080fd5b806306fdde03116102e657806306fdde0314610359578063081812fc1461037b578063095ea7b3146103c057600080fd5b806301ffc9a71461030257806304634d8d14610337575b600080fd5b34801561030e57600080fd5b5061032261031d3660046121cc565b610954565b60405190151581526020015b60405180910390f35b34801561034357600080fd5b50610357610352366004612255565b610991565b005b34801561036557600080fd5b5061036e6109a7565b60405161032e91906122ac565b34801561038757600080fd5b5061039b6103963660046122fd565b610a3a565b60405173ffffffffffffffffffffffffffffffffffffffff909116815260200161032e565b6103576103ce366004612316565b610a8e565b3480156103df57600080fd5b5060025461039b9073ffffffffffffffffffffffffffffffffffffffff1681565b34801561040c57600080fd5b506003547501000000000000000000000000000000000000000000900461ffff9081167f000000000000000000000000000000000000000000000000000000000000000003165b60405190815260200161032e565b61035761046f366004612340565b610a99565b6103576104823660046123be565b610bf0565b34801561049357600080fd5b5060035461039b9073ffffffffffffffffffffffffffffffffffffffff1681565b610357610d31565b3480156104c857600080fd5b506104dc6104d7366004612438565b610d81565b6040805173ffffffffffffffffffffffffffffffffffffffff909316835260208301919091520161032e565b6103576105163660046122fd565b610e7a565b34801561052757600080fd5b5061054f7f000000000000000000000000000000000000000000000000000000000000000081565b60405161ffff909116815260200161032e565b34801561056e57600080fd5b5061039b730f768d8e84a04475571e807206b98840da5e887981565b34801561059657600080fd5b506104536110085481565b3480156105ad57600080fd5b506103226105bc36600461245a565b61100b6020526000908152604090205460ff1681565b3480156105de57600080fd5b506103576105ed36600461245a565b610ef2565b3480156105fe57600080fd5b5061054f61060d36600461245a565b61100a6020526000908152604090205461ffff1681565b34801561063057600080fd5b50610357610f41565b610357610647366004612340565b610fde565b34801561065857600080fd5b506103576106673660046124a4565b61100b565b34801561067857600080fd5b50611009546103229062010000900460ff1681565b61035761104a565b3480156106a157600080fd5b506103576106b03660046124a4565b611086565b3480156106c157600080fd5b506103576106d0366004612573565b61109b565b3480156106e157600080fd5b506103576106f03660046122fd565b6110ae565b34801561070157600080fd5b5061039b6107103660046122fd565b6110bc565b34801561072157600080fd5b5061036e61111c565b34801561073657600080fd5b5061045361074536600461245a565b6111ab565b6103576111fb565b34801561075e57600080fd5b506110095461054f9061ffff1681565b34801561077a57600080fd5b507fffffffffffffffffffffffffffffffffffffffffffffffffffffffff748739275461039b565b3480156107ae57600080fd5b5061036e61120f565b3480156107c357600080fd5b506103576107d23660046125af565b61121f565b3480156107e357600080fd5b506103576107f23660046122fd565b611275565b6103576108053660046125eb565b611283565b34801561081657600080fd5b5060035461083c9074010000000000000000000000000000000000000000900460ff1681565b60405160ff909116815260200161032e565b34801561085a57600080fd5b5061036e6108693660046122fd565b6112de565b34801561087a57600080fd5b50610357610889366004612649565b6113b0565b34801561089a57600080fd5b506104536110045481565b3480156108b157600080fd5b506103226108c036600461266c565b601c52670a5a2e7a000000006008526000526030600c205490565b6103576108e936600461245a565b611438565b6103576108fc36600461245a565b611475565b34801561090d57600080fd5b5061035761091c36600461245a565b61149c565b34801561092d57600080fd5b5061045361093c36600461245a565b63389a75e1600c908152600091909152602090205490565b600061097c826301ffc9a760e09190911c9081146380ac58cd821417635b5e139f9091141790565b8061098b575061098b826114eb565b92915050565b610999611582565b6109a382826115b8565b5050565b606061100680546109b790612696565b80601f01602080910402602001604051908101604052809291908181526020018280546109e390612696565b8015610a305780601f10610a0557610100808354040283529160200191610a30565b820191906000526020600020905b815481529060010190602001808311610a1357829003601f168201915b5050505050905090565b6000816000527f7d8825530a5a2e7a000000000000000000000000000000000000000000000000601c52602060002082018201805460601b610a845763ceea21b66000526004601cfd5b6001015492915050565b6109a33383836116fd565b60008181527f7d8825530a5a2e7a0000000000000000000000000000000000000000000000003317601c526020902081018101805473ffffffffffffffffffffffffffffffffffffffff9485169493841693811691908286148302610b195782610b0b5763ceea21b66000526004601cfd5b63a11481006000526004601cfd5b84610b2c5763ea553b346000526004601cfd5b856000528160010154925082331486331417610b5a576030600c2054610b5a57634b6e7f186000526004601cfd5b8215610b6857600082600101555b85851818905550601c600c81812080547fffffffffffffffffffffffffffffffffffffffffffffffffffffffffffffffff019055600084905220805460010163ffffffff8116610bc0576301336cea6000526004601cfd5b90558082847fddf252ad1be2c89b69c2b068fc378daa952ba7f163c4a11628f55a4df523b3ef600038a45b505050565b60035460019074010000000000000000000000000000000000000000900460ff168114610c645760405162461bcd60e51b815260206004820152600c60248201527f57726f6e6720737461676521000000000000000000000000000000000000000060448201526064015b60405180910390fd5b6110095433600090815261100a602052604090205461ffff91821691610c8c91899116612718565b1115610cda5760405162461bcd60e51b815260206004820152601160248201527f4d6178206d696e742072656163686564210000000000000000000000000000006044820152606401610c5b565b33600090815261100a602052604081208054889290610cfe90849061ffff1661272b565b92506101000a81548161ffff021916908361ffff160217905550610d298686868686611008546117b3565b505050505050565b60006202a30067ffffffffffffffff164201905063389a75e1600c5233600052806020600c2055337fdbf36a107da19e49527a7176a1babf963b4b0ff8cde35ee35d6cd8f1f9ac7e1d600080a250565b600082815260016020908152604080832081518083019092525473ffffffffffffffffffffffffffffffffffffffff8116808352740100000000000000000000000000000000000000009091046bffffffffffffffffffffffff16928201929092528291610e3c57506040805180820190915260005473ffffffffffffffffffffffffffffffffffffffff811682527401000000000000000000000000000000000000000090046bffffffffffffffffffffffff1660208201525b602081015160009061271090610e60906bffffffffffffffffffffffff168761274d565b610e6a9190612793565b91519350909150505b9250929050565b60035460029074010000000000000000000000000000000000000000900460ff168114610ee95760405162461bcd60e51b815260206004820152600c60248201527f57726f6e672073746167652100000000000000000000000000000000000000006044820152606401610c5b565b6109a382611946565b610efa611582565b600280547fffffffffffffffffffffffff00000000000000000000000000000000000000001673ffffffffffffffffffffffffffffffffffffffff92909216919091179055565b60025460405160009173ffffffffffffffffffffffffffffffffffffffff169047908381818185875af1925050503d8060008114610f9b576040519150601f19603f3d011682016040523d82523d6000602084013e610fa0565b606091505b5050905080610fdb576040517f750b219c00000000000000000000000000000000000000000000000000000000815260040160405180910390fd5b50565b610fe9838383610a99565b813b15610beb57610beb83838360405180602001604052806000815250611a74565b611013611582565b61100980547fffffffffffffffffffffffffffffffffffffffffffffffffffffffffff00ffff1662010000179055610fdb81611086565b63389a75e1600c523360005260006020600c2055337ffa7b8eab7da67f412cc9575ed43464468f9bfbae89d1675917346ca6d8fe3c92600080a2565b61108e611582565b6110056109a382826127ed565b6110a3611582565b610beb838383611af8565b6110b6611582565b61100455565b60008181527f7d8825530a5a2e7a000000000000000000000000000000000000000000000000601c5260209020810181015473ffffffffffffffffffffffffffffffffffffffff16806111175763ceea21b66000526004601cfd5b919050565b611005805461112a90612696565b80601f016020809104026020016040519081016040528092919081815260200182805461115690612696565b80156111a35780601f10611178576101008083540402835291602001916111a3565b820191906000526020600020905b81548152906001019060200180831161118657829003601f168201915b505050505081565b6000816111c057638f4eb6046000526004601cfd5b7f7d8825530a5a2e7a000000000000000000000000000000000000000000000000601c528160005263ffffffff601c600c2054169050919050565b611203611582565b61120d6000611c4e565b565b606061100780546109b790612696565b801515905081601c52670a5a2e7a0000000060085233600052806030600c2055806000528160601b60601c337f17307eab39ab6107e8899845ad3d59bd9653f200f220920489ca2b5937696c3160206000a35050565b61127d611582565b61100855565b61128e858585610a99565b833b156112d7576112d785858585858080601f016020809104026020016040519081016040528093929190818152602001838380828437600092019190915250611a7492505050565b5050505050565b606060006113308360008181527f7d8825530a5a2e7a000000000000000000000000000000000000000000000000601c52602090208101015473ffffffffffffffffffffffffffffffffffffffff1690565b73ffffffffffffffffffffffffffffffffffffffff160361137d576040517f3f6cc76800000000000000000000000000000000000000000000000000000000815260040160405180910390fd5b61100561138983611cb4565b60405160200161139a929190612907565b6040516020818303038152906040529050919050565b6113b8611582565b600380547fffffffffffffffffffffff00ffffffffffffffffffffffffffffffffffffffff167401000000000000000000000000000000000000000060ff8416908102919091179091556040519081527f273467821f33675618854603ef917ebcec8a1a39f95c43d5564ed1aefab870b39060200160405180910390a150565b611440611582565b63389a75e1600c52806000526020600c20805442111561146857636f5e88186000526004601cfd5b60009055610fdb81611c4e565b61147d611582565b8060601b61149357637448fbae6000526004601cfd5b610fdb81611c4e565b6114a4611582565b600380547fffffffffffffffffffffffff00000000000000000000000000000000000000001673ffffffffffffffffffffffffffffffffffffffff92909216919091179055565b60007fffffffff0000000000000000000000000000000000000000000000000000000082167f2a55205a00000000000000000000000000000000000000000000000000000000148061098b57507f01ffc9a7000000000000000000000000000000000000000000000000000000007fffffffff0000000000000000000000000000000000000000000000000000000083161461098b565b7fffffffffffffffffffffffffffffffffffffffffffffffffffffffff7487392754331461120d576382b429006000526004601cfd5b6127106bffffffffffffffffffffffff8216111561163e5760405162461bcd60e51b815260206004820152602a60248201527f455243323938313a20726f79616c7479206665652077696c6c2065786365656460448201527f2073616c655072696365000000000000000000000000000000000000000000006064820152608401610c5b565b73ffffffffffffffffffffffffffffffffffffffff82166116a15760405162461bcd60e51b815260206004820152601960248201527f455243323938313a20696e76616c6964207265636569766572000000000000006044820152606401610c5b565b6040805180820190915273ffffffffffffffffffffffffffffffffffffffff9092168083526bffffffffffffffffffffffff90911660209092018290527401000000000000000000000000000000000000000090910217600055565b60001960601c8281169250838116935081600052837f7d8825530a5a2e7a00000000000000000000000000000000000000000000000017601c52602060002082018201805482169150816117595763ceea21b66000526004601cfd5b81851485151761177f57816000526030600c205461177f57634b6e7f186000526004601cfd5b6001018390558183827f8c5be1e5ebec7d5bd14f71427d1e84f3dd0314c0f7b2291e5b200ac8c7c3b925600038a450505050565b6117d03386868686600360149054906101000a900460ff16611d16565b61181c5760405162461bcd60e51b815260206004820152601260248201527f496e76616c6964205369676e61747572652100000000000000000000000000006044820152606401610c5b565b611826818761274d565b34146118745760405162461bcd60e51b815260206004820152601160248201527f496e73756666696369656e7420455448210000000000000000000000000000006044820152606401610c5b565b7f000000000000000000000000000000000000000000000000000000000000000061ffff16866118e560035461ffff750100000000000000000000000000000000000000000090910481167f0000000000000000000000000000000000000000000000000000000000000000031690565b6118ef9190612718565b111561193d5760405162461bcd60e51b815260206004820152601460248201527f4578636565646564204d617820537570706c79210000000000000000000000006044820152606401610c5b565b610d2986611dbd565b61100454611954908261274d565b34146119a25760405162461bcd60e51b815260206004820152601060248201527f496e73756666696369656e7420455448000000000000000000000000000000006044820152606401610c5b565b7f000000000000000000000000000000000000000000000000000000000000000061ffff1681611a1360035461ffff750100000000000000000000000000000000000000000090910481167f0000000000000000000000000000000000000000000000000000000000000000031690565b611a1d9190612718565b1115611a6b5760405162461bcd60e51b815260206004820152601460248201527f4578636565646564204d617820537570706c79210000000000000000000000006044820152606401610c5b565b610fdb81611dbd565b60405163150b7a028082523360208301528560601b60601c604083015283606083015260808083015282518060a08401528015611abb578060c08401826020870160045afa505b60208360a48301601c860160008a5af1611ade573d15611ade573d6000843e3d83fd5b508060e01b825114610d295763d1a57ed66000526004601cfd5b6127106bffffffffffffffffffffffff82161115611b7e5760405162461bcd60e51b815260206004820152602a60248201527f455243323938313a20726f79616c7479206665652077696c6c2065786365656460448201527f2073616c655072696365000000000000000000000000000000000000000000006064820152608401610c5b565b73ffffffffffffffffffffffffffffffffffffffff8216611be15760405162461bcd60e51b815260206004820152601b60248201527f455243323938313a20496e76616c696420706172616d657465727300000000006044820152606401610c5b565b60408051808201825273ffffffffffffffffffffffffffffffffffffffff93841681526bffffffffffffffffffffffff9283166020808301918252600096875260019052919094209351905190911674010000000000000000000000000000000000000000029116179055565b7fffffffffffffffffffffffffffffffffffffffffffffffffffffffff74873927805473ffffffffffffffffffffffffffffffffffffffff9092169182907f8be0079c531659141344cd1fd0a4f28419497f9722a3daafe3b4186f6b6457e0600080a355565b60606080604051019050602081016040526000815280600019835b928101926030600a8206018453600a900480611ccf5750508190037fffffffffffffffffffffffffffffffffffffffffffffffffffffffffffffffe0909101908152919050565b60008087878785604051602001611d3094939291906129d4565b604051602081830303815290604052805190602001209050611d9385858080601f016020809104026020016040519081016040528093929190818152602001838380828437600092019190915250611d8d9250859150611de79050565b90611e12565b60035473ffffffffffffffffffffffffffffffffffffffff91821691161498975050505050505050565b60005b818110156109a3576000611dd2611e6b565b9050611dde3382612090565b50600101611dc0565b6020527b19457468657265756d205369676e6564204d6573736167653a0a3332600052603c60042090565b6000604051825184600052606084015160001a602052602084015160405260408401516060526020600160806000604185145afa519250503d611e5d57638baa579f6000526004601cfd5b600060605260405292915050565b6003546000907501000000000000000000000000000000000000000000900461ffff16808203611ec7576040517faeb0cc9b00000000000000000000000000000000000000000000000000000000815260040160405180910390fd5b6000611ed282612160565b90506000611ee08383612a41565b90506000600482620100008110611ef957611ef9612a55565b601091828204019190066002029054906101000a900461ffff1661ffff169050600081600003611f2a575081611f2d565b50805b6000611f3a600187612a84565b9050808414612031576000600482620100008110611f5a57611f5a612a55565b601091828204019190066002029054906101000a900461ffff1661ffff16905080600003611fc25781600486620100008110611f9857611f98612a55565b601091828204019190066002026101000a81548161ffff021916908361ffff16021790555061202f565b80600486620100008110611fd857611fd8612a55565b601091828204019190066002026101000a81548161ffff021916908361ffff16021790555060048262010000811061201257612012612a55565b601091828204019190066002026101000a81549061ffff02191690555b505b6003805460159061205e907501000000000000000000000000000000000000000000900461ffff16612a97565b91906101000a81548161ffff021916908361ffff1602179055508160016120859190612718565b965050505050505090565b73ffffffffffffffffffffffffffffffffffffffff90911690816120bc5763ea553b346000526004601cfd5b806000527f7d8825530a5a2e7a000000000000000000000000000000000000000000000000601c5260206000208101810180548060601b156121065763c991cbb16000526004601cfd5b831790556000829052601c600c20805460010163ffffffff8116612132576301336cea6000526004601cfd5b9055808260007fddf252ad1be2c89b69c2b068fc378daa952ba7f163c4a11628f55a4df523b3ef8138a45050565b60004461216e600143612a84565b6040805160208101939093529040908201523060608201526080810183905260a001604080517fffffffffffffffffffffffffffffffffffffffffffffffffffffffffffffffe0818403018152919052805160209091012092915050565b6000602082840312156121de57600080fd5b81357fffffffff000000000000000000000000000000000000000000000000000000008116811461220e57600080fd5b9392505050565b803573ffffffffffffffffffffffffffffffffffffffff8116811461111757600080fd5b80356bffffffffffffffffffffffff8116811461111757600080fd5b6000806040838503121561226857600080fd5b61227183612215565b915061227f60208401612239565b90509250929050565b60005b838110156122a357818101518382015260200161228b565b50506000910152565b60208152600082518060208401526122cb816040850160208701612288565b601f017fffffffffffffffffffffffffffffffffffffffffffffffffffffffffffffffe0169190910160400192915050565b60006020828403121561230f57600080fd5b5035919050565b6000806040838503121561232957600080fd5b61233283612215565b946020939093013593505050565b60008060006060848603121561235557600080fd5b61235e84612215565b925061236c60208501612215565b9150604084013590509250925092565b60008083601f84011261238e57600080fd5b50813567ffffffffffffffff8111156123a657600080fd5b602083019150836020828501011115610e7357600080fd5b6000806000806000606086880312156123d657600080fd5b85359450602086013567ffffffffffffffff808211156123f557600080fd5b61240189838a0161237c565b9096509450604088013591508082111561241a57600080fd5b506124278882890161237c565b969995985093965092949392505050565b6000806040838503121561244b57600080fd5b50508035926020909101359150565b60006020828403121561246c57600080fd5b61220e82612215565b7f4e487b7100000000000000000000000000000000000000000000000000000000600052604160045260246000fd5b6000602082840312156124b657600080fd5b813567ffffffffffffffff808211156124ce57600080fd5b818401915084601f8301126124e257600080fd5b8135818111156124f4576124f4612475565b604051601f82017fffffffffffffffffffffffffffffffffffffffffffffffffffffffffffffffe0908116603f0116810190838211818310171561253a5761253a612475565b8160405282815287602084870101111561255357600080fd5b826020860160208301376000928101602001929092525095945050505050565b60008060006060848603121561258857600080fd5b8335925061259860208501612215565b91506125a660408501612239565b90509250925092565b600080604083850312156125c257600080fd5b6125cb83612215565b9150602083013580151581146125e057600080fd5b809150509250929050565b60008060008060006080868803121561260357600080fd5b61260c86612215565b945061261a60208701612215565b935060408601359250606086013567ffffffffffffffff81111561263d57600080fd5b6124278882890161237c565b60006020828403121561265b57600080fd5b813560ff8116811461220e57600080fd5b6000806040838503121561267f57600080fd5b61268883612215565b915061227f60208401612215565b600181811c908216806126aa57607f821691505b6020821081036126e3577f4e487b7100000000000000000000000000000000000000000000000000000000600052602260045260246000fd5b50919050565b7f4e487b7100000000000000000000000000000000000000000000000000000000600052601160045260246000fd5b8082018082111561098b5761098b6126e9565b61ffff818116838216019080821115612746576127466126e9565b5092915050565b808202811582820484141761098b5761098b6126e9565b7f4e487b7100000000000000000000000000000000000000000000000000000000600052601260045260246000fd5b6000826127a2576127a2612764565b500490565b601f821115610beb57600081815260208120601f850160051c810160208610156127ce5750805b601f850160051c820191505b81811015610d29578281556001016127da565b815167ffffffffffffffff81111561280757612807612475565b61281b816128158454612696565b846127a7565b602080601f83116001811461286e57600084156128385750858301515b7fffffffffffffffffffffffffffffffffffffffffffffffffffffffffffffffff600386901b1c1916600185901b178555610d29565b6000858152602081207fffffffffffffffffffffffffffffffffffffffffffffffffffffffffffffffe08616915b828110156128bb5788860151825594840194600190910190840161289c565b50858210156128f757878501517fffffffffffffffffffffffffffffffffffffffffffffffffffffffffffffffff600388901b60f8161c191681555b5050505050600190811b01905550565b600080845461291581612696565b6001828116801561292d57600181146129605761298f565b7fffffffffffffffffffffffffffffffffffffffffffffffffffffffffffffff008416875282151583028701945061298f565b8860005260208060002060005b858110156129865781548a82015290840190820161296d565b50505082870194505b5050505083516129a3818360208801612288565b7f2e6a736f6e0000000000000000000000000000000000000000000000000000009101908152600501949350505050565b7fffffffffffffffffffffffffffffffffffffffff0000000000000000000000008560601b1681528284601483013760f89190911b7fff00000000000000000000000000000000000000000000000000000000000000166014919092019081019190915260150192915050565b600082612a5057612a50612764565b500690565b7f4e487b7100000000000000000000000000000000000000000000000000000000600052603260045260246000fd5b8181038181111561098b5761098b6126e9565b600061ffff821680612aab57612aab6126e9565b7fffffffffffffffffffffffffffffffffffffffffffffffffffffffffffffffff019291505056fea2646970667358221220b941507b9a4300c9db062478dfb48083e9092b419b2c17c9a4cc675a9f61ad3364736f6c63430008130033",
  "devdoc": {
    "errors": {
      "AccountBalanceOverflow()": [
        {
          "details": "The recipient's balance has overflowed."
        }
      ],
      "AlreadyInitialized()": [
        {
          "details": "Cannot double-initialize."
        }
      ],
      "BalanceQueryForZeroAddress()": [
        {
          "details": "Cannot query the balance for the zero address."
        }
      ],
      "NewOwnerIsZeroAddress()": [
        {
          "details": "The `newOwner` cannot be the zero address."
        }
      ],
      "NoHandoverRequest()": [
        {
          "details": "The `pendingOwner` does not have a valid handover request."
        }
      ],
      "NotOwnerNorApproved()": [
        {
          "details": "Only the token owner or an approved account can manage the token."
        }
      ],
      "TokenAlreadyExists()": [
        {
          "details": "The token already exists."
        }
      ],
      "TokenDoesNotExist()": [
        {
          "details": "The token does not exist."
        }
      ],
      "TransferFromIncorrectOwner()": [
        {
          "details": "The token must be owned by `from`."
        }
      ],
      "TransferToNonERC721ReceiverImplementer()": [
        {
          "details": "Cannot safely transfer to a contract that does not implement the ERC721Receiver interface."
        }
      ],
      "TransferToZeroAddress()": [
        {
          "details": "Cannot mint or transfer to the zero address."
        }
      ],
      "Unauthorized()": [
        {
          "details": "The caller is not authorized to call the function."
        }
      ]
    },
    "events": {
      "Approval(address,address,uint256)": {
        "details": "Emitted when `owner` enables `account` to manage the `id` token."
      },
      "ApprovalForAll(address,address,bool)": {
        "details": "Emitted when `owner` enables or disables `operator` to manage all of their tokens."
      },
      "OwnershipHandoverCanceled(address)": {
        "details": "The ownership handover to `pendingOwner` has been canceled."
      },
      "OwnershipHandoverRequested(address)": {
        "details": "An ownership handover to `pendingOwner` has been requested."
      },
      "OwnershipTransferred(address,address)": {
        "details": "The ownership is transferred from `oldOwner` to `newOwner`. This event is intentionally kept the same as OpenZeppelin's Ownable to be compatible with indexers and [EIP-173](https://eips.ethereum.org/EIPS/eip-173), despite it not being as lightweight as a single argument event."
      },
      "Transfer(address,address,uint256)": {
        "details": "Emitted when token `id` is transferred from `from` to `to`."
      }
    },
    "kind": "dev",
    "methods": {
      "approve(address,uint256)": {
        "details": "Sets `account` as the approved account to manage token `id`. Requirements: - Token `id` must exist. - The caller must be the owner of the token,   or an approved operator for the token owner. Emits an {Approval} event."
      },
      "balanceOf(address)": {
        "details": "Returns the number of tokens owned by `owner`. Requirements: - `owner` must not be the zero address."
      },
      "cancelOwnershipHandover()": {
        "details": "Cancels the two-step ownership handover to the caller, if any."
      },
      "completeOwnershipHandover(address)": {
        "details": "Allows the owner to complete the two-step ownership handover to `pendingOwner`. Reverts if there is no existing ownership handover requested by `pendingOwner`."
      },
      "getApproved(uint256)": {
        "details": "Returns the account approved to manage token `id`. Requirements: - Token `id` must exist."
      },
      "isApprovedForAll(address,address)": {
        "details": "Returns whether `operator` is approved to manage the tokens of `owner`."
      },
      "name()": {
        "details": "Returns the name of the token collection",
        "returns": {
          "_0": "Name of the token collection"
        }
      },
      "owner()": {
        "details": "Returns the owner of the contract."
      },
      "ownerOf(uint256)": {
        "details": "Returns the owner of token `id`. Requirements: - Token `id` must exist."
      },
      "ownershipHandoverExpiresAt(address)": {
        "details": "Returns the expiry timestamp for the two-step ownership handover to `pendingOwner`."
      },
      "publicMint(uint256)": {
        "details": "Public Mint",
        "params": {
          "_amount": "Amount to mint"
        }
      },
      "renounceOwnership()": {
        "details": "Allows the owner to renounce their ownership."
      },
      "requestOwnershipHandover()": {
        "details": "Request a two-step ownership handover to the caller. The request will automatically expire in 48 hours (172800 seconds) by default."
      },
      "royaltyInfo(uint256,uint256)": {
        "details": "Returns how much royalty is owed and to whom, based on a sale price that may be denominated in any unit of exchange. The royalty amount is denominated and should be paid in that same unit of exchange."
      },
      "safeTransferFrom(address,address,uint256)": {
        "details": "Equivalent to `safeTransferFrom(from, to, id, \"\")`."
      },
      "safeTransferFrom(address,address,uint256,bytes)": {
        "details": "Transfers token `id` from `from` to `to`. Requirements: - Token `id` must exist. - `from` must be the owner of the token. - `to` cannot be the zero address. - The caller must be the owner of the token, or be approved to manage the token. - If `to` refers to a smart contract, it must implement   {IERC721Receiver-onERC721Received}, which is called upon a safe transfer. Emits a {Transfer} event."
      },
      "setApprovalForAll(address,bool)": {
        "details": "Sets whether `operator` is approved to manage the tokens of the caller. Emits an {ApprovalForAll} event."
      },
      "setBaseURI(string)": {
        "details": "Set base URI for token metadata",
        "params": {
          "_baseURI_": "New base URI"
        }
      },
      "setDefaultRoyalty(address,uint96)": {
        "params": {
          "_feeNumerator": "Fee numerator, in basis points",
          "_receiver": "Address to receive royalties"
        }
      },
      "setPublicMintPrice(uint256)": {
        "details": "Sets the mint price for public mint",
        "params": {
          "_publicMintPrice": "New public mint price"
        }
      },
      "setStage(uint8)": {
        "details": "Sets the stage",
        "params": {
          "_newStage": "New stage"
        }
      },
      "setTokenRoyalty(uint256,address,uint96)": {
        "params": {
          "_feeNumerator": "Fee numerator, in basis points",
          "_receiver": "Address to receive royalties",
          "_tokenId": "Token ID"
        }
      },
      "setWhitelistSignerAddress(address)": {
        "details": "Sets the backend whitelist signer address",
        "params": {
          "_newSigner": "New signer address"
        }
      },
      "setWithdrawAddress(address)": {
        "details": "Sets the withdraw address which mint funds are sent to",
        "params": {
          "_newWithdrawAddress": "New withdraw address"
        }
      },
      "supportsInterface(bytes4)": {
        "details": "Function to adhere to EIP-2981"
      },
      "symbol()": {
        "details": "Returns the symbol of the token collection",
        "returns": {
          "_0": "Symbol of the token collection"
        }
      },
      "tokenURI(uint256)": {
        "details": "Return the metadata URI for a token",
        "params": {
          "tokenId": "Token ID"
        },
        "returns": {
          "_0": "Metadata URI for token"
        }
      },
      "totalSupply()": {
        "details": "Total supply of tokens",
        "returns": {
          "_0": "Total supply of tokens"
        }
      },
      "transferFrom(address,address,uint256)": {
        "details": "Transfers token `id` from `from` to `to`. Requirements: - Token `id` must exist. - `from` must be the owner of the token. - `to` cannot be the zero address. - The caller must be the owner of the token, or be approved to manage the token. Emits a {Transfer} event."
      },
      "transferOwnership(address)": {
        "details": "Allows the owner to transfer the ownership to `newOwner`."
      },
      "whitelistMint(uint256,bytes,bytes)": {
        "details": "Whitelist Mint Phase 1",
        "params": {
          "_amount": "Amount to mint",
          "_nonce": "Nonce to prevent replay attacks",
          "_signature": "Signature from backend signed by signer address if user is whitelisted"
        }
      },
      "withdraw()": {
        "details": "Withdraws ETH from contract to withdraw address"
      }
    },
    "title": "KAZO PFP Contract KAZO is a thriving community of adventurers within the Base ecosystem. KAZO holders will be able to enjoy gamified experiences through KAZO Adventures, filled with staking and questing activities. Enter the world of KAZO today.",
    "version": 1
  },
  "userdoc": {
    "errors": {
      "InvalidTokenId()": [
        {
          "notice": "Error codes"
        }
      ]
    },
    "events": {
      "StageChanged(uint8)": {
        "notice": "Event emitted when stage is changed"
      }
    },
    "kind": "user",
    "methods": {
      "MAX_SUPPLY()": {
        "notice": "Max supply of tokens"
      },
      "TEAM_ADDRESS()": {
        "notice": "Address for royalties and team NFTs"
      },
      "baseURI()": {
        "notice": "Base URI of token metadata"
      },
      "hasMinted(address)": {
        "notice": "Mapping used to track who has already minted for free mint"
      },
      "publicMintPrice()": {
        "notice": "Public mint price"
      },
      "revealed()": {
        "notice": "Flag to indicate if the collection is revealed"
      },
      "setDefaultRoyalty(address,uint96)": {
        "notice": "Used to set royalty fees for all tokens, according to EIP-2981"
      },
      "setTokenRoyalty(uint256,address,uint96)": {
        "notice": "Used to set royalty fees for a specific token, according to EIP-2981"
      },
      "stage()": {
        "notice": "Current stage"
      },
      "whitelistMaxMint()": {
        "notice": "Max amount of whitelist mint"
      },
      "whitelistMintCount(address)": {
        "notice": "Mapping used to track how many times an address has minted for whitelist mint"
      },
      "whitelistMintPrice()": {
        "notice": "Price for whitelist mint"
      },
      "whitelistSignerAddress()": {
        "notice": "Backend signer address - used to check if user is whitelisted"
      },
      "withdrawAddress()": {
        "notice": "Address to withdraw ETH to"
      }
    },
    "version": 1
  },
  "storageLayout": {
    "storage": [
      {
        "astId": 35,
        "contract": "contracts/Kazo.sol:Kazo",
        "label": "_defaultRoyaltyInfo",
        "offset": 0,
        "slot": "0",
        "type": "t_struct(RoyaltyInfo)32_storage"
      },
      {
        "astId": 40,
        "contract": "contracts/Kazo.sol:Kazo",
        "label": "_tokenRoyaltyInfo",
        "offset": 0,
        "slot": "1",
        "type": "t_mapping(t_uint256,t_struct(RoyaltyInfo)32_storage)"
      },
      {
        "astId": 281,
        "contract": "contracts/Kazo.sol:Kazo",
        "label": "withdrawAddress",
        "offset": 0,
        "slot": "2",
        "type": "t_address"
      },
      {
        "astId": 284,
        "contract": "contracts/Kazo.sol:Kazo",
        "label": "whitelistSignerAddress",
        "offset": 0,
        "slot": "3",
        "type": "t_address"
      },
      {
        "astId": 287,
        "contract": "contracts/Kazo.sol:Kazo",
        "label": "stage",
        "offset": 20,
        "slot": "3",
        "type": "t_uint8"
      },
      {
        "astId": 293,
        "contract": "contracts/Kazo.sol:Kazo",
        "label": "_numAvailableRemainingTokens",
        "offset": 21,
        "slot": "3",
        "type": "t_uint16"
      },
      {
        "astId": 298,
        "contract": "contracts/Kazo.sol:Kazo",
        "label": "_availableRemainingTokens",
        "offset": 0,
        "slot": "4",
        "type": "t_array(t_uint16)65536_storage"
      },
      {
        "astId": 301,
        "contract": "contracts/Kazo.sol:Kazo",
        "label": "publicMintPrice",
        "offset": 0,
        "slot": "4100",
        "type": "t_uint256"
      },
      {
        "astId": 304,
        "contract": "contracts/Kazo.sol:Kazo",
        "label": "baseURI",
        "offset": 0,
        "slot": "4101",
        "type": "t_string_storage"
      },
      {
        "astId": 307,
        "contract": "contracts/Kazo.sol:Kazo",
        "label": "_name",
        "offset": 0,
        "slot": "4102",
        "type": "t_string_storage"
      },
      {
        "astId": 310,
        "contract": "contracts/Kazo.sol:Kazo",
        "label": "_symbol",
        "offset": 0,
        "slot": "4103",
        "type": "t_string_storage"
      },
      {
        "astId": 921,
        "contract": "contracts/Kazo.sol:Kazo",
        "label": "whitelistMintPrice",
        "offset": 0,
        "slot": "4104",
        "type": "t_uint256"
      },
      {
        "astId": 924,
        "contract": "contracts/Kazo.sol:Kazo",
        "label": "whitelistMaxMint",
        "offset": 0,
        "slot": "4105",
        "type": "t_uint16"
      },
      {
        "astId": 927,
        "contract": "contracts/Kazo.sol:Kazo",
        "label": "revealed",
        "offset": 2,
        "slot": "4105",
        "type": "t_bool"
      },
      {
        "astId": 932,
        "contract": "contracts/Kazo.sol:Kazo",
        "label": "whitelistMintCount",
        "offset": 0,
        "slot": "4106",
        "type": "t_mapping(t_address,t_uint16)"
      },
      {
        "astId": 937,
        "contract": "contracts/Kazo.sol:Kazo",
        "label": "hasMinted",
        "offset": 0,
        "slot": "4107",
        "type": "t_mapping(t_address,t_bool)"
      }
    ],
    "types": {
      "t_address": {
        "encoding": "inplace",
        "label": "address",
        "numberOfBytes": "20"
      },
      "t_array(t_uint16)65536_storage": {
        "base": "t_uint16",
        "encoding": "inplace",
        "label": "uint16[65536]",
        "numberOfBytes": "131072"
      },
      "t_bool": {
        "encoding": "inplace",
        "label": "bool",
        "numberOfBytes": "1"
      },
      "t_mapping(t_address,t_bool)": {
        "encoding": "mapping",
        "key": "t_address",
        "label": "mapping(address => bool)",
        "numberOfBytes": "32",
        "value": "t_bool"
      },
      "t_mapping(t_address,t_uint16)": {
        "encoding": "mapping",
        "key": "t_address",
        "label": "mapping(address => uint16)",
        "numberOfBytes": "32",
        "value": "t_uint16"
      },
      "t_mapping(t_uint256,t_struct(RoyaltyInfo)32_storage)": {
        "encoding": "mapping",
        "key": "t_uint256",
        "label": "mapping(uint256 => struct ERC2981.RoyaltyInfo)",
        "numberOfBytes": "32",
        "value": "t_struct(RoyaltyInfo)32_storage"
      },
      "t_string_storage": {
        "encoding": "bytes",
        "label": "string",
        "numberOfBytes": "32"
      },
      "t_struct(RoyaltyInfo)32_storage": {
        "encoding": "inplace",
        "label": "struct ERC2981.RoyaltyInfo",
        "members": [
          {
            "astId": 29,
            "contract": "contracts/Kazo.sol:Kazo",
            "label": "receiver",
            "offset": 0,
            "slot": "0",
            "type": "t_address"
          },
          {
            "astId": 31,
            "contract": "contracts/Kazo.sol:Kazo",
            "label": "royaltyFraction",
            "offset": 20,
            "slot": "0",
            "type": "t_uint96"
          }
        ],
        "numberOfBytes": "32"
      },
      "t_uint16": {
        "encoding": "inplace",
        "label": "uint16",
        "numberOfBytes": "2"
      },
      "t_uint256": {
        "encoding": "inplace",
        "label": "uint256",
        "numberOfBytes": "32"
      },
      "t_uint8": {
        "encoding": "inplace",
        "label": "uint8",
        "numberOfBytes": "1"
      },
      "t_uint96": {
        "encoding": "inplace",
        "label": "uint96",
        "numberOfBytes": "12"
      }
    }
  }
}