{
  "address": "0x3eB203a02388bDC7AB3962Fe98B1FE6AE46d8A1f",
  "abi": [
    {
      "inputs": [
        {
          "internalType": "contract IERC1155",
          "name": "token",
          "type": "address"
        },
        {
          "internalType": "address[]",
          "name": "_addresses",
          "type": "address[]"
        },
        {
          "internalType": "uint256[]",
          "name": "_tokenIds",
          "type": "uint256[]"
        },
        {
          "internalType": "uint256[]",
          "name": "_amounts",
          "type": "uint256[]"
        }
      ],
      "name": "airdropERC1155",
      "outputs": [],
      "stateMutability": "nonpayable",
      "type": "function"
    },
    {
      "inputs": [
        {
          "internalType": "contract IERC20",
          "name": "token",
          "type": "address"
        },
        {
          "internalType": "address[]",
          "name": "_addresses",
          "type": "address[]"
        },
        {
          "internalType": "uint256[]",
          "name": "_amounts",
          "type": "uint256[]"
        }
      ],
      "name": "airdropERC20",
      "outputs": [],
      "stateMutability": "nonpayable",
      "type": "function"
    },
    {
      "inputs": [
        {
          "internalType": "contract IERC721",
          "name": "token",
          "type": "address"
        },
        {
          "internalType": "address[]",
          "name": "_addresses",
          "type": "address[]"
        },
        {
          "internalType": "uint256[]",
          "name": "_tokenIds",
          "type": "uint256[]"
        }
      ],
      "name": "airdropERC721",
      "outputs": [],
      "stateMutability": "nonpayable",
      "type": "function"
    },
    {
      "inputs": [
        {
          "internalType": "address[]",
          "name": "_addresses",
          "type": "address[]"
        },
        {
          "internalType": "uint256[]",
          "name": "_amounts",
          "type": "uint256[]"
        }
      ],
      "name": "airdropETH",
      "outputs": [],
      "stateMutability": "payable",
      "type": "function"
    }
  ],
  "transactionHash": "0x81093458b965fef3a89f2a234fafdeab249c1af01d789b1571c5a42c4bfc020c",
  "args": [],
  "numDeployments": 1,
  "solcInputHash": "024e626653824f83341465513369e573",
  "bytecode": "0x608060405234801561001057600080fd5b506106e2806100206000396000f3fe60806040526004361061003f5760003560e01c80631d5659fb14610044578063c1a3800614610066578063df7dcc7b14610079578063feecb6bc14610099575b600080fd5b34801561005057600080fd5b5061006461005f36600461048d565b6100b9565b005b610064610074366004610510565b610197565b34801561008557600080fd5b5061006461009436600461057c565b610233565b3480156100a557600080fd5b506100646100b436600461048d565b610342565b60005b8381101561018f57856001600160a01b03166323b872dd338787858181106100e6576100e6610629565b90506020020160208101906100fb919061063f565b86868681811061010d5761010d610629565b6040516001600160e01b031960e088901b1681526001600160a01b03958616600482015294909316602485015250602090910201356044820152606401600060405180830381600087803b15801561016457600080fd5b505af1158015610178573d6000803e3d6000fd5b50505050808061018790610663565b9150506100bc565b505050505050565b60005b8381101561022c578484828181106101b4576101b4610629565b90506020020160208101906101c9919061063f565b6001600160a01b03166108fc8484848181106101e7576101e7610629565b905060200201359081150290604051600060405180830381858888f19350505050158015610219573d6000803e3d6000fd5b508061022481610663565b91505061019a565b5050505050565b60005b8581101561033857876001600160a01b031663f242432a3389898581811061026057610260610629565b9050602002016020810190610275919061063f565b88888681811061028757610287610629565b905060200201358787878181106102a0576102a0610629565b6040516001600160e01b031960e089901b1681526001600160a01b03968716600482015295909416602486015250604484019190915260209091020135606482015260a06084820152600060a482015260c401600060405180830381600087803b15801561030d57600080fd5b505af1158015610321573d6000803e3d6000fd5b50505050808061033090610663565b915050610236565b5050505050505050565b60005b8381101561018f57856001600160a01b03166323b872dd3387878581811061036f5761036f610629565b9050602002016020810190610384919061063f565b86868681811061039657610396610629565b6040516001600160e01b031960e088901b1681526001600160a01b039586166004820152949093166024850152506020909102013560448201526064016020604051808303816000875af11580156103f2573d6000803e3d6000fd5b505050506040513d601f19601f82011682018060405250810190610416919061068a565b508061042181610663565b915050610345565b6001600160a01b038116811461043e57600080fd5b50565b60008083601f84011261045357600080fd5b50813567ffffffffffffffff81111561046b57600080fd5b6020830191508360208260051b850101111561048657600080fd5b9250929050565b6000806000806000606086880312156104a557600080fd5b85356104b081610429565b9450602086013567ffffffffffffffff808211156104cd57600080fd5b6104d989838a01610441565b909650945060408801359150808211156104f257600080fd5b506104ff88828901610441565b969995985093965092949392505050565b6000806000806040858703121561052657600080fd5b843567ffffffffffffffff8082111561053e57600080fd5b61054a88838901610441565b9096509450602087013591508082111561056357600080fd5b5061057087828801610441565b95989497509550505050565b60008060008060008060006080888a03121561059757600080fd5b87356105a281610429565b9650602088013567ffffffffffffffff808211156105bf57600080fd5b6105cb8b838c01610441565b909850965060408a01359150808211156105e457600080fd5b6105f08b838c01610441565b909650945060608a013591508082111561060957600080fd5b506106168a828b01610441565b989b979a50959850939692959293505050565b634e487b7160e01b600052603260045260246000fd5b60006020828403121561065157600080fd5b813561065c81610429565b9392505050565b60006001820161068357634e487b7160e01b600052601160045260246000fd5b5060010190565b60006020828403121561069c57600080fd5b8151801515811461065c57600080fdfea26469706673582212208bf138c5e6da71925bc5cf67f8f9521736a93a5b666546a29d43d7f15c5e574764736f6c63430008110033",
  "devdoc": {
    "kind": "dev",
    "methods": {
      "airdropERC1155(address,address[],uint256[],uint256[])": {
        "details": "Airdrop ERC1155 tokens",
        "params": {
          "_addresses": "The addresses of the recipients",
          "_amounts": "The amounts of tokens to send",
          "_tokenIds": "The token IDs of the tokens to send",
          "token": "The address of the ERC1155 token"
        }
      },
      "airdropERC20(address,address[],uint256[])": {
        "details": "Airdrop ERC20 tokens",
        "params": {
          "_addresses": "The addresses of the recipients",
          "_amounts": "The amounts of tokens to send",
          "token": "The address of the ERC20 token"
        }
      },
      "airdropERC721(address,address[],uint256[])": {
        "details": "Airdrop ERC721 tokens",
        "params": {
          "_addresses": "The addresses of the recipients",
          "_tokenIds": "The token IDs of the tokens to send",
          "token": "The address of the ERC721 token"
        }
      },
      "airdropETH(address[],uint256[])": {
        "details": "Airdrop ETH",
        "params": {
          "_addresses": "The addresses of the recipients",
          "_amounts": "The amounts of ETH to send"
        }
      }
    },
    "version": 1
  },
  "userdoc": {
    "kind": "user",
    "methods": {},
    "version": 1
  },
  "storageLayout": {
    "storage": [],
    "types": null
  }
}