{
  "address": "0x16E96b2c52C816D26FEF4991733249e81965D88D",
  "abi": [
    {
      "anonymous": false,
      "inputs": [
        {
          "indexed": true,
          "internalType": "address",
          "name": "previousOwner",
          "type": "address"
        },
        {
          "indexed": true,
          "internalType": "address",
          "name": "newOwner",
          "type": "address"
        }
      ],
      "name": "OwnershipTransferred",
      "type": "event"
    },
    {
      "inputs": [
        {
          "internalType": "bytes32",
          "name": "",
          "type": "bytes32"
        }
      ],
      "name": "addresses",
      "outputs": [
        {
          "internalType": "address",
          "name": "",
          "type": "address"
        }
      ],
      "stateMutability": "view",
      "type": "function"
    },
    {
      "inputs": [
        {
          "internalType": "bytes32",
          "name": "_identifier",
          "type": "bytes32"
        }
      ],
      "name": "getAddress",
      "outputs": [
        {
          "internalType": "address",
          "name": "",
          "type": "address"
        }
      ],
      "stateMutability": "view",
      "type": "function"
    },
    {
      "inputs": [],
      "name": "getArgo",
      "outputs": [
        {
          "internalType": "address",
          "name": "",
          "type": "address"
        }
      ],
      "stateMutability": "view",
      "type": "function"
    },
    {
      "inputs": [],
      "name": "getArgonauts",
      "outputs": [
        {
          "internalType": "address",
          "name": "",
          "type": "address"
        }
      ],
      "stateMutability": "view",
      "type": "function"
    },
    {
      "inputs": [],
      "name": "getAtlantis",
      "outputs": [
        {
          "internalType": "address",
          "name": "",
          "type": "address"
        }
      ],
      "stateMutability": "view",
      "type": "function"
    },
    {
      "inputs": [],
      "name": "getAtlantisPlanets",
      "outputs": [
        {
          "internalType": "address",
          "name": "",
          "type": "address"
        }
      ],
      "stateMutability": "view",
      "type": "function"
    },
    {
      "inputs": [],
      "name": "getAuction",
      "outputs": [
        {
          "internalType": "address",
          "name": "",
          "type": "address"
        }
      ],
      "stateMutability": "view",
      "type": "function"
    },
    {
      "inputs": [],
      "name": "getEquipments",
      "outputs": [
        {
          "internalType": "address",
          "name": "",
          "type": "address"
        }
      ],
      "stateMutability": "view",
      "type": "function"
    },
    {
      "inputs": [],
      "name": "getGemstones",
      "outputs": [
        {
          "internalType": "address",
          "name": "",
          "type": "address"
        }
      ],
      "stateMutability": "view",
      "type": "function"
    },
    {
      "inputs": [],
      "name": "getGold",
      "outputs": [
        {
          "internalType": "address",
          "name": "",
          "type": "address"
        }
      ],
      "stateMutability": "view",
      "type": "function"
    },
    {
      "inputs": [],
      "name": "getGoldStaking",
      "outputs": [
        {
          "internalType": "address",
          "name": "",
          "type": "address"
        }
      ],
      "stateMutability": "view",
      "type": "function"
    },
    {
      "inputs": [],
      "name": "getMarketplace",
      "outputs": [
        {
          "internalType": "address",
          "name": "",
          "type": "address"
        }
      ],
      "stateMutability": "view",
      "type": "function"
    },
    {
      "inputs": [],
      "name": "getPledging",
      "outputs": [
        {
          "internalType": "address",
          "name": "",
          "type": "address"
        }
      ],
      "stateMutability": "view",
      "type": "function"
    },
    {
      "inputs": [],
      "name": "getRacing",
      "outputs": [
        {
          "internalType": "address",
          "name": "",
          "type": "address"
        }
      ],
      "stateMutability": "view",
      "type": "function"
    },
    {
      "inputs": [],
      "name": "getSpaceships",
      "outputs": [
        {
          "internalType": "address",
          "name": "",
          "type": "address"
        }
      ],
      "stateMutability": "view",
      "type": "function"
    },
    {
      "inputs": [],
      "name": "getStakingWithLock",
      "outputs": [
        {
          "internalType": "address",
          "name": "",
          "type": "address"
        }
      ],
      "stateMutability": "view",
      "type": "function"
    },
    {
      "inputs": [],
      "name": "getStardust",
      "outputs": [
        {
          "internalType": "address",
          "name": "",
          "type": "address"
        }
      ],
      "stateMutability": "view",
      "type": "function"
    },
    {
      "inputs": [],
      "name": "getXargo",
      "outputs": [
        {
          "internalType": "address",
          "name": "",
          "type": "address"
        }
      ],
      "stateMutability": "view",
      "type": "function"
    },
    {
      "inputs": [
        {
          "internalType": "address",
          "name": "_contractAddress",
          "type": "address"
        }
      ],
      "name": "isControllerContract",
      "outputs": [
        {
          "internalType": "bool",
          "name": "",
          "type": "bool"
        }
      ],
      "stateMutability": "view",
      "type": "function"
    },
    {
      "inputs": [],
      "name": "owner",
      "outputs": [
        {
          "internalType": "address",
          "name": "",
          "type": "address"
        }
      ],
      "stateMutability": "view",
      "type": "function"
    },
    {
      "inputs": [],
      "name": "renounceOwnership",
      "outputs": [],
      "stateMutability": "nonpayable",
      "type": "function"
    },
    {
      "inputs": [
        {
          "internalType": "address",
          "name": "contractAddress",
          "type": "address"
        }
      ],
      "name": "setArgo",
      "outputs": [],
      "stateMutability": "nonpayable",
      "type": "function"
    },
    {
      "inputs": [
        {
          "internalType": "address",
          "name": "contractAddress",
          "type": "address"
        }
      ],
      "name": "setArgonauts",
      "outputs": [],
      "stateMutability": "nonpayable",
      "type": "function"
    },
    {
      "inputs": [
        {
          "internalType": "address",
          "name": "contractAddress",
          "type": "address"
        }
      ],
      "name": "setAtlantis",
      "outputs": [],
      "stateMutability": "nonpayable",
      "type": "function"
    },
    {
      "inputs": [
        {
          "internalType": "address",
          "name": "contractAddress",
          "type": "address"
        }
      ],
      "name": "setAtlantisPlanets",
      "outputs": [],
      "stateMutability": "nonpayable",
      "type": "function"
    },
    {
      "inputs": [
        {
          "internalType": "address",
          "name": "contractAddress",
          "type": "address"
        }
      ],
      "name": "setAuction",
      "outputs": [],
      "stateMutability": "nonpayable",
      "type": "function"
    },
    {
      "inputs": [
        {
          "internalType": "address",
          "name": "contractAddress",
          "type": "address"
        }
      ],
      "name": "setEquipments",
      "outputs": [],
      "stateMutability": "nonpayable",
      "type": "function"
    },
    {
      "inputs": [
        {
          "internalType": "address",
          "name": "contractAddress",
          "type": "address"
        }
      ],
      "name": "setGemstones",
      "outputs": [],
      "stateMutability": "nonpayable",
      "type": "function"
    },
    {
      "inputs": [
        {
          "internalType": "address",
          "name": "contractAddress",
          "type": "address"
        }
      ],
      "name": "setGold",
      "outputs": [],
      "stateMutability": "nonpayable",
      "type": "function"
    },
    {
      "inputs": [
        {
          "internalType": "address",
          "name": "contractAddress",
          "type": "address"
        }
      ],
      "name": "setGoldStaking",
      "outputs": [],
      "stateMutability": "nonpayable",
      "type": "function"
    },
    {
      "inputs": [
        {
          "internalType": "address",
          "name": "contractAddress",
          "type": "address"
        }
      ],
      "name": "setMarketplace",
      "outputs": [],
      "stateMutability": "nonpayable",
      "type": "function"
    },
    {
      "inputs": [
        {
          "internalType": "address",
          "name": "contractAddress",
          "type": "address"
        }
      ],
      "name": "setPledging",
      "outputs": [],
      "stateMutability": "nonpayable",
      "type": "function"
    },
    {
      "inputs": [
        {
          "internalType": "address",
          "name": "contractAddress",
          "type": "address"
        }
      ],
      "name": "setRacing",
      "outputs": [],
      "stateMutability": "nonpayable",
      "type": "function"
    },
    {
      "inputs": [
        {
          "internalType": "address",
          "name": "contractAddress",
          "type": "address"
        }
      ],
      "name": "setSpaceships",
      "outputs": [],
      "stateMutability": "nonpayable",
      "type": "function"
    },
    {
      "inputs": [
        {
          "internalType": "address",
          "name": "contractAddress",
          "type": "address"
        }
      ],
      "name": "setStakingWithLock",
      "outputs": [],
      "stateMutability": "nonpayable",
      "type": "function"
    },
    {
      "inputs": [
        {
          "internalType": "address",
          "name": "contractAddress",
          "type": "address"
        }
      ],
      "name": "setStardust",
      "outputs": [],
      "stateMutability": "nonpayable",
      "type": "function"
    },
    {
      "inputs": [
        {
          "internalType": "address",
          "name": "contractAddress",
          "type": "address"
        }
      ],
      "name": "setXargo",
      "outputs": [],
      "stateMutability": "nonpayable",
      "type": "function"
    },
    {
      "inputs": [
        {
          "internalType": "address",
          "name": "newOwner",
          "type": "address"
        }
      ],
      "name": "transferOwnership",
      "outputs": [],
      "stateMutability": "nonpayable",
      "type": "function"
    }
  ],
  "transactionHash": "0xf2c2ca6c458cd6acfa61ec0b474163d6f0f68f608e9ac73fd437c0903a4b42e6",
  "args": [],
  "numDeployments": 2,
  "solcInputHash": "ba309921f8c962c7c7e653ba26b75652",
  "bytecode": "0x608060405234801561001057600080fd5b5061001a3361001f565b61006f565b600080546001600160a01b038381166001600160a01b0319831681178455604051919092169283917f8be0079c531659141344cd1fd0a4f28419497f9722a3daafe3b4186f6b6457e09190a35050565b610a868061007e6000396000f3fe608060405234801561001057600080fd5b50600436106102325760003560e01c80638e97972911610130578063c0726044116100b8578063d9c03dd41161007c578063d9c03dd414610448578063de5d03cf1461045b578063e4fac6c614610463578063f2fde38b1461046b578063f97e86001461047e57600080fd5b8063c0726044146103ff578063c68c898514610407578063cceed8e61461041a578063d0115dc014610422578063d59642e21461043557600080fd5b8063a68cf414116100ff578063a68cf414146103c1578063af265084146103c9578063b03a492c146103dc578063b8c6f579146103e4578063be73df6c146103f757600080fd5b80638e9797291461037b5780639283218914610383578063986bde11146103965780639ba414061461039e57600080fd5b80634303b7b4116101be5780637327df25116101825780637327df251461033f57806373ad6c2d14610347578063786d10861461035a5780638cc84db7146103625780638da5cb5b1461036a57600080fd5b80634303b7b4146102eb57806359f34bef146102fe5780635c9a1a3d14610306578063699f200f1461030e578063715018a61461033757600080fd5b80631a0cc8bb116102055780631a0cc8bb146102975780631ab4f574146102aa57806321f8a721146102bd5780633570bb95146102d057806342f06532146102e357600080fd5b80630520b708146102375780630a5a0e011461024c5780630a82f8ad1461025f5780630d21bcd514610272575b600080fd5b61024a610245366004610a07565b610491565b005b61024a61025a366004610a07565b6104ad565b61024a61026d366004610a07565b6104ca565b61027a6104e7565b6040516001600160a01b0390911681526020015b60405180910390f35b61024a6102a5366004610a07565b610505565b61024a6102b8366004610a07565b61052a565b61027a6102cb366004610a37565b610549565b61024a6102de366004610a07565b610564565b61027a61057d565b61024a6102f9366004610a07565b61058f565b61027a6105b5565b61027a6105cd565b61027a61031c366004610a37565b6001602052600090815260409020546001600160a01b031681565b61024a6105eb565b61027a6105ff565b61024a610355366004610a07565b610614565b61027a610634565b61027a61064b565b6000546001600160a01b031661027a565b61027a61066a565b61024a610391366004610a07565b610682565b61027a6106a0565b6103b16103ac366004610a07565b6106b2565b604051901515815260200161028e565b61027a61074e565b61024a6103d7366004610a07565b610761565b61027a61077e565b61024a6103f2366004610a07565b610798565b61027a6107b4565b61027a6107c8565b61024a610415366004610a07565b6107de565b61027a6107ff565b61024a610430366004610a07565b610816565b61024a610443366004610a07565b610835565b61024a610456366004610a07565b610853565b61027a61086d565b61027a610883565b61024a610479366004610a07565b610899565b61024a61048c366004610a07565b610914565b61049961092f565b6104aa6311d3d31160e21b82610989565b50565b6104b561092f565b6104aa6714d51054911554d560c21b82610989565b6104d261092f565b6104aa6741544c414e54495360c01b82610989565b60006105006a4d41524b4554504c41434560a81b610549565b905090565b61050d61092f565b6104aa6f41544c414e5449535f504c414e45545360801b82610989565b61053261092f565b6104aa6945515549504d454e545360b01b82610989565b6000908152600160205260409020546001600160a01b031690565b61056c61092f565b6104aa634152474f60e01b82610989565b60006105006311d3d31160e21b610549565b61059761092f565b6104aa705354414b494e475f574954485f4c4f434b60781b82610989565b6000610500695350414345534849505360b01b610549565b60006105006f41544c414e5449535f504c414e45545360801b610549565b6105f361092f565b6105fd60006109b7565b565b60006105006620aaa1aa24a7a760c91b610549565b61061c61092f565b6104aa6a4d41524b4554504c41434560a81b82610989565b60006105006847454d53544f4e455360b81b610549565b6000610500705354414b494e475f574954485f4c4f434b60781b610549565b60006105006945515549504d454e545360b01b610549565b61068a61092f565b6104aa6847454d53544f4e455360b81b82610989565b6000610500634152474f60e01b610549565b60006106bc610883565b6001600160a01b0316826001600160a01b031614806106f357506106de610634565b6001600160a01b0316826001600160a01b0316145b8061071657506107016105cd565b6001600160a01b0316826001600160a01b0316145b80610739575061072461066a565b6001600160a01b0316826001600160a01b0316145b1561074657506001919050565b506000919050565b600061050064584152474f60d81b610549565b61076961092f565b6104aa67504c454447494e4760c01b82610989565b60006105006b474f4c445f5354414b494e4760a01b610549565b6107a061092f565b6104aa6620aaa1aa24a7a760c91b82610989565b600061050065524143494e4760d01b610549565b60006105006714d51054911554d560c21b610549565b6107e661092f565b6104aa6b474f4c445f5354414b494e4760a01b82610989565b6000610500684152474f4e4155545360b81b610549565b61081e61092f565b6104aa695350414345534849505360b01b82610989565b61083d61092f565b6104aa684152474f4e4155545360b81b82610989565b61085b61092f565b6104aa64584152474f60d81b82610989565b600061050067504c454447494e4760c01b610549565b60006105006741544c414e54495360c01b610549565b6108a161092f565b6001600160a01b03811661090b5760405162461bcd60e51b815260206004820152602660248201527f4f776e61626c653a206e6577206f776e657220697320746865207a65726f206160448201526564647265737360d01b60648201526084015b60405180910390fd5b6104aa816109b7565b61091c61092f565b6104aa65524143494e4760d01b82610989565b6000546001600160a01b031633146105fd5760405162461bcd60e51b815260206004820181905260248201527f4f776e61626c653a2063616c6c6572206973206e6f7420746865206f776e65726044820152606401610902565b60009182526001602052604090912080546001600160a01b0319166001600160a01b03909216919091179055565b600080546001600160a01b038381166001600160a01b0319831681178455604051919092169283917f8be0079c531659141344cd1fd0a4f28419497f9722a3daafe3b4186f6b6457e09190a35050565b600060208284031215610a1957600080fd5b81356001600160a01b0381168114610a3057600080fd5b9392505050565b600060208284031215610a4957600080fd5b503591905056fea264697066735822122027036393589ad509737d498510191eca4c65473c0b7bdfe1df1752dbdb435ec964736f6c63430008110033",
  "devdoc": {
    "kind": "dev",
    "methods": {
      "owner()": {
        "details": "Returns the address of the current owner."
      },
      "renounceOwnership()": {
        "details": "Leaves the contract without owner. It will not be possible to call `onlyOwner` functions anymore. Can only be called by the current owner. NOTE: Renouncing ownership will leave the contract without an owner, thereby removing any functionality that is only available to the owner."
      },
      "transferOwnership(address)": {
        "details": "Transfers ownership of the contract to a new account (`newOwner`). Can only be called by the current owner."
      }
    },
    "version": 1
  },
  "userdoc": {
    "kind": "user",
    "methods": {},
    "version": 1
  },
  "storageLayout": {
    "storage": [
      {
        "astId": 7,
        "contract": "contracts/AtlantisAddressRegistry.sol:AtlantisAddressRegistry",
        "label": "_owner",
        "offset": 0,
        "slot": "0",
        "type": "t_address"
      },
      {
        "astId": 16442,
        "contract": "contracts/AtlantisAddressRegistry.sol:AtlantisAddressRegistry",
        "label": "addresses",
        "offset": 0,
        "slot": "1",
        "type": "t_mapping(t_bytes32,t_address)"
      },
      {
        "astId": 7091,
        "contract": "contracts/AtlantisAddressRegistry.sol:AtlantisAddressRegistry",
        "label": "_addresses",
        "offset": 0,
        "slot": "2",
        "type": "t_mapping(t_address,t_bool)"
      }
    ],
    "types": {
      "t_address": {
        "encoding": "inplace",
        "label": "address",
        "numberOfBytes": "20"
      },
      "t_bool": {
        "encoding": "inplace",
        "label": "bool",
        "numberOfBytes": "1"
      },
      "t_bytes32": {
        "encoding": "inplace",
        "label": "bytes32",
        "numberOfBytes": "32"
      },
      "t_mapping(t_address,t_bool)": {
        "encoding": "mapping",
        "key": "t_address",
        "label": "mapping(address => bool)",
        "numberOfBytes": "32",
        "value": "t_bool"
      },
      "t_mapping(t_bytes32,t_address)": {
        "encoding": "mapping",
        "key": "t_bytes32",
        "label": "mapping(bytes32 => address)",
        "numberOfBytes": "32",
        "value": "t_address"
      }
    }
  }
}