{
  "address": "0xfa6888F9f3602E02507a2Bbed661c8cb256949c8",
  "abi": [
    {
      "inputs": [
        {
          "internalType": "string",
          "name": "_name",
          "type": "string"
        },
        {
          "internalType": "string",
          "name": "_symbol",
          "type": "string"
        },
        {
          "internalType": "string",
          "name": "baseURI",
          "type": "string"
        },
        {
          "internalType": "address",
          "name": "owner",
          "type": "address"
        },
        {
          "internalType": "contract AtlantisAddressRegistry",
          "name": "_registry",
          "type": "address"
        },
        {
          "internalType": "address",
          "name": "_treasury",
          "type": "address"
        },
        {
          "internalType": "uint256[5]",
          "name": "_stardustCost",
          "type": "uint256[5]"
        },
        {
          "internalType": "uint16[5]",
          "name": "_gemstonesRequired",
          "type": "uint16[5]"
        },
        {
          "internalType": "uint16[10]",
          "name": "_equipmentSpeeds",
          "type": "uint16[10]"
        }
      ],
      "stateMutability": "nonpayable",
      "type": "constructor"
    },
    {
      "inputs": [],
      "name": "IdNotExistsError",
      "type": "error"
    },
    {
      "inputs": [],
      "name": "UpgradeError",
      "type": "error"
    },
    {
      "anonymous": false,
      "inputs": [
        {
          "indexed": false,
          "internalType": "address",
          "name": "_address",
          "type": "address"
        }
      ],
      "name": "AddressRegistryUpdated",
      "type": "event"
    },
    {
      "anonymous": false,
      "inputs": [
        {
          "indexed": true,
          "internalType": "address",
          "name": "account",
          "type": "address"
        },
        {
          "indexed": true,
          "internalType": "address",
          "name": "operator",
          "type": "address"
        },
        {
          "indexed": false,
          "internalType": "bool",
          "name": "approved",
          "type": "bool"
        }
      ],
      "name": "ApprovalForAll",
      "type": "event"
    },
    {
      "anonymous": false,
      "inputs": [
        {
          "indexed": false,
          "internalType": "string",
          "name": "_baseMetadataURI",
          "type": "string"
        }
      ],
      "name": "BaseMetadataURIUpdated",
      "type": "event"
    },
    {
      "anonymous": false,
      "inputs": [
        {
          "indexed": false,
          "internalType": "uint16[]",
          "name": "_equipmentSpeeds",
          "type": "uint16[]"
        }
      ],
      "name": "EquipmentSpeedsUpdated",
      "type": "event"
    },
    {
      "anonymous": false,
      "inputs": [
        {
          "indexed": true,
          "internalType": "address",
          "name": "_from",
          "type": "address"
        },
        {
          "indexed": true,
          "internalType": "uint256",
          "name": "_id",
          "type": "uint256"
        },
        {
          "indexed": false,
          "internalType": "uint256",
          "name": "_amount",
          "type": "uint256"
        },
        {
          "indexed": false,
          "internalType": "uint256",
          "name": "_totalSupply",
          "type": "uint256"
        }
      ],
      "name": "FuseEquipment",
      "type": "event"
    },
    {
      "anonymous": false,
      "inputs": [
        {
          "indexed": false,
          "internalType": "uint16[]",
          "name": "_gemstonesRequired",
          "type": "uint16[]"
        }
      ],
      "name": "GemstonesRequiredUpdated",
      "type": "event"
    },
    {
      "anonymous": false,
      "inputs": [
        {
          "indexed": false,
          "internalType": "uint256",
          "name": "_mintCost",
          "type": "uint256"
        }
      ],
      "name": "MintCostUpdated",
      "type": "event"
    },
    {
      "anonymous": false,
      "inputs": [
        {
          "indexed": true,
          "internalType": "address",
          "name": "previousOwner",
          "type": "address"
        },
        {
          "indexed": true,
          "internalType": "address",
          "name": "newOwner",
          "type": "address"
        }
      ],
      "name": "OwnershipTransferred",
      "type": "event"
    },
    {
      "anonymous": false,
      "inputs": [
        {
          "indexed": false,
          "internalType": "address",
          "name": "account",
          "type": "address"
        }
      ],
      "name": "Paused",
      "type": "event"
    },
    {
      "anonymous": false,
      "inputs": [
        {
          "indexed": false,
          "internalType": "enum IAtlantisEquipments.PaymentMode",
          "name": "_paymentMode",
          "type": "uint8"
        }
      ],
      "name": "PaymentModeUpdated",
      "type": "event"
    },
    {
      "anonymous": false,
      "inputs": [
        {
          "indexed": false,
          "internalType": "address",
          "name": "_paymentToken",
          "type": "address"
        }
      ],
      "name": "PaymentTokenUpdated",
      "type": "event"
    },
    {
      "anonymous": false,
      "inputs": [
        {
          "indexed": false,
          "internalType": "uint256[]",
          "name": "_stardustCosts",
          "type": "uint256[]"
        }
      ],
      "name": "StardustCostsUpdated",
      "type": "event"
    },
    {
      "anonymous": false,
      "inputs": [
        {
          "indexed": true,
          "internalType": "uint256",
          "name": "_id",
          "type": "uint256"
        },
        {
          "indexed": false,
          "internalType": "string",
          "name": "_tokenURI",
          "type": "string"
        }
      ],
      "name": "TokenURIUpdated",
      "type": "event"
    },
    {
      "anonymous": false,
      "inputs": [
        {
          "indexed": true,
          "internalType": "address",
          "name": "operator",
          "type": "address"
        },
        {
          "indexed": true,
          "internalType": "address",
          "name": "from",
          "type": "address"
        },
        {
          "indexed": true,
          "internalType": "address",
          "name": "to",
          "type": "address"
        },
        {
          "indexed": false,
          "internalType": "uint256[]",
          "name": "ids",
          "type": "uint256[]"
        },
        {
          "indexed": false,
          "internalType": "uint256[]",
          "name": "values",
          "type": "uint256[]"
        }
      ],
      "name": "TransferBatch",
      "type": "event"
    },
    {
      "anonymous": false,
      "inputs": [
        {
          "indexed": true,
          "internalType": "address",
          "name": "operator",
          "type": "address"
        },
        {
          "indexed": true,
          "internalType": "address",
          "name": "from",
          "type": "address"
        },
        {
          "indexed": true,
          "internalType": "address",
          "name": "to",
          "type": "address"
        },
        {
          "indexed": false,
          "internalType": "uint256",
          "name": "id",
          "type": "uint256"
        },
        {
          "indexed": false,
          "internalType": "uint256",
          "name": "value",
          "type": "uint256"
        }
      ],
      "name": "TransferSingle",
      "type": "event"
    },
    {
      "anonymous": false,
      "inputs": [
        {
          "indexed": false,
          "internalType": "string",
          "name": "value",
          "type": "string"
        },
        {
          "indexed": true,
          "internalType": "uint256",
          "name": "id",
          "type": "uint256"
        }
      ],
      "name": "URI",
      "type": "event"
    },
    {
      "anonymous": false,
      "inputs": [
        {
          "indexed": false,
          "internalType": "address",
          "name": "account",
          "type": "address"
        }
      ],
      "name": "Unpaused",
      "type": "event"
    },
    {
      "inputs": [],
      "name": "MAX_GEMSTONES_REQUIRED",
      "outputs": [
        {
          "internalType": "uint16",
          "name": "",
          "type": "uint16"
        }
      ],
      "stateMutability": "view",
      "type": "function"
    },
    {
      "inputs": [],
      "name": "MAX_MINT_COST",
      "outputs": [
        {
          "internalType": "uint256",
          "name": "",
          "type": "uint256"
        }
      ],
      "stateMutability": "view",
      "type": "function"
    },
    {
      "inputs": [],
      "name": "MAX_STARDUST_COST",
      "outputs": [
        {
          "internalType": "uint256",
          "name": "",
          "type": "uint256"
        }
      ],
      "stateMutability": "view",
      "type": "function"
    },
    {
      "inputs": [],
      "name": "TOTAL_TOKEN_IDS",
      "outputs": [
        {
          "internalType": "uint256",
          "name": "",
          "type": "uint256"
        }
      ],
      "stateMutability": "view",
      "type": "function"
    },
    {
      "inputs": [],
      "name": "addressRegistry",
      "outputs": [
        {
          "internalType": "contract AtlantisAddressRegistry",
          "name": "",
          "type": "address"
        }
      ],
      "stateMutability": "view",
      "type": "function"
    },
    {
      "inputs": [
        {
          "internalType": "address",
          "name": "_to",
          "type": "address"
        },
        {
          "internalType": "uint256",
          "name": "_id",
          "type": "uint256"
        },
        {
          "internalType": "uint256",
          "name": "_quantity",
          "type": "uint256"
        },
        {
          "internalType": "bytes",
          "name": "_data",
          "type": "bytes"
        }
      ],
      "name": "airdrop",
      "outputs": [],
      "stateMutability": "nonpayable",
      "type": "function"
    },
    {
      "inputs": [
        {
          "internalType": "address",
          "name": "account",
          "type": "address"
        },
        {
          "internalType": "uint256",
          "name": "id",
          "type": "uint256"
        }
      ],
      "name": "balanceOf",
      "outputs": [
        {
          "internalType": "uint256",
          "name": "",
          "type": "uint256"
        }
      ],
      "stateMutability": "view",
      "type": "function"
    },
    {
      "inputs": [
        {
          "internalType": "address[]",
          "name": "accounts",
          "type": "address[]"
        },
        {
          "internalType": "uint256[]",
          "name": "ids",
          "type": "uint256[]"
        }
      ],
      "name": "balanceOfBatch",
      "outputs": [
        {
          "internalType": "uint256[]",
          "name": "",
          "type": "uint256[]"
        }
      ],
      "stateMutability": "view",
      "type": "function"
    },
    {
      "inputs": [],
      "name": "baseTokenURI",
      "outputs": [
        {
          "internalType": "string",
          "name": "",
          "type": "string"
        }
      ],
      "stateMutability": "view",
      "type": "function"
    },
    {
      "inputs": [
        {
          "internalType": "address",
          "name": "_to",
          "type": "address"
        },
        {
          "internalType": "uint256[]",
          "name": "_ids",
          "type": "uint256[]"
        },
        {
          "internalType": "uint256[]",
          "name": "_quantities",
          "type": "uint256[]"
        },
        {
          "internalType": "bytes",
          "name": "_data",
          "type": "bytes"
        }
      ],
      "name": "batchMint",
      "outputs": [],
      "stateMutability": "nonpayable",
      "type": "function"
    },
    {
      "inputs": [
        {
          "internalType": "uint256",
          "name": "_id",
          "type": "uint256"
        },
        {
          "internalType": "uint16",
          "name": "_amountToCreate",
          "type": "uint16"
        }
      ],
      "name": "calculateFusionCost",
      "outputs": [
        {
          "internalType": "uint256",
          "name": "",
          "type": "uint256"
        }
      ],
      "stateMutability": "view",
      "type": "function"
    },
    {
      "inputs": [
        {
          "internalType": "uint256",
          "name": "_id",
          "type": "uint256"
        },
        {
          "internalType": "uint16",
          "name": "_amountToCreate",
          "type": "uint16"
        }
      ],
      "name": "calculateGemstonesCost",
      "outputs": [
        {
          "internalType": "uint16",
          "name": "",
          "type": "uint16"
        }
      ],
      "stateMutability": "view",
      "type": "function"
    },
    {
      "inputs": [
        {
          "internalType": "address",
          "name": "",
          "type": "address"
        }
      ],
      "name": "devAddresses",
      "outputs": [
        {
          "internalType": "bool",
          "name": "",
          "type": "bool"
        }
      ],
      "stateMutability": "view",
      "type": "function"
    },
    {
      "inputs": [
        {
          "internalType": "uint256",
          "name": "",
          "type": "uint256"
        }
      ],
      "name": "equipmentSpeeds",
      "outputs": [
        {
          "internalType": "uint16",
          "name": "",
          "type": "uint16"
        }
      ],
      "stateMutability": "view",
      "type": "function"
    },
    {
      "inputs": [
        {
          "internalType": "uint256",
          "name": "_id",
          "type": "uint256"
        }
      ],
      "name": "exists",
      "outputs": [
        {
          "internalType": "bool",
          "name": "",
          "type": "bool"
        }
      ],
      "stateMutability": "view",
      "type": "function"
    },
    {
      "inputs": [
        {
          "internalType": "uint256",
          "name": "_id",
          "type": "uint256"
        },
        {
          "internalType": "uint16",
          "name": "_amountToCreate",
          "type": "uint16"
        }
      ],
      "name": "fuseEquipment",
      "outputs": [],
      "stateMutability": "nonpayable",
      "type": "function"
    },
    {
      "inputs": [
        {
          "internalType": "uint256",
          "name": "_id",
          "type": "uint256"
        },
        {
          "internalType": "uint16",
          "name": "_amountToCreate",
          "type": "uint16"
        }
      ],
      "name": "fuseEquipmentsView",
      "outputs": [
        {
          "internalType": "uint16",
          "name": "",
          "type": "uint16"
        }
      ],
      "stateMutability": "view",
      "type": "function"
    },
    {
      "inputs": [
        {
          "internalType": "uint256",
          "name": "",
          "type": "uint256"
        }
      ],
      "name": "gemstonesRequired",
      "outputs": [
        {
          "internalType": "uint16",
          "name": "",
          "type": "uint16"
        }
      ],
      "stateMutability": "view",
      "type": "function"
    },
    {
      "inputs": [
        {
          "internalType": "uint256",
          "name": "_id",
          "type": "uint256"
        }
      ],
      "name": "getElement",
      "outputs": [
        {
          "internalType": "uint8",
          "name": "",
          "type": "uint8"
        }
      ],
      "stateMutability": "pure",
      "type": "function"
    },
    {
      "inputs": [
        {
          "internalType": "uint256",
          "name": "_id",
          "type": "uint256"
        }
      ],
      "name": "getGemstoneIdFromEquipmentId",
      "outputs": [
        {
          "internalType": "uint256",
          "name": "",
          "type": "uint256"
        }
      ],
      "stateMutability": "pure",
      "type": "function"
    },
    {
      "inputs": [
        {
          "internalType": "uint256",
          "name": "_id",
          "type": "uint256"
        }
      ],
      "name": "getLevel",
      "outputs": [
        {
          "internalType": "uint8",
          "name": "",
          "type": "uint8"
        }
      ],
      "stateMutability": "pure",
      "type": "function"
    },
    {
      "inputs": [
        {
          "internalType": "uint256",
          "name": "_id",
          "type": "uint256"
        }
      ],
      "name": "getSpeed",
      "outputs": [
        {
          "internalType": "uint16",
          "name": "",
          "type": "uint16"
        }
      ],
      "stateMutability": "view",
      "type": "function"
    },
    {
      "inputs": [
        {
          "internalType": "address",
          "name": "account",
          "type": "address"
        },
        {
          "internalType": "address",
          "name": "operator",
          "type": "address"
        }
      ],
      "name": "isApprovedForAll",
      "outputs": [
        {
          "internalType": "bool",
          "name": "",
          "type": "bool"
        }
      ],
      "stateMutability": "view",
      "type": "function"
    },
    {
      "inputs": [
        {
          "internalType": "address",
          "name": "_to",
          "type": "address"
        },
        {
          "internalType": "uint256",
          "name": "_quantity",
          "type": "uint256"
        }
      ],
      "name": "mint",
      "outputs": [],
      "stateMutability": "payable",
      "type": "function"
    },
    {
      "inputs": [],
      "name": "mintCost",
      "outputs": [
        {
          "internalType": "uint256",
          "name": "",
          "type": "uint256"
        }
      ],
      "stateMutability": "view",
      "type": "function"
    },
    {
      "inputs": [],
      "name": "name",
      "outputs": [
        {
          "internalType": "string",
          "name": "",
          "type": "string"
        }
      ],
      "stateMutability": "view",
      "type": "function"
    },
    {
      "inputs": [],
      "name": "owner",
      "outputs": [
        {
          "internalType": "address",
          "name": "",
          "type": "address"
        }
      ],
      "stateMutability": "view",
      "type": "function"
    },
    {
      "inputs": [],
      "name": "pause",
      "outputs": [],
      "stateMutability": "nonpayable",
      "type": "function"
    },
    {
      "inputs": [],
      "name": "paused",
      "outputs": [
        {
          "internalType": "bool",
          "name": "",
          "type": "bool"
        }
      ],
      "stateMutability": "view",
      "type": "function"
    },
    {
      "inputs": [],
      "name": "paymentMode",
      "outputs": [
        {
          "internalType": "enum IAtlantisEquipments.PaymentMode",
          "name": "",
          "type": "uint8"
        }
      ],
      "stateMutability": "view",
      "type": "function"
    },
    {
      "inputs": [],
      "name": "paymentToken",
      "outputs": [
        {
          "internalType": "contract IERC20",
          "name": "",
          "type": "address"
        }
      ],
      "stateMutability": "view",
      "type": "function"
    },
    {
      "inputs": [],
      "name": "renounceOwnership",
      "outputs": [],
      "stateMutability": "nonpayable",
      "type": "function"
    },
    {
      "inputs": [
        {
          "internalType": "address",
          "name": "from",
          "type": "address"
        },
        {
          "internalType": "address",
          "name": "to",
          "type": "address"
        },
        {
          "internalType": "uint256[]",
          "name": "ids",
          "type": "uint256[]"
        },
        {
          "internalType": "uint256[]",
          "name": "amounts",
          "type": "uint256[]"
        },
        {
          "internalType": "bytes",
          "name": "data",
          "type": "bytes"
        }
      ],
      "name": "safeBatchTransferFrom",
      "outputs": [],
      "stateMutability": "nonpayable",
      "type": "function"
    },
    {
      "inputs": [
        {
          "internalType": "address",
          "name": "from",
          "type": "address"
        },
        {
          "internalType": "address",
          "name": "to",
          "type": "address"
        },
        {
          "internalType": "uint256",
          "name": "id",
          "type": "uint256"
        },
        {
          "internalType": "uint256",
          "name": "amount",
          "type": "uint256"
        },
        {
          "internalType": "bytes",
          "name": "data",
          "type": "bytes"
        }
      ],
      "name": "safeTransferFrom",
      "outputs": [],
      "stateMutability": "nonpayable",
      "type": "function"
    },
    {
      "inputs": [
        {
          "internalType": "contract AtlantisAddressRegistry",
          "name": "_addressRegistry",
          "type": "address"
        }
      ],
      "name": "setAddressRegistry",
      "outputs": [],
      "stateMutability": "nonpayable",
      "type": "function"
    },
    {
      "inputs": [
        {
          "internalType": "address",
          "name": "operator",
          "type": "address"
        },
        {
          "internalType": "bool",
          "name": "approved",
          "type": "bool"
        }
      ],
      "name": "setApprovalForAll",
      "outputs": [],
      "stateMutability": "nonpayable",
      "type": "function"
    },
    {
      "inputs": [
        {
          "internalType": "string",
          "name": "_newBaseMetadataURI",
          "type": "string"
        }
      ],
      "name": "setBaseMetadataURI",
      "outputs": [],
      "stateMutability": "nonpayable",
      "type": "function"
    },
    {
      "inputs": [
        {
          "internalType": "uint16[]",
          "name": "_equipmentSpeeds",
          "type": "uint16[]"
        }
      ],
      "name": "setEquipmentSpeeds",
      "outputs": [],
      "stateMutability": "nonpayable",
      "type": "function"
    },
    {
      "inputs": [
        {
          "internalType": "uint16[]",
          "name": "_gemstonesRequired",
          "type": "uint16[]"
        }
      ],
      "name": "setGemstonesRequired",
      "outputs": [],
      "stateMutability": "nonpayable",
      "type": "function"
    },
    {
      "inputs": [
        {
          "internalType": "uint256",
          "name": "_newMintCost",
          "type": "uint256"
        }
      ],
      "name": "setMintCost",
      "outputs": [],
      "stateMutability": "nonpayable",
      "type": "function"
    },
    {
      "inputs": [
        {
          "internalType": "enum IAtlantisEquipments.PaymentMode",
          "name": "_paymentMode",
          "type": "uint8"
        }
      ],
      "name": "setPaymentMode",
      "outputs": [],
      "stateMutability": "nonpayable",
      "type": "function"
    },
    {
      "inputs": [
        {
          "internalType": "contract IERC20",
          "name": "_paymentToken",
          "type": "address"
        }
      ],
      "name": "setPaymentToken",
      "outputs": [],
      "stateMutability": "nonpayable",
      "type": "function"
    },
    {
      "inputs": [
        {
          "internalType": "uint256[]",
          "name": "_stardustCost",
          "type": "uint256[]"
        }
      ],
      "name": "setStardustCosts",
      "outputs": [],
      "stateMutability": "nonpayable",
      "type": "function"
    },
    {
      "inputs": [
        {
          "internalType": "uint256",
          "name": "",
          "type": "uint256"
        }
      ],
      "name": "stardustCost",
      "outputs": [
        {
          "internalType": "uint256",
          "name": "",
          "type": "uint256"
        }
      ],
      "stateMutability": "view",
      "type": "function"
    },
    {
      "inputs": [
        {
          "internalType": "bytes4",
          "name": "interfaceId",
          "type": "bytes4"
        }
      ],
      "name": "supportsInterface",
      "outputs": [
        {
          "internalType": "bool",
          "name": "",
          "type": "bool"
        }
      ],
      "stateMutability": "view",
      "type": "function"
    },
    {
      "inputs": [],
      "name": "symbol",
      "outputs": [
        {
          "internalType": "string",
          "name": "",
          "type": "string"
        }
      ],
      "stateMutability": "view",
      "type": "function"
    },
    {
      "inputs": [
        {
          "internalType": "uint256",
          "name": "id",
          "type": "uint256"
        }
      ],
      "name": "totalSupply",
      "outputs": [
        {
          "internalType": "uint256",
          "name": "",
          "type": "uint256"
        }
      ],
      "stateMutability": "view",
      "type": "function"
    },
    {
      "inputs": [
        {
          "internalType": "address",
          "name": "newOwner",
          "type": "address"
        }
      ],
      "name": "transferOwnership",
      "outputs": [],
      "stateMutability": "nonpayable",
      "type": "function"
    },
    {
      "inputs": [],
      "name": "treasury",
      "outputs": [
        {
          "internalType": "address",
          "name": "",
          "type": "address"
        }
      ],
      "stateMutability": "view",
      "type": "function"
    },
    {
      "inputs": [],
      "name": "unpause",
      "outputs": [],
      "stateMutability": "nonpayable",
      "type": "function"
    },
    {
      "inputs": [
        {
          "internalType": "uint256",
          "name": "_tokenId",
          "type": "uint256"
        }
      ],
      "name": "uri",
      "outputs": [
        {
          "internalType": "string",
          "name": "",
          "type": "string"
        }
      ],
      "stateMutability": "view",
      "type": "function"
    },
    {
      "inputs": [
        {
          "internalType": "address[]",
          "name": "_devAddresses",
          "type": "address[]"
        }
      ],
      "name": "whitelistDevAddresses",
      "outputs": [],
      "stateMutability": "nonpayable",
      "type": "function"
    },
    {
      "inputs": [
        {
          "internalType": "address",
          "name": "_token",
          "type": "address"
        },
        {
          "internalType": "uint256",
          "name": "_amount",
          "type": "uint256"
        }
      ],
      "name": "withdrawERC20",
      "outputs": [],
      "stateMutability": "nonpayable",
      "type": "function"
    },
    {
      "inputs": [],
      "name": "withdrawFund",
      "outputs": [],
      "stateMutability": "nonpayable",
      "type": "function"
    }
  ],
  "transactionHash": "0x346f07ca4103cdc1d468fd3c8b2c8a1628507cb8755b686b82c0473de91b7a4d",
  "args": [
    "Atlantis Equipment",
    "EQUIPMENT",
    "ipfs://QmP1FtEm24phvvFxFVmwJcbwcBzeU9kQCKcfB1aV1kCBqd/",
    "0x7AECa63e4B51b0Ff8A8a82b3231033ca4CA6301b",
    "0x16E96b2c52C816D26FEF4991733249e81965D88D",
    "0x493a152A821c6418b62A46bEda4de941b128A4Ac",
    [
      0,
      0,
      0,
      0,
      0
    ],
    [
      1,
      3,
      5,
      7,
      9
    ],
    [
      5,
      15,
      25,
      35,
      45,
      55,
      65,
      75,
      85,
      95
    ]
  ],
  "numDeployments": 1,
  "solcInputHash": "bec2575e0acfaf1c086653f9e4f02639",
  "bytecode": "0x6080604052680ad78ebc5ac6200000600a553480156200001e57600080fd5b50604051620051973803806200519783398101604081905262000041916200078a565b866200004d816200029f565b506003805460ff191690556200006333620002b1565b60016004556001600160a01b038516620000d65760405162461bcd60e51b815260206004820152602960248201527f41746c616e74697345717569706d656e743a205265676973747279206973206160448201526864647265737328302960b81b60648201526084015b60405180910390fd5b6001600160a01b038416620001405760405162461bcd60e51b815260206004820152602960248201527f41746c616e74697345717569706d656e743a205472656173757279206973206160448201526864647265737328302960b81b6064820152608401620000cd565b60066200014e8a826200091f565b5060076200015d89826200091f565b5062000169876200030b565b620001748662000360565b600b80546001600160a01b038088166001600160a01b0319928316179092556014805492871692909116919091179055620001b3600c84600562000443565b50620001c3601183600562000486565b50620001d3601282600a62000486565b506005805460ff19166001179055600b546040805163301c981160e21b815290516001600160a01b039092169163c0726044916004808201926020929091908290030181865afa1580156200022c573d6000803e3d6000fd5b505050506040513d601f19601f82011682018060405250810190620002529190620009eb565b60058054610100600160a81b0319166101006001600160a01b0393841602179055959095166000908152601560205260409020805460ff191660011790555062000a479650505050505050565b6002620002ad82826200091f565b5050565b600380546001600160a01b03838116610100818102610100600160a81b031985161790945560405193909204169182907f8be0079c531659141344cd1fd0a4f28419497f9722a3daafe3b4186f6b6457e090600090a35050565b62000315620003df565b60096200032382826200091f565b507fd926fde11e1623e83f8becaf0d50ebe506b5bb4b70570742a0bb36901f65a5d98160405162000355919062000a12565b60405180910390a150565b6200036a620003df565b6001600160a01b038116620003d15760405162461bcd60e51b815260206004820152602660248201527f4f776e61626c653a206e6577206f776e657220697320746865207a65726f206160448201526564647265737360d01b6064820152608401620000cd565b620003dc81620002b1565b50565b6003546001600160a01b03610100909104163314620004415760405162461bcd60e51b815260206004820181905260248201527f4f776e61626c653a2063616c6c6572206973206e6f7420746865206f776e65726044820152606401620000cd565b565b826005810192821562000474579160200282015b828111156200047457825182559160200191906001019062000457565b506200048292915062000519565b5090565b600183019183908215620004745791602002820160005b83821115620004df57835183826101000a81548161ffff021916908361ffff16021790555092602001926002016020816001010492830192600103026200049d565b80156200050f5782816101000a81549061ffff0219169055600201602081600101049283019260010302620004df565b5050620004829291505b5b808211156200048257600081556001016200051a565b634e487b7160e01b600052604160045260246000fd5b60405160a081016001600160401b03811182821017156200056b576200056b62000530565b60405290565b60005b838110156200058e57818101518382015260200162000574565b50506000910152565b600082601f830112620005a957600080fd5b81516001600160401b0380821115620005c657620005c662000530565b604051601f8301601f19908116603f01168101908282118183101715620005f157620005f162000530565b816040528381528660208588010111156200060b57600080fd5b6200061e84602083016020890162000571565b9695505050505050565b6001600160a01b0381168114620003dc57600080fd5b80516200064b8162000628565b919050565b600082601f8301126200066257600080fd5b6200066c62000546565b8060a08401858111156200067f57600080fd5b845b818110156200069b57805184526020938401930162000681565b509095945050505050565b805161ffff811681146200064b57600080fd5b600082601f830112620006cb57600080fd5b620006d562000546565b8060a0840185811115620006e857600080fd5b845b818110156200069b57620006fe81620006a6565b845260209384019301620006ea565b600082601f8301126200071f57600080fd5b6040516101408082016001600160401b038111838210171562000746576200074662000530565b604052830181858211156200075a57600080fd5b845b828110156200077f576200077081620006a6565b8252602091820191016200075c565b509195945050505050565b60008060008060008060008060006103408a8c031215620007aa57600080fd5b89516001600160401b0380821115620007c257600080fd5b620007d08d838e0162000597565b9a5060208c0151915080821115620007e757600080fd5b620007f58d838e0162000597565b995060408c01519150808211156200080c57600080fd5b506200081b8c828d0162000597565b9750506200082c60608b016200063e565b95506200083c60808b016200063e565b94506200084c60a08b016200063e565b93506200085d8b60c08c0162000650565b92506200086f8b6101608c01620006b9565b9150620008818b6102008c016200070d565b90509295985092959850929598565b600181811c90821680620008a557607f821691505b602082108103620008c657634e487b7160e01b600052602260045260246000fd5b50919050565b601f8211156200091a57600081815260208120601f850160051c81016020861015620008f55750805b601f850160051c820191505b81811015620009165782815560010162000901565b5050505b505050565b81516001600160401b038111156200093b576200093b62000530565b62000953816200094c845462000890565b84620008cc565b602080601f8311600181146200098b5760008415620009725750858301515b600019600386901b1c1916600185901b17855562000916565b600085815260208120601f198616915b82811015620009bc578886015182559484019460019091019084016200099b565b5085821015620009db5787850151600019600388901b60f8161c191681555b5050505050600190811b01905550565b600060208284031215620009fe57600080fd5b815162000a0b8162000628565b9392505050565b602081526000825180602084015262000a3381604085016020870162000571565b601f01601f19169190910160400192915050565b6147408062000a576000396000f3fe6080604052600436106103345760003560e01c80638545f4ea116101ab578063d547cfb7116100f7578063ecade89511610095578063f3ad65f41161006f578063f3ad65f4146109d0578063f3e863bc146109f0578063f679303314610a10578063f9a59eb714610a2657600080fd5b8063ecade89514610970578063f242432a14610990578063f2fde38b146109b057600080fd5b8063e07fa3c1116100d1578063e07fa3c1146108d4578063e0de617d146108e9578063e118ee2014610907578063e985e9c51461092757600080fd5b8063d547cfb71461088a578063dc6ece2a1461089f578063de8bce9d146108b457600080fd5b8063a22cb46511610164578063bd85b0391161013e578063bd85b03914610807578063bdb4b84814610834578063c77d51e01461084a578063c7a8bc8d1461086a57600080fd5b8063a22cb46514610797578063b3d8eb4b146107b7578063b48ab8b6146107e757600080fd5b80638545f4ea146106d857806386481d40146106f85780638da5cb5b1461071857806395d89b411461073b5780639c3d78e314610750578063a1db97821461077757600080fd5b80634892ecaa116102855780635c975abb11610223578063715018a6116101fd578063715018a61461066e5780637e518ec8146106835780638456cb59146106a3578063847b0dc0146106b857600080fd5b80635c975abb1461061657806361d027b31461062e5780636a326ab11461064e57600080fd5b80634e1273f41161025f5780634e1273f4146105895780634f558e79146105b657806352207c4a146105d6578063533eb22d146105f657600080fd5b80634892ecaa146105295780634b93f753146105495780634ca2aa4d1461056957600080fd5b80633013ce29116102f257806332bb3878116102cc57806332bb3878146104b05780633a7d22bc146104cf5780633f4ba83a1461050157806340c10f191461051657600080fd5b80633013ce2914610420578063313995f11461045d578063319811651461047d57600080fd5b8062fdd58e1461033957806301ffc9a71461036c57806306fdde031461039c5780630e89341c146103be57806327c7812c146103de5780632eb2c2d614610400575b600080fd5b34801561034557600080fd5b506103596103543660046133dc565b610a46565b6040519081526020015b60405180910390f35b34801561037857600080fd5b5061038c61038736600461341e565b610adf565b6040519015158152602001610363565b3480156103a857600080fd5b506103b1610b2f565b604051610363919061348b565b3480156103ca57600080fd5b506103b16103d936600461349e565b610bbd565b3480156103ea57600080fd5b506103fe6103f93660046134b7565b610d33565b005b34801561040c57600080fd5b506103fe61041b366004613627565b610e00565b34801561042c57600080fd5b506005546104459061010090046001600160a01b031681565b6040516001600160a01b039091168152602001610363565b34801561046957600080fd5b506103fe6104783660046136eb565b610e4c565b34801561048957600080fd5b5061049d61049836600461349e565b610efe565b60405161ffff9091168152602001610363565b3480156104bc57600080fd5b506103596a084595161401484a00000081565b3480156104db57600080fd5b506104ef6104ea36600461349e565b610f2c565b60405160ff9091168152602001610363565b34801561050d57600080fd5b506103fe610f6d565b6103fe6105243660046133dc565b610f7f565b34801561053557600080fd5b506103fe6105443660046137fc565b6112b1565b34801561055557600080fd5b5061049d61056436600461349e565b611325565b34801561057557600080fd5b506103fe6105843660046136eb565b6113a8565b34801561059557600080fd5b506105a96105a4366004613830565b6114a0565b60405161036391906138ce565b3480156105c257600080fd5b5061038c6105d136600461349e565b6115c9565b3480156105e257600080fd5b5061049d6105f136600461349e565b6115dd565b34801561060257600080fd5b506103fe6106113660046138e1565b6115ed565b34801561062257600080fd5b5060035460ff1661038c565b34801561063a57600080fd5b50601454610445906001600160a01b031681565b34801561065a57600080fd5b506103fe6106693660046134b7565b611894565b34801561067a57600080fd5b506103fe611967565b34801561068f57600080fd5b506103fe61069e36600461390d565b611979565b3480156106af57600080fd5b506103fe6119bd565b3480156106c457600080fd5b506103596106d33660046138e1565b6119cd565b3480156106e457600080fd5b506103fe6106f336600461349e565b611a47565b34801561070457600080fd5b506104ef61071336600461349e565b611b05565b34801561072457600080fd5b5060035461010090046001600160a01b0316610445565b34801561074757600080fd5b506103b1611b75565b34801561075c57600080fd5b5060055461076a9060ff1681565b604051610363919061396b565b34801561078357600080fd5b506103fe6107923660046133dc565b611b82565b3480156107a357600080fd5b506103fe6107b23660046139a1565b611c6f565b3480156107c357600080fd5b5061038c6107d23660046134b7565b60156020526000908152604090205460ff1681565b3480156107f357600080fd5b506103fe6108023660046139da565b611c7a565b34801561081357600080fd5b5061035961082236600461349e565b60009081526008602052604090205490565b34801561084057600080fd5b50610359600a5481565b34801561085657600080fd5b5061049d6108653660046138e1565b611c94565b34801561087657600080fd5b5061035961088536600461349e565b611cd8565b34801561089657600080fd5b506103b1611cef565b3480156108ab57600080fd5b50610359601e81565b3480156108c057600080fd5b5061049d6108cf3660046138e1565b611cfc565b3480156108e057600080fd5b506103fe611d93565b3480156108f557600080fd5b506103596969e10de76676d080000081565b34801561091357600080fd5b506103fe610922366004613a74565b611e11565b34801561093357600080fd5b5061038c610942366004613aca565b6001600160a01b03918216600090815260016020908152604080832093909416825291909152205460ff1690565b34801561097c57600080fd5b506103fe61098b366004613af8565b611e96565b34801561099c57600080fd5b506103fe6109ab366004613b6c565b611f69565b3480156109bc57600080fd5b506103fe6109cb3660046134b7565b611fae565b3480156109dc57600080fd5b50600b54610445906001600160a01b031681565b3480156109fc57600080fd5b50610359610a0b36600461349e565b612024565b348015610a1c57600080fd5b5061049d6101f481565b348015610a3257600080fd5b506103fe610a41366004613bd4565b61208b565b60006001600160a01b038316610ab65760405162461bcd60e51b815260206004820152602a60248201527f455243313135353a2061646472657373207a65726f206973206e6f742061207660448201526930b634b21037bbb732b960b11b60648201526084015b60405180910390fd5b506000818152602081815260408083206001600160a01b03861684529091529020545b92915050565b60006001600160e01b03198216636cdb3d1360e11b1480610b1057506001600160e01b031982166303a24d0760e21b145b80610ad957506301ffc9a760e01b6001600160e01b0319831614610ad9565b60068054610b3c90613bf5565b80601f0160208091040260200160405190810160405280929190818152602001828054610b6890613bf5565b8015610bb55780601f10610b8a57610100808354040283529160200191610bb5565b820191906000526020600020905b815481529060010190602001808311610b9857829003601f168201915b505050505081565b6060610bc8826115c9565b610c275760405162461bcd60e51b815260206004820152602a60248201527f5265736f75726365733a2055524920717565727920666f72206e6f6e657869736044820152693a32b73a103a37b5b2b760b11b6064820152608401610aad565b6000610c32836120e5565b9050600081610c4b610c4386611b05565b60ff1661219c565b604051602001610c5c929190613c4b565b604051602081830303815290604052905080604051602001610c7e9190613cb3565b60405160208183030381529060405290508082610c9d610c4387611b05565b610cb2610ca988611325565b61ffff1661219c565b604051602001610cc59493929190613df3565b6040516020818303038152906040529050610d0881610ce38661222e565b604051602001610cf4929190613f08565b604051602081830303815290604052612278565b905080604051602001610d1b9190613f5c565b60405160208183030381529060405292505050919050565b610d3b6123de565b6001600160a01b038116610dac5760405162461bcd60e51b815260206004820152603260248201527f41746c616e74697345717569706d656e74733a2041646472657373205265676960448201527173747279206973206164647265737328302960701b6064820152608401610aad565b600b80546001600160a01b0319166001600160a01b0383169081179091556040519081527e642c94770a2c959864e4fbb2263a24c595122ac021c793bde7e74ccd8a9592906020015b60405180910390a150565b6001600160a01b038516331480610e1c5750610e1c8533610942565b610e385760405162461bcd60e51b8152600401610aad90613fa1565b610e45858585858561243e565b5050505050565b610e546123de565b60005b81518160ff161015610ece57818160ff1681518110610e7857610e78613fef565b602002602001015160128260ff16600a8110610e9657610e96613fef565b601091828204019190066002026101000a81548161ffff021916908361ffff1602179055508080610ec69061401b565b915050610e57565b507f40a0311c2c005469b2aab4491d4af898bca63a29e93bb1bad934393cfb9ef5a181604051610df5919061403a565b60118160058110610f0e57600080fd5b60109182820401919006600202915054906101000a900461ffff1681565b6000601e821180610f3b575081155b15610f5957604051630d77971360e11b815260040160405180910390fd5b6000610f66600384614098565b9392505050565b610f756123de565b610f7d6125e8565b565b600b5460408051638cc84db760e01b815290516000926001600160a01b031691638cc84db79160048083019260209291908290030181865afa158015610fc9573d6000803e3d6000fd5b505050506040513d601f19601f82011682018060405250810190610fed91906140ba565b905060008060055460ff16600181111561100957611009613955565b0361107c57600a5461101b90846140d7565b34146110775760405162461bcd60e51b815260206004820152602560248201527f41746c616e74697345717569706d656e74733a20496e73756666696369656e746044820152642043524f2160d81b6064820152608401610aad565b611249565b600b60009054906101000a90046001600160a01b03166001600160a01b031663c07260446040518163ffffffff1660e01b8152600401602060405180830381865afa1580156110cf573d6000803e3d6000fd5b505050506040513d601f19601f820116820180604052508101906110f391906140ba565b6005546001600160a01b039182166101009091049091160361118157816001600160a01b031663a7b8b49184600a5461112c91906140d7565b6040518263ffffffff1660e01b815260040161114a91815260200190565b600060405180830381600087803b15801561116457600080fd5b505af1158015611178573d6000803e3d6000fd5b50505050611249565b600560019054906101000a90046001600160a01b03166001600160a01b03166323b872dd333086600a546111b591906140d7565b6040516001600160e01b031960e086901b1681526001600160a01b03938416600482015292909116602483015260448201526064016020604051808303816000875af1158015611209573d6000803e3d6000fd5b505050506040513d601f19601f8201168201806040525081019061122d91906140ee565b6112495760405162461bcd60e51b8152600401610aad9061410b565b60005b83811015610e455761125c61263a565b611267906001614134565b915060016013600082825461127c9190614134565b9250508190555061129f85836001604051806020016040528060008152506126b1565b806112a981614147565b91505061124c565b6112b96123de565b60005b8151811015611321576001601560008484815181106112dd576112dd613fef565b6020908102919091018101516001600160a01b03168252810191909152604001600020805460ff19169115159190911790558061131981614147565b9150506112bc565b5050565b6000601e82111561134957604051630d77971360e11b815260040160405180910390fd5b8160000361135957506000919050565b600061136483611b05565b90506012611373600183614160565b60ff16600a811061138657611386613fef565b601091828204019190066002029054906101000a900461ffff16915050919050565b6113b06123de565b60005b81518160ff161015611470576101f461ffff16828260ff16815181106113db576113db613fef565b602002602001015161ffff1611156114055760405162461bcd60e51b8152600401610aad90614179565b818160ff168151811061141a5761141a613fef565b602002602001015160118260ff166005811061143857611438613fef565b601091828204019190066002026101000a81548161ffff021916908361ffff16021790555080806114689061401b565b9150506113b3565b507fe81577211d9975f00cfe41bcbbe40e08403891b18b369494e80a7debc13054d081604051610df5919061403a565b606081518351146115055760405162461bcd60e51b815260206004820152602960248201527f455243313135353a206163636f756e747320616e6420696473206c656e677468604482015268040dad2e6dac2e8c6d60bb1b6064820152608401610aad565b600083516001600160401b03811115611520576115206134d4565b604051908082528060200260200182016040528015611549578160200160208202803683370190505b50905060005b84518110156115c15761159485828151811061156d5761156d613fef565b602002602001015185838151811061158757611587613fef565b6020026020010151610a46565b8282815181106115a6576115a6613fef565b60209081029190910101526115ba81614147565b905061154f565b509392505050565b60008082118015610ad9575050601e101590565b601281600a8110610f0e57600080fd5b6115f561279a565b600b5460408051633c36884360e11b815290516000926001600160a01b03169163786d10869160048083019260209291908290030181865afa15801561163f573d6000803e3d6000fd5b505050506040513d601f19601f8201168201806040525081019061166391906140ba565b90506000600b60009054906101000a90046001600160a01b03166001600160a01b0316638cc84db76040518163ffffffff1660e01b8152600401602060405180830381865afa1580156116ba573d6000803e3d6000fd5b505050506040513d601f19601f820116820180604052508101906116de91906140ba565b905060006116ec85856119cd565b905060006116fa8686611cfc565b61ffff169050600061170c8787611c94565b61ffff169050600061171f886003614134565b905061172c3389846127f3565b61174b33828961ffff16604051806020016040528060008152506126b1565b856001600160a01b031663f5298aca336117648b612024565b6040516001600160e01b031960e085901b1681526001600160a01b039092166004830152602482015260448101869052606401600060405180830381600087803b1580156117b157600080fd5b505af11580156117c5573d6000803e3d6000fd5b50505050600084111561182d5760405163a7b8b49160e01b8152600481018590526001600160a01b0386169063a7b8b49190602401600060405180830381600087803b15801561181457600080fd5b505af1158015611828573d6000803e3d6000fd5b505050505b80337fdf12b4bb90c3369aed19b118de446a1d58b668c901813629a6baf8190c739205896118678460009081526008602052604090205490565b6040805161ffff909316835260208301919091520160405180910390a35050505050506113216001600455565b61189c6123de565b6001600160a01b0381166119115760405162461bcd60e51b815260206004820152603660248201527f41746c616e74697345717569706d656e74733a205061796d656e7420746f6b656044820152756e2063616e6e6f74206265206164647265737328302960501b6064820152608401610aad565b60058054610100600160a81b0319166101006001600160a01b038416908102919091179091556040519081527fbd4032c1c91da2791730ea1bbc82c6b6f857da7c0a8318143d19ef74e62cd91390602001610df5565b61196f6123de565b610f7d6000612983565b6119816123de565b600961198d8282614200565b507fd926fde11e1623e83f8becaf0d50ebe506b5bb4b70570742a0bb36901f65a5d981604051610df5919061348b565b6119c56123de565b610f7d6129dd565b6000600d8310156119e057506000610ad9565b601b831115611a0257604051632e23e9d160e01b815260040160405180910390fd5b6000611a0d84611b05565b9050600c611a1c600583614160565b60ff1660058110611a2f57611a2f613fef565b0154611a3f9061ffff85166140d7565b949350505050565b611a4f6123de565b6a084595161401484a000000811115611ad05760405162461bcd60e51b815260206004820152603b60248201527f41746c616e74697345717569706d656e74733a204d696e7420636f737420636160448201527f6e6e6f742062652061626f7665206d6178206d696e7420636f737400000000006064820152608401610aad565b600a8190556040518181527fde03a6195f6a732ff0af69781292526beecc585b4278fa1baa4d9dd578f88a5c90602001610df5565b6000601e821115611b2957604051630d77971360e11b815260040160405180910390fd5b81600003611b3957506000919050565b6000611b466003846142bf565b600003611b5f57611b586003846142d3565b9050610ad9565b611b6a6003846142d3565b610f669060016142f5565b60078054610b3c90613bf5565b611b8a6123de565b6001600160a01b038216611bd65760405162461bcd60e51b8152602060048201526013602482015272546f6b656e206973206164647265737328302960681b6044820152606401610aad565b60145460405163a9059cbb60e01b81526001600160a01b03918216600482015260248101839052839182169063a9059cbb906044016020604051808303816000875af1158015611c2a573d6000803e3d6000fd5b505050506040513d601f19601f82011682018060405250810190611c4e91906140ee565b611c6a5760405162461bcd60e51b8152600401610aad9061410b565b505050565b611321338383612a1a565b611c826123de565b611c8e84848484612afa565b50505050565b6000611c9f836115c9565b1580611cad575061ffff8216155b15611ccb57604051632e23e9d160e01b815260040160405180910390fd5b6000611a3f83600261430e565b600c8160058110611ce857600080fd5b0154905081565b60098054610b3c90613bf5565b6000600d831015611d0f57506000610ad9565b6000611d1c6003856142bf565b600003611d3557611d2e6003856142d3565b9050611d4e565b611d406003856142d3565b611d4b9060016142f5565b90505b6011611d5b600583614160565b60ff1660058110611d6e57611d6e613fef565b601091828204019190066002029054906101000a900461ffff1683611a3f919061430e565b611d9b6123de565b6014546040516000916001600160a01b03169047908381818185875af1925050503d8060008114611de8576040519150601f19603f3d011682016040523d82523d6000602084013e611ded565b606091505b5050905080611e0e5760405162461bcd60e51b8152600401610aad9061410b565b50565b3360009081526015602052604090205460ff16611e8a5760405162461bcd60e51b815260206004820152603160248201527f4f6e6c792077686974656c6973746564206164647265737365732063616e206360448201527030b636103a3434b990333ab731ba34b7b760791b6064820152608401610aad565b611c8e848484846126b1565b611e9e6123de565b60005b81811015611f2b576969e10de76676d0800000838383818110611ec657611ec6613fef565b905060200201351115611eeb5760405162461bcd60e51b8152600401610aad90614179565b828282818110611efd57611efd613fef565b90506020020135600c8260058110611f1757611f17613fef565b015580611f2381614147565b915050611ea1565b507f3212cb4e709caad2e535420b446765407f0f1d0ae3f8d28bfaa2af32d93267ac8282604051611f5d929190614334565b60405180910390a15050565b6001600160a01b038516331480611f855750611f858533610942565b611fa15760405162461bcd60e51b8152600401610aad90613fa1565b610e458585858585612c54565b611fb66123de565b6001600160a01b03811661201b5760405162461bcd60e51b815260206004820152602660248201527f4f776e61626c653a206e6577206f776e657220697320746865207a65726f206160448201526564647265737360d01b6064820152608401610aad565b611e0e81612983565b6000601b82111561204857604051632e23e9d160e01b815260040160405180910390fd5b60006120556003846142bf565b90506000816001036120695750600a610f66565b816002036120795750600b610f66565b81600003610f665750600c9392505050565b6120936123de565b6005805482919060ff1916600183818111156120b1576120b1613955565b02179055507ff7e655920d70e25761347ac15a1c87f9e9b6d2e70286b2042389a0564e20bacb81604051610df5919061396b565b606060006120f46003846142bf565b905060608160010361212e5750604080518082019091526011815270496e6665726e6f2054687275737465727360781b6020820152610f66565b8160020361216457506040805180820190915260118152705468756e646572626f6c742057696e677360781b6020820152610f66565b81600003610f665750604080518082019091526011815270105c99dbdb9a5d5b48115e1bdcda195b1b607a1b60208201529392505050565b606060006121a983612d8c565b60010190506000816001600160401b038111156121c8576121c86134d4565b6040519080825280601f01601f1916602001820160405280156121f2576020820181803683370190505b5090508181016020015b600019016f181899199a1a9b1b9c1cb0b131b232b360811b600a86061a8153600a85049450846121fc57509392505050565b6060612238612e64565b612244610c4384610f2c565b612250610c4385611b05565b6040516020016122629392919061436d565b6040516020818303038152906040529050919050565b6060815160000361229757505060408051602081019091526000815290565b60006040518060600160405280604081526020016146cb60409139905060006003845160026122c69190614134565b6122d091906143ce565b6122db9060046140d7565b905060006122ea826020614134565b6001600160401b03811115612301576123016134d4565b6040519080825280601f01601f19166020018201604052801561232b576020820181803683370190505b509050818152600183018586518101602084015b818310156123995760039283018051603f601282901c811687015160f890811b8552600c83901c8216880151811b6001860152600683901c8216880151811b60028601529116860151901b9382019390935260040161233f565b6003895106600181146123b357600281146123c4576123d0565b613d3d60f01b6001198301526123d0565b603d60f81b6000198301525b509398975050505050505050565b6003546001600160a01b03610100909104163314610f7d5760405162461bcd60e51b815260206004820181905260248201527f4f776e61626c653a2063616c6c6572206973206e6f7420746865206f776e65726044820152606401610aad565b815183511461245f5760405162461bcd60e51b8152600401610aad906143e2565b6001600160a01b0384166124855760405162461bcd60e51b8152600401610aad9061442a565b33612494818787878787612ef6565b60005b845181101561257a5760008582815181106124b4576124b4613fef565b6020026020010151905060008583815181106124d2576124d2613fef565b602090810291909101810151600084815280835260408082206001600160a01b038e1683529093529190912054909150818110156125225760405162461bcd60e51b8152600401610aad9061446f565b6000838152602081815260408083206001600160a01b038e8116855292528083208585039055908b1682528120805484929061255f908490614134565b925050819055505050508061257390614147565b9050612497565b50846001600160a01b0316866001600160a01b0316826001600160a01b03167f4a39dc06d4c0dbc64b70af90fd698a233a518aa5d07e595d983b8c0526c8f7fb87876040516125ca9291906144b9565b60405180910390a46125e08187878787876130d7565b505050505050565b6125f0613232565b6003805460ff191690557f5db9ee0a495bf2e6ff9c91a7834c1ba4fdd244a5e8aa4e537bd38aeae4b073aa335b6040516001600160a01b03909116815260200160405180910390a1565b6013546040516bffffffffffffffffffffffff1933606090811b8216602084015241901b16603482015244604882015245606882015242608882015260a8810191909152600090819060c80160408051601f19818403018152919052805160209091012090506126ab6003826142bf565b91505090565b6001600160a01b0384166126d75760405162461bcd60e51b8152600401610aad906144e7565b3360006126e38561327b565b905060006126f08561327b565b905061270183600089858589612ef6565b6000868152602081815260408083206001600160a01b038b16845290915281208054879290612731908490614134565b909155505060408051878152602081018790526001600160a01b03808a1692600092918716917fc3d58168c5ae7397731d063d5bbf3d657854427343f4c083240f7aacaa2d0f62910160405180910390a4612791836000898989896132c6565b50505050505050565b6002600454036127ec5760405162461bcd60e51b815260206004820152601f60248201527f5265656e7472616e637947756172643a207265656e7472616e742063616c6c006044820152606401610aad565b6002600455565b6001600160a01b0383166128555760405162461bcd60e51b815260206004820152602360248201527f455243313135353a206275726e2066726f6d20746865207a65726f206164647260448201526265737360e81b6064820152608401610aad565b3360006128618461327b565b9050600061286e8461327b565b905061288e83876000858560405180602001604052806000815250612ef6565b6000858152602081815260408083206001600160a01b038a1684529091529020548481101561290b5760405162461bcd60e51b8152602060048201526024808201527f455243313135353a206275726e20616d6f756e7420657863656564732062616c604482015263616e636560e01b6064820152608401610aad565b6000868152602081815260408083206001600160a01b038b81168086529184528285208a8703905582518b81529384018a90529092908816917fc3d58168c5ae7397731d063d5bbf3d657854427343f4c083240f7aacaa2d0f62910160405180910390a4604080516020810190915260009052612791565b600380546001600160a01b03838116610100818102610100600160a81b031985161790945560405193909204169182907f8be0079c531659141344cd1fd0a4f28419497f9722a3daafe3b4186f6b6457e090600090a35050565b6129e5613381565b6003805460ff191660011790557f62e78cea01bee320cd4e420270b5ea74000d11b0c9f74754ebdbfc544b05a25861261d3390565b816001600160a01b0316836001600160a01b031603612a8d5760405162461bcd60e51b815260206004820152602960248201527f455243313135353a2073657474696e6720617070726f76616c20737461747573604482015268103337b91039b2b63360b91b6064820152608401610aad565b6001600160a01b03838116600081815260016020908152604080832094871680845294825291829020805460ff191686151590811790915591519182527f17307eab39ab6107e8899845ad3d59bd9653f200f220920489ca2b5937696c31910160405180910390a3505050565b6001600160a01b038416612b205760405162461bcd60e51b8152600401610aad906144e7565b8151835114612b415760405162461bcd60e51b8152600401610aad906143e2565b33612b5181600087878787612ef6565b60005b8451811015612bec57838181518110612b6f57612b6f613fef565b6020026020010151600080878481518110612b8c57612b8c613fef565b602002602001015181526020019081526020016000206000886001600160a01b03166001600160a01b031681526020019081526020016000206000828254612bd49190614134565b90915550819050612be481614147565b915050612b54565b50846001600160a01b031660006001600160a01b0316826001600160a01b03167f4a39dc06d4c0dbc64b70af90fd698a233a518aa5d07e595d983b8c0526c8f7fb8787604051612c3d9291906144b9565b60405180910390a4610e45816000878787876130d7565b6001600160a01b038416612c7a5760405162461bcd60e51b8152600401610aad9061442a565b336000612c868561327b565b90506000612c938561327b565b9050612ca3838989858589612ef6565b6000868152602081815260408083206001600160a01b038c16845290915290205485811015612ce45760405162461bcd60e51b8152600401610aad9061446f565b6000878152602081815260408083206001600160a01b038d8116855292528083208985039055908a16825281208054889290612d21908490614134565b909155505060408051888152602081018890526001600160a01b03808b16928c821692918816917fc3d58168c5ae7397731d063d5bbf3d657854427343f4c083240f7aacaa2d0f62910160405180910390a4612d81848a8a8a8a8a6132c6565b505050505050505050565b60008072184f03e93ff9f4daa797ed6e38ed64bf6a1f0160401b8310612dcb5772184f03e93ff9f4daa797ed6e38ed64bf6a1f0160401b830492506040015b6d04ee2d6d415b85acef81000000008310612df7576d04ee2d6d415b85acef8100000000830492506020015b662386f26fc100008310612e1557662386f26fc10000830492506010015b6305f5e1008310612e2d576305f5e100830492506008015b6127108310612e4157612710830492506004015b60648310612e53576064830492506002015b600a8310610ad95760010192915050565b606060098054612e7390613bf5565b80601f0160208091040260200160405190810160405280929190818152602001828054612e9f90613bf5565b8015612eec5780601f10612ec157610100808354040283529160200191612eec565b820191906000526020600020905b815481529060010190602001808311612ecf57829003601f168201915b5050505050905090565b60035460ff1615612f5e5760405162461bcd60e51b815260206004820152602c60248201527f455243313135355061757361626c653a20746f6b656e207472616e736665722060448201526b1dda1a5b19481c185d5cd95960a21b6064820152608401610aad565b6001600160a01b038516612fe55760005b8351811015612fe357828181518110612f8a57612f8a613fef565b602002602001015160086000868481518110612fa857612fa8613fef565b602002602001015181526020019081526020016000206000828254612fcd9190614134565b90915550612fdc905081614147565b9050612f6f565b505b6001600160a01b0384166125e05760005b835181101561279157600084828151811061301357613013613fef565b60200260200101519050600084838151811061303157613031613fef565b60200260200101519050600060086000848152602001908152602001600020549050818110156130b45760405162461bcd60e51b815260206004820152602860248201527f455243313135353a206275726e20616d6f756e74206578636565647320746f74604482015267616c537570706c7960c01b6064820152608401610aad565b600092835260086020526040909220910390556130d081614147565b9050612ff6565b6001600160a01b0384163b156125e05760405163bc197c8160e01b81526001600160a01b0385169063bc197c819061311b9089908990889088908890600401614528565b6020604051808303816000875af1925050508015613156575060408051601f3d908101601f1916820190925261315391810190614586565b60015b613202576131626145a3565b806308c379a00361319b57506131766145bf565b80613181575061319d565b8060405162461bcd60e51b8152600401610aad919061348b565b505b60405162461bcd60e51b815260206004820152603460248201527f455243313135353a207472616e7366657220746f206e6f6e2d455243313135356044820152732932b1b2b4bb32b91034b6b83632b6b2b73a32b960611b6064820152608401610aad565b6001600160e01b0319811663bc197c8160e01b146127915760405162461bcd60e51b8152600401610aad90614648565b60035460ff16610f7d5760405162461bcd60e51b815260206004820152601460248201527314185d5cd8589b194e881b9bdd081c185d5cd95960621b6044820152606401610aad565b604080516001808252818301909252606091600091906020808301908036833701905050905082816000815181106132b5576132b5613fef565b602090810291909101015292915050565b6001600160a01b0384163b156125e05760405163f23a6e6160e01b81526001600160a01b0385169063f23a6e619061330a9089908990889088908890600401614690565b6020604051808303816000875af1925050508015613345575060408051601f3d908101601f1916820190925261334291810190614586565b60015b613351576131626145a3565b6001600160e01b0319811663f23a6e6160e01b146127915760405162461bcd60e51b8152600401610aad90614648565b60035460ff1615610f7d5760405162461bcd60e51b815260206004820152601060248201526f14185d5cd8589b194e881c185d5cd95960821b6044820152606401610aad565b6001600160a01b0381168114611e0e57600080fd5b600080604083850312156133ef57600080fd5b82356133fa816133c7565b946020939093013593505050565b6001600160e01b031981168114611e0e57600080fd5b60006020828403121561343057600080fd5b8135610f6681613408565b60005b8381101561345657818101518382015260200161343e565b50506000910152565b6000815180845261347781602086016020860161343b565b601f01601f19169290920160200192915050565b602081526000610f66602083018461345f565b6000602082840312156134b057600080fd5b5035919050565b6000602082840312156134c957600080fd5b8135610f66816133c7565b634e487b7160e01b600052604160045260246000fd5b601f8201601f191681016001600160401b038111828210171561350f5761350f6134d4565b6040525050565b60006001600160401b0382111561352f5761352f6134d4565b5060051b60200190565b600082601f83011261354a57600080fd5b8135602061355782613516565b60405161356482826134ea565b83815260059390931b850182019282810191508684111561358457600080fd5b8286015b8481101561359f5780358352918301918301613588565b509695505050505050565b60006001600160401b038311156135c3576135c36134d4565b6040516135da601f8501601f1916602001826134ea565b8091508381528484840111156135ef57600080fd5b83836020830137600060208583010152509392505050565b600082601f83011261361857600080fd5b610f66838335602085016135aa565b600080600080600060a0868803121561363f57600080fd5b853561364a816133c7565b9450602086013561365a816133c7565b935060408601356001600160401b038082111561367657600080fd5b61368289838a01613539565b9450606088013591508082111561369857600080fd5b6136a489838a01613539565b935060808801359150808211156136ba57600080fd5b506136c788828901613607565b9150509295509295909350565b803561ffff811681146136e657600080fd5b919050565b600060208083850312156136fe57600080fd5b82356001600160401b0381111561371457600080fd5b8301601f8101851361372557600080fd5b803561373081613516565b60405161373d82826134ea565b82815260059290921b830184019184810191508783111561375d57600080fd5b928401925b8284101561378257613773846136d4565b82529284019290840190613762565b979650505050505050565b600082601f83011261379e57600080fd5b813560206137ab82613516565b6040516137b882826134ea565b83815260059390931b85018201928281019150868411156137d857600080fd5b8286015b8481101561359f5780356137ef816133c7565b83529183019183016137dc565b60006020828403121561380e57600080fd5b81356001600160401b0381111561382457600080fd5b611a3f8482850161378d565b6000806040838503121561384357600080fd5b82356001600160401b038082111561385a57600080fd5b6138668683870161378d565b9350602085013591508082111561387c57600080fd5b5061388985828601613539565b9150509250929050565b600081518084526020808501945080840160005b838110156138c3578151875295820195908201906001016138a7565b509495945050505050565b602081526000610f666020830184613893565b600080604083850312156138f457600080fd5b82359150613904602084016136d4565b90509250929050565b60006020828403121561391f57600080fd5b81356001600160401b0381111561393557600080fd5b8201601f8101841361394657600080fd5b611a3f848235602084016135aa565b634e487b7160e01b600052602160045260246000fd5b602081016002831061398d57634e487b7160e01b600052602160045260246000fd5b91905290565b8015158114611e0e57600080fd5b600080604083850312156139b457600080fd5b82356139bf816133c7565b915060208301356139cf81613993565b809150509250929050565b600080600080608085870312156139f057600080fd5b84356139fb816133c7565b935060208501356001600160401b0380821115613a1757600080fd5b613a2388838901613539565b94506040870135915080821115613a3957600080fd5b613a4588838901613539565b93506060870135915080821115613a5b57600080fd5b50613a6887828801613607565b91505092959194509250565b60008060008060808587031215613a8a57600080fd5b8435613a95816133c7565b9350602085013592506040850135915060608501356001600160401b03811115613abe57600080fd5b613a6887828801613607565b60008060408385031215613add57600080fd5b8235613ae8816133c7565b915060208301356139cf816133c7565b60008060208385031215613b0b57600080fd5b82356001600160401b0380821115613b2257600080fd5b818501915085601f830112613b3657600080fd5b813581811115613b4557600080fd5b8660208260051b8501011115613b5a57600080fd5b60209290920196919550909350505050565b600080600080600060a08688031215613b8457600080fd5b8535613b8f816133c7565b94506020860135613b9f816133c7565b9350604086013592506060860135915060808601356001600160401b03811115613bc857600080fd5b6136c788828901613607565b600060208284031215613be657600080fd5b813560028110610f6657600080fd5b600181811c90821680613c0957607f821691505b602082108103613c2957634e487b7160e01b600052602260045260246000fd5b50919050565b60008151613c4181856020860161343b565b9290920192915050565b693d913730b6b2911d101160b11b81528251600090613c7181600a85016020880161343b565b660102632bb32b6160cd1b600a918401918201528351613c9881601184016020880161343b565b61088b60f21b60119290910191820152601301949350505050565b60008251613cc581846020870161343b565b7f226465736372697074696f6e223a202257656c636f6d6520746f2074686520639201918252507f61707469766174696e67207265616c6d206f662041746c616e7469732c20746860208201527f652067616d652d766572736520616e6420686f6d65206f6620746865206c656760408201527f656e64617279204172676f6e617574732e2045717569706d656e74206172652060608201527f76616c7561626c65206974656d732077686963682070726f766964657320737060808201527f65656420626f6f737420746f20796f757220537061636573686970732e20467560a08201527f736520322045717569706d656e74206f66207468652073616d65206c6576656c60c082015271081d1bc81b195d995b081a5d081d5c08488b60721b60e082015260f201919050565b60008551613e05818460208a0161343b565b80830190507f2261747472696275746573223a205b7b2274726169745f74797065223a20225481526f3cb832911610113b30b63ab2911d101160811b60208201528551613e59816030840160208a0161343b565b62089f4b60ea1b6030929091019182018190527f7b2274726169745f74797065223a20224c6576656c222c202276616c7565223a603383015261101160f11b605383018190528651613eb2816055860160208b0161343b565b60559301928301919091527f7b2274726169745f74797065223a20225370656564222c202276616c7565223a60588301526078820152613782613ef8607a830186613c2f565b63089f574b60e21b815260040190565b60008351613f1a81846020880161343b565b691134b6b0b3b2911d101160b11b9083019081528351613f4181600a84016020880161343b565b61227d60f01b600a9290910191820152600c01949350505050565b7f646174613a6170706c69636174696f6e2f6a736f6e3b6261736536342c000000815260008251613f9481601d85016020870161343b565b91909101601d0192915050565b6020808252602e908201527f455243313135353a2063616c6c6572206973206e6f7420746f6b656e206f776e60408201526d195c881bdc88185c1c1c9bdd995960921b606082015260800190565b634e487b7160e01b600052603260045260246000fd5b634e487b7160e01b600052601160045260246000fd5b600060ff821660ff810361403157614031614005565b60010192915050565b6020808252825182820181905260009190848201906040850190845b8181101561407657835161ffff1683529284019291840191600101614056565b50909695505050505050565b634e487b7160e01b600052601260045260246000fd5b600060ff8316806140ab576140ab614082565b8060ff84160691505092915050565b6000602082840312156140cc57600080fd5b8151610f66816133c7565b8082028115828204841417610ad957610ad9614005565b60006020828403121561410057600080fd5b8151610f6681613993565b6020808252600f908201526e151c985b9cd9995c8819985a5b1959608a1b604082015260600190565b80820180821115610ad957610ad9614005565b60006001820161415957614159614005565b5060010190565b60ff8281168282160390811115610ad957610ad9614005565b60208082526021908201527f56616c7565206578636565647320746865206d6178696d756d20616c6c6f77656040820152601960fa1b606082015260800190565b601f821115611c6a57600081815260208120601f850160051c810160208610156141e15750805b601f850160051c820191505b818110156125e0578281556001016141ed565b81516001600160401b03811115614219576142196134d4565b61422d816142278454613bf5565b846141ba565b602080601f831160018114614262576000841561424a5750858301515b600019600386901b1c1916600185901b1785556125e0565b600085815260208120601f198616915b8281101561429157888601518255948401946001909101908401614272565b50858210156142af5787850151600019600388901b60f8161c191681555b5050505050600190811b01905550565b6000826142ce576142ce614082565b500690565b600060ff8316806142e6576142e6614082565b8060ff84160491505092915050565b60ff8181168382160190811115610ad957610ad9614005565b61ffff81811683821602808216919082811461432c5761432c614005565b505092915050565b6020808252810182905260006001600160fb1b0383111561435457600080fd5b8260051b80856040850137919091016040019392505050565b6000845161437f81846020890161343b565b84519083019061439381836020890161343b565b602f60f81b910190815283516143b081600184016020880161343b565b632e706e6760e01b6001929091019182015260050195945050505050565b6000826143dd576143dd614082565b500490565b60208082526028908201527f455243313135353a2069647320616e6420616d6f756e7473206c656e677468206040820152670dad2e6dac2e8c6d60c31b606082015260800190565b60208082526025908201527f455243313135353a207472616e7366657220746f20746865207a65726f206164604082015264647265737360d81b606082015260800190565b6020808252602a908201527f455243313135353a20696e73756666696369656e742062616c616e636520666f60408201526939103a3930b739b332b960b11b606082015260800190565b6040815260006144cc6040830185613893565b82810360208401526144de8185613893565b95945050505050565b60208082526021908201527f455243313135353a206d696e7420746f20746865207a65726f206164647265736040820152607360f81b606082015260800190565b6001600160a01b0386811682528516602082015260a06040820181905260009061455490830186613893565b82810360608401526145668186613893565b9050828103608084015261457a818561345f565b98975050505050505050565b60006020828403121561459857600080fd5b8151610f6681613408565b600060033d11156145bc5760046000803e5060005160e01c5b90565b600060443d10156145cd5790565b6040516003193d81016004833e81513d6001600160401b0381602484011181841117156145fc57505050505090565b82850191508151818111156146145750505050505090565b843d870101602082850101111561462e5750505050505090565b61463d602082860101876134ea565b509095945050505050565b60208082526028908201527f455243313135353a204552433131353552656365697665722072656a656374656040820152676420746f6b656e7360c01b606082015260800190565b6001600160a01b03868116825285166020820152604081018490526060810183905260a0608082018190526000906137829083018461345f56fe4142434445464748494a4b4c4d4e4f505152535455565758595a6162636465666768696a6b6c6d6e6f707172737475767778797a303132333435363738392b2fa264697066735822122091bb73427ae6a7e1b548061b288f71a2ba1fb35510e86773879d1383dd30252764736f6c63430008110033",
  "devdoc": {
    "details": "Fuse 2 equipment of the same tier to receive 1 from the next tier. Equipment can be equipped on spaceships to boost their speed in a race.",
    "kind": "dev",
    "methods": {
      "airdrop(address,uint256,uint256,bytes)": {
        "details": "Airdrop some equipments to an address",
        "params": {
          "_data": "Data to pass if receiver is contract",
          "_id": "Token ID to mint",
          "_quantity": "Amount of tokens to mint",
          "_to": "Address of the future owner of the token"
        }
      },
      "balanceOf(address,uint256)": {
        "details": "See {IERC1155-balanceOf}. Requirements: - `account` cannot be the zero address."
      },
      "balanceOfBatch(address[],uint256[])": {
        "details": "See {IERC1155-balanceOfBatch}. Requirements: - `accounts` and `ids` must have the same length."
      },
      "batchMint(address,uint256[],uint256[],bytes)": {
        "details": "Mint tokens for each id in _ids",
        "params": {
          "_data": "Data to pass if receiver is contract",
          "_ids": "Array of ids to mint",
          "_quantities": "Array of amounts of tokens to mint per id",
          "_to": "The address to mint tokens to"
        }
      },
      "calculateFusionCost(uint256,uint16)": {
        "params": {
          "_amountToCreate": "Amount of next tier equipment to create",
          "_id": "Specific equipment id"
        },
        "returns": {
          "_0": "Fusion cost"
        }
      },
      "calculateGemstonesCost(uint256,uint16)": {
        "params": {
          "_amountToCreate": "Amount of next tier equipment to create",
          "_id": "Specific equipment id"
        },
        "returns": {
          "_0": "Gemstone cost"
        }
      },
      "constructor": {
        "params": {
          "_name": "Name of contract",
          "_registry": "Registry of Atlantis",
          "_symbol": "Symbol of contract",
          "_treasury": "Address of treaury",
          "baseURI": "base URI with images",
          "owner": "Address of owner"
        }
      },
      "exists(uint256)": {
        "details": "Indicates whether any token exist with a given id, or not."
      },
      "fuseEquipment(uint256,uint16)": {
        "params": {
          "_amountToCreate": "Amount of next tier equipment to create",
          "_id": "The id of the equipment"
        }
      },
      "fuseEquipmentsView(uint256,uint16)": {
        "params": {
          "_amountToCreate": "Amount of next tier equipment to create",
          "_id": "Specific equipment id"
        },
        "returns": {
          "_0": "amount to fuse"
        }
      },
      "getElement(uint256)": {
        "params": {
          "_id": "Specific equipment id"
        },
        "returns": {
          "_0": "element"
        }
      },
      "getGemstoneIdFromEquipmentId(uint256)": {
        "details": "Get gemstone id from equipment Id"
      },
      "getLevel(uint256)": {
        "params": {
          "_id": "Specific equipment id"
        },
        "returns": {
          "_0": "level of equipment"
        }
      },
      "getSpeed(uint256)": {
        "params": {
          "_id": "Specific equipment id"
        },
        "returns": {
          "_0": "speed of equipment"
        }
      },
      "isApprovedForAll(address,address)": {
        "details": "See {IERC1155-isApprovedForAll}."
      },
      "owner()": {
        "details": "Returns the address of the current owner."
      },
      "pause()": {
        "details": "Pause contract in case of emergency"
      },
      "paused()": {
        "details": "Returns true if the contract is paused, and false otherwise."
      },
      "renounceOwnership()": {
        "details": "Leaves the contract without owner. It will not be possible to call `onlyOwner` functions anymore. Can only be called by the current owner. NOTE: Renouncing ownership will leave the contract without an owner, thereby removing any functionality that is only available to the owner."
      },
      "safeBatchTransferFrom(address,address,uint256[],uint256[],bytes)": {
        "details": "See {IERC1155-safeBatchTransferFrom}."
      },
      "safeTransferFrom(address,address,uint256,uint256,bytes)": {
        "details": "See {IERC1155-safeTransferFrom}."
      },
      "setAddressRegistry(address)": {
        "details": "Set Address Registry contract address",
        "params": {
          "_addressRegistry": "Address of Address Registry contract"
        }
      },
      "setApprovalForAll(address,bool)": {
        "details": "See {IERC1155-setApprovalForAll}."
      },
      "setBaseMetadataURI(string)": {
        "details": "Will update the base URL of token's URI",
        "params": {
          "_newBaseMetadataURI": "New base URL of token's URI"
        }
      },
      "setEquipmentSpeeds(uint16[])": {
        "params": {
          "_equipmentSpeeds": "Array of equipment speeds"
        }
      },
      "setGemstonesRequired(uint16[])": {
        "params": {
          "_gemstonesRequired": "Array of gemstonesRequired"
        }
      },
      "setStardustCosts(uint256[])": {
        "params": {
          "_stardustCost": "Array of stardust costs"
        }
      },
      "supportsInterface(bytes4)": {
        "details": "See {IERC165-supportsInterface}."
      },
      "totalSupply(uint256)": {
        "details": "Total amount of tokens in with a given id.",
        "returns": {
          "_0": "uint256"
        }
      },
      "transferOwnership(address)": {
        "details": "Transfers ownership of the contract to a new account (`newOwner`). Can only be called by the current owner."
      },
      "unpause()": {
        "details": "Unpause contract in case of emergency"
      },
      "uri(uint256)": {
        "params": {
          "_tokenId": "The id of the equipment"
        },
        "returns": {
          "_0": "returns string of token metadata"
        }
      }
    },
    "title": "Atlantis - Equipment contract",
    "version": 1
  },
  "userdoc": {
    "kind": "user",
    "methods": {
      "MAX_GEMSTONES_REQUIRED()": {
        "notice": "Max number of gemstones required"
      },
      "MAX_MINT_COST()": {
        "notice": "Max mint cost"
      },
      "MAX_STARDUST_COST()": {
        "notice": "Max stardust cost"
      },
      "TOTAL_TOKEN_IDS()": {
        "notice": "Max number of tokeniDS"
      },
      "addressRegistry()": {
        "notice": "Contract address of address registry"
      },
      "baseTokenURI()": {
        "notice": "Base token URI"
      },
      "calculateFusionCost(uint256,uint16)": {
        "notice": "Calculates cost of fusing equipment"
      },
      "calculateGemstonesCost(uint256,uint16)": {
        "notice": "Calculates gemstone cost of fusing equipmenet"
      },
      "constructor": {
        "notice": "Constructor for Atlantis Equipments"
      },
      "devAddresses(address)": {
        "notice": "Whitelisted addresses who can call airdrop"
      },
      "equipmentSpeeds(uint256)": {
        "notice": "Speeds of equipment"
      },
      "fuseEquipment(uint256,uint16)": {
        "notice": "Fuse equipment"
      },
      "fuseEquipmentsView(uint256,uint16)": {
        "notice": "Calculates how much is require dto fuse to get amountToCreate"
      },
      "gemstonesRequired(uint256)": {
        "notice": "Number of gemstones required"
      },
      "getElement(uint256)": {
        "notice": "Get element from id"
      },
      "getLevel(uint256)": {
        "notice": "Get level of equipment from its id"
      },
      "getSpeed(uint256)": {
        "notice": "Get equipment speed from id"
      },
      "mintCost()": {
        "notice": "Mint cost of equipments"
      },
      "name()": {
        "notice": "Name of contract"
      },
      "paymentMode()": {
        "notice": "Current payment mode"
      },
      "paymentToken()": {
        "notice": "Current payment token"
      },
      "setEquipmentSpeeds(uint16[])": {
        "notice": "Sets speeds of equipments"
      },
      "setGemstonesRequired(uint16[])": {
        "notice": "Sets gemstones required"
      },
      "setStardustCosts(uint256[])": {
        "notice": "Sets stardust costs"
      },
      "stardustCost(uint256)": {
        "notice": "Cost of stardust required"
      },
      "symbol()": {
        "notice": "Name of symbol"
      },
      "treasury()": {
        "notice": "Address of treasury"
      },
      "uri(uint256)": {
        "notice": "Get token metadata with tokenId"
      },
      "withdrawERC20(address,uint256)": {
        "notice": "Withdraw all specified ERC20 tokens from this account to the owner"
      },
      "withdrawFund()": {
        "notice": "Withdraw all CRO from this account to the owner"
      }
    },
    "version": 1
  },
  "storageLayout": {
    "storage": [
      {
        "astId": 300,
        "contract": "contracts/AtlantisEquipments.sol:AtlantisEquipments",
        "label": "_balances",
        "offset": 0,
        "slot": "0",
        "type": "t_mapping(t_uint256,t_mapping(t_address,t_uint256))"
      },
      {
        "astId": 306,
        "contract": "contracts/AtlantisEquipments.sol:AtlantisEquipments",
        "label": "_operatorApprovals",
        "offset": 0,
        "slot": "1",
        "type": "t_mapping(t_address,t_mapping(t_address,t_bool))"
      },
      {
        "astId": 308,
        "contract": "contracts/AtlantisEquipments.sol:AtlantisEquipments",
        "label": "_uri",
        "offset": 0,
        "slot": "2",
        "type": "t_string_storage"
      },
      {
        "astId": 130,
        "contract": "contracts/AtlantisEquipments.sol:AtlantisEquipments",
        "label": "_paused",
        "offset": 0,
        "slot": "3",
        "type": "t_bool"
      },
      {
        "astId": 7,
        "contract": "contracts/AtlantisEquipments.sol:AtlantisEquipments",
        "label": "_owner",
        "offset": 1,
        "slot": "3",
        "type": "t_address"
      },
      {
        "astId": 231,
        "contract": "contracts/AtlantisEquipments.sol:AtlantisEquipments",
        "label": "_status",
        "offset": 0,
        "slot": "4",
        "type": "t_uint256"
      },
      {
        "astId": 3995,
        "contract": "contracts/AtlantisEquipments.sol:AtlantisEquipments",
        "label": "paymentMode",
        "offset": 0,
        "slot": "5",
        "type": "t_enum(PaymentMode)5653"
      },
      {
        "astId": 3999,
        "contract": "contracts/AtlantisEquipments.sol:AtlantisEquipments",
        "label": "paymentToken",
        "offset": 1,
        "slot": "5",
        "type": "t_contract(IERC20)1753"
      },
      {
        "astId": 4002,
        "contract": "contracts/AtlantisEquipments.sol:AtlantisEquipments",
        "label": "name",
        "offset": 0,
        "slot": "6",
        "type": "t_string_storage"
      },
      {
        "astId": 4005,
        "contract": "contracts/AtlantisEquipments.sol:AtlantisEquipments",
        "label": "symbol",
        "offset": 0,
        "slot": "7",
        "type": "t_string_storage"
      },
      {
        "astId": 4010,
        "contract": "contracts/AtlantisEquipments.sol:AtlantisEquipments",
        "label": "_totalSupply",
        "offset": 0,
        "slot": "8",
        "type": "t_mapping(t_uint256,t_uint256)"
      },
      {
        "astId": 4013,
        "contract": "contracts/AtlantisEquipments.sol:AtlantisEquipments",
        "label": "baseTokenURI",
        "offset": 0,
        "slot": "9",
        "type": "t_string_storage"
      },
      {
        "astId": 4021,
        "contract": "contracts/AtlantisEquipments.sol:AtlantisEquipments",
        "label": "mintCost",
        "offset": 0,
        "slot": "10",
        "type": "t_uint256"
      },
      {
        "astId": 4025,
        "contract": "contracts/AtlantisEquipments.sol:AtlantisEquipments",
        "label": "addressRegistry",
        "offset": 0,
        "slot": "11",
        "type": "t_contract(AtlantisAddressRegistry)3960"
      },
      {
        "astId": 4030,
        "contract": "contracts/AtlantisEquipments.sol:AtlantisEquipments",
        "label": "stardustCost",
        "offset": 0,
        "slot": "12",
        "type": "t_array(t_uint256)5_storage"
      },
      {
        "astId": 4035,
        "contract": "contracts/AtlantisEquipments.sol:AtlantisEquipments",
        "label": "gemstonesRequired",
        "offset": 0,
        "slot": "17",
        "type": "t_array(t_uint16)5_storage"
      },
      {
        "astId": 4040,
        "contract": "contracts/AtlantisEquipments.sol:AtlantisEquipments",
        "label": "equipmentSpeeds",
        "offset": 0,
        "slot": "18",
        "type": "t_array(t_uint16)10_storage"
      },
      {
        "astId": 4043,
        "contract": "contracts/AtlantisEquipments.sol:AtlantisEquipments",
        "label": "nonce",
        "offset": 0,
        "slot": "19",
        "type": "t_uint256"
      },
      {
        "astId": 4046,
        "contract": "contracts/AtlantisEquipments.sol:AtlantisEquipments",
        "label": "treasury",
        "offset": 0,
        "slot": "20",
        "type": "t_address"
      },
      {
        "astId": 4063,
        "contract": "contracts/AtlantisEquipments.sol:AtlantisEquipments",
        "label": "devAddresses",
        "offset": 0,
        "slot": "21",
        "type": "t_mapping(t_address,t_bool)"
      }
    ],
    "types": {
      "t_address": {
        "encoding": "inplace",
        "label": "address",
        "numberOfBytes": "20"
      },
      "t_array(t_uint16)10_storage": {
        "base": "t_uint16",
        "encoding": "inplace",
        "label": "uint16[10]",
        "numberOfBytes": "32"
      },
      "t_array(t_uint16)5_storage": {
        "base": "t_uint16",
        "encoding": "inplace",
        "label": "uint16[5]",
        "numberOfBytes": "32"
      },
      "t_array(t_uint256)5_storage": {
        "base": "t_uint256",
        "encoding": "inplace",
        "label": "uint256[5]",
        "numberOfBytes": "160"
      },
      "t_bool": {
        "encoding": "inplace",
        "label": "bool",
        "numberOfBytes": "1"
      },
      "t_contract(AtlantisAddressRegistry)3960": {
        "encoding": "inplace",
        "label": "contract AtlantisAddressRegistry",
        "numberOfBytes": "20"
      },
      "t_contract(IERC20)1753": {
        "encoding": "inplace",
        "label": "contract IERC20",
        "numberOfBytes": "20"
      },
      "t_enum(PaymentMode)5653": {
        "encoding": "inplace",
        "label": "enum IAtlantisEquipments.PaymentMode",
        "numberOfBytes": "1"
      },
      "t_mapping(t_address,t_bool)": {
        "encoding": "mapping",
        "key": "t_address",
        "label": "mapping(address => bool)",
        "numberOfBytes": "32",
        "value": "t_bool"
      },
      "t_mapping(t_address,t_mapping(t_address,t_bool))": {
        "encoding": "mapping",
        "key": "t_address",
        "label": "mapping(address => mapping(address => bool))",
        "numberOfBytes": "32",
        "value": "t_mapping(t_address,t_bool)"
      },
      "t_mapping(t_address,t_uint256)": {
        "encoding": "mapping",
        "key": "t_address",
        "label": "mapping(address => uint256)",
        "numberOfBytes": "32",
        "value": "t_uint256"
      },
      "t_mapping(t_uint256,t_mapping(t_address,t_uint256))": {
        "encoding": "mapping",
        "key": "t_uint256",
        "label": "mapping(uint256 => mapping(address => uint256))",
        "numberOfBytes": "32",
        "value": "t_mapping(t_address,t_uint256)"
      },
      "t_mapping(t_uint256,t_uint256)": {
        "encoding": "mapping",
        "key": "t_uint256",
        "label": "mapping(uint256 => uint256)",
        "numberOfBytes": "32",
        "value": "t_uint256"
      },
      "t_string_storage": {
        "encoding": "bytes",
        "label": "string",
        "numberOfBytes": "32"
      },
      "t_uint16": {
        "encoding": "inplace",
        "label": "uint16",
        "numberOfBytes": "2"
      },
      "t_uint256": {
        "encoding": "inplace",
        "label": "uint256",
        "numberOfBytes": "32"
      }
    }
  }
}