{
  "address": "0xcbB22330413bE9C5dE7d80BBA4B14CE99d9F3aBa",
  "abi": [
    {
      "inputs": [
        {
          "internalType": "string",
          "name": "_name",
          "type": "string"
        },
        {
          "internalType": "string",
          "name": "_symbol",
          "type": "string"
        },
        {
          "internalType": "string",
          "name": "_uri",
          "type": "string"
        },
        {
          "internalType": "address",
          "name": "owner",
          "type": "address"
        },
        {
          "internalType": "address",
          "name": "_registry",
          "type": "address"
        }
      ],
      "stateMutability": "nonpayable",
      "type": "constructor"
    },
    {
      "inputs": [],
      "name": "IdNotExistsError",
      "type": "error"
    },
    {
      "inputs": [],
      "name": "InvalidElement",
      "type": "error"
    },
    {
      "inputs": [],
      "name": "InvalidInputAmount",
      "type": "error"
    },
    {
      "inputs": [],
      "name": "InvalidUpgrade",
      "type": "error"
    },
    {
      "inputs": [],
      "name": "NonExistentToken",
      "type": "error"
    },
    {
      "inputs": [],
      "name": "OnlyAtlantisOrOwner",
      "type": "error"
    },
    {
      "anonymous": false,
      "inputs": [
        {
          "indexed": false,
          "internalType": "address",
          "name": "_newAddressRegistry",
          "type": "address"
        }
      ],
      "name": "AddressRegistryUpdated",
      "type": "event"
    },
    {
      "anonymous": false,
      "inputs": [
        {
          "indexed": true,
          "internalType": "address",
          "name": "account",
          "type": "address"
        },
        {
          "indexed": true,
          "internalType": "address",
          "name": "operator",
          "type": "address"
        },
        {
          "indexed": false,
          "internalType": "bool",
          "name": "approved",
          "type": "bool"
        }
      ],
      "name": "ApprovalForAll",
      "type": "event"
    },
    {
      "anonymous": false,
      "inputs": [
        {
          "indexed": false,
          "internalType": "string",
          "name": "_newBaseMetadataURI",
          "type": "string"
        }
      ],
      "name": "BaseMetadataURIUpdated",
      "type": "event"
    },
    {
      "anonymous": false,
      "inputs": [
        {
          "indexed": true,
          "internalType": "address",
          "name": "_from",
          "type": "address"
        },
        {
          "indexed": true,
          "internalType": "uint256",
          "name": "_id",
          "type": "uint256"
        },
        {
          "indexed": false,
          "internalType": "uint256",
          "name": "_amount",
          "type": "uint256"
        },
        {
          "indexed": false,
          "internalType": "uint256",
          "name": "_totalSupply",
          "type": "uint256"
        }
      ],
      "name": "FuseGemstone",
      "type": "event"
    },
    {
      "anonymous": false,
      "inputs": [
        {
          "indexed": false,
          "internalType": "uint256",
          "name": "_newCost",
          "type": "uint256"
        }
      ],
      "name": "FusionCostUpdated",
      "type": "event"
    },
    {
      "anonymous": false,
      "inputs": [
        {
          "indexed": true,
          "internalType": "address",
          "name": "_to",
          "type": "address"
        },
        {
          "indexed": true,
          "internalType": "uint256",
          "name": "_id",
          "type": "uint256"
        },
        {
          "indexed": false,
          "internalType": "uint256",
          "name": "_amount",
          "type": "uint256"
        },
        {
          "indexed": false,
          "internalType": "uint256",
          "name": "_totalSupply",
          "type": "uint256"
        }
      ],
      "name": "MintGemstone",
      "type": "event"
    },
    {
      "anonymous": false,
      "inputs": [
        {
          "indexed": true,
          "internalType": "address",
          "name": "previousOwner",
          "type": "address"
        },
        {
          "indexed": true,
          "internalType": "address",
          "name": "newOwner",
          "type": "address"
        }
      ],
      "name": "OwnershipTransferred",
      "type": "event"
    },
    {
      "anonymous": false,
      "inputs": [
        {
          "indexed": false,
          "internalType": "address",
          "name": "account",
          "type": "address"
        }
      ],
      "name": "Paused",
      "type": "event"
    },
    {
      "anonymous": false,
      "inputs": [
        {
          "indexed": true,
          "internalType": "address",
          "name": "operator",
          "type": "address"
        },
        {
          "indexed": true,
          "internalType": "address",
          "name": "from",
          "type": "address"
        },
        {
          "indexed": true,
          "internalType": "address",
          "name": "to",
          "type": "address"
        },
        {
          "indexed": false,
          "internalType": "uint256[]",
          "name": "ids",
          "type": "uint256[]"
        },
        {
          "indexed": false,
          "internalType": "uint256[]",
          "name": "values",
          "type": "uint256[]"
        }
      ],
      "name": "TransferBatch",
      "type": "event"
    },
    {
      "anonymous": false,
      "inputs": [
        {
          "indexed": true,
          "internalType": "address",
          "name": "operator",
          "type": "address"
        },
        {
          "indexed": true,
          "internalType": "address",
          "name": "from",
          "type": "address"
        },
        {
          "indexed": true,
          "internalType": "address",
          "name": "to",
          "type": "address"
        },
        {
          "indexed": false,
          "internalType": "uint256",
          "name": "id",
          "type": "uint256"
        },
        {
          "indexed": false,
          "internalType": "uint256",
          "name": "value",
          "type": "uint256"
        }
      ],
      "name": "TransferSingle",
      "type": "event"
    },
    {
      "anonymous": false,
      "inputs": [
        {
          "indexed": false,
          "internalType": "string",
          "name": "value",
          "type": "string"
        },
        {
          "indexed": true,
          "internalType": "uint256",
          "name": "id",
          "type": "uint256"
        }
      ],
      "name": "URI",
      "type": "event"
    },
    {
      "anonymous": false,
      "inputs": [
        {
          "indexed": false,
          "internalType": "address",
          "name": "account",
          "type": "address"
        }
      ],
      "name": "Unpaused",
      "type": "event"
    },
    {
      "inputs": [],
      "name": "FUSION_COST",
      "outputs": [
        {
          "internalType": "uint256",
          "name": "",
          "type": "uint256"
        }
      ],
      "stateMutability": "view",
      "type": "function"
    },
    {
      "inputs": [],
      "name": "TOTAL_TOKEN_IDS",
      "outputs": [
        {
          "internalType": "uint256",
          "name": "",
          "type": "uint256"
        }
      ],
      "stateMutability": "view",
      "type": "function"
    },
    {
      "inputs": [],
      "name": "addressRegistry",
      "outputs": [
        {
          "internalType": "contract AtlantisAddressRegistry",
          "name": "",
          "type": "address"
        }
      ],
      "stateMutability": "view",
      "type": "function"
    },
    {
      "inputs": [
        {
          "internalType": "address",
          "name": "_to",
          "type": "address"
        },
        {
          "internalType": "uint256",
          "name": "_id",
          "type": "uint256"
        },
        {
          "internalType": "uint256",
          "name": "_quantity",
          "type": "uint256"
        },
        {
          "internalType": "bytes",
          "name": "_data",
          "type": "bytes"
        }
      ],
      "name": "airdrop",
      "outputs": [],
      "stateMutability": "nonpayable",
      "type": "function"
    },
    {
      "inputs": [
        {
          "internalType": "address",
          "name": "account",
          "type": "address"
        },
        {
          "internalType": "uint256",
          "name": "id",
          "type": "uint256"
        }
      ],
      "name": "balanceOf",
      "outputs": [
        {
          "internalType": "uint256",
          "name": "",
          "type": "uint256"
        }
      ],
      "stateMutability": "view",
      "type": "function"
    },
    {
      "inputs": [
        {
          "internalType": "address[]",
          "name": "accounts",
          "type": "address[]"
        },
        {
          "internalType": "uint256[]",
          "name": "ids",
          "type": "uint256[]"
        }
      ],
      "name": "balanceOfBatch",
      "outputs": [
        {
          "internalType": "uint256[]",
          "name": "",
          "type": "uint256[]"
        }
      ],
      "stateMutability": "view",
      "type": "function"
    },
    {
      "inputs": [],
      "name": "baseTokenURI",
      "outputs": [
        {
          "internalType": "string",
          "name": "",
          "type": "string"
        }
      ],
      "stateMutability": "view",
      "type": "function"
    },
    {
      "inputs": [],
      "name": "baseURI",
      "outputs": [
        {
          "internalType": "string",
          "name": "",
          "type": "string"
        }
      ],
      "stateMutability": "view",
      "type": "function"
    },
    {
      "inputs": [
        {
          "internalType": "address",
          "name": "_user",
          "type": "address"
        },
        {
          "internalType": "uint256",
          "name": "_id",
          "type": "uint256"
        },
        {
          "internalType": "uint256",
          "name": "_quantity",
          "type": "uint256"
        }
      ],
      "name": "burn",
      "outputs": [],
      "stateMutability": "nonpayable",
      "type": "function"
    },
    {
      "inputs": [
        {
          "internalType": "uint8",
          "name": "_id",
          "type": "uint8"
        },
        {
          "internalType": "uint8",
          "name": "_toId",
          "type": "uint8"
        },
        {
          "internalType": "uint256",
          "name": "_amountToCreate",
          "type": "uint256"
        }
      ],
      "name": "calculateFusionCost",
      "outputs": [
        {
          "internalType": "uint256",
          "name": "",
          "type": "uint256"
        }
      ],
      "stateMutability": "view",
      "type": "function"
    },
    {
      "inputs": [
        {
          "internalType": "uint8",
          "name": "_id",
          "type": "uint8"
        },
        {
          "internalType": "uint8",
          "name": "_toId",
          "type": "uint8"
        },
        {
          "internalType": "uint256",
          "name": "_amountToCreate",
          "type": "uint256"
        }
      ],
      "name": "calculateGemstoneCost",
      "outputs": [
        {
          "internalType": "uint256",
          "name": "",
          "type": "uint256"
        }
      ],
      "stateMutability": "view",
      "type": "function"
    },
    {
      "inputs": [
        {
          "internalType": "address",
          "name": "",
          "type": "address"
        }
      ],
      "name": "devAddresses",
      "outputs": [
        {
          "internalType": "bool",
          "name": "",
          "type": "bool"
        }
      ],
      "stateMutability": "view",
      "type": "function"
    },
    {
      "inputs": [
        {
          "internalType": "uint256",
          "name": "_id",
          "type": "uint256"
        }
      ],
      "name": "exists",
      "outputs": [
        {
          "internalType": "bool",
          "name": "",
          "type": "bool"
        }
      ],
      "stateMutability": "view",
      "type": "function"
    },
    {
      "inputs": [
        {
          "internalType": "uint8",
          "name": "_id",
          "type": "uint8"
        },
        {
          "internalType": "uint8",
          "name": "_toId",
          "type": "uint8"
        },
        {
          "internalType": "uint256",
          "name": "_amountToCreate",
          "type": "uint256"
        }
      ],
      "name": "fuseGemstones",
      "outputs": [],
      "stateMutability": "nonpayable",
      "type": "function"
    },
    {
      "inputs": [
        {
          "internalType": "uint256",
          "name": "_id",
          "type": "uint256"
        }
      ],
      "name": "getElement",
      "outputs": [
        {
          "internalType": "uint8",
          "name": "",
          "type": "uint8"
        }
      ],
      "stateMutability": "pure",
      "type": "function"
    },
    {
      "inputs": [
        {
          "internalType": "uint256",
          "name": "_id",
          "type": "uint256"
        }
      ],
      "name": "getTier",
      "outputs": [
        {
          "internalType": "uint8",
          "name": "",
          "type": "uint8"
        }
      ],
      "stateMutability": "pure",
      "type": "function"
    },
    {
      "inputs": [
        {
          "internalType": "address",
          "name": "account",
          "type": "address"
        },
        {
          "internalType": "address",
          "name": "operator",
          "type": "address"
        }
      ],
      "name": "isApprovedForAll",
      "outputs": [
        {
          "internalType": "bool",
          "name": "",
          "type": "bool"
        }
      ],
      "stateMutability": "view",
      "type": "function"
    },
    {
      "inputs": [
        {
          "internalType": "address",
          "name": "_to",
          "type": "address"
        },
        {
          "internalType": "uint256",
          "name": "_id",
          "type": "uint256"
        },
        {
          "internalType": "uint256",
          "name": "_quantity",
          "type": "uint256"
        }
      ],
      "name": "mint",
      "outputs": [],
      "stateMutability": "nonpayable",
      "type": "function"
    },
    {
      "inputs": [],
      "name": "name",
      "outputs": [
        {
          "internalType": "string",
          "name": "",
          "type": "string"
        }
      ],
      "stateMutability": "view",
      "type": "function"
    },
    {
      "inputs": [],
      "name": "owner",
      "outputs": [
        {
          "internalType": "address",
          "name": "",
          "type": "address"
        }
      ],
      "stateMutability": "view",
      "type": "function"
    },
    {
      "inputs": [],
      "name": "pause",
      "outputs": [],
      "stateMutability": "nonpayable",
      "type": "function"
    },
    {
      "inputs": [],
      "name": "paused",
      "outputs": [
        {
          "internalType": "bool",
          "name": "",
          "type": "bool"
        }
      ],
      "stateMutability": "view",
      "type": "function"
    },
    {
      "inputs": [],
      "name": "renounceOwnership",
      "outputs": [],
      "stateMutability": "nonpayable",
      "type": "function"
    },
    {
      "inputs": [
        {
          "internalType": "address",
          "name": "from",
          "type": "address"
        },
        {
          "internalType": "address",
          "name": "to",
          "type": "address"
        },
        {
          "internalType": "uint256[]",
          "name": "ids",
          "type": "uint256[]"
        },
        {
          "internalType": "uint256[]",
          "name": "amounts",
          "type": "uint256[]"
        },
        {
          "internalType": "bytes",
          "name": "data",
          "type": "bytes"
        }
      ],
      "name": "safeBatchTransferFrom",
      "outputs": [],
      "stateMutability": "nonpayable",
      "type": "function"
    },
    {
      "inputs": [
        {
          "internalType": "address",
          "name": "from",
          "type": "address"
        },
        {
          "internalType": "address",
          "name": "to",
          "type": "address"
        },
        {
          "internalType": "uint256",
          "name": "id",
          "type": "uint256"
        },
        {
          "internalType": "uint256",
          "name": "amount",
          "type": "uint256"
        },
        {
          "internalType": "bytes",
          "name": "data",
          "type": "bytes"
        }
      ],
      "name": "safeTransferFrom",
      "outputs": [],
      "stateMutability": "nonpayable",
      "type": "function"
    },
    {
      "inputs": [
        {
          "internalType": "contract AtlantisAddressRegistry",
          "name": "_addressRegistry",
          "type": "address"
        }
      ],
      "name": "setAddressRegistry",
      "outputs": [],
      "stateMutability": "nonpayable",
      "type": "function"
    },
    {
      "inputs": [
        {
          "internalType": "address",
          "name": "operator",
          "type": "address"
        },
        {
          "internalType": "bool",
          "name": "approved",
          "type": "bool"
        }
      ],
      "name": "setApprovalForAll",
      "outputs": [],
      "stateMutability": "nonpayable",
      "type": "function"
    },
    {
      "inputs": [
        {
          "internalType": "string",
          "name": "_newBaseMetadataURI",
          "type": "string"
        }
      ],
      "name": "setBaseMetadataURI",
      "outputs": [],
      "stateMutability": "nonpayable",
      "type": "function"
    },
    {
      "inputs": [
        {
          "internalType": "uint256",
          "name": "_cost",
          "type": "uint256"
        }
      ],
      "name": "setFusionCost",
      "outputs": [],
      "stateMutability": "nonpayable",
      "type": "function"
    },
    {
      "inputs": [
        {
          "internalType": "bytes4",
          "name": "interfaceId",
          "type": "bytes4"
        }
      ],
      "name": "supportsInterface",
      "outputs": [
        {
          "internalType": "bool",
          "name": "",
          "type": "bool"
        }
      ],
      "stateMutability": "view",
      "type": "function"
    },
    {
      "inputs": [],
      "name": "symbol",
      "outputs": [
        {
          "internalType": "string",
          "name": "",
          "type": "string"
        }
      ],
      "stateMutability": "view",
      "type": "function"
    },
    {
      "inputs": [
        {
          "internalType": "uint256",
          "name": "id",
          "type": "uint256"
        }
      ],
      "name": "totalSupply",
      "outputs": [
        {
          "internalType": "uint256",
          "name": "",
          "type": "uint256"
        }
      ],
      "stateMutability": "view",
      "type": "function"
    },
    {
      "inputs": [
        {
          "internalType": "address",
          "name": "newOwner",
          "type": "address"
        }
      ],
      "name": "transferOwnership",
      "outputs": [],
      "stateMutability": "nonpayable",
      "type": "function"
    },
    {
      "inputs": [],
      "name": "unpause",
      "outputs": [],
      "stateMutability": "nonpayable",
      "type": "function"
    },
    {
      "inputs": [
        {
          "internalType": "uint256",
          "name": "_tokenId",
          "type": "uint256"
        }
      ],
      "name": "uri",
      "outputs": [
        {
          "internalType": "string",
          "name": "",
          "type": "string"
        }
      ],
      "stateMutability": "view",
      "type": "function"
    },
    {
      "inputs": [
        {
          "internalType": "address[]",
          "name": "_devAddresses",
          "type": "address[]"
        }
      ],
      "name": "whitelistDevAddresses",
      "outputs": [],
      "stateMutability": "nonpayable",
      "type": "function"
    }
  ],
  "transactionHash": "0x7aecd7478f38553869f111dab5d6799de7b8a99698dacf9f1a0a361bb1e1cf5d",
  "args": [
    "Atlantis Gemstones",
    "GEMSTONES",
    "ipfs://QmaHbdibWgKYRToaseoJXpEgG9gUk1pHJh3WwrAp3XsVvd/",
    "0x7AECa63e4B51b0Ff8A8a82b3231033ca4CA6301b",
    "0x16E96b2c52C816D26FEF4991733249e81965D88D"
  ],
  "numDeployments": 1,
  "solcInputHash": "86e2ac704f829300f438d3fb9b6ab693",
  "bytecode": "0x6080604052680ad78ebc5ac6200000600a553480156200001e57600080fd5b5060405162003a7438038062003a74833981016040819052620000419162000376565b826200004d81620000e4565b506003805460ff191690556200006333620000f6565b60016004556006620000768682620004bc565b506007620000858582620004bc565b50600580546001600160a01b0319166001600160a01b038316179055620000ac8362000150565b620000b782620001a5565b506001600160a01b03166000908152600b60205260409020805460ff1916600117905550620005bd915050565b6002620000f28282620004bc565b5050565b600380546001600160a01b03838116610100818102610100600160a81b031985161790945560405193909204169182907f8be0079c531659141344cd1fd0a4f28419497f9722a3daafe3b4186f6b6457e090600090a35050565b6200015a62000228565b6008620001688282620004bc565b507fd926fde11e1623e83f8becaf0d50ebe506b5bb4b70570742a0bb36901f65a5d9816040516200019a919062000588565b60405180910390a150565b620001af62000228565b6001600160a01b0381166200021a5760405162461bcd60e51b815260206004820152602660248201527f4f776e61626c653a206e6577206f776e657220697320746865207a65726f206160448201526564647265737360d01b60648201526084015b60405180910390fd5b6200022581620000f6565b50565b6003546001600160a01b036101009091041633146200028a5760405162461bcd60e51b815260206004820181905260248201527f4f776e61626c653a2063616c6c6572206973206e6f7420746865206f776e6572604482015260640162000211565b565b634e487b7160e01b600052604160045260246000fd5b60005b83811015620002bf578181015183820152602001620002a5565b50506000910152565b600082601f830112620002da57600080fd5b81516001600160401b0380821115620002f757620002f76200028c565b604051601f8301601f19908116603f011681019082821181831017156200032257620003226200028c565b816040528381528660208588010111156200033c57600080fd5b6200034f846020830160208901620002a2565b9695505050505050565b80516001600160a01b03811681146200037157600080fd5b919050565b600080600080600060a086880312156200038f57600080fd5b85516001600160401b0380821115620003a757600080fd5b620003b589838a01620002c8565b96506020880151915080821115620003cc57600080fd5b620003da89838a01620002c8565b95506040880151915080821115620003f157600080fd5b506200040088828901620002c8565b935050620004116060870162000359565b9150620004216080870162000359565b90509295509295909350565b600181811c908216806200044257607f821691505b6020821081036200046357634e487b7160e01b600052602260045260246000fd5b50919050565b601f821115620004b757600081815260208120601f850160051c81016020861015620004925750805b601f850160051c820191505b81811015620004b3578281556001016200049e565b5050505b505050565b81516001600160401b03811115620004d857620004d86200028c565b620004f081620004e984546200042d565b8462000469565b602080601f8311600181146200052857600084156200050f5750858301515b600019600386901b1c1916600185901b178555620004b3565b600085815260208120601f198616915b82811015620005595788860151825594840194600190910190840162000538565b5085821015620005785787850151600019600388901b60f8161c191681555b5050505050600190811b01905550565b6020815260008251806020840152620005a9816040850160208701620002a2565b601f01601f19169190910160400192915050565b6134a780620005cd6000396000f3fe608060405234801561001057600080fd5b506004361061021b5760003560e01c80636c0360eb11610125578063bd85b039116100ad578063e985e9c51161007c578063e985e9c514610488578063f242432a146104c4578063f2fde38b146104d7578063f3ad65f4146104ea578063f5298aca146104fd57600080fd5b8063bd85b03914610445578063d547cfb714610465578063dc6ece2a1461046d578063e118ee201461047557600080fd5b80638a4e1f7c116100f45780638a4e1f7c146103ca5780638da5cb5b146103dd57806395d89b4114610407578063a22cb4651461040f578063b3d8eb4b1461042257600080fd5b80636c0360eb1461039f578063715018a6146103a75780637e518ec8146103af5780638456cb59146103c257600080fd5b80632eb2c2d6116101a857806349e2fd0d1161017757806349e2fd0d1461033b5780634e1273f41461034e5780634f062c5a1461036e5780634f558e79146103815780635c975abb1461039457600080fd5b80632eb2c2d6146102e85780633a7d22bc146102fb5780633f4ba83a146103205780634892ecaa1461032857600080fd5b8063089b10b8116101ef578063089b10b8146102875780630e89341c1461029a578063156e29f6146102ad57806315ead29a146102c257806327c7812c146102d557600080fd5b8062fdd58e1461022057806301ffc9a714610246578063069b43ec1461026957806306fdde0314610272575b600080fd5b61023361022e3660046123be565b610510565b6040519081526020015b60405180910390f35b610259610254366004612400565b6105a9565b604051901515815260200161023d565b610233600a5481565b61027a6105f9565b60405161023d919061246d565b610233610295366004612496565b610687565b61027a6102a83660046124d2565b610785565b6102c06102bb3660046124eb565b6108a3565b005b6102c06102d0366004612496565b6109fa565b6102c06102e3366004612520565b610b7d565b6102c06102f6366004612690565b610c28565b61030e6103093660046124d2565b610c74565b60405160ff909116815260200161023d565b6102c0610cb5565b6102c06103363660046127ac565b610cc7565b6102c06103493660046124d2565b610d3b565b61036161035c3660046127e8565b610d78565b60405161023d9190612886565b61030e61037c3660046124d2565b610ea1565b61025961038f3660046124d2565b610f00565b60035460ff16610259565b61027a610f14565b6102c0610fa6565b6102c06103bd366004612899565b610fb8565b6102c0610ffc565b6102336103d8366004612496565b61100c565b60035461010090046001600160a01b03165b6040516001600160a01b03909116815260200161023d565b61027a61103f565b6102c061041d3660046128ef565b61104c565b610259610430366004612520565b600b6020526000908152604090205460ff1681565b6102336104533660046124d2565b60009081526009602052604090205490565b61027a611057565b610233600c81565b6102c0610483366004612928565b611064565b61025961049636600461298a565b6001600160a01b03918216600090815260016020908152604080832093909416825291909152205460ff1690565b6102c06104d23660046129b8565b611115565b6102c06104e5366004612520565b61115a565b6005546103ef906001600160a01b031681565b6102c061050b3660046124eb565b6111d3565b60006001600160a01b0383166105805760405162461bcd60e51b815260206004820152602a60248201527f455243313135353a2061646472657373207a65726f206973206e6f742061207660448201526930b634b21037bbb732b960b11b60648201526084015b60405180910390fd5b506000818152602081815260408083206001600160a01b03861684529091529020545b92915050565b60006001600160e01b03198216636cdb3d1360e11b14806105da57506001600160e01b031982166303a24d0760e21b145b806105a357506301ffc9a760e01b6001600160e01b03198316146105a3565b6006805461060690612a20565b80601f016020809104026020016040519081016040528092919081815260200182805461063290612a20565b801561067f5780601f106106545761010080835404028352916020019161067f565b820191906000526020600020905b81548152906001019060200180831161066257829003601f168201915b505050505081565b6000816000036106aa5760405163340dabef60e01b815260040160405180910390fd5b6106b68460ff16610f00565b15806106cb57506106c98360ff16610f00565b155b156106e957604051634a1850bf60e11b815260040160405180910390fd5b6106f4600385612a6a565b60ff16610702600385612a6a565b60ff161461072357604051630dee7a0b60e11b815260040160405180910390fd5b8260ff168460ff16106107495760405163012fa17760e61b815260040160405180910390fd5b600060036107578686612aa2565b6107619190612abb565b9050600083610771836003612bc1565b61077b9190612bd0565b9695505050505050565b606061079082610f00565b6107ad57604051634a1850bf60e11b815260040160405180910390fd5b60006107b8836112b9565b90506000816107d16107c986610ea1565b60ff1661136e565b6040516020016107e2929190612be7565b6040516020818303038152906040529050806040516020016108049190612c57565b604051602081830303815290604052905080826108236107c987610ea1565b60405160200161083593929190612dff565b60405160208183030381529060405290506108788161085386611400565b604051602001610864929190612eda565b60405160208183030381529060405261144a565b90508060405160200161088b9190612f2e565b60405160208183030381529060405292505050919050565b600554604051634dd20a0360e11b81523360048201526001600160a01b0390911690639ba4140690602401602060405180830381865afa1580156108eb573d6000803e3d6000fd5b505050506040513d601f19601f8201168201806040525081019061090f9190612f73565b8061093b575060035461010090046001600160a01b03166001600160a01b0316336001600160a01b0316145b61095857604051630e1c193960e41b815260040160405180910390fd5b61096182610f00565b61097e57604051634a1850bf60e11b815260040160405180910390fd5b610999838383604051806020016040528060008152506115b0565b81836001600160a01b03167f6a149bd3ca2c7675eee825c1ef07056be81cc83753d4cf7dda452edacba32c2c836109dc8660009081526009602052604090205490565b604080519283526020830191909152015b60405180910390a3505050565b610a026116d3565b610a0a61172c565b60055460408051638cc84db760e01b815290516000926001600160a01b031691638cc84db79160048083019260209291908290030181865afa158015610a54573d6000803e3d6000fd5b505050506040513d601f19601f82011682018060405250810190610a789190612f90565b90506000610a87858585610687565b9050610a97338660ff1683611772565b610ab5338560ff1685604051806020016040528060008152506115b0565b6000610ac286868661100c565b60405163a7b8b49160e01b8152600481018290529091506001600160a01b0384169063a7b8b49190602401600060405180830381600087803b158015610b0757600080fd5b505af1158015610b1b573d6000803e3d6000fd5b5050505060ff851660008181526009602090815260409182902054825188815291820152815133927fac82c4d8149c9adb8f40d48656b669957208d067051b765d5fbe22525bd75213928290030190a3505050610b786001600455565b505050565b610b85611902565b6001600160a01b038116610bd45760405162461bcd60e51b81526020600482015260166024820152751059191c995cdcc818d85b9b9bdd081899481b9d5b1b60521b6044820152606401610577565b600580546001600160a01b0319166001600160a01b0383169081179091556040519081527e642c94770a2c959864e4fbb2263a24c595122ac021c793bde7e74ccd8a9592906020015b60405180910390a150565b6001600160a01b038516331480610c445750610c448533610496565b610c605760405162461bcd60e51b815260040161057790612fad565b610c6d8585858585611962565b5050505050565b6000600c821180610c83575081155b15610ca157604051630d77971360e11b815260040160405180910390fd5b6000610cae600384612a6a565b9392505050565b610cbd611902565b610cc5611b4d565b565b610ccf611902565b60005b8151811015610d37576001600b6000848481518110610cf357610cf3612ffb565b6020908102919091018101516001600160a01b03168252810191909152604001600020805460ff191691151591909117905580610d2f81613011565b915050610cd2565b5050565b610d43611902565b600a8190556040518181527f90a1302aadb00206593b1b16e0abae07b8018b10388a547d6d6c40b290ef41ad90602001610c1d565b60608151835114610ddd5760405162461bcd60e51b815260206004820152602960248201527f455243313135353a206163636f756e747320616e6420696473206c656e677468604482015268040dad2e6dac2e8c6d60bb1b6064820152608401610577565b600083516001600160401b03811115610df857610df861253d565b604051908082528060200260200182016040528015610e21578160200160208202803683370190505b50905060005b8451811015610e9957610e6c858281518110610e4557610e45612ffb565b6020026020010151858381518110610e5f57610e5f612ffb565b6020026020010151610510565b828281518110610e7e57610e7e612ffb565b6020908102919091010152610e9281613011565b9050610e27565b509392505050565b6000600c821115610ec557604051630d77971360e11b815260040160405180910390fd5b6000610ed2600384612abb565b9050610edf600384612a6a565b60ff16600003610eef5792915050565b610cae81600161302a565b50919050565b600080821180156105a3575050600c101590565b606060088054610f2390612a20565b80601f0160208091040260200160405190810160405280929190818152602001828054610f4f90612a20565b8015610f9c5780601f10610f7157610100808354040283529160200191610f9c565b820191906000526020600020905b815481529060010190602001808311610f7f57829003601f168201915b5050505050905090565b610fae611902565b610cc56000611b9f565b610fc0611902565b6008610fcc8282613089565b507fd926fde11e1623e83f8becaf0d50ebe506b5bb4b70570742a0bb36901f65a5d981604051610c1d919061246d565b611004611902565b610cc5611bf9565b60008061101a858585610687565b90506003600a548261102c9190612bd0565b6110369190613148565b95945050505050565b6007805461060690612a20565b610d37338383611c36565b6008805461060690612a20565b336000908152600b602052604090205460ff166110dd5760405162461bcd60e51b815260206004820152603160248201527f4f6e6c792077686974656c6973746564206164647265737365732063616e206360448201527030b636103a3434b990333ab731ba34b7b760791b6064820152608401610577565b6110e683610f00565b61110357604051634a1850bf60e11b815260040160405180910390fd5b61110f848484846115b0565b50505050565b6001600160a01b03851633148061113157506111318533610496565b61114d5760405162461bcd60e51b815260040161057790612fad565b610c6d8585858585611d0e565b611162611902565b6001600160a01b0381166111c75760405162461bcd60e51b815260206004820152602660248201527f4f776e61626c653a206e6577206f776e657220697320746865207a65726f206160448201526564647265737360d01b6064820152608401610577565b6111d081611b9f565b50565b600554604051634dd20a0360e11b81523360048201526001600160a01b0390911690639ba4140690602401602060405180830381865afa15801561121b573d6000803e3d6000fd5b505050506040513d601f19601f8201168201806040525081019061123f9190612f73565b8061126b575060035461010090046001600160a01b03166001600160a01b0316336001600160a01b0316145b61128857604051630e1c193960e41b815260040160405180910390fd5b61129182610f00565b6112ae57604051634a1850bf60e11b815260040160405180910390fd5b610b78838383611772565b6060600c8211156112dd57604051630d77971360e11b815260040160405180910390fd5b60006112ea600384612a6a565b90508060ff1660000361131a57505060408051808201909152600581526414dd19595b60da1b6020820152919050565b8060ff166001036113475750506040805180820190915260048152634669726560e01b6020820152919050565b50506040805180820190915260098152684c696768746e696e6760b81b6020820152919050565b6060600061137b83611e46565b60010190506000816001600160401b0381111561139a5761139a61253d565b6040519080825280601f01601f1916602001820160405280156113c4576020820181803683370190505b5090508181016020015b600019016f181899199a1a9b1b9c1cb0b131b232b360811b600a86061a8153600a85049450846113ce57509392505050565b606061140a610f14565b6114166107c984610c74565b6114226107c985610ea1565b6040516020016114349392919061315c565b6040516020818303038152906040529050919050565b6060815160000361146957505060408051602081019091526000815290565b6000604051806060016040528060408152602001613432604091399050600060038451600261149891906131bd565b6114a29190613148565b6114ad906004612bd0565b905060006114bc8260206131bd565b6001600160401b038111156114d3576114d361253d565b6040519080825280601f01601f1916602001820160405280156114fd576020820181803683370190505b509050818152600183018586518101602084015b8183101561156b5760039283018051603f601282901c811687015160f890811b8552600c83901c8216880151811b6001860152600683901c8216880151811b60028601529116860151901b93820193909352600401611511565b6003895106600181146115855760028114611596576115a2565b613d3d60f01b6001198301526115a2565b603d60f81b6000198301525b509398975050505050505050565b6001600160a01b0384166116105760405162461bcd60e51b815260206004820152602160248201527f455243313135353a206d696e7420746f20746865207a65726f206164647265736044820152607360f81b6064820152608401610577565b33600061161c85611f1e565b9050600061162985611f1e565b905061163a83600089858589611f69565b6000868152602081815260408083206001600160a01b038b1684529091528120805487929061166a9084906131bd565b909155505060408051878152602081018790526001600160a01b03808a1692600092918716917fc3d58168c5ae7397731d063d5bbf3d657854427343f4c083240f7aacaa2d0f62910160405180910390a46116ca8360008989898961214a565b50505050505050565b6002600454036117255760405162461bcd60e51b815260206004820152601f60248201527f5265656e7472616e637947756172643a207265656e7472616e742063616c6c006044820152606401610577565b6002600455565b60035460ff1615610cc55760405162461bcd60e51b815260206004820152601060248201526f14185d5cd8589b194e881c185d5cd95960821b6044820152606401610577565b6001600160a01b0383166117d45760405162461bcd60e51b815260206004820152602360248201527f455243313135353a206275726e2066726f6d20746865207a65726f206164647260448201526265737360e81b6064820152608401610577565b3360006117e084611f1e565b905060006117ed84611f1e565b905061180d83876000858560405180602001604052806000815250611f69565b6000858152602081815260408083206001600160a01b038a1684529091529020548481101561188a5760405162461bcd60e51b8152602060048201526024808201527f455243313135353a206275726e20616d6f756e7420657863656564732062616c604482015263616e636560e01b6064820152608401610577565b6000868152602081815260408083206001600160a01b038b81168086529184528285208a8703905582518b81529384018a90529092908816917fc3d58168c5ae7397731d063d5bbf3d657854427343f4c083240f7aacaa2d0f62910160405180910390a46040805160208101909152600090526116ca565b6003546001600160a01b03610100909104163314610cc55760405162461bcd60e51b815260206004820181905260248201527f4f776e61626c653a2063616c6c6572206973206e6f7420746865206f776e65726044820152606401610577565b81518351146119c45760405162461bcd60e51b815260206004820152602860248201527f455243313135353a2069647320616e6420616d6f756e7473206c656e677468206044820152670dad2e6dac2e8c6d60c31b6064820152608401610577565b6001600160a01b0384166119ea5760405162461bcd60e51b8152600401610577906131d0565b336119f9818787878787611f69565b60005b8451811015611adf576000858281518110611a1957611a19612ffb565b602002602001015190506000858381518110611a3757611a37612ffb565b602090810291909101810151600084815280835260408082206001600160a01b038e168352909352919091205490915081811015611a875760405162461bcd60e51b815260040161057790613215565b6000838152602081815260408083206001600160a01b038e8116855292528083208585039055908b16825281208054849290611ac49084906131bd565b9250508190555050505080611ad890613011565b90506119fc565b50846001600160a01b0316866001600160a01b0316826001600160a01b03167f4a39dc06d4c0dbc64b70af90fd698a233a518aa5d07e595d983b8c0526c8f7fb8787604051611b2f92919061325f565b60405180910390a4611b458187878787876122a5565b505050505050565b611b55612360565b6003805460ff191690557f5db9ee0a495bf2e6ff9c91a7834c1ba4fdd244a5e8aa4e537bd38aeae4b073aa335b6040516001600160a01b03909116815260200160405180910390a1565b600380546001600160a01b03838116610100818102610100600160a81b031985161790945560405193909204169182907f8be0079c531659141344cd1fd0a4f28419497f9722a3daafe3b4186f6b6457e090600090a35050565b611c0161172c565b6003805460ff191660011790557f62e78cea01bee320cd4e420270b5ea74000d11b0c9f74754ebdbfc544b05a258611b823390565b816001600160a01b0316836001600160a01b031603611ca95760405162461bcd60e51b815260206004820152602960248201527f455243313135353a2073657474696e6720617070726f76616c20737461747573604482015268103337b91039b2b63360b91b6064820152608401610577565b6001600160a01b03838116600081815260016020908152604080832094871680845294825291829020805460ff191686151590811790915591519182527f17307eab39ab6107e8899845ad3d59bd9653f200f220920489ca2b5937696c3191016109ed565b6001600160a01b038416611d345760405162461bcd60e51b8152600401610577906131d0565b336000611d4085611f1e565b90506000611d4d85611f1e565b9050611d5d838989858589611f69565b6000868152602081815260408083206001600160a01b038c16845290915290205485811015611d9e5760405162461bcd60e51b815260040161057790613215565b6000878152602081815260408083206001600160a01b038d8116855292528083208985039055908a16825281208054889290611ddb9084906131bd565b909155505060408051888152602081018890526001600160a01b03808b16928c821692918816917fc3d58168c5ae7397731d063d5bbf3d657854427343f4c083240f7aacaa2d0f62910160405180910390a4611e3b848a8a8a8a8a61214a565b505050505050505050565b60008072184f03e93ff9f4daa797ed6e38ed64bf6a1f0160401b8310611e855772184f03e93ff9f4daa797ed6e38ed64bf6a1f0160401b830492506040015b6d04ee2d6d415b85acef81000000008310611eb1576d04ee2d6d415b85acef8100000000830492506020015b662386f26fc100008310611ecf57662386f26fc10000830492506010015b6305f5e1008310611ee7576305f5e100830492506008015b6127108310611efb57612710830492506004015b60648310611f0d576064830492506002015b600a83106105a35760010192915050565b60408051600180825281830190925260609160009190602080830190803683370190505090508281600081518110611f5857611f58612ffb565b602090810291909101015292915050565b60035460ff1615611fd15760405162461bcd60e51b815260206004820152602c60248201527f455243313135355061757361626c653a20746f6b656e207472616e736665722060448201526b1dda1a5b19481c185d5cd95960a21b6064820152608401610577565b6001600160a01b0385166120585760005b835181101561205657828181518110611ffd57611ffd612ffb565b60200260200101516009600086848151811061201b5761201b612ffb565b60200260200101518152602001908152602001600020600082825461204091906131bd565b9091555061204f905081613011565b9050611fe2565b505b6001600160a01b038416611b455760005b83518110156116ca57600084828151811061208657612086612ffb565b6020026020010151905060008483815181106120a4576120a4612ffb565b60200260200101519050600060096000848152602001908152602001600020549050818110156121275760405162461bcd60e51b815260206004820152602860248201527f455243313135353a206275726e20616d6f756e74206578636565647320746f74604482015267616c537570706c7960c01b6064820152608401610577565b6000928352600960205260409092209103905561214381613011565b9050612069565b6001600160a01b0384163b15611b455760405163f23a6e6160e01b81526001600160a01b0385169063f23a6e619061218e9089908990889088908890600401613284565b6020604051808303816000875af19250505080156121c9575060408051601f3d908101601f191682019092526121c6918101906132c9565b60015b612275576121d56132e6565b806308c379a00361220e57506121e9613302565b806121f45750612210565b8060405162461bcd60e51b8152600401610577919061246d565b505b60405162461bcd60e51b815260206004820152603460248201527f455243313135353a207472616e7366657220746f206e6f6e2d455243313135356044820152732932b1b2b4bb32b91034b6b83632b6b2b73a32b960611b6064820152608401610577565b6001600160e01b0319811663f23a6e6160e01b146116ca5760405162461bcd60e51b81526004016105779061338b565b6001600160a01b0384163b15611b455760405163bc197c8160e01b81526001600160a01b0385169063bc197c81906122e990899089908890889088906004016133d3565b6020604051808303816000875af1925050508015612324575060408051601f3d908101601f19168201909252612321918101906132c9565b60015b612330576121d56132e6565b6001600160e01b0319811663bc197c8160e01b146116ca5760405162461bcd60e51b81526004016105779061338b565b60035460ff16610cc55760405162461bcd60e51b815260206004820152601460248201527314185d5cd8589b194e881b9bdd081c185d5cd95960621b6044820152606401610577565b6001600160a01b03811681146111d057600080fd5b600080604083850312156123d157600080fd5b82356123dc816123a9565b946020939093013593505050565b6001600160e01b0319811681146111d057600080fd5b60006020828403121561241257600080fd5b8135610cae816123ea565b60005b83811015612438578181015183820152602001612420565b50506000910152565b6000815180845261245981602086016020860161241d565b601f01601f19169290920160200192915050565b602081526000610cae6020830184612441565b803560ff8116811461249157600080fd5b919050565b6000806000606084860312156124ab57600080fd5b6124b484612480565b92506124c260208501612480565b9150604084013590509250925092565b6000602082840312156124e457600080fd5b5035919050565b60008060006060848603121561250057600080fd5b833561250b816123a9565b95602085013595506040909401359392505050565b60006020828403121561253257600080fd5b8135610cae816123a9565b634e487b7160e01b600052604160045260246000fd5b601f8201601f191681016001600160401b03811182821017156125785761257861253d565b6040525050565b60006001600160401b038211156125985761259861253d565b5060051b60200190565b600082601f8301126125b357600080fd5b813560206125c08261257f565b6040516125cd8282612553565b83815260059390931b85018201928281019150868411156125ed57600080fd5b8286015b8481101561260857803583529183019183016125f1565b509695505050505050565b60006001600160401b0383111561262c5761262c61253d565b604051612643601f8501601f191660200182612553565b80915083815284848401111561265857600080fd5b83836020830137600060208583010152509392505050565b600082601f83011261268157600080fd5b610cae83833560208501612613565b600080600080600060a086880312156126a857600080fd5b85356126b3816123a9565b945060208601356126c3816123a9565b935060408601356001600160401b03808211156126df57600080fd5b6126eb89838a016125a2565b9450606088013591508082111561270157600080fd5b61270d89838a016125a2565b9350608088013591508082111561272357600080fd5b5061273088828901612670565b9150509295509295909350565b600082601f83011261274e57600080fd5b8135602061275b8261257f565b6040516127688282612553565b83815260059390931b850182019282810191508684111561278857600080fd5b8286015b8481101561260857803561279f816123a9565b835291830191830161278c565b6000602082840312156127be57600080fd5b81356001600160401b038111156127d457600080fd5b6127e08482850161273d565b949350505050565b600080604083850312156127fb57600080fd5b82356001600160401b038082111561281257600080fd5b61281e8683870161273d565b9350602085013591508082111561283457600080fd5b50612841858286016125a2565b9150509250929050565b600081518084526020808501945080840160005b8381101561287b5781518752958201959082019060010161285f565b509495945050505050565b602081526000610cae602083018461284b565b6000602082840312156128ab57600080fd5b81356001600160401b038111156128c157600080fd5b8201601f810184136128d257600080fd5b6127e084823560208401612613565b80151581146111d057600080fd5b6000806040838503121561290257600080fd5b823561290d816123a9565b9150602083013561291d816128e1565b809150509250929050565b6000806000806080858703121561293e57600080fd5b8435612949816123a9565b9350602085013592506040850135915060608501356001600160401b0381111561297257600080fd5b61297e87828801612670565b91505092959194509250565b6000806040838503121561299d57600080fd5b82356129a8816123a9565b9150602083013561291d816123a9565b600080600080600060a086880312156129d057600080fd5b85356129db816123a9565b945060208601356129eb816123a9565b9350604086013592506060860135915060808601356001600160401b03811115612a1457600080fd5b61273088828901612670565b600181811c90821680612a3457607f821691505b602082108103610efa57634e487b7160e01b600052602260045260246000fd5b634e487b7160e01b600052601260045260246000fd5b600060ff831680612a7d57612a7d612a54565b8060ff84160691505092915050565b634e487b7160e01b600052601160045260246000fd5b60ff82811682821603908111156105a3576105a3612a8c565b600060ff831680612ace57612ace612a54565b8060ff84160491505092915050565b600181815b80851115612b18578160001904821115612afe57612afe612a8c565b80851615612b0b57918102915b93841c9390800290612ae2565b509250929050565b600082612b2f575060016105a3565b81612b3c575060006105a3565b8160018114612b525760028114612b5c57612b78565b60019150506105a3565b60ff841115612b6d57612b6d612a8c565b50506001821b6105a3565b5060208310610133831016604e8410600b8410161715612b9b575081810a6105a3565b612ba58383612add565b8060001904821115612bb957612bb9612a8c565b029392505050565b6000610cae60ff841683612b20565b80820281158282048414176105a3576105a3612a8c565b693d913730b6b2911d101160b11b81528251600090612c0d81600a85016020880161241d565b6e01023b2b6b9ba37b732902a34b2b91608d1b600a918401918201528351612c3c81601984016020880161241d565b61088b60f21b60199290910191820152601b01949350505050565b60008251612c6981846020870161241d565b7f226465736372697074696f6e223a202257656c636f6d6520746f2074686520639201918252507f61707469766174696e67207265616c6d206f662041746c616e7469732c20746860208201527f652067616d652d766572736520616e6420686f6d65206f6620746865206c656760408201527f656e64617279204172676f6e617574732e2047656d73746f6e6573206172652060608201527f706f77657266756c207265736f757263657320696e2041746c616e746973206160808201527f6e6420657869737420696e20666f757220646966666572656e7420746965727360a08201527f2e20416371756972652047656d73746f6e657320746f206c6576656c2075702060c08201527f796f757220706c616e65747320616e642065717569706d656e7420706172747360e08201527f2e204675736520332047656d73746f6e6573206f66207468652073616d6520746101008201527f69657220746f2067657420612068696768657220746965722047656d73746f6e610120820152631948488b60e21b61014082015261014401919050565b60008451612e1181846020890161241d565b80830190507f2261747472696275746573223a205b7b2274726169745f74797065223a2022458152723632b6b2b73a111610113b30b63ab2911d101160691b60208201528451612e6881603384016020890161241d565b62089f4b60ea1b603392909101918201527f7b2274726169745f74797065223a202254696572222c202276616c7565223a206036820152601160f91b60568201528351612ebc81605784016020880161241d565b63089f574b60e21b60579290910191820152605b0195945050505050565b60008351612eec81846020880161241d565b691134b6b0b3b2911d101160b11b9083019081528351612f1381600a84016020880161241d565b61227d60f01b600a9290910191820152600c01949350505050565b7f646174613a6170706c69636174696f6e2f6a736f6e3b6261736536342c000000815260008251612f6681601d85016020870161241d565b91909101601d0192915050565b600060208284031215612f8557600080fd5b8151610cae816128e1565b600060208284031215612fa257600080fd5b8151610cae816123a9565b6020808252602e908201527f455243313135353a2063616c6c6572206973206e6f7420746f6b656e206f776e60408201526d195c881bdc88185c1c1c9bdd995960921b606082015260800190565b634e487b7160e01b600052603260045260246000fd5b60006001820161302357613023612a8c565b5060010190565b60ff81811683821601908111156105a3576105a3612a8c565b601f821115610b7857600081815260208120601f850160051c8101602086101561306a5750805b601f850160051c820191505b81811015611b4557828155600101613076565b81516001600160401b038111156130a2576130a261253d565b6130b6816130b08454612a20565b84613043565b602080601f8311600181146130eb57600084156130d35750858301515b600019600386901b1c1916600185901b178555611b45565b600085815260208120601f198616915b8281101561311a578886015182559484019460019091019084016130fb565b50858210156131385787850151600019600388901b60f8161c191681555b5050505050600190811b01905550565b60008261315757613157612a54565b500490565b6000845161316e81846020890161241d565b84519083019061318281836020890161241d565b602f60f81b9101908152835161319f81600184016020880161241d565b632e706e6760e01b6001929091019182015260050195945050505050565b808201808211156105a3576105a3612a8c565b60208082526025908201527f455243313135353a207472616e7366657220746f20746865207a65726f206164604082015264647265737360d81b606082015260800190565b6020808252602a908201527f455243313135353a20696e73756666696369656e742062616c616e636520666f60408201526939103a3930b739b332b960b11b606082015260800190565b604081526000613272604083018561284b565b8281036020840152611036818561284b565b6001600160a01b03868116825285166020820152604081018490526060810183905260a0608082018190526000906132be90830184612441565b979650505050505050565b6000602082840312156132db57600080fd5b8151610cae816123ea565b600060033d11156132ff5760046000803e5060005160e01c5b90565b600060443d10156133105790565b6040516003193d81016004833e81513d6001600160401b03816024840111818411171561333f57505050505090565b82850191508151818111156133575750505050505090565b843d87010160208285010111156133715750505050505090565b61338060208286010187612553565b509095945050505050565b60208082526028908201527f455243313135353a204552433131353552656365697665722072656a656374656040820152676420746f6b656e7360c01b606082015260800190565b6001600160a01b0386811682528516602082015260a0604082018190526000906133ff9083018661284b565b8281036060840152613411818661284b565b905082810360808401526134258185612441565b9897505050505050505056fe4142434445464748494a4b4c4d4e4f505152535455565758595a6162636465666768696a6b6c6d6e6f707172737475767778797a303132333435363738392b2fa26469706673582212207fafd0a41515ed5e3e605092cf92209b2321e4ecee638b1276385a0f50f4bc3364736f6c63430008110033",
  "devdoc": {
    "details": "Fuse 3 gemstones of the same tier to receive 1 from the next tier. Gemstones can be used to upgrade planets and are also required for certain levels of equipment fusion.",
    "kind": "dev",
    "methods": {
      "airdrop(address,uint256,uint256,bytes)": {
        "details": "Airdrops some gemstones to an address; for giveaways",
        "params": {
          "_data": "Data to pass if receiver is contract",
          "_id": "Token ID to mint",
          "_quantity": "Amount of tokens to mint",
          "_to": "Address of the future owner of the token"
        }
      },
      "balanceOf(address,uint256)": {
        "details": "See {IERC1155-balanceOf}. Requirements: - `account` cannot be the zero address."
      },
      "balanceOfBatch(address[],uint256[])": {
        "details": "See {IERC1155-balanceOfBatch}. Requirements: - `accounts` and `ids` must have the same length."
      },
      "baseURI()": {
        "details": "Gets baseToken URI"
      },
      "burn(address,uint256,uint256)": {
        "details": "Burns some amount of tokens from an address"
      },
      "exists(uint256)": {
        "details": "Indicates whether any token exist with a given id, or not.There are only Gemstones with tokenIds 1-12"
      },
      "fuseGemstones(uint8,uint8,uint256)": {
        "details": "Fuse 3 Gemstones to get another Gemstone of a higher tier",
        "params": {
          "_amountToCreate": "The amount of Gemstones to create Gemstone Upgrade Sheet           Tier 1 -> Tier 2 -> Tier 3 -> Tier 4 FIRE      ID 1   -> ID 4   -> ID 7   -> ID 10 LIGHTNING ID 2   -> ID 5   -> ID 8   -> ID 11 STEEL     ID 3   -> ID 6   -> ID 9   -> ID 12",
          "_id": "The Gemstone id"
        }
      },
      "isApprovedForAll(address,address)": {
        "details": "See {IERC1155-isApprovedForAll}."
      },
      "mint(address,uint256,uint256)": {
        "details": "Mints some amount of tokens to an address",
        "params": {
          "_id": "Token ID to mint",
          "_quantity": "Amount of tokens to mint",
          "_to": "Address of the future owner of the token"
        }
      },
      "owner()": {
        "details": "Returns the address of the current owner."
      },
      "pause()": {
        "details": "Pause contract in case of emergency"
      },
      "paused()": {
        "details": "Returns true if the contract is paused, and false otherwise."
      },
      "renounceOwnership()": {
        "details": "Leaves the contract without owner. It will not be possible to call `onlyOwner` functions anymore. Can only be called by the current owner. NOTE: Renouncing ownership will leave the contract without an owner, thereby removing any functionality that is only available to the owner."
      },
      "safeBatchTransferFrom(address,address,uint256[],uint256[],bytes)": {
        "details": "See {IERC1155-safeBatchTransferFrom}."
      },
      "safeTransferFrom(address,address,uint256,uint256,bytes)": {
        "details": "See {IERC1155-safeTransferFrom}."
      },
      "setAddressRegistry(address)": {
        "params": {
          "_addressRegistry": "The address of the Address Registry"
        }
      },
      "setApprovalForAll(address,bool)": {
        "details": "See {IERC1155-setApprovalForAll}."
      },
      "setBaseMetadataURI(string)": {
        "details": "Will update the base URL of token's URI",
        "params": {
          "_newBaseMetadataURI": "New base URL of token's URI"
        }
      },
      "supportsInterface(bytes4)": {
        "details": "See {IERC165-supportsInterface}."
      },
      "totalSupply(uint256)": {
        "details": "Total amount of tokens in with a given id."
      },
      "transferOwnership(address)": {
        "details": "Transfers ownership of the contract to a new account (`newOwner`). Can only be called by the current owner."
      },
      "unpause()": {
        "details": "Unpause contract in case of emergency"
      }
    },
    "title": "Atlantis - Gemstones contract",
    "version": 1
  },
  "userdoc": {
    "kind": "user",
    "methods": {
      "FUSION_COST()": {
        "notice": "Stardust fusion cost"
      },
      "TOTAL_TOKEN_IDS()": {
        "notice": "Total amount of Ids"
      },
      "addressRegistry()": {
        "notice": "Address registry contract"
      },
      "baseTokenURI()": {
        "notice": "Base token URI"
      },
      "devAddresses(address)": {
        "notice": "Whitelisted addresses who can call airdrop"
      },
      "name()": {
        "notice": "Name of contract"
      },
      "setAddressRegistry(address)": {
        "notice": "Set the Address Registry"
      },
      "symbol()": {
        "notice": "Symbol of contract"
      }
    },
    "version": 1
  },
  "storageLayout": {
    "storage": [
      {
        "astId": 4051,
        "contract": "contracts/AtlantisGemstones.sol:AtlantisGemstones",
        "label": "_balances",
        "offset": 0,
        "slot": "0",
        "type": "t_mapping(t_uint256,t_mapping(t_address,t_uint256))"
      },
      {
        "astId": 4057,
        "contract": "contracts/AtlantisGemstones.sol:AtlantisGemstones",
        "label": "_operatorApprovals",
        "offset": 0,
        "slot": "1",
        "type": "t_mapping(t_address,t_mapping(t_address,t_bool))"
      },
      {
        "astId": 4059,
        "contract": "contracts/AtlantisGemstones.sol:AtlantisGemstones",
        "label": "_uri",
        "offset": 0,
        "slot": "2",
        "type": "t_string_storage"
      },
      {
        "astId": 3881,
        "contract": "contracts/AtlantisGemstones.sol:AtlantisGemstones",
        "label": "_paused",
        "offset": 0,
        "slot": "3",
        "type": "t_bool"
      },
      {
        "astId": 3758,
        "contract": "contracts/AtlantisGemstones.sol:AtlantisGemstones",
        "label": "_owner",
        "offset": 1,
        "slot": "3",
        "type": "t_address"
      },
      {
        "astId": 3982,
        "contract": "contracts/AtlantisGemstones.sol:AtlantisGemstones",
        "label": "_status",
        "offset": 0,
        "slot": "4",
        "type": "t_uint256"
      },
      {
        "astId": 16642,
        "contract": "contracts/AtlantisGemstones.sol:AtlantisGemstones",
        "label": "addressRegistry",
        "offset": 0,
        "slot": "5",
        "type": "t_contract(AtlantisAddressRegistry)14028"
      },
      {
        "astId": 16645,
        "contract": "contracts/AtlantisGemstones.sol:AtlantisGemstones",
        "label": "name",
        "offset": 0,
        "slot": "6",
        "type": "t_string_storage"
      },
      {
        "astId": 16648,
        "contract": "contracts/AtlantisGemstones.sol:AtlantisGemstones",
        "label": "symbol",
        "offset": 0,
        "slot": "7",
        "type": "t_string_storage"
      },
      {
        "astId": 16651,
        "contract": "contracts/AtlantisGemstones.sol:AtlantisGemstones",
        "label": "baseTokenURI",
        "offset": 0,
        "slot": "8",
        "type": "t_string_storage"
      },
      {
        "astId": 16660,
        "contract": "contracts/AtlantisGemstones.sol:AtlantisGemstones",
        "label": "_totalSupply",
        "offset": 0,
        "slot": "9",
        "type": "t_mapping(t_uint256,t_uint256)"
      },
      {
        "astId": 16664,
        "contract": "contracts/AtlantisGemstones.sol:AtlantisGemstones",
        "label": "FUSION_COST",
        "offset": 0,
        "slot": "10",
        "type": "t_uint256"
      },
      {
        "astId": 16669,
        "contract": "contracts/AtlantisGemstones.sol:AtlantisGemstones",
        "label": "devAddresses",
        "offset": 0,
        "slot": "11",
        "type": "t_mapping(t_address,t_bool)"
      }
    ],
    "types": {
      "t_address": {
        "encoding": "inplace",
        "label": "address",
        "numberOfBytes": "20"
      },
      "t_bool": {
        "encoding": "inplace",
        "label": "bool",
        "numberOfBytes": "1"
      },
      "t_contract(AtlantisAddressRegistry)14028": {
        "encoding": "inplace",
        "label": "contract AtlantisAddressRegistry",
        "numberOfBytes": "20"
      },
      "t_mapping(t_address,t_bool)": {
        "encoding": "mapping",
        "key": "t_address",
        "label": "mapping(address => bool)",
        "numberOfBytes": "32",
        "value": "t_bool"
      },
      "t_mapping(t_address,t_mapping(t_address,t_bool))": {
        "encoding": "mapping",
        "key": "t_address",
        "label": "mapping(address => mapping(address => bool))",
        "numberOfBytes": "32",
        "value": "t_mapping(t_address,t_bool)"
      },
      "t_mapping(t_address,t_uint256)": {
        "encoding": "mapping",
        "key": "t_address",
        "label": "mapping(address => uint256)",
        "numberOfBytes": "32",
        "value": "t_uint256"
      },
      "t_mapping(t_uint256,t_mapping(t_address,t_uint256))": {
        "encoding": "mapping",
        "key": "t_uint256",
        "label": "mapping(uint256 => mapping(address => uint256))",
        "numberOfBytes": "32",
        "value": "t_mapping(t_address,t_uint256)"
      },
      "t_mapping(t_uint256,t_uint256)": {
        "encoding": "mapping",
        "key": "t_uint256",
        "label": "mapping(uint256 => uint256)",
        "numberOfBytes": "32",
        "value": "t_uint256"
      },
      "t_string_storage": {
        "encoding": "bytes",
        "label": "string",
        "numberOfBytes": "32"
      },
      "t_uint256": {
        "encoding": "inplace",
        "label": "uint256",
        "numberOfBytes": "32"
      }
    }
  }
}