{
  "address": "0xc8EE57CeD16Cb858a203970ae1B1E9309ee146eb",
  "abi": [
    {
      "inputs": [
        {
          "internalType": "contract AtlantisAddressRegistry",
          "name": "_addressRegistry",
          "type": "address"
        },
        {
          "internalType": "uint256",
          "name": "_timeBuffer",
          "type": "uint256"
        },
        {
          "internalType": "uint256",
          "name": "_reservePrice",
          "type": "uint256"
        },
        {
          "internalType": "uint8",
          "name": "_minBidIncrementPercentage",
          "type": "uint8"
        },
        {
          "internalType": "uint256",
          "name": "_minStackedBidIncrement",
          "type": "uint256"
        },
        {
          "internalType": "uint256",
          "name": "_startTime",
          "type": "uint256"
        },
        {
          "internalType": "uint256",
          "name": "_endTime",
          "type": "uint256"
        }
      ],
      "stateMutability": "nonpayable",
      "type": "constructor"
    },
    {
      "inputs": [],
      "name": "AuctionNotInitialized",
      "type": "error"
    },
    {
      "inputs": [],
      "name": "AuctionSettled",
      "type": "error"
    },
    {
      "inputs": [],
      "name": "AuctionStillLive",
      "type": "error"
    },
    {
      "inputs": [],
      "name": "BidIncrementTooLow",
      "type": "error"
    },
    {
      "inputs": [],
      "name": "BidsNotSorted",
      "type": "error"
    },
    {
      "inputs": [],
      "name": "IncrementalPriceNotMet",
      "type": "error"
    },
    {
      "inputs": [],
      "name": "NonExistentBid",
      "type": "error"
    },
    {
      "inputs": [],
      "name": "NotEOA",
      "type": "error"
    },
    {
      "inputs": [],
      "name": "ReservePriceNotMet",
      "type": "error"
    },
    {
      "inputs": [],
      "name": "WithdrawFailed",
      "type": "error"
    },
    {
      "anonymous": false,
      "inputs": [],
      "name": "AuctionExtended",
      "type": "event"
    },
    {
      "anonymous": false,
      "inputs": [
        {
          "indexed": false,
          "internalType": "address",
          "name": "bidder",
          "type": "address"
        },
        {
          "indexed": false,
          "internalType": "uint256",
          "name": "oldValue",
          "type": "uint256"
        },
        {
          "indexed": false,
          "internalType": "uint256",
          "name": "increment",
          "type": "uint256"
        }
      ],
      "name": "BidIncreased",
      "type": "event"
    },
    {
      "anonymous": false,
      "inputs": [
        {
          "indexed": false,
          "internalType": "address",
          "name": "bidder",
          "type": "address"
        },
        {
          "indexed": false,
          "internalType": "uint256",
          "name": "value",
          "type": "uint256"
        }
      ],
      "name": "NewBid",
      "type": "event"
    },
    {
      "anonymous": false,
      "inputs": [
        {
          "indexed": true,
          "internalType": "address",
          "name": "previousOwner",
          "type": "address"
        },
        {
          "indexed": true,
          "internalType": "address",
          "name": "newOwner",
          "type": "address"
        }
      ],
      "name": "OwnershipTransferred",
      "type": "event"
    },
    {
      "inputs": [],
      "name": "MAX_NUM_BIDS",
      "outputs": [
        {
          "internalType": "uint256",
          "name": "",
          "type": "uint256"
        }
      ],
      "stateMutability": "view",
      "type": "function"
    },
    {
      "inputs": [
        {
          "internalType": "uint256",
          "name": "",
          "type": "uint256"
        }
      ],
      "name": "activeBids",
      "outputs": [
        {
          "internalType": "address",
          "name": "bidder",
          "type": "address"
        },
        {
          "internalType": "uint192",
          "name": "amount",
          "type": "uint192"
        },
        {
          "internalType": "uint64",
          "name": "bidTime",
          "type": "uint64"
        }
      ],
      "stateMutability": "view",
      "type": "function"
    },
    {
      "inputs": [],
      "name": "addressRegistry",
      "outputs": [
        {
          "internalType": "contract AtlantisAddressRegistry",
          "name": "",
          "type": "address"
        }
      ],
      "stateMutability": "view",
      "type": "function"
    },
    {
      "inputs": [],
      "name": "auctionSettled",
      "outputs": [
        {
          "internalType": "bool",
          "name": "",
          "type": "bool"
        }
      ],
      "stateMutability": "view",
      "type": "function"
    },
    {
      "inputs": [],
      "name": "bid",
      "outputs": [],
      "stateMutability": "payable",
      "type": "function"
    },
    {
      "inputs": [
        {
          "internalType": "address",
          "name": "",
          "type": "address"
        }
      ],
      "name": "bidIndexes",
      "outputs": [
        {
          "internalType": "uint8",
          "name": "index",
          "type": "uint8"
        },
        {
          "internalType": "bool",
          "name": "isSet",
          "type": "bool"
        }
      ],
      "stateMutability": "view",
      "type": "function"
    },
    {
      "inputs": [],
      "name": "endTime",
      "outputs": [
        {
          "internalType": "uint256",
          "name": "",
          "type": "uint256"
        }
      ],
      "stateMutability": "view",
      "type": "function"
    },
    {
      "inputs": [],
      "name": "getAllActiveBids",
      "outputs": [
        {
          "components": [
            {
              "internalType": "address",
              "name": "bidder",
              "type": "address"
            },
            {
              "internalType": "uint192",
              "name": "amount",
              "type": "uint192"
            },
            {
              "internalType": "uint64",
              "name": "bidTime",
              "type": "uint64"
            }
          ],
          "internalType": "struct AtlantisAuction.Bid[8]",
          "name": "",
          "type": "tuple[8]"
        }
      ],
      "stateMutability": "view",
      "type": "function"
    },
    {
      "inputs": [],
      "name": "getBidIndexToUpdate",
      "outputs": [
        {
          "internalType": "uint8",
          "name": "",
          "type": "uint8"
        }
      ],
      "stateMutability": "view",
      "type": "function"
    },
    {
      "inputs": [],
      "name": "minBidIncrementPercentage",
      "outputs": [
        {
          "internalType": "uint8",
          "name": "",
          "type": "uint8"
        }
      ],
      "stateMutability": "view",
      "type": "function"
    },
    {
      "inputs": [],
      "name": "minStackedBidIncrement",
      "outputs": [
        {
          "internalType": "uint256",
          "name": "",
          "type": "uint256"
        }
      ],
      "stateMutability": "view",
      "type": "function"
    },
    {
      "inputs": [],
      "name": "owner",
      "outputs": [
        {
          "internalType": "address",
          "name": "",
          "type": "address"
        }
      ],
      "stateMutability": "view",
      "type": "function"
    },
    {
      "inputs": [],
      "name": "renounceOwnership",
      "outputs": [],
      "stateMutability": "nonpayable",
      "type": "function"
    },
    {
      "inputs": [],
      "name": "reservePrice",
      "outputs": [
        {
          "internalType": "uint256",
          "name": "",
          "type": "uint256"
        }
      ],
      "stateMutability": "view",
      "type": "function"
    },
    {
      "inputs": [
        {
          "internalType": "uint256",
          "name": "_startTime",
          "type": "uint256"
        },
        {
          "internalType": "uint256",
          "name": "_endTime",
          "type": "uint256"
        }
      ],
      "name": "setAuctionTimes",
      "outputs": [],
      "stateMutability": "nonpayable",
      "type": "function"
    },
    {
      "inputs": [
        {
          "internalType": "uint8",
          "name": "_minBidIncrementPercentage",
          "type": "uint8"
        }
      ],
      "name": "setMinBidIncrementPercentage",
      "outputs": [],
      "stateMutability": "nonpayable",
      "type": "function"
    },
    {
      "inputs": [
        {
          "internalType": "uint256",
          "name": "_minStackedBidIncrement",
          "type": "uint256"
        }
      ],
      "name": "setMinReplacementIncrease",
      "outputs": [],
      "stateMutability": "nonpayable",
      "type": "function"
    },
    {
      "inputs": [
        {
          "internalType": "uint256",
          "name": "_reservePrice",
          "type": "uint256"
        }
      ],
      "name": "setReservePrice",
      "outputs": [],
      "stateMutability": "nonpayable",
      "type": "function"
    },
    {
      "inputs": [
        {
          "internalType": "uint256",
          "name": "_timeBuffer",
          "type": "uint256"
        }
      ],
      "name": "setTimeBuffer",
      "outputs": [],
      "stateMutability": "nonpayable",
      "type": "function"
    },
    {
      "inputs": [
        {
          "components": [
            {
              "internalType": "address",
              "name": "bidder",
              "type": "address"
            },
            {
              "internalType": "uint192",
              "name": "amount",
              "type": "uint192"
            },
            {
              "internalType": "uint64",
              "name": "bidTime",
              "type": "uint64"
            }
          ],
          "internalType": "struct AtlantisAuction.Bid[8]",
          "name": "sortedBids",
          "type": "tuple[8]"
        }
      ],
      "name": "settleAuction",
      "outputs": [],
      "stateMutability": "nonpayable",
      "type": "function"
    },
    {
      "inputs": [],
      "name": "startTime",
      "outputs": [
        {
          "internalType": "uint256",
          "name": "",
          "type": "uint256"
        }
      ],
      "stateMutability": "view",
      "type": "function"
    },
    {
      "inputs": [],
      "name": "timeBuffer",
      "outputs": [
        {
          "internalType": "uint256",
          "name": "",
          "type": "uint256"
        }
      ],
      "stateMutability": "view",
      "type": "function"
    },
    {
      "inputs": [
        {
          "internalType": "address",
          "name": "newOwner",
          "type": "address"
        }
      ],
      "name": "transferOwnership",
      "outputs": [],
      "stateMutability": "nonpayable",
      "type": "function"
    },
    {
      "inputs": [],
      "name": "withdraw",
      "outputs": [],
      "stateMutability": "nonpayable",
      "type": "function"
    }
  ],
  "transactionHash": "0xf5b5798d98e1fa045a81bb80b89c3d64754083be0e92f2f28fd3f8efd04ffc87",
  "args": [
    "0x16E96b2c52C816D26FEF4991733249e81965D88D",
    300,
    "1000000000000000000000",
    10,
    "50000000000000000000",
    1682517600,
    1682604000
  ],
  "numDeployments": 1,
  "solcInputHash": "ba309921f8c962c7c7e653ba26b75652",
  "bytecode": "0x608060405234801561001057600080fd5b5060405161150d38038061150d83398101604081905261002f916100db565b6100383361008b565b60018055600280546001600160a01b0319166001600160a01b0398909816979097179096556003949094556004929092556005805460ff191660ff92909216919091179055600655600755600855610158565b600080546001600160a01b038381166001600160a01b0319831681178455604051919092169283917f8be0079c531659141344cd1fd0a4f28419497f9722a3daafe3b4186f6b6457e09190a35050565b600080600080600080600060e0888a0312156100f657600080fd5b87516001600160a01b038116811461010d57600080fd5b809750506020880151955060408801519450606088015160ff8116811461013357600080fd5b809450506080880151925060a0880151915060c0880151905092959891949750929550565b6113a6806101676000396000f3fe60806040526004361061014b5760003560e01c80638da5cb5b116100b6578063d3e761a41161006f578063d3e761a414610399578063d8f81b35146103c3578063db2e1eed14610415578063ec91f2a41461042b578063f2fde38b14610441578063f3ad65f41461046157600080fd5b80638da5cb5b146102d15780639f1b2fc114610303578063b1fdec6a14610323578063b296024d1461034a578063ba980f3214610364578063ce9c7c0d1461037957600080fd5b80633ccfd60b116101085780633ccfd60b146101fb57806358b8bad614610210578063672b0774146102305780637120334b14610286578063715018a6146102a657806378e97925146102bb57600080fd5b806309f981af1461015057806316617c0a146101795780631998aeef1461019b578063294bc0e7146101a35780633197cbb6146101c557806336ebdb38146101db575b600080fd5b34801561015c57600080fd5b5061016660065481565b6040519081526020015b60405180910390f35b34801561018557600080fd5b5061019961019436600461112b565b610481565b005b6101996107b8565b3480156101af57600080fd5b506101b8610c64565b6040516101709190611156565b3480156101d157600080fd5b5061016660085481565b3480156101e757600080fd5b506101996101f63660046111bc565b610cec565b34801561020757600080fd5b50610199610d0a565b34801561021c57600080fd5b5061019961022b3660046111e6565b610d3e565b34801561023c57600080fd5b5061025061024b3660046111e6565b610d4b565b604080516001600160a01b0390941684526001600160c01b0390921660208401526001600160401b031690820152606001610170565b34801561029257600080fd5b506101996102a13660046111e6565b610d92565b3480156102b257600080fd5b50610199610d9f565b3480156102c757600080fd5b5061016660075481565b3480156102dd57600080fd5b506000546001600160a01b03165b6040516001600160a01b039091168152602001610170565b34801561030f57600080fd5b5061019961031e3660046111ff565b610db1565b34801561032f57600080fd5b50610338610dc4565b60405160ff9091168152602001610170565b34801561035657600080fd5b506005546103389060ff1681565b34801561037057600080fd5b50610166600881565b34801561038557600080fd5b506101996103943660046111e6565b610ec6565b3480156103a557600080fd5b506009546103b39060ff1681565b6040519015158152602001610170565b3480156103cf57600080fd5b506103fc6103de366004611236565b601a6020526000908152604090205460ff8082169161010090041682565b6040805160ff9093168352901515602083015201610170565b34801561042157600080fd5b5061016660045481565b34801561043757600080fd5b5061016660035481565b34801561044d57600080fd5b5061019961045c366004611236565b610ed3565b34801561046d57600080fd5b506002546102eb906001600160a01b031681565b610489610f49565b610491610fa3565b60025460408051635c9a1a3d60e01b815290516000926001600160a01b031691635c9a1a3d9160048083019260209291908290030181865afa1580156104db573d6000803e3d6000fd5b505050506040513d601f19601f820116820180604052508101906104ff9190611253565b905060085442116105235760405163139480c760e31b815260040160405180910390fd5b60095460ff161561054757604051637d39d27f60e11b815260040160405180910390fd5b60005b600881101561073257600083826008811061056757610567611270565b6060020180360381019061057b9190611286565b80516001600160a01b03166000908152601a602090815260409182902082518084019093525460ff8082168452610100909104161580159183019190915291925090806105fc575081600001516001600160a01b0316600a826000015160ff16600881106105eb576105eb611270565b60020201546001600160a01b031614155b8061063e575081602001516001600160c01b0316600a826000015160ff166008811061062a5761062a611270565b60020201600101546001600160c01b031614155b80610693575081604001516001600160401b0316600a826000015160ff166008811061066c5761066c611270565b6002020160010160189054906101000a90046001600160401b03166001600160401b031614155b156106b157604051632b0e0d1760e01b815260040160405180910390fd5b8215610728576000856106c5600186611320565b600881106106d5576106d5611270565b606002018036038101906106e99190611286565b905080602001516001600160c01b031683602001516001600160c01b0316111561072657604051630b149fe560e01b815260040160405180910390fd5b505b505060010161054a565b5061073b6110cc565b60005b600881101561079c5783816008811061075957610759611270565b60600201600001602081019061076f9190611236565b82826008811061078157610781611270565b6001600160a01b03909216602092909202015260010161073e565b50506009805460ff19166001179055506107b560018055565b50565b6107c0610fa3565b3233146107e057604051635d04968b60e11b815260040160405180910390fd5b60095460ff161561080457604051637d39d27f60e11b815260040160405180910390fd5b60075415806108135750600854155b15610831576040516301a7194b60e51b815260040160405180910390fd5b600754421180610842575060085442105b6108875760405162461bcd60e51b8152602060048201526011602482015270105d58dd1a5bdb881a185cc8195b991959607a1b60448201526064015b60405180910390fd5b336000908152601a602090815260409182902082518084019093525460ff808216845261010090910416158015918301919091526109fb576006543410806108cd575034155b156108eb57604051630ec4b5eb60e31b815260040160405180910390fd5b6000600a826000015160ff166008811061090757610907611270565b6002020160010160009054906101000a90046001600160c01b03169050348101600a836000015160ff166008811061094157610941611270565b6002020160010160006101000a8154816001600160c01b0302191690836001600160c01b0316021790555042600a836000015160ff166008811061098757610987611270565b6002020160010180546001600160c01b03908116600160c01b6001600160401b0394909416939093029290921790556040805133815291831660208301523482820152517fabdd90c2558a13a111c790b3e52da9a52768834a1139e2993b68b6db09c071c59181900360600190a150610c0f565b600454341080610a09575034155b15610a27576040516379bb5b6160e01b815260040160405180910390fd5b6000610a31610dc4565b90506000600a8260ff1660088110610a4b57610a4b611270565b60020201600101546001600160c01b031690506000600a60ff841660088110610a7657610a76611270565b60020201546005546001600160a01b03909116915060649060ff168302048201341015610ab657604051632b5bd98760e11b815260040160405180910390fd5b6001600160a01b03811615610af2576001600160a01b0381166000908152601a60205260409020805461ffff19169055610af08183610ffc565b505b6040518060600160405280336001600160a01b03168152602001346001600160c01b03168152602001426001600160401b0316815250600a8460ff1660088110610b3e57610b3e611270565b82516002919091029190910180546001600160a01b039092166001600160a01b03199092169190911781556020808301516040938401516001600160401b0316600160c01b026001600160c01b03909116176001928301558251808401845260ff8781168252818301938452336000818152601a855286902092518354955115156101000261ffff19909616921691909117939093179055825191825234908201527fdd0b6c6a77960e2066c96171b4d7ac9e8b4c184011f38544afa36a5bb63ec59f910160405180910390a15050505b60035442600854610c209190611320565b1015610c585760035442016008556040517fab9c9a8aeadcc64e09e3ec376616fdcd4dd4a5e728535b290e272c2f1792056f90600090a15b50610c6260018055565b565b610c6c6110eb565b604080516101008101909152600a60086000835b82821015610ce3576040805160608101825260028402860180546001600160a01b031682526001908101546001600160c01b038116602080850191909152600160c01b9091046001600160401b0316938301939093529083529092019101610c80565b50505050905090565b610cf4610f49565b6005805460ff191660ff92909216919091179055565b610d12610f49565b6000610d1e3347610ffc565b9050806107b557604051631d42c86760e21b815260040160405180910390fd5b610d46610f49565b600655565b600a8160088110610d5b57600080fd5b6002020180546001909101546001600160a01b0390911691506001600160c01b03811690600160c01b90046001600160401b031683565b610d9a610f49565b600355565b610da7610f49565b610c62600061107c565b610db9610f49565b600791909155600855565b600b546000906001600160c01b0316808203610de257600091505090565b600b54600090600160c01b90046001600160401b031660015b60088160ff161015610ebd576000600a8260ff1660088110610e1f57610e1f611270565b60020201600101546001600160c01b031690506000600a60ff841660088110610e4a57610e4a611270565b6002020160010160189054906101000a90046001600160401b0316905081600003610e7a57509095945050505050565b85821080610ea457508582148015610ea45750836001600160401b0316816001600160401b031610155b15610eb3578195508294508093505b5050600101610dfb565b50909392505050565b610ece610f49565b600455565b610edb610f49565b6001600160a01b038116610f405760405162461bcd60e51b815260206004820152602660248201527f4f776e61626c653a206e6577206f776e657220697320746865207a65726f206160448201526564647265737360d01b606482015260840161087e565b6107b58161107c565b6000546001600160a01b03163314610c625760405162461bcd60e51b815260206004820181905260248201527f4f776e61626c653a2063616c6c6572206973206e6f7420746865206f776e6572604482015260640161087e565b600260015403610ff55760405162461bcd60e51b815260206004820152601f60248201527f5265656e7472616e637947756172643a207265656e7472616e742063616c6c00604482015260640161087e565b6002600155565b6040805160008082526020820190925281906001600160a01b0385169061753090859060405161102c9190611341565b600060405180830381858888f193505050503d806000811461106a576040519150601f19603f3d011682016040523d82523d6000602084013e61106f565b606091505b5090925050505b92915050565b600080546001600160a01b038381166001600160a01b0319831681178455604051919092169283917f8be0079c531659141344cd1fd0a4f28419497f9722a3daafe3b4186f6b6457e09190a35050565b6040518061010001604052806008906020820280368337509192915050565b6040518061010001604052806008905b60408051606081018252600080825260208083018290529282015282526000199092019101816110fb5790505090565b600061030080838503121561113f57600080fd5b83818401111561114e57600080fd5b509092915050565b6103008101818360005b60088110156111b357815180516001600160a01b031684526020808201516001600160c01b0316818601526040918201516001600160401b03169185019190915260609093019290910190600101611160565b50505092915050565b6000602082840312156111ce57600080fd5b813560ff811681146111df57600080fd5b9392505050565b6000602082840312156111f857600080fd5b5035919050565b6000806040838503121561121257600080fd5b50508035926020909101359150565b6001600160a01b03811681146107b557600080fd5b60006020828403121561124857600080fd5b81356111df81611221565b60006020828403121561126557600080fd5b81516111df81611221565b634e487b7160e01b600052603260045260246000fd5b60006060828403121561129857600080fd5b604051606081016001600160401b0382821081831117156112c957634e487b7160e01b600052604160045260246000fd5b81604052843591506112da82611221565b9082526020840135906001600160c01b03821682146112f857600080fd5b81602084015260408501359150808216821461131357600080fd5b5060408201529392505050565b8181038181111561107657634e487b7160e01b600052601160045260246000fd5b6000825160005b818110156113625760208186018101518583015201611348565b50600092019182525091905056fea264697066735822122051d6666f7ffb476f73e6885052922e2cdb2cd9beb518d7eb104a54ee6528029064736f6c63430008110033",
  "devdoc": {
    "kind": "dev",
    "methods": {
      "bid()": {
        "details": "Bids must be made while the auction is live. Bids must meet a minimum reserve price. The first 8 bids made will be accepted as valid. Subsequent bids must be a percentage higher than the lowest of the 8 active bids. When a low bid is replaced, the ETH will be refunded back to the original bidder. If a valid bid comes in within the last `timeBuffer` seconds, the auction will be extended for another `timeBuffer` seconds. This will continue until no new active bids come in. If a wallet makes a bid while it still has an active bid, the second bid will stack on top of the first bid. If the second bid doesn't meet the `minStackedBidIncrement` threshold, an error will be thrown. A wallet will only have one active bid at at time."
      },
      "getAllActiveBids()": {
        "details": "Useful for ethers client to get the entire array at once."
      },
      "getBidIndexToUpdate()": {
        "details": "The index to return will be decided by the following rules: If there are less than MAX_NUM_BIDS bids, the index of the first empty slot is returned. If there are MAX_NUM_BIDS or more bids, the index of the lowest value bid is returned. If there is a tie, the most recent bid with the low amount will be returned. If there is a tie among bidTimes, the highest index is chosen."
      },
      "owner()": {
        "details": "Returns the address of the current owner."
      },
      "renounceOwnership()": {
        "details": "Leaves the contract without owner. It will not be possible to call `onlyOwner` functions anymore. Can only be called by the current owner. NOTE: Renouncing ownership will leave the contract without an owner, thereby removing any functionality that is only available to the owner."
      },
      "setAuctionTimes(uint256,uint256)": {
        "details": "Only callable by the owner."
      },
      "setMinBidIncrementPercentage(uint8)": {
        "details": "Only callable by the owner."
      },
      "setMinReplacementIncrease(uint256)": {
        "details": "Only callable by the owner."
      },
      "setReservePrice(uint256)": {
        "details": "Only callable by the owner."
      },
      "setTimeBuffer(uint256)": {
        "details": "Only callable by the owner."
      },
      "settleAuction((address,uint192,uint64)[8])": {
        "details": "Bids will be sorted in descending order off-chain due to constraints with sorting structs on-chain via a field on the struct, however we will validate the input on-chain before minting the NFTs. The input bids must be in descending order by amount and all input bids must correspond to a bid in the `activeBids` mapping.Duplicate bids can be passed in to circumvent the validation logic. We are ok with this loophole since this function is ownerOnly.Settlement is only possible once the auction is over."
      },
      "transferOwnership(address)": {
        "details": "Transfers ownership of the contract to a new account (`newOwner`). Can only be called by the current owner."
      }
    },
    "version": 1
  },
  "userdoc": {
    "kind": "user",
    "methods": {
      "bid()": {
        "notice": "Handle users' bids"
      },
      "getAllActiveBids()": {
        "notice": "Get all active bids."
      },
      "getBidIndexToUpdate()": {
        "notice": "Gets the index of the entry in activeBids to update"
      },
      "setAuctionTimes(uint256,uint256)": {
        "notice": "Sets the start and end time of the auction."
      },
      "setMinBidIncrementPercentage(uint8)": {
        "notice": "Set the auction minimum bid increment percentage."
      },
      "setMinReplacementIncrease(uint256)": {
        "notice": "Set the auction replacing bid buffer amount."
      },
      "setReservePrice(uint256)": {
        "notice": "Set the auction reserve price."
      },
      "setTimeBuffer(uint256)": {
        "notice": "Set the auction time buffer."
      },
      "settleAuction((address,uint192,uint64)[8])": {
        "notice": "Settles the auction and mints a skateboard ticket NFT to each winner."
      },
      "withdraw()": {
        "notice": "Withdraws the contract value to the owner"
      }
    },
    "version": 1
  },
  "storageLayout": {
    "storage": [
      {
        "astId": 7,
        "contract": "contracts/AtlantisAuction.sol:AtlantisAuction",
        "label": "_owner",
        "offset": 0,
        "slot": "0",
        "type": "t_address"
      },
      {
        "astId": 231,
        "contract": "contracts/AtlantisAuction.sol:AtlantisAuction",
        "label": "_status",
        "offset": 0,
        "slot": "1",
        "type": "t_uint256"
      },
      {
        "astId": 7559,
        "contract": "contracts/AtlantisAuction.sol:AtlantisAuction",
        "label": "addressRegistry",
        "offset": 0,
        "slot": "2",
        "type": "t_contract(AtlantisAddressRegistry)7493"
      },
      {
        "astId": 7561,
        "contract": "contracts/AtlantisAuction.sol:AtlantisAuction",
        "label": "timeBuffer",
        "offset": 0,
        "slot": "3",
        "type": "t_uint256"
      },
      {
        "astId": 7563,
        "contract": "contracts/AtlantisAuction.sol:AtlantisAuction",
        "label": "reservePrice",
        "offset": 0,
        "slot": "4",
        "type": "t_uint256"
      },
      {
        "astId": 7565,
        "contract": "contracts/AtlantisAuction.sol:AtlantisAuction",
        "label": "minBidIncrementPercentage",
        "offset": 0,
        "slot": "5",
        "type": "t_uint8"
      },
      {
        "astId": 7567,
        "contract": "contracts/AtlantisAuction.sol:AtlantisAuction",
        "label": "minStackedBidIncrement",
        "offset": 0,
        "slot": "6",
        "type": "t_uint256"
      },
      {
        "astId": 7569,
        "contract": "contracts/AtlantisAuction.sol:AtlantisAuction",
        "label": "startTime",
        "offset": 0,
        "slot": "7",
        "type": "t_uint256"
      },
      {
        "astId": 7571,
        "contract": "contracts/AtlantisAuction.sol:AtlantisAuction",
        "label": "endTime",
        "offset": 0,
        "slot": "8",
        "type": "t_uint256"
      },
      {
        "astId": 7573,
        "contract": "contracts/AtlantisAuction.sol:AtlantisAuction",
        "label": "auctionSettled",
        "offset": 0,
        "slot": "9",
        "type": "t_bool"
      },
      {
        "astId": 7578,
        "contract": "contracts/AtlantisAuction.sol:AtlantisAuction",
        "label": "activeBids",
        "offset": 0,
        "slot": "10",
        "type": "t_array(t_struct(Bid)7532_storage)8_storage"
      },
      {
        "astId": 7583,
        "contract": "contracts/AtlantisAuction.sol:AtlantisAuction",
        "label": "bidIndexes",
        "offset": 0,
        "slot": "26",
        "type": "t_mapping(t_address,t_struct(BidIndex)7537_storage)"
      }
    ],
    "types": {
      "t_address": {
        "encoding": "inplace",
        "label": "address",
        "numberOfBytes": "20"
      },
      "t_array(t_struct(Bid)7532_storage)8_storage": {
        "base": "t_struct(Bid)7532_storage",
        "encoding": "inplace",
        "label": "struct AtlantisAuction.Bid[8]",
        "numberOfBytes": "512"
      },
      "t_bool": {
        "encoding": "inplace",
        "label": "bool",
        "numberOfBytes": "1"
      },
      "t_contract(AtlantisAddressRegistry)7493": {
        "encoding": "inplace",
        "label": "contract AtlantisAddressRegistry",
        "numberOfBytes": "20"
      },
      "t_mapping(t_address,t_struct(BidIndex)7537_storage)": {
        "encoding": "mapping",
        "key": "t_address",
        "label": "mapping(address => struct AtlantisAuction.BidIndex)",
        "numberOfBytes": "32",
        "value": "t_struct(BidIndex)7537_storage"
      },
      "t_struct(Bid)7532_storage": {
        "encoding": "inplace",
        "label": "struct AtlantisAuction.Bid",
        "members": [
          {
            "astId": 7527,
            "contract": "contracts/AtlantisAuction.sol:AtlantisAuction",
            "label": "bidder",
            "offset": 0,
            "slot": "0",
            "type": "t_address"
          },
          {
            "astId": 7529,
            "contract": "contracts/AtlantisAuction.sol:AtlantisAuction",
            "label": "amount",
            "offset": 0,
            "slot": "1",
            "type": "t_uint192"
          },
          {
            "astId": 7531,
            "contract": "contracts/AtlantisAuction.sol:AtlantisAuction",
            "label": "bidTime",
            "offset": 24,
            "slot": "1",
            "type": "t_uint64"
          }
        ],
        "numberOfBytes": "64"
      },
      "t_struct(BidIndex)7537_storage": {
        "encoding": "inplace",
        "label": "struct AtlantisAuction.BidIndex",
        "members": [
          {
            "astId": 7534,
            "contract": "contracts/AtlantisAuction.sol:AtlantisAuction",
            "label": "index",
            "offset": 0,
            "slot": "0",
            "type": "t_uint8"
          },
          {
            "astId": 7536,
            "contract": "contracts/AtlantisAuction.sol:AtlantisAuction",
            "label": "isSet",
            "offset": 1,
            "slot": "0",
            "type": "t_bool"
          }
        ],
        "numberOfBytes": "32"
      },
      "t_uint192": {
        "encoding": "inplace",
        "label": "uint192",
        "numberOfBytes": "24"
      },
      "t_uint256": {
        "encoding": "inplace",
        "label": "uint256",
        "numberOfBytes": "32"
      },
      "t_uint64": {
        "encoding": "inplace",
        "label": "uint64",
        "numberOfBytes": "8"
      },
      "t_uint8": {
        "encoding": "inplace",
        "label": "uint8",
        "numberOfBytes": "1"
      }
    }
  }
}