{
  "address": "0xA9C699205283345a1858efb08B4eE72301c3F59C",
  "abi": [
    {
      "inputs": [
        {
          "internalType": "address",
          "name": "_controller",
          "type": "address"
        },
        {
          "internalType": "address",
          "name": "_whitelistSignerAddress",
          "type": "address"
        }
      ],
      "stateMutability": "nonpayable",
      "type": "constructor"
    },
    {
      "anonymous": false,
      "inputs": [
        {
          "indexed": false,
          "internalType": "uint256",
          "name": "round",
          "type": "uint256"
        },
        {
          "components": [
            {
              "internalType": "uint256",
              "name": "round",
              "type": "uint256"
            },
            {
              "components": [
                {
                  "internalType": "address",
                  "name": "tokenAddress",
                  "type": "address"
                },
                {
                  "internalType": "uint256",
                  "name": "amount",
                  "type": "uint256"
                }
              ],
              "internalType": "struct AtlanteanTrove.RewardERC20[]",
              "name": "erc20Rewards",
              "type": "tuple[]"
            },
            {
              "internalType": "uint256[]",
              "name": "erc20Amounts",
              "type": "uint256[]"
            },
            {
              "components": [
                {
                  "internalType": "address",
                  "name": "tokenAddress",
                  "type": "address"
                },
                {
                  "internalType": "uint256[]",
                  "name": "tokenIds",
                  "type": "uint256[]"
                },
                {
                  "internalType": "uint256",
                  "name": "index",
                  "type": "uint256"
                }
              ],
              "internalType": "struct AtlanteanTrove.RewardERC721[]",
              "name": "erc721Rewards",
              "type": "tuple[]"
            },
            {
              "internalType": "uint256[]",
              "name": "erc721Amounts",
              "type": "uint256[]"
            },
            {
              "components": [
                {
                  "internalType": "address",
                  "name": "tokenAddress",
                  "type": "address"
                },
                {
                  "internalType": "uint256[]",
                  "name": "tokenIds",
                  "type": "uint256[]"
                },
                {
                  "internalType": "uint256[]",
                  "name": "amounts",
                  "type": "uint256[]"
                }
              ],
              "internalType": "struct AtlanteanTrove.RewardERC1155[]",
              "name": "erc1155Rewards",
              "type": "tuple[]"
            },
            {
              "internalType": "uint256[][]",
              "name": "erc1155Amounts",
              "type": "uint256[][]"
            }
          ],
          "indexed": false,
          "internalType": "struct AtlanteanTrove.RewardData",
          "name": "rewardData",
          "type": "tuple"
        }
      ],
      "name": "AddRewards",
      "type": "event"
    },
    {
      "anonymous": false,
      "inputs": [
        {
          "indexed": false,
          "internalType": "uint256",
          "name": "round",
          "type": "uint256"
        },
        {
          "indexed": true,
          "internalType": "address",
          "name": "user",
          "type": "address"
        },
        {
          "components": [
            {
              "components": [
                {
                  "internalType": "address",
                  "name": "tokenAddress",
                  "type": "address"
                },
                {
                  "internalType": "uint256",
                  "name": "amount",
                  "type": "uint256"
                }
              ],
              "internalType": "struct AtlanteanTrove.RewardERC20Amount[]",
              "name": "erc20Amount",
              "type": "tuple[]"
            },
            {
              "components": [
                {
                  "internalType": "address",
                  "name": "tokenAddress",
                  "type": "address"
                },
                {
                  "internalType": "uint256",
                  "name": "amount",
                  "type": "uint256"
                }
              ],
              "internalType": "struct AtlanteanTrove.RewardERC721Amount[]",
              "name": "erc721Amount",
              "type": "tuple[]"
            },
            {
              "components": [
                {
                  "internalType": "address",
                  "name": "tokenAddress",
                  "type": "address"
                },
                {
                  "internalType": "uint256",
                  "name": "tokenId",
                  "type": "uint256"
                },
                {
                  "internalType": "uint256",
                  "name": "amount",
                  "type": "uint256"
                }
              ],
              "internalType": "struct AtlanteanTrove.RewardERC1155Amount[][]",
              "name": "erc1155Amount",
              "type": "tuple[][]"
            }
          ],
          "indexed": false,
          "internalType": "struct AtlanteanTrove.Amount",
          "name": "amount",
          "type": "tuple"
        }
      ],
      "name": "ClaimRewards",
      "type": "event"
    },
    {
      "anonymous": false,
      "inputs": [
        {
          "indexed": false,
          "internalType": "uint256",
          "name": "round",
          "type": "uint256"
        },
        {
          "components": [
            {
              "internalType": "uint256",
              "name": "round",
              "type": "uint256"
            },
            {
              "components": [
                {
                  "internalType": "address",
                  "name": "tokenAddress",
                  "type": "address"
                },
                {
                  "internalType": "uint256",
                  "name": "amount",
                  "type": "uint256"
                }
              ],
              "internalType": "struct AtlanteanTrove.RewardERC20[]",
              "name": "erc20Rewards",
              "type": "tuple[]"
            },
            {
              "internalType": "uint256[]",
              "name": "erc20Amounts",
              "type": "uint256[]"
            },
            {
              "components": [
                {
                  "internalType": "address",
                  "name": "tokenAddress",
                  "type": "address"
                },
                {
                  "internalType": "uint256[]",
                  "name": "tokenIds",
                  "type": "uint256[]"
                },
                {
                  "internalType": "uint256",
                  "name": "index",
                  "type": "uint256"
                }
              ],
              "internalType": "struct AtlanteanTrove.RewardERC721[]",
              "name": "erc721Rewards",
              "type": "tuple[]"
            },
            {
              "internalType": "uint256[]",
              "name": "erc721Amounts",
              "type": "uint256[]"
            },
            {
              "components": [
                {
                  "internalType": "address",
                  "name": "tokenAddress",
                  "type": "address"
                },
                {
                  "internalType": "uint256[]",
                  "name": "tokenIds",
                  "type": "uint256[]"
                },
                {
                  "internalType": "uint256[]",
                  "name": "amounts",
                  "type": "uint256[]"
                }
              ],
              "internalType": "struct AtlanteanTrove.RewardERC1155[]",
              "name": "erc1155Rewards",
              "type": "tuple[]"
            },
            {
              "internalType": "uint256[][]",
              "name": "erc1155Amounts",
              "type": "uint256[][]"
            }
          ],
          "indexed": false,
          "internalType": "struct AtlanteanTrove.RewardData",
          "name": "rewardData",
          "type": "tuple"
        }
      ],
      "name": "RemoveRewards",
      "type": "event"
    },
    {
      "anonymous": false,
      "inputs": [
        {
          "indexed": false,
          "internalType": "address",
          "name": "admin",
          "type": "address"
        }
      ],
      "name": "SetAdmin",
      "type": "event"
    },
    {
      "anonymous": false,
      "inputs": [
        {
          "indexed": false,
          "internalType": "address",
          "name": "controller",
          "type": "address"
        }
      ],
      "name": "SetController",
      "type": "event"
    },
    {
      "anonymous": false,
      "inputs": [
        {
          "indexed": false,
          "internalType": "uint256",
          "name": "round",
          "type": "uint256"
        },
        {
          "indexed": false,
          "internalType": "uint256",
          "name": "expiryTimestamp",
          "type": "uint256"
        }
      ],
      "name": "SetRoundExpiry",
      "type": "event"
    },
    {
      "anonymous": false,
      "inputs": [
        {
          "indexed": false,
          "internalType": "address",
          "name": "whitelistSignerAddress",
          "type": "address"
        }
      ],
      "name": "SetWhitelistSignerAddress",
      "type": "event"
    },
    {
      "anonymous": false,
      "inputs": [
        {
          "indexed": false,
          "internalType": "uint256",
          "name": "round",
          "type": "uint256"
        },
        {
          "indexed": false,
          "internalType": "uint256",
          "name": "startTime",
          "type": "uint256"
        },
        {
          "indexed": false,
          "internalType": "uint256",
          "name": "expiryTimestamp",
          "type": "uint256"
        }
      ],
      "name": "StartNewRound",
      "type": "event"
    },
    {
      "inputs": [],
      "name": "admin",
      "outputs": [
        {
          "internalType": "address",
          "name": "",
          "type": "address"
        }
      ],
      "stateMutability": "view",
      "type": "function"
    },
    {
      "inputs": [
        {
          "internalType": "uint256",
          "name": "_round",
          "type": "uint256"
        },
        {
          "internalType": "bytes",
          "name": "nonce",
          "type": "bytes"
        },
        {
          "internalType": "bytes",
          "name": "signature",
          "type": "bytes"
        }
      ],
      "name": "claimRewards",
      "outputs": [],
      "stateMutability": "nonpayable",
      "type": "function"
    },
    {
      "inputs": [],
      "name": "controller",
      "outputs": [
        {
          "internalType": "address",
          "name": "",
          "type": "address"
        }
      ],
      "stateMutability": "view",
      "type": "function"
    },
    {
      "inputs": [],
      "name": "currentRound",
      "outputs": [
        {
          "internalType": "uint256",
          "name": "",
          "type": "uint256"
        }
      ],
      "stateMutability": "view",
      "type": "function"
    },
    {
      "inputs": [
        {
          "internalType": "uint256",
          "name": "_round",
          "type": "uint256"
        }
      ],
      "name": "getRoundAmounts",
      "outputs": [
        {
          "components": [
            {
              "components": [
                {
                  "internalType": "address",
                  "name": "tokenAddress",
                  "type": "address"
                },
                {
                  "internalType": "uint256",
                  "name": "amount",
                  "type": "uint256"
                }
              ],
              "internalType": "struct AtlanteanTrove.RewardERC20Amount[]",
              "name": "erc20Amount",
              "type": "tuple[]"
            },
            {
              "components": [
                {
                  "internalType": "address",
                  "name": "tokenAddress",
                  "type": "address"
                },
                {
                  "internalType": "uint256",
                  "name": "amount",
                  "type": "uint256"
                }
              ],
              "internalType": "struct AtlanteanTrove.RewardERC721Amount[]",
              "name": "erc721Amount",
              "type": "tuple[]"
            },
            {
              "components": [
                {
                  "internalType": "address",
                  "name": "tokenAddress",
                  "type": "address"
                },
                {
                  "internalType": "uint256",
                  "name": "tokenId",
                  "type": "uint256"
                },
                {
                  "internalType": "uint256",
                  "name": "amount",
                  "type": "uint256"
                }
              ],
              "internalType": "struct AtlanteanTrove.RewardERC1155Amount[][]",
              "name": "erc1155Amount",
              "type": "tuple[][]"
            }
          ],
          "internalType": "struct AtlanteanTrove.Amount",
          "name": "",
          "type": "tuple"
        }
      ],
      "stateMutability": "view",
      "type": "function"
    },
    {
      "inputs": [
        {
          "internalType": "uint256",
          "name": "_round",
          "type": "uint256"
        }
      ],
      "name": "getRoundRewards",
      "outputs": [
        {
          "components": [
            {
              "components": [
                {
                  "internalType": "address",
                  "name": "tokenAddress",
                  "type": "address"
                },
                {
                  "internalType": "uint256",
                  "name": "amount",
                  "type": "uint256"
                }
              ],
              "internalType": "struct AtlanteanTrove.RewardERC20[]",
              "name": "erc20Rewards",
              "type": "tuple[]"
            },
            {
              "components": [
                {
                  "internalType": "address",
                  "name": "tokenAddress",
                  "type": "address"
                },
                {
                  "internalType": "uint256[]",
                  "name": "tokenIds",
                  "type": "uint256[]"
                },
                {
                  "internalType": "uint256",
                  "name": "index",
                  "type": "uint256"
                }
              ],
              "internalType": "struct AtlanteanTrove.RewardERC721[]",
              "name": "erc721Rewards",
              "type": "tuple[]"
            },
            {
              "components": [
                {
                  "internalType": "address",
                  "name": "tokenAddress",
                  "type": "address"
                },
                {
                  "internalType": "uint256[]",
                  "name": "tokenIds",
                  "type": "uint256[]"
                },
                {
                  "internalType": "uint256[]",
                  "name": "amounts",
                  "type": "uint256[]"
                }
              ],
              "internalType": "struct AtlanteanTrove.RewardERC1155[]",
              "name": "erc1155Rewards",
              "type": "tuple[]"
            }
          ],
          "internalType": "struct AtlanteanTrove.Reward",
          "name": "",
          "type": "tuple"
        }
      ],
      "stateMutability": "view",
      "type": "function"
    },
    {
      "inputs": [
        {
          "internalType": "uint256",
          "name": "_round",
          "type": "uint256"
        },
        {
          "internalType": "address",
          "name": "user",
          "type": "address"
        }
      ],
      "name": "hasUserClaimed",
      "outputs": [
        {
          "internalType": "bool",
          "name": "",
          "type": "bool"
        }
      ],
      "stateMutability": "view",
      "type": "function"
    },
    {
      "inputs": [
        {
          "internalType": "address",
          "name": "operator",
          "type": "address"
        },
        {
          "internalType": "address",
          "name": "from",
          "type": "address"
        },
        {
          "internalType": "uint256[]",
          "name": "ids",
          "type": "uint256[]"
        },
        {
          "internalType": "uint256[]",
          "name": "values",
          "type": "uint256[]"
        },
        {
          "internalType": "bytes",
          "name": "data",
          "type": "bytes"
        }
      ],
      "name": "onERC1155BatchReceived",
      "outputs": [
        {
          "internalType": "bytes4",
          "name": "",
          "type": "bytes4"
        }
      ],
      "stateMutability": "nonpayable",
      "type": "function"
    },
    {
      "inputs": [
        {
          "internalType": "address",
          "name": "operator",
          "type": "address"
        },
        {
          "internalType": "address",
          "name": "from",
          "type": "address"
        },
        {
          "internalType": "uint256",
          "name": "id",
          "type": "uint256"
        },
        {
          "internalType": "uint256",
          "name": "value",
          "type": "uint256"
        },
        {
          "internalType": "bytes",
          "name": "data",
          "type": "bytes"
        }
      ],
      "name": "onERC1155Received",
      "outputs": [
        {
          "internalType": "bytes4",
          "name": "",
          "type": "bytes4"
        }
      ],
      "stateMutability": "nonpayable",
      "type": "function"
    },
    {
      "inputs": [
        {
          "components": [
            {
              "internalType": "uint256",
              "name": "round",
              "type": "uint256"
            },
            {
              "components": [
                {
                  "internalType": "address",
                  "name": "tokenAddress",
                  "type": "address"
                },
                {
                  "internalType": "uint256",
                  "name": "amount",
                  "type": "uint256"
                }
              ],
              "internalType": "struct AtlanteanTrove.RewardERC20[]",
              "name": "erc20Rewards",
              "type": "tuple[]"
            },
            {
              "internalType": "uint256[]",
              "name": "erc20Amounts",
              "type": "uint256[]"
            },
            {
              "components": [
                {
                  "internalType": "address",
                  "name": "tokenAddress",
                  "type": "address"
                },
                {
                  "internalType": "uint256[]",
                  "name": "tokenIds",
                  "type": "uint256[]"
                },
                {
                  "internalType": "uint256",
                  "name": "index",
                  "type": "uint256"
                }
              ],
              "internalType": "struct AtlanteanTrove.RewardERC721[]",
              "name": "erc721Rewards",
              "type": "tuple[]"
            },
            {
              "internalType": "uint256[]",
              "name": "erc721Amounts",
              "type": "uint256[]"
            },
            {
              "components": [
                {
                  "internalType": "address",
                  "name": "tokenAddress",
                  "type": "address"
                },
                {
                  "internalType": "uint256[]",
                  "name": "tokenIds",
                  "type": "uint256[]"
                },
                {
                  "internalType": "uint256[]",
                  "name": "amounts",
                  "type": "uint256[]"
                }
              ],
              "internalType": "struct AtlanteanTrove.RewardERC1155[]",
              "name": "erc1155Rewards",
              "type": "tuple[]"
            },
            {
              "internalType": "uint256[][]",
              "name": "erc1155Amounts",
              "type": "uint256[][]"
            }
          ],
          "internalType": "struct AtlanteanTrove.RewardData",
          "name": "data",
          "type": "tuple"
        }
      ],
      "name": "removeRewards",
      "outputs": [],
      "stateMutability": "nonpayable",
      "type": "function"
    },
    {
      "inputs": [
        {
          "internalType": "uint256",
          "name": "",
          "type": "uint256"
        }
      ],
      "name": "roundTime",
      "outputs": [
        {
          "internalType": "uint256",
          "name": "startTime",
          "type": "uint256"
        },
        {
          "internalType": "uint256",
          "name": "expiryTimestamp",
          "type": "uint256"
        }
      ],
      "stateMutability": "view",
      "type": "function"
    },
    {
      "inputs": [
        {
          "internalType": "address",
          "name": "_admin",
          "type": "address"
        }
      ],
      "name": "setAdmin",
      "outputs": [],
      "stateMutability": "nonpayable",
      "type": "function"
    },
    {
      "inputs": [
        {
          "internalType": "address",
          "name": "_controller",
          "type": "address"
        }
      ],
      "name": "setController",
      "outputs": [],
      "stateMutability": "nonpayable",
      "type": "function"
    },
    {
      "inputs": [
        {
          "internalType": "uint256",
          "name": "_round",
          "type": "uint256"
        },
        {
          "internalType": "uint256",
          "name": "expiryTimestamp",
          "type": "uint256"
        }
      ],
      "name": "setRoundExpiry",
      "outputs": [],
      "stateMutability": "nonpayable",
      "type": "function"
    },
    {
      "inputs": [
        {
          "internalType": "address",
          "name": "_whitelistSignerAddress",
          "type": "address"
        }
      ],
      "name": "setWhitelistSignerAddress",
      "outputs": [],
      "stateMutability": "nonpayable",
      "type": "function"
    },
    {
      "inputs": [
        {
          "internalType": "uint256",
          "name": "startTime",
          "type": "uint256"
        },
        {
          "internalType": "uint256",
          "name": "expiryTimestamp",
          "type": "uint256"
        }
      ],
      "name": "startNewRound",
      "outputs": [],
      "stateMutability": "nonpayable",
      "type": "function"
    },
    {
      "inputs": [
        {
          "internalType": "bytes4",
          "name": "interfaceId",
          "type": "bytes4"
        }
      ],
      "name": "supportsInterface",
      "outputs": [
        {
          "internalType": "bool",
          "name": "",
          "type": "bool"
        }
      ],
      "stateMutability": "view",
      "type": "function"
    },
    {
      "inputs": [
        {
          "components": [
            {
              "internalType": "uint256",
              "name": "round",
              "type": "uint256"
            },
            {
              "components": [
                {
                  "internalType": "address",
                  "name": "tokenAddress",
                  "type": "address"
                },
                {
                  "internalType": "uint256",
                  "name": "amount",
                  "type": "uint256"
                }
              ],
              "internalType": "struct AtlanteanTrove.RewardERC20[]",
              "name": "erc20Rewards",
              "type": "tuple[]"
            },
            {
              "internalType": "uint256[]",
              "name": "erc20Amounts",
              "type": "uint256[]"
            },
            {
              "components": [
                {
                  "internalType": "address",
                  "name": "tokenAddress",
                  "type": "address"
                },
                {
                  "internalType": "uint256[]",
                  "name": "tokenIds",
                  "type": "uint256[]"
                },
                {
                  "internalType": "uint256",
                  "name": "index",
                  "type": "uint256"
                }
              ],
              "internalType": "struct AtlanteanTrove.RewardERC721[]",
              "name": "erc721Rewards",
              "type": "tuple[]"
            },
            {
              "internalType": "uint256[]",
              "name": "erc721Amounts",
              "type": "uint256[]"
            },
            {
              "components": [
                {
                  "internalType": "address",
                  "name": "tokenAddress",
                  "type": "address"
                },
                {
                  "internalType": "uint256[]",
                  "name": "tokenIds",
                  "type": "uint256[]"
                },
                {
                  "internalType": "uint256[]",
                  "name": "amounts",
                  "type": "uint256[]"
                }
              ],
              "internalType": "struct AtlanteanTrove.RewardERC1155[]",
              "name": "erc1155Rewards",
              "type": "tuple[]"
            },
            {
              "internalType": "uint256[][]",
              "name": "erc1155Amounts",
              "type": "uint256[][]"
            }
          ],
          "internalType": "struct AtlanteanTrove.RewardData",
          "name": "data",
          "type": "tuple"
        }
      ],
      "name": "topUpRewards",
      "outputs": [],
      "stateMutability": "nonpayable",
      "type": "function"
    },
    {
      "inputs": [
        {
          "internalType": "address",
          "name": "sender",
          "type": "address"
        },
        {
          "internalType": "uint256",
          "name": "_round",
          "type": "uint256"
        },
        {
          "internalType": "bytes",
          "name": "nonce",
          "type": "bytes"
        },
        {
          "internalType": "bytes",
          "name": "signature",
          "type": "bytes"
        }
      ],
      "name": "whitelistSigned",
      "outputs": [
        {
          "internalType": "bool",
          "name": "",
          "type": "bool"
        }
      ],
      "stateMutability": "view",
      "type": "function"
    },
    {
      "inputs": [],
      "name": "whitelistSignerAddress",
      "outputs": [
        {
          "internalType": "address",
          "name": "",
          "type": "address"
        }
      ],
      "stateMutability": "view",
      "type": "function"
    }
  ],
  "transactionHash": "0x20eb627a2d87f3691a21c59ad925eb87aca6fd81f7d70391b5ad9f6775bdb36f",
  "args": [
    "0x2FB1C26ec1FBC25d65E415b8CD07e07d5d20dcFc",
    "0x6a952f966c5dcc36a094c8ab141f027fb58f864e"
  ],
  "numDeployments": 2,
  "solcInputHash": "a33e955b73eabbe74155fec92669999e",
  "bytecode": "0x608060405260006005553480156200001657600080fd5b506040516200492238038062004922833981016040819052620000399162000098565b6001600055600680546001600160a01b03199081163317909155600780546001600160a01b0394851690831617905560088054929093169116179055620000d0565b80516001600160a01b03811681146200009357600080fd5b919050565b60008060408385031215620000ac57600080fd5b620000b7836200007b565b9150620000c7602084016200007b565b90509250929050565b61484280620000e06000396000f3fe608060405234801561001057600080fd5b506004361061012c5760003560e01c806392eefe9b116100ad578063f23a6e6111610071578063f23a6e61146102e9578063f504764d14610309578063f77c47911461031c578063f851a4401461032f578063fd56981a1461034257600080fd5b806392eefe9b14610262578063bc197c8114610275578063bd9c62b8146102b0578063d7f8d847146102c3578063db51fae3146102d657600080fd5b8063501c6e4f116100f4578063501c6e4f146101e557806353a4554614610205578063704b6c02146102185780638a19c8bc1461022b57806391e2057e1461024257600080fd5b806301ffc9a714610131578063040ae2591461015957806307c7a72d1461016e57806324fccf25146101a757806336116989146101d2575b600080fd5b61014461013f366004613709565b61037e565b60405190151581526020015b60405180910390f35b61016c61016736600461373a565b6103b5565b005b61014461017c366004613771565b60009182526001602090815260408084206001600160a01b0393909316845291905290205460ff1690565b6008546101ba906001600160a01b031681565b6040516001600160a01b039091168152602001610150565b61016c6101e03660046137a1565b6104d0565b6101f86101f33660046137db565b610c65565b604051610150919061395c565b610144610213366004613a11565b610e53565b61016c610226366004613a90565b610f06565b61023460055481565b604051908152602001610150565b6102556102503660046137db565b610f7e565b6040516101509190613b79565b61016c610270366004613a90565b611208565b610297610283366004613d0e565b63bc197c8160e01b98975050505050505050565b6040516001600160e01b03199091168152602001610150565b61016c6102be36600461373a565b611280565b61016c6102d1366004613dcc565b611314565b61016c6102e43660046137a1565b611fc6565b6102976102f7366004613e38565b63f23a6e6160e01b9695505050505050565b61016c610317366004613a90565b612083565b6007546101ba906001600160a01b031681565b6006546101ba906001600160a01b031681565b6103696103503660046137db565b6002602052600090815260409020805460019091015482565b60408051928352602083019190915201610150565b60006001600160e01b03198216630271189760e51b14806103af57506001600160e01b031982166301ffc9a760e01b145b92915050565b6007546001600160a01b031633146104245760405162461bcd60e51b815260206004820152602760248201527f4f6e6c7920636f6e74726f6c6c65722063616e2063616c6c20746869732066756044820152663731ba34b7b71760c91b60648201526084015b60405180910390fd5b4281116104435760405162461bcd60e51b815260040161041b90613eb3565b6005805490600061045383613f0c565b9091555050604080518082018252838152602080820184815260058054600090815260028452859020935184559051600190930192909255905482519081529081018490529081018290527f6335d9a954a31d127d43737ee99cf9c5b5f5b0c4c813c136886bef6217092e51906060015b60405180910390a15050565b6006546001600160a01b031633146104fa5760405162461bcd60e51b815260040161041b90613f25565b60055481350361055d5760405162461bcd60e51b815260206004820152602860248201527f43616e6e6f74206d6f64696679207265776172647320666f72206f6e676f696e60448201526733903937bab7321760c11b606482015260840161041b565b8035600090815260036020526040902054156106c85760005b813560009081526003602052604090205481101561068a5760065461060e906001600160a01b03166105ab6040850185613f67565b848181106105bb576105bb613fb0565b90506020020135600360008660000135815260200190815260200160002060000184815481106105ed576105ed613fb0565b60009182526020909120600290910201546001600160a01b031691906120fb565b61061b6040830183613f67565b8281811061062b5761062b613fb0565b905060200201356004600084600001358152602001908152602001600020600001828154811061065d5761065d613fb0565b9060005260206000209060020201600101600082825461067d9190613fc6565b9091555050600101610576565b50600554813511156106c857803560009081526003602052604081206106af9161354f565b803560009081526004602052604081206106c89161354f565b8035600090815260036020526040902060010154156109645760005b813560009081526003602052604090206001015481101561091a578135600090815260036020526040812060010180548390811061072457610724613fb0565b906000526020600020906003020160020154905060005b8335600090815260036020526040902060010180548490811061076057610760613fb0565b9060005260206000209060030201600201546003600086600001358152602001908152602001600020600101848154811061079d5761079d613fb0565b9060005260206000209060030201600101805490506107bc9190613fc6565b81101561091057833560009081526003602052604090206001018054849081106107e8576107e8613fb0565b60009182526020808320600392830201546006548835855292909152604090922060010180546001600160a01b03938416936342842e0e9330939116918890811061083557610835613fb0565b9060005260206000209060030201600101868154811061085757610857613fb0565b90600052602060002001546040518463ffffffff1660e01b815260040161088093929190613fd9565b600060405180830381600087803b15801561089a57600080fd5b505af11580156108ae573d6000803e3d6000fd5b505050506001600460008660000135815260200190815260200160002060010184815481106108df576108df613fb0565b906000526020600020906002020160010160008282546108ff9190613fc6565b90915550506001918201910161073b565b50506001016106e4565b5060055481351115610964578035600090815260036020526040812061094591600190910190613570565b803560009081526004602052604081206109649160019091019061354f565b803560009081526003602052604090206002015415610c275760005b8135600090815260036020526040902060020154811015610c255760005b823560009081526003602052604090206002018054839081106109c3576109c3613fb0565b906000526020600020906003020160010180549050811015610bd05782356000908152600360205260409020600201805483908110610a0457610a04613fb0565b60009182526020808320600392830201546006548735855292909152604090922060020180546001600160a01b039384169363f242432a93309391169187908110610a5157610a51613fb0565b90600052602060002090600302016001018581548110610a7357610a73613fb0565b600091825260209091200154610a8c60c0890189613f67565b88818110610a9c57610a9c613fb0565b9050602002810190610aae9190613f67565b87818110610abe57610abe613fb0565b905060200201356040518563ffffffff1660e01b8152600401610ae49493929190613ffd565b600060405180830381600087803b158015610afe57600080fd5b505af1158015610b12573d6000803e3d6000fd5b50610b249250505060c0840184613f67565b83818110610b3457610b34613fb0565b9050602002810190610b469190613f67565b82818110610b5657610b56613fb0565b9050602002013560046000856000013581526020019081526020016000206002018381548110610b8857610b88613fb0565b906000526020600020018281548110610ba357610ba3613fb0565b90600052602060002090600302016002016000828254610bc39190613fc6565b909155505060010161099e565b5060055460019091019082351115610c205781356000908152600360205260408120610c0191600290910190613591565b81356000908152600460205260408120610c20916002909101906135b2565b610980565b505b6040517ff665bccf3fa0d23a55c77a157157f756295e189977065e4ef7f57c72d77208d790610c5a9083359084906142da565b60405180910390a150565b610c8960405180606001604052806060815260200160608152602001606081525090565b60008281526004602090815260408083208151815460809481028201850190935260608101838152909491938593919285929185015b82821015610d07576000848152602090819020604080518082019091526002850290910180546001600160a01b03168252600190810154828401529083529092019101610cbf565b50505050815260200160018201805480602002602001604051908101604052809291908181526020016000905b82821015610d7c576000848152602090819020604080518082019091526002850290910180546001600160a01b03168252600190810154828401529083529092019101610d34565b50505050815260200160028201805480602002602001604051908101604052809291908181526020016000905b82821015610e4557838290600052602060002001805480602002602001604051908101604052809291908181526020016000905b82821015610e32576000848152602090819020604080516060810182526003860290920180546001600160a01b0316835260018082015484860152600290910154918301919091529083529092019101610ddd565b5050505081526020019060010190610da9565b505050915250909392505050565b600080858486604051602001610e6b939291906143fe565b60408051601f1981840301815282825280516020918201208383018352601c84527f19457468657265756d205369676e6564204d6573736167653a0a333200000000848301529151919350610ec491839185910161443d565b60408051601f1981840301815291905280516020909101209150610ee8828561215e565b6008546001600160a01b03908116911614925050505b949350505050565b6006546001600160a01b03163314610f305760405162461bcd60e51b815260040161041b90613f25565b600680546001600160a01b0319166001600160a01b0383169081179091556040519081527f5a272403b402d892977df56625f4164ccaf70ca3863991c43ecfe76a6905b0a190602001610c5a565b610fa260405180606001604052806060815260200160608152602001606081525090565b60008281526003602090815260408083208151815460809481028201850190935260608101838152909491938593919285929185015b82821015611020576000848152602090819020604080518082019091526002850290910180546001600160a01b03168252600190810154828401529083529092019101610fd8565b50505050815260200160018201805480602002602001604051908101604052809291908181526020016000905b828210156110ed576000848152602090819020604080516060810182526003860290920180546001600160a01b031683526001810180548351818702810187019094528084529394919385830193928301828280156110cb57602002820191906000526020600020905b8154815260200190600101908083116110b7575b505050505081526020016002820154815250508152602001906001019061104d565b50505050815260200160028201805480602002602001604051908101604052809291908181526020016000905b82821015610e45576000848152602090819020604080516060810182526003860290920180546001600160a01b0316835260018101805483518187028101870190945280845293949193858301939283018282801561119857602002820191906000526020600020905b815481526020019060010190808311611184575b50505050508152602001600282018054806020026020016040519081016040528092919081815260200182805480156111f057602002820191906000526020600020905b8154815260200190600101908083116111dc575b5050505050815250508152602001906001019061111a565b6006546001600160a01b031633146112325760405162461bcd60e51b815260040161041b90613f25565b600780546001600160a01b0319166001600160a01b0383169081179091556040519081527f4ff638452bbf33c012645d18ae6f05515ff5f2d1dfb0cece8cbf018c60903f7090602001610c5a565b6006546001600160a01b031633146112aa5760405162461bcd60e51b815260040161041b90613f25565b4281116112c95760405162461bcd60e51b815260040161041b90613eb3565b60008281526002602090815260409182902060010183905581518481529081018390527fc9123c2e200f7f5152a8adda78477d9cd7a4602d8fcad7787bc36e6b8669b64791016104c4565b61131c612182565b61132833848484610e53565b6113695760405162461bcd60e51b8152602060048201526012602482015271496e76616c6964205369676e61747572652160701b604482015260640161041b565b600083815260016020908152604080832033845290915290205460ff16156113dd5760405162461bcd60e51b815260206004820152602160248201527f557365722068617320616c726561647920636c61696d656420726577617264736044820152601760f91b606482015260840161041b565b6000838152600260205260409020600101544211156114335760405162461bcd60e51b81526020600482015260126024820152712937bab732103430b99032bc3834b932b21760711b604482015260640161041b565b60008381526002602052604090205442101561148a5760405162461bcd60e51b81526020600482015260166024820152752937bab732103430b9903737ba1039ba30b93a32b21760511b604482015260640161041b565b60008381526001602081815260408084203385528252808420805460ff19169093179092558151606080820184528082528183018190528184015286845260039091529120546001600160401b038111156114e7576114e761396f565b60405190808252806020026020018201604052801561152c57816020015b60408051808201909152600080825260208201528152602001906001900390816115055790505b5081526000848152600360205260409020600101546001600160401b038111156115585761155861396f565b60405190808252806020026020018201604052801561159d57816020015b60408051808201909152600080825260208201528152602001906001900390816115765790505b506020808301919091526000858152600390915260409020600201546001600160401b038111156115d0576115d061396f565b60405190808252806020026020018201604052801561160357816020015b60608152602001906001900390816115ee5790505b50604080830191909152600085815260036020522054156117e65760005b6000858152600360205260409020548110156117e457600085815260036020526040902080548290811061165757611657613fb0565b90600052602060002090600202016001015460046000878152602001908152602001600020600001828154811061169057611690613fb0565b906000526020600020906002020160010160008282546116b09190613fc6565b909155505060008581526003602052604090208054829081106116d5576116d5613fb0565b6000918252602090912060029091020154825180516001600160a01b03909216918390811061170657611706613fb0565b6020908102919091018101516001600160a01b03909216909152600086815260039091526040902080548290811061174057611740613fb0565b9060005260206000209060020201600101548260000151828151811061176857611768613fb0565b602002602001015160200181815250506117dc336003600088815260200190815260200160002060000183815481106117a3576117a3613fb0565b9060005260206000209060020201600101546003600089815260200190815260200160002060000184815481106105ed576105ed613fb0565b600101611621565b505b60008481526003602052604090206001015415611a745760005b600085815260036020526040902060010154811015611a72576000858152600460205260409020600190810180548390811061183e5761183e613fb0565b9060005260206000209060020201600101600082825461185e9190613fc6565b9091555050600085815260036020526040902060010180548290811061188657611886613fb0565b6000918252602091829020600390910201549083015180516001600160a01b0390921691839081106118ba576118ba613fb0565b6020026020010151600001906001600160a01b031690816001600160a01b0316815250506001826020015182815181106118f6576118f6613fb0565b6020026020010151602001818152505060036000868152602001908152602001600020600101818154811061192d5761192d613fb0565b6000918252602080832060039283020154888452919052604090912060010180546001600160a01b03909216916342842e0e9130913391908690811061197557611975613fb0565b9060005260206000209060030201600101600360008b815260200190815260200160002060010186815481106119ad576119ad613fb0565b906000526020600020906003020160020154815481106119cf576119cf613fb0565b90600052602060002001546040518463ffffffff1660e01b81526004016119f893929190613fd9565b600060405180830381600087803b158015611a1257600080fd5b505af1158015611a26573d6000803e3d6000fd5b5050506000868152600360205260409020600101805490915082908110611a4f57611a4f613fb0565b600091825260209091206002600390920201018054600190810190915501611800565b505b60008481526003602052604090206002015415611f735760005b600085815260036020526040902060020154811015611f71576000858152600360205260409020600201805482908110611aca57611aca613fb0565b9060005260206000209060030201600101805490506001600160401b03811115611af657611af661396f565b604051908082528060200260200182016040528015611b5457816020015b611b41604051806060016040528060006001600160a01b0316815260200160008152602001600081525090565b815260200190600190039081611b145790505b5082604001518281518110611b6b57611b6b613fb0565b602002602001018190525060005b6000868152600360205260409020600201805483908110611b9c57611b9c613fb0565b906000526020600020906003020160010180549050811015611f68576000868152600360205260409020600201805483908110611bdb57611bdb613fb0565b90600052602060002090600302016002018181548110611bfd57611bfd613fb0565b9060005260206000200154600460008881526020019081526020016000206002018381548110611c2f57611c2f613fb0565b906000526020600020018281548110611c4a57611c4a613fb0565b90600052602060002090600302016002016000828254611c6a9190613fc6565b90915550506000868152600360205260409020600201805483908110611c9257611c92613fb0565b6000918252602090912060039091020154604084015180516001600160a01b039092169184908110611cc657611cc6613fb0565b60200260200101518281518110611cdf57611cdf613fb0565b6020908102919091018101516001600160a01b039092169091526000878152600390915260409020600201805483908110611d1c57611d1c613fb0565b90600052602060002090600302016001018181548110611d3e57611d3e613fb0565b906000526020600020015483604001518381518110611d5f57611d5f613fb0565b60200260200101518281518110611d7857611d78613fb0565b60200260200101516020018181525050600360008781526020019081526020016000206002018281548110611daf57611daf613fb0565b90600052602060002090600302016002018181548110611dd157611dd1613fb0565b906000526020600020015483604001518381518110611df257611df2613fb0565b60200260200101518281518110611e0b57611e0b613fb0565b60200260200101516040018181525050600360008781526020019081526020016000206002018281548110611e4257611e42613fb0565b6000918252602080832060039283020154898452919052604090912060020180546001600160a01b039092169163f242432a91309133919087908110611e8a57611e8a613fb0565b90600052602060002090600302016001018581548110611eac57611eac613fb0565b9060005260206000200154600360008c81526020019081526020016000206002018781548110611ede57611ede613fb0565b90600052602060002090600302016002018681548110611f0057611f00613fb0565b90600052602060002001546040518563ffffffff1660e01b8152600401611f2a9493929190613ffd565b600060405180830381600087803b158015611f4457600080fd5b505af1158015611f58573d6000803e3d6000fd5b505060019092019150611b799050565b50600101611a8e565b505b336001600160a01b03167f50d77aff18471f02a90108d0890292b485cc931a52bac94c1e33b7eb525e25168583604051611fae92919061445f565b60405180910390a250611fc16001600055565b505050565b6006546001600160a01b03163314611ff05760405162461bcd60e51b815260040161041b90613f25565b6000611fff6020830183614478565b9050111561201057612010816121db565b600061201f6060830183613f67565b905011156120305761203081612508565b600061203f60a0830183613f67565b905011156120505761205081612a2e565b6040517fa2675b8041bce0f157b89f1833dd1c4013ac88fb7d72abd5eee91093fb04ca1790610c5a9083359084906142da565b6006546001600160a01b031633146120ad5760405162461bcd60e51b815260040161041b90613f25565b600880546001600160a01b0319166001600160a01b0383169081179091556040519081527fd69451aace2c16163f3a93c8c3b48e4ae1bdece685316d298c640955c14e1b4090602001610c5a565b6040516001600160a01b038316602482015260448101829052611fc190849063a9059cbb60e01b906064015b60408051601f198184030181529190526020810180516001600160e01b03166001600160e01b031990931692909217909152613078565b600080600061216d858561314a565b9150915061217a8161318f565b509392505050565b6002600054036121d45760405162461bcd60e51b815260206004820152601f60248201527f5265656e7472616e637947756172643a207265656e7472616e742063616c6c00604482015260640161041b565b6002600055565b803560009081526003602052604081205490036123435760005b6122026020830183614478565b905081101561233d57813560009081526003602090815260409091209061222b90840184614478565b8381811061223b5761223b613fb0565b83546001810185556000948552602090942060409091029290920192600202909101905061226982826144e1565b5050813560009081526004602090815260409182902082518084019093529190819061229790860186614478565b858181106122a7576122a7613fb0565b6122bd9260206040909202019081019150613a90565b6001600160a01b031681526020016122d86040860186613f67565b858181106122e8576122e8613fb0565b60209081029290920135909252835460018082018655600095865294829020845160029092020180546001600160a01b0319166001600160a01b039092169190911781559201519183019190915550016121f5565b50612473565b60005b6123536020830183614478565b9050811015612471576123696020830183614478565b8281811061237957612379613fb0565b61238f9260206040909202019081019150613a90565b8235600090815260036020526040902080546001600160a01b039290921691839081106123be576123be613fb0565b60009182526020909120600290910201546001600160a01b0316146123f55760405162461bcd60e51b815260040161041b90614505565b6124026040830183613f67565b8281811061241257612412613fb0565b905060200201356004600084600001358152602001908152602001600020600001828154811061244457612444613fb0565b90600052602060002090600202016001016000828254612464919061453a565b9091555050600101612346565b505b60005b6124836020830183614478565b9050811015612504576124fc333061249e6040860186613f67565b858181106124ae576124ae613fb0565b905060200201358580602001906124c59190614478565b868181106124d5576124d5613fb0565b6124eb9260206040909202019081019150613a90565b6001600160a01b03169291906132dc565b600101612476565b5050565b803560009081526003602052604081206001015490036126835760005b6125326060830183613f67565b905081101561267d578135600090815260036020526040902060010161255b6060840184613f67565b8381811061256b5761256b613fb0565b905060200281019061257d919061454d565b81546001810183556000928352602090922090916003020161259f8282614600565b5050813560009081526004602052604090819020815180830190925260010190806125cd6060860186613f67565b858181106125dd576125dd613fb0565b90506020028101906125ef919061454d565b6125fd906020810190613a90565b6001600160a01b031681526020016126186080860186613f67565b8581811061262857612628613fb0565b60209081029290920135909252835460018082018655600095865294829020845160029092020180546001600160a01b0319166001600160a01b03909216919091178155920151918301919091555001612525565b506128c6565b60005b6126936060830183613f67565b90508110156128c4576126a96060830183613f67565b828181106126b9576126b9613fb0565b90506020028101906126cb919061454d565b6126d9906020810190613a90565b6001600160a01b03166003600084600001358152602001908152602001600020600101828154811061270d5761270d613fb0565b60009182526020909120600390910201546001600160a01b0316146127445760405162461bcd60e51b815260040161041b90614505565b60005b6127546060840184613f67565b8381811061276457612764613fb0565b9050602002810190612776919061454d565b612784906020810190613f67565b905081101561284757823560009081526003602052604090206001018054839081106127b2576127b2613fb0565b90600052602060002090600302016001018380606001906127d39190613f67565b848181106127e3576127e3613fb0565b90506020028101906127f5919061454d565b612803906020810190613f67565b8381811061281357612813613fb0565b835460018101855560009485526020948590209190940292909201359190920155508061283f81613f0c565b915050612747565b506128556080830183613f67565b8281811061286557612865613fb0565b905060200201356004600084600001358152602001908152602001600020600101828154811061289757612897613fb0565b906000526020600020906002020160010160008282546128b7919061453a565b9091555050600101612686565b505b60005b6128d66060830183613f67565b90508110156125045760005b6128ef6060840184613f67565b838181106128ff576128ff613fb0565b9050602002810190612911919061454d565b61291f906020810190613f67565b9050811015612a25576129356060840184613f67565b8381811061294557612945613fb0565b9050602002810190612957919061454d565b612965906020810190613a90565b6001600160a01b03166342842e0e33306129826060880188613f67565b8781811061299257612992613fb0565b90506020028101906129a4919061454d565b6129b2906020810190613f67565b868181106129c2576129c2613fb0565b905060200201356040518463ffffffff1660e01b81526004016129e793929190613fd9565b600060405180830381600087803b158015612a0157600080fd5b505af1158015612a15573d6000803e3d6000fd5b5050600190920191506128e29050565b506001016128c9565b80356000908152600360205260408120600201549003612cd25760005b612a5860a0830183613f67565b9050811015612ccc5781356000908152600360205260409020600201612a8160a0840184613f67565b83818110612a9157612a91613fb0565b9050602002810190612aa3919061454d565b815460018101835560009283526020909220909160030201612ac582826146c1565b5050813560009081526004602052604081206002018054600101815581525b612af160a0840184613f67565b83818110612b0157612b01613fb0565b9050602002810190612b13919061454d565b612b21906020810190613f67565b9050811015612cb95782356000908152600460205260409020600201805483908110612b4f57612b4f613fb0565b906000526020600020016040518060600160405280858060a00190612b749190613f67565b86818110612b8457612b84613fb0565b9050602002810190612b96919061454d565b612ba4906020810190613a90565b6001600160a01b03168152602001612bbf60a0870187613f67565b86818110612bcf57612bcf613fb0565b9050602002810190612be1919061454d565b612bef906020810190613f67565b85818110612bff57612bff613fb0565b905060200201358152602001858060c00190612c1b9190613f67565b86818110612c2b57612c2b613fb0565b9050602002810190612c3d9190613f67565b85818110612c4d57612c4d613fb0565b60209081029290920135909252835460018082018655600095865294829020845160039092020180546001600160a01b0319166001600160a01b039092169190911781559083015193810193909355506040015160029091015580612cb181613f0c565b915050612ae4565b5080612cc481613f0c565b915050612a4b565b50612eb5565b60005b612ce260a0830183613f67565b9050811015612eb35760005b612cfb60a0840184613f67565b83818110612d0b57612d0b613fb0565b9050602002810190612d1d919061454d565b612d2b906020810190613f67565b9050811015612ea057612d4160a0840184613f67565b83818110612d5157612d51613fb0565b9050602002810190612d63919061454d565b612d71906020810190613a90565b6001600160a01b031660036000856000013581526020019081526020016000206002018381548110612da557612da5613fb0565b60009182526020909120600390910201546001600160a01b031614612ddc5760405162461bcd60e51b815260040161041b90614505565b612de960c0840184613f67565b83818110612df957612df9613fb0565b9050602002810190612e0b9190613f67565b82818110612e1b57612e1b613fb0565b9050602002013560046000856000013581526020019081526020016000206002018381548110612e4d57612e4d613fb0565b906000526020600020018281548110612e6857612e68613fb0565b90600052602060002090600302016002016000828254612e88919061453a565b90915550819050612e9881613f0c565b915050612cee565b5080612eab81613f0c565b915050612cd5565b505b60005b612ec560a0830183613f67565b90508110156125045760005b612ede60a0840184613f67565b83818110612eee57612eee613fb0565b9050602002810190612f00919061454d565b612f0e906020810190613f67565b905081101561306557612f2460a0840184613f67565b83818110612f3457612f34613fb0565b9050602002810190612f46919061454d565b612f54906020810190613a90565b6001600160a01b031663f242432a3330612f7160a0880188613f67565b87818110612f8157612f81613fb0565b9050602002810190612f93919061454d565b612fa1906020810190613f67565b86818110612fb157612fb1613fb0565b90506020020135878060c00190612fc89190613f67565b88818110612fd857612fd8613fb0565b9050602002810190612fea9190613f67565b87818110612ffa57612ffa613fb0565b905060200201356040518563ffffffff1660e01b81526004016130209493929190613ffd565b600060405180830381600087803b15801561303a57600080fd5b505af115801561304e573d6000803e3d6000fd5b50505050808061305d90613f0c565b915050612ed1565b508061307081613f0c565b915050612eb8565b60006130cd826040518060400160405280602081526020017f5361666545524332303a206c6f772d6c6576656c2063616c6c206661696c6564815250856001600160a01b03166133039092919063ffffffff16565b805190915015611fc157808060200190518101906130eb919061478f565b611fc15760405162461bcd60e51b815260206004820152602a60248201527f5361666545524332303a204552433230206f7065726174696f6e20646964206e6044820152691bdd081cdd58d8d9595960b21b606482015260840161041b565b60008082516041036131805760208301516040840151606085015160001a61317487828585613312565b94509450505050613188565b506000905060025b9250929050565b60008160048111156131a3576131a36147b1565b036131ab5750565b60018160048111156131bf576131bf6147b1565b0361320c5760405162461bcd60e51b815260206004820152601860248201527f45434453413a20696e76616c6964207369676e61747572650000000000000000604482015260640161041b565b6002816004811115613220576132206147b1565b0361326d5760405162461bcd60e51b815260206004820152601f60248201527f45434453413a20696e76616c6964207369676e6174757265206c656e67746800604482015260640161041b565b6003816004811115613281576132816147b1565b036132d95760405162461bcd60e51b815260206004820152602260248201527f45434453413a20696e76616c6964207369676e6174757265202773272076616c604482015261756560f01b606482015260840161041b565b50565b6132fd846323b872dd60e01b85858560405160240161212793929190613fd9565b50505050565b6060610efe84846000856133d6565b6000807f7fffffffffffffffffffffffffffffff5d576e7357a4501ddfe92f46681b20a083111561334957506000905060036133cd565b6040805160008082526020820180845289905260ff881692820192909252606081018690526080810185905260019060a0016020604051602081039080840390855afa15801561339d573d6000803e3d6000fd5b5050604051601f1901519150506001600160a01b0381166133c6576000600192509250506133cd565b9150600090505b94509492505050565b6060824710156134375760405162461bcd60e51b815260206004820152602660248201527f416464726573733a20696e73756666696369656e742062616c616e636520666f6044820152651c8818d85b1b60d21b606482015260840161041b565b600080866001600160a01b0316858760405161345391906147c7565b60006040518083038185875af1925050503d8060008114613490576040519150601f19603f3d011682016040523d82523d6000602084013e613495565b606091505b50915091506134a6878383876134b1565b979650505050505050565b60608315613520578251600003613519576001600160a01b0385163b6135195760405162461bcd60e51b815260206004820152601d60248201527f416464726573733a2063616c6c20746f206e6f6e2d636f6e7472616374000000604482015260640161041b565b5081610efe565b610efe83838151156135355781518083602001fd5b8060405162461bcd60e51b815260040161041b91906147d9565b50805460008255600202906000526020600020908101906132d991906135d0565b50805460008255600302906000526020600020908101906132d991906135fa565b50805460008255600302906000526020600020908101906132d9919061362f565b50805460008255906000526020600020908101906132d9919061366b565b5b808211156135f65780546001600160a01b0319168155600060018201556002016135d1565b5090565b808211156135f65780546001600160a01b0319168155600061361f6001830182613688565b50600060028201556003016135fa565b808211156135f65780546001600160a01b031916815560006136546001830182613688565b613662600283016000613688565b5060030161362f565b808211156135f657600061367f82826136a6565b5060010161366b565b50805460008255906000526020600020908101906132d991906136c7565b50805460008255600302906000526020600020908101906132d991906136dc565b5b808211156135f657600081556001016136c8565b5b808211156135f65780546001600160a01b031916815560006001820181905560028201556003016136dd565b60006020828403121561371b57600080fd5b81356001600160e01b03198116811461373357600080fd5b9392505050565b6000806040838503121561374d57600080fd5b50508035926020909101359150565b6001600160a01b03811681146132d957600080fd5b6000806040838503121561378457600080fd5b8235915060208301356137968161375c565b809150509250929050565b6000602082840312156137b357600080fd5b81356001600160401b038111156137c957600080fd5b820160e0818503121561373357600080fd5b6000602082840312156137ed57600080fd5b5035919050565b600081518084526020808501808196508360051b810191508286016000805b86811015613881578385038a52825180518087529087019087870190845b8181101561386c57835180516001600160a01b031684528a8101518b8501526040908101519084015292890192606090920191600101613831565b50509a87019a95505091850191600101613813565b509298975050505050505050565b805160608084528151908401819052600091602091908201906080860190845b818110156138e8576138d583855180516001600160a01b03168252602090810151910152565b92840192604092909201916001016138af565b50508483015186820387850152805180835290840192506000918401905b808310156139425761392c82855180516001600160a01b03168252602090810151910152565b6040820191508484019350600183019250613906565b506040860151935086810360408801526134a681856137f4565b602081526000613733602083018461388f565b634e487b7160e01b600052604160045260246000fd5b600082601f83011261399657600080fd5b81356001600160401b03808211156139b0576139b061396f565b604051601f8301601f19908116603f011681019082821181831017156139d8576139d861396f565b816040528381528660208588010111156139f157600080fd5b836020870160208301376000602085830101528094505050505092915050565b60008060008060808587031215613a2757600080fd5b8435613a328161375c565b93506020850135925060408501356001600160401b0380821115613a5557600080fd5b613a6188838901613985565b93506060870135915080821115613a7757600080fd5b50613a8487828801613985565b91505092959194509250565b600060208284031215613aa257600080fd5b81356137338161375c565b600081518084526020808501945080840160005b83811015613add57815187529582019590820190600101613ac1565b509495945050505050565b600081518084526020808501808196508360051b8101915082860160005b85811015613b6c578284038952815180516001600160a01b0316855285810151606087870181905290613b3b82880182613aad565b91505060408083015192508682038188015250613b588183613aad565b9a87019a9550505090840190600101613b06565b5091979650505050505050565b60208082528251606083830181905281516080850181905260009392830191849160a08701905b80841015613bdc57613bc682865180516001600160a01b03168252602090810151910152565b6040820191508585019450600184019350613ba0565b50848801519350601f19925060408388830301818901528185518084528784019150878160051b850101888801975060005b82811015613c5f5785820388018452885180516001600160a01b031683528a8101518b8401899052613c4289850182613aad565b9187015193870193909352988a0198938a01939150600101613c0e565b50838c01519850868b820301868c0152613c79818a613ae8565b9c9b505050505050505050505050565b60008083601f840112613c9b57600080fd5b5081356001600160401b03811115613cb257600080fd5b6020830191508360208260051b850101111561318857600080fd5b60008083601f840112613cdf57600080fd5b5081356001600160401b03811115613cf657600080fd5b60208301915083602082850101111561318857600080fd5b60008060008060008060008060a0898b031215613d2a57600080fd5b8835613d358161375c565b97506020890135613d458161375c565b965060408901356001600160401b0380821115613d6157600080fd5b613d6d8c838d01613c89565b909850965060608b0135915080821115613d8657600080fd5b613d928c838d01613c89565b909650945060808b0135915080821115613dab57600080fd5b50613db88b828c01613ccd565b999c989b5096995094979396929594505050565b600080600060608486031215613de157600080fd5b8335925060208401356001600160401b0380821115613dff57600080fd5b613e0b87838801613985565b93506040860135915080821115613e2157600080fd5b50613e2e86828701613985565b9150509250925092565b60008060008060008060a08789031215613e5157600080fd5b8635613e5c8161375c565b95506020870135613e6c8161375c565b9450604087013593506060870135925060808701356001600160401b03811115613e9557600080fd5b613ea189828a01613ccd565b979a9699509497509295939492505050565b60208082526023908201527f4578706972792074696d657374616d70206d75737420626520696e206675747560408201526239329760e91b606082015260800190565b634e487b7160e01b600052601160045260246000fd5b600060018201613f1e57613f1e613ef6565b5060010190565b60208082526022908201527f4f6e6c792061646d696e2063616e2063616c6c20746869732066756e6374696f604082015261371760f11b606082015260800190565b6000808335601e19843603018112613f7e57600080fd5b8301803591506001600160401b03821115613f9857600080fd5b6020019150600581901b360382131561318857600080fd5b634e487b7160e01b600052603260045260246000fd5b818103818111156103af576103af613ef6565b6001600160a01b039384168152919092166020820152604081019190915260600190565b6001600160a01b0394851681529290931660208301526040820152606081019190915260a06080820181905260009082015260c00190565b6000808335601e1984360301811261404c57600080fd5b83016020810192503590506001600160401b0381111561406b57600080fd5b8060061b360382131561318857600080fd5b8183526000602080850194508260005b85811015613add5781356140a08161375c565b6001600160a01b0316875281830135838801526040968701969091019060010161408d565b6000808335601e198436030181126140dc57600080fd5b83016020810192503590506001600160401b038111156140fb57600080fd5b8060051b360382131561318857600080fd5b81835260006001600160fb1b0383111561412657600080fd5b8260051b80836020870137939093016020019392505050565b60008235605e1983360301811261415557600080fd5b90910192915050565b81835260006020808501808196508560051b810191508460005b87811015613b6c57828403895261418f828861413f565b6060813561419c8161375c565b6001600160a01b031686526141b3828801836140c5565b82898901526141c5838901828461410d565b6040948501359890940197909752505098850198935090840190600101614178565b81835260006020808501808196508560051b810191508460005b87811015613b6c578284038952614218828861413f565b606081356142258161375c565b6001600160a01b0316865261423c828801836140c5565b828989015261424e838901828461410d565b925050506040614260818401846140c5565b93508783038289015261427483858361410d565b9c89019c97505050928601925050600101614201565b81835260006020808501808196508560051b810191508460005b87811015613b6c5782840389526142bb82886140c5565b6142c686828461410d565b9a87019a95505050908401906001016142a4565b828152604060208201528135604082015260006142fa6020840184614035565b60e060608501526143106101208501828461407d565b91505061432060408501856140c5565b603f198086850301608087015261433884838561410d565b935061434760608801886140c5565b93509150808685030160a087015261436084848461415e565b935061436f60808801886140c5565b93509150808685030160c087015261438884848461410d565b935061439760a08801886140c5565b93509150808685030160e08701526143b08484846141e7565b93506143bf60c08801886140c5565b935091508086850301610100870152506134a683838361428a565b60005b838110156143f55781810151838201526020016143dd565b50506000910152565b6bffffffffffffffffffffffff198460601b168152600083516144288160148501602088016143da565b60149201918201929092526034019392505050565b6000835161444f8184602088016143da565b9190910191825250602001919050565b828152604060208201526000610efe604083018461388f565b6000808335601e1984360301811261448f57600080fd5b8301803591506001600160401b038211156144a957600080fd5b6020019150600681901b360382131561318857600080fd5b80546001600160a01b0319166001600160a01b0392909216919091179055565b81356144ec8161375c565b6144f681836144c1565b50602082013560018201555050565b6020808252818101527f546f6b656e20616464726573732063616e6e6f74206265206368616e6765642e604082015260600190565b808201808211156103af576103af613ef6565b60008235605e1983360301811261456357600080fd5b9190910192915050565b6001600160401b038311156145845761458461396f565b600160401b8311156145985761459861396f565b8054838255808410156145cf576000828152602081208581019083015b808210156145cb578282556001820191506145b5565b5050505b5060008181526020812083915b858110156145f8578235828201556020909201916001016145dc565b505050505050565b813561460b8161375c565b61461581836144c1565b506001808201602061462981860186613f67565b6001600160401b038111156146405761464061396f565b600160401b8111156146545761465461396f565b8354818555808210156146885760008581528481208381019083015b808210156146845782825590880190614670565b5050505b50600093845260208420935b818110156146ad57823585820155918301918501614694565b505050505050604082013560028201555050565b81356146cc8161375c565b6146d681836144c1565b50600180820160206146ea81860186613f67565b6001600160401b038111156147015761470161396f565b600160401b8111156147155761471561396f565b8354818555808210156147495760008581528481208381019083015b808210156147455782825590880190614731565b5050505b50600093845260208420935b8181101561476e57823585820155918301918501614755565b5050505050506147816040830183613f67565b6132fd81836002860161456d565b6000602082840312156147a157600080fd5b8151801515811461373357600080fd5b634e487b7160e01b600052602160045260246000fd5b600082516145638184602087016143da565b60208152600082518060208401526147f88160408501602087016143da565b601f01601f1916919091016040019291505056fea2646970667358221220618c68db8eb582f3745e9867c1e941e839284f29e0fed9a21bc797af6444bef464736f6c63430008110033",
  "devdoc": {
    "author": "Kratos",
    "kind": "dev",
    "methods": {
      "claimRewards(uint256,bytes,bytes)": {
        "details": "Claims rewards for a round",
        "params": {
          "_round": "Round number",
          "nonce": "Random bytes32 nonce",
          "signature": "Signature generated off-chain"
        }
      },
      "getRoundAmounts(uint256)": {
        "params": {
          "_round": "Round number"
        }
      },
      "getRoundRewards(uint256)": {
        "params": {
          "_round": "Round number"
        }
      },
      "hasUserClaimed(uint256,address)": {
        "params": {
          "_round": "Round number",
          "user": "Address of user"
        }
      },
      "onERC1155BatchReceived(address,address,uint256[],uint256[],bytes)": {
        "details": "Handles the receipt of a multiple ERC1155 token types. This function is called at the end of a `safeBatchTransferFrom` after the balances have been updated. NOTE: To accept the transfer(s), this must return `bytes4(keccak256(\"onERC1155BatchReceived(address,address,uint256[],uint256[],bytes)\"))` (i.e. 0xbc197c81, or its own function selector).",
        "params": {
          "data": "Additional data with no specified format",
          "from": "The address which previously owned the token",
          "ids": "An array containing ids of each token being transferred (order and length must match values array)",
          "operator": "The address which initiated the batch transfer (i.e. msg.sender)",
          "values": "An array containing amounts of each token being transferred (order and length must match ids array)"
        },
        "returns": {
          "_0": "`bytes4(keccak256(\"onERC1155BatchReceived(address,address,uint256[],uint256[],bytes)\"))` if transfer is allowed"
        }
      },
      "onERC1155Received(address,address,uint256,uint256,bytes)": {
        "details": "Handles the receipt of a single ERC1155 token type. This function is called at the end of a `safeTransferFrom` after the balance has been updated. NOTE: To accept the transfer, this must return `bytes4(keccak256(\"onERC1155Received(address,address,uint256,uint256,bytes)\"))` (i.e. 0xf23a6e61, or its own function selector).",
        "params": {
          "data": "Additional data with no specified format",
          "from": "The address which previously owned the token",
          "id": "The ID of the token being transferred",
          "operator": "The address which initiated the transfer (i.e. msg.sender)",
          "value": "The amount of tokens being transferred"
        },
        "returns": {
          "_0": "`bytes4(keccak256(\"onERC1155Received(address,address,uint256,uint256,bytes)\"))` if transfer is allowed"
        }
      },
      "removeRewards((uint256,(address,uint256)[],uint256[],(address,uint256[],uint256)[],uint256[],(address,uint256[],uint256[])[],uint256[][]))": {
        "details": "Remove rewards for a round, only for admin",
        "params": {
          "data": "Reward data"
        }
      },
      "setAdmin(address)": {
        "details": "Set address of admin EOA",
        "params": {
          "_admin": "Address of admin EOA"
        }
      },
      "setController(address)": {
        "details": "Set address of controller EOA",
        "params": {
          "_controller": "Address of controller EOA"
        }
      },
      "setRoundExpiry(uint256,uint256)": {
        "details": "Set round expiry timestamp",
        "params": {
          "_round": "Round number",
          "expiryTimestamp": "Expiry timestamp for the round"
        }
      },
      "setWhitelistSignerAddress(address)": {
        "details": "Set new whitelist signer address",
        "params": {
          "_whitelistSignerAddress": "Address of new whitelist signer"
        }
      },
      "startNewRound(uint256,uint256)": {
        "details": "Start a new round for controller only",
        "params": {
          "expiryTimestamp": "Expiry timestamp for the round"
        }
      },
      "supportsInterface(bytes4)": {
        "details": "Returns true if this contract implements the interface defined by `interfaceId`. See the corresponding https://eips.ethereum.org/EIPS/eip-165#how-interfaces-are-identified[EIP section] to learn more about how these ids are created. This function call must use less than 30 000 gas."
      },
      "topUpRewards((uint256,(address,uint256)[],uint256[],(address,uint256[],uint256)[],uint256[],(address,uint256[],uint256[])[],uint256[][]))": {
        "details": "Top up rewards for a round, only for admin",
        "params": {
          "data": "Reward data"
        }
      },
      "whitelistSigned(address,uint256,bytes,bytes)": {
        "details": "Checks if the the signature is signed by a valid signer for whitelist",
        "params": {
          "_round": "Round number",
          "nonce": "Random bytes32 nonce",
          "sender": "Address of minter",
          "signature": "Signature generated off-chain"
        }
      }
    },
    "title": "AtlanteanTrove Quest Rewards Claiming Contract",
    "version": 1
  },
  "userdoc": {
    "kind": "user",
    "methods": {
      "admin()": {
        "notice": "The address of the admin"
      },
      "controller()": {
        "notice": "The address of the controller"
      },
      "currentRound()": {
        "notice": "Variable to track current round"
      },
      "getRoundAmounts(uint256)": {
        "notice": "Get round amounts"
      },
      "getRoundRewards(uint256)": {
        "notice": "Get round rewards"
      },
      "hasUserClaimed(uint256,address)": {
        "notice": "Get user claim status for a round"
      },
      "roundTime(uint256)": {
        "notice": "Mapping of round to Round details"
      },
      "whitelistSignerAddress()": {
        "notice": "The address of the whitelist signer"
      }
    },
    "version": 1
  },
  "storageLayout": {
    "storage": [
      {
        "astId": 10,
        "contract": "contracts/AtlanteanTrove.sol:AtlanteanTrove",
        "label": "_status",
        "offset": 0,
        "slot": "0",
        "type": "t_uint256"
      },
      {
        "astId": 2498,
        "contract": "contracts/AtlanteanTrove.sol:AtlanteanTrove",
        "label": "hasClaimed",
        "offset": 0,
        "slot": "1",
        "type": "t_mapping(t_uint256,t_mapping(t_address,t_bool))"
      },
      {
        "astId": 2504,
        "contract": "contracts/AtlanteanTrove.sol:AtlanteanTrove",
        "label": "roundTime",
        "offset": 0,
        "slot": "2",
        "type": "t_mapping(t_uint256,t_struct(Round)2625_storage)"
      },
      {
        "astId": 2510,
        "contract": "contracts/AtlanteanTrove.sol:AtlanteanTrove",
        "label": "roundRewards",
        "offset": 0,
        "slot": "3",
        "type": "t_mapping(t_uint256,t_struct(Reward)2564_storage)"
      },
      {
        "astId": 2516,
        "contract": "contracts/AtlanteanTrove.sol:AtlanteanTrove",
        "label": "roundAmounts",
        "offset": 0,
        "slot": "4",
        "type": "t_mapping(t_uint256,t_struct(Amount)2595_storage)"
      },
      {
        "astId": 2520,
        "contract": "contracts/AtlanteanTrove.sol:AtlanteanTrove",
        "label": "currentRound",
        "offset": 0,
        "slot": "5",
        "type": "t_uint256"
      },
      {
        "astId": 2523,
        "contract": "contracts/AtlanteanTrove.sol:AtlanteanTrove",
        "label": "admin",
        "offset": 0,
        "slot": "6",
        "type": "t_address"
      },
      {
        "astId": 2526,
        "contract": "contracts/AtlanteanTrove.sol:AtlanteanTrove",
        "label": "controller",
        "offset": 0,
        "slot": "7",
        "type": "t_address"
      },
      {
        "astId": 2529,
        "contract": "contracts/AtlanteanTrove.sol:AtlanteanTrove",
        "label": "whitelistSignerAddress",
        "offset": 0,
        "slot": "8",
        "type": "t_address"
      }
    ],
    "types": {
      "t_address": {
        "encoding": "inplace",
        "label": "address",
        "numberOfBytes": "20"
      },
      "t_array(t_array(t_struct(RewardERC1155Amount)2581_storage)dyn_storage)dyn_storage": {
        "base": "t_array(t_struct(RewardERC1155Amount)2581_storage)dyn_storage",
        "encoding": "dynamic_array",
        "label": "struct AtlanteanTrove.RewardERC1155Amount[][]",
        "numberOfBytes": "32"
      },
      "t_array(t_struct(RewardERC1155)2551_storage)dyn_storage": {
        "base": "t_struct(RewardERC1155)2551_storage",
        "encoding": "dynamic_array",
        "label": "struct AtlanteanTrove.RewardERC1155[]",
        "numberOfBytes": "32"
      },
      "t_array(t_struct(RewardERC1155Amount)2581_storage)dyn_storage": {
        "base": "t_struct(RewardERC1155Amount)2581_storage",
        "encoding": "dynamic_array",
        "label": "struct AtlanteanTrove.RewardERC1155Amount[]",
        "numberOfBytes": "32"
      },
      "t_array(t_struct(RewardERC20)2534_storage)dyn_storage": {
        "base": "t_struct(RewardERC20)2534_storage",
        "encoding": "dynamic_array",
        "label": "struct AtlanteanTrove.RewardERC20[]",
        "numberOfBytes": "32"
      },
      "t_array(t_struct(RewardERC20Amount)2569_storage)dyn_storage": {
        "base": "t_struct(RewardERC20Amount)2569_storage",
        "encoding": "dynamic_array",
        "label": "struct AtlanteanTrove.RewardERC20Amount[]",
        "numberOfBytes": "32"
      },
      "t_array(t_struct(RewardERC721)2542_storage)dyn_storage": {
        "base": "t_struct(RewardERC721)2542_storage",
        "encoding": "dynamic_array",
        "label": "struct AtlanteanTrove.RewardERC721[]",
        "numberOfBytes": "32"
      },
      "t_array(t_struct(RewardERC721Amount)2574_storage)dyn_storage": {
        "base": "t_struct(RewardERC721Amount)2574_storage",
        "encoding": "dynamic_array",
        "label": "struct AtlanteanTrove.RewardERC721Amount[]",
        "numberOfBytes": "32"
      },
      "t_array(t_uint256)dyn_storage": {
        "base": "t_uint256",
        "encoding": "dynamic_array",
        "label": "uint256[]",
        "numberOfBytes": "32"
      },
      "t_bool": {
        "encoding": "inplace",
        "label": "bool",
        "numberOfBytes": "1"
      },
      "t_mapping(t_address,t_bool)": {
        "encoding": "mapping",
        "key": "t_address",
        "label": "mapping(address => bool)",
        "numberOfBytes": "32",
        "value": "t_bool"
      },
      "t_mapping(t_uint256,t_mapping(t_address,t_bool))": {
        "encoding": "mapping",
        "key": "t_uint256",
        "label": "mapping(uint256 => mapping(address => bool))",
        "numberOfBytes": "32",
        "value": "t_mapping(t_address,t_bool)"
      },
      "t_mapping(t_uint256,t_struct(Amount)2595_storage)": {
        "encoding": "mapping",
        "key": "t_uint256",
        "label": "mapping(uint256 => struct AtlanteanTrove.Amount)",
        "numberOfBytes": "32",
        "value": "t_struct(Amount)2595_storage"
      },
      "t_mapping(t_uint256,t_struct(Reward)2564_storage)": {
        "encoding": "mapping",
        "key": "t_uint256",
        "label": "mapping(uint256 => struct AtlanteanTrove.Reward)",
        "numberOfBytes": "32",
        "value": "t_struct(Reward)2564_storage"
      },
      "t_mapping(t_uint256,t_struct(Round)2625_storage)": {
        "encoding": "mapping",
        "key": "t_uint256",
        "label": "mapping(uint256 => struct AtlanteanTrove.Round)",
        "numberOfBytes": "32",
        "value": "t_struct(Round)2625_storage"
      },
      "t_struct(Amount)2595_storage": {
        "encoding": "inplace",
        "label": "struct AtlanteanTrove.Amount",
        "members": [
          {
            "astId": 2585,
            "contract": "contracts/AtlanteanTrove.sol:AtlanteanTrove",
            "label": "erc20Amount",
            "offset": 0,
            "slot": "0",
            "type": "t_array(t_struct(RewardERC20Amount)2569_storage)dyn_storage"
          },
          {
            "astId": 2589,
            "contract": "contracts/AtlanteanTrove.sol:AtlanteanTrove",
            "label": "erc721Amount",
            "offset": 0,
            "slot": "1",
            "type": "t_array(t_struct(RewardERC721Amount)2574_storage)dyn_storage"
          },
          {
            "astId": 2594,
            "contract": "contracts/AtlanteanTrove.sol:AtlanteanTrove",
            "label": "erc1155Amount",
            "offset": 0,
            "slot": "2",
            "type": "t_array(t_array(t_struct(RewardERC1155Amount)2581_storage)dyn_storage)dyn_storage"
          }
        ],
        "numberOfBytes": "96"
      },
      "t_struct(Reward)2564_storage": {
        "encoding": "inplace",
        "label": "struct AtlanteanTrove.Reward",
        "members": [
          {
            "astId": 2555,
            "contract": "contracts/AtlanteanTrove.sol:AtlanteanTrove",
            "label": "erc20Rewards",
            "offset": 0,
            "slot": "0",
            "type": "t_array(t_struct(RewardERC20)2534_storage)dyn_storage"
          },
          {
            "astId": 2559,
            "contract": "contracts/AtlanteanTrove.sol:AtlanteanTrove",
            "label": "erc721Rewards",
            "offset": 0,
            "slot": "1",
            "type": "t_array(t_struct(RewardERC721)2542_storage)dyn_storage"
          },
          {
            "astId": 2563,
            "contract": "contracts/AtlanteanTrove.sol:AtlanteanTrove",
            "label": "erc1155Rewards",
            "offset": 0,
            "slot": "2",
            "type": "t_array(t_struct(RewardERC1155)2551_storage)dyn_storage"
          }
        ],
        "numberOfBytes": "96"
      },
      "t_struct(RewardERC1155)2551_storage": {
        "encoding": "inplace",
        "label": "struct AtlanteanTrove.RewardERC1155",
        "members": [
          {
            "astId": 2544,
            "contract": "contracts/AtlanteanTrove.sol:AtlanteanTrove",
            "label": "tokenAddress",
            "offset": 0,
            "slot": "0",
            "type": "t_address"
          },
          {
            "astId": 2547,
            "contract": "contracts/AtlanteanTrove.sol:AtlanteanTrove",
            "label": "tokenIds",
            "offset": 0,
            "slot": "1",
            "type": "t_array(t_uint256)dyn_storage"
          },
          {
            "astId": 2550,
            "contract": "contracts/AtlanteanTrove.sol:AtlanteanTrove",
            "label": "amounts",
            "offset": 0,
            "slot": "2",
            "type": "t_array(t_uint256)dyn_storage"
          }
        ],
        "numberOfBytes": "96"
      },
      "t_struct(RewardERC1155Amount)2581_storage": {
        "encoding": "inplace",
        "label": "struct AtlanteanTrove.RewardERC1155Amount",
        "members": [
          {
            "astId": 2576,
            "contract": "contracts/AtlanteanTrove.sol:AtlanteanTrove",
            "label": "tokenAddress",
            "offset": 0,
            "slot": "0",
            "type": "t_address"
          },
          {
            "astId": 2578,
            "contract": "contracts/AtlanteanTrove.sol:AtlanteanTrove",
            "label": "tokenId",
            "offset": 0,
            "slot": "1",
            "type": "t_uint256"
          },
          {
            "astId": 2580,
            "contract": "contracts/AtlanteanTrove.sol:AtlanteanTrove",
            "label": "amount",
            "offset": 0,
            "slot": "2",
            "type": "t_uint256"
          }
        ],
        "numberOfBytes": "96"
      },
      "t_struct(RewardERC20)2534_storage": {
        "encoding": "inplace",
        "label": "struct AtlanteanTrove.RewardERC20",
        "members": [
          {
            "astId": 2531,
            "contract": "contracts/AtlanteanTrove.sol:AtlanteanTrove",
            "label": "tokenAddress",
            "offset": 0,
            "slot": "0",
            "type": "t_address"
          },
          {
            "astId": 2533,
            "contract": "contracts/AtlanteanTrove.sol:AtlanteanTrove",
            "label": "amount",
            "offset": 0,
            "slot": "1",
            "type": "t_uint256"
          }
        ],
        "numberOfBytes": "64"
      },
      "t_struct(RewardERC20Amount)2569_storage": {
        "encoding": "inplace",
        "label": "struct AtlanteanTrove.RewardERC20Amount",
        "members": [
          {
            "astId": 2566,
            "contract": "contracts/AtlanteanTrove.sol:AtlanteanTrove",
            "label": "tokenAddress",
            "offset": 0,
            "slot": "0",
            "type": "t_address"
          },
          {
            "astId": 2568,
            "contract": "contracts/AtlanteanTrove.sol:AtlanteanTrove",
            "label": "amount",
            "offset": 0,
            "slot": "1",
            "type": "t_uint256"
          }
        ],
        "numberOfBytes": "64"
      },
      "t_struct(RewardERC721)2542_storage": {
        "encoding": "inplace",
        "label": "struct AtlanteanTrove.RewardERC721",
        "members": [
          {
            "astId": 2536,
            "contract": "contracts/AtlanteanTrove.sol:AtlanteanTrove",
            "label": "tokenAddress",
            "offset": 0,
            "slot": "0",
            "type": "t_address"
          },
          {
            "astId": 2539,
            "contract": "contracts/AtlanteanTrove.sol:AtlanteanTrove",
            "label": "tokenIds",
            "offset": 0,
            "slot": "1",
            "type": "t_array(t_uint256)dyn_storage"
          },
          {
            "astId": 2541,
            "contract": "contracts/AtlanteanTrove.sol:AtlanteanTrove",
            "label": "index",
            "offset": 0,
            "slot": "2",
            "type": "t_uint256"
          }
        ],
        "numberOfBytes": "96"
      },
      "t_struct(RewardERC721Amount)2574_storage": {
        "encoding": "inplace",
        "label": "struct AtlanteanTrove.RewardERC721Amount",
        "members": [
          {
            "astId": 2571,
            "contract": "contracts/AtlanteanTrove.sol:AtlanteanTrove",
            "label": "tokenAddress",
            "offset": 0,
            "slot": "0",
            "type": "t_address"
          },
          {
            "astId": 2573,
            "contract": "contracts/AtlanteanTrove.sol:AtlanteanTrove",
            "label": "amount",
            "offset": 0,
            "slot": "1",
            "type": "t_uint256"
          }
        ],
        "numberOfBytes": "64"
      },
      "t_struct(Round)2625_storage": {
        "encoding": "inplace",
        "label": "struct AtlanteanTrove.Round",
        "members": [
          {
            "astId": 2622,
            "contract": "contracts/AtlanteanTrove.sol:AtlanteanTrove",
            "label": "startTime",
            "offset": 0,
            "slot": "0",
            "type": "t_uint256"
          },
          {
            "astId": 2624,
            "contract": "contracts/AtlanteanTrove.sol:AtlanteanTrove",
            "label": "expiryTimestamp",
            "offset": 0,
            "slot": "1",
            "type": "t_uint256"
          }
        ],
        "numberOfBytes": "64"
      },
      "t_uint256": {
        "encoding": "inplace",
        "label": "uint256",
        "numberOfBytes": "32"
      }
    }
  }
}