{
  "address": "0x3A19A693a29b43BAE23F32B498d1A24D09F19878",
  "abi": [
    {
      "inputs": [
        {
          "internalType": "address",
          "name": "_owner",
          "type": "address"
        },
        {
          "internalType": "address",
          "name": "_whitelistSignerAddress",
          "type": "address"
        },
        {
          "internalType": "string",
          "name": "__baseURI",
          "type": "string"
        },
        {
          "internalType": "contract AtlantisAddressRegistry",
          "name": "_addressRegistry",
          "type": "address"
        }
      ],
      "stateMutability": "nonpayable",
      "type": "constructor"
    },
    {
      "inputs": [],
      "name": "AuctionSettled",
      "type": "error"
    },
    {
      "inputs": [],
      "name": "ExceedMaxMintPerWallet",
      "type": "error"
    },
    {
      "inputs": [],
      "name": "ExceededMaxLevel",
      "type": "error"
    },
    {
      "inputs": [],
      "name": "ExceededMaxSupply",
      "type": "error"
    },
    {
      "inputs": [
        {
          "internalType": "uint256",
          "name": "amountPaid",
          "type": "uint256"
        },
        {
          "internalType": "uint256",
          "name": "amountRequired",
          "type": "uint256"
        }
      ],
      "name": "InsufficientCRO",
      "type": "error"
    },
    {
      "inputs": [],
      "name": "InvalidInput",
      "type": "error"
    },
    {
      "inputs": [],
      "name": "InvalidSignature",
      "type": "error"
    },
    {
      "inputs": [
        {
          "internalType": "uint8",
          "name": "currentStage",
          "type": "uint8"
        },
        {
          "internalType": "uint8",
          "name": "requiredStage",
          "type": "uint8"
        }
      ],
      "name": "InvalidStage",
      "type": "error"
    },
    {
      "inputs": [
        {
          "internalType": "uint8",
          "name": "currentLevel",
          "type": "uint8"
        },
        {
          "internalType": "uint8",
          "name": "newLevel",
          "type": "uint8"
        }
      ],
      "name": "InvalidUpgradeLevel",
      "type": "error"
    },
    {
      "inputs": [],
      "name": "NotOwnerOfPlanet",
      "type": "error"
    },
    {
      "inputs": [],
      "name": "UnknownElement",
      "type": "error"
    },
    {
      "inputs": [],
      "name": "UnknownOrbit",
      "type": "error"
    },
    {
      "anonymous": false,
      "inputs": [
        {
          "indexed": true,
          "internalType": "address",
          "name": "owner",
          "type": "address"
        },
        {
          "indexed": true,
          "internalType": "address",
          "name": "approved",
          "type": "address"
        },
        {
          "indexed": true,
          "internalType": "uint256",
          "name": "tokenId",
          "type": "uint256"
        }
      ],
      "name": "Approval",
      "type": "event"
    },
    {
      "anonymous": false,
      "inputs": [
        {
          "indexed": true,
          "internalType": "address",
          "name": "owner",
          "type": "address"
        },
        {
          "indexed": true,
          "internalType": "address",
          "name": "operator",
          "type": "address"
        },
        {
          "indexed": false,
          "internalType": "bool",
          "name": "approved",
          "type": "bool"
        }
      ],
      "name": "ApprovalForAll",
      "type": "event"
    },
    {
      "anonymous": false,
      "inputs": [
        {
          "indexed": true,
          "internalType": "address",
          "name": "previousOwner",
          "type": "address"
        },
        {
          "indexed": true,
          "internalType": "address",
          "name": "newOwner",
          "type": "address"
        }
      ],
      "name": "OwnershipTransferred",
      "type": "event"
    },
    {
      "anonymous": false,
      "inputs": [
        {
          "indexed": true,
          "internalType": "uint256",
          "name": "tokenId",
          "type": "uint256"
        },
        {
          "indexed": true,
          "internalType": "uint256",
          "name": "level",
          "type": "uint256"
        }
      ],
      "name": "PlanetUpgraded",
      "type": "event"
    },
    {
      "anonymous": false,
      "inputs": [
        {
          "indexed": true,
          "internalType": "address",
          "name": "to",
          "type": "address"
        },
        {
          "indexed": false,
          "internalType": "uint256",
          "name": "amount",
          "type": "uint256"
        }
      ],
      "name": "PrivateMint",
      "type": "event"
    },
    {
      "anonymous": false,
      "inputs": [
        {
          "indexed": true,
          "internalType": "address",
          "name": "to",
          "type": "address"
        },
        {
          "indexed": false,
          "internalType": "uint256",
          "name": "amount",
          "type": "uint256"
        }
      ],
      "name": "PublicMint",
      "type": "event"
    },
    {
      "anonymous": false,
      "inputs": [
        {
          "indexed": false,
          "internalType": "uint256",
          "name": "supply",
          "type": "uint256"
        }
      ],
      "name": "SupplyChanged",
      "type": "event"
    },
    {
      "anonymous": false,
      "inputs": [
        {
          "indexed": true,
          "internalType": "address",
          "name": "from",
          "type": "address"
        },
        {
          "indexed": true,
          "internalType": "address",
          "name": "to",
          "type": "address"
        },
        {
          "indexed": true,
          "internalType": "uint256",
          "name": "tokenId",
          "type": "uint256"
        }
      ],
      "name": "Transfer",
      "type": "event"
    },
    {
      "inputs": [],
      "name": "addressRegistry",
      "outputs": [
        {
          "internalType": "contract AtlantisAddressRegistry",
          "name": "",
          "type": "address"
        }
      ],
      "stateMutability": "view",
      "type": "function"
    },
    {
      "inputs": [
        {
          "internalType": "address",
          "name": "to",
          "type": "address"
        },
        {
          "internalType": "uint256",
          "name": "tokenId",
          "type": "uint256"
        }
      ],
      "name": "approve",
      "outputs": [],
      "stateMutability": "nonpayable",
      "type": "function"
    },
    {
      "inputs": [],
      "name": "availableTokenCount",
      "outputs": [
        {
          "internalType": "uint256",
          "name": "",
          "type": "uint256"
        }
      ],
      "stateMutability": "view",
      "type": "function"
    },
    {
      "inputs": [
        {
          "internalType": "address",
          "name": "owner",
          "type": "address"
        }
      ],
      "name": "balanceOf",
      "outputs": [
        {
          "internalType": "uint256",
          "name": "",
          "type": "uint256"
        }
      ],
      "stateMutability": "view",
      "type": "function"
    },
    {
      "inputs": [],
      "name": "baseURI",
      "outputs": [
        {
          "internalType": "string",
          "name": "",
          "type": "string"
        }
      ],
      "stateMutability": "view",
      "type": "function"
    },
    {
      "inputs": [
        {
          "internalType": "address[12]",
          "name": "_auctionWinners",
          "type": "address[12]"
        }
      ],
      "name": "devEpicMint",
      "outputs": [],
      "stateMutability": "nonpayable",
      "type": "function"
    },
    {
      "inputs": [
        {
          "internalType": "address",
          "name": "_to",
          "type": "address"
        },
        {
          "internalType": "uint256",
          "name": "_mintAmount",
          "type": "uint256"
        }
      ],
      "name": "devMint",
      "outputs": [],
      "stateMutability": "nonpayable",
      "type": "function"
    },
    {
      "inputs": [
        {
          "internalType": "uint256",
          "name": "tokenId",
          "type": "uint256"
        }
      ],
      "name": "exists",
      "outputs": [
        {
          "internalType": "bool",
          "name": "",
          "type": "bool"
        }
      ],
      "stateMutability": "view",
      "type": "function"
    },
    {
      "inputs": [],
      "name": "gemstoneTiers",
      "outputs": [
        {
          "internalType": "uint16",
          "name": "",
          "type": "uint16"
        }
      ],
      "stateMutability": "view",
      "type": "function"
    },
    {
      "inputs": [
        {
          "internalType": "uint256",
          "name": "tokenId",
          "type": "uint256"
        }
      ],
      "name": "getApproved",
      "outputs": [
        {
          "internalType": "address",
          "name": "",
          "type": "address"
        }
      ],
      "stateMutability": "view",
      "type": "function"
    },
    {
      "inputs": [
        {
          "internalType": "enum AtlantisLib.Background",
          "name": "background",
          "type": "uint8"
        },
        {
          "internalType": "enum AtlantisLib.Element",
          "name": "element",
          "type": "uint8"
        },
        {
          "internalType": "enum AtlantisLib.OrbitName",
          "name": "orbitName",
          "type": "uint8"
        },
        {
          "internalType": "enum AtlantisLib.Evolution",
          "name": "evo",
          "type": "uint8"
        }
      ],
      "name": "getImageURI",
      "outputs": [
        {
          "internalType": "string",
          "name": "",
          "type": "string"
        }
      ],
      "stateMutability": "view",
      "type": "function"
    },
    {
      "inputs": [
        {
          "internalType": "uint256",
          "name": "_planetId",
          "type": "uint256"
        }
      ],
      "name": "getPlanetDetails",
      "outputs": [
        {
          "components": [
            {
              "internalType": "uint8",
              "name": "level",
              "type": "uint8"
            },
            {
              "internalType": "enum AtlantisLib.Element",
              "name": "element",
              "type": "uint8"
            },
            {
              "internalType": "enum AtlantisLib.Orbit",
              "name": "orbit",
              "type": "uint8"
            },
            {
              "internalType": "enum AtlantisLib.OrbitName",
              "name": "orbitName",
              "type": "uint8"
            },
            {
              "internalType": "enum AtlantisLib.Background",
              "name": "background",
              "type": "uint8"
            },
            {
              "internalType": "bool",
              "name": "onExpedition",
              "type": "bool"
            }
          ],
          "internalType": "struct AtlantisLib.Planet",
          "name": "",
          "type": "tuple"
        }
      ],
      "stateMutability": "view",
      "type": "function"
    },
    {
      "inputs": [
        {
          "internalType": "uint256",
          "name": "_tokenId",
          "type": "uint256"
        },
        {
          "internalType": "uint8",
          "name": "_levels",
          "type": "uint8"
        }
      ],
      "name": "getUpgradeCosts",
      "outputs": [
        {
          "internalType": "uint256",
          "name": "stardustCost",
          "type": "uint256"
        },
        {
          "internalType": "uint256",
          "name": "xArgoCost",
          "type": "uint256"
        },
        {
          "internalType": "uint16[4]",
          "name": "gemstoneRequirements",
          "type": "uint16[4]"
        }
      ],
      "stateMutability": "view",
      "type": "function"
    },
    {
      "inputs": [
        {
          "internalType": "address",
          "name": "owner",
          "type": "address"
        },
        {
          "internalType": "address",
          "name": "operator",
          "type": "address"
        }
      ],
      "name": "isApprovedForAll",
      "outputs": [
        {
          "internalType": "bool",
          "name": "",
          "type": "bool"
        }
      ],
      "stateMutability": "view",
      "type": "function"
    },
    {
      "inputs": [],
      "name": "levelUpGemstone",
      "outputs": [
        {
          "internalType": "bytes",
          "name": "",
          "type": "bytes"
        }
      ],
      "stateMutability": "view",
      "type": "function"
    },
    {
      "inputs": [],
      "name": "maxPlanetLevel",
      "outputs": [
        {
          "internalType": "uint16",
          "name": "",
          "type": "uint16"
        }
      ],
      "stateMutability": "view",
      "type": "function"
    },
    {
      "inputs": [
        {
          "internalType": "uint256",
          "name": "_mintAmount",
          "type": "uint256"
        }
      ],
      "name": "mint",
      "outputs": [],
      "stateMutability": "payable",
      "type": "function"
    },
    {
      "inputs": [],
      "name": "name",
      "outputs": [
        {
          "internalType": "string",
          "name": "",
          "type": "string"
        }
      ],
      "stateMutability": "view",
      "type": "function"
    },
    {
      "inputs": [],
      "name": "owner",
      "outputs": [
        {
          "internalType": "address",
          "name": "",
          "type": "address"
        }
      ],
      "stateMutability": "view",
      "type": "function"
    },
    {
      "inputs": [
        {
          "internalType": "uint256",
          "name": "tokenId",
          "type": "uint256"
        }
      ],
      "name": "ownerOf",
      "outputs": [
        {
          "internalType": "address",
          "name": "",
          "type": "address"
        }
      ],
      "stateMutability": "view",
      "type": "function"
    },
    {
      "inputs": [
        {
          "internalType": "uint256",
          "name": "",
          "type": "uint256"
        }
      ],
      "name": "planets",
      "outputs": [
        {
          "internalType": "uint8",
          "name": "level",
          "type": "uint8"
        },
        {
          "internalType": "enum AtlantisLib.Element",
          "name": "element",
          "type": "uint8"
        },
        {
          "internalType": "enum AtlantisLib.Orbit",
          "name": "orbit",
          "type": "uint8"
        },
        {
          "internalType": "enum AtlantisLib.OrbitName",
          "name": "orbitName",
          "type": "uint8"
        },
        {
          "internalType": "enum AtlantisLib.Background",
          "name": "background",
          "type": "uint8"
        },
        {
          "internalType": "bool",
          "name": "onExpedition",
          "type": "bool"
        }
      ],
      "stateMutability": "view",
      "type": "function"
    },
    {
      "inputs": [
        {
          "internalType": "address",
          "name": "",
          "type": "address"
        }
      ],
      "name": "publicMintCount",
      "outputs": [
        {
          "internalType": "uint256",
          "name": "",
          "type": "uint256"
        }
      ],
      "stateMutability": "view",
      "type": "function"
    },
    {
      "inputs": [],
      "name": "publicMintMaxPerWallet",
      "outputs": [
        {
          "internalType": "uint256",
          "name": "",
          "type": "uint256"
        }
      ],
      "stateMutability": "view",
      "type": "function"
    },
    {
      "inputs": [],
      "name": "publicMintPrice",
      "outputs": [
        {
          "internalType": "uint256",
          "name": "",
          "type": "uint256"
        }
      ],
      "stateMutability": "view",
      "type": "function"
    },
    {
      "inputs": [],
      "name": "renounceOwnership",
      "outputs": [],
      "stateMutability": "nonpayable",
      "type": "function"
    },
    {
      "inputs": [],
      "name": "revealed",
      "outputs": [
        {
          "internalType": "bool",
          "name": "",
          "type": "bool"
        }
      ],
      "stateMutability": "view",
      "type": "function"
    },
    {
      "inputs": [
        {
          "internalType": "address",
          "name": "from",
          "type": "address"
        },
        {
          "internalType": "address",
          "name": "to",
          "type": "address"
        },
        {
          "internalType": "uint256",
          "name": "tokenId",
          "type": "uint256"
        }
      ],
      "name": "safeTransferFrom",
      "outputs": [],
      "stateMutability": "nonpayable",
      "type": "function"
    },
    {
      "inputs": [
        {
          "internalType": "address",
          "name": "from",
          "type": "address"
        },
        {
          "internalType": "address",
          "name": "to",
          "type": "address"
        },
        {
          "internalType": "uint256",
          "name": "tokenId",
          "type": "uint256"
        },
        {
          "internalType": "bytes",
          "name": "data",
          "type": "bytes"
        }
      ],
      "name": "safeTransferFrom",
      "outputs": [],
      "stateMutability": "nonpayable",
      "type": "function"
    },
    {
      "inputs": [
        {
          "internalType": "contract AtlantisAddressRegistry",
          "name": "_addressRegistry",
          "type": "address"
        }
      ],
      "name": "setAddressRegistry",
      "outputs": [],
      "stateMutability": "nonpayable",
      "type": "function"
    },
    {
      "inputs": [
        {
          "internalType": "address",
          "name": "operator",
          "type": "address"
        },
        {
          "internalType": "bool",
          "name": "approved",
          "type": "bool"
        }
      ],
      "name": "setApprovalForAll",
      "outputs": [],
      "stateMutability": "nonpayable",
      "type": "function"
    },
    {
      "inputs": [
        {
          "internalType": "uint256",
          "name": "_xArgoBaseCost",
          "type": "uint256"
        },
        {
          "internalType": "uint256",
          "name": "_stardustBaseCost",
          "type": "uint256"
        }
      ],
      "name": "setBaseCosts",
      "outputs": [],
      "stateMutability": "nonpayable",
      "type": "function"
    },
    {
      "inputs": [
        {
          "internalType": "string",
          "name": "_newBaseURI",
          "type": "string"
        }
      ],
      "name": "setBaseURI",
      "outputs": [],
      "stateMutability": "nonpayable",
      "type": "function"
    },
    {
      "inputs": [
        {
          "internalType": "bytes",
          "name": "_data",
          "type": "bytes"
        }
      ],
      "name": "setLevelUpGemstone",
      "outputs": [],
      "stateMutability": "nonpayable",
      "type": "function"
    },
    {
      "inputs": [
        {
          "internalType": "uint256[]",
          "name": "_tokenIds",
          "type": "uint256[]"
        },
        {
          "internalType": "enum AtlantisLib.Background[]",
          "name": "_backgrounds",
          "type": "uint8[]"
        }
      ],
      "name": "setPlanetBackgrounds",
      "outputs": [],
      "stateMutability": "nonpayable",
      "type": "function"
    },
    {
      "inputs": [
        {
          "internalType": "uint256[]",
          "name": "_tokenIds",
          "type": "uint256[]"
        },
        {
          "internalType": "enum AtlantisLib.Element[]",
          "name": "_gemstoneTypes",
          "type": "uint8[]"
        }
      ],
      "name": "setPlanetElements",
      "outputs": [],
      "stateMutability": "nonpayable",
      "type": "function"
    },
    {
      "inputs": [
        {
          "internalType": "uint256[]",
          "name": "_tokenIds",
          "type": "uint256[]"
        },
        {
          "internalType": "enum AtlantisLib.OrbitName[]",
          "name": "_planetOrbitNames",
          "type": "uint8[]"
        }
      ],
      "name": "setPlanetOrbitNames",
      "outputs": [],
      "stateMutability": "nonpayable",
      "type": "function"
    },
    {
      "inputs": [
        {
          "internalType": "uint256[]",
          "name": "_tokenIds",
          "type": "uint256[]"
        },
        {
          "internalType": "enum AtlantisLib.Orbit[]",
          "name": "_planetOrbits",
          "type": "uint8[]"
        }
      ],
      "name": "setPlanetOrbits",
      "outputs": [],
      "stateMutability": "nonpayable",
      "type": "function"
    },
    {
      "inputs": [
        {
          "internalType": "uint256",
          "name": "_publicMintPrice",
          "type": "uint256"
        }
      ],
      "name": "setPublicMintPrice",
      "outputs": [],
      "stateMutability": "nonpayable",
      "type": "function"
    },
    {
      "inputs": [
        {
          "internalType": "uint256",
          "name": "_stardustBaseCostScaling",
          "type": "uint256"
        },
        {
          "internalType": "uint256",
          "name": "_stardustRarityCostScaling",
          "type": "uint256"
        }
      ],
      "name": "setScaling",
      "outputs": [],
      "stateMutability": "nonpayable",
      "type": "function"
    },
    {
      "inputs": [
        {
          "internalType": "uint8",
          "name": "_newStage",
          "type": "uint8"
        }
      ],
      "name": "setStage",
      "outputs": [],
      "stateMutability": "nonpayable",
      "type": "function"
    },
    {
      "inputs": [
        {
          "internalType": "address",
          "name": "_treasury",
          "type": "address"
        }
      ],
      "name": "setTreasury",
      "outputs": [],
      "stateMutability": "nonpayable",
      "type": "function"
    },
    {
      "inputs": [
        {
          "internalType": "string",
          "name": "_newUnrevealedImageURI",
          "type": "string"
        }
      ],
      "name": "setUnrevealedImageURI",
      "outputs": [],
      "stateMutability": "nonpayable",
      "type": "function"
    },
    {
      "inputs": [
        {
          "internalType": "uint256",
          "name": "amount",
          "type": "uint256"
        }
      ],
      "name": "setVipMaxMintPerWallet",
      "outputs": [],
      "stateMutability": "nonpayable",
      "type": "function"
    },
    {
      "inputs": [
        {
          "internalType": "uint256",
          "name": "_vipMintPrice",
          "type": "uint256"
        }
      ],
      "name": "setVipMintPrice",
      "outputs": [],
      "stateMutability": "nonpayable",
      "type": "function"
    },
    {
      "inputs": [
        {
          "internalType": "uint256",
          "name": "amount",
          "type": "uint256"
        }
      ],
      "name": "setWhitelistMaxMintPerWallet",
      "outputs": [],
      "stateMutability": "nonpayable",
      "type": "function"
    },
    {
      "inputs": [
        {
          "internalType": "uint256",
          "name": "_whitelistMintPrice",
          "type": "uint256"
        }
      ],
      "name": "setWhitelistMintPrice",
      "outputs": [],
      "stateMutability": "nonpayable",
      "type": "function"
    },
    {
      "inputs": [
        {
          "internalType": "uint256",
          "name": "_whitelistPhase",
          "type": "uint256"
        }
      ],
      "name": "setWhitelistPhase",
      "outputs": [],
      "stateMutability": "nonpayable",
      "type": "function"
    },
    {
      "inputs": [
        {
          "internalType": "address",
          "name": "signer",
          "type": "address"
        }
      ],
      "name": "setWhitelistSignerAddress",
      "outputs": [],
      "stateMutability": "nonpayable",
      "type": "function"
    },
    {
      "inputs": [],
      "name": "stage",
      "outputs": [
        {
          "internalType": "uint8",
          "name": "",
          "type": "uint8"
        }
      ],
      "stateMutability": "view",
      "type": "function"
    },
    {
      "inputs": [],
      "name": "stardustBaseCost",
      "outputs": [
        {
          "internalType": "uint256",
          "name": "",
          "type": "uint256"
        }
      ],
      "stateMutability": "view",
      "type": "function"
    },
    {
      "inputs": [],
      "name": "stardustBaseCostScaling",
      "outputs": [
        {
          "internalType": "uint256",
          "name": "",
          "type": "uint256"
        }
      ],
      "stateMutability": "view",
      "type": "function"
    },
    {
      "inputs": [],
      "name": "stardustRarityCostScaling",
      "outputs": [
        {
          "internalType": "uint256",
          "name": "",
          "type": "uint256"
        }
      ],
      "stateMutability": "view",
      "type": "function"
    },
    {
      "inputs": [
        {
          "internalType": "bytes4",
          "name": "interfaceId",
          "type": "bytes4"
        }
      ],
      "name": "supportsInterface",
      "outputs": [
        {
          "internalType": "bool",
          "name": "",
          "type": "bool"
        }
      ],
      "stateMutability": "view",
      "type": "function"
    },
    {
      "inputs": [],
      "name": "symbol",
      "outputs": [
        {
          "internalType": "string",
          "name": "",
          "type": "string"
        }
      ],
      "stateMutability": "view",
      "type": "function"
    },
    {
      "inputs": [],
      "name": "toggleReveal",
      "outputs": [],
      "stateMutability": "nonpayable",
      "type": "function"
    },
    {
      "inputs": [],
      "name": "tokenCount",
      "outputs": [
        {
          "internalType": "uint256",
          "name": "",
          "type": "uint256"
        }
      ],
      "stateMutability": "view",
      "type": "function"
    },
    {
      "inputs": [
        {
          "internalType": "uint256",
          "name": "tokenId",
          "type": "uint256"
        }
      ],
      "name": "tokenURI",
      "outputs": [
        {
          "internalType": "string",
          "name": "",
          "type": "string"
        }
      ],
      "stateMutability": "view",
      "type": "function"
    },
    {
      "inputs": [],
      "name": "totalMaxSupply",
      "outputs": [
        {
          "internalType": "uint256",
          "name": "",
          "type": "uint256"
        }
      ],
      "stateMutability": "view",
      "type": "function"
    },
    {
      "inputs": [],
      "name": "totalSupply",
      "outputs": [
        {
          "internalType": "uint256",
          "name": "",
          "type": "uint256"
        }
      ],
      "stateMutability": "view",
      "type": "function"
    },
    {
      "inputs": [
        {
          "internalType": "address",
          "name": "from",
          "type": "address"
        },
        {
          "internalType": "address",
          "name": "to",
          "type": "address"
        },
        {
          "internalType": "uint256",
          "name": "tokenId",
          "type": "uint256"
        }
      ],
      "name": "transferFrom",
      "outputs": [],
      "stateMutability": "nonpayable",
      "type": "function"
    },
    {
      "inputs": [
        {
          "internalType": "address",
          "name": "newOwner",
          "type": "address"
        }
      ],
      "name": "transferOwnership",
      "outputs": [],
      "stateMutability": "nonpayable",
      "type": "function"
    },
    {
      "inputs": [],
      "name": "treasury",
      "outputs": [
        {
          "internalType": "address",
          "name": "",
          "type": "address"
        }
      ],
      "stateMutability": "view",
      "type": "function"
    },
    {
      "inputs": [],
      "name": "unrevealedImageURI",
      "outputs": [
        {
          "internalType": "string",
          "name": "",
          "type": "string"
        }
      ],
      "stateMutability": "view",
      "type": "function"
    },
    {
      "inputs": [
        {
          "internalType": "uint256",
          "name": "_tokenId",
          "type": "uint256"
        },
        {
          "internalType": "uint8",
          "name": "_levels",
          "type": "uint8"
        }
      ],
      "name": "upgradePlanet",
      "outputs": [],
      "stateMutability": "nonpayable",
      "type": "function"
    },
    {
      "inputs": [
        {
          "internalType": "address",
          "name": "",
          "type": "address"
        }
      ],
      "name": "vipMintCount",
      "outputs": [
        {
          "internalType": "uint256",
          "name": "",
          "type": "uint256"
        }
      ],
      "stateMutability": "view",
      "type": "function"
    },
    {
      "inputs": [],
      "name": "vipMintMaxPerWallet",
      "outputs": [
        {
          "internalType": "uint256",
          "name": "",
          "type": "uint256"
        }
      ],
      "stateMutability": "view",
      "type": "function"
    },
    {
      "inputs": [],
      "name": "vipMintPrice",
      "outputs": [
        {
          "internalType": "uint256",
          "name": "",
          "type": "uint256"
        }
      ],
      "stateMutability": "view",
      "type": "function"
    },
    {
      "inputs": [
        {
          "internalType": "uint256",
          "name": "_mintAmount",
          "type": "uint256"
        },
        {
          "internalType": "bytes",
          "name": "nonce",
          "type": "bytes"
        },
        {
          "internalType": "bytes",
          "name": "signature",
          "type": "bytes"
        }
      ],
      "name": "whitelistMint",
      "outputs": [],
      "stateMutability": "payable",
      "type": "function"
    },
    {
      "inputs": [
        {
          "internalType": "address",
          "name": "",
          "type": "address"
        }
      ],
      "name": "whitelistMintCount",
      "outputs": [
        {
          "internalType": "uint256",
          "name": "",
          "type": "uint256"
        }
      ],
      "stateMutability": "view",
      "type": "function"
    },
    {
      "inputs": [],
      "name": "whitelistMintMaxPerWallet",
      "outputs": [
        {
          "internalType": "uint256",
          "name": "",
          "type": "uint256"
        }
      ],
      "stateMutability": "view",
      "type": "function"
    },
    {
      "inputs": [],
      "name": "whitelistMintPrice",
      "outputs": [
        {
          "internalType": "uint256",
          "name": "",
          "type": "uint256"
        }
      ],
      "stateMutability": "view",
      "type": "function"
    },
    {
      "inputs": [],
      "name": "whitelistPhase",
      "outputs": [
        {
          "internalType": "uint256",
          "name": "",
          "type": "uint256"
        }
      ],
      "stateMutability": "view",
      "type": "function"
    },
    {
      "inputs": [
        {
          "internalType": "contract IERC20",
          "name": "_tokenAddress",
          "type": "address"
        },
        {
          "internalType": "uint256",
          "name": "_amount",
          "type": "uint256"
        }
      ],
      "name": "withdrawERC20",
      "outputs": [],
      "stateMutability": "nonpayable",
      "type": "function"
    },
    {
      "inputs": [],
      "name": "withdrawFund",
      "outputs": [],
      "stateMutability": "nonpayable",
      "type": "function"
    },
    {
      "inputs": [],
      "name": "xArgoBaseCost",
      "outputs": [
        {
          "internalType": "uint256",
          "name": "",
          "type": "uint256"
        }
      ],
      "stateMutability": "view",
      "type": "function"
    }
  ],
  "transactionHash": "0x2f41c788cad001353a90cac4846c8e10b449f0e1c727a861a489686ad8af74dc",
  "args": [
    "0x7AECa63e4B51b0Ff8A8a82b3231033ca4CA6301b",
    "0x6A952f966c5DcC36A094c8AB141f027fb58F864e",
    "",
    "0x5ff59cdCAA5B7Bb704303328C48c1fb913BAe3EE"
  ],
  "numDeployments": 1,
  "solcInputHash": "85ade8335b4d60414624baa756fc9eb0",
  "bytecode": "0x600a601055600060115560146013819055670de0b6b3a76400008155671bc16d674ec8000060175560001960185568022b1c8c1227a00000601c55680ad78ebc5ac6200000601d556019601e55601f556021805460ff1916905561010060405260426080818152906200633860a0396022906200007d9082620003ec565b503480156200008b57600080fd5b506040516200637a3803806200637a833981016040819052620000ae91620004e0565b611770600d816040518060400160405280601081526020016f41746c616e74697320506c616e65747360801b81525060405180604001604052806007815260200166504c414e45545360c81b81525081600090816200010e9190620003ec565b5060016200011d8282620003ec565b5050506200013a620001346200019c60201b60201c565b620001a0565b600855600a55506200014c84620001f2565b62000157836200021e565b62000162826200024a565b6200016d8462000266565b6000600e55600b80546001600160a01b0319166001600160a01b039290921691909117905550620005f3915050565b3390565b600680546001600160a01b038381166001600160a01b0319831681179093556040519116919082907f8be0079c531659141344cd1fd0a4f28419497f9722a3daafe3b4186f6b6457e090600090a35050565b620001fc620002e9565b601a80546001600160a01b0319166001600160a01b0392909216919091179055565b62000228620002e9565b601680546001600160a01b0319166001600160a01b0392909216919091179055565b62000254620002e9565b600c620002628282620003ec565b5050565b62000270620002e9565b6001600160a01b038116620002db5760405162461bcd60e51b815260206004820152602660248201527f4f776e61626c653a206e6577206f776e657220697320746865207a65726f206160448201526564647265737360d01b60648201526084015b60405180910390fd5b620002e681620001a0565b50565b6006546001600160a01b03163314620003455760405162461bcd60e51b815260206004820181905260248201527f4f776e61626c653a2063616c6c6572206973206e6f7420746865206f776e65726044820152606401620002d2565b565b634e487b7160e01b600052604160045260246000fd5b600181811c908216806200037257607f821691505b6020821081036200039357634e487b7160e01b600052602260045260246000fd5b50919050565b601f821115620003e757600081815260208120601f850160051c81016020861015620003c25750805b601f850160051c820191505b81811015620003e357828155600101620003ce565b5050505b505050565b81516001600160401b0381111562000408576200040862000347565b62000420816200041984546200035d565b8462000399565b602080601f8311600181146200045857600084156200043f5750858301515b600019600386901b1c1916600185901b178555620003e3565b600085815260208120601f198616915b82811015620004895788860151825594840194600190910190840162000468565b5085821015620004a85787850151600019600388901b60f8161c191681555b5050505050600190811b01905550565b6001600160a01b0381168114620002e657600080fd5b8051620004db81620004b8565b919050565b60008060008060808587031215620004f757600080fd5b84516200050481620004b8565b809450506020808601516200051981620004b8565b60408701519094506001600160401b03808211156200053757600080fd5b818801915088601f8301126200054c57600080fd5b81518181111562000561576200056162000347565b604051601f8201601f19908116603f011681019083821181831017156200058c576200058c62000347565b816040528281528b86848701011115620005a557600080fd5b600093505b82841015620005c95784840186015181850187015292850192620005aa565b6000868483010152809750505050505050620005e860608601620004ce565b905092959194509250565b615d3580620006036000396000f3fe60806040526004361061043c5760003560e01c80637bf185aa11610234578063c87b56dd1161012e578063e025107f116100b6578063ea98eb1d1161007a578063ea98eb1d14610cd5578063f0f4426014610cf5578063f2fde38b14610d15578063f3ad65f414610d35578063f504764d14610d5557600080fd5b8063e025107f14610c5f578063e07fa3c114610c75578063e14ca35314610c8a578063e3e6a3ef14610c9f578063e985e9c514610cb557600080fd5b8063da71ff12116100fd578063da71ff1214610bde578063dc34c04114610bf3578063dc53fd9214610c09578063deecbfa814610c1f578063dffc857014610c3f57600080fd5b8063c87b56dd14610b5e578063ce3cd99714610b7e578063ce7cebf214610b9e578063d600671c14610bbe57600080fd5b8063a0712d68116101bc578063aa880b4f11610180578063aa880b4f14610ac6578063b7b637db14610adc578063b88d4fde14610afc578063c040e6b814610b1c578063c833e25814610b4857600080fd5b8063a0712d6814610a33578063a1db978214610a46578063a22cb46514610a66578063a611708e14610a86578063a8f6891614610aa657600080fd5b806395528bc51161020357806395528bc5146109a757806395d89b41146109c757806396330b5f146109dc5780639f181b5e14610a09578063a0617ad014610a1e57600080fd5b80637bf185aa14610933578063815d544c14610953578063877850ef146109695780638da5cb5b1461098957600080fd5b806338dc3a20116103455780635b8ad429116102cd5780636c0360eb116102915780636c0360eb146108b35780636cc29174146108c857806370a08231146108e8578063715018a614610908578063790188ae1461091d57600080fd5b80635b8ad4291461081e5780635d82cf6e1461083357806361d027b314610853578063627804af146108735780636352211e1461089357600080fd5b80634f558e79116103145780634f558e7914610777578063518302271461079757806355f804b3146107b157806358d95010146107d15780635b785034146107fe57600080fd5b806338dc3a20146106ed5780633bdf4ac61461070257806342842e0e1461072f5780634860d6da1461074f57600080fd5b806323b872dd116103c857806328d077681161039757806328d07768146106765780632f975f041461068b5780633246e467146106a15780633305048f146106b757806335c6aaf8146106d757600080fd5b806323b872dd146105b157806324436f77146105d157806326c1e750146105e457806327c7812c1461065657600080fd5b806311dceda71161040f57806311dceda7146104f257806312f269b91461052d57806318160ddd1461054d578063199854b2146105625780631b4663e81461058257600080fd5b806301ffc9a71461044157806306fdde0314610476578063081812fc14610498578063095ea7b3146104d0575b600080fd5b34801561044d57600080fd5b5061046161045c366004614a4a565b610d75565b60405190151581526020015b60405180910390f35b34801561048257600080fd5b5061048b610dc7565b60405161046d9190614abe565b3480156104a457600080fd5b506104b86104b3366004614ad1565b610e59565b6040516001600160a01b03909116815260200161046d565b3480156104dc57600080fd5b506104f06104eb366004614aff565b610e80565b005b3480156104fe57600080fd5b5061051f61050d366004614b2b565b60126020526000908152604090205481565b60405190815260200161046d565b34801561053957600080fd5b506104f0610548366004614b48565b610f9a565b34801561055957600080fd5b50600e5461051f565b34801561056e57600080fd5b506104f061057d366004614bb8565b611018565b34801561058e57600080fd5b506105a261059d366004614c35565b6110f5565b60405161046d93929190614c61565b3480156105bd57600080fd5b506104f06105cc366004614ca6565b6112de565b6104f06105df366004614d93565b61130f565b3480156105f057600080fd5b506106446105ff366004614ad1565b602080526000908152604090205460ff808216916101008104821691620100008204811691630100000081048216916401000000008204811691600160281b90041686565b60405161046d96959493929190614e5a565b34801561066257600080fd5b506104f0610671366004614b2b565b611596565b34801561068257600080fd5b5061048b6115c0565b34801561069757600080fd5b5061051f601d5481565b3480156106ad57600080fd5b5061051f60185481565b3480156106c357600080fd5b506104f06106d2366004614c35565b61164e565b3480156106e357600080fd5b5061051f60145481565b3480156106f957600080fd5b5061048b611b2a565b34801561070e57600080fd5b5061051f61071d366004614b2b565b60156020526000908152604090205481565b34801561073b57600080fd5b506104f061074a366004614ca6565b611b37565b34801561075b57600080fd5b50610764600481565b60405161ffff909116815260200161046d565b34801561078357600080fd5b50610461610792366004614ad1565b611b52565b3480156107a357600080fd5b506021546104619060ff1681565b3480156107bd57600080fd5b506104f06107cc366004614eab565b611b71565b3480156107dd57600080fd5b506107f16107ec366004614ad1565b611b85565b60405161046d9190614ef4565b34801561080a57600080fd5b506104f0610819366004614f5c565b611cd0565b34801561082a57600080fd5b506104f0611ce3565b34801561083f57600080fd5b506104f061084e366004614ad1565b611cff565b34801561085f57600080fd5b50601a546104b8906001600160a01b031681565b34801561087f57600080fd5b506104f061088e366004614aff565b611d0c565b34801561089f57600080fd5b506104b86108ae366004614ad1565b611de9565b3480156108bf57600080fd5b5061048b611e49565b3480156108d457600080fd5b506104f06108e3366004614f7e565b611e56565b3480156108f457600080fd5b5061051f610903366004614b2b565b611ea1565b34801561091457600080fd5b506104f0611f27565b34801561092957600080fd5b5061051f60105481565b34801561093f57600080fd5b506104f061094e366004614bb8565b611f3b565b34801561095f57600080fd5b5061051f600f5481565b34801561097557600080fd5b506104f0610984366004614ad1565b61200d565b34801561099557600080fd5b506006546001600160a01b03166104b8565b3480156109b357600080fd5b506104f06109c2366004614ad1565b61201a565b3480156109d357600080fd5b5061048b612027565b3480156109e857600080fd5b5061051f6109f7366004614b2b565b60196020526000908152604090205481565b348015610a1557600080fd5b5061051f612036565b348015610a2a57600080fd5b5060085461051f565b6104f0610a41366004614ad1565b612046565b348015610a5257600080fd5b506104f0610a61366004614aff565b6121a9565b348015610a7257600080fd5b506104f0610a81366004614ffe565b612228565b348015610a9257600080fd5b506104f0610aa1366004614ad1565b612233565b348015610ab257600080fd5b506104f0610ac1366004614ad1565b612240565b348015610ad257600080fd5b5061051f60135481565b348015610ae857600080fd5b506104f0610af7366004614bb8565b61224d565b348015610b0857600080fd5b506104f0610b17366004615037565b612321565b348015610b2857600080fd5b50600d54610b369060ff1681565b60405160ff909116815260200161046d565b348015610b5457600080fd5b5061051f60115481565b348015610b6a57600080fd5b5061048b610b79366004614ad1565b612359565b348015610b8a57600080fd5b506104f0610b993660046150a3565b612613565b348015610baa57600080fd5b506104f0610bb9366004614eab565b612631565b348015610bca57600080fd5b5061048b610bd93660046150eb565b612645565b348015610bea57600080fd5b50610764603281565b348015610bff57600080fd5b5061051f601e5481565b348015610c1557600080fd5b5061051f60175481565b348015610c2b57600080fd5b506104f0610c3a366004614bb8565b612773565b348015610c4b57600080fd5b506104f0610c5a366004614f5c565b61284b565b348015610c6b57600080fd5b5061051f601f5481565b348015610c8157600080fd5b506104f061285e565b348015610c9657600080fd5b5061051f6128fe565b348015610cab57600080fd5b5061051f601c5481565b348015610cc157600080fd5b50610461610cd0366004615145565b612915565b348015610ce157600080fd5b506104f0610cf0366004614ad1565b612943565b348015610d0157600080fd5b506104f0610d10366004614b2b565b612950565b348015610d2157600080fd5b506104f0610d30366004614b2b565b61297a565b348015610d4157600080fd5b50600b546104b8906001600160a01b031681565b348015610d6157600080fd5b506104f0610d70366004614b2b565b6129f0565b60006001600160e01b031982166380ac58cd60e01b1480610da657506001600160e01b03198216635b5e139f60e01b145b80610dc157506301ffc9a760e01b6001600160e01b03198316145b92915050565b606060008054610dd690615173565b80601f0160208091040260200160405190810160405280929190818152602001828054610e0290615173565b8015610e4f5780601f10610e2457610100808354040283529160200191610e4f565b820191906000526020600020905b815481529060010190602001808311610e3257829003601f168201915b5050505050905090565b6000610e6482612a1a565b506000908152600460205260409020546001600160a01b031690565b6000610e8b82611de9565b9050806001600160a01b0316836001600160a01b031603610efd5760405162461bcd60e51b815260206004820152602160248201527f4552433732313a20617070726f76616c20746f2063757272656e74206f776e656044820152603960f91b60648201526084015b60405180910390fd5b336001600160a01b0382161480610f195750610f198133612915565b610f8b5760405162461bcd60e51b815260206004820152603d60248201527f4552433732313a20617070726f76652063616c6c6572206973206e6f7420746f60448201527f6b656e206f776e6572206f7220617070726f76656420666f7220616c6c0000006064820152608401610ef4565b610f958383612a79565b505050565b610fa2612ae7565b60015b600d8110156110145760008181526020805260409020805460ff19166001908117909155611002908390610fd990846151c3565b600c8110610fe957610fe96151d6565b602002016020810190610ffc9190614b2b565b82612b41565b8061100c816151ec565b915050610fa5565b5050565b611020612ae7565b600d5460ff1660031461105657600d5460405163353ba46160e11b815260ff909116600482015260036024820152604401610ef4565b60005b818110156110ee57828282818110611073576110736151d6565b90506020020160208101906110889190615205565b6020600087878581811061109e5761109e6151d6565b60209081029290920135835250810191909152604001600020805463ff0000001916630100000083600a8111156110d7576110d7614e00565b0217905550806110e6816151ec565b915050611059565b5050505050565b600080611100614a16565b600085815260208080526040808320815160c08101909252805460ff8082168452929391929184019161010090910416600281111561114157611141614e00565b600281111561115257611152614e00565b8152815460209091019062010000900460ff16600381111561117657611176614e00565b600381111561118757611187614e00565b815281546020909101906301000000900460ff16600a8111156111ac576111ac614e00565b600a8111156111bd576111bd614e00565b81528154602090910190640100000000900460ff1660078111156111e3576111e3614e00565b60078111156111f4576111f4614e00565b81529054600160281b900460ff1615156020909101528051909150600061121b8783615220565b905060008360400151600381111561123557611235614e00565b905060326112438985615220565b60ff1611156112ae5760405162461bcd60e51b815260206004820152603160248201527f506c616e6574733a20506c616e65742063616e6e6f7420626520757067726164604482015270656420746f2074686973206c6576656c2160781b6064820152608401610ef4565b6112b9838383612b5b565b96506112c58383612c37565b95506112d18989612cbd565b9450505050509250925092565b6112e8338261336c565b6113045760405162461bcd60e51b8152600401610ef490615239565b610f958383836133ca565b3332146113565760405162461bcd60e51b8152602060048201526015602482015274506c616e6574733a206d7573742075736520454f4160581b6044820152606401610ef4565b82806113606128fe565b101561137e5760405162461bcd60e51b8152600401610ef490615286565b61138c338484600f5461353b565b6113a957604051638baa579f60e01b815260040160405180910390fd5b600d5460ff166001146113df57600d5460405163353ba46160e11b815260ff909116600482015260016024820152604401610ef4565b600f5460010361148f576011546113f690856152ce565b341461142d57346011548561140b91906152ce565b604051631068e6e760e01b815260048101929092526024820152604401610ef4565b6010543360009081526012602052604090205461144b9086906152e5565b111561146a57604051634ecf32dd60e11b815260040160405180910390fd5b33600090815260126020526040812080548692906114899084906152e5565b90915550505b600f5460020361151d576014546114a690856152ce565b34146114bb57346014548561140b91906152ce565b601354336000908152601560205260409020546114d99086906152e5565b11156114f857604051634ecf32dd60e11b815260040160405180910390fd5b33600090815260156020526040812080548692906115179084906152e5565b90915550505b83600e600082825461152f91906152e5565b90915550600090505b8481101561155a576115486135e7565b80611552816151ec565b915050611538565b5060405184815233907f73c70fae6461815259bb17577a08362a747e97f1b952b86e211522d4a24f95379060200160405180910390a250505050565b61159e612ae7565b600b80546001600160a01b0319166001600160a01b0392909216919091179055565b601b80546115cd90615173565b80601f01602080910402602001604051908101604052809291908181526020018280546115f990615173565b80156116465780601f1061161b57610100808354040283529160200191611646565b820191906000526020600020905b81548152906001019060200180831161162957829003601f168201915b505050505081565b600b54604080516329a33d0560e21b815290516000926001600160a01b03169163a68cf4149160048083019260209291908290030181865afa158015611698573d6000803e3d6000fd5b505050506040513d601f19601f820116820180604052508101906116bc91906152f8565b90506000600b60009054906101000a90046001600160a01b03166001600160a01b031663786d10866040518163ffffffff1660e01b8152600401602060405180830381865afa158015611713573d6000803e3d6000fd5b505050506040513d601f19601f8201168201806040525081019061173791906152f8565b90506000600b60009054906101000a90046001600160a01b03166001600160a01b0316638cc84db76040518163ffffffff1660e01b8152600401602060405180830381865afa15801561178e573d6000803e3d6000fd5b505050506040513d601f19601f820116820180604052508101906117b291906152f8565b9050336117be86611de9565b6001600160a01b0316146117e557604051630a40deb960e31b815260040160405180910390fd5b600d5460ff1660041461181d57600d5460405163353ba46160e11b815260ff9091166004808301919091526024820152604401610ef4565b60008581526020805260408120805490919062010000900460ff16600381111561184957611849614e00565b825490915060329061185f90889060ff16615220565b60ff161115611881576040516330531d7360e01b815260040160405180910390fd5b815460009061189c9060ff166118978982615220565b612c37565b83549091506000906118bb9060ff166118b58a82615220565b85612b5b565b905060006118c98a8a612cbd565b85549091506000906001908b90889084906118e890849060ff16615220565b92506101000a81548160ff021916908360ff1602179055505b600461ffff821611611a105760008361191b600184615315565b61ffff166004811061192f5761192f6151d6565b602002015161ffff16905080156119ef5787546001600160a01b038b169063f5298aca90339061ffff871690610100900460ff16600281111561197457611974614e00565b61197f9060016152e5565b61198991906152e5565b6040516001600160e01b031960e085901b1681526001600160a01b039092166004830152602482015260448101849052606401600060405180830381600087803b1580156119d657600080fd5b505af11580156119ea573d6000803e3d6000fd5b505050505b816119f981615330565b9250611a089050600384615351565b925050611901565b6040516323b872dd60e01b8152336004820152306024820152604481018690526001600160a01b038b16906323b872dd906064016020604051808303816000875af1158015611a63573d6000803e3d6000fd5b505050506040513d601f19601f82011682018060405250810190611a87919061536c565b508315611ae95760405163a7b8b49160e01b8152600481018590526001600160a01b0389169063a7b8b49190602401600060405180830381600087803b158015611ad057600080fd5b505af1158015611ae4573d6000803e3d6000fd5b505050505b865460405160ff909116908d907f50b7db618c3ed4d1fe8122fce987e7ea6245b41f8e0c64817c0eacaa225fd4eb90600090a3505050505050505050505050565b602280546115cd90615173565b610f9583838360405180602001604052806000815250612321565b6000818152600260205260408120546001600160a01b03161515610dc1565b611b79612ae7565b600c61101482826153d7565b611bbf6040805160c08101909152600080825260208201908152602001600081526020016000815260200160008152600060209091015290565b600082815260208080526040808320815160c08101909252805460ff80821684529293919291840191610100909104166002811115611c0057611c00614e00565b6002811115611c1157611c11614e00565b8152815460209091019062010000900460ff166003811115611c3557611c35614e00565b6003811115611c4657611c46614e00565b815281546020909101906301000000900460ff16600a811115611c6b57611c6b614e00565b600a811115611c7c57611c7c614e00565b81528154602090910190640100000000900460ff166007811115611ca257611ca2614e00565b6007811115611cb357611cb3614e00565b81529054600160281b900460ff1615156020909101529392505050565b611cd8612ae7565b601c91909155601d55565b611ceb612ae7565b6021805460ff19811660ff90911615179055565b611d07612ae7565b601755565b8080611d166128fe565b1015611d345760405162461bcd60e51b8152600401610ef490615286565b611d3c612ae7565b81600e6000828254611d4e91906152e5565b90915550600090505b82811015611da0576000611d69613615565b60008181526020805260409020805460ff191660011790559050611d8d3282612b41565b5080611d98816151ec565b915050611d57565b50826001600160a01b03167f748a2986091c2034d6e93b6f44f771a79f0e1d6acd8a60c68c17d4e1e2feaed283604051611ddc91815260200190565b60405180910390a2505050565b6000818152600260205260408120546001600160a01b031680610dc15760405162461bcd60e51b8152602060048201526018602482015277115490cdcc8c4e881a5b9d985b1a59081d1bdad95b88125160421b6044820152606401610ef4565b600c80546115cd90615173565b611e5e612ae7565b600d5460ff16600314611e9457600d5460405163353ba46160e11b815260ff909116600482015260036024820152604401610ef4565b601b610f95828483615497565b60006001600160a01b038216611f0b5760405162461bcd60e51b815260206004820152602960248201527f4552433732313a2061646472657373207a65726f206973206e6f7420612076616044820152683634b21037bbb732b960b91b6064820152608401610ef4565b506001600160a01b031660009081526003602052604090205490565b611f2f612ae7565b611f3960006137ae565b565b611f43612ae7565b600d5460ff16600314611f7957600d5460405163353ba46160e11b815260ff909116600482015260036024820152604401610ef4565b60005b838110156110ee57828282818110611f9657611f966151d6565b9050602002016020810190611fab9190615557565b60206000878785818110611fc157611fc16151d6565b60209081029290920135835250810191909152604001600020805461ff001916610100836002811115611ff657611ff6614e00565b021790555080612005816151ec565b915050611f7c565b612015612ae7565b600f55565b612022612ae7565b601055565b606060018054610dd690615173565b600061204160075490565b905090565b33321461208d5760405162461bcd60e51b8152602060048201526015602482015274506c616e6574733a206d7573742075736520454f4160581b6044820152606401610ef4565b80806120976128fe565b10156120b55760405162461bcd60e51b8152600401610ef490615286565b600d5460ff166002146120eb57600d5460405163353ba46160e11b815260ff909116600482015260026024820152604401610ef4565b336000908152601960205260408120805484929061210a9084906152e5565b9250508190555081600e600082825461212391906152e5565b909155505060175461213590836152ce565b341461214a57346017548361140b91906152ce565b60005b8281101561216f5761215d6135e7565b80612167816151ec565b91505061214d565b5060405182815233907f748a2986091c2034d6e93b6f44f771a79f0e1d6acd8a60c68c17d4e1e2feaed29060200160405180910390a25050565b6121b1612ae7565b601a5460405163a9059cbb60e01b81526001600160a01b039182166004820152602481018390529083169063a9059cbb906044016020604051808303816000875af1158015612204573d6000803e3d6000fd5b505050506040513d601f19601f82011682018060405250810190610f95919061536c565b611014338383613800565b61223b612ae7565b601455565b612248612ae7565b601155565b612255612ae7565b600d5460ff1660031461228b57600d5460405163353ba46160e11b815260ff909116600482015260036024820152604401610ef4565b60005b818110156110ee578282828181106122a8576122a86151d6565b90506020020160208101906122bd9190615572565b602060008787858181106122d3576122d36151d6565b60209081029290920135835250810191909152604001600020805462ff000019166201000083600381111561230a5761230a614e00565b021790555080612319816151ec565b91505061228e565b61232b338361336c565b6123475760405162461bcd60e51b8152600401610ef490615239565b612353848484846138ce565b50505050565b606061236482612a1a565b600082815260208080526040808320815160c08101909252805460ff808216845292939192918401916101009091041660028111156123a5576123a5614e00565b60028111156123b6576123b6614e00565b8152815460209091019062010000900460ff1660038111156123da576123da614e00565b60038111156123eb576123eb614e00565b815281546020909101906301000000900460ff16600a81111561241057612410614e00565b600a81111561242157612421614e00565b81528154602090910190640100000000900460ff16600781111561244757612447614e00565b600781111561245857612458614e00565b8152905460ff600160281b90910481161515602090920191909152815191925060009182916124879116613901565b915091506000612495610dc7565b61249e87613a38565b6040516020016124af9291906155af565b6040516020818303038152906040529050806040516020016124d19190615612565b60408051601f1981840301815291905260215490915060ff1661251557806040516020016124ff919061579c565b60405160208183030381529060405290506125a5565b806125238560200151613acb565b6125308660800151613b97565b61253d8760600151613d97565b60405160200161255094939291906157d1565b60405160208183030381529060405290508061256f8560400151614058565b83612580876000015160ff16613a38565b60405160200161259394939291906158f8565b60405160208183030381529060405290505b6125e6816125c186608001518760200151886060015188612645565b6040516020016125d29291906159ff565b604051602081830303815290604052614144565b9050806040516020016125f99190615a53565b604051602081830303815290604052945050505050919050565b61261b612ae7565b600d805460ff191660ff92909216919091179055565b612639612ae7565b602261101482826153d7565b60215460609060ff166126e4576022805461265f90615173565b80601f016020809104026020016040519081016040528092919081815260200182805461268b90615173565b80156126d85780601f106126ad576101008083540402835291602001916126d8565b820191906000526020600020905b8154815290600101906020018083116126bb57829003601f168201915b5050505050905061276b565b6126ec6142ab565b61270686600781111561270157612701614e00565b613a38565b61271b86600281111561270157612701614e00565b61273085600481111561270157612701614e00565b61274587600a81111561270157612701614e00565b604051602001612759959493929190615a98565b60405160208183030381529060405290505b949350505050565b61277b612ae7565b600d5460ff166003146127b157600d5460405163353ba46160e11b815260ff909116600482015260036024820152604401610ef4565b60005b818110156110ee578282828181106127ce576127ce6151d6565b90506020020160208101906127e39190615b36565b602060008787858181106127f9576127f96151d6565b60209081029290920135835250810191909152604001600020805464ff00000000191664010000000083600781111561283457612834614e00565b021790555080612843816151ec565b9150506127b4565b612853612ae7565b601e91909155601f55565b612866612ae7565b601a546040516000916001600160a01b03169047908381818185875af1925050503d80600081146128b3576040519150601f19603f3d011682016040523d82523d6000602084013e6128b8565b606091505b50509050806128fb5760405162461bcd60e51b815260206004820152600f60248201526e151c985b9cd9995c8819985a5b1959608a1b6044820152606401610ef4565b50565b6000612908612036565b60085461204191906151c3565b6001600160a01b03918216600090815260056020908152604080832093909416825291909152205460ff1690565b61294b612ae7565b601355565b612958612ae7565b601a80546001600160a01b0319166001600160a01b0392909216919091179055565b612982612ae7565b6001600160a01b0381166129e75760405162461bcd60e51b815260206004820152602660248201527f4f776e61626c653a206e6577206f776e657220697320746865207a65726f206160448201526564647265737360d01b6064820152608401610ef4565b6128fb816137ae565b6129f8612ae7565b601680546001600160a01b0319166001600160a01b0392909216919091179055565b6000818152600260205260409020546001600160a01b03166128fb5760405162461bcd60e51b8152602060048201526018602482015277115490cdcc8c4e881a5b9d985b1a59081d1bdad95b88125160421b6044820152606401610ef4565b600081815260046020526040902080546001600160a01b0319166001600160a01b0384169081179091558190612aae82611de9565b6001600160a01b03167f8c5be1e5ebec7d5bd14f71427d1e84f3dd0314c0f7b2291e5b200ac8c7c3b92560405160405180910390a45050565b6006546001600160a01b03163314611f395760405162461bcd60e51b815260206004820181905260248201527f4f776e61626c653a2063616c6c6572206973206e6f7420746865206f776e65726044820152606401610ef4565b6110148282604051806020016040528060008152506142ba565b600060ff84161580612b7357508260ff168460ff1610155b15612b9e57604051635cc08ee560e01b815260ff808616600483015284166024820152604401610ef4565b60ff84165b8360ff16811015612c2f57612710601f548460ff16612bc291906152ce565b612bcd9060646152e5565b601e54612bdb6001856151c3565b612be591906152ce565b612bf09060646152e5565b612bfa91906152ce565b601d54612c0791906152ce565b612c119190615b67565b612c1b90836152e5565b915080612c27816151ec565b915050612ba3565b509392505050565b600060ff83161580612c4f57508160ff168360ff1610155b15612c7a57604051635cc08ee560e01b815260ff808516600483015283166024820152604401610ef4565b60ff83165b8260ff16811015612cb65780601c54612c9891906152ce565b612ca290836152e5565b915080612cae816151ec565b915050612c7f565b5092915050565b612cc5614a16565b600083815260208080526040808320815160c08101909252805460ff80821684529293919291840191610100909104166002811115612d0657612d06614e00565b6002811115612d1757612d17614e00565b8152815460209091019062010000900460ff166003811115612d3b57612d3b614e00565b6003811115612d4c57612d4c614e00565b815281546020909101906301000000900460ff16600a811115612d7157612d71614e00565b600a811115612d8257612d82614e00565b81528154602090910190640100000000900460ff166007811115612da857612da8614e00565b6007811115612db957612db9614e00565b81529054600160281b900460ff16151560209091015280519091506000612de08583615220565b9050600083604001516003811115612dfa57612dfa614e00565b90506032612e088785615220565b60ff161115612e2a576040516330531d7360e01b815260040160405180910390fd5b612ec7601b8054612e3a90615173565b80601f0160208091040260200160405190810160405280929190818152602001828054612e6690615173565b8015612eb35780601f10612e8857610100808354040283529160200191612eb3565b820191906000526020600020905b815481529060010190602001808311612e9657829003601f168201915b50505050508260ff168560ff1660006142ed565b612f64601b8054612ed790615173565b80601f0160208091040260200160405190810160405280929190818152602001828054612f0390615173565b8015612f505780601f10612f2557610100808354040283529160200191612f50565b820191906000526020600020905b815481529060010190602001808311612f3357829003601f168201915b50505050508360ff168560ff1660006142ed565b612f6e9190615315565b61ffff168552601b80546130139190612f8690615173565b80601f0160208091040260200160405190810160405280929190818152602001828054612fb290615173565b8015612fff5780601f10612fd457610100808354040283529160200191612fff565b820191906000526020600020905b815481529060010190602001808311612fe257829003601f168201915b50505050508260ff168560ff1660016142ed565b6130b0601b805461302390615173565b80601f016020809104026020016040519081016040528092919081815260200182805461304f90615173565b801561309c5780601f106130715761010080835404028352916020019161309c565b820191906000526020600020905b81548152906001019060200180831161307f57829003601f168201915b50505050508360ff168560ff1660016142ed565b6130ba9190615315565b61ffff166020860152601b805461316291906130d590615173565b80601f016020809104026020016040519081016040528092919081815260200182805461310190615173565b801561314e5780601f106131235761010080835404028352916020019161314e565b820191906000526020600020905b81548152906001019060200180831161313157829003601f168201915b50505050508260ff168560ff1660026142ed565b6131ff601b805461317290615173565b80601f016020809104026020016040519081016040528092919081815260200182805461319e90615173565b80156131eb5780601f106131c0576101008083540402835291602001916131eb565b820191906000526020600020905b8154815290600101906020018083116131ce57829003601f168201915b50505050508360ff168560ff1660026142ed565b6132099190615315565b61ffff166040860152601b80546132b1919061322490615173565b80601f016020809104026020016040519081016040528092919081815260200182805461325090615173565b801561329d5780601f106132725761010080835404028352916020019161329d565b820191906000526020600020905b81548152906001019060200180831161328057829003601f168201915b50505050508260ff168560ff1660036142ed565b61334e601b80546132c190615173565b80601f01602080910402602001604051908101604052809291908181526020018280546132ed90615173565b801561333a5780601f1061330f5761010080835404028352916020019161333a565b820191906000526020600020905b81548152906001019060200180831161331d57829003601f168201915b50505050508360ff168560ff1660036142ed565b6133589190615315565b61ffff166060860152509295945050505050565b60008061337883611de9565b9050806001600160a01b0316846001600160a01b0316148061339f575061339f8185612915565b8061276b5750836001600160a01b03166133b884610e59565b6001600160a01b031614949350505050565b826001600160a01b03166133dd82611de9565b6001600160a01b0316146134035760405162461bcd60e51b8152600401610ef490615b7b565b6001600160a01b0382166134655760405162461bcd60e51b8152602060048201526024808201527f4552433732313a207472616e7366657220746f20746865207a65726f206164646044820152637265737360e01b6064820152608401610ef4565b6134728383836001614394565b826001600160a01b031661348582611de9565b6001600160a01b0316146134ab5760405162461bcd60e51b8152600401610ef490615b7b565b600081815260046020908152604080832080546001600160a01b03199081169091556001600160a01b0387811680865260038552838620805460001901905590871680865283862080546001019055868652600290945282852080549092168417909155905184937fddf252ad1be2c89b69c2b068fc378daa952ba7f163c4a11628f55a4df523b3ef91a4505050565b60008085858460405160200161355393929190615bc0565b6040516020818303038152906040528051906020012090506135cc846135c6836040517f19457468657265756d205369676e6564204d6573736167653a0a3332000000006020820152603c8101829052600090605c01604051602081830303815290604052805190602001209050919050565b9061441c565b6016546001600160a01b039182169116149695505050505050565b60006135f1613615565b60008181526020805260409020805460ff1916600117905590506128fb3382612b41565b6000806136206128fe565b1161366d5760405162461bcd60e51b815260206004820152601860248201527f4e6f206d6f726520746f6b656e7320617661696c61626c6500000000000000006044820152606401610ef4565b6000613677612036565b60085461368491906151c3565b6040516bffffffffffffffffffffffff1933606090811b8216602084015241901b166034820152446048820152456068820152426088820152909150600090829060a8016040516020818303038152906040528051906020012060001c6136eb9190615bff565b60008181526009602052604081205491925090810361370b57508061371c565b506000818152600960205260409020545b6009600061372b6001866151c3565b8152602001908152602001600020546000036137605761374c6001846151c3565b600083815260096020526040902055613790565b6009600061376f6001866151c3565b81526020808201929092526040908101600090812054858252600990935220555b613798614438565b50600a546137a690826152e5565b935050505090565b600680546001600160a01b038381166001600160a01b0319831681179093556040519116919082907f8be0079c531659141344cd1fd0a4f28419497f9722a3daafe3b4186f6b6457e090600090a35050565b816001600160a01b0316836001600160a01b0316036138615760405162461bcd60e51b815260206004820152601960248201527f4552433732313a20617070726f766520746f2063616c6c6572000000000000006044820152606401610ef4565b6001600160a01b03838116600081815260056020908152604080832094871680845294825291829020805460ff191686151590811790915591519182527f17307eab39ab6107e8899845ad3d59bd9653f200f220920489ca2b5937696c31910160405180910390a3505050565b6138d98484846133ca565b6138e584848484614454565b6123535760405162461bcd60e51b8152600401610ef490615c13565b6000606060148361ffff161015613938575050604080518082019091526005815264416c70686160d81b6020820152600090915091565b60148361ffff16101580156139515750601e8361ffff16105b1561397b5750506040805180820190915260048152634265746160e01b6020820152600190915091565b601e8361ffff1610158015613994575060288361ffff16105b156139bf57505060408051808201909152600581526447616d6d6160d81b6020820152600290915091565b60288361ffff16101580156139d8575060328361ffff16105b15613a0357505060408051808201909152600581526444656c746160d81b6020820152600390915091565b8261ffff16603203613a3357505060408051808201909152600781526622b839b4b637b760c91b60208201526004905b915091565b60606000613a4583614552565b600101905060008167ffffffffffffffff811115613a6557613a65614ce7565b6040519080825280601f01601f191660200182016040528015613a8f576020820181803683370190505b5090508181016020015b600019016f181899199a1a9b1b9c1cb0b131b232b360811b600a86061a8153600a8504945084613a9957509392505050565b60606000826002811115613ae157613ae1614e00565b03613b065750506040805180820190915260048152634669726560e01b602082015290565b6002826002811115613b1a57613b1a614e00565b03613b4057505060408051808201909152600581526414dd19595b60da1b602082015290565b6001826002811115613b5457613b54614e00565b03613b7e5750506040805180820190915260098152684c696768746e696e6760b81b602082015290565b505060408051602081019091526000815290565b919050565b60606000826007811115613bad57613bad614e00565b03613bd957505060408051808201909152600b81526a507572706c65204875657360a81b602082015290565b6001826007811115613bed57613bed614e00565b03613c1857505060408051808201909152600a81526942726f776e204875657360b01b602082015290565b6002826007811115613c2c57613c2c614e00565b03613c515750506040805180820190915260048152635761767960e01b602082015290565b6003826007811115613c6557613c65614e00565b03613c9457505060408051808201909152600e81526d53686f6f74696e6720537461727360901b602082015290565b6006826007811115613ca857613ca8614e00565b03613cd257505060408051808201909152600981526815d85d9e4811dbdb1960ba1b602082015290565b6005826007811115613ce657613ce6614e00565b03613d1a575050604080518082019091526013815272476f6c642053686f6f74696e6720537461727360681b602082015290565b6004826007811115613d2e57613d2e614e00565b03613d58575050604080518082019091526009815268476f6c64204875657360b81b602082015290565b6007826007811115613d6c57613d6c614e00565b03613b7e57505060408051808201909152600a815269476f6c6420536b69657360b01b602082015290565b6060600082600a811115613dad57613dad614e00565b03613dd757505060408051808201909152600981526848616c6f2052696e6760b81b602082015290565b600182600a811115613deb57613deb614e00565b03613e1357505060408051808201909152600781526650616e646f726160c81b602082015290565b600282600a811115613e2757613e27614e00565b03613e4d57505060408051808201909152600581526441746c617360d81b602082015290565b600382600a811115613e6157613e61614e00565b03613e875750506040805180820190915260058152644d6574697360d81b602082015290565b600482600a811115613e9b57613e9b614e00565b03613ec4575050604080518082019091526008815267115b9d1dda5b995960c21b602082015290565b600582600a811115613ed857613ed8614e00565b03613f0757505060408051808201909152600e81526d5261696e626f7720436c6f75647360901b602082015290565b600682600a811115613f1b57613f1b614e00565b03613f4457505060408051808201909152600881526747616c617469636160c01b602082015290565b600782600a811115613f5857613f58614e00565b03613f8257505060408051808201909152600981526841737465726f69647360b81b602082015290565b600882600a811115613f9657613f96614e00565b03613fc8575050604080518082019091526011815270496e7465727374656c6c61722050696e6b60781b602082015290565b600982600a811115613fdc57613fdc614e00565b03614012575050604080518082019091526015815274125b9d195c9cdd195b1b185c8811dc98591a595b9d605a1b602082015290565b600a82600a81111561402657614026614e00565b03613b7e575050604080518082019091526011815270125b9d195c9cdd195b1b185c8811dbdb19607a1b602082015290565b6060600082600381111561406e5761406e614e00565b0361409557505060408051808201909152600681526521b7b6b6b7b760d11b602082015290565b60018260038111156140a9576140a9614e00565b036140d25750506040805180820190915260088152672ab731b7b6b6b7b760c11b602082015290565b60028260038111156140e6576140e6614e00565b0361410b5750506040805180820190915260048152635261726560e01b602082015290565b600382600381111561411f5761411f614e00565b03613b7e5750506040805180820190915260048152634570696360e01b602082015290565b6060815160000361416357505060408051602081019091526000815290565b6000604051806060016040528060408152602001615cc0604091399050600060038451600261419291906152e5565b61419c9190615b67565b6141a79060046152ce565b905060006141b68260206152e5565b67ffffffffffffffff8111156141ce576141ce614ce7565b6040519080825280601f01601f1916602001820160405280156141f8576020820181803683370190505b509050818152600183018586518101602084015b818310156142665760039283018051603f601282901c811687015160f890811b8552600c83901c8216880151811b6001860152600683901c8216880151811b60028601529116860151901b9382019390935260040161420c565b60038951066001811461428057600281146142915761429d565b613d3d60f01b60011983015261429d565b603d60f81b6000198301525b509398975050505050505050565b6060600c8054610dd690615173565b6142c4838361462a565b6142d16000848484614454565b610f955760405162461bcd60e51b8152600401610ef490615c13565b6000806142fb8360026152ce565b6143066001866151c3565b6143119060206152ce565b61431c8760086152ce565b61432691906152e5565b61433091906152e5565b905061433d8160026152e5565b865110156143845760405162461bcd60e51b8152602060048201526014602482015273746f55696e7431365f6f75744f66426f756e647360601b6044820152606401610ef4565b9490940160020151949350505050565b6001811115612353576001600160a01b038416156143da576001600160a01b038416600090815260036020526040812080548392906143d49084906151c3565b90915550505b6001600160a01b03831615612353576001600160a01b038316600090815260036020526040812080548392906144119084906152e5565b909155505050505050565b600080600061442b85856147c3565b91509150612c2f81614808565b60008061444460075490565b9050613b92600780546001019055565b60006001600160a01b0384163b1561454a57604051630a85bd0160e11b81526001600160a01b0385169063150b7a0290614498903390899088908890600401615c65565b6020604051808303816000875af19250505080156144d3575060408051601f3d908101601f191682019092526144d091810190615ca2565b60015b614530573d808015614501576040519150601f19603f3d011682016040523d82523d6000602084013e614506565b606091505b5080516000036145285760405162461bcd60e51b8152600401610ef490615c13565b805181602001fd5b6001600160e01b031916630a85bd0160e11b14905061276b565b50600161276b565b60008072184f03e93ff9f4daa797ed6e38ed64bf6a1f0160401b83106145915772184f03e93ff9f4daa797ed6e38ed64bf6a1f0160401b830492506040015b6d04ee2d6d415b85acef810000000083106145bd576d04ee2d6d415b85acef8100000000830492506020015b662386f26fc1000083106145db57662386f26fc10000830492506010015b6305f5e10083106145f3576305f5e100830492506008015b612710831061460757612710830492506004015b60648310614619576064830492506002015b600a8310610dc15760010192915050565b6001600160a01b0382166146805760405162461bcd60e51b815260206004820181905260248201527f4552433732313a206d696e7420746f20746865207a65726f20616464726573736044820152606401610ef4565b6000818152600260205260409020546001600160a01b0316156146e55760405162461bcd60e51b815260206004820152601c60248201527f4552433732313a20746f6b656e20616c7265616479206d696e746564000000006044820152606401610ef4565b6146f3600083836001614394565b6000818152600260205260409020546001600160a01b0316156147585760405162461bcd60e51b815260206004820152601c60248201527f4552433732313a20746f6b656e20616c7265616479206d696e746564000000006044820152606401610ef4565b6001600160a01b038216600081815260036020908152604080832080546001019055848352600290915280822080546001600160a01b0319168417905551839291907fddf252ad1be2c89b69c2b068fc378daa952ba7f163c4a11628f55a4df523b3ef908290a45050565b60008082516041036147f95760208301516040840151606085015160001a6147ed87828585614952565b94509450505050614801565b506000905060025b9250929050565b600081600481111561481c5761481c614e00565b036148245750565b600181600481111561483857614838614e00565b036148855760405162461bcd60e51b815260206004820152601860248201527f45434453413a20696e76616c6964207369676e617475726500000000000000006044820152606401610ef4565b600281600481111561489957614899614e00565b036148e65760405162461bcd60e51b815260206004820152601f60248201527f45434453413a20696e76616c6964207369676e6174757265206c656e677468006044820152606401610ef4565b60038160048111156148fa576148fa614e00565b036128fb5760405162461bcd60e51b815260206004820152602260248201527f45434453413a20696e76616c6964207369676e6174757265202773272076616c604482015261756560f01b6064820152608401610ef4565b6000807f7fffffffffffffffffffffffffffffff5d576e7357a4501ddfe92f46681b20a08311156149895750600090506003614a0d565b6040805160008082526020820180845289905260ff881692820192909252606081018690526080810185905260019060a0016020604051602081039080840390855afa1580156149dd573d6000803e3d6000fd5b5050604051601f1901519150506001600160a01b038116614a0657600060019250925050614a0d565b9150600090505b94509492505050565b60405180608001604052806004906020820280368337509192915050565b6001600160e01b0319811681146128fb57600080fd5b600060208284031215614a5c57600080fd5b8135614a6781614a34565b9392505050565b60005b83811015614a89578181015183820152602001614a71565b50506000910152565b60008151808452614aaa816020860160208601614a6e565b601f01601f19169290920160200192915050565b602081526000614a676020830184614a92565b600060208284031215614ae357600080fd5b5035919050565b6001600160a01b03811681146128fb57600080fd5b60008060408385031215614b1257600080fd5b8235614b1d81614aea565b946020939093013593505050565b600060208284031215614b3d57600080fd5b8135614a6781614aea565b6000610180808385031215614b5c57600080fd5b838184011115614b6b57600080fd5b509092915050565b60008083601f840112614b8557600080fd5b50813567ffffffffffffffff811115614b9d57600080fd5b6020830191508360208260051b850101111561480157600080fd5b60008060008060408587031215614bce57600080fd5b843567ffffffffffffffff80821115614be657600080fd5b614bf288838901614b73565b90965094506020870135915080821115614c0b57600080fd5b50614c1887828801614b73565b95989497509550505050565b803560ff81168114613b9257600080fd5b60008060408385031215614c4857600080fd5b82359150614c5860208401614c24565b90509250929050565b838152602080820184905260c0820190604083018460005b6004811015614c9a57815161ffff1683529183019190830190600101614c79565b50505050949350505050565b600080600060608486031215614cbb57600080fd5b8335614cc681614aea565b92506020840135614cd681614aea565b929592945050506040919091013590565b634e487b7160e01b600052604160045260246000fd5b600067ffffffffffffffff80841115614d1857614d18614ce7565b604051601f8501601f19908116603f01168101908282118183101715614d4057614d40614ce7565b81604052809350858152868686011115614d5957600080fd5b858560208301376000602087830101525050509392505050565b600082601f830112614d8457600080fd5b614a6783833560208501614cfd565b600080600060608486031215614da857600080fd5b83359250602084013567ffffffffffffffff80821115614dc757600080fd5b614dd387838801614d73565b93506040860135915080821115614de957600080fd5b50614df686828701614d73565b9150509250925092565b634e487b7160e01b600052602160045260246000fd5b60038110614e2657614e26614e00565b9052565b60048110614e2657614e26614e00565b600b8110614e2657614e26614e00565b60088110614e2657614e26614e00565b60ff8716815260c08101614e716020830188614e16565b614e7e6040830187614e2a565b614e8b6060830186614e3a565b614e986080830185614e4a565b82151560a0830152979650505050505050565b600060208284031215614ebd57600080fd5b813567ffffffffffffffff811115614ed457600080fd5b8201601f81018413614ee557600080fd5b61276b84823560208401614cfd565b815160ff16815260208083015160c0830191614f1290840182614e16565b506040830151614f256040840182614e2a565b506060830151614f386060840182614e3a565b506080830151614f4b6080840182614e4a565b5060a0928301511515919092015290565b60008060408385031215614f6f57600080fd5b50508035926020909101359150565b60008060208385031215614f9157600080fd5b823567ffffffffffffffff80821115614fa957600080fd5b818501915085601f830112614fbd57600080fd5b813581811115614fcc57600080fd5b866020828501011115614fde57600080fd5b60209290920196919550909350505050565b80151581146128fb57600080fd5b6000806040838503121561501157600080fd5b823561501c81614aea565b9150602083013561502c81614ff0565b809150509250929050565b6000806000806080858703121561504d57600080fd5b843561505881614aea565b9350602085013561506881614aea565b925060408501359150606085013567ffffffffffffffff81111561508b57600080fd5b61509787828801614d73565b91505092959194509250565b6000602082840312156150b557600080fd5b614a6782614c24565b803560088110613b9257600080fd5b803560038110613b9257600080fd5b8035600b8110613b9257600080fd5b6000806000806080858703121561510157600080fd5b61510a856150be565b9350615118602086016150cd565b9250615126604086016150dc565b915060608501356005811061513a57600080fd5b939692955090935050565b6000806040838503121561515857600080fd5b823561516381614aea565b9150602083013561502c81614aea565b600181811c9082168061518757607f821691505b6020821081036151a757634e487b7160e01b600052602260045260246000fd5b50919050565b634e487b7160e01b600052601160045260246000fd5b81810381811115610dc157610dc16151ad565b634e487b7160e01b600052603260045260246000fd5b6000600182016151fe576151fe6151ad565b5060010190565b60006020828403121561521757600080fd5b614a67826150dc565b60ff8181168382160190811115610dc157610dc16151ad565b6020808252602d908201527f4552433732313a2063616c6c6572206973206e6f7420746f6b656e206f776e6560408201526c1c881bdc88185c1c1c9bdd9959609a1b606082015260800190565b60208082526028908201527f526571756573746564206e756d626572206f6620746f6b656e73206e6f7420616040820152677661696c61626c6560c01b606082015260800190565b8082028115828204841417610dc157610dc16151ad565b80820180821115610dc157610dc16151ad565b60006020828403121561530a57600080fd5b8151614a6781614aea565b61ffff828116828216039080821115612cb657612cb66151ad565b600061ffff808316818103615347576153476151ad565b6001019392505050565b61ffff818116838216019080821115612cb657612cb66151ad565b60006020828403121561537e57600080fd5b8151614a6781614ff0565b601f821115610f9557600081815260208120601f850160051c810160208610156153b05750805b601f850160051c820191505b818110156153cf578281556001016153bc565b505050505050565b815167ffffffffffffffff8111156153f1576153f1614ce7565b615405816153ff8454615173565b84615389565b602080601f83116001811461543a57600084156154225750858301515b600019600386901b1c1916600185901b1785556153cf565b600085815260208120601f198616915b828110156154695788860151825594840194600190910190840161544a565b50858210156154875787850151600019600388901b60f8161c191681555b5050505050600190811b01905550565b67ffffffffffffffff8311156154af576154af614ce7565b6154c3836154bd8354615173565b83615389565b6000601f8411600181146154f757600085156154df5750838201355b600019600387901b1c1916600186901b1783556110ee565b600083815260209020601f19861690835b828110156155285786850135825560209485019460019092019101615508565b50868210156155455760001960f88860031b161c19848701351681555b505060018560011b0183555050505050565b60006020828403121561556957600080fd5b614a67826150cd565b60006020828403121561558457600080fd5b813560048110614a6757600080fd5b600081516155a5818560208601614a6e565b9290920192915050565b693d913730b6b2911d101160b11b815282516000906155d581600a850160208801614a6e565b61202360f01b600a9184019182015283516155f781600c840160208801614a6e565b61088b60f21b600c9290910191820152600e01949350505050565b60008251615624818460208701614a6e565b7f226465736372697074696f6e223a202257656c636f6d6520746f2074686520639201918252507f61707469766174696e67207265616c6d206f662041746c616e7469732c20746860208201527f652067616d652d766572736520616e6420686f6d65206f6620746865206c656760408201527f656e64617279204172676f6e617574732e20506c616e6574732061726520636f60608201527f7665746564206c616e6473207468617420686f6c6420746865206b657920746f60808201527f20796f7572207375636365737320696e207468652067616d652e20416371756960a08201527f726520706c616e6574732c20656d6261726b206f6e206578636974696e67206560c08201527f787065646974696f6e732c20616e64206561726e20726577617264732074686160e08201527f742077696c6c20737570657263686172676520796f75722067726f77746820696101008201526c1b88105d1b185b9d1a5ccb888b609a1b61012082015261012d01919050565b600082516157ae818460208701614a6e565b7008985d1d1c9a589d5d195cc88e8816d74b607a1b920191825250601101919050565b600085516157e3818460208a01614a6e565b80830190507f2261747472696275746573223a205b7b2274726169745f74797065223a2022458152723632b6b2b73a111610113b30b63ab2911d101160691b6020820152855161583a816033840160208a01614a6e565b62089f4b60ea1b6033929091019182018190527f7b2274726169745f74797065223a20224261636b67726f756e64222c20227661603683015266363ab2911d101160c91b60568301819052865161589881605d860160208b01614a6e565b605d9301928301919091527f7b2274726169745f74797065223a20224f72626974204e616d65222c20227661606083015260808201526158ed6158de6087830186615593565b62089f4b60ea1b815260030190565b979650505050505050565b6000855161590a818460208a01614a6e565b80830190507f7b2274726169745f74797065223a20224f72626974222c202276616c7565223a815261101160f11b8060208301528651615951816022850160208b01614a6e565b62089f4b60ea1b6022939091019283018190527f7b2274726169745f74797065223a202245766f6c7574696f6e222c202276616c6025840152653ab2911d101160d11b604584015286516159ac81604b860160208b01614a6e565b604b9301928301527f7b2274726169745f74797065223a20224c6576656c222c202276616c7565223a604e830152606e8201526158ed6159ef6070830186615593565b63089f574b60e21b815260040190565b60008351615a11818460208801614a6e565b691134b6b0b3b2911d101160b11b9083019081528351615a3881600a840160208801614a6e565b61227d60f01b600a9290910191820152600c01949350505050565b7f646174613a6170706c69636174696f6e2f6a736f6e3b6261736536342c000000815260008251615a8b81601d850160208701614a6e565b91909101601d0192915050565b60008651615aaa818460208b01614a6e565b865190830190615abe818360208b01614a6e565b602f60f81b91018181528651909190615ade816001850160208b01614a6e565b600192019182018190528551615afb816002850160208a01614a6e565b60029201918201528351615b16816003840160208801614a6e565b632e706e6760e01b60039290910191820152600701979650505050505050565b600060208284031215615b4857600080fd5b614a67826150be565b634e487b7160e01b600052601260045260246000fd5b600082615b7657615b76615b51565b500490565b60208082526025908201527f4552433732313a207472616e736665722066726f6d20696e636f72726563742060408201526437bbb732b960d91b606082015260800190565b6bffffffffffffffffffffffff198460601b16815260008351615bea816014850160208801614a6e565b60149201918201929092526034019392505050565b600082615c0e57615c0e615b51565b500690565b60208082526032908201527f4552433732313a207472616e7366657220746f206e6f6e20455243373231526560408201527131b2b4bb32b91034b6b83632b6b2b73a32b960711b606082015260800190565b6001600160a01b0385811682528416602082015260408101839052608060608201819052600090615c9890830184614a92565b9695505050505050565b600060208284031215615cb457600080fd5b8151614a6781614a3456fe4142434445464748494a4b4c4d4e4f505152535455565758595a6162636465666768696a6b6c6d6e6f707172737475767778797a303132333435363738392b2fa2646970667358221220fb7dd33733ac7508fcef64d1e588eeca340523551a43979c3b470e70ec0e174064736f6c63430008110033697066733a2f2f626166796265696361626d7634636362626c6e6e706671367135726735737232717171346d633779377933747179667a7469777a726b6666357669",
  "devdoc": {
    "details": "Max Supply of 6000 planetsFirst 12 planets are EPIC planets",
    "kind": "dev",
    "methods": {
      "approve(address,uint256)": {
        "details": "See {IERC721-approve}."
      },
      "availableTokenCount()": {
        "details": "Check whether tokens are still available",
        "returns": {
          "_0": "the available token count"
        }
      },
      "balanceOf(address)": {
        "details": "See {IERC721-balanceOf}."
      },
      "getApproved(uint256)": {
        "details": "See {IERC721-getApproved}."
      },
      "getPlanetDetails(uint256)": {
        "details": "Planet details include: level, element, orbit, onExpedition"
      },
      "isApprovedForAll(address,address)": {
        "details": "See {IERC721-isApprovedForAll}."
      },
      "mint(uint256)": {
        "params": {
          "_mintAmount": "Amount that is minted"
        }
      },
      "name()": {
        "details": "See {IERC721Metadata-name}."
      },
      "owner()": {
        "details": "Returns the address of the current owner."
      },
      "ownerOf(uint256)": {
        "details": "See {IERC721-ownerOf}."
      },
      "renounceOwnership()": {
        "details": "Leaves the contract without owner. It will not be possible to call `onlyOwner` functions anymore. Can only be called by the current owner. NOTE: Renouncing ownership will leave the contract without an owner, thereby removing any functionality that is only available to the owner."
      },
      "safeTransferFrom(address,address,uint256)": {
        "details": "See {IERC721-safeTransferFrom}."
      },
      "safeTransferFrom(address,address,uint256,bytes)": {
        "details": "See {IERC721-safeTransferFrom}."
      },
      "setAddressRegistry(address)": {
        "params": {
          "_addressRegistry": "The address of the Address Registry"
        }
      },
      "setApprovalForAll(address,bool)": {
        "details": "See {IERC721-setApprovalForAll}."
      },
      "setBaseCosts(uint256,uint256)": {
        "details": "Set xArgo And Stardust base costs",
        "params": {
          "_stardustBaseCost": "Stardust base cost",
          "_xArgoBaseCost": "xArgo base cost"
        }
      },
      "setBaseURI(string)": {
        "details": "Set Revealed Metadata URI"
      },
      "setLevelUpGemstone(bytes)": {
        "details": "_data is packed as follows:     Cumulative cost for each gemstone tier for each planet type              | Common              | Uncommon            | Rare                | Epic              | T1   T2   T3   T4   | T1   T2   T3   T4   | T1   T2   T3   T4   | T1   T2   T3   T4     Level 1  | 0000 0000 0000 0000 | 0000 0000 0000 0000 | 0000 0000 0000 0000 | 0000 0000 0000 0000     ...     Level 50 | 0122 00af 00e1 0113 | 015c 00d2 010e 014a | 0196 00f5 013b 0181 | 01d0 0118 0168 01b8",
        "params": {
          "_data": "gemstone cost packed in bytes"
        }
      },
      "setPlanetBackgrounds(uint256[],uint8[])": {
        "details": "Set planet backgrounds",
        "params": {
          "_backgrounds": "Backgrounds of planets",
          "_tokenIds": "Token ID of planets"
        }
      },
      "setPlanetElements(uint256[],uint8[])": {
        "details": "Set planet element",
        "params": {
          "_gemstoneTypes": "Element of planets",
          "_tokenIds": "Token ID of planets"
        }
      },
      "setPlanetOrbitNames(uint256[],uint8[])": {
        "details": "Set planet orbit names",
        "params": {
          "_planetOrbitNames": "Orbit Names of planets",
          "_tokenIds": "Token ID of planets"
        }
      },
      "setPlanetOrbits(uint256[],uint8[])": {
        "details": "Set planet orbit",
        "params": {
          "_planetOrbits": "Orbit of planets",
          "_tokenIds": "Token ID of planets"
        }
      },
      "setPublicMintPrice(uint256)": {
        "details": "Set public mint price"
      },
      "setScaling(uint256,uint256)": {
        "details": "Set stardust scaling costs",
        "params": {
          "_stardustBaseCostScaling": "sd base cost scaling",
          "_stardustRarityCostScaling": "Stardust rarity cost scaling"
        }
      },
      "setStage(uint8)": {
        "details": "Set stage of minting"
      },
      "setUnrevealedImageURI(string)": {
        "details": "Set Unrevealed Metadata URI"
      },
      "setVipMaxMintPerWallet(uint256)": {
        "details": "Set vip mint max per wallet"
      },
      "setVipMintPrice(uint256)": {
        "details": "Set vip mint price"
      },
      "setWhitelistMaxMintPerWallet(uint256)": {
        "details": "Set whitelist mint max per wallet"
      },
      "setWhitelistMintPrice(uint256)": {
        "details": "Set whitelist mint price"
      },
      "setWhitelistPhase(uint256)": {
        "params": {
          "_whitelistPhase": "Phase of whitelist"
        }
      },
      "setWhitelistSignerAddress(address)": {
        "details": "Set signer address for whitelist mint"
      },
      "supportsInterface(bytes4)": {
        "details": "See {IERC165-supportsInterface}."
      },
      "symbol()": {
        "details": "See {IERC721Metadata-symbol}."
      },
      "toggleReveal()": {
        "details": "Toggle Reveal"
      },
      "tokenCount()": {
        "details": "Get the current token count",
        "returns": {
          "_0": "the created token count"
        }
      },
      "tokenURI(uint256)": {
        "details": "Metadata is stored on-chain"
      },
      "totalMaxSupply()": {
        "details": "Get the max Supply",
        "returns": {
          "_0": "the maximum token count"
        }
      },
      "transferFrom(address,address,uint256)": {
        "details": "See {IERC721-transferFrom}."
      },
      "transferOwnership(address)": {
        "details": "Transfers ownership of the contract to a new account (`newOwner`). Can only be called by the current owner."
      },
      "upgradePlanet(uint256,uint8)": {
        "details": "Upgrade a planet by `_levels` levels",
        "params": {
          "_levels": "Number of levels to upgrade planet by",
          "_tokenId": "Token ID of planet"
        }
      },
      "whitelistMint(uint256,bytes,bytes)": {
        "details": "Mint planet (Whitelist only)",
        "params": {
          "_mintAmount": "Amount of planets to mint",
          "nonce": "Unique Nonce",
          "signature": "Signature provided by the signerAddress"
        }
      },
      "withdrawERC20(address,uint256)": {
        "details": "Withdraw ERC20 Tokens From this contract",
        "params": {
          "_amount": "Amount of ERC20 token to withdraw",
          "_tokenAddress": "Address of ERC20 token"
        }
      }
    },
    "title": "Atlantis Planets Mint Contract",
    "version": 1
  },
  "userdoc": {
    "errors": {
      "ExceedMaxMintPerWallet()": [
        {
          "notice": "The user has exceeded allowed mint count"
        }
      ],
      "ExceededMaxLevel()": [
        {
          "notice": "The planet has exceeded the max level"
        }
      ],
      "ExceededMaxSupply()": [
        {
          "notice": "The collection has exceeded the max supply"
        }
      ],
      "InvalidSignature()": [
        {
          "notice": "The signature must be by the correct signer"
        }
      ],
      "InvalidStage(uint8,uint8)": [
        {
          "notice": "The minting stage must be correct"
        }
      ],
      "InvalidUpgradeLevel(uint8,uint8)": [
        {
          "notice": "Error thrown when user queries an unknown PlanetId"
        }
      ],
      "NotOwnerOfPlanet()": [
        {
          "notice": "User is not the owner of planet"
        }
      ],
      "UnknownElement()": [
        {
          "notice": "Error thrown when user queries an unknown ElementId"
        }
      ],
      "UnknownOrbit()": [
        {
          "notice": "Error thrown when user queries an unknown OrbitId"
        }
      ]
    },
    "kind": "user",
    "methods": {
      "exists(uint256)": {
        "notice": "Returns if given tokenId exists in AtlantisPlanets"
      },
      "getImageURI(uint8,uint8,uint8,uint8)": {
        "notice": "Get ImageURI"
      },
      "getPlanetDetails(uint256)": {
        "notice": "Get planet details"
      },
      "getUpgradeCosts(uint256,uint8)": {
        "notice": "External function for frontend to retrieve stardust, xArgo, and gemstone costs in 1 multicall"
      },
      "mint(uint256)": {
        "notice": "Public Mint"
      },
      "setAddressRegistry(address)": {
        "notice": "Set the Address Registry"
      },
      "setLevelUpGemstone(bytes)": {
        "notice": "Set level up gemstone costs"
      },
      "setTreasury(address)": {
        "notice": "Sets the treasury address"
      },
      "setWhitelistPhase(uint256)": {
        "notice": "Set whitelist phase"
      },
      "tokenURI(uint256)": {
        "notice": "Returns token metadata"
      },
      "totalSupply()": {
        "notice": "Returns total supply of AtlantisPlanets"
      },
      "withdrawFund()": {
        "notice": "Withdraw all CRO from this account to the owner"
      }
    },
    "version": 1
  },
  "storageLayout": {
    "storage": [
      {
        "astId": 392,
        "contract": "contracts/AtlantisPlanets.sol:AtlantisPlanets",
        "label": "_name",
        "offset": 0,
        "slot": "0",
        "type": "t_string_storage"
      },
      {
        "astId": 394,
        "contract": "contracts/AtlantisPlanets.sol:AtlantisPlanets",
        "label": "_symbol",
        "offset": 0,
        "slot": "1",
        "type": "t_string_storage"
      },
      {
        "astId": 398,
        "contract": "contracts/AtlantisPlanets.sol:AtlantisPlanets",
        "label": "_owners",
        "offset": 0,
        "slot": "2",
        "type": "t_mapping(t_uint256,t_address)"
      },
      {
        "astId": 402,
        "contract": "contracts/AtlantisPlanets.sol:AtlantisPlanets",
        "label": "_balances",
        "offset": 0,
        "slot": "3",
        "type": "t_mapping(t_address,t_uint256)"
      },
      {
        "astId": 406,
        "contract": "contracts/AtlantisPlanets.sol:AtlantisPlanets",
        "label": "_tokenApprovals",
        "offset": 0,
        "slot": "4",
        "type": "t_mapping(t_uint256,t_address)"
      },
      {
        "astId": 412,
        "contract": "contracts/AtlantisPlanets.sol:AtlantisPlanets",
        "label": "_operatorApprovals",
        "offset": 0,
        "slot": "5",
        "type": "t_mapping(t_address,t_mapping(t_address,t_bool))"
      },
      {
        "astId": 7,
        "contract": "contracts/AtlantisPlanets.sol:AtlantisPlanets",
        "label": "_owner",
        "offset": 0,
        "slot": "6",
        "type": "t_address"
      },
      {
        "astId": 6298,
        "contract": "contracts/AtlantisPlanets.sol:AtlantisPlanets",
        "label": "_tokenCount",
        "offset": 0,
        "slot": "7",
        "type": "t_struct(Counter)1830_storage"
      },
      {
        "astId": 6301,
        "contract": "contracts/AtlantisPlanets.sol:AtlantisPlanets",
        "label": "_totalMaxSupply",
        "offset": 0,
        "slot": "8",
        "type": "t_uint256"
      },
      {
        "astId": 6163,
        "contract": "contracts/AtlantisPlanets.sol:AtlantisPlanets",
        "label": "tokenMatrix",
        "offset": 0,
        "slot": "9",
        "type": "t_mapping(t_uint256,t_uint256)"
      },
      {
        "astId": 6165,
        "contract": "contracts/AtlantisPlanets.sol:AtlantisPlanets",
        "label": "startFrom",
        "offset": 0,
        "slot": "10",
        "type": "t_uint256"
      },
      {
        "astId": 3803,
        "contract": "contracts/AtlantisPlanets.sol:AtlantisPlanets",
        "label": "addressRegistry",
        "offset": 0,
        "slot": "11",
        "type": "t_contract(AtlantisAddressRegistry)3771"
      },
      {
        "astId": 3805,
        "contract": "contracts/AtlantisPlanets.sol:AtlantisPlanets",
        "label": "baseURI",
        "offset": 0,
        "slot": "12",
        "type": "t_string_storage"
      },
      {
        "astId": 3807,
        "contract": "contracts/AtlantisPlanets.sol:AtlantisPlanets",
        "label": "stage",
        "offset": 0,
        "slot": "13",
        "type": "t_uint8"
      },
      {
        "astId": 3809,
        "contract": "contracts/AtlantisPlanets.sol:AtlantisPlanets",
        "label": "currentSupply",
        "offset": 0,
        "slot": "14",
        "type": "t_uint256"
      },
      {
        "astId": 3811,
        "contract": "contracts/AtlantisPlanets.sol:AtlantisPlanets",
        "label": "whitelistPhase",
        "offset": 0,
        "slot": "15",
        "type": "t_uint256"
      },
      {
        "astId": 3814,
        "contract": "contracts/AtlantisPlanets.sol:AtlantisPlanets",
        "label": "vipMintMaxPerWallet",
        "offset": 0,
        "slot": "16",
        "type": "t_uint256"
      },
      {
        "astId": 3817,
        "contract": "contracts/AtlantisPlanets.sol:AtlantisPlanets",
        "label": "vipMintPrice",
        "offset": 0,
        "slot": "17",
        "type": "t_uint256"
      },
      {
        "astId": 3821,
        "contract": "contracts/AtlantisPlanets.sol:AtlantisPlanets",
        "label": "vipMintCount",
        "offset": 0,
        "slot": "18",
        "type": "t_mapping(t_address,t_uint256)"
      },
      {
        "astId": 3824,
        "contract": "contracts/AtlantisPlanets.sol:AtlantisPlanets",
        "label": "whitelistMintMaxPerWallet",
        "offset": 0,
        "slot": "19",
        "type": "t_uint256"
      },
      {
        "astId": 3827,
        "contract": "contracts/AtlantisPlanets.sol:AtlantisPlanets",
        "label": "whitelistMintPrice",
        "offset": 0,
        "slot": "20",
        "type": "t_uint256"
      },
      {
        "astId": 3831,
        "contract": "contracts/AtlantisPlanets.sol:AtlantisPlanets",
        "label": "whitelistMintCount",
        "offset": 0,
        "slot": "21",
        "type": "t_mapping(t_address,t_uint256)"
      },
      {
        "astId": 3833,
        "contract": "contracts/AtlantisPlanets.sol:AtlantisPlanets",
        "label": "whitelistSignerAddress",
        "offset": 0,
        "slot": "22",
        "type": "t_address"
      },
      {
        "astId": 3836,
        "contract": "contracts/AtlantisPlanets.sol:AtlantisPlanets",
        "label": "publicMintPrice",
        "offset": 0,
        "slot": "23",
        "type": "t_uint256"
      },
      {
        "astId": 3843,
        "contract": "contracts/AtlantisPlanets.sol:AtlantisPlanets",
        "label": "publicMintMaxPerWallet",
        "offset": 0,
        "slot": "24",
        "type": "t_uint256"
      },
      {
        "astId": 3847,
        "contract": "contracts/AtlantisPlanets.sol:AtlantisPlanets",
        "label": "publicMintCount",
        "offset": 0,
        "slot": "25",
        "type": "t_mapping(t_address,t_uint256)"
      },
      {
        "astId": 3849,
        "contract": "contracts/AtlantisPlanets.sol:AtlantisPlanets",
        "label": "treasury",
        "offset": 0,
        "slot": "26",
        "type": "t_address"
      },
      {
        "astId": 3851,
        "contract": "contracts/AtlantisPlanets.sol:AtlantisPlanets",
        "label": "levelUpGemstone",
        "offset": 0,
        "slot": "27",
        "type": "t_bytes_storage"
      },
      {
        "astId": 3854,
        "contract": "contracts/AtlantisPlanets.sol:AtlantisPlanets",
        "label": "xArgoBaseCost",
        "offset": 0,
        "slot": "28",
        "type": "t_uint256"
      },
      {
        "astId": 3857,
        "contract": "contracts/AtlantisPlanets.sol:AtlantisPlanets",
        "label": "stardustBaseCost",
        "offset": 0,
        "slot": "29",
        "type": "t_uint256"
      },
      {
        "astId": 3860,
        "contract": "contracts/AtlantisPlanets.sol:AtlantisPlanets",
        "label": "stardustBaseCostScaling",
        "offset": 0,
        "slot": "30",
        "type": "t_uint256"
      },
      {
        "astId": 3863,
        "contract": "contracts/AtlantisPlanets.sol:AtlantisPlanets",
        "label": "stardustRarityCostScaling",
        "offset": 0,
        "slot": "31",
        "type": "t_uint256"
      },
      {
        "astId": 3868,
        "contract": "contracts/AtlantisPlanets.sol:AtlantisPlanets",
        "label": "planets",
        "offset": 0,
        "slot": "32",
        "type": "t_mapping(t_uint256,t_struct(Planet)5810_storage)"
      },
      {
        "astId": 3877,
        "contract": "contracts/AtlantisPlanets.sol:AtlantisPlanets",
        "label": "revealed",
        "offset": 0,
        "slot": "33",
        "type": "t_bool"
      },
      {
        "astId": 3880,
        "contract": "contracts/AtlantisPlanets.sol:AtlantisPlanets",
        "label": "unrevealedImageURI",
        "offset": 0,
        "slot": "34",
        "type": "t_string_storage"
      }
    ],
    "types": {
      "t_address": {
        "encoding": "inplace",
        "label": "address",
        "numberOfBytes": "20"
      },
      "t_bool": {
        "encoding": "inplace",
        "label": "bool",
        "numberOfBytes": "1"
      },
      "t_bytes_storage": {
        "encoding": "bytes",
        "label": "bytes",
        "numberOfBytes": "32"
      },
      "t_contract(AtlantisAddressRegistry)3771": {
        "encoding": "inplace",
        "label": "contract AtlantisAddressRegistry",
        "numberOfBytes": "20"
      },
      "t_enum(Background)5783": {
        "encoding": "inplace",
        "label": "enum AtlantisLib.Background",
        "numberOfBytes": "1"
      },
      "t_enum(Element)5793": {
        "encoding": "inplace",
        "label": "enum AtlantisLib.Element",
        "numberOfBytes": "1"
      },
      "t_enum(Orbit)5762": {
        "encoding": "inplace",
        "label": "enum AtlantisLib.Orbit",
        "numberOfBytes": "1"
      },
      "t_enum(OrbitName)5774": {
        "encoding": "inplace",
        "label": "enum AtlantisLib.OrbitName",
        "numberOfBytes": "1"
      },
      "t_mapping(t_address,t_bool)": {
        "encoding": "mapping",
        "key": "t_address",
        "label": "mapping(address => bool)",
        "numberOfBytes": "32",
        "value": "t_bool"
      },
      "t_mapping(t_address,t_mapping(t_address,t_bool))": {
        "encoding": "mapping",
        "key": "t_address",
        "label": "mapping(address => mapping(address => bool))",
        "numberOfBytes": "32",
        "value": "t_mapping(t_address,t_bool)"
      },
      "t_mapping(t_address,t_uint256)": {
        "encoding": "mapping",
        "key": "t_address",
        "label": "mapping(address => uint256)",
        "numberOfBytes": "32",
        "value": "t_uint256"
      },
      "t_mapping(t_uint256,t_address)": {
        "encoding": "mapping",
        "key": "t_uint256",
        "label": "mapping(uint256 => address)",
        "numberOfBytes": "32",
        "value": "t_address"
      },
      "t_mapping(t_uint256,t_struct(Planet)5810_storage)": {
        "encoding": "mapping",
        "key": "t_uint256",
        "label": "mapping(uint256 => struct AtlantisLib.Planet)",
        "numberOfBytes": "32",
        "value": "t_struct(Planet)5810_storage"
      },
      "t_mapping(t_uint256,t_uint256)": {
        "encoding": "mapping",
        "key": "t_uint256",
        "label": "mapping(uint256 => uint256)",
        "numberOfBytes": "32",
        "value": "t_uint256"
      },
      "t_string_storage": {
        "encoding": "bytes",
        "label": "string",
        "numberOfBytes": "32"
      },
      "t_struct(Counter)1830_storage": {
        "encoding": "inplace",
        "label": "struct Counters.Counter",
        "members": [
          {
            "astId": 1829,
            "contract": "contracts/AtlantisPlanets.sol:AtlantisPlanets",
            "label": "_value",
            "offset": 0,
            "slot": "0",
            "type": "t_uint256"
          }
        ],
        "numberOfBytes": "32"
      },
      "t_struct(Planet)5810_storage": {
        "encoding": "inplace",
        "label": "struct AtlantisLib.Planet",
        "members": [
          {
            "astId": 5795,
            "contract": "contracts/AtlantisPlanets.sol:AtlantisPlanets",
            "label": "level",
            "offset": 0,
            "slot": "0",
            "type": "t_uint8"
          },
          {
            "astId": 5798,
            "contract": "contracts/AtlantisPlanets.sol:AtlantisPlanets",
            "label": "element",
            "offset": 1,
            "slot": "0",
            "type": "t_enum(Element)5793"
          },
          {
            "astId": 5801,
            "contract": "contracts/AtlantisPlanets.sol:AtlantisPlanets",
            "label": "orbit",
            "offset": 2,
            "slot": "0",
            "type": "t_enum(Orbit)5762"
          },
          {
            "astId": 5804,
            "contract": "contracts/AtlantisPlanets.sol:AtlantisPlanets",
            "label": "orbitName",
            "offset": 3,
            "slot": "0",
            "type": "t_enum(OrbitName)5774"
          },
          {
            "astId": 5807,
            "contract": "contracts/AtlantisPlanets.sol:AtlantisPlanets",
            "label": "background",
            "offset": 4,
            "slot": "0",
            "type": "t_enum(Background)5783"
          },
          {
            "astId": 5809,
            "contract": "contracts/AtlantisPlanets.sol:AtlantisPlanets",
            "label": "onExpedition",
            "offset": 5,
            "slot": "0",
            "type": "t_bool"
          }
        ],
        "numberOfBytes": "32"
      },
      "t_uint256": {
        "encoding": "inplace",
        "label": "uint256",
        "numberOfBytes": "32"
      },
      "t_uint8": {
        "encoding": "inplace",
        "label": "uint8",
        "numberOfBytes": "1"
      }
    }
  }
}