{
  "address": "0x2e5d7373132555252B9578322D96A5A3FB86462f",
  "abi": [
    {
      "inputs": [
        {
          "internalType": "address",
          "name": "_masterWallet",
          "type": "address"
        }
      ],
      "stateMutability": "nonpayable",
      "type": "constructor"
    },
    {
      "inputs": [
        {
          "internalType": "address[]",
          "name": "_addresses",
          "type": "address[]"
        },
        {
          "internalType": "uint256[]",
          "name": "_amounts",
          "type": "uint256[]"
        }
      ],
      "name": "airdropETH",
      "outputs": [],
      "stateMutability": "payable",
      "type": "function"
    },
    {
      "inputs": [
        {
          "components": [
            {
              "internalType": "address",
              "name": "to",
              "type": "address"
            },
            {
              "internalType": "uint256[]",
              "name": "ids",
              "type": "uint256[]"
            },
            {
              "internalType": "uint256[]",
              "name": "amounts",
              "type": "uint256[]"
            },
            {
              "internalType": "uint256",
              "name": "expire",
              "type": "uint256"
            },
            {
              "internalType": "uint256",
              "name": "nonce",
              "type": "uint256"
            }
          ],
          "internalType": "struct IResources.MintRequest[]",
          "name": "requests",
          "type": "tuple[]"
        },
        {
          "internalType": "bytes[]",
          "name": "signatures",
          "type": "bytes[]"
        }
      ],
      "name": "bulkMintWithSig",
      "outputs": [],
      "stateMutability": "payable",
      "type": "function"
    },
    {
      "inputs": [
        {
          "components": [
            {
              "internalType": "address",
              "name": "from",
              "type": "address"
            },
            {
              "internalType": "address",
              "name": "to",
              "type": "address"
            },
            {
              "internalType": "uint256",
              "name": "id",
              "type": "uint256"
            },
            {
              "internalType": "uint256",
              "name": "amount",
              "type": "uint256"
            },
            {
              "internalType": "bytes",
              "name": "data",
              "type": "bytes"
            }
          ],
          "internalType": "struct Sybil.BulkTransfer[]",
          "name": "transfers",
          "type": "tuple[]"
        }
      ],
      "name": "bulkSafeTransferFrom",
      "outputs": [],
      "stateMutability": "nonpayable",
      "type": "function"
    },
    {
      "inputs": [],
      "name": "masterWallet",
      "outputs": [
        {
          "internalType": "address",
          "name": "",
          "type": "address"
        }
      ],
      "stateMutability": "view",
      "type": "function"
    }
  ],
  "transactionHash": "0xafc85c579db425cefc7fe0311cb4842594919aa2e4f078dc7427ecb9a40dfb6f",
  "args": [
    "0x68f213c0f471d4b5b579dd15bd9f2e15da792bbc"
  ],
  "numDeployments": 5,
  "solcInputHash": "aea8fa0147a85ca60a418ca6109bcae8",
  "bytecode": "0x608060405234801561001057600080fd5b50604051610bdd380380610bdd83398101604081905261002f91610054565b600080546001600160a01b0319166001600160a01b0392909216919091179055610084565b60006020828403121561006657600080fd5b81516001600160a01b038116811461007d57600080fd5b9392505050565b610b4a806100936000396000f3fe60806040526004361061003f5760003560e01c8063043a869a146100445780635507d3b514610066578063c1a3800614610079578063fc0d01171461008c575b600080fd5b34801561005057600080fd5b5061006461005f3660046104b1565b6100e2565b005b6100646100743660046104f3565b610281565b6100646100873660046104f3565b6103bc565b34801561009857600080fd5b506000546100b99073ffffffffffffffffffffffffffffffffffffffff1681565b60405173ffffffffffffffffffffffffffffffffffffffff909116815260200160405180910390f35b60005473ffffffffffffffffffffffffffffffffffffffff16331461018d576040517f08c379a000000000000000000000000000000000000000000000000000000000815260206004820152602760248201527f4f6e6c7920746865206d61737465722077616c6c65742063616e20747269676760448201527f6572207468697300000000000000000000000000000000000000000000000000606482015260840160405180910390fd5b8060005b8181101561027b5760008484838181106101ad576101ad61055f565b90506020028101906101bf919061058e565b6101c89061069c565b805160208201516040808401516060850151608086015192517ff242432a00000000000000000000000000000000000000000000000000000000815295965073ce3f4e59834b5b52b301e075c5b3d427b6884b3d9563f242432a95610235959094909392916004016107f0565b600060405180830381600087803b15801561024f57600080fd5b505af1158015610263573d6000803e3d6000fd5b5050505050808061027390610840565b915050610191565b50505050565b8260005b818110156103b45760008686838181106102a1576102a161055f565b90506020028101906102b3919061058e565b6102bc90610914565b905060008585848181106102d2576102d261055f565b90506020028101906102e491906109a9565b8080601f016020809104026020016040519081016040528093929190818152602001838380828437600092019190915250506040517fe7b1883c00000000000000000000000000000000000000000000000000000000815292935073ce3f4e59834b5b52b301e075c5b3d427b6884b3d9263e7b1883c925061036d915085908590600401610a49565b600060405180830381600087803b15801561038757600080fd5b505af115801561039b573d6000803e3d6000fd5b50505050505080806103ac90610840565b915050610285565b505050505050565b60005b8381101561045e578484828181106103d9576103d961055f565b90506020020160208101906103ee9190610af2565b73ffffffffffffffffffffffffffffffffffffffff166108fc8484848181106104195761041961055f565b905060200201359081150290604051600060405180830381858888f1935050505015801561044b573d6000803e3d6000fd5b508061045681610840565b9150506103bf565b5050505050565b60008083601f84011261047757600080fd5b50813567ffffffffffffffff81111561048f57600080fd5b6020830191508360208260051b85010111156104aa57600080fd5b9250929050565b600080602083850312156104c457600080fd5b823567ffffffffffffffff8111156104db57600080fd5b6104e785828601610465565b90969095509350505050565b6000806000806040858703121561050957600080fd5b843567ffffffffffffffff8082111561052157600080fd5b61052d88838901610465565b9096509450602087013591508082111561054657600080fd5b5061055387828801610465565b95989497509550505050565b7f4e487b7100000000000000000000000000000000000000000000000000000000600052603260045260246000fd5b600082357fffffffffffffffffffffffffffffffffffffffffffffffffffffffffffffff618336030181126105c257600080fd5b9190910192915050565b7f4e487b7100000000000000000000000000000000000000000000000000000000600052604160045260246000fd5b60405160a0810167ffffffffffffffff8111828210171561061e5761061e6105cc565b60405290565b604051601f82017fffffffffffffffffffffffffffffffffffffffffffffffffffffffffffffffe016810167ffffffffffffffff8111828210171561066b5761066b6105cc565b604052919050565b803573ffffffffffffffffffffffffffffffffffffffff8116811461069757600080fd5b919050565b600060a082360312156106ae57600080fd5b6106b66105fb565b6106bf83610673565b815260206106ce818501610673565b818301526040840135604083015260608401356060830152608084013567ffffffffffffffff8082111561070157600080fd5b9085019036601f83011261071457600080fd5b813581811115610726576107266105cc565b610756847fffffffffffffffffffffffffffffffffffffffffffffffffffffffffffffffe0601f84011601610624565b9150808252368482850101111561076c57600080fd5b808484018584013760009082019093019290925250608082015292915050565b6000815180845260005b818110156107b257602081850181015186830182015201610796565b5060006020828601015260207fffffffffffffffffffffffffffffffffffffffffffffffffffffffffffffffe0601f83011685010191505092915050565b600073ffffffffffffffffffffffffffffffffffffffff808816835280871660208401525084604083015283606083015260a0608083015261083560a083018461078c565b979650505050505050565b60007fffffffffffffffffffffffffffffffffffffffffffffffffffffffffffffffff8203610898577f4e487b7100000000000000000000000000000000000000000000000000000000600052601160045260246000fd5b5060010190565b600082601f8301126108b057600080fd5b8135602067ffffffffffffffff8211156108cc576108cc6105cc565b8160051b6108db828201610624565b92835284810182019282810190878511156108f557600080fd5b83870192505b84831015610835578235825291830191908301906108fb565b600060a0823603121561092657600080fd5b61092e6105fb565b61093783610673565b8152602083013567ffffffffffffffff8082111561095457600080fd5b6109603683870161089f565b6020840152604085013591508082111561097957600080fd5b506109863682860161089f565b604083015250606083013560608201526080830135608082015280915050919050565b60008083357fffffffffffffffffffffffffffffffffffffffffffffffffffffffffffffffe18436030181126109de57600080fd5b83018035915067ffffffffffffffff8211156109f957600080fd5b6020019150368190038213156104aa57600080fd5b600081518084526020808501945080840160005b83811015610a3e57815187529582019590820190600101610a22565b509495945050505050565b6040815273ffffffffffffffffffffffffffffffffffffffff83511660408201526000602084015160a06060840152610a8560e0840182610a0e565b905060408501517fffffffffffffffffffffffffffffffffffffffffffffffffffffffffffffffc0848303016080850152610ac08282610a0e565b915050606085015160a0840152608085015160c08401528281036020840152610ae9818561078c565b95945050505050565b600060208284031215610b0457600080fd5b610b0d82610673565b939250505056fea2646970667358221220f0a94fb80efd4ebc9522e959e7acf5fa5b510c946c7eaeb3b73c43a75ee0246f64736f6c63430008130033",
  "devdoc": {
    "kind": "dev",
    "methods": {},
    "version": 1
  },
  "userdoc": {
    "kind": "user",
    "methods": {},
    "version": 1
  },
  "storageLayout": {
    "storage": [
      {
        "astId": 10,
        "contract": "contracts/Sybil.sol:Sybil",
        "label": "masterWallet",
        "offset": 0,
        "slot": "0",
        "type": "t_address"
      }
    ],
    "types": {
      "t_address": {
        "encoding": "inplace",
        "label": "address",
        "numberOfBytes": "20"
      }
    }
  }
}