{
  "abi": [
    {
      "inputs": [],
      "name": "deposit",
      "outputs": [],
      "stateMutability": "payable",
      "type": "function"
    },
    {
      "inputs": [],
      "name": "withdraw",
      "outputs": [],
      "stateMutability": "nonpayable",
      "type": "function"
    }
  ],
  "bytecode": {
    "object": "0x6080604052348015600f57600080fd5b5060a38061001e6000396000f3fe60806040526004361060265760003560e01c80633ccfd60b14602b578063d0e30db014603d575b600080fd5b348015603657600080fd5b50603d603f565b005b60405133904780156108fc02916000818181858888f19350505050158015606a573d6000803e3d6000fd5b5056fea2646970667358221220e03b907323ddfef5a1d9d1630aac6953e1253157d12eae0596ab02f1c534559164736f6c63430008130033",
    "linkReferences": {}
  },
  "methodIdentifiers": {
    "deposit()": "d0e30db0",
    "withdraw()": "3ccfd60b"
  },
  "id": 0
}