{
  "address": "0x2AD2d5b0996F0460ca3D4f1cea398bFbB9Db84E1",
  "abi": [
    {
      "inputs": [
        {
          "internalType": "address",
          "name": "_controller",
          "type": "address"
        },
        {
          "internalType": "address",
          "name": "_whitelistSignerAddress",
          "type": "address"
        }
      ],
      "stateMutability": "nonpayable",
      "type": "constructor"
    },
    {
      "anonymous": false,
      "inputs": [
        {
          "indexed": false,
          "internalType": "uint256",
          "name": "round",
          "type": "uint256"
        },
        {
          "components": [
            {
              "internalType": "uint256",
              "name": "round",
              "type": "uint256"
            },
            {
              "components": [
                {
                  "internalType": "address",
                  "name": "tokenAddress",
                  "type": "address"
                },
                {
                  "internalType": "uint256",
                  "name": "amount",
                  "type": "uint256"
                }
              ],
              "internalType": "struct AtlanteanTrove.RewardERC20[]",
              "name": "erc20Rewards",
              "type": "tuple[]"
            },
            {
              "internalType": "uint256[]",
              "name": "erc20Amounts",
              "type": "uint256[]"
            },
            {
              "components": [
                {
                  "internalType": "address",
                  "name": "tokenAddress",
                  "type": "address"
                },
                {
                  "internalType": "uint256[]",
                  "name": "tokenIds",
                  "type": "uint256[]"
                },
                {
                  "internalType": "uint256",
                  "name": "index",
                  "type": "uint256"
                }
              ],
              "internalType": "struct AtlanteanTrove.RewardERC721[]",
              "name": "erc721Rewards",
              "type": "tuple[]"
            },
            {
              "internalType": "uint256[]",
              "name": "erc721Amounts",
              "type": "uint256[]"
            },
            {
              "components": [
                {
                  "internalType": "address",
                  "name": "tokenAddress",
                  "type": "address"
                },
                {
                  "internalType": "uint256[]",
                  "name": "tokenIds",
                  "type": "uint256[]"
                },
                {
                  "internalType": "uint256[]",
                  "name": "amounts",
                  "type": "uint256[]"
                }
              ],
              "internalType": "struct AtlanteanTrove.RewardERC1155[]",
              "name": "erc1155Rewards",
              "type": "tuple[]"
            },
            {
              "internalType": "uint256[][]",
              "name": "erc1155Amounts",
              "type": "uint256[][]"
            }
          ],
          "indexed": false,
          "internalType": "struct AtlanteanTrove.RewardData",
          "name": "rewardData",
          "type": "tuple"
        }
      ],
      "name": "AddRewards",
      "type": "event"
    },
    {
      "anonymous": false,
      "inputs": [
        {
          "indexed": false,
          "internalType": "uint256",
          "name": "round",
          "type": "uint256"
        },
        {
          "indexed": true,
          "internalType": "address",
          "name": "user",
          "type": "address"
        },
        {
          "components": [
            {
              "components": [
                {
                  "internalType": "address",
                  "name": "tokenAddress",
                  "type": "address"
                },
                {
                  "internalType": "uint256",
                  "name": "amount",
                  "type": "uint256"
                }
              ],
              "internalType": "struct AtlanteanTrove.RewardERC20Amount[]",
              "name": "erc20Amount",
              "type": "tuple[]"
            },
            {
              "components": [
                {
                  "internalType": "address",
                  "name": "tokenAddress",
                  "type": "address"
                },
                {
                  "internalType": "uint256",
                  "name": "amount",
                  "type": "uint256"
                }
              ],
              "internalType": "struct AtlanteanTrove.RewardERC721Amount[]",
              "name": "erc721Amount",
              "type": "tuple[]"
            },
            {
              "components": [
                {
                  "internalType": "address",
                  "name": "tokenAddress",
                  "type": "address"
                },
                {
                  "internalType": "uint256",
                  "name": "tokenId",
                  "type": "uint256"
                },
                {
                  "internalType": "uint256",
                  "name": "amount",
                  "type": "uint256"
                }
              ],
              "internalType": "struct AtlanteanTrove.RewardERC1155Amount[][]",
              "name": "erc1155Amount",
              "type": "tuple[][]"
            }
          ],
          "indexed": false,
          "internalType": "struct AtlanteanTrove.Amount",
          "name": "amount",
          "type": "tuple"
        }
      ],
      "name": "ClaimRewards",
      "type": "event"
    },
    {
      "anonymous": false,
      "inputs": [
        {
          "indexed": false,
          "internalType": "uint256",
          "name": "round",
          "type": "uint256"
        },
        {
          "components": [
            {
              "internalType": "uint256",
              "name": "round",
              "type": "uint256"
            },
            {
              "components": [
                {
                  "internalType": "address",
                  "name": "tokenAddress",
                  "type": "address"
                },
                {
                  "internalType": "uint256",
                  "name": "amount",
                  "type": "uint256"
                }
              ],
              "internalType": "struct AtlanteanTrove.RewardERC20[]",
              "name": "erc20Rewards",
              "type": "tuple[]"
            },
            {
              "internalType": "uint256[]",
              "name": "erc20Amounts",
              "type": "uint256[]"
            },
            {
              "components": [
                {
                  "internalType": "address",
                  "name": "tokenAddress",
                  "type": "address"
                },
                {
                  "internalType": "uint256[]",
                  "name": "tokenIds",
                  "type": "uint256[]"
                },
                {
                  "internalType": "uint256",
                  "name": "index",
                  "type": "uint256"
                }
              ],
              "internalType": "struct AtlanteanTrove.RewardERC721[]",
              "name": "erc721Rewards",
              "type": "tuple[]"
            },
            {
              "internalType": "uint256[]",
              "name": "erc721Amounts",
              "type": "uint256[]"
            },
            {
              "components": [
                {
                  "internalType": "address",
                  "name": "tokenAddress",
                  "type": "address"
                },
                {
                  "internalType": "uint256[]",
                  "name": "tokenIds",
                  "type": "uint256[]"
                },
                {
                  "internalType": "uint256[]",
                  "name": "amounts",
                  "type": "uint256[]"
                }
              ],
              "internalType": "struct AtlanteanTrove.RewardERC1155[]",
              "name": "erc1155Rewards",
              "type": "tuple[]"
            },
            {
              "internalType": "uint256[][]",
              "name": "erc1155Amounts",
              "type": "uint256[][]"
            }
          ],
          "indexed": false,
          "internalType": "struct AtlanteanTrove.RewardData",
          "name": "rewardData",
          "type": "tuple"
        }
      ],
      "name": "RemoveRewards",
      "type": "event"
    },
    {
      "anonymous": false,
      "inputs": [
        {
          "indexed": false,
          "internalType": "address",
          "name": "admin",
          "type": "address"
        }
      ],
      "name": "SetAdmin",
      "type": "event"
    },
    {
      "anonymous": false,
      "inputs": [
        {
          "indexed": false,
          "internalType": "address",
          "name": "controller",
          "type": "address"
        }
      ],
      "name": "SetController",
      "type": "event"
    },
    {
      "anonymous": false,
      "inputs": [
        {
          "indexed": false,
          "internalType": "uint256",
          "name": "round",
          "type": "uint256"
        },
        {
          "indexed": false,
          "internalType": "uint256",
          "name": "expiryTimestamp",
          "type": "uint256"
        }
      ],
      "name": "SetRoundExpiry",
      "type": "event"
    },
    {
      "anonymous": false,
      "inputs": [
        {
          "indexed": false,
          "internalType": "address",
          "name": "whitelistSignerAddress",
          "type": "address"
        }
      ],
      "name": "SetWhitelistSignerAddress",
      "type": "event"
    },
    {
      "anonymous": false,
      "inputs": [
        {
          "indexed": false,
          "internalType": "uint256",
          "name": "round",
          "type": "uint256"
        },
        {
          "indexed": false,
          "internalType": "uint256",
          "name": "startTime",
          "type": "uint256"
        },
        {
          "indexed": false,
          "internalType": "uint256",
          "name": "expiryTimestamp",
          "type": "uint256"
        }
      ],
      "name": "StartNewRound",
      "type": "event"
    },
    {
      "inputs": [],
      "name": "admin",
      "outputs": [
        {
          "internalType": "address",
          "name": "",
          "type": "address"
        }
      ],
      "stateMutability": "view",
      "type": "function"
    },
    {
      "inputs": [
        {
          "internalType": "uint256",
          "name": "_round",
          "type": "uint256"
        },
        {
          "internalType": "bytes",
          "name": "nonce",
          "type": "bytes"
        },
        {
          "internalType": "bytes",
          "name": "signature",
          "type": "bytes"
        }
      ],
      "name": "claimRewards",
      "outputs": [],
      "stateMutability": "nonpayable",
      "type": "function"
    },
    {
      "inputs": [],
      "name": "controller",
      "outputs": [
        {
          "internalType": "address",
          "name": "",
          "type": "address"
        }
      ],
      "stateMutability": "view",
      "type": "function"
    },
    {
      "inputs": [],
      "name": "currentRound",
      "outputs": [
        {
          "internalType": "uint256",
          "name": "",
          "type": "uint256"
        }
      ],
      "stateMutability": "view",
      "type": "function"
    },
    {
      "inputs": [
        {
          "internalType": "uint256",
          "name": "_round",
          "type": "uint256"
        }
      ],
      "name": "getRoundAmounts",
      "outputs": [
        {
          "components": [
            {
              "components": [
                {
                  "internalType": "address",
                  "name": "tokenAddress",
                  "type": "address"
                },
                {
                  "internalType": "uint256",
                  "name": "amount",
                  "type": "uint256"
                }
              ],
              "internalType": "struct AtlanteanTrove.RewardERC20Amount[]",
              "name": "erc20Amount",
              "type": "tuple[]"
            },
            {
              "components": [
                {
                  "internalType": "address",
                  "name": "tokenAddress",
                  "type": "address"
                },
                {
                  "internalType": "uint256",
                  "name": "amount",
                  "type": "uint256"
                }
              ],
              "internalType": "struct AtlanteanTrove.RewardERC721Amount[]",
              "name": "erc721Amount",
              "type": "tuple[]"
            },
            {
              "components": [
                {
                  "internalType": "address",
                  "name": "tokenAddress",
                  "type": "address"
                },
                {
                  "internalType": "uint256",
                  "name": "tokenId",
                  "type": "uint256"
                },
                {
                  "internalType": "uint256",
                  "name": "amount",
                  "type": "uint256"
                }
              ],
              "internalType": "struct AtlanteanTrove.RewardERC1155Amount[][]",
              "name": "erc1155Amount",
              "type": "tuple[][]"
            }
          ],
          "internalType": "struct AtlanteanTrove.Amount",
          "name": "",
          "type": "tuple"
        }
      ],
      "stateMutability": "view",
      "type": "function"
    },
    {
      "inputs": [
        {
          "internalType": "uint256",
          "name": "_round",
          "type": "uint256"
        }
      ],
      "name": "getRoundRewards",
      "outputs": [
        {
          "components": [
            {
              "components": [
                {
                  "internalType": "address",
                  "name": "tokenAddress",
                  "type": "address"
                },
                {
                  "internalType": "uint256",
                  "name": "amount",
                  "type": "uint256"
                }
              ],
              "internalType": "struct AtlanteanTrove.RewardERC20[]",
              "name": "erc20Rewards",
              "type": "tuple[]"
            },
            {
              "components": [
                {
                  "internalType": "address",
                  "name": "tokenAddress",
                  "type": "address"
                },
                {
                  "internalType": "uint256[]",
                  "name": "tokenIds",
                  "type": "uint256[]"
                },
                {
                  "internalType": "uint256",
                  "name": "index",
                  "type": "uint256"
                }
              ],
              "internalType": "struct AtlanteanTrove.RewardERC721[]",
              "name": "erc721Rewards",
              "type": "tuple[]"
            },
            {
              "components": [
                {
                  "internalType": "address",
                  "name": "tokenAddress",
                  "type": "address"
                },
                {
                  "internalType": "uint256[]",
                  "name": "tokenIds",
                  "type": "uint256[]"
                },
                {
                  "internalType": "uint256[]",
                  "name": "amounts",
                  "type": "uint256[]"
                }
              ],
              "internalType": "struct AtlanteanTrove.RewardERC1155[]",
              "name": "erc1155Rewards",
              "type": "tuple[]"
            }
          ],
          "internalType": "struct AtlanteanTrove.Reward",
          "name": "",
          "type": "tuple"
        }
      ],
      "stateMutability": "view",
      "type": "function"
    },
    {
      "inputs": [
        {
          "internalType": "uint256",
          "name": "_round",
          "type": "uint256"
        },
        {
          "internalType": "address",
          "name": "user",
          "type": "address"
        }
      ],
      "name": "hasUserClaimed",
      "outputs": [
        {
          "internalType": "bool",
          "name": "",
          "type": "bool"
        }
      ],
      "stateMutability": "view",
      "type": "function"
    },
    {
      "inputs": [
        {
          "internalType": "address",
          "name": "operator",
          "type": "address"
        },
        {
          "internalType": "address",
          "name": "from",
          "type": "address"
        },
        {
          "internalType": "uint256[]",
          "name": "ids",
          "type": "uint256[]"
        },
        {
          "internalType": "uint256[]",
          "name": "values",
          "type": "uint256[]"
        },
        {
          "internalType": "bytes",
          "name": "data",
          "type": "bytes"
        }
      ],
      "name": "onERC1155BatchReceived",
      "outputs": [
        {
          "internalType": "bytes4",
          "name": "",
          "type": "bytes4"
        }
      ],
      "stateMutability": "nonpayable",
      "type": "function"
    },
    {
      "inputs": [
        {
          "internalType": "address",
          "name": "operator",
          "type": "address"
        },
        {
          "internalType": "address",
          "name": "from",
          "type": "address"
        },
        {
          "internalType": "uint256",
          "name": "id",
          "type": "uint256"
        },
        {
          "internalType": "uint256",
          "name": "value",
          "type": "uint256"
        },
        {
          "internalType": "bytes",
          "name": "data",
          "type": "bytes"
        }
      ],
      "name": "onERC1155Received",
      "outputs": [
        {
          "internalType": "bytes4",
          "name": "",
          "type": "bytes4"
        }
      ],
      "stateMutability": "nonpayable",
      "type": "function"
    },
    {
      "inputs": [
        {
          "components": [
            {
              "internalType": "uint256",
              "name": "round",
              "type": "uint256"
            },
            {
              "components": [
                {
                  "internalType": "address",
                  "name": "tokenAddress",
                  "type": "address"
                },
                {
                  "internalType": "uint256",
                  "name": "amount",
                  "type": "uint256"
                }
              ],
              "internalType": "struct AtlanteanTrove.RewardERC20[]",
              "name": "erc20Rewards",
              "type": "tuple[]"
            },
            {
              "internalType": "uint256[]",
              "name": "erc20Amounts",
              "type": "uint256[]"
            },
            {
              "components": [
                {
                  "internalType": "address",
                  "name": "tokenAddress",
                  "type": "address"
                },
                {
                  "internalType": "uint256[]",
                  "name": "tokenIds",
                  "type": "uint256[]"
                },
                {
                  "internalType": "uint256",
                  "name": "index",
                  "type": "uint256"
                }
              ],
              "internalType": "struct AtlanteanTrove.RewardERC721[]",
              "name": "erc721Rewards",
              "type": "tuple[]"
            },
            {
              "internalType": "uint256[]",
              "name": "erc721Amounts",
              "type": "uint256[]"
            },
            {
              "components": [
                {
                  "internalType": "address",
                  "name": "tokenAddress",
                  "type": "address"
                },
                {
                  "internalType": "uint256[]",
                  "name": "tokenIds",
                  "type": "uint256[]"
                },
                {
                  "internalType": "uint256[]",
                  "name": "amounts",
                  "type": "uint256[]"
                }
              ],
              "internalType": "struct AtlanteanTrove.RewardERC1155[]",
              "name": "erc1155Rewards",
              "type": "tuple[]"
            },
            {
              "internalType": "uint256[][]",
              "name": "erc1155Amounts",
              "type": "uint256[][]"
            }
          ],
          "internalType": "struct AtlanteanTrove.RewardData",
          "name": "data",
          "type": "tuple"
        }
      ],
      "name": "removeRewards",
      "outputs": [],
      "stateMutability": "nonpayable",
      "type": "function"
    },
    {
      "inputs": [
        {
          "internalType": "uint256",
          "name": "",
          "type": "uint256"
        }
      ],
      "name": "roundTime",
      "outputs": [
        {
          "internalType": "uint256",
          "name": "startTime",
          "type": "uint256"
        },
        {
          "internalType": "uint256",
          "name": "expiryTimestamp",
          "type": "uint256"
        }
      ],
      "stateMutability": "view",
      "type": "function"
    },
    {
      "inputs": [
        {
          "internalType": "address",
          "name": "_admin",
          "type": "address"
        }
      ],
      "name": "setAdmin",
      "outputs": [],
      "stateMutability": "nonpayable",
      "type": "function"
    },
    {
      "inputs": [
        {
          "internalType": "address",
          "name": "_controller",
          "type": "address"
        }
      ],
      "name": "setController",
      "outputs": [],
      "stateMutability": "nonpayable",
      "type": "function"
    },
    {
      "inputs": [
        {
          "internalType": "uint256",
          "name": "_round",
          "type": "uint256"
        },
        {
          "internalType": "uint256",
          "name": "expiryTimestamp",
          "type": "uint256"
        }
      ],
      "name": "setRoundExpiry",
      "outputs": [],
      "stateMutability": "nonpayable",
      "type": "function"
    },
    {
      "inputs": [
        {
          "internalType": "address",
          "name": "_whitelistSignerAddress",
          "type": "address"
        }
      ],
      "name": "setWhitelistSignerAddress",
      "outputs": [],
      "stateMutability": "nonpayable",
      "type": "function"
    },
    {
      "inputs": [
        {
          "internalType": "uint256",
          "name": "startTime",
          "type": "uint256"
        },
        {
          "internalType": "uint256",
          "name": "expiryTimestamp",
          "type": "uint256"
        }
      ],
      "name": "startNewRound",
      "outputs": [],
      "stateMutability": "nonpayable",
      "type": "function"
    },
    {
      "inputs": [
        {
          "internalType": "bytes4",
          "name": "interfaceId",
          "type": "bytes4"
        }
      ],
      "name": "supportsInterface",
      "outputs": [
        {
          "internalType": "bool",
          "name": "",
          "type": "bool"
        }
      ],
      "stateMutability": "view",
      "type": "function"
    },
    {
      "inputs": [
        {
          "components": [
            {
              "internalType": "uint256",
              "name": "round",
              "type": "uint256"
            },
            {
              "components": [
                {
                  "internalType": "address",
                  "name": "tokenAddress",
                  "type": "address"
                },
                {
                  "internalType": "uint256",
                  "name": "amount",
                  "type": "uint256"
                }
              ],
              "internalType": "struct AtlanteanTrove.RewardERC20[]",
              "name": "erc20Rewards",
              "type": "tuple[]"
            },
            {
              "internalType": "uint256[]",
              "name": "erc20Amounts",
              "type": "uint256[]"
            },
            {
              "components": [
                {
                  "internalType": "address",
                  "name": "tokenAddress",
                  "type": "address"
                },
                {
                  "internalType": "uint256[]",
                  "name": "tokenIds",
                  "type": "uint256[]"
                },
                {
                  "internalType": "uint256",
                  "name": "index",
                  "type": "uint256"
                }
              ],
              "internalType": "struct AtlanteanTrove.RewardERC721[]",
              "name": "erc721Rewards",
              "type": "tuple[]"
            },
            {
              "internalType": "uint256[]",
              "name": "erc721Amounts",
              "type": "uint256[]"
            },
            {
              "components": [
                {
                  "internalType": "address",
                  "name": "tokenAddress",
                  "type": "address"
                },
                {
                  "internalType": "uint256[]",
                  "name": "tokenIds",
                  "type": "uint256[]"
                },
                {
                  "internalType": "uint256[]",
                  "name": "amounts",
                  "type": "uint256[]"
                }
              ],
              "internalType": "struct AtlanteanTrove.RewardERC1155[]",
              "name": "erc1155Rewards",
              "type": "tuple[]"
            },
            {
              "internalType": "uint256[][]",
              "name": "erc1155Amounts",
              "type": "uint256[][]"
            }
          ],
          "internalType": "struct AtlanteanTrove.RewardData",
          "name": "data",
          "type": "tuple"
        }
      ],
      "name": "topUpRewards",
      "outputs": [],
      "stateMutability": "nonpayable",
      "type": "function"
    },
    {
      "inputs": [
        {
          "internalType": "address",
          "name": "sender",
          "type": "address"
        },
        {
          "internalType": "uint256",
          "name": "_round",
          "type": "uint256"
        },
        {
          "internalType": "bytes",
          "name": "nonce",
          "type": "bytes"
        },
        {
          "internalType": "bytes",
          "name": "signature",
          "type": "bytes"
        }
      ],
      "name": "whitelistSigned",
      "outputs": [
        {
          "internalType": "bool",
          "name": "",
          "type": "bool"
        }
      ],
      "stateMutability": "view",
      "type": "function"
    },
    {
      "inputs": [],
      "name": "whitelistSignerAddress",
      "outputs": [
        {
          "internalType": "address",
          "name": "",
          "type": "address"
        }
      ],
      "stateMutability": "view",
      "type": "function"
    }
  ],
  "transactionHash": "0xf280157f2e864fc5e3345f01e3becd0afc1f5ec7539d08e976978dabbaf0b921",
  "args": [
    "0x2FB1C26ec1FBC25d65E415b8CD07e07d5d20dcFc",
    "0x6a952f966c5dcc36a094c8ab141f027fb58f864e"
  ],
  "numDeployments": 7,
  "solcInputHash": "69de7f58144cd97bbe67218483f0e85f",
  "bytecode": "0x608060405260006005553480156200001657600080fd5b506040516200489d3803806200489d833981016040819052620000399162000098565b6001600055600680546001600160a01b03199081163317909155600780546001600160a01b0394851690831617905560088054929093169116179055620000d0565b80516001600160a01b03811681146200009357600080fd5b919050565b60008060408385031215620000ac57600080fd5b620000b7836200007b565b9150620000c7602084016200007b565b90509250929050565b6147bd80620000e06000396000f3fe608060405234801561001057600080fd5b506004361061012c5760003560e01c806392eefe9b116100ad578063f23a6e6111610071578063f23a6e61146102e9578063f504764d14610309578063f77c47911461031c578063f851a4401461032f578063fd56981a1461034257600080fd5b806392eefe9b14610262578063bc197c8114610275578063bd9c62b8146102b0578063d7f8d847146102c3578063db51fae3146102d657600080fd5b8063501c6e4f116100f4578063501c6e4f146101e557806353a4554614610205578063704b6c02146102185780638a19c8bc1461022b57806391e2057e1461024257600080fd5b806301ffc9a714610131578063040ae2591461015957806307c7a72d1461016e57806324fccf25146101a757806336116989146101d2575b600080fd5b61014461013f3660046136b1565b61037e565b60405190151581526020015b60405180910390f35b61016c6101673660046136e2565b6103b5565b005b61014461017c366004613719565b60009182526001602090815260408084206001600160a01b0393909316845291905290205460ff1690565b6008546101ba906001600160a01b031681565b6040516001600160a01b039091168152602001610150565b61016c6101e0366004613749565b6104d0565b6101f86101f3366004613783565b610d02565b604051610150919061390c565b6101446102133660046139c1565b610ef0565b61016c610226366004613a40565b610fa1565b61023460055481565b604051908152602001610150565b610255610250366004613783565b611019565b6040516101509190613b2c565b61016c610270366004613a40565b6112a3565b610297610283366004613cc1565b63bc197c8160e01b98975050505050505050565b6040516001600160e01b03199091168152602001610150565b61016c6102be3660046136e2565b61131b565b61016c6102d1366004613d7f565b6113af565b61016c6102e4366004613749565b61212b565b6102976102f7366004613deb565b63f23a6e6160e01b9695505050505050565b61016c610317366004613a40565b6121e8565b6007546101ba906001600160a01b031681565b6006546101ba906001600160a01b031681565b610369610350366004613783565b6002602052600090815260409020805460019091015482565b60408051928352602083019190915201610150565b60006001600160e01b03198216630271189760e51b14806103af57506001600160e01b031982166301ffc9a760e01b145b92915050565b6007546001600160a01b031633146104245760405162461bcd60e51b815260206004820152602760248201527f4f6e6c7920636f6e74726f6c6c65722063616e2063616c6c20746869732066756044820152663731ba34b7b71760c91b60648201526084015b60405180910390fd5b4281116104435760405162461bcd60e51b815260040161041b90613e66565b6005805490600061045383613ebf565b9091555050604080518082018252838152602080820184815260058054600090815260028452859020935184559051600190930192909255905482519081529081018490529081018290527f6335d9a954a31d127d43737ee99cf9c5b5f5b0c4c813c136886bef6217092e51906060015b60405180910390a15050565b6006546001600160a01b031633146104fa5760405162461bcd60e51b815260040161041b90613ed8565b60055481350361055d5760405162461bcd60e51b815260206004820152602860248201527f43616e6e6f74206d6f64696679207265776172647320666f72206f6e676f696e60448201526733903937bab7321760c11b606482015260840161041b565b8035600090815260036020526040902054156107655760005b813560009081526003602052604090205481101561072757813560009081526003602052604090208054829081106105b0576105b0613f1a565b60009182526020909120600290910201546006546001600160a01b039182169163a9059cbb91166105e46040860186613f30565b858181106105f4576105f4613f1a565b6040516001600160e01b031960e087901b1681526001600160a01b03909416600485015260200291909101356024830152506044016020604051808303816000875af1158015610648573d6000803e3d6000fd5b505050506040513d601f19601f8201168201806040525081019061066c9190613f79565b6106ab5760405162461bcd60e51b815260206004820152601060248201526f2a3930b739b332b9103330b4b632b21760811b604482015260640161041b565b6106b86040830183613f30565b828181106106c8576106c8613f1a565b90506020020135600460008460000135815260200190815260200160002060000182815481106106fa576106fa613f1a565b9060005260206000209060020201600101600082825461071a9190613f9b565b9091555050600101610576565b5060055481351115610765578035600090815260036020526040812061074c916134f7565b80356000908152600460205260408120610765916134f7565b803560009081526003602052604090206001015415610a015760005b81356000908152600360205260409020600101548110156109b757813560009081526003602052604081206001018054839081106107c1576107c1613f1a565b906000526020600020906003020160020154905060005b833560009081526003602052604090206001018054849081106107fd576107fd613f1a565b9060005260206000209060030201600201546003600086600001358152602001908152602001600020600101848154811061083a5761083a613f1a565b9060005260206000209060030201600101805490506108599190613f9b565b8110156109ad578335600090815260036020526040902060010180548490811061088557610885613f1a565b60009182526020808320600392830201546006548835855292909152604090922060010180546001600160a01b03938416936323b872dd933093911691889081106108d2576108d2613f1a565b906000526020600020906003020160010186815481106108f4576108f4613f1a565b90600052602060002001546040518463ffffffff1660e01b815260040161091d93929190613fae565b600060405180830381600087803b15801561093757600080fd5b505af115801561094b573d6000803e3d6000fd5b5050505060016004600086600001358152602001908152602001600020600101848154811061097c5761097c613f1a565b9060005260206000209060020201600101600082825461099c9190613f9b565b9091555050600191820191016107d8565b5050600101610781565b5060055481351115610a0157803560009081526003602052604081206109e291600190910190613518565b80356000908152600460205260408120610a01916001909101906134f7565b803560009081526003602052604090206002015415610cc45760005b8135600090815260036020526040902060020154811015610cc25760005b82356000908152600360205260409020600201805483908110610a6057610a60613f1a565b906000526020600020906003020160010180549050811015610c6d5782356000908152600360205260409020600201805483908110610aa157610aa1613f1a565b60009182526020808320600392830201546006548735855292909152604090922060020180546001600160a01b039384169363f242432a93309391169187908110610aee57610aee613f1a565b90600052602060002090600302016001018581548110610b1057610b10613f1a565b600091825260209091200154610b2960c0890189613f30565b88818110610b3957610b39613f1a565b9050602002810190610b4b9190613f30565b87818110610b5b57610b5b613f1a565b905060200201356040518563ffffffff1660e01b8152600401610b819493929190613fd2565b600060405180830381600087803b158015610b9b57600080fd5b505af1158015610baf573d6000803e3d6000fd5b50610bc19250505060c0840184613f30565b83818110610bd157610bd1613f1a565b9050602002810190610be39190613f30565b82818110610bf357610bf3613f1a565b9050602002013560046000856000013581526020019081526020016000206002018381548110610c2557610c25613f1a565b906000526020600020018281548110610c4057610c40613f1a565b90600052602060002090600302016002016000828254610c609190613f9b565b9091555050600101610a3b565b5060055460019091019082351115610cbd5781356000908152600360205260408120610c9e91600290910190613539565b81356000908152600460205260408120610cbd9160029091019061355a565b610a1d565b505b6040517ff665bccf3fa0d23a55c77a157157f756295e189977065e4ef7f57c72d77208d790610cf79083359084906142b8565b60405180910390a150565b610d2660405180606001604052806060815260200160608152602001606081525090565b60008281526004602090815260408083208151815460809481028201850190935260608101838152909491938593919285929185015b82821015610da4576000848152602090819020604080518082019091526002850290910180546001600160a01b03168252600190810154828401529083529092019101610d5c565b50505050815260200160018201805480602002602001604051908101604052809291908181526020016000905b82821015610e19576000848152602090819020604080518082019091526002850290910180546001600160a01b03168252600190810154828401529083529092019101610dd1565b50505050815260200160028201805480602002602001604051908101604052809291908181526020016000905b82821015610ee257838290600052602060002001805480602002602001604051908101604052809291908181526020016000905b82821015610ecf576000848152602090819020604080516060810182526003860290920180546001600160a01b0316835260018082015484860152600290910154918301919091529083529092019101610e7a565b5050505081526020019060010190610e46565b505050915250909392505050565b600080858486604051602001610f08939291906143e8565b60408051601f1981840301815282825280516020918201208383018352601c84527f19457468657265756d205369676e6564204d6573736167653a0a333200000000848301529151919350610f6191839185910161441a565b60408051601f1981840301815291905280516020909101209150610f858285612260565b6008546001600160a01b03918216911614979650505050505050565b6006546001600160a01b03163314610fcb5760405162461bcd60e51b815260040161041b90613ed8565b600680546001600160a01b0319166001600160a01b0383169081179091556040519081527f5a272403b402d892977df56625f4164ccaf70ca3863991c43ecfe76a6905b0a190602001610cf7565b61103d60405180606001604052806060815260200160608152602001606081525090565b60008281526003602090815260408083208151815460809481028201850190935260608101838152909491938593919285929185015b828210156110bb576000848152602090819020604080518082019091526002850290910180546001600160a01b03168252600190810154828401529083529092019101611073565b50505050815260200160018201805480602002602001604051908101604052809291908181526020016000905b82821015611188576000848152602090819020604080516060810182526003860290920180546001600160a01b0316835260018101805483518187028101870190945280845293949193858301939283018282801561116657602002820191906000526020600020905b815481526020019060010190808311611152575b50505050508152602001600282015481525050815260200190600101906110e8565b50505050815260200160028201805480602002602001604051908101604052809291908181526020016000905b82821015610ee2576000848152602090819020604080516060810182526003860290920180546001600160a01b0316835260018101805483518187028101870190945280845293949193858301939283018282801561123357602002820191906000526020600020905b81548152602001906001019080831161121f575b505050505081526020016002820180548060200260200160405190810160405280929190818152602001828054801561128b57602002820191906000526020600020905b815481526020019060010190808311611277575b505050505081525050815260200190600101906111b5565b6006546001600160a01b031633146112cd5760405162461bcd60e51b815260040161041b90613ed8565b600780546001600160a01b0319166001600160a01b0383169081179091556040519081527f4ff638452bbf33c012645d18ae6f05515ff5f2d1dfb0cece8cbf018c60903f7090602001610cf7565b6006546001600160a01b031633146113455760405162461bcd60e51b815260040161041b90613ed8565b4281116113645760405162461bcd60e51b815260040161041b90613e66565b60008281526002602090815260409182902060010183905581518481529081018390527fc9123c2e200f7f5152a8adda78477d9cd7a4602d8fcad7787bc36e6b8669b64791016104c4565b6113b7612284565b6113c333848484610ef0565b6114045760405162461bcd60e51b8152602060048201526012602482015271496e76616c6964205369676e61747572652160701b604482015260640161041b565b600083815260016020908152604080832033845290915290205460ff16156114785760405162461bcd60e51b815260206004820152602160248201527f557365722068617320616c726561647920636c61696d656420726577617264736044820152601760f91b606482015260840161041b565b6000838152600260205260409020600101544211156114ce5760405162461bcd60e51b81526020600482015260126024820152712937bab732103430b99032bc3834b932b21760711b604482015260640161041b565b6000838152600260205260409020544210156115255760405162461bcd60e51b81526020600482015260166024820152752937bab732103430b9903737ba1039ba30b93a32b21760511b604482015260640161041b565b60008381526001602081815260408084203385528252808420805460ff19169093179092558151606080820184528082528183018190528184015286845260039091529120546001600160401b038111156115825761158261391f565b6040519080825280602002602001820160405280156115c757816020015b60408051808201909152600080825260208201528152602001906001900390816115a05790505b5081526000848152600360205260409020600101546001600160401b038111156115f3576115f361391f565b60405190808252806020026020018201604052801561163857816020015b60408051808201909152600080825260208201528152602001906001900390816116115790505b506020808301919091526000858152600390915260409020600201546001600160401b0381111561166b5761166b61391f565b60405190808252806020026020018201604052801561169e57816020015b60608152602001906001900390816116895790505b506040808301919091526000858152600360205220541561194b5760005b6000858152600360205260409020548110156119495760008581526003602052604090208054829081106116f2576116f2613f1a565b90600052602060002090600202016001015460046000878152602001908152602001600020600001828154811061172b5761172b613f1a565b9060005260206000209060020201600101600082825461174b9190613f9b565b9091555050600085815260036020526040902080548290811061177057611770613f1a565b6000918252602090912060029091020154825180516001600160a01b0390921691839081106117a1576117a1613f1a565b6020908102919091018101516001600160a01b0390921690915260008681526003909152604090208054829081106117db576117db613f1a565b9060005260206000209060020201600101548260000151828151811061180357611803613f1a565b6020026020010151602001818152505060036000868152602001908152602001600020600001818154811061183a5761183a613f1a565b600091825260208083206002909202909101548783526003909152604090912080546001600160a01b039092169163a9059cbb9133918590811061188057611880613f1a565b60009182526020909120600160029092020101546040516001600160e01b031960e085901b1681526001600160a01b03909216600483015260248201526044016020604051808303816000875af11580156118df573d6000803e3d6000fd5b505050506040513d601f19601f820116820180604052508101906119039190613f79565b6119415760405162461bcd60e51b815260206004820152600f60248201526e151c985b9cd9995c8819985a5b1959608a1b604482015260640161041b565b6001016116bc565b505b60008481526003602052604090206001015415611bd95760005b600085815260036020526040902060010154811015611bd757600085815260046020526040902060019081018054839081106119a3576119a3613f1a565b906000526020600020906002020160010160008282546119c39190613f9b565b909155505060008581526003602052604090206001018054829081106119eb576119eb613f1a565b6000918252602091829020600390910201549083015180516001600160a01b039092169183908110611a1f57611a1f613f1a565b6020026020010151600001906001600160a01b031690816001600160a01b031681525050600182602001518281518110611a5b57611a5b613f1a565b60200260200101516020018181525050600360008681526020019081526020016000206001018181548110611a9257611a92613f1a565b6000918252602080832060039283020154888452919052604090912060010180546001600160a01b03909216916323b872dd91309133919086908110611ada57611ada613f1a565b9060005260206000209060030201600101600360008b81526020019081526020016000206001018681548110611b1257611b12613f1a565b90600052602060002090600302016002015481548110611b3457611b34613f1a565b90600052602060002001546040518463ffffffff1660e01b8152600401611b5d93929190613fae565b600060405180830381600087803b158015611b7757600080fd5b505af1158015611b8b573d6000803e3d6000fd5b5050506000868152600360205260409020600101805490915082908110611bb457611bb4613f1a565b600091825260209091206002600390920201018054600190810190915501611965565b505b600084815260036020526040902060020154156120d85760005b6000858152600360205260409020600201548110156120d6576000858152600360205260409020600201805482908110611c2f57611c2f613f1a565b9060005260206000209060030201600101805490506001600160401b03811115611c5b57611c5b61391f565b604051908082528060200260200182016040528015611cb957816020015b611ca6604051806060016040528060006001600160a01b0316815260200160008152602001600081525090565b815260200190600190039081611c795790505b5082604001518281518110611cd057611cd0613f1a565b602002602001018190525060005b6000868152600360205260409020600201805483908110611d0157611d01613f1a565b9060005260206000209060030201600101805490508110156120cd576000868152600360205260409020600201805483908110611d4057611d40613f1a565b90600052602060002090600302016002018181548110611d6257611d62613f1a565b9060005260206000200154600460008881526020019081526020016000206002018381548110611d9457611d94613f1a565b906000526020600020018281548110611daf57611daf613f1a565b90600052602060002090600302016002016000828254611dcf9190613f9b565b90915550506000868152600360205260409020600201805483908110611df757611df7613f1a565b6000918252602090912060039091020154604084015180516001600160a01b039092169184908110611e2b57611e2b613f1a565b60200260200101518281518110611e4457611e44613f1a565b6020908102919091018101516001600160a01b039092169091526000878152600390915260409020600201805483908110611e8157611e81613f1a565b90600052602060002090600302016001018181548110611ea357611ea3613f1a565b906000526020600020015483604001518381518110611ec457611ec4613f1a565b60200260200101518281518110611edd57611edd613f1a565b60200260200101516020018181525050600360008781526020019081526020016000206002018281548110611f1457611f14613f1a565b90600052602060002090600302016002018181548110611f3657611f36613f1a565b906000526020600020015483604001518381518110611f5757611f57613f1a565b60200260200101518281518110611f7057611f70613f1a565b60200260200101516040018181525050600360008781526020019081526020016000206002018281548110611fa757611fa7613f1a565b6000918252602080832060039283020154898452919052604090912060020180546001600160a01b039092169163f242432a91309133919087908110611fef57611fef613f1a565b9060005260206000209060030201600101858154811061201157612011613f1a565b9060005260206000200154600360008c8152602001908152602001600020600201878154811061204357612043613f1a565b9060005260206000209060030201600201868154811061206557612065613f1a565b90600052602060002001546040518563ffffffff1660e01b815260040161208f9493929190613fd2565b600060405180830381600087803b1580156120a957600080fd5b505af11580156120bd573d6000803e3d6000fd5b505060019092019150611cde9050565b50600101611bf3565b505b336001600160a01b03167f50d77aff18471f02a90108d0890292b485cc931a52bac94c1e33b7eb525e25168583604051612113929190614433565b60405180910390a2506121266001600055565b505050565b6006546001600160a01b031633146121555760405162461bcd60e51b815260040161041b90613ed8565b60006121646020830183614454565b9050111561217557612175816122dd565b60006121846060830183613f30565b9050111561219557612195816126a0565b60006121a460a0830183613f30565b905011156121b5576121b581612c57565b6040517fa2675b8041bce0f157b89f1833dd1c4013ac88fb7d72abd5eee91093fb04ca1790610cf79083359084906142b8565b6006546001600160a01b031633146122125760405162461bcd60e51b815260040161041b90613ed8565b600880546001600160a01b0319166001600160a01b0383169081179091556040519081527fd69451aace2c16163f3a93c8c3b48e4ae1bdece685316d298c640955c14e1b4090602001610cf7565b600080600061226f85856132a1565b9150915061227c816132e6565b509392505050565b6002600054036122d65760405162461bcd60e51b815260206004820152601f60248201527f5265656e7472616e637947756172643a207265656e7472616e742063616c6c00604482015260640161041b565b6002600055565b803560009081526003602052604081205490036124455760005b6123046020830183614454565b905081101561243f57813560009081526003602090815260409091209061232d90840184614454565b8381811061233d5761233d613f1a565b83546001810185556000948552602090942060409091029290920192600202909101905061236b82826144bd565b5050813560009081526004602090815260409182902082518084019093529190819061239990860186614454565b858181106123a9576123a9613f1a565b6123bf9260206040909202019081019150613a40565b6001600160a01b031681526020016123da6040860186613f30565b858181106123ea576123ea613f1a565b60209081029290920135909252835460018082018655600095865294829020845160029092020180546001600160a01b0319166001600160a01b039092169190911781559201519183019190915550016122f7565b50612575565b60005b6124556020830183614454565b90508110156125735761246b6020830183614454565b8281811061247b5761247b613f1a565b6124919260206040909202019081019150613a40565b8235600090815260036020526040902080546001600160a01b039290921691839081106124c0576124c0613f1a565b60009182526020909120600290910201546001600160a01b0316146124f75760405162461bcd60e51b815260040161041b906144e1565b6125046040830183613f30565b8281811061251457612514613f1a565b905060200201356004600084600001358152602001908152602001600020600001828154811061254657612546613f1a565b906000526020600020906002020160010160008282546125669190614516565b9091555050600101612448565b505b60005b6125856020830183614454565b905081101561269c5761259b6020830183614454565b828181106125ab576125ab613f1a565b6125c19260206040909202019081019150613a40565b6001600160a01b03166323b872dd33306125de6040870187613f30565b868181106125ee576125ee613f1a565b905060200201356040518463ffffffff1660e01b815260040161261393929190613fae565b6020604051808303816000875af1158015612632573d6000803e3d6000fd5b505050506040513d601f19601f820116820180604052508101906126569190613f79565b6126945760405162461bcd60e51b815260206004820152600f60248201526e151c985b9cd9995c8819985a5b1959608a1b604482015260640161041b565b600101612578565b5050565b8035600090815260036020526040812060010154900361281b5760005b6126ca6060830183613f30565b905081101561281557813560009081526003602052604090206001016126f36060840184613f30565b8381811061270357612703613f1a565b90506020028101906127159190614529565b81546001810183556000928352602090922090916003020161273782826145dc565b5050813560009081526004602052604090819020815180830190925260010190806127656060860186613f30565b8581811061277557612775613f1a565b90506020028101906127879190614529565b612795906020810190613a40565b6001600160a01b031681526020016127b06080860186613f30565b858181106127c0576127c0613f1a565b60209081029290920135909252835460018082018655600095865294829020845160029092020180546001600160a01b0319166001600160a01b039092169190911781559201519183019190915550016126bd565b50612aef565b60005b61282b6060830183613f30565b9050811015612aed576128416060830183613f30565b8281811061285157612851613f1a565b90506020028101906128639190614529565b612871906020810190613a40565b6001600160a01b0316600360008460000135815260200190815260200160002060010182815481106128a5576128a5613f1a565b60009182526020909120600390910201546001600160a01b0316146128dc5760405162461bcd60e51b815260040161041b906144e1565b6128e96060830183613f30565b828181106128f9576128f9613f1a565b905060200281019061290b9190614529565b612919906020810190613a40565b6001600160a01b03166003600084600001358152602001908152602001600020600101828154811061294d5761294d613f1a565b60009182526020909120600390910201546001600160a01b031603612ae55760005b61297c6060840184613f30565b8381811061298c5761298c613f1a565b905060200281019061299e9190614529565b6129ac906020810190613f30565b9050811015612a6f57823560009081526003602052604090206001018054839081106129da576129da613f1a565b90600052602060002090600302016001018380606001906129fb9190613f30565b84818110612a0b57612a0b613f1a565b9050602002810190612a1d9190614529565b612a2b906020810190613f30565b83818110612a3b57612a3b613f1a565b8354600181018555600094855260209485902091909402929092013591909201555080612a6781613ebf565b91505061296f565b50612a7d6080830183613f30565b82818110612a8d57612a8d613f1a565b9050602002013560046000846000013581526020019081526020016000206001018281548110612abf57612abf613f1a565b90600052602060002090600202016001016000828254612adf9190614516565b90915550505b60010161281e565b505b60005b612aff6060830183613f30565b905081101561269c5760005b612b186060840184613f30565b83818110612b2857612b28613f1a565b9050602002810190612b3a9190614529565b612b48906020810190613f30565b9050811015612c4e57612b5e6060840184613f30565b83818110612b6e57612b6e613f1a565b9050602002810190612b809190614529565b612b8e906020810190613a40565b6001600160a01b03166323b872dd3330612bab6060880188613f30565b87818110612bbb57612bbb613f1a565b9050602002810190612bcd9190614529565b612bdb906020810190613f30565b86818110612beb57612beb613f1a565b905060200201356040518463ffffffff1660e01b8152600401612c1093929190613fae565b600060405180830381600087803b158015612c2a57600080fd5b505af1158015612c3e573d6000803e3d6000fd5b505060019092019150612b0b9050565b50600101612af2565b80356000908152600360205260408120600201549003612efb5760005b612c8160a0830183613f30565b9050811015612ef55781356000908152600360205260409020600201612caa60a0840184613f30565b83818110612cba57612cba613f1a565b9050602002810190612ccc9190614529565b815460018101835560009283526020909220909160030201612cee828261469d565b5050813560009081526004602052604081206002018054600101815581525b612d1a60a0840184613f30565b83818110612d2a57612d2a613f1a565b9050602002810190612d3c9190614529565b612d4a906020810190613f30565b9050811015612ee25782356000908152600460205260409020600201805483908110612d7857612d78613f1a565b906000526020600020016040518060600160405280858060a00190612d9d9190613f30565b86818110612dad57612dad613f1a565b9050602002810190612dbf9190614529565b612dcd906020810190613a40565b6001600160a01b03168152602001612de860a0870187613f30565b86818110612df857612df8613f1a565b9050602002810190612e0a9190614529565b612e18906020810190613f30565b85818110612e2857612e28613f1a565b905060200201358152602001858060c00190612e449190613f30565b86818110612e5457612e54613f1a565b9050602002810190612e669190613f30565b85818110612e7657612e76613f1a565b60209081029290920135909252835460018082018655600095865294829020845160039092020180546001600160a01b0319166001600160a01b039092169190911781559083015193810193909355506040015160029091015580612eda81613ebf565b915050612d0d565b5080612eed81613ebf565b915050612c74565b506130de565b60005b612f0b60a0830183613f30565b90508110156130dc5760005b612f2460a0840184613f30565b83818110612f3457612f34613f1a565b9050602002810190612f469190614529565b612f54906020810190613f30565b90508110156130c957612f6a60a0840184613f30565b83818110612f7a57612f7a613f1a565b9050602002810190612f8c9190614529565b612f9a906020810190613a40565b6001600160a01b031660036000856000013581526020019081526020016000206002018381548110612fce57612fce613f1a565b60009182526020909120600390910201546001600160a01b0316146130055760405162461bcd60e51b815260040161041b906144e1565b61301260c0840184613f30565b8381811061302257613022613f1a565b90506020028101906130349190613f30565b8281811061304457613044613f1a565b905060200201356004600085600001358152602001908152602001600020600201838154811061307657613076613f1a565b90600052602060002001828154811061309157613091613f1a565b906000526020600020906003020160020160008282546130b19190614516565b909155508190506130c181613ebf565b915050612f17565b50806130d481613ebf565b915050612efe565b505b60005b6130ee60a0830183613f30565b905081101561269c5760005b61310760a0840184613f30565b8381811061311757613117613f1a565b90506020028101906131299190614529565b613137906020810190613f30565b905081101561328e5761314d60a0840184613f30565b8381811061315d5761315d613f1a565b905060200281019061316f9190614529565b61317d906020810190613a40565b6001600160a01b031663f242432a333061319a60a0880188613f30565b878181106131aa576131aa613f1a565b90506020028101906131bc9190614529565b6131ca906020810190613f30565b868181106131da576131da613f1a565b90506020020135878060c001906131f19190613f30565b8881811061320157613201613f1a565b90506020028101906132139190613f30565b8781811061322357613223613f1a565b905060200201356040518563ffffffff1660e01b81526004016132499493929190613fd2565b600060405180830381600087803b15801561326357600080fd5b505af1158015613277573d6000803e3d6000fd5b50505050808061328690613ebf565b9150506130fa565b508061329981613ebf565b9150506130e1565b60008082516041036132d75760208301516040840151606085015160001a6132cb87828585613433565b945094505050506132df565b506000905060025b9250929050565b60008160048111156132fa576132fa614771565b036133025750565b600181600481111561331657613316614771565b036133635760405162461bcd60e51b815260206004820152601860248201527f45434453413a20696e76616c6964207369676e61747572650000000000000000604482015260640161041b565b600281600481111561337757613377614771565b036133c45760405162461bcd60e51b815260206004820152601f60248201527f45434453413a20696e76616c6964207369676e6174757265206c656e67746800604482015260640161041b565b60038160048111156133d8576133d8614771565b036134305760405162461bcd60e51b815260206004820152602260248201527f45434453413a20696e76616c6964207369676e6174757265202773272076616c604482015261756560f01b606482015260840161041b565b50565b6000807f7fffffffffffffffffffffffffffffff5d576e7357a4501ddfe92f46681b20a083111561346a57506000905060036134ee565b6040805160008082526020820180845289905260ff881692820192909252606081018690526080810185905260019060a0016020604051602081039080840390855afa1580156134be573d6000803e3d6000fd5b5050604051601f1901519150506001600160a01b0381166134e7576000600192509250506134ee565b9150600090505b94509492505050565b50805460008255600202906000526020600020908101906134309190613578565b508054600082556003029060005260206000209081019061343091906135a2565b508054600082556003029060005260206000209081019061343091906135d7565b50805460008255906000526020600020908101906134309190613613565b5b8082111561359e5780546001600160a01b031916815560006001820155600201613579565b5090565b8082111561359e5780546001600160a01b031916815560006135c76001830182613630565b50600060028201556003016135a2565b8082111561359e5780546001600160a01b031916815560006135fc6001830182613630565b61360a600283016000613630565b506003016135d7565b8082111561359e576000613627828261364e565b50600101613613565b5080546000825590600052602060002090810190613430919061366f565b50805460008255600302906000526020600020908101906134309190613684565b5b8082111561359e5760008155600101613670565b5b8082111561359e5780546001600160a01b03191681556000600182018190556002820155600301613685565b6000602082840312156136c357600080fd5b81356001600160e01b0319811681146136db57600080fd5b9392505050565b600080604083850312156136f557600080fd5b50508035926020909101359150565b6001600160a01b038116811461343057600080fd5b6000806040838503121561372c57600080fd5b82359150602083013561373e81613704565b809150509250929050565b60006020828403121561375b57600080fd5b81356001600160401b0381111561377157600080fd5b820160e081850312156136db57600080fd5b60006020828403121561379557600080fd5b5035919050565b6000815180845260208085019450848260051b86018286016000805b86811015613826578484038a52825180518086529087019087860190845b8181101561381157835180516001600160a01b031684528a8101518b85015260409081015190840152928901926060909201916001016137d6565b50509a87019a945050918501916001016137b8565b509198975050505050505050565b805160608084528151908401819052600091602091908201906080860190845b8181101561388d5761387a83855180516001600160a01b03168252602090810151910152565b9284019260409290920191600101613854565b50508483015186820387850152805180835290840192506000918401905b808310156138e7576138d182855180516001600160a01b03168252602090810151910152565b60408201915084840193506001830192506138ab565b50604086015193508681036040880152613901818561379c565b979650505050505050565b6020815260006136db6020830184613834565b634e487b7160e01b600052604160045260246000fd5b600082601f83011261394657600080fd5b81356001600160401b03808211156139605761396061391f565b604051601f8301601f19908116603f011681019082821181831017156139885761398861391f565b816040528381528660208588010111156139a157600080fd5b836020870160208301376000602085830101528094505050505092915050565b600080600080608085870312156139d757600080fd5b84356139e281613704565b93506020850135925060408501356001600160401b0380821115613a0557600080fd5b613a1188838901613935565b93506060870135915080821115613a2757600080fd5b50613a3487828801613935565b91505092959194509250565b600060208284031215613a5257600080fd5b81356136db81613704565b600081518084526020808501945080840160005b83811015613a8d57815187529582019590820190600101613a71565b509495945050505050565b600082825180855260208086019550808260051b84010181860160005b84811015613b1f57858303601f19018952815180516001600160a01b0316845284810151606086860181905290613aee82870182613a5d565b91505060408083015192508582038187015250613b0b8183613a5d565b9a86019a9450505090830190600101613ab5565b5090979650505050505050565b60208082528251606083830181905281516080850181905260009392830191849160a08701905b80841015613b8f57613b7982865180516001600160a01b03168252602090810151910152565b6040820191508585019450600184019350613b53565b50848801519350601f19925060408388830301818901528185518084528784019150878160051b850101888801975060005b82811015613c125785820388018452885180516001600160a01b031683528a8101518b8401899052613bf589850182613a5d565b9187015193870193909352988a0198938a01939150600101613bc1565b50838c01519850868b820301868c0152613c2c818a613a98565b9c9b505050505050505050505050565b60008083601f840112613c4e57600080fd5b5081356001600160401b03811115613c6557600080fd5b6020830191508360208260051b85010111156132df57600080fd5b60008083601f840112613c9257600080fd5b5081356001600160401b03811115613ca957600080fd5b6020830191508360208285010111156132df57600080fd5b60008060008060008060008060a0898b031215613cdd57600080fd5b8835613ce881613704565b97506020890135613cf881613704565b965060408901356001600160401b0380821115613d1457600080fd5b613d208c838d01613c3c565b909850965060608b0135915080821115613d3957600080fd5b613d458c838d01613c3c565b909650945060808b0135915080821115613d5e57600080fd5b50613d6b8b828c01613c80565b999c989b5096995094979396929594505050565b600080600060608486031215613d9457600080fd5b8335925060208401356001600160401b0380821115613db257600080fd5b613dbe87838801613935565b93506040860135915080821115613dd457600080fd5b50613de186828701613935565b9150509250925092565b60008060008060008060a08789031215613e0457600080fd5b8635613e0f81613704565b95506020870135613e1f81613704565b9450604087013593506060870135925060808701356001600160401b03811115613e4857600080fd5b613e5489828a01613c80565b979a9699509497509295939492505050565b60208082526023908201527f4578706972792074696d657374616d70206d75737420626520696e206675747560408201526239329760e91b606082015260800190565b634e487b7160e01b600052601160045260246000fd5b600060018201613ed157613ed1613ea9565b5060010190565b60208082526022908201527f4f6e6c792061646d696e2063616e2063616c6c20746869732066756e6374696f604082015261371760f11b606082015260800190565b634e487b7160e01b600052603260045260246000fd5b6000808335601e19843603018112613f4757600080fd5b8301803591506001600160401b03821115613f6157600080fd5b6020019150600581901b36038213156132df57600080fd5b600060208284031215613f8b57600080fd5b815180151581146136db57600080fd5b818103818111156103af576103af613ea9565b6001600160a01b039384168152919092166020820152604081019190915260600190565b6001600160a01b0394851681529290931660208301526040820152606081019190915260a06080820181905260009082015260c00190565b6000808335601e1984360301811261402157600080fd5b83016020810192503590506001600160401b0381111561404057600080fd5b8060061b36038213156132df57600080fd5b8183526000602080850194508260005b85811015613a8d57813561407581613704565b6001600160a01b03168752818301358388015260409687019690910190600101614062565b6000808335601e198436030181126140b157600080fd5b83016020810192503590506001600160401b038111156140d057600080fd5b8060051b36038213156132df57600080fd5b81835260006001600160fb1b038311156140fb57600080fd5b8260051b80836020870137939093016020019392505050565b60008235605e1983360301811261412a57600080fd5b90910192915050565b60008383855260208086019550808560051b8301018460005b87811015613b1f57848303601f190189526141678288614114565b6060813561417481613704565b6001600160a01b0316855261418b8287018361409a565b828888015261419d83880182846140e2565b604094850135979094019690965250509884019892509083019060010161414c565b60008383855260208086019550808560051b8301018460005b87811015613b1f57848303601f190189526141f38288614114565b6060813561420081613704565b6001600160a01b031685526142178287018361409a565b828888015261422983880182846140e2565b92505050604061423b8184018461409a565b93508683038288015261424f8385836140e2565b9c88019c965050509285019250506001016141d8565b60008383855260208086019550808560051b8301018460005b87811015613b1f57848303601f19018952614299828861409a565b6142a48582846140e2565b9a86019a945050509083019060010161427e565b828152604060208201528135604082015260006142d8602084018461400a565b60e060608501526142ee61012085018284614052565b9150506142fe604085018561409a565b603f19808685030160808701526143168483856140e2565b9350614325606088018861409a565b93509150808685030160a087015261433e848484614133565b935061434d608088018861409a565b93509150808685030160c08701526143668484846140e2565b935061437560a088018861409a565b93509150808685030160e087015261438e8484846141bf565b935061439d60c088018861409a565b93509150808685030161010087015250613901838383614265565b6000815160005b818110156143d957602081850181015186830152016143bf565b50600093019283525090919050565b6bffffffffffffffffffffffff198460601b168152600061440c60148301856143b8565b928352505060200192915050565b600061442682856143b8565b9283525050602001919050565b82815260406020820152600061444c6040830184613834565b949350505050565b6000808335601e1984360301811261446b57600080fd5b8301803591506001600160401b0382111561448557600080fd5b6020019150600681901b36038213156132df57600080fd5b80546001600160a01b0319166001600160a01b0392909216919091179055565b81356144c881613704565b6144d2818361449d565b50602082013560018201555050565b6020808252818101527f546f6b656e20616464726573732063616e6e6f74206265206368616e6765642e604082015260600190565b808201808211156103af576103af613ea9565b60008235605e1983360301811261453f57600080fd5b9190910192915050565b6001600160401b038311156145605761456061391f565b600160401b8311156145745761457461391f565b8054838255808410156145ab576000828152602081208581019083015b808210156145a757828255600182019150614591565b5050505b5060008181526020812083915b858110156145d4578235828201556020909201916001016145b8565b505050505050565b81356145e781613704565b6145f1818361449d565b506001808201602061460581860186613f30565b6001600160401b0381111561461c5761461c61391f565b600160401b8111156146305761463061391f565b8354818555808210156146645760008581528481208381019083015b80821015614660578282559088019061464c565b5050505b50600093845260208420935b8181101561468957823585820155918301918501614670565b505050505050604082013560028201555050565b81356146a881613704565b6146b2818361449d565b50600180820160206146c681860186613f30565b6001600160401b038111156146dd576146dd61391f565b600160401b8111156146f1576146f161391f565b8354818555808210156147255760008581528481208381019083015b80821015614721578282559088019061470d565b5050505b50600093845260208420935b8181101561474a57823585820155918301918501614731565b50505050505061475d6040830183613f30565b61476b818360028601614549565b50505050565b634e487b7160e01b600052602160045260246000fdfea26469706673582212203151a458720939fb970a081ebf56ca23f8662c58d261d74bae1a2b28af1dfe1b64736f6c63430008110033",
  "devdoc": {
    "author": "Kratos",
    "kind": "dev",
    "methods": {
      "claimRewards(uint256,bytes,bytes)": {
        "details": "Claims rewards for a round",
        "params": {
          "_round": "Round number",
          "nonce": "Random bytes32 nonce",
          "signature": "Signature generated off-chain"
        }
      },
      "getRoundAmounts(uint256)": {
        "params": {
          "_round": "Round number"
        }
      },
      "getRoundRewards(uint256)": {
        "params": {
          "_round": "Round number"
        }
      },
      "hasUserClaimed(uint256,address)": {
        "params": {
          "_round": "Round number",
          "user": "Address of user"
        }
      },
      "onERC1155BatchReceived(address,address,uint256[],uint256[],bytes)": {
        "details": "Handles the receipt of a multiple ERC1155 token types. This function is called at the end of a `safeBatchTransferFrom` after the balances have been updated. NOTE: To accept the transfer(s), this must return `bytes4(keccak256(\"onERC1155BatchReceived(address,address,uint256[],uint256[],bytes)\"))` (i.e. 0xbc197c81, or its own function selector).",
        "params": {
          "data": "Additional data with no specified format",
          "from": "The address which previously owned the token",
          "ids": "An array containing ids of each token being transferred (order and length must match values array)",
          "operator": "The address which initiated the batch transfer (i.e. msg.sender)",
          "values": "An array containing amounts of each token being transferred (order and length must match ids array)"
        },
        "returns": {
          "_0": "`bytes4(keccak256(\"onERC1155BatchReceived(address,address,uint256[],uint256[],bytes)\"))` if transfer is allowed"
        }
      },
      "onERC1155Received(address,address,uint256,uint256,bytes)": {
        "details": "Handles the receipt of a single ERC1155 token type. This function is called at the end of a `safeTransferFrom` after the balance has been updated. NOTE: To accept the transfer, this must return `bytes4(keccak256(\"onERC1155Received(address,address,uint256,uint256,bytes)\"))` (i.e. 0xf23a6e61, or its own function selector).",
        "params": {
          "data": "Additional data with no specified format",
          "from": "The address which previously owned the token",
          "id": "The ID of the token being transferred",
          "operator": "The address which initiated the transfer (i.e. msg.sender)",
          "value": "The amount of tokens being transferred"
        },
        "returns": {
          "_0": "`bytes4(keccak256(\"onERC1155Received(address,address,uint256,uint256,bytes)\"))` if transfer is allowed"
        }
      },
      "removeRewards((uint256,(address,uint256)[],uint256[],(address,uint256[],uint256)[],uint256[],(address,uint256[],uint256[])[],uint256[][]))": {
        "details": "Remove rewards for a round, only for admin",
        "params": {
          "data": "Reward data"
        }
      },
      "setAdmin(address)": {
        "details": "Set address of admin EOA",
        "params": {
          "_admin": "Address of admin EOA"
        }
      },
      "setController(address)": {
        "details": "Set address of controller EOA",
        "params": {
          "_controller": "Address of controller EOA"
        }
      },
      "setRoundExpiry(uint256,uint256)": {
        "details": "Set round expiry timestamp",
        "params": {
          "_round": "Round number",
          "expiryTimestamp": "Expiry timestamp for the round"
        }
      },
      "setWhitelistSignerAddress(address)": {
        "details": "Set new whitelist signer address",
        "params": {
          "_whitelistSignerAddress": "Address of new whitelist signer"
        }
      },
      "startNewRound(uint256,uint256)": {
        "details": "Start a new round for controller only",
        "params": {
          "expiryTimestamp": "Expiry timestamp for the round"
        }
      },
      "supportsInterface(bytes4)": {
        "details": "Returns true if this contract implements the interface defined by `interfaceId`. See the corresponding https://eips.ethereum.org/EIPS/eip-165#how-interfaces-are-identified[EIP section] to learn more about how these ids are created. This function call must use less than 30 000 gas."
      },
      "topUpRewards((uint256,(address,uint256)[],uint256[],(address,uint256[],uint256)[],uint256[],(address,uint256[],uint256[])[],uint256[][]))": {
        "details": "Top up rewards for a round, only for admin",
        "params": {
          "data": "Reward data"
        }
      },
      "whitelistSigned(address,uint256,bytes,bytes)": {
        "details": "Checks if the the signature is signed by a valid signer for whitelist",
        "params": {
          "_round": "Round number",
          "nonce": "Random bytes32 nonce",
          "sender": "Address of minter",
          "signature": "Signature generated off-chain"
        }
      }
    },
    "title": "AtlanteanTrove Quest Rewards Claiming Contract",
    "version": 1
  },
  "userdoc": {
    "kind": "user",
    "methods": {
      "admin()": {
        "notice": "The address of the admin"
      },
      "controller()": {
        "notice": "The address of the controller"
      },
      "currentRound()": {
        "notice": "Variable to track current round"
      },
      "getRoundAmounts(uint256)": {
        "notice": "Get round amounts"
      },
      "getRoundRewards(uint256)": {
        "notice": "Get round rewards"
      },
      "hasUserClaimed(uint256,address)": {
        "notice": "Get user claim status for a round"
      },
      "roundTime(uint256)": {
        "notice": "Mapping of round to Round details"
      },
      "whitelistSignerAddress()": {
        "notice": "The address of the whitelist signer"
      }
    },
    "version": 1
  },
  "storageLayout": {
    "storage": [
      {
        "astId": 10,
        "contract": "contracts/AtlanteanTrove.sol:AtlanteanTrove",
        "label": "_status",
        "offset": 0,
        "slot": "0",
        "type": "t_uint256"
      },
      {
        "astId": 1846,
        "contract": "contracts/AtlanteanTrove.sol:AtlanteanTrove",
        "label": "hasClaimed",
        "offset": 0,
        "slot": "1",
        "type": "t_mapping(t_uint256,t_mapping(t_address,t_bool))"
      },
      {
        "astId": 1852,
        "contract": "contracts/AtlanteanTrove.sol:AtlanteanTrove",
        "label": "roundTime",
        "offset": 0,
        "slot": "2",
        "type": "t_mapping(t_uint256,t_struct(Round)1973_storage)"
      },
      {
        "astId": 1858,
        "contract": "contracts/AtlanteanTrove.sol:AtlanteanTrove",
        "label": "roundRewards",
        "offset": 0,
        "slot": "3",
        "type": "t_mapping(t_uint256,t_struct(Reward)1912_storage)"
      },
      {
        "astId": 1864,
        "contract": "contracts/AtlanteanTrove.sol:AtlanteanTrove",
        "label": "roundAmounts",
        "offset": 0,
        "slot": "4",
        "type": "t_mapping(t_uint256,t_struct(Amount)1943_storage)"
      },
      {
        "astId": 1868,
        "contract": "contracts/AtlanteanTrove.sol:AtlanteanTrove",
        "label": "currentRound",
        "offset": 0,
        "slot": "5",
        "type": "t_uint256"
      },
      {
        "astId": 1871,
        "contract": "contracts/AtlanteanTrove.sol:AtlanteanTrove",
        "label": "admin",
        "offset": 0,
        "slot": "6",
        "type": "t_address"
      },
      {
        "astId": 1874,
        "contract": "contracts/AtlanteanTrove.sol:AtlanteanTrove",
        "label": "controller",
        "offset": 0,
        "slot": "7",
        "type": "t_address"
      },
      {
        "astId": 1877,
        "contract": "contracts/AtlanteanTrove.sol:AtlanteanTrove",
        "label": "whitelistSignerAddress",
        "offset": 0,
        "slot": "8",
        "type": "t_address"
      }
    ],
    "types": {
      "t_address": {
        "encoding": "inplace",
        "label": "address",
        "numberOfBytes": "20"
      },
      "t_array(t_array(t_struct(RewardERC1155Amount)1929_storage)dyn_storage)dyn_storage": {
        "base": "t_array(t_struct(RewardERC1155Amount)1929_storage)dyn_storage",
        "encoding": "dynamic_array",
        "label": "struct AtlanteanTrove.RewardERC1155Amount[][]",
        "numberOfBytes": "32"
      },
      "t_array(t_struct(RewardERC1155)1899_storage)dyn_storage": {
        "base": "t_struct(RewardERC1155)1899_storage",
        "encoding": "dynamic_array",
        "label": "struct AtlanteanTrove.RewardERC1155[]",
        "numberOfBytes": "32"
      },
      "t_array(t_struct(RewardERC1155Amount)1929_storage)dyn_storage": {
        "base": "t_struct(RewardERC1155Amount)1929_storage",
        "encoding": "dynamic_array",
        "label": "struct AtlanteanTrove.RewardERC1155Amount[]",
        "numberOfBytes": "32"
      },
      "t_array(t_struct(RewardERC20)1882_storage)dyn_storage": {
        "base": "t_struct(RewardERC20)1882_storage",
        "encoding": "dynamic_array",
        "label": "struct AtlanteanTrove.RewardERC20[]",
        "numberOfBytes": "32"
      },
      "t_array(t_struct(RewardERC20Amount)1917_storage)dyn_storage": {
        "base": "t_struct(RewardERC20Amount)1917_storage",
        "encoding": "dynamic_array",
        "label": "struct AtlanteanTrove.RewardERC20Amount[]",
        "numberOfBytes": "32"
      },
      "t_array(t_struct(RewardERC721)1890_storage)dyn_storage": {
        "base": "t_struct(RewardERC721)1890_storage",
        "encoding": "dynamic_array",
        "label": "struct AtlanteanTrove.RewardERC721[]",
        "numberOfBytes": "32"
      },
      "t_array(t_struct(RewardERC721Amount)1922_storage)dyn_storage": {
        "base": "t_struct(RewardERC721Amount)1922_storage",
        "encoding": "dynamic_array",
        "label": "struct AtlanteanTrove.RewardERC721Amount[]",
        "numberOfBytes": "32"
      },
      "t_array(t_uint256)dyn_storage": {
        "base": "t_uint256",
        "encoding": "dynamic_array",
        "label": "uint256[]",
        "numberOfBytes": "32"
      },
      "t_bool": {
        "encoding": "inplace",
        "label": "bool",
        "numberOfBytes": "1"
      },
      "t_mapping(t_address,t_bool)": {
        "encoding": "mapping",
        "key": "t_address",
        "label": "mapping(address => bool)",
        "numberOfBytes": "32",
        "value": "t_bool"
      },
      "t_mapping(t_uint256,t_mapping(t_address,t_bool))": {
        "encoding": "mapping",
        "key": "t_uint256",
        "label": "mapping(uint256 => mapping(address => bool))",
        "numberOfBytes": "32",
        "value": "t_mapping(t_address,t_bool)"
      },
      "t_mapping(t_uint256,t_struct(Amount)1943_storage)": {
        "encoding": "mapping",
        "key": "t_uint256",
        "label": "mapping(uint256 => struct AtlanteanTrove.Amount)",
        "numberOfBytes": "32",
        "value": "t_struct(Amount)1943_storage"
      },
      "t_mapping(t_uint256,t_struct(Reward)1912_storage)": {
        "encoding": "mapping",
        "key": "t_uint256",
        "label": "mapping(uint256 => struct AtlanteanTrove.Reward)",
        "numberOfBytes": "32",
        "value": "t_struct(Reward)1912_storage"
      },
      "t_mapping(t_uint256,t_struct(Round)1973_storage)": {
        "encoding": "mapping",
        "key": "t_uint256",
        "label": "mapping(uint256 => struct AtlanteanTrove.Round)",
        "numberOfBytes": "32",
        "value": "t_struct(Round)1973_storage"
      },
      "t_struct(Amount)1943_storage": {
        "encoding": "inplace",
        "label": "struct AtlanteanTrove.Amount",
        "members": [
          {
            "astId": 1933,
            "contract": "contracts/AtlanteanTrove.sol:AtlanteanTrove",
            "label": "erc20Amount",
            "offset": 0,
            "slot": "0",
            "type": "t_array(t_struct(RewardERC20Amount)1917_storage)dyn_storage"
          },
          {
            "astId": 1937,
            "contract": "contracts/AtlanteanTrove.sol:AtlanteanTrove",
            "label": "erc721Amount",
            "offset": 0,
            "slot": "1",
            "type": "t_array(t_struct(RewardERC721Amount)1922_storage)dyn_storage"
          },
          {
            "astId": 1942,
            "contract": "contracts/AtlanteanTrove.sol:AtlanteanTrove",
            "label": "erc1155Amount",
            "offset": 0,
            "slot": "2",
            "type": "t_array(t_array(t_struct(RewardERC1155Amount)1929_storage)dyn_storage)dyn_storage"
          }
        ],
        "numberOfBytes": "96"
      },
      "t_struct(Reward)1912_storage": {
        "encoding": "inplace",
        "label": "struct AtlanteanTrove.Reward",
        "members": [
          {
            "astId": 1903,
            "contract": "contracts/AtlanteanTrove.sol:AtlanteanTrove",
            "label": "erc20Rewards",
            "offset": 0,
            "slot": "0",
            "type": "t_array(t_struct(RewardERC20)1882_storage)dyn_storage"
          },
          {
            "astId": 1907,
            "contract": "contracts/AtlanteanTrove.sol:AtlanteanTrove",
            "label": "erc721Rewards",
            "offset": 0,
            "slot": "1",
            "type": "t_array(t_struct(RewardERC721)1890_storage)dyn_storage"
          },
          {
            "astId": 1911,
            "contract": "contracts/AtlanteanTrove.sol:AtlanteanTrove",
            "label": "erc1155Rewards",
            "offset": 0,
            "slot": "2",
            "type": "t_array(t_struct(RewardERC1155)1899_storage)dyn_storage"
          }
        ],
        "numberOfBytes": "96"
      },
      "t_struct(RewardERC1155)1899_storage": {
        "encoding": "inplace",
        "label": "struct AtlanteanTrove.RewardERC1155",
        "members": [
          {
            "astId": 1892,
            "contract": "contracts/AtlanteanTrove.sol:AtlanteanTrove",
            "label": "tokenAddress",
            "offset": 0,
            "slot": "0",
            "type": "t_address"
          },
          {
            "astId": 1895,
            "contract": "contracts/AtlanteanTrove.sol:AtlanteanTrove",
            "label": "tokenIds",
            "offset": 0,
            "slot": "1",
            "type": "t_array(t_uint256)dyn_storage"
          },
          {
            "astId": 1898,
            "contract": "contracts/AtlanteanTrove.sol:AtlanteanTrove",
            "label": "amounts",
            "offset": 0,
            "slot": "2",
            "type": "t_array(t_uint256)dyn_storage"
          }
        ],
        "numberOfBytes": "96"
      },
      "t_struct(RewardERC1155Amount)1929_storage": {
        "encoding": "inplace",
        "label": "struct AtlanteanTrove.RewardERC1155Amount",
        "members": [
          {
            "astId": 1924,
            "contract": "contracts/AtlanteanTrove.sol:AtlanteanTrove",
            "label": "tokenAddress",
            "offset": 0,
            "slot": "0",
            "type": "t_address"
          },
          {
            "astId": 1926,
            "contract": "contracts/AtlanteanTrove.sol:AtlanteanTrove",
            "label": "tokenId",
            "offset": 0,
            "slot": "1",
            "type": "t_uint256"
          },
          {
            "astId": 1928,
            "contract": "contracts/AtlanteanTrove.sol:AtlanteanTrove",
            "label": "amount",
            "offset": 0,
            "slot": "2",
            "type": "t_uint256"
          }
        ],
        "numberOfBytes": "96"
      },
      "t_struct(RewardERC20)1882_storage": {
        "encoding": "inplace",
        "label": "struct AtlanteanTrove.RewardERC20",
        "members": [
          {
            "astId": 1879,
            "contract": "contracts/AtlanteanTrove.sol:AtlanteanTrove",
            "label": "tokenAddress",
            "offset": 0,
            "slot": "0",
            "type": "t_address"
          },
          {
            "astId": 1881,
            "contract": "contracts/AtlanteanTrove.sol:AtlanteanTrove",
            "label": "amount",
            "offset": 0,
            "slot": "1",
            "type": "t_uint256"
          }
        ],
        "numberOfBytes": "64"
      },
      "t_struct(RewardERC20Amount)1917_storage": {
        "encoding": "inplace",
        "label": "struct AtlanteanTrove.RewardERC20Amount",
        "members": [
          {
            "astId": 1914,
            "contract": "contracts/AtlanteanTrove.sol:AtlanteanTrove",
            "label": "tokenAddress",
            "offset": 0,
            "slot": "0",
            "type": "t_address"
          },
          {
            "astId": 1916,
            "contract": "contracts/AtlanteanTrove.sol:AtlanteanTrove",
            "label": "amount",
            "offset": 0,
            "slot": "1",
            "type": "t_uint256"
          }
        ],
        "numberOfBytes": "64"
      },
      "t_struct(RewardERC721)1890_storage": {
        "encoding": "inplace",
        "label": "struct AtlanteanTrove.RewardERC721",
        "members": [
          {
            "astId": 1884,
            "contract": "contracts/AtlanteanTrove.sol:AtlanteanTrove",
            "label": "tokenAddress",
            "offset": 0,
            "slot": "0",
            "type": "t_address"
          },
          {
            "astId": 1887,
            "contract": "contracts/AtlanteanTrove.sol:AtlanteanTrove",
            "label": "tokenIds",
            "offset": 0,
            "slot": "1",
            "type": "t_array(t_uint256)dyn_storage"
          },
          {
            "astId": 1889,
            "contract": "contracts/AtlanteanTrove.sol:AtlanteanTrove",
            "label": "index",
            "offset": 0,
            "slot": "2",
            "type": "t_uint256"
          }
        ],
        "numberOfBytes": "96"
      },
      "t_struct(RewardERC721Amount)1922_storage": {
        "encoding": "inplace",
        "label": "struct AtlanteanTrove.RewardERC721Amount",
        "members": [
          {
            "astId": 1919,
            "contract": "contracts/AtlanteanTrove.sol:AtlanteanTrove",
            "label": "tokenAddress",
            "offset": 0,
            "slot": "0",
            "type": "t_address"
          },
          {
            "astId": 1921,
            "contract": "contracts/AtlanteanTrove.sol:AtlanteanTrove",
            "label": "amount",
            "offset": 0,
            "slot": "1",
            "type": "t_uint256"
          }
        ],
        "numberOfBytes": "64"
      },
      "t_struct(Round)1973_storage": {
        "encoding": "inplace",
        "label": "struct AtlanteanTrove.Round",
        "members": [
          {
            "astId": 1970,
            "contract": "contracts/AtlanteanTrove.sol:AtlanteanTrove",
            "label": "startTime",
            "offset": 0,
            "slot": "0",
            "type": "t_uint256"
          },
          {
            "astId": 1972,
            "contract": "contracts/AtlanteanTrove.sol:AtlanteanTrove",
            "label": "expiryTimestamp",
            "offset": 0,
            "slot": "1",
            "type": "t_uint256"
          }
        ],
        "numberOfBytes": "64"
      },
      "t_uint256": {
        "encoding": "inplace",
        "label": "uint256",
        "numberOfBytes": "32"
      }
    }
  }
}