{
  "address": "0x16bA5454f6dE344cc094dAf29cb9192489f592EF",
  "abi": [
    {
      "inputs": [
        {
          "internalType": "contract AtlantisAddressRegistry",
          "name": "_registry",
          "type": "address"
        },
        {
          "internalType": "uint256",
          "name": "_totalRewardPerSecond",
          "type": "uint256"
        },
        {
          "internalType": "uint256",
          "name": "_seasonEndTime",
          "type": "uint256"
        },
        {
          "internalType": "uint256[]",
          "name": "_nftMultipliers",
          "type": "uint256[]"
        }
      ],
      "stateMutability": "nonpayable",
      "type": "constructor"
    },
    {
      "anonymous": false,
      "inputs": [
        {
          "indexed": false,
          "internalType": "address",
          "name": "newAddressRegistry",
          "type": "address"
        }
      ],
      "name": "AddressRegistryUpdated",
      "type": "event"
    },
    {
      "anonymous": false,
      "inputs": [
        {
          "indexed": false,
          "internalType": "address",
          "name": "user",
          "type": "address"
        },
        {
          "indexed": false,
          "internalType": "uint256",
          "name": "tokenID",
          "type": "uint256"
        }
      ],
      "name": "EmergencyWithdraw",
      "type": "event"
    },
    {
      "anonymous": false,
      "inputs": [
        {
          "indexed": false,
          "internalType": "uint256",
          "name": "amount",
          "type": "uint256"
        }
      ],
      "name": "EmergencyWithdrawGold",
      "type": "event"
    },
    {
      "anonymous": false,
      "inputs": [
        {
          "indexed": false,
          "internalType": "uint256",
          "name": "amount",
          "type": "uint256"
        }
      ],
      "name": "EmergencyWithdrawStardust",
      "type": "event"
    },
    {
      "anonymous": false,
      "inputs": [
        {
          "indexed": false,
          "internalType": "uint256",
          "name": "endTime",
          "type": "uint256"
        }
      ],
      "name": "EndSeason",
      "type": "event"
    },
    {
      "anonymous": false,
      "inputs": [
        {
          "indexed": true,
          "internalType": "address",
          "name": "previousOwner",
          "type": "address"
        },
        {
          "indexed": true,
          "internalType": "address",
          "name": "newOwner",
          "type": "address"
        }
      ],
      "name": "OwnershipTransferred",
      "type": "event"
    },
    {
      "anonymous": false,
      "inputs": [
        {
          "indexed": false,
          "internalType": "uint8",
          "name": "poolId",
          "type": "uint8"
        },
        {
          "indexed": true,
          "internalType": "address",
          "name": "user",
          "type": "address"
        },
        {
          "indexed": false,
          "internalType": "uint256",
          "name": "goldAmount",
          "type": "uint256"
        },
        {
          "indexed": false,
          "internalType": "uint256",
          "name": "stardustAmount",
          "type": "uint256"
        }
      ],
      "name": "Payout",
      "type": "event"
    },
    {
      "anonymous": false,
      "inputs": [
        {
          "indexed": false,
          "internalType": "uint256",
          "name": "newEndTime",
          "type": "uint256"
        }
      ],
      "name": "SeasonEndTimeChanged",
      "type": "event"
    },
    {
      "anonymous": false,
      "inputs": [
        {
          "indexed": true,
          "internalType": "address",
          "name": "user",
          "type": "address"
        },
        {
          "indexed": true,
          "internalType": "uint256",
          "name": "tokenID",
          "type": "uint256"
        },
        {
          "indexed": false,
          "internalType": "uint256",
          "name": "shipScore",
          "type": "uint256"
        }
      ],
      "name": "Stake",
      "type": "event"
    },
    {
      "anonymous": false,
      "inputs": [
        {
          "indexed": true,
          "internalType": "uint256",
          "name": "pid",
          "type": "uint256"
        },
        {
          "indexed": true,
          "internalType": "address",
          "name": "user",
          "type": "address"
        },
        {
          "indexed": false,
          "internalType": "uint256",
          "name": "numOfNfts",
          "type": "uint256"
        }
      ],
      "name": "StakeNfts",
      "type": "event"
    },
    {
      "anonymous": false,
      "inputs": [
        {
          "indexed": false,
          "internalType": "uint256",
          "name": "startTime",
          "type": "uint256"
        }
      ],
      "name": "StartSeason",
      "type": "event"
    },
    {
      "anonymous": false,
      "inputs": [
        {
          "indexed": true,
          "internalType": "uint256",
          "name": "pid",
          "type": "uint256"
        },
        {
          "indexed": true,
          "internalType": "address",
          "name": "user",
          "type": "address"
        },
        {
          "indexed": false,
          "internalType": "uint256",
          "name": "numOfNfts",
          "type": "uint256"
        }
      ],
      "name": "UnstakeNfts",
      "type": "event"
    },
    {
      "anonymous": false,
      "inputs": [
        {
          "indexed": true,
          "internalType": "address",
          "name": "user",
          "type": "address"
        },
        {
          "indexed": true,
          "internalType": "uint256",
          "name": "tokenID",
          "type": "uint256"
        }
      ],
      "name": "Unstaked",
      "type": "event"
    },
    {
      "inputs": [],
      "name": "ACC_TOKEN_PRECISION",
      "outputs": [
        {
          "internalType": "uint256",
          "name": "",
          "type": "uint256"
        }
      ],
      "stateMutability": "view",
      "type": "function"
    },
    {
      "inputs": [],
      "name": "MAX_NFTS_STAKED",
      "outputs": [
        {
          "internalType": "uint256",
          "name": "",
          "type": "uint256"
        }
      ],
      "stateMutability": "view",
      "type": "function"
    },
    {
      "inputs": [],
      "name": "addressRegistry",
      "outputs": [
        {
          "internalType": "contract AtlantisAddressRegistry",
          "name": "",
          "type": "address"
        }
      ],
      "stateMutability": "view",
      "type": "function"
    },
    {
      "inputs": [
        {
          "internalType": "uint256",
          "name": "",
          "type": "uint256"
        }
      ],
      "name": "cachedSpeeds",
      "outputs": [
        {
          "internalType": "uint256",
          "name": "",
          "type": "uint256"
        }
      ],
      "stateMutability": "view",
      "type": "function"
    },
    {
      "inputs": [],
      "name": "endSeason",
      "outputs": [],
      "stateMutability": "nonpayable",
      "type": "function"
    },
    {
      "inputs": [
        {
          "internalType": "address",
          "name": "_collectionAddress",
          "type": "address"
        }
      ],
      "name": "getCurrentlyStakedTokenIds",
      "outputs": [
        {
          "internalType": "uint256[]",
          "name": "",
          "type": "uint256[]"
        }
      ],
      "stateMutability": "view",
      "type": "function"
    },
    {
      "inputs": [
        {
          "internalType": "uint8",
          "name": "_pid",
          "type": "uint8"
        },
        {
          "internalType": "address",
          "name": "_collectionAddress",
          "type": "address"
        },
        {
          "internalType": "address",
          "name": "_staker",
          "type": "address"
        }
      ],
      "name": "getCurrentlyStakedTokenIds",
      "outputs": [
        {
          "internalType": "uint256[]",
          "name": "",
          "type": "uint256[]"
        }
      ],
      "stateMutability": "view",
      "type": "function"
    },
    {
      "inputs": [
        {
          "internalType": "address",
          "name": "_collectionAddress",
          "type": "address"
        }
      ],
      "name": "getPreviouslyStakedTokenIds",
      "outputs": [
        {
          "internalType": "uint256[]",
          "name": "",
          "type": "uint256[]"
        }
      ],
      "stateMutability": "view",
      "type": "function"
    },
    {
      "inputs": [
        {
          "internalType": "uint8",
          "name": "_pid",
          "type": "uint8"
        }
      ],
      "name": "getReward",
      "outputs": [],
      "stateMutability": "nonpayable",
      "type": "function"
    },
    {
      "inputs": [],
      "name": "getRewards",
      "outputs": [],
      "stateMutability": "nonpayable",
      "type": "function"
    },
    {
      "inputs": [
        {
          "internalType": "uint256",
          "name": "",
          "type": "uint256"
        }
      ],
      "name": "nftMultiplier",
      "outputs": [
        {
          "internalType": "uint256",
          "name": "",
          "type": "uint256"
        }
      ],
      "stateMutability": "view",
      "type": "function"
    },
    {
      "inputs": [
        {
          "internalType": "address",
          "name": "",
          "type": "address"
        },
        {
          "internalType": "address",
          "name": "",
          "type": "address"
        },
        {
          "internalType": "uint256",
          "name": "",
          "type": "uint256"
        },
        {
          "internalType": "bytes",
          "name": "",
          "type": "bytes"
        }
      ],
      "name": "onERC721Received",
      "outputs": [
        {
          "internalType": "bytes4",
          "name": "",
          "type": "bytes4"
        }
      ],
      "stateMutability": "nonpayable",
      "type": "function"
    },
    {
      "inputs": [],
      "name": "owner",
      "outputs": [
        {
          "internalType": "address",
          "name": "",
          "type": "address"
        }
      ],
      "stateMutability": "view",
      "type": "function"
    },
    {
      "inputs": [
        {
          "internalType": "uint256",
          "name": "",
          "type": "uint256"
        }
      ],
      "name": "poolInfo",
      "outputs": [
        {
          "internalType": "uint256",
          "name": "poolType",
          "type": "uint256"
        },
        {
          "internalType": "uint256",
          "name": "rewardPerSecond",
          "type": "uint256"
        },
        {
          "internalType": "uint256",
          "name": "stardustWeightage",
          "type": "uint256"
        },
        {
          "internalType": "uint256",
          "name": "goldWeightage",
          "type": "uint256"
        },
        {
          "internalType": "uint256",
          "name": "lastRewardTime",
          "type": "uint256"
        },
        {
          "internalType": "uint256",
          "name": "accStardustPerPoint",
          "type": "uint256"
        },
        {
          "internalType": "uint256",
          "name": "totalPoints",
          "type": "uint256"
        },
        {
          "internalType": "uint256",
          "name": "totalCount",
          "type": "uint256"
        }
      ],
      "stateMutability": "view",
      "type": "function"
    },
    {
      "inputs": [],
      "name": "renounceOwnership",
      "outputs": [],
      "stateMutability": "nonpayable",
      "type": "function"
    },
    {
      "inputs": [],
      "name": "retrieveGold",
      "outputs": [],
      "stateMutability": "nonpayable",
      "type": "function"
    },
    {
      "inputs": [],
      "name": "retrieveStardust",
      "outputs": [],
      "stateMutability": "nonpayable",
      "type": "function"
    },
    {
      "inputs": [],
      "name": "seasonEndTime",
      "outputs": [
        {
          "internalType": "uint256",
          "name": "",
          "type": "uint256"
        }
      ],
      "stateMutability": "view",
      "type": "function"
    },
    {
      "inputs": [],
      "name": "seasonStartTime",
      "outputs": [
        {
          "internalType": "uint256",
          "name": "",
          "type": "uint256"
        }
      ],
      "stateMutability": "view",
      "type": "function"
    },
    {
      "inputs": [],
      "name": "seasonStarted",
      "outputs": [
        {
          "internalType": "bool",
          "name": "",
          "type": "bool"
        }
      ],
      "stateMutability": "view",
      "type": "function"
    },
    {
      "inputs": [
        {
          "internalType": "contract AtlantisAddressRegistry",
          "name": "_addressRegistry",
          "type": "address"
        }
      ],
      "name": "setAddressRegistry",
      "outputs": [],
      "stateMutability": "nonpayable",
      "type": "function"
    },
    {
      "inputs": [
        {
          "internalType": "uint256",
          "name": "_time",
          "type": "uint256"
        }
      ],
      "name": "setSeasonEndTime",
      "outputs": [],
      "stateMutability": "nonpayable",
      "type": "function"
    },
    {
      "inputs": [
        {
          "internalType": "address[]",
          "name": "_collectionAddresses",
          "type": "address[]"
        },
        {
          "internalType": "bool",
          "name": "_status",
          "type": "bool"
        }
      ],
      "name": "setWhitelistedCollections",
      "outputs": [],
      "stateMutability": "nonpayable",
      "type": "function"
    },
    {
      "inputs": [
        {
          "internalType": "uint8",
          "name": "_pid",
          "type": "uint8"
        },
        {
          "internalType": "address[]",
          "name": "_collectionAddresses",
          "type": "address[]"
        },
        {
          "internalType": "uint256[]",
          "name": "_nfts",
          "type": "uint256[]"
        }
      ],
      "name": "stakeNfts",
      "outputs": [],
      "stateMutability": "nonpayable",
      "type": "function"
    },
    {
      "inputs": [
        {
          "internalType": "uint256[]",
          "name": "_ids",
          "type": "uint256[]"
        }
      ],
      "name": "stakeSpaceships",
      "outputs": [],
      "stateMutability": "nonpayable",
      "type": "function"
    },
    {
      "inputs": [
        {
          "internalType": "address",
          "name": "",
          "type": "address"
        },
        {
          "internalType": "uint256",
          "name": "",
          "type": "uint256"
        }
      ],
      "name": "stakedSpaceships",
      "outputs": [
        {
          "internalType": "bool",
          "name": "",
          "type": "bool"
        }
      ],
      "stateMutability": "view",
      "type": "function"
    },
    {
      "inputs": [],
      "name": "startSeason",
      "outputs": [],
      "stateMutability": "nonpayable",
      "type": "function"
    },
    {
      "inputs": [],
      "name": "totalRewardPerSecond",
      "outputs": [
        {
          "internalType": "uint256",
          "name": "",
          "type": "uint256"
        }
      ],
      "stateMutability": "view",
      "type": "function"
    },
    {
      "inputs": [
        {
          "internalType": "address",
          "name": "newOwner",
          "type": "address"
        }
      ],
      "name": "transferOwnership",
      "outputs": [],
      "stateMutability": "nonpayable",
      "type": "function"
    },
    {
      "inputs": [
        {
          "internalType": "uint8",
          "name": "_pid",
          "type": "uint8"
        },
        {
          "internalType": "address[]",
          "name": "_collectionAddresses",
          "type": "address[]"
        },
        {
          "internalType": "uint256[]",
          "name": "_nfts",
          "type": "uint256[]"
        }
      ],
      "name": "unstakeNfts",
      "outputs": [],
      "stateMutability": "nonpayable",
      "type": "function"
    },
    {
      "inputs": [
        {
          "internalType": "uint256[]",
          "name": "_ids",
          "type": "uint256[]"
        }
      ],
      "name": "unstakeSpaceships",
      "outputs": [],
      "stateMutability": "nonpayable",
      "type": "function"
    },
    {
      "inputs": [
        {
          "internalType": "address",
          "name": "",
          "type": "address"
        }
      ],
      "name": "userInfo",
      "outputs": [
        {
          "internalType": "uint256",
          "name": "spaceshipsStaked",
          "type": "uint256"
        },
        {
          "internalType": "uint256",
          "name": "boostingNftsCount",
          "type": "uint256"
        }
      ],
      "stateMutability": "view",
      "type": "function"
    },
    {
      "inputs": [
        {
          "internalType": "uint8",
          "name": "_pid",
          "type": "uint8"
        },
        {
          "internalType": "address",
          "name": "_collectionAddress",
          "type": "address"
        },
        {
          "internalType": "address",
          "name": "_user",
          "type": "address"
        }
      ],
      "name": "viewBoostingNfts",
      "outputs": [
        {
          "internalType": "uint256[]",
          "name": "",
          "type": "uint256[]"
        }
      ],
      "stateMutability": "view",
      "type": "function"
    },
    {
      "inputs": [
        {
          "internalType": "address",
          "name": "_user",
          "type": "address"
        },
        {
          "internalType": "uint8",
          "name": "_pid",
          "type": "uint8"
        }
      ],
      "name": "viewBoostingNftsPoolCount",
      "outputs": [
        {
          "internalType": "uint256",
          "name": "",
          "type": "uint256"
        }
      ],
      "stateMutability": "view",
      "type": "function"
    },
    {
      "inputs": [
        {
          "internalType": "address",
          "name": "_user",
          "type": "address"
        },
        {
          "internalType": "uint8",
          "name": "_pid",
          "type": "uint8"
        }
      ],
      "name": "viewCurrentlyStakedSpaceships",
      "outputs": [
        {
          "internalType": "uint256[]",
          "name": "",
          "type": "uint256[]"
        }
      ],
      "stateMutability": "view",
      "type": "function"
    },
    {
      "inputs": [
        {
          "internalType": "uint256",
          "name": "_pid",
          "type": "uint256"
        }
      ],
      "name": "viewPoolInfo",
      "outputs": [
        {
          "components": [
            {
              "internalType": "uint256",
              "name": "poolType",
              "type": "uint256"
            },
            {
              "internalType": "uint256",
              "name": "rewardPerSecond",
              "type": "uint256"
            },
            {
              "internalType": "uint256",
              "name": "stardustWeightage",
              "type": "uint256"
            },
            {
              "internalType": "uint256",
              "name": "goldWeightage",
              "type": "uint256"
            },
            {
              "internalType": "uint256",
              "name": "lastRewardTime",
              "type": "uint256"
            },
            {
              "internalType": "uint256",
              "name": "accStardustPerPoint",
              "type": "uint256"
            },
            {
              "internalType": "uint256",
              "name": "totalPoints",
              "type": "uint256"
            },
            {
              "internalType": "uint256",
              "name": "totalCount",
              "type": "uint256"
            }
          ],
          "internalType": "struct IAtlantisRacing.PoolInfo",
          "name": "",
          "type": "tuple"
        }
      ],
      "stateMutability": "view",
      "type": "function"
    },
    {
      "inputs": [
        {
          "internalType": "address",
          "name": "_user",
          "type": "address"
        },
        {
          "internalType": "uint8",
          "name": "_pid",
          "type": "uint8"
        }
      ],
      "name": "viewRewards",
      "outputs": [
        {
          "internalType": "uint256[2]",
          "name": "",
          "type": "uint256[2]"
        }
      ],
      "stateMutability": "view",
      "type": "function"
    },
    {
      "inputs": [
        {
          "internalType": "address",
          "name": "_user",
          "type": "address"
        }
      ],
      "name": "viewSpaceshipsStaked",
      "outputs": [
        {
          "internalType": "uint256",
          "name": "",
          "type": "uint256"
        }
      ],
      "stateMutability": "view",
      "type": "function"
    },
    {
      "inputs": [
        {
          "internalType": "address",
          "name": "_user",
          "type": "address"
        }
      ],
      "name": "viewTotalSpeeds",
      "outputs": [
        {
          "internalType": "uint256[4]",
          "name": "",
          "type": "uint256[4]"
        }
      ],
      "stateMutability": "view",
      "type": "function"
    },
    {
      "inputs": [
        {
          "internalType": "address",
          "name": "",
          "type": "address"
        }
      ],
      "name": "whitelistedCollections",
      "outputs": [
        {
          "internalType": "bool",
          "name": "",
          "type": "bool"
        }
      ],
      "stateMutability": "view",
      "type": "function"
    }
  ],
  "transactionHash": "0xc9a4cd2abc5a3e27a2593952aefc1aa6b701793bd743b9dad1877bdc7bdee861",
  "args": [
    "0xf0776a4F32a4F95649D3b1c79eb5FFE6c43e53F3",
    "1500000000000000000",
    1687188597,
    [
      10,
      11,
      12,
      13,
      14,
      15
    ]
  ],
  "numDeployments": 4,
  "solcInputHash": "106eebcf0127e11d99771bf7535fb763",
  "bytecode": "0x60a06040526006805460ff191690553480156200001b57600080fd5b50604051620046bd380380620046bd8339810160408190526200003e91620007d2565b620000493362000753565b6001805580518190600090620000635762000063620008c6565b6020026020010151600a14620000c05760405162461bcd60e51b815260206004820152601760248201527f496e76616c6964206e6674206d756c7469706c6965727300000000000000000060448201526064015b60405180910390fd5b428211620001115760405162461bcd60e51b815260206004820152601760248201527f496e76616c696420736561736f6e20656e642074696d650000000000000000006044820152606401620000b7565b60005b81518110156200016857818181518110620001335762000133620008c6565b6020026020010151600a8260068110620001515762000151620008c6565b0155806200015f81620008f2565b91505062000114565b506004839055600280546001600160a01b0319166001600160a01b038616179055600080805260076020527f6d5257204ebe7d88fd91ae87941cb2dd9d8062b64ae5a2bd2d28ec40b9fbf6df556103e8620001c58460e16200090e565b620001d191906200092e565b60076020527f6d5257204ebe7d88fd91ae87941cb2dd9d8062b64ae5a2bd2d28ec40b9fbf6e05560507f6d5257204ebe7d88fd91ae87941cb2dd9d8062b64ae5a2bd2d28ec40b9fbf6e15560147f6d5257204ebe7d88fd91ae87941cb2dd9d8062b64ae5a2bd2d28ec40b9fbf6e255427f6d5257204ebe7d88fd91ae87941cb2dd9d8062b64ae5a2bd2d28ec40b9fbf6e35560007f6d5257204ebe7d88fd91ae87941cb2dd9d8062b64ae5a2bd2d28ec40b9fbf6e48190557f6d5257204ebe7d88fd91ae87941cb2dd9d8062b64ae5a2bd2d28ec40b9fbf6e58190557f6d5257204ebe7d88fd91ae87941cb2dd9d8062b64ae5a2bd2d28ec40b9fbf6e68190556001908190527fb39221ace053465ec3453ce2b36430bd138b997ecea25c1043da0c366812b8285560646200030884602d6200090e565b6200031491906200092e565b60076020527fb39221ace053465ec3453ce2b36430bd138b997ecea25c1043da0c366812b8295560507fb39221ace053465ec3453ce2b36430bd138b997ecea25c1043da0c366812b82a5560147fb39221ace053465ec3453ce2b36430bd138b997ecea25c1043da0c366812b82b55427fb39221ace053465ec3453ce2b36430bd138b997ecea25c1043da0c366812b82c5560007fb39221ace053465ec3453ce2b36430bd138b997ecea25c1043da0c366812b82d8190557fb39221ace053465ec3453ce2b36430bd138b997ecea25c1043da0c366812b82e8190557fb39221ace053465ec3453ce2b36430bd138b997ecea25c1043da0c366812b82f8190556002908190527fb7c774451310d1be4108bc180d1b52823cb0ee0274a6c0081bcaf94f115fb96d5560646200044b8460196200090e565b6200045791906200092e565b60076020527fb7c774451310d1be4108bc180d1b52823cb0ee0274a6c0081bcaf94f115fb96e5560507fb7c774451310d1be4108bc180d1b52823cb0ee0274a6c0081bcaf94f115fb96f5560147fb7c774451310d1be4108bc180d1b52823cb0ee0274a6c0081bcaf94f115fb97055427fb7c774451310d1be4108bc180d1b52823cb0ee0274a6c0081bcaf94f115fb9715560007fb7c774451310d1be4108bc180d1b52823cb0ee0274a6c0081bcaf94f115fb9728190557fb7c774451310d1be4108bc180d1b52823cb0ee0274a6c0081bcaf94f115fb9738190557fb7c774451310d1be4108bc180d1b52823cb0ee0274a6c0081bcaf94f115fb9748190556003908190527f3be6fd20d5acfde5b873b48692cd31f4d3c7e8ee8a813af4696af8859e5ca6c6556103e86200058f84604b6200090e565b6200059b91906200092e565b60036000818152600760209081527f3be6fd20d5acfde5b873b48692cd31f4d3c7e8ee8a813af4696af8859e5ca6c79390935560507f3be6fd20d5acfde5b873b48692cd31f4d3c7e8ee8a813af4696af8859e5ca6c85560147f3be6fd20d5acfde5b873b48692cd31f4d3c7e8ee8a813af4696af8859e5ca6c955427f3be6fd20d5acfde5b873b48692cd31f4d3c7e8ee8a813af4696af8859e5ca6ca557f3be6fd20d5acfde5b873b48692cd31f4d3c7e8ee8a813af4696af8859e5ca6cb8190557f3be6fd20d5acfde5b873b48692cd31f4d3c7e8ee8a813af4696af8859e5ca6cc8190557f3be6fd20d5acfde5b873b48692cd31f4d3c7e8ee8a813af4696af8859e5ca6cd81905590849055670de0b6b3a7640000608052600254604080516366776c7360e11b8152905192936001600160a01b039092169263cceed8e6926004838101939192918290030181865afa158015620006ff573d6000803e3d6000fd5b505050506040513d601f19601f8201168201806040525081019062000725919062000951565b6001600160a01b03166000908152601260205260409020805460ff1916600117905550620009789350505050565b600080546001600160a01b038381166001600160a01b0319831681178455604051919092169283917f8be0079c531659141344cd1fd0a4f28419497f9722a3daafe3b4186f6b6457e09190a35050565b6001600160a01b0381168114620007b957600080fd5b50565b634e487b7160e01b600052604160045260246000fd5b60008060008060808587031215620007e957600080fd5b8451620007f681620007a3565b602086810151604088015160608901519397509095509350906001600160401b03808211156200082557600080fd5b818801915088601f8301126200083a57600080fd5b8151818111156200084f576200084f620007bc565b8060051b604051601f19603f83011681018181108582111715620008775762000877620007bc565b60405291825284820192508381018501918b8311156200089657600080fd5b938501935b82851015620008b6578451845293850193928501926200089b565b989b979a50959850505050505050565b634e487b7160e01b600052603260045260246000fd5b634e487b7160e01b600052601160045260246000fd5b600060018201620009075762000907620008dc565b5060010190565b8082028115828204841417620009285762000928620008dc565b92915050565b6000826200094c57634e487b7160e01b600052601260045260246000fd5b500490565b6000602082840312156200096457600080fd5b81516200097181620007a3565b9392505050565b608051613cff620009be60003960008181610687015281816113be01528181611415015281816125b10152818161261c01528181612bc40152612fd10152613cff6000f3fe608060405234801561001057600080fd5b50600436106102485760003560e01c8063587210cf1161013b578063b499da75116100b8578063eea016041161007c578063eea0160414610682578063f2fde38b146106a9578063f3ad65f4146106bc578063f5dbe609146106cf578063fec34809146106e257600080fd5b8063b499da7514610609578063b4a7a4791461061c578063b9c664f214610649578063bf2cf3991461065c578063d34e7a291461066f57600080fd5b80638da5cb5b116100ff5780638da5cb5b146105ae578063915ac442146105d3578063952a9633146105e65780639a6a327c146105ee5780639b1e63d01461060157600080fd5b8063587210cf14610564578063715018a6146105775780637f4ca1d71461057f5780638104ae4d1461059257806387f520b81461059b57600080fd5b8063230620c7116101c95780633dcdb6721161018d5780633dcdb672146104cb578063420fad88146104d3578063434c0498146104f35780634f05cbd814610521578063500ab1571461054457600080fd5b8063230620c7146103df57806327c7812c146103fc578063280126fa1461040f5780633a3ce08c1461044e5780633c2466b4146104c257600080fd5b80631526fe27116102105780631526fe27146102d2578063157ad5c3146103635780631639f1fe1461036b5780631959a0021461038b5780631ec26003146103cc57600080fd5b80630572b0cc1461024d57806307ac1a53146102575780630d755bd2146102735780630e8953a714610293578063150b7a02146102a6575b600080fd5b6102556106ea565b005b61026060035481565b6040519081526020015b60405180910390f35b6102866102813660046134c7565b610732565b60405161026a91906134e4565b6102556102a1366004613577565b610788565b6102b96102b436600461363f565b610ad4565b6040516001600160e01b0319909116815260200161026a565b6103286102e0366004613703565b60076020528060005260406000206000915090508060000154908060010154908060020154908060030154908060040154908060050154908060060154908060070154905088565b604080519889526020890197909752958701949094526060860192909252608085015260a084015260c083015260e08201526101000161026a565b610255610ae5565b61037e6103793660046134c7565b610c17565b60405161026a919061371c565b6103b76103993660046134c7565b600860208190526000918252604090912090810154600a9091015482565b6040805192835260208301919091520161026a565b6102556103da366004613577565b610c41565b6006546103ec9060ff1681565b604051901515815260200161026a565b61025561040a3660046134c7565b6110fb565b61026061041d366004613760565b6001600160a01b0391909116600090815260086020908152604080832060ff9485168452600b019091529020541690565b61046161045c366004613703565b611157565b60405161026a9190600061010082019050825182526020830151602083015260408301516040830152606083015160608301526080830151608083015260a083015160a083015260c083015160c083015260e083015160e083015292915050565b61026060045481565b61025561120a565b6102606104e1366004613703565b60096020526000908152604090205481565b6103ec610501366004613795565b601060209081526000928352604080842090915290825290205460ff1681565b6103ec61052f3660046134c7565b60126020526000908152604090205460ff1681565b610557610552366004613760565b6112b8565b60405161026a91906137c1565b61037e6105723660046137e9565b6114e2565b61025561151e565b61026061058d366004613703565b611530565b61026060055481565b61037e6105a9366004613760565b611547565b6000546001600160a01b03165b6040516001600160a01b03909116815260200161026a565b6102556105e1366004613832565b611580565b6102556119e1565b6102556105fc366004613874565b611acc565b610260600f81565b610255610617366004613703565b611af3565b61026061062a3660046134c7565b6001600160a01b03166000908152600860208190526040909120015490565b6102556106573660046138cc565b611b95565b61037e61066a3660046134c7565b611c09565b61025561067d36600461397d565b611c2d565b6102607f000000000000000000000000000000000000000000000000000000000000000081565b6102556106b73660046134c7565b612167565b6002546105bb906001600160a01b031681565b61037e6106dd3660046137e9565b6121dd565b6102556122c1565b6106f26123eb565b6106fa612444565b60005b60048160ff16101561072657610713813361246b565b508061071e81613a19565b9150506106fd565b5061073060018055565b565b61073a613476565b6001600160a01b03821660009081526008602052604090819020815160808101928390529091829060049082845b815481526020019060010190808311610768575050505050915050919050565b6107906123eb565b8083146107b85760405162461bcd60e51b81526004016107af90613a38565b60405180910390fd5b60018560ff16101580156107d0575060038560ff1611155b61080e5760405162461bcd60e51b815260206004820152600f60248201526e125b9d985b1a59081c1bdbdb081a59608a1b60448201526064016107af565b60065460ff161561084f57610821612444565b60005b60048160ff16101561084d5761083a813361246b565b508061084581613a19565b915050610824565b505b33600090815260086020908152604080832060ff808a168552600b90910190925282205416905b84811015610922576108c78787878481811061089457610894613a89565b90506020020160208101906108a991906134c7565b8686858181106108bb576108bb613a89565b905060200201356127af565b610910878787848181106108dd576108dd613a89565b90506020020160208101906108f291906134c7565b86868581811061090457610904613a89565b90506020020135612934565b8061091a81613a9f565b915050610876565b5033600090815260086020526040812060ff88166004811061094657610946613a89565b015490506000600a836006811061095f5761095f613a89565b015433600090815260086020908152604080832060ff808e168552600b9091019092528220549293509091600a91166006811061099e5761099e613a89565b015490506109cf826109b185600a613ab8565b6109bb9190613acf565b6109c59085613af1565b6000336001612a40565b6109fb826109de85600a613ab8565b6109e89190613acf565b6109f29085613af1565b8a336001612a40565b33600090815260086020526040902060ff8a1660048110610a1e57610a1e613a89565b01549250610a5083600a610a328483613ab8565b610a3c9190613acf565b610a469190613af1565b6000336001612aec565b610a7d83600a610a608483613ab8565b610a6a9190613acf565b610a749190613af1565b8a336001612aec565b610a8633612b8d565b604051858152339060ff8b16907fdcfcdf4a6ad1072a25aa5f40b0b08aa1a5085a8ad16aa8ee1ccce6a8e8c8b76e9060200160405180910390a350505050610acd60018055565b5050505050565b630a85bd0160e11b5b949350505050565b610aed612c4e565b6002546040805163301c981160e21b815290516000926001600160a01b03169163c07260449160048083019260209291908290030181865afa158015610b37573d6000803e3d6000fd5b505050506040513d601f19601f82011682018060405250810190610b5b9190613b04565b6040516370a0823160e01b81523060048201529091506000906001600160a01b038316906370a0823190602401602060405180830381865afa158015610ba5573d6000803e3d6000fd5b505050506040513d601f19601f82011682018060405250810190610bc99190613b21565b9050610bdf6001600160a01b0383163383612ca8565b6040518181527f14bd6191cc1853697dffe6990f3fc6a04effceccc4e24f8f8d4d267b31d2728c906020015b60405180910390a15050565b6001600160a01b0381166000908152601460205260409020606090610c3b90612cfa565b92915050565b610c496123eb565b6003544210610c6a5760405162461bcd60e51b81526004016107af90613b3a565b60018560ff1610158015610c82575060038560ff1611155b610cc05760405162461bcd60e51b815260206004820152600f60248201526e125b9d985b1a59081c1bdbdb081a59608a1b60448201526064016107af565b808314610cdf5760405162461bcd60e51b81526004016107af90613a38565b60065460ff1615610d2057610cf2612444565b60005b60048160ff161015610d1e57610d0b813361246b565b5080610d1681613a19565b915050610cf5565b505b336000908152600860205260409020600a810154600f90610d42908490613b68565b1115610d875760405162461bcd60e51b8152602060048201526014602482015273151bdbc81b585b9e481391951cc81cdd185ad95960621b60448201526064016107af565b60005b84811015610e385760126000878784818110610da857610da8613a89565b9050602002016020810190610dbd91906134c7565b6001600160a01b0316815260208101919091526040016000205460ff16610e265760405162461bcd60e51b815260206004820152601a60248201527f436f6c6c656374696f6e206e6f742077686974656c697374656400000000000060448201526064016107af565b80610e3081613a9f565b915050610d8a565b5060ff8087166000908152600b83016020526040812054909116905b85811015610f975760ff88166000908152600984016020526040812090888884818110610e8357610e83613a89565b9050602002016020810190610e9891906134c7565b6001600160a01b03166001600160a01b03168152602001908152602001600020858583818110610eca57610eca613a89565b83546001810185556000948552602080862092810294909401359101555060ff808b168352600b860190915260408220805490911691610f0983613a19565b91906101000a81548160ff021916908360ff1602179055505082600a016000815480929190610f3790613a9f565b9190505550610f8588888884818110610f5257610f52613a89565b9050602002016020810190610f6791906134c7565b878785818110610f7957610f79613a89565b90506020020135612d9a565b80610f8f81613a9f565b915050610e54565b5060008260ff891660048110610faf57610faf613a89565b015490506000600a8360068110610fc857610fc8613a89565b015433600090815260086020908152604080832060ff808f168552600b9091019092528220549293509091600a91166006811061100757611007613a89565b0154905061101a826109b185600a613ab8565b6110468261102985600a613ab8565b6110339190613acf565b61103d9085613af1565b8b336001612a40565b33600090815260086020526040902060ff8b166004811061106957611069613a89565b0154925061107d83600a610a328483613ab8565b6110aa83600a61108d8483613ab8565b6110979190613acf565b6110a19190613af1565b8b336001612aec565b6110b333612b8d565b604051868152339060ff8c16907f53ba5e81dfec8b205d4f90024d203c259cb22af4f24780bbb4bcd3b11999824e9060200160405180910390a35050505050610acd60018055565b611103612c4e565b600280546001600160a01b0319166001600160a01b0383169081179091556040519081527e642c94770a2c959864e4fbb2263a24c595122ac021c793bde7e74ccd8a9592906020015b60405180910390a150565b61119f60405180610100016040528060008152602001600081526020016000815260200160008152602001600081526020016000815260200160008152602001600081525090565b50600090815260076020818152604092839020835161010081018552815481526001820154928101929092526002810154938201939093526003830154606082015260048301546080820152600583015460a0820152600683015460c082015291015460e082015290565b611212612c4e565b60065460ff166112595760405162461bcd60e51b815260206004820152601260248201527114d9585cdbdb881b9bdd081cdd185c9d195960721b60448201526064016107af565b600354421061127a5760405162461bcd60e51b81526004016107af90613b3a565b426003819055611288612444565b6040518181527f1e5f886c115fd3c0687f80e465d7485187a87f4a2e97c52e977ce50c76a96d419060200161114c565b6112c0613494565b6001600160a01b03831660009081526008602052604090206112e0613494565b600354429081106112f057506003545b60ff808616600090815260076020818152604092839020835161010081018552815481526001820154928101929092526002810154938201939093526003830154606082015260048301546080820152600583015460a082015260068084015460c0830152929091015460e082015290549091161580611372575060c0810151155b1561138657600080845260208401526114d7565b60a0810151608082015160009061139d9085613af1565b905060008360200151826113b19190613ab8565b60c08501519091506113e37f000000000000000000000000000000000000000000000000000000000000000083613ab8565b6113ed9190613acf565b6113f79084613b68565b6001600160a01b038b166000908152600860205260408120919450907f000000000000000000000000000000000000000000000000000000000000000090859060ff8d166004811061144b5761144b613a89565b01546114579190613ab8565b6114619190613acf565b90506000886004018b60ff166004811061147d5761147d613a89565b01546114899083613af1565b60ff8c16600090815260076020526040812060020154919250906064906114b09084613ab8565b6114ba9190613acf565b905060006114c88284613af1565b918a5250602089015250505050505b509095945050505050565b6001600160a01b03808216600090815260116020908152604080832060ff881684528252808320938616835292905220606090610add90612cfa565b611526612c4e565b6107306000612efb565b600a816006811061154057600080fd5b0154905081565b6001600160a01b038216600090815260136020908152604080832060ff85168452909152902060609061157990612cfa565b9392505050565b6115886123eb565b600254604080516359f34bef60e01b815290516000926001600160a01b0316916359f34bef9160048083019260209291908290030181865afa1580156115d2573d6000803e3d6000fd5b505050506040513d601f19601f820116820180604052508101906115f69190613b04565b336000908152600860208190526040909120015490915082111561165c5760405162461bcd60e51b815260206004820152601c60248201527f4e6f7420656e6f7567682073706163657368697073207374616b65640000000060448201526064016107af565b60065460ff161561169d5761166f612444565b60005b60048160ff16101561169b57611688813361246b565b508061169381613a19565b915050611672565b505b60005b828110156119c95760008484838181106116bc576116bc613a89565b336000908152601060209081526040808320938202959095013580835292905292909220549192505060ff1661172b5760405162461bcd60e51b815260206004820152601460248201527314dc1858d95cda1a5c081b9bdd081cdd185ad95960621b60448201526064016107af565b604051634875869760e01b8152600481018290526000906001600160a01b03851690634875869790602401602060405180830381865afa158015611773573d6000803e3d6000fd5b505050506040513d601f19601f820116820180604052508101906117979190613b7b565b60038111156117a8576117a8613b9c565b6117b3906001613bb2565b60008381526009602052604090205490915060ff82166004036117d557600391505b33600090815260086020908152604080832060ff8087168552600b9091019092528220541690036118205761180e816000336000612a40565b61181b8183336000612a40565b6118a3565b33600090815260086020908152604080832060ff8087168552600b909101909252822054600a91166006811061185857611858613a89565b0154905061187f600a61186b8385613ab8565b6118759190613acf565b6000336000612a40565b6118a1600a61188e8385613ab8565b6118989190613acf565b84336000612a40565b505b3360008181526010602090815260408083208784528252808320805460ff191690559282526008908190529181209091018054916118e083613bcb565b91905055506119238787868181106118fa576118fa613a89565b33600090815260136020908152604080832060ff8a168452825290912093910201359050612f4b565b50604051632142170760e11b81526001600160a01b038616906342842e0e9061195490309033908890600401613be2565b600060405180830381600087803b15801561196e57600080fd5b505af1158015611982573d6000803e3d6000fd5b50506040518592503391507f0f5bb82176feb1b5e747e28471aa92156a04d9f3ab9f45f28e2d704232b93f7590600090a350505080806119c190613a9f565b9150506116a0565b506119d333612b8d565b506119dd60018055565b5050565b6119e9612c4e565b60065460ff1615611a355760405162461bcd60e51b815260206004820152601660248201527514d9585cdbdb88185b1c9958591e481cdd185c9d195960521b60448201526064016107af565b6003544210611a565760405162461bcd60e51b81526004016107af90613b3a565b4260058190556006805460ff1916600117905560005b6004811015611a9b57600081815260076020526040902060040182905580611a9381613a9f565b915050611a6c565b506040518181527fe1475d48e0afd234267e215f80142c078986c5c445465deb3eccdc69f2ec94fb9060200161114c565b611ad46123eb565b611adc612444565b611ae6813361246b565b50611af060018055565b50565b611afb612c4e565b428111611b585760405162461bcd60e51b815260206004820152602560248201527f536561736f6e20656e642074696d65206d75737420626520696e207468652066604482015264757475726560d81b60648201526084016107af565b6003819055611b65612444565b6040518181527f0ea528f030c9fbba29db4824d8eb3970a40602e20984acefa7715a09ed0450dd9060200161114c565b611b9d612c4e565b60005b8251811015611c04578160126000858481518110611bc057611bc0613a89565b6020908102919091018101516001600160a01b03168252810191909152604001600020805460ff191691151591909117905580611bfc81613a9f565b915050611ba0565b505050565b6001600160a01b0381166000908152601560205260409020606090610c3b90612cfa565b611c356123eb565b6003544210611c565760405162461bcd60e51b81526004016107af90613b3a565b600254604080516359f34bef60e01b815290516000926001600160a01b0316916359f34bef9160048083019260209291908290030181865afa158015611ca0573d6000803e3d6000fd5b505050506040513d601f19601f82011682018060405250810190611cc49190613b04565b60065490915060ff1615611d0857611cda612444565b60005b60048160ff161015611d0657611cf3813361246b565b5080611cfe81613a19565b915050611cdd565b505b60005b825181101561215d576000826001600160a01b03166348758697858481518110611d3757611d37613a89565b60200260200101516040518263ffffffff1660e01b8152600401611d5d91815260200190565b602060405180830381865afa158015611d7a573d6000803e3d6000fd5b505050506040513d601f19601f82011682018060405250810190611d9e9190613b7b565b90506000816003811115611db457611db4613b9c565b611dbf906001613bb2565b90508060ff16600403611dd0575060035b6000846001600160a01b0316634b93f753878681518110611df357611df3613a89565b60200260200101516040518263ffffffff1660e01b8152600401611e1991815260200190565b602060405180830381865afa158015611e36573d6000803e3d6000fd5b505050506040513d601f19601f82011682018060405250810190611e5a9190613b21565b611e6590600a613ab8565b90508060096000888781518110611e7e57611e7e613a89565b602002602001015181526020019081526020016000208190555060008111611ee85760405162461bcd60e51b815260206004820152601b60248201527f5370616365736869702073706565642063616e6e6f742062652030000000000060448201526064016107af565b611f2b868581518110611efd57611efd613a89565b60209081029190910181015133600090815260138352604080822060ff881683529093529190912090612f57565b50846001600160a01b03166342842e0e3330898881518110611f4f57611f4f613a89565b60200260200101516040518463ffffffff1660e01b8152600401611f7593929190613be2565b600060405180830381600087803b158015611f8f57600080fd5b505af1158015611fa3573d6000803e3d6000fd5b505033600090815260086020908152604080832060ff8089168552600b9091019092528220541690039150611ff4905057611fe2816000336000612aec565b611fef8183336000612aec565b612077565b33600090815260086020908152604080832060ff8087168552600b909101909252822054600a91166006811061202c5761202c613a89565b01549050612053600a61203f8385613ab8565b6120499190613acf565b6000336000612aec565b612075600a6120628385613ab8565b61206c9190613acf565b84336000612aec565b505b33600090815260106020526040812087516001929089908890811061209e5761209e613a89565b60209081029190910181015182528181019290925260409081016000908120805460ff1916941515949094179093553383526008918290528220018054916120e583613a9f565b91905055508584815181106120fc576120fc613a89565b6020026020010151336001600160a01b03167f5af417134f72a9d41143ace85b0a26dce6f550f894f2cbc1eeee8810603d91b68360405161213f91815260200190565b60405180910390a3505050808061215590613a9f565b915050611d0b565b50611ae633612b8d565b61216f612c4e565b6001600160a01b0381166121d45760405162461bcd60e51b815260206004820152602660248201527f4f776e61626c653a206e6577206f776e657220697320746865207a65726f206160448201526564647265737360d01b60648201526084016107af565b611af081612efb565b6001600160a01b03808216600090815260086020908152604080832060ff8816845260098101835281842094871684529390915281208054606093929067ffffffffffffffff811115612232576122326135f8565b60405190808252806020026020018201604052801561225b578160200160208202803683370190505b50905060005b82548110156122b65782818154811061227c5761227c613a89565b906000526020600020015482828151811061229957612299613a89565b6020908102919091010152806122ae81613a9f565b915050612261565b509695505050505050565b6122c9612c4e565b60025460408051632178329960e11b815290516000926001600160a01b0316916342f065329160048083019260209291908290030181865afa158015612313573d6000803e3d6000fd5b505050506040513d601f19601f820116820180604052508101906123379190613b04565b6040516370a0823160e01b81523060048201529091506000906001600160a01b038316906370a0823190602401602060405180830381865afa158015612381573d6000803e3d6000fd5b505050506040513d601f19601f820116820180604052508101906123a59190613b21565b90506123bb6001600160a01b0383163383612ca8565b6040518181527ff4bf8311fca39e843ef50ab1f47b3e88ba45cfeb73370110f685790557931c5890602001610c0b565b60026001540361243d5760405162461bcd60e51b815260206004820152601f60248201527f5265656e7472616e637947756172643a207265656e7472616e742063616c6c0060448201526064016107af565b6002600155565b60005b6004811015611af05761245981612f63565b8061246381613a9f565b915050612447565b600080600260009054906101000a90046001600160a01b03166001600160a01b03166342f065326040518163ffffffff1660e01b8152600401602060405180830381865afa1580156124c1573d6000803e3d6000fd5b505050506040513d601f19601f820116820180604052508101906124e59190613b04565b90506000600260009054906101000a90046001600160a01b03166001600160a01b031663c07260446040518163ffffffff1660e01b8152600401602060405180830381865afa15801561253c573d6000803e3d6000fd5b505050506040513d601f19601f820116820180604052508101906125609190613b04565b6001600160a01b03851660009081526008602052604081209192508160ff88166004811061259057612590613a89565b015460ff8816600090815260076020526040902090915081156126145760007f00000000000000000000000000000000000000000000000000000000000000008260050154846125e09190613ab8565b6125ea9190613acf565b9050836004018960ff166004811061260457612604613a89565b01546126109082613af1565b9650505b8515612670577f000000000000000000000000000000000000000000000000000000000000000081600501548361264b9190613ab8565b6126559190613acf565b836004018960ff166004811061266d5761266d613a89565b01555b60ff88166000908152600760205260409020600201546126b4908890606490612699908a613ab8565b6126a39190613acf565b6001600160a01b0387169190612ca8565b60ff88166000908152600760205260409020600301546126f89088906064906126dd908a613ab8565b6126e79190613acf565b6001600160a01b0388169190612ca8565b866001600160a01b03167fd6ec06334e0c48f4d7b58215205f5826ed4fee3ef3d795c69fa7864fce166207896064600760008d60ff168152602001908152602001600020600301548a61274b9190613ab8565b6127559190613acf565b60ff8c16600090815260076020526040902060020154606490612778908c613ab8565b6127829190613acf565b6040805160ff909416845260208401929092529082015260600160405180910390a2505050505092915050565b33600090815260086020908152604080832060ff871684526009810183528184206001600160a01b0387168552909252822090915b81548110156128fb57600082828154811061280157612801613a89565b906000526020600020015490508481036128e8578254839061282590600190613af1565b8154811061283557612835613a89565b906000526020600020015483838154811061285257612852613a89565b90600052602060002001819055508280548061287057612870613c06565b60008281526020808220830160001990810183905590920190925560ff808a168352600b8701909152604082208054909116916128ac83613c1c565b91906101000a81548160ff021916908360ff1602179055505083600a0160008154809291906128da90613bcb565b919050555050505050505050565b50806128f381613a9f565b9150506127e4565b5060405162461bcd60e51b815260206004820152600d60248201526c13999d081b9bdd08199bdd5b99609a1b60448201526064016107af565b6129408333848461303d565b61297d5760405162461bcd60e51b815260206004820152600e60248201526d139195081b9bdd081cdd185ad95960921b60448201526064016107af565b33600090815260116020908152604080832060ff8716845282528083206001600160a01b038616845290915290206129b59082612f4b565b506001600160a01b03821660009081526014602052604090206129d89082612f4b565b50604051632142170760e11b81526001600160a01b038316906342842e0e90612a0990309033908690600401613be2565b600060405180830381600087803b158015612a2357600080fd5b505af1158015612a37573d6000803e3d6000fd5b50505050505050565b60ff831660009081526007602052604081206006018054869290612a65908490613af1565b90915550508315801590612a77575080155b15612aa35760ff83166000908152600760208190526040822001805491612a9d83613bcb565b91905055505b6001600160a01b0382166000908152600860205260409020849060ff851660048110612ad157612ad1613a89565b016000828254612ae19190613af1565b909155505050505050565b60ff831660009081526007602052604081206006018054869290612b11908490613b68565b90915550508315801590612b23575080155b15612b4f5760ff83166000908152600760208190526040822001805491612b4983613a9f565b91905055505b6001600160a01b0382166000908152600860205260409020849060ff851660048110612b7d57612b7d613a89565b016000828254612ae19190613b68565b60005b60048110156119dd576000818152600760209081526040808320600501546001600160a01b038616845260089092529091207f000000000000000000000000000000000000000000000000000000000000000091908360048110612bf657612bf6613a89565b0154612c029190613ab8565b612c0c9190613acf565b6001600160a01b038316600090815260086020526040902060049081019083908110612c3a57612c3a613a89565b015580612c4681613a9f565b915050612b90565b6000546001600160a01b031633146107305760405162461bcd60e51b815260206004820181905260248201527f4f776e61626c653a2063616c6c6572206973206e6f7420746865206f776e657260448201526064016107af565b604080516001600160a01b038416602482015260448082018490528251808303909101815260649091019091526020810180516001600160e01b031663a9059cbb60e01b179052611c04908490613082565b60606000612d0783613154565b905060008167ffffffffffffffff811115612d2457612d246135f8565b604051908082528060200260200182016040528015612d4d578160200160208202803683370190505b50905060005b82811015612d9257612d65858261315e565b828281518110612d7757612d77613a89565b6020908102919091010152612d8b81613a9f565b9050612d53565b509392505050565b33600090815260116020908152604080832060ff8716845282528083206001600160a01b03861684529091529020612dd2908261316a565b15612e145760405162461bcd60e51b815260206004820152601260248201527113919508185b1c9958591e481cdd185ad95960721b60448201526064016107af565b604051632142170760e11b81526001600160a01b038316906342842e0e90612e4490339030908690600401613be2565b600060405180830381600087803b158015612e5e57600080fd5b505af1158015612e72573d6000803e3d6000fd5b505033600090815260116020908152604080832060ff8916845282528083206001600160a01b03881684529091529020612eaf9250905082612f57565b506001600160a01b0382166000908152601460205260409020612ed29082612f57565b506001600160a01b0382166000908152601560205260409020612ef59082612f57565b50505050565b600080546001600160a01b038381166001600160a01b0319831681178455604051919092169283917f8be0079c531659141344cd1fd0a4f28419497f9722a3daafe3b4186f6b6457e09190a35050565b60006115798383613182565b60006115798383613275565b60035442908110612f7357506003545b600082815260076020526040902060060154156130285760008281526007602052604081206001810154600490910154612fad9084613af1565b612fb79190613ab8565b600084815260076020526040902060060154909150612ff67f000000000000000000000000000000000000000000000000000000000000000083613ab8565b6130009190613acf565b60008481526007602052604081206005018054909190613021908490613b68565b9091555050505b60009182526007602052604090912060040155565b6001600160a01b03808416600090815260116020908152604080832060ff8916845282528083209386168352929052908120613079908361316a565b95945050505050565b60006130d7826040518060400160405280602081526020017f5361666545524332303a206c6f772d6c6576656c2063616c6c206661696c6564815250856001600160a01b03166132c49092919063ffffffff16565b805190915015611c0457808060200190518101906130f59190613c39565b611c045760405162461bcd60e51b815260206004820152602a60248201527f5361666545524332303a204552433230206f7065726174696f6e20646964206e6044820152691bdd081cdd58d8d9595960b21b60648201526084016107af565b6000610c3b825490565b600061157983836132d3565b60008181526001830160205260408120541515611579565b6000818152600183016020526040812054801561326b5760006131a6600183613af1565b85549091506000906131ba90600190613af1565b905081811461321f5760008660000182815481106131da576131da613a89565b90600052602060002001549050808760000184815481106131fd576131fd613a89565b6000918252602080832090910192909255918252600188019052604090208390555b855486908061323057613230613c06565b600190038181906000526020600020016000905590558560010160008681526020019081526020016000206000905560019350505050610c3b565b6000915050610c3b565b60008181526001830160205260408120546132bc57508154600181810184556000848152602080822090930184905584548482528286019093526040902091909155610c3b565b506000610c3b565b6060610add84846000856132fd565b60008260000182815481106132ea576132ea613a89565b9060005260206000200154905092915050565b60608247101561335e5760405162461bcd60e51b815260206004820152602660248201527f416464726573733a20696e73756666696369656e742062616c616e636520666f6044820152651c8818d85b1b60d21b60648201526084016107af565b600080866001600160a01b0316858760405161337a9190613c7a565b60006040518083038185875af1925050503d80600081146133b7576040519150601f19603f3d011682016040523d82523d6000602084013e6133bc565b606091505b50915091506133cd878383876133d8565b979650505050505050565b60608315613447578251600003613440576001600160a01b0385163b6134405760405162461bcd60e51b815260206004820152601d60248201527f416464726573733a2063616c6c20746f206e6f6e2d636f6e747261637400000060448201526064016107af565b5081610add565b610add838381511561345c5781518083602001fd5b8060405162461bcd60e51b81526004016107af9190613c96565b60405180608001604052806004906020820280368337509192915050565b60405180604001604052806002906020820280368337509192915050565b6001600160a01b0381168114611af057600080fd5b6000602082840312156134d957600080fd5b8135611579816134b2565b60808101818360005b600481101561350c5781518352602092830192909101906001016134ed565b50505092915050565b803560ff8116811461352657600080fd5b919050565b60008083601f84011261353d57600080fd5b50813567ffffffffffffffff81111561355557600080fd5b6020830191508360208260051b850101111561357057600080fd5b9250929050565b60008060008060006060868803121561358f57600080fd5b61359886613515565b9450602086013567ffffffffffffffff808211156135b557600080fd5b6135c189838a0161352b565b909650945060408801359150808211156135da57600080fd5b506135e78882890161352b565b969995985093965092949392505050565b634e487b7160e01b600052604160045260246000fd5b604051601f8201601f1916810167ffffffffffffffff81118282101715613637576136376135f8565b604052919050565b6000806000806080858703121561365557600080fd5b8435613660816134b2565b9350602085810135613671816134b2565b935060408601359250606086013567ffffffffffffffff8082111561369557600080fd5b818801915088601f8301126136a957600080fd5b8135818111156136bb576136bb6135f8565b6136cd601f8201601f1916850161360e565b915080825289848285010111156136e357600080fd5b808484018584013760008482840101525080935050505092959194509250565b60006020828403121561371557600080fd5b5035919050565b6020808252825182820181905260009190848201906040850190845b8181101561375457835183529284019291840191600101613738565b50909695505050505050565b6000806040838503121561377357600080fd5b823561377e816134b2565b915061378c60208401613515565b90509250929050565b600080604083850312156137a857600080fd5b82356137b3816134b2565b946020939093013593505050565b60408101818360005b600281101561350c5781518352602092830192909101906001016137ca565b6000806000606084860312156137fe57600080fd5b61380784613515565b92506020840135613817816134b2565b91506040840135613827816134b2565b809150509250925092565b6000806020838503121561384557600080fd5b823567ffffffffffffffff81111561385c57600080fd5b6138688582860161352b565b90969095509350505050565b60006020828403121561388657600080fd5b61157982613515565b600067ffffffffffffffff8211156138a9576138a96135f8565b5060051b60200190565b8015158114611af057600080fd5b8035613526816138b3565b600080604083850312156138df57600080fd5b823567ffffffffffffffff8111156138f657600080fd5b8301601f8101851361390757600080fd5b8035602061391c6139178361388f565b61360e565b82815260059290921b8301810191818101908884111561393b57600080fd5b938201935b83851015613962578435613953816134b2565b82529382019390820190613940565b955061397190508682016138c1565b93505050509250929050565b6000602080838503121561399057600080fd5b823567ffffffffffffffff8111156139a757600080fd5b8301601f810185136139b857600080fd5b80356139c66139178261388f565b81815260059190911b820183019083810190878311156139e557600080fd5b928401925b828410156133cd578335825292840192908401906139ea565b634e487b7160e01b600052601160045260246000fd5b600060ff821660ff8103613a2f57613a2f613a03565b60010192915050565b60208082526031908201527f4e46547320616e6420636f6c6c656374696f6e20616464726573736573206d756040820152700e6e840c4ca40e6c2daca40d8cadccee8d607b1b606082015260800190565b634e487b7160e01b600052603260045260246000fd5b600060018201613ab157613ab1613a03565b5060010190565b8082028115828204841417610c3b57610c3b613a03565b600082613aec57634e487b7160e01b600052601260045260246000fd5b500490565b81810381811115610c3b57610c3b613a03565b600060208284031215613b1657600080fd5b8151611579816134b2565b600060208284031215613b3357600080fd5b5051919050565b60208082526014908201527314d9585cdbdb88185b1c9958591e48195b99195960621b604082015260600190565b80820180821115610c3b57610c3b613a03565b600060208284031215613b8d57600080fd5b81516004811061157957600080fd5b634e487b7160e01b600052602160045260246000fd5b60ff8181168382160190811115610c3b57610c3b613a03565b600081613bda57613bda613a03565b506000190190565b6001600160a01b039384168152919092166020820152604081019190915260600190565b634e487b7160e01b600052603160045260246000fd5b600060ff821680613c2f57613c2f613a03565b6000190192915050565b600060208284031215613c4b57600080fd5b8151611579816138b3565b60005b83811015613c71578181015183820152602001613c59565b50506000910152565b60008251613c8c818460208701613c56565b9190910192915050565b6020815260008251806020840152613cb5816040850160208701613c56565b601f01601f1916919091016040019291505056fea264697066735822122028d21138aa3e8fdfd4b9235ea18baf1f99503cc9f17a361d0096127d63a3162364736f6c63430008110033",
  "devdoc": {
    "details": "Send your Spaceships to race for rewards. Add supported Nft collections to boost speed and earn a larger share of the rewards.",
    "kind": "dev",
    "methods": {
      "constructor": {
        "params": {
          "_registry": "Address registry contract",
          "_seasonEndTime": "Season end time",
          "_totalRewardPerSecond": "Total stardust per second"
        }
      },
      "getCurrentlyStakedTokenIds(address)": {
        "params": {
          "_collectionAddress": "Address of the collection contract"
        },
        "returns": {
          "_0": "Array of tokenIds which are currently staked for the given token contract"
        }
      },
      "getCurrentlyStakedTokenIds(uint8,address,address)": {
        "params": {
          "_collectionAddress": "Address of the collection contract",
          "_pid": "Pool id",
          "_staker": "User for whom to retrieve staked token ids"
        },
        "returns": {
          "_0": "Array of tokenIds which are currently staked by the user for the given token contract"
        }
      },
      "getPreviouslyStakedTokenIds(address)": {
        "params": {
          "_collectionAddress": "Address of the collection contract"
        },
        "returns": {
          "_0": "Array of tokenIds which have ever been staked for the given token contract"
        }
      },
      "getReward(uint8)": {
        "params": {
          "_pid": "Pool id"
        }
      },
      "owner()": {
        "details": "Returns the address of the current owner."
      },
      "renounceOwnership()": {
        "details": "Leaves the contract without owner. It will not be possible to call `onlyOwner` functions anymore. Can only be called by the current owner. NOTE: Renouncing ownership will leave the contract without an owner, thereby removing any functionality that is only available to the owner."
      },
      "setAddressRegistry(address)": {
        "params": {
          "_addressRegistry": "The address of the Address Registry"
        }
      },
      "setSeasonEndTime(uint256)": {
        "params": {
          "_time": "season end time in unix timestamp"
        }
      },
      "setWhitelistedCollections(address[],bool)": {
        "details": "Only whitelisted collections can be staked",
        "params": {
          "_collectionAddresses": "The address of the collection",
          "_status": "The whitelisted status of the collection"
        }
      },
      "stakeNfts(uint8,address[],uint256[])": {
        "params": {
          "_collectionAddresses": "Array of collection addresses",
          "_nfts": "Array of token ids to stake",
          "_pid": "Id of the pool to boost"
        }
      },
      "stakeSpaceships(uint256[])": {
        "params": {
          "_ids": "The ids of the spaceships to stake"
        }
      },
      "transferOwnership(address)": {
        "details": "Transfers ownership of the contract to a new account (`newOwner`). Can only be called by the current owner."
      },
      "unstakeNfts(uint8,address[],uint256[])": {
        "params": {
          "_collectionAddresses": "Array of nft contract addresses",
          "_nfts": "Array of structs containing the nft contract and token id to unstake",
          "_pid": "Id of the farm to unstake the nfts from"
        }
      },
      "unstakeSpaceships(uint256[])": {
        "params": {
          "_ids": "The ids of the spaceships to unstake"
        }
      },
      "viewBoostingNfts(uint8,address,address)": {
        "params": {
          "_collectionAddress": "Address of the collection contract",
          "_pid": "Pool id",
          "_user": "User address"
        },
        "returns": {
          "_0": "boostingNfts Array of nft ids"
        }
      },
      "viewBoostingNftsPoolCount(address,uint8)": {
        "params": {
          "_pid": "Pool id",
          "_user": "User address"
        },
        "returns": {
          "_0": "number of boosting nfts in a specific pool"
        }
      },
      "viewCurrentlyStakedSpaceships(address,uint8)": {
        "params": {
          "_pid": "Pool id",
          "_user": "User address"
        },
        "returns": {
          "_0": "spaceshipIds Array of spaceship ids"
        }
      },
      "viewPoolInfo(uint256)": {
        "params": {
          "_pid": "Pool id"
        }
      },
      "viewRewards(address,uint8)": {
        "params": {
          "_pid": "Pool id",
          "_user": "User address"
        },
        "returns": {
          "_0": "rewards  Array of rewards [stardust, gold]"
        }
      },
      "viewSpaceshipsStaked(address)": {
        "params": {
          "_user": "User address"
        },
        "returns": {
          "_0": "spaceshipsStaked  Number of spaceships staked"
        }
      },
      "viewTotalSpeeds(address)": {
        "params": {
          "_user": "User address"
        },
        "returns": {
          "_0": "totalSpeeds  Array of total speeds [Global, Common, Uncommon, Rare/Epic]"
        }
      }
    },
    "title": "Atlantis - Racing contract",
    "version": 1
  },
  "userdoc": {
    "kind": "user",
    "methods": {
      "ACC_TOKEN_PRECISION()": {
        "notice": "Precision factor for calculations"
      },
      "MAX_NFTS_STAKED()": {
        "notice": "Max limit of Nfts staked in all pools"
      },
      "addressRegistry()": {
        "notice": "Address registry contract"
      },
      "cachedSpeeds(uint256)": {
        "notice": "Cached speed"
      },
      "constructor": {
        "notice": "Constructor for Atlantis Racing"
      },
      "endSeason()": {
        "notice": "Ends the season early"
      },
      "getCurrentlyStakedTokenIds(address)": {
        "notice": "Get tokenIds of a given collection currently staked by any user"
      },
      "getCurrentlyStakedTokenIds(uint8,address,address)": {
        "notice": "Get tokenIds of a given collection currently staked by specific user"
      },
      "getPreviouslyStakedTokenIds(address)": {
        "notice": "Get tokenIds of a given collection that have ever been staked by any user"
      },
      "getReward(uint8)": {
        "notice": "Harvest rewards for a certain poolId for msg.sender"
      },
      "getRewards()": {
        "notice": "Harvest all rewards for msg.sender"
      },
      "nftMultiplier(uint256)": {
        "notice": "Multiplier when a user stakes Nfts"
      },
      "onERC721Received(address,address,uint256,bytes)": {
        "notice": "For receiving ERC721 tokens"
      },
      "poolInfo(uint256)": {
        "notice": "Information of each respective pool (Global, Common, Uncommon, Rare/Epic)"
      },
      "retrieveGold()": {
        "notice": "Used to retrieve any gold on the contract"
      },
      "retrieveStardust()": {
        "notice": "Used to retrieve any stardust on the contract"
      },
      "seasonEndTime()": {
        "notice": "Unix timestamp of season end time"
      },
      "seasonStartTime()": {
        "notice": "Unix timestamp of season start time"
      },
      "seasonStarted()": {
        "notice": "Whether the season has started"
      },
      "setAddressRegistry(address)": {
        "notice": "Set the Address Registry"
      },
      "setSeasonEndTime(uint256)": {
        "notice": "Setter for season end time"
      },
      "setWhitelistedCollections(address[],bool)": {
        "notice": "Set the whitelisted status of a collection"
      },
      "stakeNfts(uint8,address[],uint256[])": {
        "notice": "Stakes given nfts and uses them to boost the given pool."
      },
      "stakeSpaceships(uint256[])": {
        "notice": "Stake spaceships to earn stardust + gold"
      },
      "stakedSpaceships(address,uint256)": {
        "notice": "Mapping of (user) => (tokenId) => (bool) if token is staked"
      },
      "startSeason()": {
        "notice": "Starts the season"
      },
      "totalRewardPerSecond()": {
        "notice": "Total reward per second"
      },
      "unstakeNfts(uint8,address[],uint256[])": {
        "notice": "Unstakes nfts without unboosting the pool"
      },
      "unstakeSpaceships(uint256[])": {
        "notice": "Unstake spaceships"
      },
      "userInfo(address)": {
        "notice": "Information of each user that stakes spaceships"
      },
      "viewBoostingNfts(uint8,address,address)": {
        "notice": "View number of NFTs staked by user"
      },
      "viewBoostingNftsPoolCount(address,uint8)": {
        "notice": "View boosting nfts count in a specific pool"
      },
      "viewCurrentlyStakedSpaceships(address,uint8)": {
        "notice": "View currently staked spaceship ids"
      },
      "viewPoolInfo(uint256)": {
        "notice": "View pool info"
      },
      "viewRewards(address,uint8)": {
        "notice": "View rewards for a certain poolId and user"
      },
      "viewSpaceshipsStaked(address)": {
        "notice": "View number of spaceships staked by user"
      },
      "viewTotalSpeeds(address)": {
        "notice": "View the total speeds of a user across all pools"
      },
      "whitelistedCollections(address)": {
        "notice": "Mapping of address to boolean whitelisted status"
      }
    },
    "version": 1
  },
  "storageLayout": {
    "storage": [
      {
        "astId": 7,
        "contract": "contracts/AtlantisRacing.sol:AtlantisRacing",
        "label": "_owner",
        "offset": 0,
        "slot": "0",
        "type": "t_address"
      },
      {
        "astId": 123,
        "contract": "contracts/AtlantisRacing.sol:AtlantisRacing",
        "label": "_status",
        "offset": 0,
        "slot": "1",
        "type": "t_uint256"
      },
      {
        "astId": 2172,
        "contract": "contracts/AtlantisRacing.sol:AtlantisRacing",
        "label": "addressRegistry",
        "offset": 0,
        "slot": "2",
        "type": "t_contract(AtlantisAddressRegistry)2134"
      },
      {
        "astId": 2175,
        "contract": "contracts/AtlantisRacing.sol:AtlantisRacing",
        "label": "seasonEndTime",
        "offset": 0,
        "slot": "3",
        "type": "t_uint256"
      },
      {
        "astId": 2178,
        "contract": "contracts/AtlantisRacing.sol:AtlantisRacing",
        "label": "totalRewardPerSecond",
        "offset": 0,
        "slot": "4",
        "type": "t_uint256"
      },
      {
        "astId": 2184,
        "contract": "contracts/AtlantisRacing.sol:AtlantisRacing",
        "label": "seasonStartTime",
        "offset": 0,
        "slot": "5",
        "type": "t_uint256"
      },
      {
        "astId": 2196,
        "contract": "contracts/AtlantisRacing.sol:AtlantisRacing",
        "label": "seasonStarted",
        "offset": 0,
        "slot": "6",
        "type": "t_bool"
      },
      {
        "astId": 2202,
        "contract": "contracts/AtlantisRacing.sol:AtlantisRacing",
        "label": "poolInfo",
        "offset": 0,
        "slot": "7",
        "type": "t_mapping(t_uint256,t_struct(PoolInfo)5411_storage)"
      },
      {
        "astId": 2208,
        "contract": "contracts/AtlantisRacing.sol:AtlantisRacing",
        "label": "userInfo",
        "offset": 0,
        "slot": "8",
        "type": "t_mapping(t_address,t_struct(UserInfo)5435_storage)"
      },
      {
        "astId": 2213,
        "contract": "contracts/AtlantisRacing.sol:AtlantisRacing",
        "label": "cachedSpeeds",
        "offset": 0,
        "slot": "9",
        "type": "t_mapping(t_uint256,t_uint256)"
      },
      {
        "astId": 2218,
        "contract": "contracts/AtlantisRacing.sol:AtlantisRacing",
        "label": "nftMultiplier",
        "offset": 0,
        "slot": "10",
        "type": "t_array(t_uint256)6_storage"
      },
      {
        "astId": 2225,
        "contract": "contracts/AtlantisRacing.sol:AtlantisRacing",
        "label": "stakedSpaceships",
        "offset": 0,
        "slot": "16",
        "type": "t_mapping(t_address,t_mapping(t_uint256,t_bool))"
      },
      {
        "astId": 2235,
        "contract": "contracts/AtlantisRacing.sol:AtlantisRacing",
        "label": "stakedNFTs",
        "offset": 0,
        "slot": "17",
        "type": "t_mapping(t_address,t_mapping(t_uint8,t_mapping(t_address,t_struct(UintSet)1542_storage)))"
      },
      {
        "astId": 2240,
        "contract": "contracts/AtlantisRacing.sol:AtlantisRacing",
        "label": "whitelistedCollections",
        "offset": 0,
        "slot": "18",
        "type": "t_mapping(t_address,t_bool)"
      },
      {
        "astId": 2248,
        "contract": "contracts/AtlantisRacing.sol:AtlantisRacing",
        "label": "currentlyStakedSpaceshipIds",
        "offset": 0,
        "slot": "19",
        "type": "t_mapping(t_address,t_mapping(t_uint8,t_struct(UintSet)1542_storage))"
      },
      {
        "astId": 2254,
        "contract": "contracts/AtlantisRacing.sol:AtlantisRacing",
        "label": "currentlyStakedIds",
        "offset": 0,
        "slot": "20",
        "type": "t_mapping(t_address,t_struct(UintSet)1542_storage)"
      },
      {
        "astId": 2260,
        "contract": "contracts/AtlantisRacing.sol:AtlantisRacing",
        "label": "previouslyStakedIds",
        "offset": 0,
        "slot": "21",
        "type": "t_mapping(t_address,t_struct(UintSet)1542_storage)"
      }
    ],
    "types": {
      "t_address": {
        "encoding": "inplace",
        "label": "address",
        "numberOfBytes": "20"
      },
      "t_array(t_bytes32)dyn_storage": {
        "base": "t_bytes32",
        "encoding": "dynamic_array",
        "label": "bytes32[]",
        "numberOfBytes": "32"
      },
      "t_array(t_uint256)4_storage": {
        "base": "t_uint256",
        "encoding": "inplace",
        "label": "uint256[4]",
        "numberOfBytes": "128"
      },
      "t_array(t_uint256)6_storage": {
        "base": "t_uint256",
        "encoding": "inplace",
        "label": "uint256[6]",
        "numberOfBytes": "192"
      },
      "t_array(t_uint256)dyn_storage": {
        "base": "t_uint256",
        "encoding": "dynamic_array",
        "label": "uint256[]",
        "numberOfBytes": "32"
      },
      "t_bool": {
        "encoding": "inplace",
        "label": "bool",
        "numberOfBytes": "1"
      },
      "t_bytes32": {
        "encoding": "inplace",
        "label": "bytes32",
        "numberOfBytes": "32"
      },
      "t_contract(AtlantisAddressRegistry)2134": {
        "encoding": "inplace",
        "label": "contract AtlantisAddressRegistry",
        "numberOfBytes": "20"
      },
      "t_mapping(t_address,t_array(t_uint256)dyn_storage)": {
        "encoding": "mapping",
        "key": "t_address",
        "label": "mapping(address => uint256[])",
        "numberOfBytes": "32",
        "value": "t_array(t_uint256)dyn_storage"
      },
      "t_mapping(t_address,t_bool)": {
        "encoding": "mapping",
        "key": "t_address",
        "label": "mapping(address => bool)",
        "numberOfBytes": "32",
        "value": "t_bool"
      },
      "t_mapping(t_address,t_mapping(t_uint256,t_bool))": {
        "encoding": "mapping",
        "key": "t_address",
        "label": "mapping(address => mapping(uint256 => bool))",
        "numberOfBytes": "32",
        "value": "t_mapping(t_uint256,t_bool)"
      },
      "t_mapping(t_address,t_mapping(t_uint8,t_mapping(t_address,t_struct(UintSet)1542_storage)))": {
        "encoding": "mapping",
        "key": "t_address",
        "label": "mapping(address => mapping(uint8 => mapping(address => struct EnumerableSet.UintSet)))",
        "numberOfBytes": "32",
        "value": "t_mapping(t_uint8,t_mapping(t_address,t_struct(UintSet)1542_storage))"
      },
      "t_mapping(t_address,t_mapping(t_uint8,t_struct(UintSet)1542_storage))": {
        "encoding": "mapping",
        "key": "t_address",
        "label": "mapping(address => mapping(uint8 => struct EnumerableSet.UintSet))",
        "numberOfBytes": "32",
        "value": "t_mapping(t_uint8,t_struct(UintSet)1542_storage)"
      },
      "t_mapping(t_address,t_struct(UintSet)1542_storage)": {
        "encoding": "mapping",
        "key": "t_address",
        "label": "mapping(address => struct EnumerableSet.UintSet)",
        "numberOfBytes": "32",
        "value": "t_struct(UintSet)1542_storage"
      },
      "t_mapping(t_address,t_struct(UserInfo)5435_storage)": {
        "encoding": "mapping",
        "key": "t_address",
        "label": "mapping(address => struct IAtlantisRacing.UserInfo)",
        "numberOfBytes": "32",
        "value": "t_struct(UserInfo)5435_storage"
      },
      "t_mapping(t_bytes32,t_uint256)": {
        "encoding": "mapping",
        "key": "t_bytes32",
        "label": "mapping(bytes32 => uint256)",
        "numberOfBytes": "32",
        "value": "t_uint256"
      },
      "t_mapping(t_uint256,t_bool)": {
        "encoding": "mapping",
        "key": "t_uint256",
        "label": "mapping(uint256 => bool)",
        "numberOfBytes": "32",
        "value": "t_bool"
      },
      "t_mapping(t_uint256,t_struct(PoolInfo)5411_storage)": {
        "encoding": "mapping",
        "key": "t_uint256",
        "label": "mapping(uint256 => struct IAtlantisRacing.PoolInfo)",
        "numberOfBytes": "32",
        "value": "t_struct(PoolInfo)5411_storage"
      },
      "t_mapping(t_uint256,t_uint256)": {
        "encoding": "mapping",
        "key": "t_uint256",
        "label": "mapping(uint256 => uint256)",
        "numberOfBytes": "32",
        "value": "t_uint256"
      },
      "t_mapping(t_uint8,t_mapping(t_address,t_array(t_uint256)dyn_storage))": {
        "encoding": "mapping",
        "key": "t_uint8",
        "label": "mapping(uint8 => mapping(address => uint256[]))",
        "numberOfBytes": "32",
        "value": "t_mapping(t_address,t_array(t_uint256)dyn_storage)"
      },
      "t_mapping(t_uint8,t_mapping(t_address,t_struct(UintSet)1542_storage))": {
        "encoding": "mapping",
        "key": "t_uint8",
        "label": "mapping(uint8 => mapping(address => struct EnumerableSet.UintSet))",
        "numberOfBytes": "32",
        "value": "t_mapping(t_address,t_struct(UintSet)1542_storage)"
      },
      "t_mapping(t_uint8,t_struct(UintSet)1542_storage)": {
        "encoding": "mapping",
        "key": "t_uint8",
        "label": "mapping(uint8 => struct EnumerableSet.UintSet)",
        "numberOfBytes": "32",
        "value": "t_struct(UintSet)1542_storage"
      },
      "t_mapping(t_uint8,t_uint8)": {
        "encoding": "mapping",
        "key": "t_uint8",
        "label": "mapping(uint8 => uint8)",
        "numberOfBytes": "32",
        "value": "t_uint8"
      },
      "t_struct(PoolInfo)5411_storage": {
        "encoding": "inplace",
        "label": "struct IAtlantisRacing.PoolInfo",
        "members": [
          {
            "astId": 5396,
            "contract": "contracts/AtlantisRacing.sol:AtlantisRacing",
            "label": "poolType",
            "offset": 0,
            "slot": "0",
            "type": "t_uint256"
          },
          {
            "astId": 5398,
            "contract": "contracts/AtlantisRacing.sol:AtlantisRacing",
            "label": "rewardPerSecond",
            "offset": 0,
            "slot": "1",
            "type": "t_uint256"
          },
          {
            "astId": 5400,
            "contract": "contracts/AtlantisRacing.sol:AtlantisRacing",
            "label": "stardustWeightage",
            "offset": 0,
            "slot": "2",
            "type": "t_uint256"
          },
          {
            "astId": 5402,
            "contract": "contracts/AtlantisRacing.sol:AtlantisRacing",
            "label": "goldWeightage",
            "offset": 0,
            "slot": "3",
            "type": "t_uint256"
          },
          {
            "astId": 5404,
            "contract": "contracts/AtlantisRacing.sol:AtlantisRacing",
            "label": "lastRewardTime",
            "offset": 0,
            "slot": "4",
            "type": "t_uint256"
          },
          {
            "astId": 5406,
            "contract": "contracts/AtlantisRacing.sol:AtlantisRacing",
            "label": "accStardustPerPoint",
            "offset": 0,
            "slot": "5",
            "type": "t_uint256"
          },
          {
            "astId": 5408,
            "contract": "contracts/AtlantisRacing.sol:AtlantisRacing",
            "label": "totalPoints",
            "offset": 0,
            "slot": "6",
            "type": "t_uint256"
          },
          {
            "astId": 5410,
            "contract": "contracts/AtlantisRacing.sol:AtlantisRacing",
            "label": "totalCount",
            "offset": 0,
            "slot": "7",
            "type": "t_uint256"
          }
        ],
        "numberOfBytes": "256"
      },
      "t_struct(Set)1070_storage": {
        "encoding": "inplace",
        "label": "struct EnumerableSet.Set",
        "members": [
          {
            "astId": 1065,
            "contract": "contracts/AtlantisRacing.sol:AtlantisRacing",
            "label": "_values",
            "offset": 0,
            "slot": "0",
            "type": "t_array(t_bytes32)dyn_storage"
          },
          {
            "astId": 1069,
            "contract": "contracts/AtlantisRacing.sol:AtlantisRacing",
            "label": "_indexes",
            "offset": 0,
            "slot": "1",
            "type": "t_mapping(t_bytes32,t_uint256)"
          }
        ],
        "numberOfBytes": "64"
      },
      "t_struct(UintSet)1542_storage": {
        "encoding": "inplace",
        "label": "struct EnumerableSet.UintSet",
        "members": [
          {
            "astId": 1541,
            "contract": "contracts/AtlantisRacing.sol:AtlantisRacing",
            "label": "_inner",
            "offset": 0,
            "slot": "0",
            "type": "t_struct(Set)1070_storage"
          }
        ],
        "numberOfBytes": "64"
      },
      "t_struct(UserInfo)5435_storage": {
        "encoding": "inplace",
        "label": "struct IAtlantisRacing.UserInfo",
        "members": [
          {
            "astId": 5415,
            "contract": "contracts/AtlantisRacing.sol:AtlantisRacing",
            "label": "totalSpeeds",
            "offset": 0,
            "slot": "0",
            "type": "t_array(t_uint256)4_storage"
          },
          {
            "astId": 5419,
            "contract": "contracts/AtlantisRacing.sol:AtlantisRacing",
            "label": "rewardDebts",
            "offset": 0,
            "slot": "4",
            "type": "t_array(t_uint256)4_storage"
          },
          {
            "astId": 5421,
            "contract": "contracts/AtlantisRacing.sol:AtlantisRacing",
            "label": "spaceshipsStaked",
            "offset": 0,
            "slot": "8",
            "type": "t_uint256"
          },
          {
            "astId": 5428,
            "contract": "contracts/AtlantisRacing.sol:AtlantisRacing",
            "label": "boostingNfts",
            "offset": 0,
            "slot": "9",
            "type": "t_mapping(t_uint8,t_mapping(t_address,t_array(t_uint256)dyn_storage))"
          },
          {
            "astId": 5430,
            "contract": "contracts/AtlantisRacing.sol:AtlantisRacing",
            "label": "boostingNftsCount",
            "offset": 0,
            "slot": "10",
            "type": "t_uint256"
          },
          {
            "astId": 5434,
            "contract": "contracts/AtlantisRacing.sol:AtlantisRacing",
            "label": "boostingNftsPoolCount",
            "offset": 0,
            "slot": "11",
            "type": "t_mapping(t_uint8,t_uint8)"
          }
        ],
        "numberOfBytes": "384"
      },
      "t_uint256": {
        "encoding": "inplace",
        "label": "uint256",
        "numberOfBytes": "32"
      },
      "t_uint8": {
        "encoding": "inplace",
        "label": "uint8",
        "numberOfBytes": "1"
      }
    }
  }
}