{
  "address": "0xfa6888F9f3602E02507a2Bbed661c8cb256949c8",
  "abi": [
    {
      "inputs": [
        {
          "internalType": "contract AtlantisAddressRegistry",
          "name": "_addressRegistry",
          "type": "address"
        }
      ],
      "stateMutability": "nonpayable",
      "type": "constructor"
    },
    {
      "anonymous": false,
      "inputs": [
        {
          "indexed": true,
          "internalType": "address",
          "name": "previousOwner",
          "type": "address"
        },
        {
          "indexed": true,
          "internalType": "address",
          "name": "newOwner",
          "type": "address"
        }
      ],
      "name": "OwnershipTransferred",
      "type": "event"
    },
    {
      "inputs": [],
      "name": "addressRegistry",
      "outputs": [
        {
          "internalType": "contract AtlantisAddressRegistry",
          "name": "",
          "type": "address"
        }
      ],
      "stateMutability": "view",
      "type": "function"
    },
    {
      "inputs": [],
      "name": "drip",
      "outputs": [],
      "stateMutability": "nonpayable",
      "type": "function"
    },
    {
      "inputs": [
        {
          "internalType": "address",
          "name": "",
          "type": "address"
        }
      ],
      "name": "dripped",
      "outputs": [
        {
          "internalType": "bool",
          "name": "",
          "type": "bool"
        }
      ],
      "stateMutability": "view",
      "type": "function"
    },
    {
      "inputs": [],
      "name": "owner",
      "outputs": [
        {
          "internalType": "address",
          "name": "",
          "type": "address"
        }
      ],
      "stateMutability": "view",
      "type": "function"
    },
    {
      "inputs": [],
      "name": "renounceOwnership",
      "outputs": [],
      "stateMutability": "nonpayable",
      "type": "function"
    },
    {
      "inputs": [
        {
          "internalType": "address",
          "name": "newOwner",
          "type": "address"
        }
      ],
      "name": "transferOwnership",
      "outputs": [],
      "stateMutability": "nonpayable",
      "type": "function"
    },
    {
      "inputs": [
        {
          "internalType": "address[]",
          "name": "_addresses",
          "type": "address[]"
        }
      ],
      "name": "whitelistAddresses",
      "outputs": [],
      "stateMutability": "nonpayable",
      "type": "function"
    },
    {
      "inputs": [
        {
          "internalType": "address",
          "name": "",
          "type": "address"
        }
      ],
      "name": "whitelisted",
      "outputs": [
        {
          "internalType": "bool",
          "name": "",
          "type": "bool"
        }
      ],
      "stateMutability": "view",
      "type": "function"
    },
    {
      "stateMutability": "payable",
      "type": "receive"
    }
  ],
  "transactionHash": "0x3b0b9bdfea80749b14584e5f371a83f55c96c03a0e21a748ab4ed252ef308620",
  "args": [
    "0xf0776a4F32a4F95649D3b1c79eb5FFE6c43e53F3"
  ],
  "numDeployments": 4,
  "solcInputHash": "9c330416b2ef113e420e2b1d5d9b9761",
  "bytecode": "0x608060405234801561001057600080fd5b506040516112b13803806112b183398101604081905261002f916100ca565b6100383361007a565b600380546001600160a01b0319166001600160a01b0392909216919091179055336000908152600160208190526040909120805460ff191690911790556100fa565b600080546001600160a01b038381166001600160a01b0319831681178455604051919092169283917f8be0079c531659141344cd1fd0a4f28419497f9722a3daafe3b4186f6b6457e09190a35050565b6000602082840312156100dc57600080fd5b81516001600160a01b03811681146100f357600080fd5b9392505050565b6111a8806101096000396000f3fe60806040526004361061007f5760003560e01c80639f678cca1161004e5780639f678cca14610139578063d936547e1461014e578063f2fde38b1461017e578063f3ad65f41461019e57600080fd5b80632bf043041461008b578063715018a6146100ad5780638da5cb5b146100c25780639531946f146100f957600080fd5b3661008657005b600080fd5b34801561009757600080fd5b506100ab6100a6366004610eff565b6101be565b005b3480156100b957600080fd5b506100ab61023c565b3480156100ce57600080fd5b506000546001600160a01b03165b6040516001600160a01b0390911681526020015b60405180910390f35b34801561010557600080fd5b50610129610114366004610f89565b60026020526000908152604090205460ff1681565b60405190151581526020016100f0565b34801561014557600080fd5b506100ab610250565b34801561015a57600080fd5b50610129610169366004610f89565b60016020526000908152604090205460ff1681565b34801561018a57600080fd5b506100ab610199366004610f89565b610ddc565b3480156101aa57600080fd5b506003546100dc906001600160a01b031681565b6101c6610e55565b60005b818110156102375760018060008585858181106101e8576101e8610fad565b90506020020160208101906101fd9190610f89565b6001600160a01b031681526020810191909152604001600020805460ff19169115159190911790558061022f81610fd9565b9150506101c9565b505050565b610244610e55565b61024e6000610eaf565b565b600354604080516366776c7360e11b815290516000926001600160a01b03169163cceed8e69160048083019260209291908290030181865afa15801561029a573d6000803e3d6000fd5b505050506040513d601f19601f820116820180604052508101906102be9190610ff2565b90506000600360009054906101000a90046001600160a01b03166001600160a01b0316638e9797296040518163ffffffff1660e01b8152600401602060405180830381865afa158015610315573d6000803e3d6000fd5b505050506040513d601f19601f820116820180604052508101906103399190610ff2565b90506000600360009054906101000a90046001600160a01b03166001600160a01b031663786d10866040518163ffffffff1660e01b8152600401602060405180830381865afa158015610390573d6000803e3d6000fd5b505050506040513d601f19601f820116820180604052508101906103b49190610ff2565b90506000600360009054906101000a90046001600160a01b03166001600160a01b03166359f34bef6040518163ffffffff1660e01b8152600401602060405180830381865afa15801561040b573d6000803e3d6000fd5b505050506040513d601f19601f8201168201806040525081019061042f9190610ff2565b90506000600360009054906101000a90046001600160a01b03166001600160a01b0316635c9a1a3d6040518163ffffffff1660e01b8152600401602060405180830381865afa158015610486573d6000803e3d6000fd5b505050506040513d601f19601f820116820180604052508101906104aa9190610ff2565b90506000600360009054906101000a90046001600160a01b03166001600160a01b031663a68cf4146040518163ffffffff1660e01b8152600401602060405180830381865afa158015610501573d6000803e3d6000fd5b505050506040513d601f19601f820116820180604052508101906105259190610ff2565b90506000600360009054906101000a90046001600160a01b03166001600160a01b03166342f065326040518163ffffffff1660e01b8152600401602060405180830381865afa15801561057c573d6000803e3d6000fd5b505050506040513d601f19601f820116820180604052508101906105a09190610ff2565b604051699ed194db19b238c0000060248201529091506000906001600160a01b0384169060440160408051601f198184030181529181526020820180516001600160e01b0316631bad034d60e11b179052516105fc919061100f565b6000604051808303816000865af19150503d8060008114610639576040519150601f19603f3d011682016040523d82523d6000602084013e61063e565b606091505b50509050806106945760405162461bcd60e51b815260206004820152601960248201527f4661756365743a20786172676f206d696e74206661696c65640000000000000060448201526064015b60405180910390fd5b60405169d3c21bcecceda100000060248201523360448201526001600160a01b0383169060640160408051601f198184030181529181526020820180516001600160e01b03166394bf804d60e01b179052516106f0919061100f565b6000604051808303816000865af19150503d806000811461072d576040519150601f19603f3d011682016040523d82523d6000602084013e610732565b606091505b505080915050806107855760405162461bcd60e51b815260206004820152601860248201527f4661756365743a20676f6c64206d696e74206661696c65640000000000000000604482015260640161068b565b60015b60038160ff161161097c57866001600160a01b03163382620186a06040516024016107b59392919061103e565b60408051601f198184030181529181526020820180516001600160e01b0316630708c77160e51b179052516107ea919061100f565b6000604051808303816000865af19150503d8060008114610827576040519150601f19603f3d011682016040523d82523d6000602084013e61082c565b606091505b5050809250508161087f5760405162461bcd60e51b815260206004820152601c60248201527f4661756365743a2067656d73746f6e65206d696e74206661696c656400000000604482015260640161068b565b876001600160a01b031633826103e86040516024016108a093929190611088565b60408051601f198184030181529181526020820180516001600160e01b0316630708c77160e51b179052516108d5919061100f565b6000604051808303816000865af19150503d8060008114610912576040519150601f19603f3d011682016040523d82523d6000602084013e610917565b606091505b5050809250508161096a5760405162461bcd60e51b815260206004820152601d60248201527f4661756365743a2065717569706d656e74206d696e74206661696c6564000000604482015260640161068b565b80610974816110cc565b915050610788565b50604051601e60248201526001600160a01b0389169060440160408051601f198184030181529181526020820180516001600160e01b031663140e25ad60e31b179052516109ca919061100f565b6000604051808303816000865af19150503d8060008114610a07576040519150601f19603f3d011682016040523d82523d6000602084013e610a0c565b606091505b50508091505080610a5f5760405162461bcd60e51b815260206004820152601c60248201527f4661756365743a206172676f6e617574206d696e74206661696c656400000000604482015260640161068b565b60408051600480825260a0820190925260009160208201608080368337019050509050600081600081518110610a9757610a97610fad565b602002602001019060ff16908160ff1681525050600181600181518110610ac057610ac0610fad565b602002602001019060ff16908160ff1681525050600281600281518110610ae957610ae9610fad565b602002602001019060ff16908160ff1681525050600381600381518110610b1257610b12610fad565b60ff9290921660209283029190910182015260408051600480825260a0820190925260009290919082016080803683370190505090503381600081518110610b5c57610b5c610fad565b60200260200101906001600160a01b031690816001600160a01b0316815250503381600181518110610b9057610b90610fad565b60200260200101906001600160a01b031690816001600160a01b0316815250503381600281518110610bc457610bc4610fad565b60200260200101906001600160a01b031690816001600160a01b0316815250503381600381518110610bf857610bf8610fad565b6001600160a01b03928316602091820292909201015260405190881690610c2590839085906024016110eb565b60408051601f198184030181529181526020820180516001600160e01b0316635030d01d60e11b17905251610c5a919061100f565b6000604051808303816000865af19150503d8060008114610c97576040519150601f19603f3d011682016040523d82523d6000602084013e610c9c565b606091505b50508093505082610cef5760405162461bcd60e51b815260206004820152601d60248201527f4661756365743a20737061636573686970206d696e74206661696c6564000000604482015260640161068b565b6040513360248201526001600160a01b0387169060440160408051601f198184030181529181526020820180516001600160e01b031663fc8d44b760e01b17905251610d3b919061100f565b6000604051808303816000865af19150503d8060008114610d78576040519150601f19603f3d011682016040523d82523d6000602084013e610d7d565b606091505b50508093505082610dd05760405162461bcd60e51b815260206004820152601a60248201527f4661756365743a20706c616e6574206d696e74206661696c6564000000000000604482015260640161068b565b50505050505050505050565b610de4610e55565b6001600160a01b038116610e495760405162461bcd60e51b815260206004820152602660248201527f4f776e61626c653a206e6577206f776e657220697320746865207a65726f206160448201526564647265737360d01b606482015260840161068b565b610e5281610eaf565b50565b6000546001600160a01b0316331461024e5760405162461bcd60e51b815260206004820181905260248201527f4f776e61626c653a2063616c6c6572206973206e6f7420746865206f776e6572604482015260640161068b565b600080546001600160a01b038381166001600160a01b0319831681178455604051919092169283917f8be0079c531659141344cd1fd0a4f28419497f9722a3daafe3b4186f6b6457e09190a35050565b60008060208385031215610f1257600080fd5b823567ffffffffffffffff80821115610f2a57600080fd5b818501915085601f830112610f3e57600080fd5b813581811115610f4d57600080fd5b8660208260051b8501011115610f6257600080fd5b60209290920196919550909350505050565b6001600160a01b0381168114610e5257600080fd5b600060208284031215610f9b57600080fd5b8135610fa681610f74565b9392505050565b634e487b7160e01b600052603260045260246000fd5b634e487b7160e01b600052601160045260246000fd5b600060018201610feb57610feb610fc3565b5060010190565b60006020828403121561100457600080fd5b8151610fa681610f74565b6000825160005b818110156110305760208186018101518583015201611016565b506000920191825250919050565b6001600160a01b038416815260ff8316602082015262ffffff8216604082015260806060820181905260029082015261060f60f31b60a0820152600060c082015b95945050505050565b6001600160a01b038416815260ff8316602082015261ffff8216604082015260806060820181905260029082015261060f60f31b60a0820152600060c0820161107f565b600060ff821660ff81036110e2576110e2610fc3565b60010192915050565b604080825283519082018190526000906020906060840190828701845b8281101561112d5781516001600160a01b031684529284019290840190600101611108565b5050508381038285015284518082528583019183019060005b8181101561116557835160ff1683529284019291840191600101611146565b509097965050505050505056fea264697066735822122007b2b33b0baf4718c6246592187d84198c03ed0938c697744c1a76d81b390eaa64736f6c63430008110033",
  "devdoc": {
    "kind": "dev",
    "methods": {
      "owner()": {
        "details": "Returns the address of the current owner."
      },
      "renounceOwnership()": {
        "details": "Leaves the contract without owner. It will not be possible to call `onlyOwner` functions anymore. Can only be called by the current owner. NOTE: Renouncing ownership will leave the contract without an owner, thereby removing any functionality that is only available to the owner."
      },
      "transferOwnership(address)": {
        "details": "Transfers ownership of the contract to a new account (`newOwner`). Can only be called by the current owner."
      }
    },
    "version": 1
  },
  "userdoc": {
    "kind": "user",
    "methods": {},
    "version": 1
  },
  "storageLayout": {
    "storage": [
      {
        "astId": 7,
        "contract": "contracts/AtlantisFaucet.sol:AtlantisFaucet",
        "label": "_owner",
        "offset": 0,
        "slot": "0",
        "type": "t_address"
      },
      {
        "astId": 606,
        "contract": "contracts/AtlantisFaucet.sol:AtlantisFaucet",
        "label": "whitelisted",
        "offset": 0,
        "slot": "1",
        "type": "t_mapping(t_address,t_bool)"
      },
      {
        "astId": 610,
        "contract": "contracts/AtlantisFaucet.sol:AtlantisFaucet",
        "label": "dripped",
        "offset": 0,
        "slot": "2",
        "type": "t_mapping(t_address,t_bool)"
      },
      {
        "astId": 613,
        "contract": "contracts/AtlantisFaucet.sol:AtlantisFaucet",
        "label": "addressRegistry",
        "offset": 0,
        "slot": "3",
        "type": "t_contract(AtlantisAddressRegistry)596"
      }
    ],
    "types": {
      "t_address": {
        "encoding": "inplace",
        "label": "address",
        "numberOfBytes": "20"
      },
      "t_bool": {
        "encoding": "inplace",
        "label": "bool",
        "numberOfBytes": "1"
      },
      "t_contract(AtlantisAddressRegistry)596": {
        "encoding": "inplace",
        "label": "contract AtlantisAddressRegistry",
        "numberOfBytes": "20"
      },
      "t_mapping(t_address,t_bool)": {
        "encoding": "mapping",
        "key": "t_address",
        "label": "mapping(address => bool)",
        "numberOfBytes": "32",
        "value": "t_bool"
      }
    }
  }
}