{
  "address": "0x029217e91b5D9593e4532f8fd1053B973c0300Eb",
  "abi": [
    {
      "inputs": [],
      "stateMutability": "nonpayable",
      "type": "constructor"
    },
    {
      "anonymous": false,
      "inputs": [
        {
          "indexed": false,
          "internalType": "address",
          "name": "seller",
          "type": "address"
        },
        {
          "indexed": false,
          "internalType": "address",
          "name": "bidder",
          "type": "address"
        },
        {
          "indexed": false,
          "internalType": "address",
          "name": "nftAddress",
          "type": "address"
        },
        {
          "indexed": false,
          "internalType": "uint256",
          "name": "tokenId",
          "type": "uint256"
        },
        {
          "indexed": false,
          "internalType": "uint64",
          "name": "quantity",
          "type": "uint64"
        },
        {
          "indexed": false,
          "internalType": "uint128",
          "name": "pricePerItem",
          "type": "uint128"
        },
        {
          "indexed": false,
          "internalType": "address",
          "name": "paymentToken",
          "type": "address"
        },
        {
          "indexed": false,
          "internalType": "enum AtlantisMarketplace.BidType",
          "name": "bidType",
          "type": "uint8"
        }
      ],
      "name": "BidAccepted",
      "type": "event"
    },
    {
      "anonymous": false,
      "inputs": [
        {
          "indexed": false,
          "internalType": "address",
          "name": "bidder",
          "type": "address"
        },
        {
          "indexed": false,
          "internalType": "address",
          "name": "nftAddress",
          "type": "address"
        }
      ],
      "name": "CollectionBidCancelled",
      "type": "event"
    },
    {
      "anonymous": false,
      "inputs": [
        {
          "indexed": false,
          "internalType": "address",
          "name": "bidder",
          "type": "address"
        },
        {
          "indexed": false,
          "internalType": "address",
          "name": "nftAddress",
          "type": "address"
        },
        {
          "indexed": false,
          "internalType": "uint64",
          "name": "quantity",
          "type": "uint64"
        },
        {
          "indexed": false,
          "internalType": "uint128",
          "name": "pricePerItem",
          "type": "uint128"
        },
        {
          "indexed": false,
          "internalType": "uint64",
          "name": "expirationTime",
          "type": "uint64"
        },
        {
          "indexed": false,
          "internalType": "address",
          "name": "paymentToken",
          "type": "address"
        }
      ],
      "name": "CollectionBidCreatedOrUpdated",
      "type": "event"
    },
    {
      "anonymous": false,
      "inputs": [
        {
          "indexed": false,
          "internalType": "uint8",
          "name": "version",
          "type": "uint8"
        }
      ],
      "name": "Initialized",
      "type": "event"
    },
    {
      "anonymous": false,
      "inputs": [
        {
          "indexed": true,
          "internalType": "address",
          "name": "seller",
          "type": "address"
        },
        {
          "indexed": true,
          "internalType": "address",
          "name": "nftAddress",
          "type": "address"
        },
        {
          "indexed": true,
          "internalType": "uint256",
          "name": "tokenId",
          "type": "uint256"
        }
      ],
      "name": "ItemCanceled",
      "type": "event"
    },
    {
      "anonymous": false,
      "inputs": [
        {
          "indexed": false,
          "internalType": "address",
          "name": "seller",
          "type": "address"
        },
        {
          "indexed": false,
          "internalType": "address",
          "name": "nftAddress",
          "type": "address"
        },
        {
          "indexed": false,
          "internalType": "uint256",
          "name": "tokenId",
          "type": "uint256"
        },
        {
          "indexed": false,
          "internalType": "uint64",
          "name": "quantity",
          "type": "uint64"
        },
        {
          "indexed": false,
          "internalType": "uint128",
          "name": "pricePerItem",
          "type": "uint128"
        },
        {
          "indexed": false,
          "internalType": "uint64",
          "name": "expirationTime",
          "type": "uint64"
        },
        {
          "indexed": false,
          "internalType": "address",
          "name": "paymentToken",
          "type": "address"
        }
      ],
      "name": "ItemListed",
      "type": "event"
    },
    {
      "anonymous": false,
      "inputs": [
        {
          "indexed": false,
          "internalType": "address",
          "name": "seller",
          "type": "address"
        },
        {
          "indexed": false,
          "internalType": "address",
          "name": "buyer",
          "type": "address"
        },
        {
          "indexed": false,
          "internalType": "address",
          "name": "nftAddress",
          "type": "address"
        },
        {
          "indexed": false,
          "internalType": "uint256",
          "name": "tokenId",
          "type": "uint256"
        },
        {
          "indexed": false,
          "internalType": "uint64",
          "name": "quantity",
          "type": "uint64"
        },
        {
          "indexed": false,
          "internalType": "uint128",
          "name": "pricePerItem",
          "type": "uint128"
        },
        {
          "indexed": false,
          "internalType": "address",
          "name": "paymentToken",
          "type": "address"
        }
      ],
      "name": "ItemSold",
      "type": "event"
    },
    {
      "anonymous": false,
      "inputs": [
        {
          "indexed": false,
          "internalType": "address",
          "name": "seller",
          "type": "address"
        },
        {
          "indexed": false,
          "internalType": "address",
          "name": "nftAddress",
          "type": "address"
        },
        {
          "indexed": false,
          "internalType": "uint256",
          "name": "tokenId",
          "type": "uint256"
        },
        {
          "indexed": false,
          "internalType": "uint64",
          "name": "quantity",
          "type": "uint64"
        },
        {
          "indexed": false,
          "internalType": "uint128",
          "name": "pricePerItem",
          "type": "uint128"
        },
        {
          "indexed": false,
          "internalType": "uint64",
          "name": "expirationTime",
          "type": "uint64"
        },
        {
          "indexed": false,
          "internalType": "address",
          "name": "paymentToken",
          "type": "address"
        }
      ],
      "name": "ItemUpdated",
      "type": "event"
    },
    {
      "anonymous": false,
      "inputs": [
        {
          "indexed": false,
          "internalType": "address",
          "name": "account",
          "type": "address"
        }
      ],
      "name": "Paused",
      "type": "event"
    },
    {
      "anonymous": false,
      "inputs": [
        {
          "indexed": true,
          "internalType": "bytes32",
          "name": "role",
          "type": "bytes32"
        },
        {
          "indexed": true,
          "internalType": "bytes32",
          "name": "previousAdminRole",
          "type": "bytes32"
        },
        {
          "indexed": true,
          "internalType": "bytes32",
          "name": "newAdminRole",
          "type": "bytes32"
        }
      ],
      "name": "RoleAdminChanged",
      "type": "event"
    },
    {
      "anonymous": false,
      "inputs": [
        {
          "indexed": true,
          "internalType": "bytes32",
          "name": "role",
          "type": "bytes32"
        },
        {
          "indexed": true,
          "internalType": "address",
          "name": "account",
          "type": "address"
        },
        {
          "indexed": true,
          "internalType": "address",
          "name": "sender",
          "type": "address"
        }
      ],
      "name": "RoleGranted",
      "type": "event"
    },
    {
      "anonymous": false,
      "inputs": [
        {
          "indexed": true,
          "internalType": "bytes32",
          "name": "role",
          "type": "bytes32"
        },
        {
          "indexed": true,
          "internalType": "address",
          "name": "account",
          "type": "address"
        },
        {
          "indexed": true,
          "internalType": "address",
          "name": "sender",
          "type": "address"
        }
      ],
      "name": "RoleRevoked",
      "type": "event"
    },
    {
      "anonymous": false,
      "inputs": [
        {
          "indexed": false,
          "internalType": "address",
          "name": "nft",
          "type": "address"
        },
        {
          "indexed": false,
          "internalType": "enum AtlantisMarketplace.TokenApprovalStatus",
          "name": "status",
          "type": "uint8"
        },
        {
          "indexed": false,
          "internalType": "address",
          "name": "paymentToken",
          "type": "address"
        }
      ],
      "name": "TokenApprovalStatusUpdated",
      "type": "event"
    },
    {
      "anonymous": false,
      "inputs": [
        {
          "indexed": false,
          "internalType": "address",
          "name": "bidder",
          "type": "address"
        },
        {
          "indexed": false,
          "internalType": "address",
          "name": "nftAddress",
          "type": "address"
        },
        {
          "indexed": false,
          "internalType": "uint256",
          "name": "tokenId",
          "type": "uint256"
        }
      ],
      "name": "TokenBidCancelled",
      "type": "event"
    },
    {
      "anonymous": false,
      "inputs": [
        {
          "indexed": false,
          "internalType": "address",
          "name": "bidder",
          "type": "address"
        },
        {
          "indexed": false,
          "internalType": "address",
          "name": "nftAddress",
          "type": "address"
        },
        {
          "indexed": false,
          "internalType": "uint256",
          "name": "tokenId",
          "type": "uint256"
        },
        {
          "indexed": false,
          "internalType": "uint64",
          "name": "quantity",
          "type": "uint64"
        },
        {
          "indexed": false,
          "internalType": "uint128",
          "name": "pricePerItem",
          "type": "uint128"
        },
        {
          "indexed": false,
          "internalType": "uint64",
          "name": "expirationTime",
          "type": "uint64"
        },
        {
          "indexed": false,
          "internalType": "address",
          "name": "paymentToken",
          "type": "address"
        }
      ],
      "name": "TokenBidCreatedOrUpdated",
      "type": "event"
    },
    {
      "anonymous": false,
      "inputs": [
        {
          "indexed": false,
          "internalType": "address",
          "name": "account",
          "type": "address"
        }
      ],
      "name": "Unpaused",
      "type": "event"
    },
    {
      "anonymous": false,
      "inputs": [
        {
          "indexed": false,
          "internalType": "address",
          "name": "collection",
          "type": "address"
        },
        {
          "indexed": false,
          "internalType": "address",
          "name": "recipient",
          "type": "address"
        },
        {
          "indexed": false,
          "internalType": "uint256",
          "name": "fee",
          "type": "uint256"
        }
      ],
      "name": "UpdateCollectionOwnerFee",
      "type": "event"
    },
    {
      "anonymous": false,
      "inputs": [
        {
          "indexed": false,
          "internalType": "uint256",
          "name": "fee",
          "type": "uint256"
        }
      ],
      "name": "UpdateFee",
      "type": "event"
    },
    {
      "anonymous": false,
      "inputs": [
        {
          "indexed": false,
          "internalType": "address",
          "name": "feeRecipient",
          "type": "address"
        }
      ],
      "name": "UpdateFeeRecipient",
      "type": "event"
    },
    {
      "anonymous": false,
      "inputs": [
        {
          "indexed": false,
          "internalType": "uint256",
          "name": "fee",
          "type": "uint256"
        }
      ],
      "name": "UpdateFeeWithCollectionOwner",
      "type": "event"
    },
    {
      "anonymous": false,
      "inputs": [
        {
          "indexed": false,
          "internalType": "address",
          "name": "_priceTrackerAddress",
          "type": "address"
        }
      ],
      "name": "UpdateSalesTracker",
      "type": "event"
    },
    {
      "inputs": [],
      "name": "ATLANTIS_MARKETPLACE_ADMIN_ROLE",
      "outputs": [
        {
          "internalType": "bytes32",
          "name": "",
          "type": "bytes32"
        }
      ],
      "stateMutability": "view",
      "type": "function"
    },
    {
      "inputs": [],
      "name": "BASIS_POINTS",
      "outputs": [
        {
          "internalType": "uint256",
          "name": "",
          "type": "uint256"
        }
      ],
      "stateMutability": "view",
      "type": "function"
    },
    {
      "inputs": [],
      "name": "DEFAULT_ADMIN_ROLE",
      "outputs": [
        {
          "internalType": "bytes32",
          "name": "",
          "type": "bytes32"
        }
      ],
      "stateMutability": "view",
      "type": "function"
    },
    {
      "inputs": [],
      "name": "MAX_COLLECTION_FEE",
      "outputs": [
        {
          "internalType": "uint256",
          "name": "",
          "type": "uint256"
        }
      ],
      "stateMutability": "view",
      "type": "function"
    },
    {
      "inputs": [],
      "name": "MAX_FEE",
      "outputs": [
        {
          "internalType": "uint256",
          "name": "",
          "type": "uint256"
        }
      ],
      "stateMutability": "view",
      "type": "function"
    },
    {
      "inputs": [],
      "name": "MIN_PRICE",
      "outputs": [
        {
          "internalType": "uint256",
          "name": "",
          "type": "uint256"
        }
      ],
      "stateMutability": "view",
      "type": "function"
    },
    {
      "inputs": [
        {
          "components": [
            {
              "internalType": "address",
              "name": "nftAddress",
              "type": "address"
            },
            {
              "internalType": "uint256",
              "name": "tokenId",
              "type": "uint256"
            },
            {
              "internalType": "address",
              "name": "bidder",
              "type": "address"
            },
            {
              "internalType": "uint64",
              "name": "quantity",
              "type": "uint64"
            },
            {
              "internalType": "uint128",
              "name": "pricePerItem",
              "type": "uint128"
            },
            {
              "internalType": "address",
              "name": "paymentToken",
              "type": "address"
            }
          ],
          "internalType": "struct AtlantisMarketplace.AcceptBidParams",
          "name": "_acceptBidParams",
          "type": "tuple"
        }
      ],
      "name": "acceptCollectionBid",
      "outputs": [],
      "stateMutability": "nonpayable",
      "type": "function"
    },
    {
      "inputs": [
        {
          "components": [
            {
              "internalType": "address",
              "name": "nftAddress",
              "type": "address"
            },
            {
              "internalType": "uint256",
              "name": "tokenId",
              "type": "uint256"
            },
            {
              "internalType": "address",
              "name": "bidder",
              "type": "address"
            },
            {
              "internalType": "uint64",
              "name": "quantity",
              "type": "uint64"
            },
            {
              "internalType": "uint128",
              "name": "pricePerItem",
              "type": "uint128"
            },
            {
              "internalType": "address",
              "name": "paymentToken",
              "type": "address"
            }
          ],
          "internalType": "struct AtlantisMarketplace.AcceptBidParams",
          "name": "_acceptBidParams",
          "type": "tuple"
        }
      ],
      "name": "acceptTokenBid",
      "outputs": [],
      "stateMutability": "nonpayable",
      "type": "function"
    },
    {
      "inputs": [],
      "name": "areBidsActive",
      "outputs": [
        {
          "internalType": "bool",
          "name": "",
          "type": "bool"
        }
      ],
      "stateMutability": "view",
      "type": "function"
    },
    {
      "inputs": [
        {
          "components": [
            {
              "internalType": "address",
              "name": "nftAddress",
              "type": "address"
            },
            {
              "internalType": "uint256",
              "name": "tokenId",
              "type": "uint256"
            },
            {
              "internalType": "address",
              "name": "owner",
              "type": "address"
            },
            {
              "internalType": "uint64",
              "name": "quantity",
              "type": "uint64"
            },
            {
              "internalType": "uint128",
              "name": "maxPricePerItem",
              "type": "uint128"
            },
            {
              "internalType": "address",
              "name": "paymentToken",
              "type": "address"
            },
            {
              "internalType": "bool",
              "name": "usingEth",
              "type": "bool"
            }
          ],
          "internalType": "struct AtlantisMarketplace.BuyItemParams[]",
          "name": "_buyItemParams",
          "type": "tuple[]"
        }
      ],
      "name": "buyItems",
      "outputs": [],
      "stateMutability": "payable",
      "type": "function"
    },
    {
      "inputs": [
        {
          "internalType": "address",
          "name": "_nftAddress",
          "type": "address"
        },
        {
          "internalType": "uint256",
          "name": "_tokenId",
          "type": "uint256"
        }
      ],
      "name": "cancelListing",
      "outputs": [],
      "stateMutability": "nonpayable",
      "type": "function"
    },
    {
      "inputs": [
        {
          "components": [
            {
              "internalType": "enum AtlantisMarketplace.BidType",
              "name": "bidType",
              "type": "uint8"
            },
            {
              "internalType": "address",
              "name": "nftAddress",
              "type": "address"
            },
            {
              "internalType": "uint256",
              "name": "tokenId",
              "type": "uint256"
            }
          ],
          "internalType": "struct AtlantisMarketplace.CancelBidParams[]",
          "name": "_cancelBidParams",
          "type": "tuple[]"
        }
      ],
      "name": "cancelManyBids",
      "outputs": [],
      "stateMutability": "nonpayable",
      "type": "function"
    },
    {
      "inputs": [
        {
          "internalType": "address",
          "name": "",
          "type": "address"
        },
        {
          "internalType": "address",
          "name": "",
          "type": "address"
        }
      ],
      "name": "collectionBids",
      "outputs": [
        {
          "internalType": "uint64",
          "name": "quantity",
          "type": "uint64"
        },
        {
          "internalType": "uint128",
          "name": "pricePerItem",
          "type": "uint128"
        },
        {
          "internalType": "uint64",
          "name": "expirationTime",
          "type": "uint64"
        },
        {
          "internalType": "address",
          "name": "paymentTokenAddress",
          "type": "address"
        }
      ],
      "stateMutability": "view",
      "type": "function"
    },
    {
      "inputs": [
        {
          "internalType": "address",
          "name": "",
          "type": "address"
        }
      ],
      "name": "collectionToCollectionOwnerFee",
      "outputs": [
        {
          "internalType": "uint32",
          "name": "fee",
          "type": "uint32"
        },
        {
          "internalType": "address",
          "name": "recipient",
          "type": "address"
        }
      ],
      "stateMutability": "view",
      "type": "function"
    },
    {
      "inputs": [
        {
          "internalType": "address",
          "name": "",
          "type": "address"
        }
      ],
      "name": "collectionToPaymentToken",
      "outputs": [
        {
          "internalType": "address",
          "name": "",
          "type": "address"
        }
      ],
      "stateMutability": "view",
      "type": "function"
    },
    {
      "inputs": [
        {
          "internalType": "address",
          "name": "_nftAddress",
          "type": "address"
        },
        {
          "internalType": "uint256",
          "name": "_tokenId",
          "type": "uint256"
        },
        {
          "internalType": "uint64",
          "name": "_quantity",
          "type": "uint64"
        },
        {
          "internalType": "uint128",
          "name": "_pricePerItem",
          "type": "uint128"
        },
        {
          "internalType": "uint64",
          "name": "_expirationTime",
          "type": "uint64"
        },
        {
          "internalType": "address",
          "name": "_paymentToken",
          "type": "address"
        }
      ],
      "name": "createListing",
      "outputs": [],
      "stateMutability": "nonpayable",
      "type": "function"
    },
    {
      "inputs": [
        {
          "internalType": "address",
          "name": "_nftAddress",
          "type": "address"
        },
        {
          "internalType": "uint64",
          "name": "_quantity",
          "type": "uint64"
        },
        {
          "internalType": "uint128",
          "name": "_pricePerItem",
          "type": "uint128"
        },
        {
          "internalType": "uint64",
          "name": "_expirationTime",
          "type": "uint64"
        },
        {
          "internalType": "address",
          "name": "_paymentToken",
          "type": "address"
        }
      ],
      "name": "createOrUpdateCollectionBid",
      "outputs": [],
      "stateMutability": "nonpayable",
      "type": "function"
    },
    {
      "inputs": [
        {
          "internalType": "address",
          "name": "_nftAddress",
          "type": "address"
        },
        {
          "internalType": "uint256",
          "name": "_tokenId",
          "type": "uint256"
        },
        {
          "internalType": "uint64",
          "name": "_quantity",
          "type": "uint64"
        },
        {
          "internalType": "uint128",
          "name": "_pricePerItem",
          "type": "uint128"
        },
        {
          "internalType": "uint64",
          "name": "_expirationTime",
          "type": "uint64"
        },
        {
          "internalType": "address",
          "name": "_paymentToken",
          "type": "address"
        }
      ],
      "name": "createOrUpdateListing",
      "outputs": [],
      "stateMutability": "nonpayable",
      "type": "function"
    },
    {
      "inputs": [
        {
          "internalType": "address",
          "name": "_nftAddress",
          "type": "address"
        },
        {
          "internalType": "uint256",
          "name": "_tokenId",
          "type": "uint256"
        },
        {
          "internalType": "uint64",
          "name": "_quantity",
          "type": "uint64"
        },
        {
          "internalType": "uint128",
          "name": "_pricePerItem",
          "type": "uint128"
        },
        {
          "internalType": "uint64",
          "name": "_expirationTime",
          "type": "uint64"
        },
        {
          "internalType": "address",
          "name": "_paymentToken",
          "type": "address"
        }
      ],
      "name": "createOrUpdateTokenBid",
      "outputs": [],
      "stateMutability": "nonpayable",
      "type": "function"
    },
    {
      "inputs": [],
      "name": "fee",
      "outputs": [
        {
          "internalType": "uint256",
          "name": "",
          "type": "uint256"
        }
      ],
      "stateMutability": "view",
      "type": "function"
    },
    {
      "inputs": [],
      "name": "feeReceipient",
      "outputs": [
        {
          "internalType": "address",
          "name": "",
          "type": "address"
        }
      ],
      "stateMutability": "view",
      "type": "function"
    },
    {
      "inputs": [],
      "name": "feeWithCollectionOwner",
      "outputs": [
        {
          "internalType": "uint256",
          "name": "",
          "type": "uint256"
        }
      ],
      "stateMutability": "view",
      "type": "function"
    },
    {
      "inputs": [
        {
          "internalType": "address",
          "name": "_collection",
          "type": "address"
        }
      ],
      "name": "getPaymentTokenForCollection",
      "outputs": [
        {
          "internalType": "address",
          "name": "",
          "type": "address"
        }
      ],
      "stateMutability": "view",
      "type": "function"
    },
    {
      "inputs": [
        {
          "internalType": "bytes32",
          "name": "role",
          "type": "bytes32"
        }
      ],
      "name": "getRoleAdmin",
      "outputs": [
        {
          "internalType": "bytes32",
          "name": "",
          "type": "bytes32"
        }
      ],
      "stateMutability": "view",
      "type": "function"
    },
    {
      "inputs": [
        {
          "internalType": "bytes32",
          "name": "role",
          "type": "bytes32"
        },
        {
          "internalType": "uint256",
          "name": "index",
          "type": "uint256"
        }
      ],
      "name": "getRoleMember",
      "outputs": [
        {
          "internalType": "address",
          "name": "",
          "type": "address"
        }
      ],
      "stateMutability": "view",
      "type": "function"
    },
    {
      "inputs": [
        {
          "internalType": "bytes32",
          "name": "role",
          "type": "bytes32"
        }
      ],
      "name": "getRoleMemberCount",
      "outputs": [
        {
          "internalType": "uint256",
          "name": "",
          "type": "uint256"
        }
      ],
      "stateMutability": "view",
      "type": "function"
    },
    {
      "inputs": [
        {
          "internalType": "bytes32",
          "name": "role",
          "type": "bytes32"
        },
        {
          "internalType": "address",
          "name": "account",
          "type": "address"
        }
      ],
      "name": "grantRole",
      "outputs": [],
      "stateMutability": "nonpayable",
      "type": "function"
    },
    {
      "inputs": [
        {
          "internalType": "bytes32",
          "name": "role",
          "type": "bytes32"
        },
        {
          "internalType": "address",
          "name": "account",
          "type": "address"
        }
      ],
      "name": "hasRole",
      "outputs": [
        {
          "internalType": "bool",
          "name": "",
          "type": "bool"
        }
      ],
      "stateMutability": "view",
      "type": "function"
    },
    {
      "inputs": [
        {
          "internalType": "uint256",
          "name": "_initialFee",
          "type": "uint256"
        },
        {
          "internalType": "address",
          "name": "_initialFeeRecipient",
          "type": "address"
        },
        {
          "internalType": "contract IERC20Upgradeable",
          "name": "_initialPaymentToken",
          "type": "address"
        }
      ],
      "name": "initialize",
      "outputs": [],
      "stateMutability": "nonpayable",
      "type": "function"
    },
    {
      "inputs": [
        {
          "internalType": "address",
          "name": "",
          "type": "address"
        },
        {
          "internalType": "uint256",
          "name": "",
          "type": "uint256"
        },
        {
          "internalType": "address",
          "name": "",
          "type": "address"
        }
      ],
      "name": "listings",
      "outputs": [
        {
          "internalType": "uint64",
          "name": "quantity",
          "type": "uint64"
        },
        {
          "internalType": "uint128",
          "name": "pricePerItem",
          "type": "uint128"
        },
        {
          "internalType": "uint64",
          "name": "expirationTime",
          "type": "uint64"
        },
        {
          "internalType": "address",
          "name": "paymentTokenAddress",
          "type": "address"
        }
      ],
      "stateMutability": "view",
      "type": "function"
    },
    {
      "inputs": [],
      "name": "pause",
      "outputs": [],
      "stateMutability": "nonpayable",
      "type": "function"
    },
    {
      "inputs": [],
      "name": "paused",
      "outputs": [
        {
          "internalType": "bool",
          "name": "",
          "type": "bool"
        }
      ],
      "stateMutability": "view",
      "type": "function"
    },
    {
      "inputs": [],
      "name": "paymentToken",
      "outputs": [
        {
          "internalType": "contract IERC20Upgradeable",
          "name": "",
          "type": "address"
        }
      ],
      "stateMutability": "view",
      "type": "function"
    },
    {
      "inputs": [],
      "name": "priceTrackerAddress",
      "outputs": [
        {
          "internalType": "address",
          "name": "",
          "type": "address"
        }
      ],
      "stateMutability": "view",
      "type": "function"
    },
    {
      "inputs": [
        {
          "internalType": "bytes32",
          "name": "role",
          "type": "bytes32"
        },
        {
          "internalType": "address",
          "name": "account",
          "type": "address"
        }
      ],
      "name": "renounceRole",
      "outputs": [],
      "stateMutability": "nonpayable",
      "type": "function"
    },
    {
      "inputs": [
        {
          "internalType": "bytes32",
          "name": "role",
          "type": "bytes32"
        },
        {
          "internalType": "address",
          "name": "account",
          "type": "address"
        }
      ],
      "name": "revokeRole",
      "outputs": [],
      "stateMutability": "nonpayable",
      "type": "function"
    },
    {
      "inputs": [
        {
          "internalType": "address",
          "name": "_collectionAddress",
          "type": "address"
        },
        {
          "components": [
            {
              "internalType": "uint32",
              "name": "fee",
              "type": "uint32"
            },
            {
              "internalType": "address",
              "name": "recipient",
              "type": "address"
            }
          ],
          "internalType": "struct AtlantisMarketplace.CollectionOwnerFee",
          "name": "_collectionOwnerFee",
          "type": "tuple"
        }
      ],
      "name": "setCollectionOwnerFee",
      "outputs": [],
      "stateMutability": "nonpayable",
      "type": "function"
    },
    {
      "inputs": [
        {
          "internalType": "uint256",
          "name": "_newFee",
          "type": "uint256"
        },
        {
          "internalType": "uint256",
          "name": "_newFeeWithCollectionOwner",
          "type": "uint256"
        }
      ],
      "name": "setFee",
      "outputs": [],
      "stateMutability": "nonpayable",
      "type": "function"
    },
    {
      "inputs": [
        {
          "internalType": "address",
          "name": "_newFeeRecipient",
          "type": "address"
        }
      ],
      "name": "setFeeRecipient",
      "outputs": [],
      "stateMutability": "nonpayable",
      "type": "function"
    },
    {
      "inputs": [
        {
          "internalType": "address",
          "name": "_priceTrackerAddress",
          "type": "address"
        }
      ],
      "name": "setPriceTracker",
      "outputs": [],
      "stateMutability": "nonpayable",
      "type": "function"
    },
    {
      "inputs": [
        {
          "internalType": "address",
          "name": "_nft",
          "type": "address"
        },
        {
          "internalType": "enum AtlantisMarketplace.TokenApprovalStatus",
          "name": "_status",
          "type": "uint8"
        },
        {
          "internalType": "address",
          "name": "_paymentToken",
          "type": "address"
        }
      ],
      "name": "setTokenApprovalStatus",
      "outputs": [],
      "stateMutability": "nonpayable",
      "type": "function"
    },
    {
      "inputs": [
        {
          "internalType": "address",
          "name": "_wethAddress",
          "type": "address"
        }
      ],
      "name": "setWeth",
      "outputs": [],
      "stateMutability": "nonpayable",
      "type": "function"
    },
    {
      "inputs": [
        {
          "internalType": "bytes4",
          "name": "interfaceId",
          "type": "bytes4"
        }
      ],
      "name": "supportsInterface",
      "outputs": [
        {
          "internalType": "bool",
          "name": "",
          "type": "bool"
        }
      ],
      "stateMutability": "view",
      "type": "function"
    },
    {
      "inputs": [],
      "name": "toggleAreBidsActive",
      "outputs": [],
      "stateMutability": "nonpayable",
      "type": "function"
    },
    {
      "inputs": [
        {
          "internalType": "address",
          "name": "",
          "type": "address"
        }
      ],
      "name": "tokenApprovals",
      "outputs": [
        {
          "internalType": "enum AtlantisMarketplace.TokenApprovalStatus",
          "name": "",
          "type": "uint8"
        }
      ],
      "stateMutability": "view",
      "type": "function"
    },
    {
      "inputs": [
        {
          "internalType": "address",
          "name": "",
          "type": "address"
        },
        {
          "internalType": "uint256",
          "name": "",
          "type": "uint256"
        },
        {
          "internalType": "address",
          "name": "",
          "type": "address"
        }
      ],
      "name": "tokenBids",
      "outputs": [
        {
          "internalType": "uint64",
          "name": "quantity",
          "type": "uint64"
        },
        {
          "internalType": "uint128",
          "name": "pricePerItem",
          "type": "uint128"
        },
        {
          "internalType": "uint64",
          "name": "expirationTime",
          "type": "uint64"
        },
        {
          "internalType": "address",
          "name": "paymentTokenAddress",
          "type": "address"
        }
      ],
      "stateMutability": "view",
      "type": "function"
    },
    {
      "inputs": [],
      "name": "unpause",
      "outputs": [],
      "stateMutability": "nonpayable",
      "type": "function"
    },
    {
      "inputs": [
        {
          "internalType": "address",
          "name": "_nftAddress",
          "type": "address"
        },
        {
          "internalType": "uint256",
          "name": "_tokenId",
          "type": "uint256"
        },
        {
          "internalType": "uint64",
          "name": "_newQuantity",
          "type": "uint64"
        },
        {
          "internalType": "uint128",
          "name": "_newPricePerItem",
          "type": "uint128"
        },
        {
          "internalType": "uint64",
          "name": "_newExpirationTime",
          "type": "uint64"
        },
        {
          "internalType": "address",
          "name": "_paymentToken",
          "type": "address"
        }
      ],
      "name": "updateListing",
      "outputs": [],
      "stateMutability": "nonpayable",
      "type": "function"
    },
    {
      "inputs": [],
      "name": "weth",
      "outputs": [
        {
          "internalType": "contract IERC20Upgradeable",
          "name": "",
          "type": "address"
        }
      ],
      "stateMutability": "view",
      "type": "function"
    }
  ],
  "transactionHash": "0xf4464ad539196b5a2554207b5c32b0463520e93504ecb0ed9037d271c8322ec1",
  "args": [],
  "numDeployments": 1,
  "solcInputHash": "31ee4102209b6581ca8b5762e734f07e",
  "bytecode": "0x60806040523480156200001157600080fd5b50600054610100900460ff1615808015620000335750600054600160ff909116105b8062000063575062000050306200013d60201b620021241760201c565b15801562000063575060005460ff166001145b620000cb5760405162461bcd60e51b815260206004820152602e60248201527f496e697469616c697a61626c653a20636f6e747261637420697320616c72656160448201526d191e481a5b9a5d1a585b1a5e995960921b606482015260840160405180910390fd5b6000805460ff191660011790558015620000ef576000805461ff0019166101001790555b801562000136576000805461ff0019169055604051600181527f7f26b83ff96e1f2b6a682f133852f6798a09c465da95921460cefb38474024989060200160405180910390a15b506200014c565b6001600160a01b03163b151590565b615540806200015c6000396000f3fe6080604052600436106102ae5760003560e01c806384fa314611610175578063b4988fd0116100dc578063ca15c87311610095578063e1f1c4a71161006f578063e1f1c4a714610992578063e74b981b146109a8578063e76c1713146109c8578063e8a5f20014610a0657600080fd5b8063ca15c8731461093b578063d547741f1461095b578063ddca3f431461097b57600080fd5b8063b4988fd01461082d578063b8d1452f1461084d578063bc063e1a1461086d578063c564e3a114610883578063c5da1183146108a3578063c7cbcb3e146108c357600080fd5b806398803a831161012e57806398803a831461073b5780639a867aab146107ad578063a07076b2146107cd578063a217fddf146107e0578063ad9f20a6146107f5578063b2ddee061461080d57600080fd5b806384fa31461461066e5780638852e2201461068e5780638dce8eae146106c55780639010d07c146106e557806391d14854146107055780639858bc9f1461072557600080fd5b80633fc8cef311610219578063656b67ad116101d2578063656b67ad146105265780636bd3a64b146105465780637763e82914610600578063785a8678146106225780637945e944146106395780638456cb591461065957600080fd5b80633fc8cef31461047857806344c7f047146104995780634aecaa25146104ae5780634e96358d146104ce57806352f7c988146104ee5780635c975abb1461050e57600080fd5b80632c4520981161026b5780632c452098146103c15780632f2ff15d146103e15780633013ce291461040157806336568abe146104225780633740ebb3146104425780633f4ba83a1461046357600080fd5b806301ffc9a7146102b3578063083aded7146102e8578063101e1c0214610303578063143f05e11461034157806319d8943614610363578063248a9ca314610383575b600080fd5b3480156102bf57600080fd5b506102d36102ce366004614917565b610a71565b60405190151581526020015b60405180910390f35b3480156102f457600080fd5b50610138546102d39060ff1681565b34801561030f57600080fd5b50610138546103299061010090046001600160a01b031681565b6040516001600160a01b0390911681526020016102df565b34801561034d57600080fd5b5061036161035c366004614989565b610a9c565b005b34801561036f57600080fd5b5061036161037e3660046149fc565b610b97565b34801561038f57600080fd5b506103b361039e366004614a3d565b60009081526065602052604090206001015490565b6040519081526020016102df565b3480156103cd57600080fd5b506103616103dc366004614989565b610d96565b3480156103ed57600080fd5b506103616103fc366004614a56565b611022565b34801561040d57600080fd5b5061012d54610329906001600160a01b031681565b34801561042e57600080fd5b5061036161043d366004614a56565b61104c565b34801561044e57600080fd5b5061012f54610329906001600160a01b031681565b34801561046f57600080fd5b506103616110ca565b34801561048457600080fd5b5061013554610329906001600160a01b031681565b3480156104a557600080fd5b506103616110ed565b3480156104ba57600080fd5b506103616104c9366004614a86565b61111b565b3480156104da57600080fd5b506103616104e9366004614afa565b61131a565b3480156104fa57600080fd5b50610361610509366004614b49565b611678565b34801561051a57600080fd5b5060c95460ff166102d3565b34801561053257600080fd5b50610361610541366004614b6b565b61175f565b34801561055257600080fd5b506105be610561366004614b83565b610130602090815260009384526040808520825292845282842090528252902080546001909101546001600160401b03808316926001600160801b03600160401b82041692600160c01b909104909116906001600160a01b031684565b604080516001600160401b0395861681526001600160801b0394909416602085015291909316908201526001600160a01b0390911660608201526080016102df565b34801561060c57600080fd5b506103b36000805160206154eb83398151915281565b34801561062e57600080fd5b506103b36101325481565b34801561064557600080fd5b50610329610654366004614bba565b6117a7565b34801561066557600080fd5b506103616117e6565b34801561067a57600080fd5b50610361610689366004614b6b565b611806565b34801561069a57600080fd5b506103296106a9366004614bba565b610134602052600090815260409020546001600160a01b031681565b3480156106d157600080fd5b506103616106e0366004614bba565b611844565b3480156106f157600080fd5b50610329610700366004614b49565b6118e1565b34801561071157600080fd5b506102d3610720366004614a56565b6118f9565b34801561073157600080fd5b506103b36107d081565b34801561074757600080fd5b506105be610756366004614bd7565b610137602090815260009283526040808420909152908252902080546001909101546001600160401b03808316926001600160801b03600160401b82041692600160c01b909104909116906001600160a01b031684565b3480156107b957600080fd5b506103616107c8366004614989565b611924565b6103616107db366004614c05565b6119bb565b3480156107ec57600080fd5b506103b3600081565b34801561080157600080fd5b506103b3633b9aca0081565b34801561081957600080fd5b50610361610828366004614c67565b611a70565b34801561083957600080fd5b50610361610848366004614c93565b611aea565b34801561085957600080fd5b50610361610868366004614bba565b611cd2565b34801561087957600080fd5b506103b36105dc81565b34801561088f57600080fd5b5061036161089e366004614cba565b611d68565b3480156108af57600080fd5b506103616108be366004614989565b611f87565b3480156108cf57600080fd5b506105be6108de366004614b83565b610136602090815260009384526040808520825292845282842090528252902080546001909101546001600160401b03808316926001600160801b03600160401b82041692600160c01b909104909116906001600160a01b031684565b34801561094757600080fd5b506103b3610956366004614a3d565b61205b565b34801561096757600080fd5b50610361610976366004614a56565b612072565b34801561098757600080fd5b506103b361012e5481565b34801561099e57600080fd5b506103b361271081565b3480156109b457600080fd5b506103616109c3366004614bba565b612097565b3480156109d457600080fd5b506109f96109e3366004614bba565b6101316020526000908152604090205460ff1681565b6040516102df9190614d4f565b348015610a1257600080fd5b50610a4d610a21366004614bba565b6101336020526000908152604090205463ffffffff81169064010000000090046001600160a01b031682565b6040805163ffffffff90931683526001600160a01b039091166020830152016102df565b60006001600160e01b03198216635a05180f60e01b1480610a965750610a9682612133565b92915050565b610aa4612168565b610aac6121c2565b6001600160a01b03861660009081526101306020908152604080832088845282528083203384529091529020546001600160401b03161515610af287878787878761220a565b8015610b40577fde1951e410d2f4644b8dd23d6b9e5d2e862b417055f42e3939ab16b4635ec6de33888888888888604051610b339796959493929190614d5d565b60405180910390a1610b84565b7fb21f4a0122c6667aa16da06fcb7d9d3b2688164dfb40b7253aed80ea36d88e9933888888888888604051610b7b9796959493929190614d5d565b60405180910390a15b50610b8f600160fb55565b505050505050565b6000805160206154eb833981519152610baf8161279f565b60026001600160a01b0384166000908152610131602052604090205460ff166002811115610bdf57610bdf614d25565b1480610c18575060016001600160a01b0384166000908152610131602052604090205460ff166002811115610c1657610c16614d25565b145b610c815760405162461bcd60e51b815260206004820152602f60248201527f41746c616e7469734d61726b6574706c6163653a20436f6c6c656374696f6e2060448201526e1a5cc81b9bdd08185c1c1c9bdd9959608a1b60648201526084015b60405180910390fd5b6107d0610c916020840184614dc1565b63ffffffff161115610cfa5760405162461bcd60e51b815260206004820152602c60248201527f41746c616e7469734d61726b6574706c6163653a20436f6c6c656374696f6e2060448201526b0cccaca40e8dede40d0d2ced60a31b6064820152608401610c78565b6001600160a01b0383166000908152610133602052604090208290610d1f8282614dde565b507f67fec56f6f9c18f46aafdc92ee08968b7cac01e9e5b3dbdd485415acf0e9773e905083610d546040850160208601614bba565b610d616020860186614dc1565b604080516001600160a01b03948516815293909216602084015263ffffffff16908201526060015b60405180910390a1505050565b610d9e612168565b610da66121c2565b6101385460ff16610dc95760405162461bcd60e51b8152600401610c7890614e37565b60016001600160a01b0387166000908152610131602052604090205460ff166002811115610df957610df9614d25565b1415610e7a57836001600160401b0316600114610e755760405162461bcd60e51b815260206004820152603460248201527f41746c616e7469734d61726b6574706c6163653a20746f6b656e20626964207160448201527375616e74697479203120666f722045524337323160601b6064820152608401610c78565b610f7a565b60026001600160a01b0387166000908152610131602052604090205460ff166002811115610eaa57610eaa614d25565b1415610f13576000846001600160401b031611610e755760405162461bcd60e51b815260206004820152602160248201527f41746c616e7469734d61726b6574706c6163653a20626164207175616e7469746044820152607960f81b6064820152608401610c78565b60405162461bcd60e51b815260206004820152603660248201527f41746c616e7469734d61726b6574706c6163653a20746f6b656e206973206e6f6044820152757420617070726f76656420666f722074726164696e6760501b6064820152608401610c78565b6001600160a01b0386166000908152610136602090815260408083208884529091528120610fd4918891879187918791879190335b6001600160a01b03166001600160a01b031681526020019081526020016000206127a9565b7faa16fd3f89fcc221b55be8ebd56c20abf3a580c60a83d5de297e0edf750aeae8335b8787878787876040516110109796959493929190614d5d565b60405180910390a1610b8f600160fb55565b60008281526065602052604090206001015461103d8161279f565b6110478383612a88565b505050565b6001600160a01b03811633146110bc5760405162461bcd60e51b815260206004820152602f60248201527f416363657373436f6e74726f6c3a2063616e206f6e6c792072656e6f756e636560448201526e103937b632b9903337b91039b2b63360891b6064820152608401610c78565b6110c68282612aaa565b5050565b6000805160206154eb8339815191526110e28161279f565b6110ea612acc565b50565b6000805160206154eb8339815191526111058161279f565b50610138805460ff19811660ff90911615179055565b611123612168565b60005b8181101561130f573683838381811061114157611141614e81565b6060029190910191506001905061115b6020830183614e97565b600181111561116c5761116c614d25565b1415611243576000610137816111886040850160208601614bba565b6001600160a01b03166001600160a01b0316815260200190815260200160002060006111b13390565b6001600160a01b031681526020810191909152604001600020805467ffffffffffffffff19166001600160401b03929092169190911790557ff5913151c29e184e3a477be2274f0b06b63cd67c1ab11e1cc103d25701cfbdf23361121b6040840160208501614bba565b604080516001600160a01b0393841681529290911660208301520160405180910390a16112fc565b6000610136816112596040850160208601614bba565b6001600160a01b0316815260208082019290925260409081016000908120858301803583529084528282203380845290855292909120805467ffffffffffffffff19166001600160401b0395909516949094179093557fc98088fb062dda614ae7304b89526258370705c2646039e06beff408428a6b9c9290916112df91908501614bba565b83604001356040516112f393929190614eb8565b60405180910390a15b508061130781614ef2565b915050611126565b506110c6600160fb55565b6000805160206154eb8339815191526113328161279f565b600183600281111561134657611346614d25565b1415611420576040516301ffc9a760e01b81526380ac58cd60e01b60048201526001600160a01b038516906301ffc9a790602401602060405180830381865afa158015611397573d6000803e3d6000fd5b505050506040513d601f19601f820116820180604052508101906113bb9190614f1b565b61141b5760405162461bcd60e51b815260206004820152602b60248201527f41746c616e7469734d61726b6574706c6163653a206e6f7420616e204552433760448201526a0c8c4818dbdb9d1c9858dd60aa1b6064820152608401610c78565b61150a565b600283600281111561143457611434614d25565b141561150a576040516301ffc9a760e01b8152636cdb3d1360e11b60048201526001600160a01b038516906301ffc9a790602401602060405180830381865afa158015611485573d6000803e3d6000fd5b505050506040513d601f19601f820116820180604052508101906114a99190614f1b565b61150a5760405162461bcd60e51b815260206004820152602c60248201527f41746c616e7469734d61726b6574706c6163653a206e6f7420616e204552433160448201526b0c4d4d4818dbdb9d1c9858dd60a21b6064820152608401610c78565b6001600160a01b03821661152857610135546001600160a01b031691505b6001600160a01b038216158015906115665750610135546001600160a01b0383811691161480611566575061012d546001600160a01b038381169116145b6115cb5760405162461bcd60e51b815260206004820152603060248201527f41746c616e7469734d61726b6574706c6163653a205061796d656e7420746f6b60448201526f195b881b9bdd081cdd5c1c1bdc9d195960821b6064820152608401610c78565b6001600160a01b038416600090815261013160205260409020805484919060ff1916600183600281111561160157611601614d25565b02179055506001600160a01b03848116600090815261013460205260409081902080546001600160a01b03191692851692909217909155517f876079e5f28457db5d4f19b6a15569030a7512eb4308523b27062fa6998baeab9061166a90869086908690614f38565b60405180910390a150505050565b6000805160206154eb8339815191526116908161279f565b6105dc83111580156116a457506105dc8211155b6116f05760405162461bcd60e51b815260206004820152601c60248201527f41746c616e7469734d61726b6574706c6163653a206d617820666565000000006044820152606401610c78565b61012e8390556101328290556040518381527f38e229a7f3f9c329892d08eb37c4e91ccac6d12c798d394990ca4f56028ec2669060200160405180910390a16040518281527f32837ab65d8583d89ac1b66920de55975eb33cbc0fbf00f2123197ce3b62c63e90602001610d89565b611767612168565b61176f6121c2565b6101385460ff166117925760405162461bcd60e51b8152600401610c7890614e37565b61179d816001612b1e565b6110ea600160fb55565b6001600160a01b038082166000908152610134602052604081205490911680156117d157806117df565b61012d546001600160a01b03165b9392505050565b6000805160206154eb8339815191526117fe8161279f565b6110ea6133ef565b61180e612168565b6118166121c2565b6101385460ff166118395760405162461bcd60e51b8152600401610c7890614e37565b61179d816000612b1e565b6000805160206154eb83398151915261185c8161279f565b6001600160a01b0382166118825760405162461bcd60e51b8152600401610c7890614f68565b6101388054610100600160a81b0319166101006001600160a01b038516908102919091179091556040519081527fff578b2d68bd5715dc8d6a50dd990e7b5500f2849738885bbd03241447090e5a906020015b60405180910390a15050565b60008281526097602052604081206117df908361342c565b60009182526065602090815260408084206001600160a01b0393909316845291905290205460ff1690565b61192c612168565b6119346121c2565b6001600160a01b03861660009081526101306020908152604080832088845282528083203384529091529020546001600160401b03166119865760405162461bcd60e51b8152600401610c7890614fb3565b61199486868686868661220a565b7fde1951e410d2f4644b8dd23d6b9e5d2e862b417055f42e3939ab16b4635ec6de33610ff7565b6119c3612168565b6119cb6121c2565b6000805b82811015611a15576119f78484838181106119ec576119ec614e81565b905060e00201613438565b611a019083614ff7565b915080611a0d81614ef2565b9150506119cf565b5080341461130f5760405162461bcd60e51b815260206004820152602260248201527f41746c616e7469734d61726b6574706c6163653a20426164204554482076616c604482015261756560f01b6064820152608401610c78565b611a78612168565b6001600160a01b038216600081815261013060209081526040808320858452825280832033808552925280832083815560010180546001600160a01b0319169055518493927f9ba1a3cb55ce8d63d072a886f94d2a744f50cddf82128e897d0661f5ec62315891a46110c6600160fb55565b600054610100900460ff1615808015611b0a5750600054600160ff909116105b80611b245750303b158015611b24575060005460ff166001145b611b875760405162461bcd60e51b815260206004820152602e60248201527f496e697469616c697a61626c653a20636f6e747261637420697320616c72656160448201526d191e481a5b9a5d1a585b1a5e995960921b6064820152608401610c78565b6000805460ff191660011790558015611baa576000805461ff0019166101001790555b6001600160a01b038216611c135760405162461bcd60e51b815260206004820152602a60248201527f41746c616e7469734d61726b6574706c6163653a2063616e6e6f7420736574206044820152696164647265737328302960b01b6064820152608401610c78565b611c1b613e94565b611c23613ebb565b611c2b613eee565b611c436000805160206154eb83398151915280613f15565b611c5b6000805160206154eb83398151915233612a88565b611c658485611678565b611c6e83612097565b61012d80546001600160a01b0319166001600160a01b0384161790558015611ccc576000805461ff0019169055604051600181527f7f26b83ff96e1f2b6a682f133852f6798a09c465da95921460cefb38474024989060200161166a565b50505050565b6000805160206154eb833981519152611cea8161279f565b610135546001600160a01b031615611d445760405162461bcd60e51b815260206004820152601860248201527f57455448206164647265737320616c72656164792073657400000000000000006044820152606401610c78565b5061013580546001600160a01b0319166001600160a01b0392909216919091179055565b611d70612168565b611d786121c2565b6101385460ff16611d9b5760405162461bcd60e51b8152600401610c7890614e37565b60016001600160a01b0386166000908152610131602052604090205460ff166002811115611dcb57611dcb614d25565b1415611e39576000846001600160401b031611611e345760405162461bcd60e51b815260206004820152602160248201527f41746c616e7469734d61726b6574706c6163653a20426164207175616e7469746044820152607960f81b6064820152608401610c78565b611ed0565b60026001600160a01b0386166000908152610131602052604090205460ff166002811115611e6957611e69614d25565b1415610f135760405162461bcd60e51b815260206004820152603060248201527f41746c616e7469734d61726b6574706c6163653a204e6f20636f6c6c6563746960448201526f6f6e2062696473206f6e20313135357360801b6064820152608401610c78565b611f07858585858561013760008c6001600160a01b03166001600160a01b031681526020019081526020016000206000610faf3390565b604080513381526001600160a01b0387811660208301526001600160401b03878116838501526001600160801b038716606084015285166080830152831660a082015290517f9f6945ee84d160722b736d12d84f9f3349075d2c78064575b40620be21bf6eef9181900360c00190a1611f80600160fb55565b5050505050565b611f8f612168565b611f976121c2565b6001600160a01b03861660009081526101306020908152604080832088845282528083203384529091529020546001600160401b0316156120265760405162461bcd60e51b815260206004820152602360248201527f41746c616e7469734d61726b6574706c6163653a20616c7265616479206c69736044820152621d195960ea1b6064820152608401610c78565b61203486868686868661220a565b7fb21f4a0122c6667aa16da06fcb7d9d3b2688164dfb40b7253aed80ea36d88e9933610ff7565b6000818152609760205260408120610a9690613f60565b60008281526065602052604090206001015461208d8161279f565b6110478383612aaa565b6000805160206154eb8339815191526120af8161279f565b6001600160a01b0382166120d55760405162461bcd60e51b8152600401610c7890614f68565b61012f80546001600160a01b0319166001600160a01b0384169081179091556040519081527f6632de8ab33c46549f7bb29f647ea0d751157b25fe6a14b1bcc7527cdfbeb79c906020016118d5565b6001600160a01b03163b151590565b60006001600160e01b03198216637965db0b60e01b1480610a9657506301ffc9a760e01b6001600160e01b0319831614610a96565b600260fb5414156121bb5760405162461bcd60e51b815260206004820152601f60248201527f5265656e7472616e637947756172643a207265656e7472616e742063616c6c006044820152606401610c78565b600260fb55565b60c95460ff16156122085760405162461bcd60e51b815260206004820152601060248201526f14185d5cd8589b194e881c185d5cd95960821b6044820152606401610c78565b565b42826001600160401b0316116122325760405162461bcd60e51b8152600401610c789061500f565b633b9aca00836001600160801b0316101561225f5760405162461bcd60e51b8152600401610c789061505b565b60016001600160a01b0387166000908152610131602052604090205460ff16600281111561228f5761228f614d25565b14156124785785336040516331a9108f60e11b8152600481018890526001600160a01b0391821691831690636352211e90602401602060405180830381865afa1580156122e0573d6000803e3d6000fd5b505050506040513d601f19601f82011682018060405250810190612304919061509f565b6001600160a01b0316146123665760405162461bcd60e51b8152602060048201526024808201527f41746c616e7469734d61726b6574706c6163653a206e6f74206f776e696e67206044820152636974656d60e01b6064820152608401610c78565b6001600160a01b03811663e985e9c5336040516001600160e01b031960e084901b1681526001600160a01b039091166004820152306024820152604401602060405180830381865afa1580156123c0573d6000803e3d6000fd5b505050506040513d601f19601f820116820180604052508101906123e49190614f1b565b6124005760405162461bcd60e51b8152600401610c78906150bc565b846001600160401b03166001146124725760405162461bcd60e51b815260206004820152603060248201527f41746c616e7469734d61726b6574706c6163653a2063616e6e6f74206c69737460448201526f206d756c7469706c652045524337323160801b6064820152608401610c78565b50612697565b60026001600160a01b0387166000908152610131602052604090205460ff1660028111156124a8576124a8614d25565b1415610f1357856001600160401b0385166001600160a01b03821662fdd58e336040516001600160e01b031960e084901b1681526001600160a01b039091166004820152602481018a9052604401602060405180830381865afa158015612513573d6000803e3d6000fd5b505050506040513d601f19601f820116820180604052508101906125379190615102565b10156125985760405162461bcd60e51b815260206004820152602a60248201527f41746c616e7469734d61726b6574706c6163653a206d75737420686f6c6420656044820152696e6f756768206e66747360b01b6064820152608401610c78565b6001600160a01b03811663e985e9c5336040516001600160e01b031960e084901b1681526001600160a01b039091166004820152306024820152604401602060405180830381865afa1580156125f2573d6000803e3d6000fd5b505050506040513d601f19601f820116820180604052508101906126169190614f1b565b6126325760405162461bcd60e51b8152600401610c78906150bc565b6000856001600160401b0316116124725760405162461bcd60e51b8152602060048201526024808201527f41746c616e7469734d61726b6574706c6163653a206e6f7468696e6720746f206044820152631b1a5cdd60e21b6064820152608401610c78565b60006126a2876117a7565b9050816001600160a01b0316816001600160a01b0316146126d55760405162461bcd60e51b8152600401610c789061511b565b50604080516080810182526001600160401b0395861681526001600160801b0394851660208083019182529487168284019081526001600160a01b039485166060840190815299851660009081526101308752848120998152988652838920338a529095529190962095518654915193518616600160c01b026001600160c01b0394909516600160401b026001600160c01b03199092169516949094179390931716178255915160019091018054919092166001600160a01b0319909116179055565b600160fb55565b6110ea8133613f6a565b42836001600160401b0316116127d15760405162461bcd60e51b8152600401610c789061500f565b633b9aca00846001600160801b031610156127fe5760405162461bcd60e51b8152600401610c789061505b565b6000612809876117a7565b9050826001600160a01b0316816001600160a01b03161461287b5760405162461bcd60e51b815260206004820152602660248201527f41746c616e7469734d61726b6574706c6163653a20426164207061796d656e74604482015265103a37b5b2b760d11b6064820152608401610c78565b8260006128916001600160401b03891688615163565b6001600160801b03169050806001600160a01b03831663dd62ed3e336040516001600160e01b031960e084901b1681526001600160a01b039091166004820152306024820152604401602060405180830381865afa1580156128f7573d6000803e3d6000fd5b505050506040513d601f19601f8201168201806040525081019061291b9190615102565b101580156129a05750806001600160a01b0383166370a08231336040516001600160e01b031960e084901b1681526001600160a01b039091166004820152602401602060405180830381865afa158015612979573d6000803e3d6000fd5b505050506040513d601f19601f8201168201806040525081019061299d9190615102565b10155b612a125760405162461bcd60e51b815260206004820152603f60248201527f41746c616e7469734d61726b6574706c6163653a204e6f7420656e6f7567682060448201527f746f6b656e73206f776e6564206f7220616c6c6f77656420666f7220626964006064820152608401610c78565b505081546001600160401b03948516600160c01b026001600160c01b036001600160801b03909716600160401b026001600160c01b0319909216959097169490941793909317939093169390931782555060010180546001600160a01b039092166001600160a01b031990921691909117905550565b612a928282613fc3565b60008281526097602052604090206110479082614049565b612ab4828261405e565b600082815260976020526040902061104790826140c5565b612ad46140da565b60c9805460ff191690557f5db9ee0a495bf2e6ff9c91a7834c1ba4fdd244a5e8aa4e537bd38aeae4b073aa335b6040516001600160a01b03909116815260200160405180910390a1565b612b2e6060830160408401614bba565b6001600160a01b0316336001600160a01b03161415612ba25760405162461bcd60e51b815260206004820152602a60248201527f41746c616e7469734d61726b6574706c6163653a2043616e6e6f7420737570706044820152691b1e481bdddb88189a5960b21b6064820152608401610c78565b6000612bb46080840160608501615192565b6001600160401b031611612c235760405162461bcd60e51b815260206004820152603060248201527f41746c616e7469734d61726b6574706c6163653a204e6f7468696e6720746f2060448201526f39bab838363c903a37903134b23232b960811b6064820152608401610c78565b60006001826001811115612c3957612c39614d25565b14612cbf576101366000612c506020860186614bba565b6001600160a01b03166001600160a01b031681526020019081526020016000206000846020013581526020019081526020016000206000846040016020810190612c9a9190614bba565b6001600160a01b03166001600160a01b03168152602001908152602001600020612d27565b6101376000612cd16020860186614bba565b6001600160a01b03166001600160a01b031681526020019081526020016000206000846040016020810190612d069190614bba565b6001600160a01b03166001600160a01b031681526020019081526020016000205b80549091506001600160401b0316612d915760405162461bcd60e51b815260206004820152602760248201527f41746c616e7469734d61726b6574706c6163653a2062696420646f6573206e6f6044820152661d08195e1a5cdd60ca1b6064820152608401610c78565b805442600160c01b9091046001600160401b03161015612df35760405162461bcd60e51b815260206004820181905260248201527f41746c616e7469734d61726b6574706c6163653a2062696420657870697265646044820152606401610c78565b8054600160401b90046001600160801b0316612e605760405162461bcd60e51b815260206004820152602660248201527f41746c616e7469734d61726b6574706c6163653a2062696420707269636520696044820152651b9d985b1a5960d21b6064820152608401610c78565b612e706080840160608501615192565b81546001600160401b0391821691161015612e9d5760405162461bcd60e51b8152600401610c78906151ad565b612ead60a08401608085016151f5565b8154600160401b90046001600160801b03908116911614612f225760405162461bcd60e51b815260206004820152602960248201527f41746c616e7469734d61726b6574706c6163653a20707269636520646f6573206044820152680dcdee840dac2e8c6d60bb1b6064820152608401610c78565b6000612f346106546020860186614bba565b9050612f4660c0850160a08601614bba565b60018301546001600160a01b039081169116148015612f8557506001600160a01b038116612f7a60c0860160a08701614bba565b6001600160a01b0316145b612fa15760405162461bcd60e51b8152600401610c789061511b565b60016101316000612fb56020880188614bba565b6001600160a01b0316815260208101919091526040016000205460ff166002811115612fe357612fe3614d25565b14156130f357612ff96080850160608601615192565b6001600160401b031660011461306d5760405162461bcd60e51b815260206004820152603360248201527f41746c616e7469734d61726b6574706c6163653a2043616e6e6f7420737570706044820152726c79206d756c7469706c65204552433732317360681b6064820152608401610c78565b61307a6020850185614bba565b6001600160a01b03166342842e0e336130996060880160408901614bba565b87602001356040518463ffffffff1660e01b81526004016130bc93929190614eb8565b600060405180830381600087803b1580156130d657600080fd5b505af11580156130ea573d6000803e3d6000fd5b505050506131ac565b600261013160006131076020880188614bba565b6001600160a01b0316815260208101919091526040016000205460ff16600281111561313557613135614d25565b1415610f13576131486020850185614bba565b6001600160a01b031663f242432a336131676060880160408901614bba565b602088013561317c60808a0160608b01615192565b604051806020016040528060008152506040518663ffffffff1660e01b81526004016130bc959493929190615268565b604080516080808201835284546001600160401b0380821684526001600160801b03600160401b8304166020850152600160c01b909104169282019290925260018401546001600160a01b03166060808301919091526132539261321591908801908801615192565b6001600160401b031661322b6020880188614bba565b61323b6060890160408a01614bba565b3361324c60c08b0160a08c01614bba565b6000614123565b6101385461010090046001600160a01b031615613309576101385461010090046001600160a01b031663086efe0561328e6020870187614bba565b845460405160e084901b6001600160e01b03191681526001600160a01b03909216600483015260208801356024830152600160401b90046001600160801b03166044820152606401600060405180830381600087803b1580156132f057600080fd5b505af1158015613304573d6000803e3d6000fd5b505050505b7ff6b2b7813b1815a0e2e32964b4f22ec24862322d9c9c0e0eefac425dfc455ab13361333b6060870160408801614bba565b6133486020880188614bba565b602088013561335d60808a0160608b01615192565b61336d60a08b0160808c016151f5565b61337d60c08c0160a08d01614bba565b8a6040516133929897969594939291906152aa565b60405180910390a16133aa6080850160608601615192565b825483906000906133c59084906001600160401b031661531b565b92506101000a8154816001600160401b0302191690836001600160401b0316021790555050505050565b6133f76121c2565b60c9805460ff191660011790557f62e78cea01bee320cd4e420270b5ea74000d11b0c9f74754ebdbfc544b05a258612b013390565b60006117df8383614235565b600061344a6060830160408401614bba565b6001600160a01b0316336001600160a01b031614156134c15760405162461bcd60e51b815260206004820152602d60248201527f41746c616e7469734d61726b6574706c6163653a2043616e6e6f74206275792060448201526c796f7572206f776e206974656d60981b6064820152608401610c78565b60006134d36080840160608501615192565b6001600160401b0316116135355760405162461bcd60e51b815260206004820152602360248201527f41746c616e7469734d61726b6574706c6163653a204e6f7468696e6720746f2060448201526262757960e81b6064820152608401610c78565b6000610130816135486020860186614bba565b6001600160a01b03166001600160a01b0316815260200190815260200160002060008460200135815260200190815260200160002060008460400160208101906135929190614bba565b6001600160a01b0390811682526020808301939093526040918201600020825160808101845281546001600160401b038082168084526001600160801b03600160401b84041697840197909752600160c01b90910416938101939093526001015416606082015291506136175760405162461bcd60e51b8152600401610c7890614fb3565b4281604001516001600160401b031610156136805760405162461bcd60e51b8152602060048201526024808201527f41746c616e7469734d61726b6574706c6163653a206c697374696e67206578706044820152631a5c995960e21b6064820152608401610c78565b600081602001516001600160801b0316116136f05760405162461bcd60e51b815260206004820152602a60248201527f41746c616e7469734d61726b6574706c6163653a206c697374696e672070726960448201526918d9481a5b9d985b1a5960b21b6064820152608401610c78565b6137006080840160608501615192565b6001600160401b031681600001516001600160401b031610156137355760405162461bcd60e51b8152600401610c78906151ad565b61374560a08401608085016151f5565b6001600160801b031681602001516001600160801b031611156137b65760405162461bcd60e51b8152602060048201526024808201527f41746c616e7469734d61726b6574706c6163653a20707269636520696e637265604482015263185cd95960e21b6064820152608401610c78565b60006137c86106546020860186614bba565b905060006137d58361425f565b90506137e760c0860160a08701614bba565b6001600160a01b0316816001600160a01b031614801561382757506001600160a01b03821661381c60c0870160a08801614bba565b6001600160a01b0316145b6138435760405162461bcd60e51b8152600401610c789061511b565b61385360e0860160c08701615343565b156138dc57610135546001600160a01b038281169116146138dc5760405162461bcd60e51b815260206004820152603760248201527f41746c616e7469734d61726b6574706c6163653a20455448206f6e6c7920757360448201527f65642077697468207765746820636f6c6c656374696f6e0000000000000000006064820152608401610c78565b600161013160006138f06020890189614bba565b6001600160a01b0316815260208101919091526040016000205460ff16600281111561391e5761391e614d25565b1415613a2a576139346080860160608701615192565b6001600160401b03166001146139a45760405162461bcd60e51b815260206004820152602f60248201527f41746c616e7469734d61726b6574706c6163653a2043616e6e6f74206275792060448201526e6d756c7469706c652045524337323160881b6064820152608401610c78565b6139b16020860186614bba565b6001600160a01b03166342842e0e6139cf6060880160408901614bba565b3388602001356040518463ffffffff1660e01b81526004016139f393929190614eb8565b600060405180830381600087803b158015613a0d57600080fd5b505af1158015613a21573d6000803e3d6000fd5b50505050613ae3565b60026101316000613a3e6020890189614bba565b6001600160a01b0316815260208101919091526040016000205460ff166002811115613a6c57613a6c614d25565b1415610f1357613a7f6020860186614bba565b6001600160a01b031663f242432a613a9d6060880160408901614bba565b336020890135613ab360808b0160608c01615192565b604051806020016040528060008152506040518663ffffffff1660e01b81526004016139f3959493929190615268565b613b4383613af76080880160608901615192565b6001600160401b0316613b0d6020890189614bba565b33613b1e60608b0160408c01614bba565b613b2e60c08c0160a08d01614bba565b613b3e60e08d0160c08e01615343565b614123565b7f72d3f914473a393354e6fcd9c3cb7d2eee53924b9b856f9da274e024566292a5613b746060870160408801614bba565b33613b826020890189614bba565b6020890135613b9760808b0160608c01615192565b6020890151613bac60c08d0160a08e01614bba565b604080516001600160a01b03988916815296881660208801529487169486019490945260608501929092526001600160401b031660808401526001600160801b031660a083015290911660c082015260e00160405180910390a1613c166080860160608701615192565b6001600160401b031683600001516001600160401b03161415613cc3576101306000613c456020880188614bba565b6001600160a01b03166001600160a01b031681526020019081526020016000206000866020013581526020019081526020016000206000866040016020810190613c8f9190614bba565b6001600160a01b031681526020810191909152604001600090812090815560010180546001600160a01b0319169055613d88565b613cd36080860160608701615192565b6101306000613ce56020890189614bba565b6001600160a01b03166001600160a01b031681526020019081526020016000206000876020013581526020019081526020016000206000876040016020810190613d2f9190614bba565b6001600160a01b03168152602081019190915260400160009081208054909190613d639084906001600160401b031661531b565b92506101000a8154816001600160401b0302191690836001600160401b031602179055505b6101385461010090046001600160a01b031615613e3a576101385461010090046001600160a01b031663086efe05613dc36020880188614bba565b6020868101516040516001600160e01b031960e086901b1681526001600160a01b0390931660048401529089013560248301526001600160801b03166044820152606401600060405180830381600087803b158015613e2157600080fd5b505af1158015613e35573d6000803e3d6000fd5b505050505b613e4a60e0860160c08701615343565b15613e89576020830151613e646080870160608801615192565b6001600160401b0316613e779190615163565b6001600160801b031695945050505050565b506000949350505050565b600054610100900460ff166122085760405162461bcd60e51b8152600401610c7890615360565b600054610100900460ff16613ee25760405162461bcd60e51b8152600401610c7890615360565b60c9805460ff19169055565b600054610100900460ff166127985760405162461bcd60e51b8152600401610c7890615360565b600082815260656020526040808220600101805490849055905190918391839186917fbd79b86ffe0ab8e8776151514217cd7cacd52c909f66475c3af44e129f0b00ff9190a4505050565b6000610a96825490565b613f7482826118f9565b6110c657613f8181614291565b613f8c8360206142a3565b604051602001613f9d9291906153ab565b60408051601f198184030181529082905262461bcd60e51b8252610c7891600401615420565b613fcd82826118f9565b6110c65760008281526065602090815260408083206001600160a01b03851684529091529020805460ff191660011790556140053390565b6001600160a01b0316816001600160a01b0316837f2f8788117e7eff1d82e926ec794901d17c78024a50270940304540a733656f0d60405160405180910390a45050565b60006117df836001600160a01b03841661443e565b61406882826118f9565b156110c65760008281526065602090815260408083206001600160a01b0385168085529252808320805460ff1916905551339285917ff6391f5c32d9c69d2a47ea670b442974b53935d1edc7fd64eb21e047a839171b9190a45050565b60006117df836001600160a01b03841661448d565b60c95460ff166122085760405162461bcd60e51b815260206004820152601460248201527314185d5cd8589b194e881b9bdd081c185d5cd95960621b6044820152606401610c78565b602087015182906000906141419089906001600160801b0316615433565b6001600160a01b0380891660009081526101336020526040812054929350640100000000909204169080821561419c575050610132546001600160a01b0389166000908152610133602052604090205463ffffffff166141a5565b505061012e5460005b60006127106141b48487615433565b6141be9190615452565b905060006127106141cf8488615433565b6141d99190615452565b61012f549091506141f7908c906001600160a01b0316848a8c614580565b6142048b86838a8c614580565b6142258b8b83614214868b615474565b61421e9190615474565b8a8c614580565b5050505050505050505050505050565b600082600001828154811061424c5761424c614e81565b9060005260206000200154905092915050565b60608101516000906001600160a01b03161561427f578160600151610a96565b505061012d546001600160a01b031690565b6060610a966001600160a01b03831660145b606060006142b2836002615433565b6142bd906002614ff7565b6001600160401b038111156142d4576142d461548b565b6040519080825280601f01601f1916602001820160405280156142fe576020820181803683370190505b509050600360fc1b8160008151811061431957614319614e81565b60200101906001600160f81b031916908160001a905350600f60fb1b8160018151811061434857614348614e81565b60200101906001600160f81b031916908160001a905350600061436c846002615433565b614377906001614ff7565b90505b60018111156143ef576f181899199a1a9b1b9c1cb0b131b232b360811b85600f16601081106143ab576143ab614e81565b1a60f81b8282815181106143c1576143c1614e81565b60200101906001600160f81b031916908160001a90535060049490941c936143e8816154a1565b905061437a565b5083156117df5760405162461bcd60e51b815260206004820181905260248201527f537472696e67733a20686578206c656e67746820696e73756666696369656e746044820152606401610c78565b600081815260018301602052604081205461448557508154600181810184556000848152602080822090930184905584548482528286019093526040902091909155610a96565b506000610a96565b600081815260018301602052604081205480156145765760006144b1600183615474565b85549091506000906144c590600190615474565b905081811461452a5760008660000182815481106144e5576144e5614e81565b906000526020600020015490508087600001848154811061450857614508614e81565b6000918252602080832090910192909255918252600188019052604090208390555b855486908061453b5761453b6154b8565b600190038181906000526020600020016000905590558560010160008681526020019081526020016000206000905560019350505050610a96565b6000915050610a96565b8261458a57611f80565b8015614655576000846001600160a01b03168460405160006040518083038185875af1925050503d80600081146145dd576040519150601f19603f3d011682016040523d82523d6000602084013e6145e2565b606091505b505090508061464f5760405162461bcd60e51b815260206004820152603360248201527f41746c616e7469734d61726b6574706c6163653a2053656e64696e6720657468604482015272081dd85cc81b9bdd081cdd58d8d95cdcd99d5b606a1b6064820152608401610c78565b50611f80565b611f806001600160a01b038316868686611ccc846323b872dd60e01b85858560405160240161468693929190614eb8565b60408051601f198184030181529190526020810180516001600160e01b03166001600160e01b031990931692909217909152600061470d826040518060400160405280602081526020017f5361666545524332303a206c6f772d6c6576656c2063616c6c206661696c6564815250856001600160a01b031661478a9092919063ffffffff16565b805190915015611047578080602001905181019061472b9190614f1b565b6110475760405162461bcd60e51b815260206004820152602a60248201527f5361666545524332303a204552433230206f7065726174696f6e20646964206e6044820152691bdd081cdd58d8d9595960b21b6064820152608401610c78565b606061479984846000856147a1565b949350505050565b6060824710156148025760405162461bcd60e51b815260206004820152602660248201527f416464726573733a20696e73756666696369656e742062616c616e636520666f6044820152651c8818d85b1b60d21b6064820152608401610c78565b600080866001600160a01b0316858760405161481e91906154ce565b60006040518083038185875af1925050503d806000811461485b576040519150601f19603f3d011682016040523d82523d6000602084013e614860565b606091505b50915091506148718783838761487c565b979650505050505050565b606083156148e85782516148e1576001600160a01b0385163b6148e15760405162461bcd60e51b815260206004820152601d60248201527f416464726573733a2063616c6c20746f206e6f6e2d636f6e74726163740000006044820152606401610c78565b5081614799565b61479983838151156148fd5781518083602001fd5b8060405162461bcd60e51b8152600401610c789190615420565b60006020828403121561492957600080fd5b81356001600160e01b0319811681146117df57600080fd5b6001600160a01b03811681146110ea57600080fd5b80356001600160401b038116811461496d57600080fd5b919050565b80356001600160801b038116811461496d57600080fd5b60008060008060008060c087890312156149a257600080fd5b86356149ad81614941565b9550602087013594506149c260408801614956565b93506149d060608801614972565b92506149de60808801614956565b915060a08701356149ee81614941565b809150509295509295509295565b6000808284036060811215614a1057600080fd5b8335614a1b81614941565b92506040601f1982011215614a2f57600080fd5b506020830190509250929050565b600060208284031215614a4f57600080fd5b5035919050565b60008060408385031215614a6957600080fd5b823591506020830135614a7b81614941565b809150509250929050565b60008060208385031215614a9957600080fd5b82356001600160401b0380821115614ab057600080fd5b818501915085601f830112614ac457600080fd5b813581811115614ad357600080fd5b866020606083028501011115614ae857600080fd5b60209290920196919550909350505050565b600080600060608486031215614b0f57600080fd5b8335614b1a81614941565b9250602084013560038110614b2e57600080fd5b91506040840135614b3e81614941565b809150509250925092565b60008060408385031215614b5c57600080fd5b50508035926020909101359150565b600060c08284031215614b7d57600080fd5b50919050565b600080600060608486031215614b9857600080fd5b8335614ba381614941565b9250602084013591506040840135614b3e81614941565b600060208284031215614bcc57600080fd5b81356117df81614941565b60008060408385031215614bea57600080fd5b8235614bf581614941565b91506020830135614a7b81614941565b60008060208385031215614c1857600080fd5b82356001600160401b0380821115614c2f57600080fd5b818501915085601f830112614c4357600080fd5b813581811115614c5257600080fd5b86602060e083028501011115614ae857600080fd5b60008060408385031215614c7a57600080fd5b8235614c8581614941565b946020939093013593505050565b600080600060608486031215614ca857600080fd5b833592506020840135614b2e81614941565b600080600080600060a08688031215614cd257600080fd5b8535614cdd81614941565b9450614ceb60208701614956565b9350614cf960408701614972565b9250614d0760608701614956565b91506080860135614d1781614941565b809150509295509295909350565b634e487b7160e01b600052602160045260246000fd5b60038110614d4b57614d4b614d25565b9052565b60208101610a968284614d3b565b6001600160a01b039788168152958716602087015260408601949094526001600160401b0392831660608601526001600160801b039190911660808501521660a083015290911660c082015260e00190565b63ffffffff811681146110ea57600080fd5b600060208284031215614dd357600080fd5b81356117df81614daf565b8135614de981614daf565b63ffffffff8116905081548163ffffffff1982161783556020840135614e0e81614941565b6001600160c01b03199190911690911760209190911b640100000000600160c01b031617905550565b6020808252602a908201527f41746c616e7469734d61726b6574706c6163653a2042696464696e67206973206040820152696e6f742061637469766560b01b606082015260800190565b634e487b7160e01b600052603260045260246000fd5b600060208284031215614ea957600080fd5b8135600281106117df57600080fd5b6001600160a01b039384168152919092166020820152604081019190915260600190565b634e487b7160e01b600052601160045260246000fd5b6000600019821415614f0657614f06614edc565b5060010190565b80151581146110ea57600080fd5b600060208284031215614f2d57600080fd5b81516117df81614f0d565b6001600160a01b0384811682526060820190614f576020840186614d3b565b808416604084015250949350505050565b6020808252602b908201527f41746c616e7469734d61726b6574706c6163653a2063616e6e6f74207365742060408201526a307830206164647265737360a81b606082015260800190565b60208082526024908201527f41746c616e7469734d61726b6574706c6163653a206e6f74206c6973746564206040820152636974656d60e01b606082015260800190565b6000821982111561500a5761500a614edc565b500190565b6020808252602c908201527f41746c616e7469734d61726b6574706c6163653a20696e76616c69642065787060408201526b69726174696f6e2074696d6560a01b606082015260800190565b60208082526024908201527f41746c616e7469734d61726b6574706c6163653a2062656c6f77206d696e20706040820152637269636560e01b606082015260800190565b6000602082840312156150b157600080fd5b81516117df81614941565b60208082526026908201527f41746c616e7469734d61726b6574706c6163653a206974656d206e6f742061706040820152651c1c9bdd995960d21b606082015260800190565b60006020828403121561511457600080fd5b5051919050565b60208082526028908201527f41746c616e7469734d61726b6574706c6163653a2057726f6e67207061796d65604082015267373a103a37b5b2b760c11b606082015260800190565b60006001600160801b038083168185168183048111821515161561518957615189614edc565b02949350505050565b6000602082840312156151a457600080fd5b6117df82614956565b60208082526028908201527f41746c616e7469734d61726b6574706c6163653a206e6f7420656e6f756768206040820152677175616e7469747960c01b606082015260800190565b60006020828403121561520757600080fd5b6117df82614972565b60005b8381101561522b578181015183820152602001615213565b83811115611ccc5750506000910152565b60008151808452615254816020860160208601615210565b601f01601f19169290920160200192915050565b6001600160a01b03868116825285166020820152604081018490526001600160401b038316606082015260a0608082018190526000906148719083018461523c565b6001600160a01b03898116825288811660208301528781166040830152606082018790526001600160401b03861660808301526001600160801b03851660a0830152831660c082015261010081016002831061530857615308614d25565b8260e08301529998505050505050505050565b60006001600160401b038381169083168181101561533b5761533b614edc565b039392505050565b60006020828403121561535557600080fd5b81356117df81614f0d565b6020808252602b908201527f496e697469616c697a61626c653a20636f6e7472616374206973206e6f74206960408201526a6e697469616c697a696e6760a81b606082015260800190565b7f416363657373436f6e74726f6c3a206163636f756e74200000000000000000008152600083516153e3816017850160208801615210565b7001034b99036b4b9b9b4b733903937b6329607d1b6017918401918201528351615414816028840160208801615210565b01602801949350505050565b6020815260006117df602083018461523c565b600081600019048311821515161561544d5761544d614edc565b500290565b60008261546f57634e487b7160e01b600052601260045260246000fd5b500490565b60008282101561548657615486614edc565b500390565b634e487b7160e01b600052604160045260246000fd5b6000816154b0576154b0614edc565b506000190190565b634e487b7160e01b600052603160045260246000fd5b600082516154e0818460208701615210565b919091019291505056fe0f46c212def21095ebaf9256e273c47f4688aefccd8b05c4e5cf986500fa672aa264697066735822122044de20401319400589d09f2821568d6a52be9f8b1872da0a119507aa849e705464736f6c634300080b0033",
  "devdoc": {
    "details": "This contract does not store any tokens at any time, it's only collects details \"the sale\" and approvals         from both parties and preforms non-custodial transaction by transfering NFT from owner to buying and payment         token from buying to NFT owner.",
    "events": {
      "ItemCanceled(address,address,uint256)": {
        "params": {
          "nftAddress": "which token contract holds the formerly offered token",
          "seller": "former offeror of the item",
          "tokenId": "the identifier for the formerly offered token"
        }
      },
      "ItemListed(address,address,uint256,uint64,uint128,uint64,address)": {
        "params": {
          "expirationTime": "UNIX timestamp after when this listing expires",
          "nftAddress": "which token contract holds the offered token",
          "paymentToken": "the token used to list this item",
          "pricePerItem": "the price (in units of the paymentToken) for each token offered",
          "quantity": "how many of this token identifier are offered (or 1 for a ERC-721 token)",
          "seller": "the offeror of the item",
          "tokenId": "the identifier for the offered token"
        }
      },
      "ItemSold(address,address,address,uint256,uint64,uint128,address)": {
        "params": {
          "buyer": "the buyer of the item",
          "nftAddress": "which token contract holds the sold token",
          "paymentToken": "the payment token that was used to pay for this item",
          "pricePerItem": "the price (in units of the paymentToken) for each token sold",
          "quantity": "how many of this token identifier where sold (or 1 for a ERC-721 token)",
          "seller": "the offeror of the item",
          "tokenId": "the identifier for the sold token"
        }
      },
      "ItemUpdated(address,address,uint256,uint64,uint128,uint64,address)": {
        "params": {
          "expirationTime": "UNIX timestamp after when this listing expires",
          "nftAddress": "which token contract holds the offered token",
          "paymentToken": "the token used to list this item",
          "pricePerItem": "the price (in units of the paymentToken) for each token offered",
          "quantity": "how many of this token identifier are offered (or 1 for a ERC-721 token)",
          "seller": "the offeror of the item",
          "tokenId": "the identifier for the offered token"
        }
      },
      "TokenApprovalStatusUpdated(address,uint8,address)": {
        "params": {
          "nft": "which token contract was updated",
          "paymentToken": "the token that will be used for payments for this collection",
          "status": "the new status"
        }
      },
      "UpdateCollectionOwnerFee(address,address,uint256)": {
        "params": {
          "collection": "The collection",
          "fee": "The fee amount (in units of basis points)",
          "recipient": "The recipient of the fees. If the address is 0, the collection fees for this collection have been removed."
        }
      },
      "UpdateFee(uint256)": {
        "params": {
          "fee": "new fee amount (in units of basis points)"
        }
      },
      "UpdateFeeRecipient(address)": {
        "params": {
          "feeRecipient": "the new recipient to get fees"
        }
      },
      "UpdateFeeWithCollectionOwner(uint256)": {
        "params": {
          "fee": "new fee amount (in units of basis points)"
        }
      },
      "UpdateSalesTracker(address)": {
        "params": {
          "_priceTrackerAddress": "the new address to call for sales price tracking"
        }
      }
    },
    "kind": "dev",
    "methods": {
      "cancelListing(address,uint256)": {
        "params": {
          "_nftAddress": "which token contract holds the offered token",
          "_tokenId": "the identifier for the offered token"
        }
      },
      "constructor": {
        "custom:oz-upgrades-unsafe-allow": "constructor"
      },
      "createListing(address,uint256,uint64,uint128,uint64,address)": {
        "params": {
          "_expirationTime": "UNIX timestamp after when this listing expires",
          "_nftAddress": "which token contract holds the offered token",
          "_pricePerItem": "the price (in units of the paymentToken) for each token offered",
          "_quantity": "how many of this token identifier are offered (or 1 for a ERC-721 token)",
          "_tokenId": "the identifier for the offered token"
        }
      },
      "getRoleAdmin(bytes32)": {
        "details": "Returns the admin role that controls `role`. See {grantRole} and {revokeRole}. To change a role's admin, use {_setRoleAdmin}."
      },
      "getRoleMember(bytes32,uint256)": {
        "details": "Returns one of the accounts that have `role`. `index` must be a value between 0 and {getRoleMemberCount}, non-inclusive. Role bearers are not sorted in any particular way, and their ordering may change at any point. WARNING: When using {getRoleMember} and {getRoleMemberCount}, make sure you perform all queries on the same block. See the following https://forum.openzeppelin.com/t/iterating-over-elements-on-enumerableset-in-openzeppelin-contracts/2296[forum post] for more information."
      },
      "getRoleMemberCount(bytes32)": {
        "details": "Returns the number of accounts that have `role`. Can be used together with {getRoleMember} to enumerate all bearers of a role."
      },
      "grantRole(bytes32,address)": {
        "details": "Grants `role` to `account`. If `account` had not been already granted `role`, emits a {RoleGranted} event. Requirements: - the caller must have ``role``'s admin role. May emit a {RoleGranted} event."
      },
      "hasRole(bytes32,address)": {
        "details": "Returns `true` if `account` has been granted `role`."
      },
      "initialize(uint256,address,address)": {
        "details": "The initializer modifier ensures this is only called once, the owner should confirm this was properly         performed before publishing this contract address.",
        "params": {
          "_initialFee": "fee to be paid on each sale, in basis points",
          "_initialFeeRecipient": "wallet to collets fees",
          "_initialPaymentToken": "address of the token that is used for settlement"
        }
      },
      "pause()": {
        "details": "This is callable only by the owner. Canceling listings is not paused."
      },
      "paused()": {
        "details": "Returns true if the contract is paused, and false otherwise."
      },
      "renounceRole(bytes32,address)": {
        "details": "Revokes `role` from the calling account. Roles are often managed via {grantRole} and {revokeRole}: this function's purpose is to provide a mechanism for accounts to lose their privileges if they are compromised (such as when a trusted device is misplaced). If the calling account had been revoked `role`, emits a {RoleRevoked} event. Requirements: - the caller must be `account`. May emit a {RoleRevoked} event."
      },
      "revokeRole(bytes32,address)": {
        "details": "Revokes `role` from `account`. If `account` had been granted `role`, emits a {RoleRevoked} event. Requirements: - the caller must have ``role``'s admin role. May emit a {RoleRevoked} event."
      },
      "setCollectionOwnerFee(address,(uint32,address))": {
        "details": "This is callable only by the owner",
        "params": {
          "_collectionAddress": "The collection in question. This must be whitelisted.",
          "_collectionOwnerFee": "The fee and recipient for the collection. If the 0 address is passed as the recipient, collection specific fees will not be collected."
        }
      },
      "setFee(uint256,uint256)": {
        "details": "This is callable only by the owner. Both fees may not exceed MAX_FEE",
        "params": {
          "_newFee": "the updated fee amount is basis points"
        }
      },
      "setFeeRecipient(address)": {
        "details": "This is callable only by the owner.",
        "params": {
          "_newFeeRecipient": "the wallet to receive fees"
        }
      },
      "setPriceTracker(address)": {
        "details": "This is callable only by the owner.",
        "params": {
          "_priceTrackerAddress": "the wallet to receive fees"
        }
      },
      "setTokenApprovalStatus(address,uint8,address)": {
        "details": "This is callable only by the owner.",
        "params": {
          "_nft": "address of the NFT to be approved",
          "_status": "the kind of NFT approved, or NOT_APPROVED to remove approval"
        }
      },
      "supportsInterface(bytes4)": {
        "details": "See {IERC165-supportsInterface}."
      },
      "unpause()": {
        "details": "This is callable only by the owner."
      },
      "updateListing(address,uint256,uint64,uint128,uint64,address)": {
        "params": {
          "_newExpirationTime": "UNIX timestamp after when this listing expires",
          "_newPricePerItem": "the price (in units of the paymentToken) for each token offered",
          "_newQuantity": "how many of this token identifier are offered (or 1 for a ERC-721 token)",
          "_nftAddress": "which token contract holds the offered token",
          "_tokenId": "the identifier for the offered token"
        }
      }
    },
    "title": "Atlantis NFT marketplace v1.0.0",
    "version": 1
  },
  "userdoc": {
    "events": {
      "ItemCanceled(address,address,uint256)": {
        "notice": "An item is no longer listed for sale"
      },
      "ItemListed(address,address,uint256,uint64,uint128,uint64,address)": {
        "notice": "An item was listed for sale"
      },
      "ItemSold(address,address,address,uint256,uint64,uint128,address)": {
        "notice": "A listed item was sold"
      },
      "ItemUpdated(address,address,uint256,uint64,uint128,uint64,address)": {
        "notice": "An item listing was updated"
      },
      "TokenApprovalStatusUpdated(address,uint8,address)": {
        "notice": "The approval status for a token was updated"
      },
      "UpdateCollectionOwnerFee(address,address,uint256)": {
        "notice": "A collection's fees have changed"
      },
      "UpdateFee(uint256)": {
        "notice": "The fee portion was updated"
      },
      "UpdateFeeRecipient(address)": {
        "notice": "The fee recipient was updated"
      },
      "UpdateFeeWithCollectionOwner(uint256)": {
        "notice": "The fee portion was updated for collections that have a collection owner."
      },
      "UpdateSalesTracker(address)": {
        "notice": "The sales tracker contract was update"
      }
    },
    "kind": "user",
    "methods": {
      "ATLANTIS_MARKETPLACE_ADMIN_ROLE()": {
        "notice": "ATLANTIS_MARKETPLACE_ADMIN_ROLE role hash"
      },
      "BASIS_POINTS()": {
        "notice": "the denominator for portion calculation, i.e. how many basis points are in 100%"
      },
      "MAX_COLLECTION_FEE()": {
        "notice": "the maximum fee which the collection owner may set"
      },
      "MAX_FEE()": {
        "notice": "the maximum fee which the owner may set (in units of basis points)"
      },
      "MIN_PRICE()": {
        "notice": "the minimum price for which any item can be sold"
      },
      "areBidsActive()": {
        "notice": "Indicates if bid related functions are active."
      },
      "buyItems((address,uint256,address,uint64,uint128,address,bool)[])": {
        "notice": "Buy multiple listed items. You must authorize this marketplace with your payment token to completed the buy or purchase with eth if it is a weth collection."
      },
      "cancelListing(address,uint256)": {
        "notice": "Remove an item listing"
      },
      "collectionBids(address,address)": {
        "notice": "mapping for collection level bids (721 only): nftAddress => offeror"
      },
      "collectionToCollectionOwnerFee(address)": {
        "notice": "Maps the collection address to the fees which the collection owner collects."
      },
      "collectionToPaymentToken(address)": {
        "notice": "Maps the collection address to the payment token that will be used for purchasing. If the address is the zero address, it will use the default paymentToken."
      },
      "createListing(address,uint256,uint64,uint128,uint64,address)": {
        "notice": "Creates an item listing. You must authorize this marketplace with your item's token contract to list."
      },
      "createOrUpdateTokenBid(address,uint256,uint64,uint128,uint64,address)": {
        "notice": "Creates a bid for a particular token."
      },
      "fee()": {
        "notice": "fee portion (in basis points) for each sale, (e.g. a value of 100 is 100/10000 = 1%). This is the fee if no collection owner fee is set."
      },
      "feeReceipient()": {
        "notice": "address that receives fees"
      },
      "feeWithCollectionOwner()": {
        "notice": "fee portion (in basis points) for each sale. This is used if a separate fee has been set for the collection owner."
      },
      "initialize(uint256,address,address)": {
        "notice": "Perform initial contract setup"
      },
      "listings(address,uint256,address)": {
        "notice": "mapping for listings, maps: nftAddress => tokenId => offeror"
      },
      "pause()": {
        "notice": "Pauses the marketplace, creatisgn and executing listings is paused"
      },
      "paymentToken()": {
        "notice": "the default token that is used for marketplace sales and fee payments. Can be overridden by collectionToTokenAddress."
      },
      "priceTrackerAddress()": {
        "notice": "Address of the contract that tracks sales and prices of collections."
      },
      "setCollectionOwnerFee(address,(uint32,address))": {
        "notice": "Updates the fee amount which is collected during sales fro a specific collection"
      },
      "setFee(uint256,uint256)": {
        "notice": "Updates the fee amount which is collected during sales, for both collections with and without owner specific fees."
      },
      "setFeeRecipient(address)": {
        "notice": "Updates the fee recipient which receives fees during sales"
      },
      "setPriceTracker(address)": {
        "notice": "Updates the fee recipient which receives fees during sales"
      },
      "setTokenApprovalStatus(address,uint8,address)": {
        "notice": "Sets a token as an approved kind of NFT or as ineligible for trading"
      },
      "tokenApprovals(address)": {
        "notice": "NFTs which the owner has approved to be sold on the marketplace, maps: nftAddress => status"
      },
      "tokenBids(address,uint256,address)": {
        "notice": "mapping for token bids (721/1155): nftAddress => tokneId => offeror"
      },
      "unpause()": {
        "notice": "Unpauses the marketplace, all functionality is restored"
      },
      "updateListing(address,uint256,uint64,uint128,uint64,address)": {
        "notice": "Updates an item listing"
      },
      "weth()": {
        "notice": "The address for weth."
      }
    },
    "notice": "This contract allows you to buy and sell NFTs from token contracts that are approved by the contract owner.",
    "version": 1
  },
  "storageLayout": {
    "storage": [
      {
        "astId": 720,
        "contract": "contracts/AtlantisMarketplace.sol:AtlantisMarketplace",
        "label": "_initialized",
        "offset": 0,
        "slot": "0",
        "type": "t_uint8"
      },
      {
        "astId": 723,
        "contract": "contracts/AtlantisMarketplace.sol:AtlantisMarketplace",
        "label": "_initializing",
        "offset": 1,
        "slot": "0",
        "type": "t_bool"
      },
      {
        "astId": 2040,
        "contract": "contracts/AtlantisMarketplace.sol:AtlantisMarketplace",
        "label": "__gap",
        "offset": 0,
        "slot": "1",
        "type": "t_array(t_uint256)50_storage"
      },
      {
        "astId": 2259,
        "contract": "contracts/AtlantisMarketplace.sol:AtlantisMarketplace",
        "label": "__gap",
        "offset": 0,
        "slot": "51",
        "type": "t_array(t_uint256)50_storage"
      },
      {
        "astId": 184,
        "contract": "contracts/AtlantisMarketplace.sol:AtlantisMarketplace",
        "label": "_roles",
        "offset": 0,
        "slot": "101",
        "type": "t_mapping(t_bytes32,t_struct(RoleData)179_storage)"
      },
      {
        "astId": 479,
        "contract": "contracts/AtlantisMarketplace.sol:AtlantisMarketplace",
        "label": "__gap",
        "offset": 0,
        "slot": "102",
        "type": "t_array(t_uint256)49_storage"
      },
      {
        "astId": 33,
        "contract": "contracts/AtlantisMarketplace.sol:AtlantisMarketplace",
        "label": "_roleMembers",
        "offset": 0,
        "slot": "151",
        "type": "t_mapping(t_bytes32,t_struct(AddressSet)3463_storage)"
      },
      {
        "astId": 143,
        "contract": "contracts/AtlantisMarketplace.sol:AtlantisMarketplace",
        "label": "__gap",
        "offset": 0,
        "slot": "152",
        "type": "t_array(t_uint256)49_storage"
      },
      {
        "astId": 903,
        "contract": "contracts/AtlantisMarketplace.sol:AtlantisMarketplace",
        "label": "_paused",
        "offset": 0,
        "slot": "201",
        "type": "t_bool"
      },
      {
        "astId": 1008,
        "contract": "contracts/AtlantisMarketplace.sol:AtlantisMarketplace",
        "label": "__gap",
        "offset": 0,
        "slot": "202",
        "type": "t_array(t_uint256)49_storage"
      },
      {
        "astId": 1023,
        "contract": "contracts/AtlantisMarketplace.sol:AtlantisMarketplace",
        "label": "_status",
        "offset": 0,
        "slot": "251",
        "type": "t_uint256"
      },
      {
        "astId": 1081,
        "contract": "contracts/AtlantisMarketplace.sol:AtlantisMarketplace",
        "label": "__gap",
        "offset": 0,
        "slot": "252",
        "type": "t_array(t_uint256)49_storage"
      },
      {
        "astId": 5164,
        "contract": "contracts/AtlantisMarketplace.sol:AtlantisMarketplace",
        "label": "paymentToken",
        "offset": 0,
        "slot": "301",
        "type": "t_contract(IERC20Upgradeable)1282"
      },
      {
        "astId": 5167,
        "contract": "contracts/AtlantisMarketplace.sol:AtlantisMarketplace",
        "label": "fee",
        "offset": 0,
        "slot": "302",
        "type": "t_uint256"
      },
      {
        "astId": 5170,
        "contract": "contracts/AtlantisMarketplace.sol:AtlantisMarketplace",
        "label": "feeReceipient",
        "offset": 0,
        "slot": "303",
        "type": "t_address"
      },
      {
        "astId": 5180,
        "contract": "contracts/AtlantisMarketplace.sol:AtlantisMarketplace",
        "label": "listings",
        "offset": 0,
        "slot": "304",
        "type": "t_mapping(t_address,t_mapping(t_uint256,t_mapping(t_address,t_struct(ListingOrBid)5073_storage)))"
      },
      {
        "astId": 5186,
        "contract": "contracts/AtlantisMarketplace.sol:AtlantisMarketplace",
        "label": "tokenApprovals",
        "offset": 0,
        "slot": "305",
        "type": "t_mapping(t_address,t_enum(TokenApprovalStatus)5131)"
      },
      {
        "astId": 5189,
        "contract": "contracts/AtlantisMarketplace.sol:AtlantisMarketplace",
        "label": "feeWithCollectionOwner",
        "offset": 0,
        "slot": "306",
        "type": "t_uint256"
      },
      {
        "astId": 5195,
        "contract": "contracts/AtlantisMarketplace.sol:AtlantisMarketplace",
        "label": "collectionToCollectionOwnerFee",
        "offset": 0,
        "slot": "307",
        "type": "t_mapping(t_address,t_struct(CollectionOwnerFee)5080_storage)"
      },
      {
        "astId": 5200,
        "contract": "contracts/AtlantisMarketplace.sol:AtlantisMarketplace",
        "label": "collectionToPaymentToken",
        "offset": 0,
        "slot": "308",
        "type": "t_mapping(t_address,t_address)"
      },
      {
        "astId": 5204,
        "contract": "contracts/AtlantisMarketplace.sol:AtlantisMarketplace",
        "label": "weth",
        "offset": 0,
        "slot": "309",
        "type": "t_contract(IERC20Upgradeable)1282"
      },
      {
        "astId": 5214,
        "contract": "contracts/AtlantisMarketplace.sol:AtlantisMarketplace",
        "label": "tokenBids",
        "offset": 0,
        "slot": "310",
        "type": "t_mapping(t_address,t_mapping(t_uint256,t_mapping(t_address,t_struct(ListingOrBid)5073_storage)))"
      },
      {
        "astId": 5222,
        "contract": "contracts/AtlantisMarketplace.sol:AtlantisMarketplace",
        "label": "collectionBids",
        "offset": 0,
        "slot": "311",
        "type": "t_mapping(t_address,t_mapping(t_address,t_struct(ListingOrBid)5073_storage))"
      },
      {
        "astId": 5225,
        "contract": "contracts/AtlantisMarketplace.sol:AtlantisMarketplace",
        "label": "areBidsActive",
        "offset": 0,
        "slot": "312",
        "type": "t_bool"
      },
      {
        "astId": 5228,
        "contract": "contracts/AtlantisMarketplace.sol:AtlantisMarketplace",
        "label": "priceTrackerAddress",
        "offset": 1,
        "slot": "312",
        "type": "t_address"
      }
    ],
    "types": {
      "t_address": {
        "encoding": "inplace",
        "label": "address",
        "numberOfBytes": "20"
      },
      "t_array(t_bytes32)dyn_storage": {
        "base": "t_bytes32",
        "encoding": "dynamic_array",
        "label": "bytes32[]",
        "numberOfBytes": "32"
      },
      "t_array(t_uint256)49_storage": {
        "base": "t_uint256",
        "encoding": "inplace",
        "label": "uint256[49]",
        "numberOfBytes": "1568"
      },
      "t_array(t_uint256)50_storage": {
        "base": "t_uint256",
        "encoding": "inplace",
        "label": "uint256[50]",
        "numberOfBytes": "1600"
      },
      "t_bool": {
        "encoding": "inplace",
        "label": "bool",
        "numberOfBytes": "1"
      },
      "t_bytes32": {
        "encoding": "inplace",
        "label": "bytes32",
        "numberOfBytes": "32"
      },
      "t_contract(IERC20Upgradeable)1282": {
        "encoding": "inplace",
        "label": "contract IERC20Upgradeable",
        "numberOfBytes": "20"
      },
      "t_enum(TokenApprovalStatus)5131": {
        "encoding": "inplace",
        "label": "enum AtlantisMarketplace.TokenApprovalStatus",
        "numberOfBytes": "1"
      },
      "t_mapping(t_address,t_address)": {
        "encoding": "mapping",
        "key": "t_address",
        "label": "mapping(address => address)",
        "numberOfBytes": "32",
        "value": "t_address"
      },
      "t_mapping(t_address,t_bool)": {
        "encoding": "mapping",
        "key": "t_address",
        "label": "mapping(address => bool)",
        "numberOfBytes": "32",
        "value": "t_bool"
      },
      "t_mapping(t_address,t_enum(TokenApprovalStatus)5131)": {
        "encoding": "mapping",
        "key": "t_address",
        "label": "mapping(address => enum AtlantisMarketplace.TokenApprovalStatus)",
        "numberOfBytes": "32",
        "value": "t_enum(TokenApprovalStatus)5131"
      },
      "t_mapping(t_address,t_mapping(t_address,t_struct(ListingOrBid)5073_storage))": {
        "encoding": "mapping",
        "key": "t_address",
        "label": "mapping(address => mapping(address => struct AtlantisMarketplace.ListingOrBid))",
        "numberOfBytes": "32",
        "value": "t_mapping(t_address,t_struct(ListingOrBid)5073_storage)"
      },
      "t_mapping(t_address,t_mapping(t_uint256,t_mapping(t_address,t_struct(ListingOrBid)5073_storage)))": {
        "encoding": "mapping",
        "key": "t_address",
        "label": "mapping(address => mapping(uint256 => mapping(address => struct AtlantisMarketplace.ListingOrBid)))",
        "numberOfBytes": "32",
        "value": "t_mapping(t_uint256,t_mapping(t_address,t_struct(ListingOrBid)5073_storage))"
      },
      "t_mapping(t_address,t_struct(CollectionOwnerFee)5080_storage)": {
        "encoding": "mapping",
        "key": "t_address",
        "label": "mapping(address => struct AtlantisMarketplace.CollectionOwnerFee)",
        "numberOfBytes": "32",
        "value": "t_struct(CollectionOwnerFee)5080_storage"
      },
      "t_mapping(t_address,t_struct(ListingOrBid)5073_storage)": {
        "encoding": "mapping",
        "key": "t_address",
        "label": "mapping(address => struct AtlantisMarketplace.ListingOrBid)",
        "numberOfBytes": "32",
        "value": "t_struct(ListingOrBid)5073_storage"
      },
      "t_mapping(t_bytes32,t_struct(AddressSet)3463_storage)": {
        "encoding": "mapping",
        "key": "t_bytes32",
        "label": "mapping(bytes32 => struct EnumerableSetUpgradeable.AddressSet)",
        "numberOfBytes": "32",
        "value": "t_struct(AddressSet)3463_storage"
      },
      "t_mapping(t_bytes32,t_struct(RoleData)179_storage)": {
        "encoding": "mapping",
        "key": "t_bytes32",
        "label": "mapping(bytes32 => struct AccessControlUpgradeable.RoleData)",
        "numberOfBytes": "32",
        "value": "t_struct(RoleData)179_storage"
      },
      "t_mapping(t_bytes32,t_uint256)": {
        "encoding": "mapping",
        "key": "t_bytes32",
        "label": "mapping(bytes32 => uint256)",
        "numberOfBytes": "32",
        "value": "t_uint256"
      },
      "t_mapping(t_uint256,t_mapping(t_address,t_struct(ListingOrBid)5073_storage))": {
        "encoding": "mapping",
        "key": "t_uint256",
        "label": "mapping(uint256 => mapping(address => struct AtlantisMarketplace.ListingOrBid))",
        "numberOfBytes": "32",
        "value": "t_mapping(t_address,t_struct(ListingOrBid)5073_storage)"
      },
      "t_struct(AddressSet)3463_storage": {
        "encoding": "inplace",
        "label": "struct EnumerableSetUpgradeable.AddressSet",
        "members": [
          {
            "astId": 3462,
            "contract": "contracts/AtlantisMarketplace.sol:AtlantisMarketplace",
            "label": "_inner",
            "offset": 0,
            "slot": "0",
            "type": "t_struct(Set)3148_storage"
          }
        ],
        "numberOfBytes": "64"
      },
      "t_struct(CollectionOwnerFee)5080_storage": {
        "encoding": "inplace",
        "label": "struct AtlantisMarketplace.CollectionOwnerFee",
        "members": [
          {
            "astId": 5076,
            "contract": "contracts/AtlantisMarketplace.sol:AtlantisMarketplace",
            "label": "fee",
            "offset": 0,
            "slot": "0",
            "type": "t_uint32"
          },
          {
            "astId": 5079,
            "contract": "contracts/AtlantisMarketplace.sol:AtlantisMarketplace",
            "label": "recipient",
            "offset": 4,
            "slot": "0",
            "type": "t_address"
          }
        ],
        "numberOfBytes": "32"
      },
      "t_struct(ListingOrBid)5073_storage": {
        "encoding": "inplace",
        "label": "struct AtlantisMarketplace.ListingOrBid",
        "members": [
          {
            "astId": 5063,
            "contract": "contracts/AtlantisMarketplace.sol:AtlantisMarketplace",
            "label": "quantity",
            "offset": 0,
            "slot": "0",
            "type": "t_uint64"
          },
          {
            "astId": 5066,
            "contract": "contracts/AtlantisMarketplace.sol:AtlantisMarketplace",
            "label": "pricePerItem",
            "offset": 8,
            "slot": "0",
            "type": "t_uint128"
          },
          {
            "astId": 5069,
            "contract": "contracts/AtlantisMarketplace.sol:AtlantisMarketplace",
            "label": "expirationTime",
            "offset": 24,
            "slot": "0",
            "type": "t_uint64"
          },
          {
            "astId": 5072,
            "contract": "contracts/AtlantisMarketplace.sol:AtlantisMarketplace",
            "label": "paymentTokenAddress",
            "offset": 0,
            "slot": "1",
            "type": "t_address"
          }
        ],
        "numberOfBytes": "64"
      },
      "t_struct(RoleData)179_storage": {
        "encoding": "inplace",
        "label": "struct AccessControlUpgradeable.RoleData",
        "members": [
          {
            "astId": 176,
            "contract": "contracts/AtlantisMarketplace.sol:AtlantisMarketplace",
            "label": "members",
            "offset": 0,
            "slot": "0",
            "type": "t_mapping(t_address,t_bool)"
          },
          {
            "astId": 178,
            "contract": "contracts/AtlantisMarketplace.sol:AtlantisMarketplace",
            "label": "adminRole",
            "offset": 0,
            "slot": "1",
            "type": "t_bytes32"
          }
        ],
        "numberOfBytes": "64"
      },
      "t_struct(Set)3148_storage": {
        "encoding": "inplace",
        "label": "struct EnumerableSetUpgradeable.Set",
        "members": [
          {
            "astId": 3143,
            "contract": "contracts/AtlantisMarketplace.sol:AtlantisMarketplace",
            "label": "_values",
            "offset": 0,
            "slot": "0",
            "type": "t_array(t_bytes32)dyn_storage"
          },
          {
            "astId": 3147,
            "contract": "contracts/AtlantisMarketplace.sol:AtlantisMarketplace",
            "label": "_indexes",
            "offset": 0,
            "slot": "1",
            "type": "t_mapping(t_bytes32,t_uint256)"
          }
        ],
        "numberOfBytes": "64"
      },
      "t_uint128": {
        "encoding": "inplace",
        "label": "uint128",
        "numberOfBytes": "16"
      },
      "t_uint256": {
        "encoding": "inplace",
        "label": "uint256",
        "numberOfBytes": "32"
      },
      "t_uint32": {
        "encoding": "inplace",
        "label": "uint32",
        "numberOfBytes": "4"
      },
      "t_uint64": {
        "encoding": "inplace",
        "label": "uint64",
        "numberOfBytes": "8"
      },
      "t_uint8": {
        "encoding": "inplace",
        "label": "uint8",
        "numberOfBytes": "1"
      }
    }
  }
}