{
  "address": "0x5156179cbD6514F63Aa2e2f830fA4c5Ae209b6A9",
  "abi": [
    {
      "inputs": [
        {
          "internalType": "address",
          "name": "_owner",
          "type": "address"
        },
        {
          "internalType": "string",
          "name": "__baseURI",
          "type": "string"
        },
        {
          "internalType": "contract AtlantisAddressRegistry",
          "name": "_addressRegistry",
          "type": "address"
        }
      ],
      "stateMutability": "nonpayable",
      "type": "constructor"
    },
    {
      "inputs": [],
      "name": "NotOwner",
      "type": "error"
    },
    {
      "inputs": [],
      "name": "WrongElement",
      "type": "error"
    },
    {
      "anonymous": false,
      "inputs": [
        {
          "indexed": true,
          "internalType": "address",
          "name": "newAddressRegistry",
          "type": "address"
        }
      ],
      "name": "AddressRegistryUpdated",
      "type": "event"
    },
    {
      "anonymous": false,
      "inputs": [
        {
          "indexed": true,
          "internalType": "address",
          "name": "owner",
          "type": "address"
        },
        {
          "indexed": true,
          "internalType": "address",
          "name": "approved",
          "type": "address"
        },
        {
          "indexed": true,
          "internalType": "uint256",
          "name": "tokenId",
          "type": "uint256"
        }
      ],
      "name": "Approval",
      "type": "event"
    },
    {
      "anonymous": false,
      "inputs": [
        {
          "indexed": true,
          "internalType": "address",
          "name": "owner",
          "type": "address"
        },
        {
          "indexed": true,
          "internalType": "address",
          "name": "operator",
          "type": "address"
        },
        {
          "indexed": false,
          "internalType": "bool",
          "name": "approved",
          "type": "bool"
        }
      ],
      "name": "ApprovalForAll",
      "type": "event"
    },
    {
      "anonymous": false,
      "inputs": [
        {
          "indexed": true,
          "internalType": "string",
          "name": "newBaseURI",
          "type": "string"
        }
      ],
      "name": "BaseURIUpdated",
      "type": "event"
    },
    {
      "anonymous": false,
      "inputs": [
        {
          "indexed": true,
          "internalType": "uint256",
          "name": "spaceshipId",
          "type": "uint256"
        },
        {
          "indexed": false,
          "internalType": "string",
          "name": "fireEquipmentString",
          "type": "string"
        },
        {
          "indexed": false,
          "internalType": "string",
          "name": "lightningEquipmentString",
          "type": "string"
        },
        {
          "indexed": false,
          "internalType": "string",
          "name": "steelEquipmentString",
          "type": "string"
        },
        {
          "indexed": false,
          "internalType": "uint256",
          "name": "speed",
          "type": "uint256"
        }
      ],
      "name": "EquipmentModified",
      "type": "event"
    },
    {
      "anonymous": false,
      "inputs": [
        {
          "indexed": true,
          "internalType": "address",
          "name": "previousOwner",
          "type": "address"
        },
        {
          "indexed": true,
          "internalType": "address",
          "name": "newOwner",
          "type": "address"
        }
      ],
      "name": "OwnershipTransferred",
      "type": "event"
    },
    {
      "anonymous": false,
      "inputs": [
        {
          "indexed": true,
          "internalType": "address",
          "name": "to",
          "type": "address"
        }
      ],
      "name": "PublicMint",
      "type": "event"
    },
    {
      "anonymous": false,
      "inputs": [
        {
          "indexed": true,
          "internalType": "uint256",
          "name": "spaceshipId",
          "type": "uint256"
        },
        {
          "indexed": false,
          "internalType": "string",
          "name": "rarityString",
          "type": "string"
        },
        {
          "indexed": false,
          "internalType": "uint256",
          "name": "speed",
          "type": "uint256"
        }
      ],
      "name": "SpaceshipRaritySet",
      "type": "event"
    },
    {
      "anonymous": false,
      "inputs": [
        {
          "indexed": true,
          "internalType": "address",
          "name": "from",
          "type": "address"
        },
        {
          "indexed": true,
          "internalType": "address",
          "name": "to",
          "type": "address"
        },
        {
          "indexed": true,
          "internalType": "uint256",
          "name": "tokenId",
          "type": "uint256"
        }
      ],
      "name": "Transfer",
      "type": "event"
    },
    {
      "inputs": [],
      "name": "addressRegistry",
      "outputs": [
        {
          "internalType": "contract AtlantisAddressRegistry",
          "name": "",
          "type": "address"
        }
      ],
      "stateMutability": "view",
      "type": "function"
    },
    {
      "inputs": [
        {
          "internalType": "address[]",
          "name": "_addresses",
          "type": "address[]"
        },
        {
          "internalType": "uint8[]",
          "name": "_rarities",
          "type": "uint8[]"
        }
      ],
      "name": "airdrop",
      "outputs": [],
      "stateMutability": "nonpayable",
      "type": "function"
    },
    {
      "inputs": [
        {
          "internalType": "address",
          "name": "to",
          "type": "address"
        },
        {
          "internalType": "uint256",
          "name": "tokenId",
          "type": "uint256"
        }
      ],
      "name": "approve",
      "outputs": [],
      "stateMutability": "nonpayable",
      "type": "function"
    },
    {
      "inputs": [
        {
          "internalType": "address",
          "name": "owner",
          "type": "address"
        }
      ],
      "name": "balanceOf",
      "outputs": [
        {
          "internalType": "uint256",
          "name": "",
          "type": "uint256"
        }
      ],
      "stateMutability": "view",
      "type": "function"
    },
    {
      "inputs": [],
      "name": "baseURI",
      "outputs": [
        {
          "internalType": "string",
          "name": "",
          "type": "string"
        }
      ],
      "stateMutability": "view",
      "type": "function"
    },
    {
      "inputs": [],
      "name": "currentIndex",
      "outputs": [
        {
          "internalType": "uint256",
          "name": "",
          "type": "uint256"
        }
      ],
      "stateMutability": "view",
      "type": "function"
    },
    {
      "inputs": [],
      "name": "currentSupply",
      "outputs": [
        {
          "internalType": "uint256",
          "name": "",
          "type": "uint256"
        }
      ],
      "stateMutability": "view",
      "type": "function"
    },
    {
      "inputs": [
        {
          "internalType": "uint256",
          "name": "tokenId",
          "type": "uint256"
        }
      ],
      "name": "exists",
      "outputs": [
        {
          "internalType": "bool",
          "name": "",
          "type": "bool"
        }
      ],
      "stateMutability": "view",
      "type": "function"
    },
    {
      "inputs": [
        {
          "internalType": "uint256",
          "name": "tokenId",
          "type": "uint256"
        }
      ],
      "name": "getApproved",
      "outputs": [
        {
          "internalType": "address",
          "name": "",
          "type": "address"
        }
      ],
      "stateMutability": "view",
      "type": "function"
    },
    {
      "inputs": [
        {
          "internalType": "enum AtlantisLib.Rarity",
          "name": "_rarity",
          "type": "uint8"
        },
        {
          "internalType": "uint8",
          "name": "_lightningLevel",
          "type": "uint8"
        },
        {
          "internalType": "uint8",
          "name": "_fireLevel",
          "type": "uint8"
        },
        {
          "internalType": "uint8",
          "name": "_steelLevel",
          "type": "uint8"
        }
      ],
      "name": "getImageURI",
      "outputs": [
        {
          "internalType": "string",
          "name": "",
          "type": "string"
        }
      ],
      "stateMutability": "view",
      "type": "function"
    },
    {
      "inputs": [
        {
          "internalType": "uint256",
          "name": "_tokenId",
          "type": "uint256"
        }
      ],
      "name": "getRarity",
      "outputs": [
        {
          "internalType": "enum AtlantisLib.Rarity",
          "name": "",
          "type": "uint8"
        }
      ],
      "stateMutability": "view",
      "type": "function"
    },
    {
      "inputs": [
        {
          "internalType": "uint256",
          "name": "_tokenId",
          "type": "uint256"
        }
      ],
      "name": "getSpaceship",
      "outputs": [
        {
          "components": [
            {
              "components": [
                {
                  "internalType": "enum AtlantisLib.Rarity",
                  "name": "rarity",
                  "type": "uint8"
                },
                {
                  "internalType": "uint256",
                  "name": "fireEquipmentId",
                  "type": "uint256"
                },
                {
                  "internalType": "uint256",
                  "name": "lightningEquipmentId",
                  "type": "uint256"
                },
                {
                  "internalType": "uint256",
                  "name": "steelEquipmentId",
                  "type": "uint256"
                }
              ],
              "internalType": "struct IAtlantisSpaceships.Spaceship",
              "name": "spaceship",
              "type": "tuple"
            },
            {
              "internalType": "uint256",
              "name": "speed",
              "type": "uint256"
            }
          ],
          "internalType": "struct IAtlantisSpaceships.SpaceshipData",
          "name": "",
          "type": "tuple"
        }
      ],
      "stateMutability": "view",
      "type": "function"
    },
    {
      "inputs": [
        {
          "internalType": "uint256",
          "name": "_tokenId",
          "type": "uint256"
        }
      ],
      "name": "getSpeed",
      "outputs": [
        {
          "internalType": "uint256",
          "name": "",
          "type": "uint256"
        }
      ],
      "stateMutability": "view",
      "type": "function"
    },
    {
      "inputs": [
        {
          "internalType": "address",
          "name": "owner",
          "type": "address"
        },
        {
          "internalType": "address",
          "name": "operator",
          "type": "address"
        }
      ],
      "name": "isApprovedForAll",
      "outputs": [
        {
          "internalType": "bool",
          "name": "",
          "type": "bool"
        }
      ],
      "stateMutability": "view",
      "type": "function"
    },
    {
      "inputs": [
        {
          "internalType": "uint256",
          "name": "_spaceshipId",
          "type": "uint256"
        },
        {
          "internalType": "uint256",
          "name": "_fireEquipmentId",
          "type": "uint256"
        },
        {
          "internalType": "uint256",
          "name": "_lightningEquipmentId",
          "type": "uint256"
        },
        {
          "internalType": "uint256",
          "name": "_steelEquipmentId",
          "type": "uint256"
        }
      ],
      "name": "modifyEquipment",
      "outputs": [],
      "stateMutability": "nonpayable",
      "type": "function"
    },
    {
      "inputs": [],
      "name": "name",
      "outputs": [
        {
          "internalType": "string",
          "name": "",
          "type": "string"
        }
      ],
      "stateMutability": "view",
      "type": "function"
    },
    {
      "inputs": [
        {
          "internalType": "address",
          "name": "operator",
          "type": "address"
        },
        {
          "internalType": "address",
          "name": "from",
          "type": "address"
        },
        {
          "internalType": "uint256[]",
          "name": "ids",
          "type": "uint256[]"
        },
        {
          "internalType": "uint256[]",
          "name": "values",
          "type": "uint256[]"
        },
        {
          "internalType": "bytes",
          "name": "data",
          "type": "bytes"
        }
      ],
      "name": "onERC1155BatchReceived",
      "outputs": [
        {
          "internalType": "bytes4",
          "name": "",
          "type": "bytes4"
        }
      ],
      "stateMutability": "pure",
      "type": "function"
    },
    {
      "inputs": [
        {
          "internalType": "address",
          "name": "operator",
          "type": "address"
        },
        {
          "internalType": "address",
          "name": "from",
          "type": "address"
        },
        {
          "internalType": "uint256",
          "name": "id",
          "type": "uint256"
        },
        {
          "internalType": "uint256",
          "name": "value",
          "type": "uint256"
        },
        {
          "internalType": "bytes",
          "name": "data",
          "type": "bytes"
        }
      ],
      "name": "onERC1155Received",
      "outputs": [
        {
          "internalType": "bytes4",
          "name": "",
          "type": "bytes4"
        }
      ],
      "stateMutability": "pure",
      "type": "function"
    },
    {
      "inputs": [],
      "name": "owner",
      "outputs": [
        {
          "internalType": "address",
          "name": "",
          "type": "address"
        }
      ],
      "stateMutability": "view",
      "type": "function"
    },
    {
      "inputs": [
        {
          "internalType": "uint256",
          "name": "tokenId",
          "type": "uint256"
        }
      ],
      "name": "ownerOf",
      "outputs": [
        {
          "internalType": "address",
          "name": "",
          "type": "address"
        }
      ],
      "stateMutability": "view",
      "type": "function"
    },
    {
      "inputs": [],
      "name": "renounceOwnership",
      "outputs": [],
      "stateMutability": "nonpayable",
      "type": "function"
    },
    {
      "inputs": [
        {
          "internalType": "address",
          "name": "from",
          "type": "address"
        },
        {
          "internalType": "address",
          "name": "to",
          "type": "address"
        },
        {
          "internalType": "uint256",
          "name": "tokenId",
          "type": "uint256"
        }
      ],
      "name": "safeTransferFrom",
      "outputs": [],
      "stateMutability": "nonpayable",
      "type": "function"
    },
    {
      "inputs": [
        {
          "internalType": "address",
          "name": "from",
          "type": "address"
        },
        {
          "internalType": "address",
          "name": "to",
          "type": "address"
        },
        {
          "internalType": "uint256",
          "name": "tokenId",
          "type": "uint256"
        },
        {
          "internalType": "bytes",
          "name": "data",
          "type": "bytes"
        }
      ],
      "name": "safeTransferFrom",
      "outputs": [],
      "stateMutability": "nonpayable",
      "type": "function"
    },
    {
      "inputs": [
        {
          "internalType": "contract AtlantisAddressRegistry",
          "name": "_addressRegistry",
          "type": "address"
        }
      ],
      "name": "setAddressRegistry",
      "outputs": [],
      "stateMutability": "nonpayable",
      "type": "function"
    },
    {
      "inputs": [
        {
          "internalType": "address",
          "name": "operator",
          "type": "address"
        },
        {
          "internalType": "bool",
          "name": "approved",
          "type": "bool"
        }
      ],
      "name": "setApprovalForAll",
      "outputs": [],
      "stateMutability": "nonpayable",
      "type": "function"
    },
    {
      "inputs": [
        {
          "internalType": "string",
          "name": "_newBaseURI",
          "type": "string"
        }
      ],
      "name": "setBaseURI",
      "outputs": [],
      "stateMutability": "nonpayable",
      "type": "function"
    },
    {
      "inputs": [
        {
          "internalType": "uint256",
          "name": "",
          "type": "uint256"
        }
      ],
      "name": "spaceships",
      "outputs": [
        {
          "internalType": "enum AtlantisLib.Rarity",
          "name": "rarity",
          "type": "uint8"
        },
        {
          "internalType": "uint256",
          "name": "fireEquipmentId",
          "type": "uint256"
        },
        {
          "internalType": "uint256",
          "name": "lightningEquipmentId",
          "type": "uint256"
        },
        {
          "internalType": "uint256",
          "name": "steelEquipmentId",
          "type": "uint256"
        }
      ],
      "stateMutability": "view",
      "type": "function"
    },
    {
      "inputs": [
        {
          "internalType": "bytes4",
          "name": "interfaceId",
          "type": "bytes4"
        }
      ],
      "name": "supportsInterface",
      "outputs": [
        {
          "internalType": "bool",
          "name": "",
          "type": "bool"
        }
      ],
      "stateMutability": "view",
      "type": "function"
    },
    {
      "inputs": [],
      "name": "symbol",
      "outputs": [
        {
          "internalType": "string",
          "name": "",
          "type": "string"
        }
      ],
      "stateMutability": "view",
      "type": "function"
    },
    {
      "inputs": [
        {
          "internalType": "uint256",
          "name": "_tokenId",
          "type": "uint256"
        }
      ],
      "name": "tokenURI",
      "outputs": [
        {
          "internalType": "string",
          "name": "",
          "type": "string"
        }
      ],
      "stateMutability": "view",
      "type": "function"
    },
    {
      "inputs": [],
      "name": "totalSupply",
      "outputs": [
        {
          "internalType": "uint256",
          "name": "",
          "type": "uint256"
        }
      ],
      "stateMutability": "view",
      "type": "function"
    },
    {
      "inputs": [
        {
          "internalType": "address",
          "name": "from",
          "type": "address"
        },
        {
          "internalType": "address",
          "name": "to",
          "type": "address"
        },
        {
          "internalType": "uint256",
          "name": "tokenId",
          "type": "uint256"
        }
      ],
      "name": "transferFrom",
      "outputs": [],
      "stateMutability": "nonpayable",
      "type": "function"
    },
    {
      "inputs": [
        {
          "internalType": "address",
          "name": "newOwner",
          "type": "address"
        }
      ],
      "name": "transferOwnership",
      "outputs": [],
      "stateMutability": "nonpayable",
      "type": "function"
    }
  ],
  "transactionHash": "0x7d32d3f36b9495b4a7a847b1b280a8cb7d8318ec7f213b079776bee73aed2dff",
  "args": [
    "0x7AECa63e4B51b0Ff8A8a82b3231033ca4CA6301b",
    "ipfs://bafybeifjxfjxjenulf3hnp3ghrbq54po42c7plkm3aw2wkpayz26eogfca/",
    "0xf0776a4F32a4F95649D3b1c79eb5FFE6c43e53F3"
  ],
  "numDeployments": 3,
  "solcInputHash": "61d93f86e0a83c0b3d4bdd83e42307ef",
  "bytecode": "0x60806040526001600b553480156200001657600080fd5b5060405162003dc738038062003dc783398101604081905262000039916200030a565b6040518060400160405280601381526020017f41746c616e7469732053706163657368697073000000000000000000000000008152506040518060400160405280600a8152602001695350414345534849505360b01b8152508160009081620000a391906200047b565b506001620000b282826200047b565b505050620000cf620000c96200011360201b60201c565b62000117565b6001600755620000df8262000169565b620000ea83620001c5565b600880546001600160a01b0319166001600160a01b039290921691909117905550620005659050565b3390565b600680546001600160a01b038381166001600160a01b0319831681179093556040519116919082907f8be0079c531659141344cd1fd0a4f28419497f9722a3daafe3b4186f6b6457e090600090a35050565b6200017362000248565b60096200018182826200047b565b508060405162000192919062000547565b604051908190038120907f6741b2fc379fad678116fe3d4d4b9a1a184ab53ba36b86ad0fa66340b1ab41ad90600090a250565b620001cf62000248565b6001600160a01b0381166200023a5760405162461bcd60e51b815260206004820152602660248201527f4f776e61626c653a206e6577206f776e657220697320746865207a65726f206160448201526564647265737360d01b60648201526084015b60405180910390fd5b620002458162000117565b50565b6006546001600160a01b03163314620002a45760405162461bcd60e51b815260206004820181905260248201527f4f776e61626c653a2063616c6c6572206973206e6f7420746865206f776e6572604482015260640162000231565b565b6001600160a01b03811681146200024557600080fd5b634e487b7160e01b600052604160045260246000fd5b60005b83811015620002ef578181015183820152602001620002d5565b50506000910152565b80516200030581620002a6565b919050565b6000806000606084860312156200032057600080fd5b83516200032d81620002a6565b60208501519093506001600160401b03808211156200034b57600080fd5b818601915086601f8301126200036057600080fd5b815181811115620003755762000375620002bc565b604051601f8201601f19908116603f01168101908382118183101715620003a057620003a0620002bc565b81604052828152896020848701011115620003ba57600080fd5b620003cd836020830160208801620002d2565b8096505050505050620003e360408501620002f8565b90509250925092565b600181811c908216806200040157607f821691505b6020821081036200042257634e487b7160e01b600052602260045260246000fd5b50919050565b601f8211156200047657600081815260208120601f850160051c81016020861015620004515750805b601f850160051c820191505b8181101562000472578281556001016200045d565b5050505b505050565b81516001600160401b03811115620004975762000497620002bc565b620004af81620004a88454620003ec565b8462000428565b602080601f831160018114620004e75760008415620004ce5750858301515b600019600386901b1c1916600185901b17855562000472565b600085815260208120601f198616915b828110156200051857888601518255948401946001909101908401620004f7565b5085821015620005375787850151600019600388901b60f8161c191681555b5050505050600190811b01905550565b600082516200055b818460208701620002d2565b9190910192915050565b61385280620005756000396000f3fe608060405234801561001057600080fd5b50600436106101fb5760003560e01c8063715018a61161011a578063b88d4fde116100ad578063d600671c1161007c578063d600671c14610485578063e985e9c514610498578063f23a6e61146104ab578063f2fde38b146104cb578063f3ad65f4146104de57600080fd5b8063b88d4fde14610404578063bc197c8114610417578063c87b56dd14610452578063c964e4931461046557600080fd5b806395d89b41116100e957806395d89b41146103c3578063a061a03a146103cb578063a22cb465146103de578063abac3fc3146103f157600080fd5b8063715018a614610358578063771282f6146103605780638da5cb5b1461036957806395ca8acb1461037a57600080fd5b806342842e0e1161019257806355f804b31161016157806355f804b3146103175780636352211e1461032a5780636c0360eb1461033d57806370a082311461034557600080fd5b806342842e0e146102be57806348758697146102d15780634b93f753146102f15780634f558e791461030457600080fd5b806318160ddd116101ce57806318160ddd1461027d57806323b872dd1461028f57806326987b60146102a257806327c7812c146102ab57600080fd5b806301ffc9a71461020057806306fdde0314610228578063081812fc1461023d578063095ea7b314610268575b600080fd5b61021361020e3660046127e6565b6104f1565b60405190151581526020015b60405180910390f35b610230610543565b60405161021f919061285a565b61025061024b36600461286d565b6105d5565b6040516001600160a01b03909116815260200161021f565b61027b61027636600461289b565b6105fc565b005b600a545b60405190815260200161021f565b61027b61029d3660046128c7565b610716565b610281600b5481565b61027b6102b9366004612908565b610747565b61027b6102cc3660046128c7565b610798565b6102e46102df36600461286d565b6107b3565b60405161021f919061295d565b6102816102ff36600461286d565b610882565b61021361031236600461286d565b610b2e565b61027b6103253660046129f7565b610b4d565b61025061033836600461286d565b610ba3565b610230610c03565b610281610353366004612908565b610c91565b61027b610d17565b610281600a5481565b6006546001600160a01b0316610250565b6103b361038836600461286d565b600c60205260009081526040902080546001820154600283015460039093015460ff90921692909184565b60405161021f9493929190612a40565b610230610d2b565b61027b6103d9366004612ab5565b610d3a565b61027b6103ec366004612b21565b610e2e565b61027b6103ff366004612b5f565b610e3d565b61027b610412366004612b91565b61123d565b610439610425366004612c53565b63bc197c8160e01b98975050505050505050565b6040516001600160e01b0319909116815260200161021f565b61023061046036600461286d565b61126f565b61047861047336600461286d565b6116a2565b60405161021f9190612d12565b610230610493366004612d65565b611755565b6102136104a6366004612dc5565b6117d7565b6104396104b9366004612df3565b63f23a6e6160e01b9695505050505050565b61027b6104d9366004612908565b611805565b600854610250906001600160a01b031681565b60006001600160e01b031982166380ac58cd60e01b148061052257506001600160e01b03198216635b5e139f60e01b145b8061053d57506301ffc9a760e01b6001600160e01b03198316145b92915050565b60606000805461055290612e6f565b80601f016020809104026020016040519081016040528092919081815260200182805461057e90612e6f565b80156105cb5780601f106105a0576101008083540402835291602001916105cb565b820191906000526020600020905b8154815290600101906020018083116105ae57829003601f168201915b5050505050905090565b60006105e08261187e565b506000908152600460205260409020546001600160a01b031690565b600061060782610ba3565b9050806001600160a01b0316836001600160a01b0316036106795760405162461bcd60e51b815260206004820152602160248201527f4552433732313a20617070726f76616c20746f2063757272656e74206f776e656044820152603960f91b60648201526084015b60405180910390fd5b336001600160a01b0382161480610695575061069581336117d7565b6107075760405162461bcd60e51b815260206004820152603d60248201527f4552433732313a20617070726f76652063616c6c6572206973206e6f7420746f60448201527f6b656e206f776e6572206f7220617070726f76656420666f7220616c6c0000006064820152608401610670565b61071183836118dd565b505050565b610720338261194b565b61073c5760405162461bcd60e51b815260040161067090612ea9565b6107118383836119a9565b61074f611b1a565b600880546001600160a01b0319166001600160a01b0383169081179091556040517e642c94770a2c959864e4fbb2263a24c595122ac021c793bde7e74ccd8a959290600090a250565b6107118383836040518060200160405280600081525061123d565b6000818152600260205260408120546001600160a01b03166108175760405162461bcd60e51b815260206004820152601860248201527f53706163657368697020646f6573206e6f7420657869737400000000000000006044820152606401610670565b6000828152600c60205260408082208151608081019092528054829060ff16600381111561084757610847612925565b600381111561085857610858612925565b81526001820154602082015260028201546040820152600390910154606090910152519392505050565b600080600860009054906101000a90046001600160a01b03166001600160a01b0316638e9797296040518163ffffffff1660e01b8152600401602060405180830381865afa1580156108d8573d6000803e3d6000fd5b505050506040513d601f19601f820116820180604052508101906108fc9190612ef6565b6000848152600c602052604080822081516080810190925280549394509192909190829060ff16600381111561093457610934612925565b600381111561094557610945612925565b8152602001600182015481526020016002820154815260200160038201548152505090506000816000015190506000836001600160a01b0316634b93f75384602001516040518263ffffffff1660e01b81526004016109a691815260200190565b602060405180830381865afa1580156109c3573d6000803e3d6000fd5b505050506040513d601f19601f820116820180604052508101906109e79190612f13565b90506000846001600160a01b0316634b93f75385604001516040518263ffffffff1660e01b8152600401610a1d91815260200190565b602060405180830381865afa158015610a3a573d6000803e3d6000fd5b505050506040513d601f19601f82011682018060405250810190610a5e9190612f13565b90506000856001600160a01b0316634b93f75386606001516040518263ffffffff1660e01b8152600401610a9491815260200190565b602060405180830381865afa158015610ab1573d6000803e3d6000fd5b505050506040513d601f19601f82011682018060405250810190610ad59190612f13565b905080610ae28385612f4d565b610aec9190612f4d565b610af7906001612f4d565b846003811115610b0957610b09612925565b610b14906001612f4d565b610b1e9190612f6f565b61ffff1698975050505050505050565b6000818152600260205260408120546001600160a01b0316151561053d565b610b55611b1a565b6009610b618282612fe3565b5080604051610b7091906130bf565b604051908190038120907f6741b2fc379fad678116fe3d4d4b9a1a184ab53ba36b86ad0fa66340b1ab41ad90600090a250565b6000818152600260205260408120546001600160a01b03168061053d5760405162461bcd60e51b8152602060048201526018602482015277115490cdcc8c4e881a5b9d985b1a59081d1bdad95b88125160421b6044820152606401610670565b60098054610c1090612e6f565b80601f0160208091040260200160405190810160405280929190818152602001828054610c3c90612e6f565b8015610c895780601f10610c5e57610100808354040283529160200191610c89565b820191906000526020600020905b815481529060010190602001808311610c6c57829003601f168201915b505050505081565b60006001600160a01b038216610cfb5760405162461bcd60e51b815260206004820152602960248201527f4552433732313a2061646472657373207a65726f206973206e6f7420612076616044820152683634b21037bbb732b960b91b6064820152608401610670565b506001600160a01b031660009081526003602052604090205490565b610d1f611b1a565b610d296000611b74565b565b60606001805461055290612e6f565b828114610d895760405162461bcd60e51b815260206004820152601e60248201527f417272617973206d757374206265207468652073616d65206c656e67746800006044820152606401610670565b60005b83811015610e2757610dc3858583818110610da957610da96130db565b9050602002016020810190610dbe9190612908565b611bc6565b610e156001600b54610dd591906130f1565b848484818110610de757610de76130db565b9050602002016020810190610dfc9190613104565b60ff166003811115610e1057610e10612925565b611c3b565b80610e1f81613121565b915050610d8c565b5050505050565b610e39338383611cbf565b5050565b610e45611d8d565b33610e4f85610ba3565b6001600160a01b031614610e76576040516330cd747160e01b815260040160405180910390fd5b60085460408051638e97972960e01b815290516000926001600160a01b031691638e9797299160048083019260209291908290030181865afa158015610ec0573d6000803e3d6000fd5b505050506040513d601f19601f82011682018060405250810190610ee49190612ef6565b6000868152600c602052604090206001808201549293509091610f08918790611de6565b610f188160020154856002611de6565b610f288160030154846000611de6565b600181018590556002810184905560038101839055604051630219207560e61b81526004810186905286907f5cb29d191dfe603d478a647638b5f89bdfd66de0c9089135f437435b72a3d0f5906001600160a01b038516906386481d4090602401602060405180830381865afa158015610fa6573d6000803e3d6000fd5b505050506040513d601f19601f82011682018060405250810190610fca919061313a565b60ff16600003610ffc576040518060400160405280600a815260200169155b995c5d5a5c1c195960b21b815250611072565b604051630219207560e61b815260048101889052611072906001600160a01b038616906386481d40906024015b602060405180830381865afa158015611046573d6000803e3d6000fd5b505050506040513d601f19601f8201168201806040525081019061106a919061313a565b60ff16611fdc565b604051630219207560e61b8152600481018890526001600160a01b038616906386481d4090602401602060405180830381865afa1580156110b7573d6000803e3d6000fd5b505050506040513d601f19601f820116820180604052508101906110db919061313a565b60ff1660000361110d576040518060400160405280600a815260200169155b995c5d5a5c1c195960b21b81525061113e565b604051630219207560e61b81526004810188905261113e906001600160a01b038716906386481d4090602401611029565b604051630219207560e61b8152600481018890526001600160a01b038716906386481d4090602401602060405180830381865afa158015611183573d6000803e3d6000fd5b505050506040513d601f19601f820116820180604052508101906111a7919061313a565b60ff166000036111d9576040518060400160405280600a815260200169155b995c5d5a5c1c195960b21b81525061120a565b604051630219207560e61b81526004810188905261120a906001600160a01b038816906386481d4090602401611029565b6112138b610882565b6040516112239493929190613157565b60405180910390a250506112376001600755565b50505050565b611247338361194b565b6112635760405162461bcd60e51b815260040161067090612ea9565b6112378484848461206f565b606061127a8261187e565b60085460408051638e97972960e01b815290516000926001600160a01b031691638e9797299160048083019260209291908290030181865afa1580156112c4573d6000803e3d6000fd5b505050506040513d601f19601f820116820180604052508101906112e89190612ef6565b6000848152600c602052604080822081516080810190925280549394509192909190829060ff16600381111561132057611320612925565b600381111561133157611331612925565b8152600182015460208201526002820154604082015260039091015460609091015280519091506000611362610543565b61136b87611fdc565b60405160200161137c9291906131a2565b60408051808303601f1901815282825290850151630219207560e61b8352600483015291506000906001600160a01b038616906386481d4090602401602060405180830381865afa1580156113d5573d6000803e3d6000fd5b505050506040513d601f19601f820116820180604052508101906113f9919061313a565b90506000856001600160a01b03166386481d4086602001516040518263ffffffff1660e01b815260040161142f91815260200190565b602060405180830381865afa15801561144c573d6000803e3d6000fd5b505050506040513d601f19601f82011682018060405250810190611470919061313a565b90506000866001600160a01b03166386481d4087606001516040518263ffffffff1660e01b81526004016114a691815260200190565b602060405180830381865afa1580156114c3573d6000803e3d6000fd5b505050506040513d601f19601f820116820180604052508101906114e7919061313a565b905060008360ff1660000361151e576040518060400160405280600a815260200169155b995c5d5a5c1c195960b21b81525061152a565b61152a8460ff16611fdc565b905060008360ff16600003611561576040518060400160405280600a815260200169155b995c5d5a5c1c195960b21b81525061156d565b61156d8460ff16611fdc565b905060008360ff166000036115a4576040518060400160405280600a815260200169155b995c5d5a5c1c195960b21b8152506115b0565b6115b08460ff16611fdc565b9050866040516020016115c39190613205565b6040516020818303038152906040529650866115de896120a2565b8484846040516020016115f5959493929190613312565b6040516020818303038152906040529650866116186116138e610882565b611fdc565b604051602001611629929190613499565b604051602081830303815290604052965061166f8761164a8a898989611755565b60405160200161165b92919061350e565b604051602081830303815290604052612193565b9650866040516020016116829190613562565b6040516020818303038152906040529a5050505050505050505050919050565b6040805160c0810182526000918101828152606082018390526080820183905260a0820183905281526020810191909152604080516000848152600c60205282812060c0830184528054919383929083019190829060ff16600381111561170b5761170b612925565b600381111561171c5761171c612925565b81526020016001820154815260200160028201548152602001600382015481525050815260200161174c85610882565b90529392505050565b606061175f6122fa565b61177486600381111561161357611613612925565b61179161178085612309565b600381111561161357611613612925565b61179d61178087612309565b6117a961178089612309565b6040516020016117bd9594939291906135a7565b60405160208183030381529060405290505b949350505050565b6001600160a01b03918216600090815260056020908152604080832093909416825291909152205460ff1690565b61180d611b1a565b6001600160a01b0381166118725760405162461bcd60e51b815260206004820152602660248201527f4f776e61626c653a206e6577206f776e657220697320746865207a65726f206160448201526564647265737360d01b6064820152608401610670565b61187b81611b74565b50565b6000818152600260205260409020546001600160a01b031661187b5760405162461bcd60e51b8152602060048201526018602482015277115490cdcc8c4e881a5b9d985b1a59081d1bdad95b88125160421b6044820152606401610670565b600081815260046020526040902080546001600160a01b0319166001600160a01b038416908117909155819061191282610ba3565b6001600160a01b03167f8c5be1e5ebec7d5bd14f71427d1e84f3dd0314c0f7b2291e5b200ac8c7c3b92560405160405180910390a45050565b60008061195783610ba3565b9050806001600160a01b0316846001600160a01b0316148061197e575061197e81856117d7565b806117cf5750836001600160a01b0316611997846105d5565b6001600160a01b031614949350505050565b826001600160a01b03166119bc82610ba3565b6001600160a01b0316146119e25760405162461bcd60e51b815260040161067090613645565b6001600160a01b038216611a445760405162461bcd60e51b8152602060048201526024808201527f4552433732313a207472616e7366657220746f20746865207a65726f206164646044820152637265737360e01b6064820152608401610670565b611a51838383600161238c565b826001600160a01b0316611a6482610ba3565b6001600160a01b031614611a8a5760405162461bcd60e51b815260040161067090613645565b600081815260046020908152604080832080546001600160a01b03199081169091556001600160a01b0387811680865260038552838620805460001901905590871680865283862080546001019055868652600290945282852080549092168417909155905184937fddf252ad1be2c89b69c2b068fc378daa952ba7f163c4a11628f55a4df523b3ef91a4505050565b6006546001600160a01b03163314610d295760405162461bcd60e51b815260206004820181905260248201527f4f776e61626c653a2063616c6c6572206973206e6f7420746865206f776e65726044820152606401610670565b600680546001600160a01b038381166001600160a01b0319831681179093556040519116919082907f8be0079c531659141344cd1fd0a4f28419497f9722a3daafe3b4186f6b6457e090600090a35050565b6001600a6000828254611bd9919061368a565b92505081905550611bec81600b54612414565b6001600b6000828254611bff919061368a565b90915550506040516001600160a01b038216907f3e4f823260c0ce29668141f615360eac28cc3b82ca6e9ef19552eba69b42bdfc90600090a250565b6000828152600c60205260409020805482919060ff19166001836003811115611c6657611c66612925565b02179055506000611c7683610882565b9050827fcb9675d4ccdd2cd44d781b848134afaf0d5f510432eece9c70f3baa6b61d76d1611ca3846120a2565b83604051611cb292919061369d565b60405180910390a2505050565b816001600160a01b0316836001600160a01b031603611d205760405162461bcd60e51b815260206004820152601960248201527f4552433732313a20617070726f766520746f2063616c6c6572000000000000006044820152606401610670565b6001600160a01b03838116600081815260056020908152604080832094871680845294825291829020805460ff191686151590811790915591519182527f17307eab39ab6107e8899845ad3d59bd9653f200f220920489ca2b5937696c31910160405180910390a3505050565b600260075403611ddf5760405162461bcd60e51b815260206004820152601f60248201527f5265656e7472616e637947756172643a207265656e7472616e742063616c6c006044820152606401610670565b6002600755565b60085460408051638e97972960e01b815290516000926001600160a01b031691638e9797299160048083019260209291908290030181865afa158015611e30573d6000803e3d6000fd5b505050506040513d601f19601f82011682018060405250810190611e549190612ef6565b9050828403611e635750505050565b8215801590611ee15750604051630e9f48af60e21b81526004810184905260ff8316906001600160a01b03831690633a7d22bc90602401602060405180830381865afa158015611eb7573d6000803e3d6000fd5b505050506040513d601f19601f82011682018060405250810190611edb919061313a565b60ff1614155b15611eff57604051630fd7210b60e11b815260040160405180910390fd5b8215611f6b57604051637921219560e11b81526001600160a01b0382169063f242432a90611f38903390309088906001906004016136bf565b600060405180830381600087803b158015611f5257600080fd5b505af1158015611f66573d6000803e3d6000fd5b505050505b831561123757604051637921219560e11b81526001600160a01b0382169063f242432a90611fa4903090339089906001906004016136bf565b600060405180830381600087803b158015611fbe57600080fd5b505af1158015611fd2573d6000803e3d6000fd5b5050505050505050565b60606000611fe98361242e565b600101905060008167ffffffffffffffff8111156120095761200961296b565b6040519080825280601f01601f191660200182016040528015612033576020820181803683370190505b5090508181016020015b600019016f181899199a1a9b1b9c1cb0b131b232b360811b600a86061a8153600a850494508461203d57509392505050565b61207a8484846119a9565b61208684848484612506565b6112375760405162461bcd60e51b8152600401610670906136f7565b606060008260038111156120b8576120b8612925565b036120df57505060408051808201909152600681526521b7b6b6b7b760d11b602082015290565b60018260038111156120f3576120f3612925565b0361211c5750506040805180820190915260088152672ab731b7b6b6b7b760c11b602082015290565b600282600381111561213057612130612925565b036121555750506040805180820190915260048152635261726560e01b602082015290565b600382600381111561216957612169612925565b0361218e5750506040805180820190915260048152634570696360e01b602082015290565b919050565b606081516000036121b257505060408051602081019091526000815290565b60006040518060600160405280604081526020016137dd60409139905060006003845160026121e1919061368a565b6121eb9190613749565b6121f690600461376b565b9050600061220582602061368a565b67ffffffffffffffff81111561221d5761221d61296b565b6040519080825280601f01601f191660200182016040528015612247576020820181803683370190505b509050818152600183018586518101602084015b818310156122b55760039283018051603f601282901c811687015160f890811b8552600c83901c8216880151811b6001860152600683901c8216880151811b60028601529116860151901b9382019390935260040161225b565b6003895106600181146122cf57600281146122e0576122ec565b613d3d60f01b6001198301526122ec565b603d60f81b6000198301525b509398975050505050505050565b60606009805461055290612e6f565b600060018260ff16101561231f57506000919050565b60018260ff1610158015612336575060058260ff16105b1561234357506001919050565b60058260ff161015801561235a575060088260ff16105b1561236757506002919050565b60088260ff161015801561237f5750600a8260ff1611155b1561218e57506003919050565b6001811115611237576001600160a01b038416156123d2576001600160a01b038416600090815260036020526040812080548392906123cc9084906130f1565b90915550505b6001600160a01b03831615611237576001600160a01b0383166000908152600360205260408120805483929061240990849061368a565b909155505050505050565b610e39828260405180602001604052806000815250612604565b60008072184f03e93ff9f4daa797ed6e38ed64bf6a1f0160401b831061246d5772184f03e93ff9f4daa797ed6e38ed64bf6a1f0160401b830492506040015b6d04ee2d6d415b85acef81000000008310612499576d04ee2d6d415b85acef8100000000830492506020015b662386f26fc1000083106124b757662386f26fc10000830492506010015b6305f5e10083106124cf576305f5e100830492506008015b61271083106124e357612710830492506004015b606483106124f5576064830492506002015b600a831061053d5760010192915050565b60006001600160a01b0384163b156125fc57604051630a85bd0160e11b81526001600160a01b0385169063150b7a029061254a903390899088908890600401613782565b6020604051808303816000875af1925050508015612585575060408051601f3d908101601f19168201909252612582918101906137bf565b60015b6125e2573d8080156125b3576040519150601f19603f3d011682016040523d82523d6000602084013e6125b8565b606091505b5080516000036125da5760405162461bcd60e51b8152600401610670906136f7565b805181602001fd5b6001600160e01b031916630a85bd0160e11b1490506117cf565b5060016117cf565b61260e8383612637565b61261b6000848484612506565b6107115760405162461bcd60e51b8152600401610670906136f7565b6001600160a01b03821661268d5760405162461bcd60e51b815260206004820181905260248201527f4552433732313a206d696e7420746f20746865207a65726f20616464726573736044820152606401610670565b6000818152600260205260409020546001600160a01b0316156126f25760405162461bcd60e51b815260206004820152601c60248201527f4552433732313a20746f6b656e20616c7265616479206d696e746564000000006044820152606401610670565b61270060008383600161238c565b6000818152600260205260409020546001600160a01b0316156127655760405162461bcd60e51b815260206004820152601c60248201527f4552433732313a20746f6b656e20616c7265616479206d696e746564000000006044820152606401610670565b6001600160a01b038216600081815260036020908152604080832080546001019055848352600290915280822080546001600160a01b0319168417905551839291907fddf252ad1be2c89b69c2b068fc378daa952ba7f163c4a11628f55a4df523b3ef908290a45050565b6001600160e01b03198116811461187b57600080fd5b6000602082840312156127f857600080fd5b8135612803816127d0565b9392505050565b60005b8381101561282557818101518382015260200161280d565b50506000910152565b6000815180845261284681602086016020860161280a565b601f01601f19169290920160200192915050565b602081526000612803602083018461282e565b60006020828403121561287f57600080fd5b5035919050565b6001600160a01b038116811461187b57600080fd5b600080604083850312156128ae57600080fd5b82356128b981612886565b946020939093013593505050565b6000806000606084860312156128dc57600080fd5b83356128e781612886565b925060208401356128f781612886565b929592945050506040919091013590565b60006020828403121561291a57600080fd5b813561280381612886565b634e487b7160e01b600052602160045260246000fd5b6004811061295957634e487b7160e01b600052602160045260246000fd5b9052565b6020810161053d828461293b565b634e487b7160e01b600052604160045260246000fd5b600067ffffffffffffffff8084111561299c5761299c61296b565b604051601f8501601f19908116603f011681019082821181831017156129c4576129c461296b565b816040528093508581528686860111156129dd57600080fd5b858560208301376000602087830101525050509392505050565b600060208284031215612a0957600080fd5b813567ffffffffffffffff811115612a2057600080fd5b8201601f81018413612a3157600080fd5b6117cf84823560208401612981565b60808101612a4e828761293b565b84602083015283604083015282606083015295945050505050565b60008083601f840112612a7b57600080fd5b50813567ffffffffffffffff811115612a9357600080fd5b6020830191508360208260051b8501011115612aae57600080fd5b9250929050565b60008060008060408587031215612acb57600080fd5b843567ffffffffffffffff80821115612ae357600080fd5b612aef88838901612a69565b90965094506020870135915080821115612b0857600080fd5b50612b1587828801612a69565b95989497509550505050565b60008060408385031215612b3457600080fd5b8235612b3f81612886565b915060208301358015158114612b5457600080fd5b809150509250929050565b60008060008060808587031215612b7557600080fd5b5050823594602084013594506040840135936060013592509050565b60008060008060808587031215612ba757600080fd5b8435612bb281612886565b93506020850135612bc281612886565b925060408501359150606085013567ffffffffffffffff811115612be557600080fd5b8501601f81018713612bf657600080fd5b612c0587823560208401612981565b91505092959194509250565b60008083601f840112612c2357600080fd5b50813567ffffffffffffffff811115612c3b57600080fd5b602083019150836020828501011115612aae57600080fd5b60008060008060008060008060a0898b031215612c6f57600080fd5b8835612c7a81612886565b97506020890135612c8a81612886565b9650604089013567ffffffffffffffff80821115612ca757600080fd5b612cb38c838d01612a69565b909850965060608b0135915080821115612ccc57600080fd5b612cd88c838d01612a69565b909650945060808b0135915080821115612cf157600080fd5b50612cfe8b828c01612c11565b999c989b5096995094979396929594505050565b600060a0820190508251612d2783825161293b565b602081015160208401526040810151604084015260608101516060840152506020830151608083015292915050565b60ff8116811461187b57600080fd5b60008060008060808587031215612d7b57600080fd5b843560048110612d8a57600080fd5b93506020850135612d9a81612d56565b92506040850135612daa81612d56565b91506060850135612dba81612d56565b939692955090935050565b60008060408385031215612dd857600080fd5b8235612de381612886565b91506020830135612b5481612886565b60008060008060008060a08789031215612e0c57600080fd5b8635612e1781612886565b95506020870135612e2781612886565b94506040870135935060608701359250608087013567ffffffffffffffff811115612e5157600080fd5b612e5d89828a01612c11565b979a9699509497509295939492505050565b600181811c90821680612e8357607f821691505b602082108103612ea357634e487b7160e01b600052602260045260246000fd5b50919050565b6020808252602d908201527f4552433732313a2063616c6c6572206973206e6f7420746f6b656e206f776e6560408201526c1c881bdc88185c1c1c9bdd9959609a1b606082015260800190565b600060208284031215612f0857600080fd5b815161280381612886565b600060208284031215612f2557600080fd5b815161ffff8116811461280357600080fd5b634e487b7160e01b600052601160045260246000fd5b61ffff818116838216019080821115612f6857612f68612f37565b5092915050565b61ffff818116838216028082169190828114612f8d57612f8d612f37565b505092915050565b601f82111561071157600081815260208120601f850160051c81016020861015612fbc5750805b601f850160051c820191505b81811015612fdb57828155600101612fc8565b505050505050565b815167ffffffffffffffff811115612ffd57612ffd61296b565b6130118161300b8454612e6f565b84612f95565b602080601f831160018114613046576000841561302e5750858301515b600019600386901b1c1916600185901b178555612fdb565b600085815260208120601f198616915b8281101561307557888601518255948401946001909101908401613056565b50858210156130935787850151600019600388901b60f8161c191681555b5050505050600190811b01905550565b600081516130b581856020860161280a565b9290920192915050565b600082516130d181846020870161280a565b9190910192915050565b634e487b7160e01b600052603260045260246000fd5b8181038181111561053d5761053d612f37565b60006020828403121561311657600080fd5b813561280381612d56565b60006001820161313357613133612f37565b5060010190565b60006020828403121561314c57600080fd5b815161280381612d56565b60808152600061316a608083018761282e565b828103602084015261317c818761282e565b90508281036040840152613190818661282e565b91505082606083015295945050505050565b693d913730b6b2911d101160b11b815282516000906131c881600a85016020880161280a565b61202360f01b600a9184019182015283516131ea81600c84016020880161280a565b61088b60f21b600c9290910191820152600e01949350505050565b6000825161321781846020870161280a565b7f226465736372697074696f6e223a202257656c636f6d6520746f2074686520639201918252507f61707469766174696e67207265616c6d206f662041746c616e7469732c20746860208201527f652067616d652d766572736520616e6420686f6d65206f6620746865206c656760408201527f656e64617279204172676f6e617574732e20416371756972652053706163657360608201527f6869707320746f2074616b65207061727420696e207468652041746c616e746960808201527f73207261636520616e64206561726e206174747261637469766520726577617260a082015264191cc8488b60da1b60c082015260c501919050565b60008651613324818460208b0161280a565b80830190507f2261747472696275746573223a205b7b2274726169745f74797065223a20225281527130b934ba3c911610113b30b63ab2911d101160711b6020820152865161337a816032840160208b0161280a565b62089f4b60ea1b6032929091019182018190527f7b2274726169745f74797065223a20225468756e646572626f6c742057696e6760358301527339902632bb32b6111610113b30b63ab2911d101160611b6055830181905287516133e5816069860160208c0161280a565b60699301928301919091527f7b2274726169745f74797065223a2022496e6665726e6f205468727573746572606c830152608c82015261348d6134326134876134418260a086018a6130a3565b62089f4b60ea1b815260030190565b7f7b2274726169745f74797065223a20224172676f6e69756d2045786f7368656c81527336102632bb32b6111610113b30b63ab2911d101160611b602082015260340190565b866130a3565b98975050505050505050565b600083516134ab81846020880161280a565b80830190507f7b2274726169745f74797065223a20225370656564222c202276616c7565223a815261101160f11b602082015283516134f181602284016020880161280a565b63089f574b60e21b60229290910191820152602601949350505050565b6000835161352081846020880161280a565b691134b6b0b3b2911d101160b11b908301908152835161354781600a84016020880161280a565b61227d60f01b600a9290910191820152600c01949350505050565b7f646174613a6170706c69636174696f6e2f6a736f6e3b6261736536342c00000081526000825161359a81601d85016020870161280a565b91909101601d0192915050565b600086516135b9818460208b0161280a565b8651908301906135cd818360208b0161280a565b602f60f81b910181815286519091906135ed816001850160208b0161280a565b60019201918201819052855161360a816002850160208a0161280a565b6002920191820152835161362581600384016020880161280a565b632e706e6760e01b60039290910191820152600701979650505050505050565b60208082526025908201527f4552433732313a207472616e736665722066726f6d20696e636f72726563742060408201526437bbb732b960d91b606082015260800190565b8082018082111561053d5761053d612f37565b6040815260006136b0604083018561282e565b90508260208301529392505050565b6001600160a01b0394851681529290931660208301526040820152606081019190915260a06080820181905260009082015260c00190565b60208082526032908201527f4552433732313a207472616e7366657220746f206e6f6e20455243373231526560408201527131b2b4bb32b91034b6b83632b6b2b73a32b960711b606082015260800190565b60008261376657634e487b7160e01b600052601260045260246000fd5b500490565b808202811582820484141761053d5761053d612f37565b6001600160a01b03858116825284166020820152604081018390526080606082018190526000906137b59083018461282e565b9695505050505050565b6000602082840312156137d157600080fd5b8151612803816127d056fe4142434445464748494a4b4c4d4e4f505152535455565758595a6162636465666768696a6b6c6d6e6f707172737475767778797a303132333435363738392b2fa264697066735822122052001312466a26ba36e0fa9b5914d5c861c3f9e348b2cf78ccf3254c9726c9ed64736f6c63430008110033",
  "devdoc": {
    "details": "Race your spaceships on the racing contract! Equip equipments to boost speed!",
    "kind": "dev",
    "methods": {
      "airdrop(address[],uint8[])": {
        "params": {
          "_addresses": "All addresses that will receive nfts",
          "_rarities": "Amount of nfts that will be minted for each address"
        }
      },
      "approve(address,uint256)": {
        "details": "See {IERC721-approve}."
      },
      "balanceOf(address)": {
        "details": "See {IERC721-balanceOf}."
      },
      "exists(uint256)": {
        "params": {
          "tokenId": "Token ID"
        }
      },
      "getApproved(uint256)": {
        "details": "See {IERC721-getApproved}."
      },
      "getImageURI(uint8,uint8,uint8,uint8)": {
        "params": {
          "_fireLevel": "Fire level of spaceship",
          "_lightningLevel": "Lightning level of spaceship",
          "_rarity": "Rarity of spaceship",
          "_steelLevel": "Steel level of spaceship"
        }
      },
      "getRarity(uint256)": {
        "params": {
          "_tokenId": "Token ID of spaceship"
        }
      },
      "getSpaceship(uint256)": {
        "params": {
          "_tokenId": "Token ID of spaceship"
        }
      },
      "getSpeed(uint256)": {
        "params": {
          "_tokenId": "Token ID of spaceship"
        }
      },
      "isApprovedForAll(address,address)": {
        "details": "See {IERC721-isApprovedForAll}."
      },
      "name()": {
        "details": "See {IERC721Metadata-name}."
      },
      "onERC1155BatchReceived(address,address,uint256[],uint256[],bytes)": {
        "details": "Handles the receipt of a multiple ERC1155 token types. This function is called at the end of a `safeBatchTransferFrom` after the balances have been updated. NOTE: To accept the transfer(s), this must return `bytes4(keccak256(\"onERC1155BatchReceived(address,address,uint256[],uint256[],bytes)\"))` (i.e. 0xbc197c81, or its own function selector).",
        "params": {
          "data": "Additional data with no specified format",
          "from": "The address which previously owned the token",
          "ids": "An array containing ids of each token being transferred (order and length must match values array)",
          "operator": "The address which initiated the batch transfer (i.e. msg.sender)",
          "values": "An array containing amounts of each token being transferred (order and length must match ids array)"
        },
        "returns": {
          "_0": "`bytes4(keccak256(\"onERC1155BatchReceived(address,address,uint256[],uint256[],bytes)\"))` if transfer is allowed"
        }
      },
      "onERC1155Received(address,address,uint256,uint256,bytes)": {
        "details": "Handles the receipt of a single ERC1155 token type. This function is called at the end of a `safeTransferFrom` after the balance has been updated. NOTE: To accept the transfer, this must return `bytes4(keccak256(\"onERC1155Received(address,address,uint256,uint256,bytes)\"))` (i.e. 0xf23a6e61, or its own function selector).",
        "params": {
          "data": "Additional data with no specified format",
          "from": "The address which previously owned the token",
          "id": "The ID of the token being transferred",
          "operator": "The address which initiated the transfer (i.e. msg.sender)",
          "value": "The amount of tokens being transferred"
        },
        "returns": {
          "_0": "`bytes4(keccak256(\"onERC1155Received(address,address,uint256,uint256,bytes)\"))` if transfer is allowed"
        }
      },
      "owner()": {
        "details": "Returns the address of the current owner."
      },
      "ownerOf(uint256)": {
        "details": "See {IERC721-ownerOf}."
      },
      "renounceOwnership()": {
        "details": "Leaves the contract without owner. It will not be possible to call `onlyOwner` functions anymore. Can only be called by the current owner. NOTE: Renouncing ownership will leave the contract without an owner, thereby removing any functionality that is only available to the owner."
      },
      "safeTransferFrom(address,address,uint256)": {
        "details": "See {IERC721-safeTransferFrom}."
      },
      "safeTransferFrom(address,address,uint256,bytes)": {
        "details": "See {IERC721-safeTransferFrom}."
      },
      "setApprovalForAll(address,bool)": {
        "details": "See {IERC721-setApprovalForAll}."
      },
      "setBaseURI(string)": {
        "details": "Set Metadata URI",
        "params": {
          "_newBaseURI": "new base uri"
        }
      },
      "supportsInterface(bytes4)": {
        "details": "See {IERC165-supportsInterface}."
      },
      "symbol()": {
        "details": "See {IERC721Metadata-symbol}."
      },
      "tokenURI(uint256)": {
        "details": "Metadata is stored on-chainMetadata is stored in JSON format",
        "params": {
          "_tokenId": "Token ID of spaceship"
        },
        "returns": {
          "_0": "String of token metadata"
        }
      },
      "transferFrom(address,address,uint256)": {
        "details": "See {IERC721-transferFrom}."
      },
      "transferOwnership(address)": {
        "details": "Transfers ownership of the contract to a new account (`newOwner`). Can only be called by the current owner."
      }
    },
    "title": "Atlantis Spaceships Mint Contract",
    "version": 1
  },
  "userdoc": {
    "kind": "user",
    "methods": {
      "airdrop(address[],uint8[])": {
        "notice": "Airdrop multiple nfts to multiple addresses"
      },
      "exists(uint256)": {
        "notice": "Checks if token exists"
      },
      "getImageURI(uint8,uint8,uint8,uint8)": {
        "notice": "Get ImageURI"
      },
      "getRarity(uint256)": {
        "notice": "Get rarity of a spaceship from its id"
      },
      "getSpaceship(uint256)": {
        "notice": "Get details of a spaceship from its id"
      },
      "getSpeed(uint256)": {
        "notice": "Get speed of a spaceship from its id"
      },
      "modifyEquipment(uint256,uint256,uint256,uint256)": {
        "notice": "Token Ids of equipments 1 2 3 Fire Lightning Steel Equipment Level 1 4 5 6 Fire Lightning Steel Equipment Level 2 7 8 9 Fire Lightning Steel Equipment Level 3 10 11 12 Fire Lightning Steel Equipment Level 4 13 14 15 Fire Lightning Steel Equipment Level 5 16 17 18 Fire Lightning Steel Equipment Level 6 19 20 21 Fire Lightning Steel Equipment Level 7 22 23 24 Fire Lightning Steel Equipment Level 8 25 26 27 Fire Lightning Steel Equipment Level 9 28 29 30 Fire Lightning Steel Equipment Level 10"
      },
      "tokenURI(uint256)": {
        "notice": "Returns token metadata"
      },
      "totalSupply()": {
        "notice": "Returns total supply of spaceships"
      }
    },
    "version": 1
  },
  "storageLayout": {
    "storage": [
      {
        "astId": 355,
        "contract": "contracts/AtlantisSpaceships.sol:AtlantisSpaceships",
        "label": "_name",
        "offset": 0,
        "slot": "0",
        "type": "t_string_storage"
      },
      {
        "astId": 357,
        "contract": "contracts/AtlantisSpaceships.sol:AtlantisSpaceships",
        "label": "_symbol",
        "offset": 0,
        "slot": "1",
        "type": "t_string_storage"
      },
      {
        "astId": 361,
        "contract": "contracts/AtlantisSpaceships.sol:AtlantisSpaceships",
        "label": "_owners",
        "offset": 0,
        "slot": "2",
        "type": "t_mapping(t_uint256,t_address)"
      },
      {
        "astId": 365,
        "contract": "contracts/AtlantisSpaceships.sol:AtlantisSpaceships",
        "label": "_balances",
        "offset": 0,
        "slot": "3",
        "type": "t_mapping(t_address,t_uint256)"
      },
      {
        "astId": 369,
        "contract": "contracts/AtlantisSpaceships.sol:AtlantisSpaceships",
        "label": "_tokenApprovals",
        "offset": 0,
        "slot": "4",
        "type": "t_mapping(t_uint256,t_address)"
      },
      {
        "astId": 375,
        "contract": "contracts/AtlantisSpaceships.sol:AtlantisSpaceships",
        "label": "_operatorApprovals",
        "offset": 0,
        "slot": "5",
        "type": "t_mapping(t_address,t_mapping(t_address,t_bool))"
      },
      {
        "astId": 7,
        "contract": "contracts/AtlantisSpaceships.sol:AtlantisSpaceships",
        "label": "_owner",
        "offset": 0,
        "slot": "6",
        "type": "t_address"
      },
      {
        "astId": 123,
        "contract": "contracts/AtlantisSpaceships.sol:AtlantisSpaceships",
        "label": "_status",
        "offset": 0,
        "slot": "7",
        "type": "t_uint256"
      },
      {
        "astId": 3670,
        "contract": "contracts/AtlantisSpaceships.sol:AtlantisSpaceships",
        "label": "addressRegistry",
        "offset": 0,
        "slot": "8",
        "type": "t_contract(AtlantisAddressRegistry)3325"
      },
      {
        "astId": 3672,
        "contract": "contracts/AtlantisSpaceships.sol:AtlantisSpaceships",
        "label": "baseURI",
        "offset": 0,
        "slot": "9",
        "type": "t_string_storage"
      },
      {
        "astId": 3674,
        "contract": "contracts/AtlantisSpaceships.sol:AtlantisSpaceships",
        "label": "currentSupply",
        "offset": 0,
        "slot": "10",
        "type": "t_uint256"
      },
      {
        "astId": 3677,
        "contract": "contracts/AtlantisSpaceships.sol:AtlantisSpaceships",
        "label": "currentIndex",
        "offset": 0,
        "slot": "11",
        "type": "t_uint256"
      },
      {
        "astId": 3682,
        "contract": "contracts/AtlantisSpaceships.sol:AtlantisSpaceships",
        "label": "spaceships",
        "offset": 0,
        "slot": "12",
        "type": "t_mapping(t_uint256,t_struct(Spaceship)5256_storage)"
      }
    ],
    "types": {
      "t_address": {
        "encoding": "inplace",
        "label": "address",
        "numberOfBytes": "20"
      },
      "t_bool": {
        "encoding": "inplace",
        "label": "bool",
        "numberOfBytes": "1"
      },
      "t_contract(AtlantisAddressRegistry)3325": {
        "encoding": "inplace",
        "label": "contract AtlantisAddressRegistry",
        "numberOfBytes": "20"
      },
      "t_enum(Rarity)4720": {
        "encoding": "inplace",
        "label": "enum AtlantisLib.Rarity",
        "numberOfBytes": "1"
      },
      "t_mapping(t_address,t_bool)": {
        "encoding": "mapping",
        "key": "t_address",
        "label": "mapping(address => bool)",
        "numberOfBytes": "32",
        "value": "t_bool"
      },
      "t_mapping(t_address,t_mapping(t_address,t_bool))": {
        "encoding": "mapping",
        "key": "t_address",
        "label": "mapping(address => mapping(address => bool))",
        "numberOfBytes": "32",
        "value": "t_mapping(t_address,t_bool)"
      },
      "t_mapping(t_address,t_uint256)": {
        "encoding": "mapping",
        "key": "t_address",
        "label": "mapping(address => uint256)",
        "numberOfBytes": "32",
        "value": "t_uint256"
      },
      "t_mapping(t_uint256,t_address)": {
        "encoding": "mapping",
        "key": "t_uint256",
        "label": "mapping(uint256 => address)",
        "numberOfBytes": "32",
        "value": "t_address"
      },
      "t_mapping(t_uint256,t_struct(Spaceship)5256_storage)": {
        "encoding": "mapping",
        "key": "t_uint256",
        "label": "mapping(uint256 => struct IAtlantisSpaceships.Spaceship)",
        "numberOfBytes": "32",
        "value": "t_struct(Spaceship)5256_storage"
      },
      "t_string_storage": {
        "encoding": "bytes",
        "label": "string",
        "numberOfBytes": "32"
      },
      "t_struct(Spaceship)5256_storage": {
        "encoding": "inplace",
        "label": "struct IAtlantisSpaceships.Spaceship",
        "members": [
          {
            "astId": 5249,
            "contract": "contracts/AtlantisSpaceships.sol:AtlantisSpaceships",
            "label": "rarity",
            "offset": 0,
            "slot": "0",
            "type": "t_enum(Rarity)4720"
          },
          {
            "astId": 5251,
            "contract": "contracts/AtlantisSpaceships.sol:AtlantisSpaceships",
            "label": "fireEquipmentId",
            "offset": 0,
            "slot": "1",
            "type": "t_uint256"
          },
          {
            "astId": 5253,
            "contract": "contracts/AtlantisSpaceships.sol:AtlantisSpaceships",
            "label": "lightningEquipmentId",
            "offset": 0,
            "slot": "2",
            "type": "t_uint256"
          },
          {
            "astId": 5255,
            "contract": "contracts/AtlantisSpaceships.sol:AtlantisSpaceships",
            "label": "steelEquipmentId",
            "offset": 0,
            "slot": "3",
            "type": "t_uint256"
          }
        ],
        "numberOfBytes": "128"
      },
      "t_uint256": {
        "encoding": "inplace",
        "label": "uint256",
        "numberOfBytes": "32"
      }
    }
  }
}