{
  "address": "0xABC88fF37a3747D00061Ab563027fFc3941A9f11",
  "abi": [
    {
      "inputs": [
        {
          "internalType": "contract AtlantisAddressRegistry",
          "name": "_registry",
          "type": "address"
        },
        {
          "internalType": "address",
          "name": "_treasury",
          "type": "address"
        }
      ],
      "stateMutability": "nonpayable",
      "type": "constructor"
    },
    {
      "inputs": [],
      "name": "ArrayLengthMismatch",
      "type": "error"
    },
    {
      "inputs": [],
      "name": "ExpeditionAlreadyEnded",
      "type": "error"
    },
    {
      "inputs": [],
      "name": "ExpeditionInProgress",
      "type": "error"
    },
    {
      "inputs": [],
      "name": "InvalidExpeditionInput",
      "type": "error"
    },
    {
      "inputs": [],
      "name": "InvalidSetGemstoneRateInput",
      "type": "error"
    },
    {
      "inputs": [],
      "name": "InvalidSetNFTGemstoneMultiplierInput",
      "type": "error"
    },
    {
      "inputs": [],
      "name": "InvalidSetRarityMultiplierInput",
      "type": "error"
    },
    {
      "inputs": [],
      "name": "NFTCollectionNotWhitelisted",
      "type": "error"
    },
    {
      "inputs": [],
      "name": "NotOwnerOfExpedition",
      "type": "error"
    },
    {
      "inputs": [],
      "name": "TokenIdInputEmpty",
      "type": "error"
    },
    {
      "anonymous": false,
      "inputs": [
        {
          "indexed": false,
          "internalType": "address",
          "name": "newRegistry",
          "type": "address"
        }
      ],
      "name": "AddressRegistryUpdated",
      "type": "event"
    },
    {
      "anonymous": false,
      "inputs": [
        {
          "indexed": false,
          "internalType": "uint256",
          "name": "newRate",
          "type": "uint256"
        }
      ],
      "name": "BaseStardustRateUpdated",
      "type": "event"
    },
    {
      "anonymous": false,
      "inputs": [
        {
          "indexed": false,
          "internalType": "uint256",
          "name": "newDuration",
          "type": "uint256"
        }
      ],
      "name": "ExpeditionDurationUpdated",
      "type": "event"
    },
    {
      "anonymous": false,
      "inputs": [
        {
          "indexed": true,
          "internalType": "address",
          "name": "user",
          "type": "address"
        },
        {
          "indexed": true,
          "internalType": "uint256",
          "name": "expeditionId",
          "type": "uint256"
        },
        {
          "indexed": false,
          "internalType": "uint256",
          "name": "timeEnded",
          "type": "uint256"
        }
      ],
      "name": "ExpeditionEnded",
      "type": "event"
    },
    {
      "anonymous": false,
      "inputs": [
        {
          "indexed": true,
          "internalType": "address",
          "name": "user",
          "type": "address"
        },
        {
          "indexed": true,
          "internalType": "uint256",
          "name": "expeditionId",
          "type": "uint256"
        },
        {
          "indexed": false,
          "internalType": "uint256",
          "name": "planetId",
          "type": "uint256"
        },
        {
          "indexed": false,
          "internalType": "uint256[]",
          "name": "tokenIds",
          "type": "uint256[]"
        },
        {
          "indexed": false,
          "internalType": "address[]",
          "name": "collectionAddresses",
          "type": "address[]"
        },
        {
          "indexed": false,
          "internalType": "uint256",
          "name": "startTime",
          "type": "uint256"
        },
        {
          "indexed": false,
          "internalType": "uint256",
          "name": "endTime",
          "type": "uint256"
        }
      ],
      "name": "ExpeditionStarted",
      "type": "event"
    },
    {
      "anonymous": false,
      "inputs": [
        {
          "indexed": false,
          "internalType": "uint8[]",
          "name": "_levels",
          "type": "uint8[]"
        },
        {
          "indexed": false,
          "internalType": "uint256[]",
          "name": "_rates",
          "type": "uint256[]"
        }
      ],
      "name": "GemstoneRateUpdated",
      "type": "event"
    },
    {
      "anonymous": false,
      "inputs": [
        {
          "indexed": false,
          "internalType": "uint256",
          "name": "newParameter",
          "type": "uint256"
        }
      ],
      "name": "LevelParameterUpdated",
      "type": "event"
    },
    {
      "anonymous": false,
      "inputs": [
        {
          "indexed": false,
          "internalType": "uint256[]",
          "name": "newMultipliers",
          "type": "uint256[]"
        }
      ],
      "name": "NFTGemstoneMultiplierUpdated",
      "type": "event"
    },
    {
      "anonymous": false,
      "inputs": [
        {
          "indexed": true,
          "internalType": "address",
          "name": "previousOwner",
          "type": "address"
        },
        {
          "indexed": true,
          "internalType": "address",
          "name": "newOwner",
          "type": "address"
        }
      ],
      "name": "OwnershipTransferred",
      "type": "event"
    },
    {
      "anonymous": false,
      "inputs": [
        {
          "indexed": false,
          "internalType": "uint256[]",
          "name": "newMultipliers",
          "type": "uint256[]"
        }
      ],
      "name": "RarityMultiplierUpdated",
      "type": "event"
    },
    {
      "anonymous": false,
      "inputs": [
        {
          "indexed": false,
          "internalType": "uint256",
          "name": "newParameter",
          "type": "uint256"
        }
      ],
      "name": "RarityParameterUpdated",
      "type": "event"
    },
    {
      "anonymous": false,
      "inputs": [
        {
          "indexed": true,
          "internalType": "address",
          "name": "user",
          "type": "address"
        },
        {
          "indexed": true,
          "internalType": "uint256",
          "name": "expeditionId",
          "type": "uint256"
        },
        {
          "indexed": true,
          "internalType": "uint256",
          "name": "gemstoneId",
          "type": "uint256"
        },
        {
          "indexed": false,
          "internalType": "uint256",
          "name": "gemstoneGenerated",
          "type": "uint256"
        },
        {
          "indexed": false,
          "internalType": "uint256",
          "name": "stardust",
          "type": "uint256"
        },
        {
          "indexed": false,
          "internalType": "uint256",
          "name": "startTime",
          "type": "uint256"
        },
        {
          "indexed": false,
          "internalType": "uint256",
          "name": "endTime",
          "type": "uint256"
        }
      ],
      "name": "RewardsClaimed",
      "type": "event"
    },
    {
      "anonymous": false,
      "inputs": [
        {
          "indexed": false,
          "internalType": "uint256",
          "name": "newFee",
          "type": "uint256"
        }
      ],
      "name": "TaxFeeUpdated",
      "type": "event"
    },
    {
      "anonymous": false,
      "inputs": [
        {
          "indexed": false,
          "internalType": "address",
          "name": "newTreasury",
          "type": "address"
        }
      ],
      "name": "TreasuryUpdated",
      "type": "event"
    },
    {
      "anonymous": false,
      "inputs": [
        {
          "indexed": false,
          "internalType": "address[]",
          "name": "collections",
          "type": "address[]"
        },
        {
          "indexed": false,
          "internalType": "bool",
          "name": "isWhitelisted",
          "type": "bool"
        }
      ],
      "name": "WhitelistedCollectionsUpdated",
      "type": "event"
    },
    {
      "inputs": [],
      "name": "DENOMINATOR",
      "outputs": [
        {
          "internalType": "uint256",
          "name": "",
          "type": "uint256"
        }
      ],
      "stateMutability": "view",
      "type": "function"
    },
    {
      "inputs": [],
      "name": "addressRegistry",
      "outputs": [
        {
          "internalType": "contract AtlantisAddressRegistry",
          "name": "",
          "type": "address"
        }
      ],
      "stateMutability": "view",
      "type": "function"
    },
    {
      "inputs": [],
      "name": "baseStardustRate",
      "outputs": [
        {
          "internalType": "uint256",
          "name": "",
          "type": "uint256"
        }
      ],
      "stateMutability": "view",
      "type": "function"
    },
    {
      "inputs": [
        {
          "internalType": "uint8",
          "name": "_planetLevel",
          "type": "uint8"
        }
      ],
      "name": "calculateNFTsStakable",
      "outputs": [
        {
          "internalType": "uint8",
          "name": "nftsStakable",
          "type": "uint8"
        }
      ],
      "stateMutability": "pure",
      "type": "function"
    },
    {
      "inputs": [
        {
          "internalType": "uint256",
          "name": "_expeditionId",
          "type": "uint256"
        }
      ],
      "name": "calculateRewards",
      "outputs": [
        {
          "internalType": "uint256",
          "name": "",
          "type": "uint256"
        },
        {
          "internalType": "enum AtlantisLib.Element",
          "name": "",
          "type": "uint8"
        },
        {
          "internalType": "uint256",
          "name": "",
          "type": "uint256"
        }
      ],
      "stateMutability": "view",
      "type": "function"
    },
    {
      "inputs": [
        {
          "internalType": "uint8",
          "name": "_planetLevel",
          "type": "uint8"
        },
        {
          "internalType": "uint8",
          "name": "_planetOrbit",
          "type": "uint8"
        }
      ],
      "name": "calculateStardustPerExpedition",
      "outputs": [
        {
          "internalType": "uint256",
          "name": "",
          "type": "uint256"
        }
      ],
      "stateMutability": "view",
      "type": "function"
    },
    {
      "inputs": [
        {
          "internalType": "uint256[]",
          "name": "_expeditionIds",
          "type": "uint256[]"
        }
      ],
      "name": "claimRewards",
      "outputs": [],
      "stateMutability": "payable",
      "type": "function"
    },
    {
      "inputs": [],
      "name": "currentExpeditionId",
      "outputs": [
        {
          "internalType": "uint256",
          "name": "",
          "type": "uint256"
        }
      ],
      "stateMutability": "view",
      "type": "function"
    },
    {
      "inputs": [
        {
          "internalType": "uint256[]",
          "name": "_expeditionIds",
          "type": "uint256[]"
        }
      ],
      "name": "endExpeditions",
      "outputs": [],
      "stateMutability": "nonpayable",
      "type": "function"
    },
    {
      "inputs": [],
      "name": "expeditionDuration",
      "outputs": [
        {
          "internalType": "uint256",
          "name": "",
          "type": "uint256"
        }
      ],
      "stateMutability": "view",
      "type": "function"
    },
    {
      "inputs": [
        {
          "internalType": "uint256",
          "name": "",
          "type": "uint256"
        }
      ],
      "name": "expeditions",
      "outputs": [
        {
          "internalType": "uint256",
          "name": "id",
          "type": "uint256"
        },
        {
          "internalType": "uint256",
          "name": "planetId",
          "type": "uint256"
        },
        {
          "internalType": "uint256",
          "name": "startTime",
          "type": "uint256"
        },
        {
          "internalType": "uint256",
          "name": "endTime",
          "type": "uint256"
        },
        {
          "internalType": "address",
          "name": "owner",
          "type": "address"
        },
        {
          "internalType": "bool",
          "name": "hasEnded",
          "type": "bool"
        }
      ],
      "stateMutability": "view",
      "type": "function"
    },
    {
      "inputs": [
        {
          "internalType": "uint8",
          "name": "_planetLevel",
          "type": "uint8"
        },
        {
          "internalType": "uint8",
          "name": "_planetOrbit",
          "type": "uint8"
        },
        {
          "internalType": "uint8",
          "name": "_amountArgonauts",
          "type": "uint8"
        }
      ],
      "name": "gemstoneGenerated",
      "outputs": [
        {
          "internalType": "uint256",
          "name": "",
          "type": "uint256"
        }
      ],
      "stateMutability": "view",
      "type": "function"
    },
    {
      "inputs": [
        {
          "internalType": "uint8",
          "name": "",
          "type": "uint8"
        }
      ],
      "name": "gemstoneRate",
      "outputs": [
        {
          "internalType": "uint256",
          "name": "",
          "type": "uint256"
        }
      ],
      "stateMutability": "view",
      "type": "function"
    },
    {
      "inputs": [
        {
          "internalType": "uint256",
          "name": "_expeditionId",
          "type": "uint256"
        }
      ],
      "name": "getExpeditionInfo",
      "outputs": [
        {
          "components": [
            {
              "internalType": "address[]",
              "name": "collectionAddresses",
              "type": "address[]"
            },
            {
              "internalType": "uint256[]",
              "name": "tokenIds",
              "type": "uint256[]"
            },
            {
              "internalType": "uint256",
              "name": "id",
              "type": "uint256"
            },
            {
              "internalType": "uint256",
              "name": "planetId",
              "type": "uint256"
            },
            {
              "internalType": "uint256",
              "name": "startTime",
              "type": "uint256"
            },
            {
              "internalType": "uint256",
              "name": "endTime",
              "type": "uint256"
            },
            {
              "internalType": "address",
              "name": "owner",
              "type": "address"
            },
            {
              "internalType": "bool",
              "name": "hasEnded",
              "type": "bool"
            }
          ],
          "internalType": "struct IAtlantis.Expedition",
          "name": "",
          "type": "tuple"
        }
      ],
      "stateMutability": "view",
      "type": "function"
    },
    {
      "inputs": [],
      "name": "levelParameter",
      "outputs": [
        {
          "internalType": "uint256",
          "name": "",
          "type": "uint256"
        }
      ],
      "stateMutability": "view",
      "type": "function"
    },
    {
      "inputs": [
        {
          "internalType": "uint256",
          "name": "",
          "type": "uint256"
        }
      ],
      "name": "nftGemstoneMultiplier",
      "outputs": [
        {
          "internalType": "uint256",
          "name": "",
          "type": "uint256"
        }
      ],
      "stateMutability": "view",
      "type": "function"
    },
    {
      "inputs": [
        {
          "internalType": "address",
          "name": "",
          "type": "address"
        },
        {
          "internalType": "address",
          "name": "",
          "type": "address"
        },
        {
          "internalType": "uint256",
          "name": "",
          "type": "uint256"
        },
        {
          "internalType": "bytes",
          "name": "",
          "type": "bytes"
        }
      ],
      "name": "onERC721Received",
      "outputs": [
        {
          "internalType": "bytes4",
          "name": "",
          "type": "bytes4"
        }
      ],
      "stateMutability": "nonpayable",
      "type": "function"
    },
    {
      "inputs": [],
      "name": "owner",
      "outputs": [
        {
          "internalType": "address",
          "name": "",
          "type": "address"
        }
      ],
      "stateMutability": "view",
      "type": "function"
    },
    {
      "inputs": [
        {
          "internalType": "uint256",
          "name": "",
          "type": "uint256"
        }
      ],
      "name": "rarityMultiplier",
      "outputs": [
        {
          "internalType": "uint256",
          "name": "",
          "type": "uint256"
        }
      ],
      "stateMutability": "view",
      "type": "function"
    },
    {
      "inputs": [],
      "name": "rarityParameter",
      "outputs": [
        {
          "internalType": "uint256",
          "name": "",
          "type": "uint256"
        }
      ],
      "stateMutability": "view",
      "type": "function"
    },
    {
      "inputs": [],
      "name": "renounceOwnership",
      "outputs": [],
      "stateMutability": "nonpayable",
      "type": "function"
    },
    {
      "inputs": [
        {
          "internalType": "contract AtlantisAddressRegistry",
          "name": "_addressRegistry",
          "type": "address"
        }
      ],
      "name": "setAddressRegistry",
      "outputs": [],
      "stateMutability": "nonpayable",
      "type": "function"
    },
    {
      "inputs": [
        {
          "internalType": "uint256",
          "name": "_baseStardustRate",
          "type": "uint256"
        }
      ],
      "name": "setBaseStardustRate",
      "outputs": [],
      "stateMutability": "nonpayable",
      "type": "function"
    },
    {
      "inputs": [
        {
          "internalType": "uint256",
          "name": "_duration",
          "type": "uint256"
        }
      ],
      "name": "setExpeditionDuration",
      "outputs": [],
      "stateMutability": "nonpayable",
      "type": "function"
    },
    {
      "inputs": [
        {
          "internalType": "uint8[]",
          "name": "_levels",
          "type": "uint8[]"
        },
        {
          "internalType": "uint256[]",
          "name": "_rates",
          "type": "uint256[]"
        }
      ],
      "name": "setGemstoneRate",
      "outputs": [],
      "stateMutability": "nonpayable",
      "type": "function"
    },
    {
      "inputs": [
        {
          "internalType": "uint256",
          "name": "_levelParameter",
          "type": "uint256"
        }
      ],
      "name": "setLevelParameter",
      "outputs": [],
      "stateMutability": "nonpayable",
      "type": "function"
    },
    {
      "inputs": [
        {
          "internalType": "uint256[]",
          "name": "_multipliers",
          "type": "uint256[]"
        }
      ],
      "name": "setNftGemstoneMultiplier",
      "outputs": [],
      "stateMutability": "nonpayable",
      "type": "function"
    },
    {
      "inputs": [
        {
          "internalType": "uint256[]",
          "name": "_multipliers",
          "type": "uint256[]"
        }
      ],
      "name": "setRarityMultiplier",
      "outputs": [],
      "stateMutability": "nonpayable",
      "type": "function"
    },
    {
      "inputs": [
        {
          "internalType": "uint256",
          "name": "_rarityParameter",
          "type": "uint256"
        }
      ],
      "name": "setRarityParameter",
      "outputs": [],
      "stateMutability": "nonpayable",
      "type": "function"
    },
    {
      "inputs": [
        {
          "internalType": "uint256",
          "name": "_taxFee",
          "type": "uint256"
        }
      ],
      "name": "setTaxFee",
      "outputs": [],
      "stateMutability": "nonpayable",
      "type": "function"
    },
    {
      "inputs": [
        {
          "internalType": "address",
          "name": "_treasury",
          "type": "address"
        }
      ],
      "name": "setTreasury",
      "outputs": [],
      "stateMutability": "nonpayable",
      "type": "function"
    },
    {
      "inputs": [
        {
          "internalType": "address[]",
          "name": "_collectionAddresses",
          "type": "address[]"
        },
        {
          "internalType": "bool",
          "name": "_status",
          "type": "bool"
        }
      ],
      "name": "setWhitelistedCollections",
      "outputs": [],
      "stateMutability": "nonpayable",
      "type": "function"
    },
    {
      "inputs": [
        {
          "internalType": "uint256",
          "name": "_planetId",
          "type": "uint256"
        },
        {
          "internalType": "address[]",
          "name": "_collectionAddresses",
          "type": "address[]"
        },
        {
          "internalType": "uint256[]",
          "name": "_tokenIds",
          "type": "uint256[]"
        }
      ],
      "name": "startExpedition",
      "outputs": [],
      "stateMutability": "payable",
      "type": "function"
    },
    {
      "inputs": [
        {
          "internalType": "uint256[]",
          "name": "_planetIds",
          "type": "uint256[]"
        }
      ],
      "name": "startMultipleExpeditions",
      "outputs": [],
      "stateMutability": "payable",
      "type": "function"
    },
    {
      "inputs": [],
      "name": "taxFee",
      "outputs": [
        {
          "internalType": "uint256",
          "name": "",
          "type": "uint256"
        }
      ],
      "stateMutability": "view",
      "type": "function"
    },
    {
      "inputs": [
        {
          "internalType": "address",
          "name": "newOwner",
          "type": "address"
        }
      ],
      "name": "transferOwnership",
      "outputs": [],
      "stateMutability": "nonpayable",
      "type": "function"
    },
    {
      "inputs": [],
      "name": "treasury",
      "outputs": [
        {
          "internalType": "address",
          "name": "",
          "type": "address"
        }
      ],
      "stateMutability": "view",
      "type": "function"
    },
    {
      "inputs": [
        {
          "internalType": "address",
          "name": "",
          "type": "address"
        }
      ],
      "name": "whitelistedCollections",
      "outputs": [
        {
          "internalType": "bool",
          "name": "",
          "type": "bool"
        }
      ],
      "stateMutability": "view",
      "type": "function"
    },
    {
      "inputs": [
        {
          "internalType": "address",
          "name": "_tokenAddress",
          "type": "address"
        },
        {
          "internalType": "uint256",
          "name": "_amount",
          "type": "uint256"
        }
      ],
      "name": "withdrawERC20",
      "outputs": [],
      "stateMutability": "nonpayable",
      "type": "function"
    }
  ],
  "transactionHash": "0xbf8b4071188a22bf3c59702deb6fd3cdc5c81341cad73f52a19e5ae2127b91d5",
  "args": [
    "0xf0776a4F32a4F95649D3b1c79eb5FFE6c43e53F3",
    "0x7AECa63e4B51b0Ff8A8a82b3231033ca4CA6301b"
  ],
  "numDeployments": 1,
  "solcInputHash": "34577a6b37a6d9ddf2274aecac30df32",
  "bytecode": "0x60806040526802b5e3af16b18800006003556001600455601460055560006011556203f4806012556703782dace9d900006013553480156200004057600080fd5b506040516200371938038062003719833981016040819052620000639162000207565b6200006e336200019e565b60018055600280546001600160a01b0319166001600160a01b03848116919091179091558116620000e55760405162461bcd60e51b815260206004820152601860248201527f496e76616c696420747265617375727920616464726573730000000000000000604482015260640160405180910390fd5b601480546001600160a01b0319166001600160a01b0383811691909117909155600254604080516366776c7360e11b81529051600093929092169163cceed8e6916004808201926020929091908290030181865afa1580156200014c573d6000803e3d6000fd5b505050506040513d601f19601f8201168201806040525081019062000172919062000246565b6001600160a01b03166000908152600f60205260409020805460ff19166001179055506200026d915050565b600080546001600160a01b038381166001600160a01b0319831681178455604051919092169283917f8be0079c531659141344cd1fd0a4f28419497f9722a3daafe3b4186f6b6457e09190a35050565b6001600160a01b03811681146200020457600080fd5b50565b600080604083850312156200021b57600080fd5b82516200022881620001ee565b60208401519092506200023b81620001ee565b809150509250929050565b6000602082840312156200025957600080fd5b81516200026681620001ee565b9392505050565b61349c806200027d6000396000f3fe6080604052600436106102305760003560e01c80638da5cb5b1161012e578063b9c664f2116100ab578063f0f442601161006f578063f0f4426014610729578063f2a66dd814610749578063f2fde38b1461075f578063f3ad65f41461077f578063ff50bdf11461079f57600080fd5b8063b9c664f214610687578063bc706197146106a7578063c4081a4c146106c7578063d3ea4350146106e7578063d9f35af71461071657600080fd5b80639b64e2aa116100f25780639b64e2aa146105ec578063a071dcf41461060c578063a1db978214610622578063aa81f68314610642578063aadc06101461065557600080fd5b80638da5cb5b146105635780638dde84351461058157806390c5451014610597578063918f8674146105b75780639763af1a146105cc57600080fd5b80634f05cbd8116101bc578063715018a611610180578063715018a6146104b457806375175b48146104c9578063773bfc68146104e957806377bcb89014610516578063835a8e8f1461054357600080fd5b80634f05cbd8146103e95780635bb3ce12146104295780635eac62391461044957806361d027b31461045c5780636b46e3161461049457600080fd5b806327c7812c1161020357806327c7812c1461035d57806337ef65d51461037d5780633fc846de14610393578063481b6067146103b35780634c726710146103d357600080fd5b8063020222c5146102355780630df4343e1461025757806314a327501461028a578063150b7a0214610324575b600080fd5b34801561024157600080fd5b506102556102503660046129dc565b6107b5565b005b34801561026357600080fd5b50610277610272366004612a20565b610867565b6040519081526020015b60405180910390f35b34801561029657600080fd5b506102ec6102a5366004612a6b565b60106020526000908152604090206002810154600382015460048301546005840154600690940154929391929091906001600160a01b03811690600160a01b900460ff1686565b6040805196875260208701959095529385019290925260608401526001600160a01b03166080830152151560a082015260c001610281565b34801561033057600080fd5b5061034461033f366004612a99565b610901565b6040516001600160e01b03199091168152602001610281565b34801561036957600080fd5b50610255610378366004612b5d565b610912565b34801561038957600080fd5b5061027760045481565b34801561039f57600080fd5b506102776103ae366004612a6b565b610967565b3480156103bf57600080fd5b506102556103ce3660046129dc565b61097e565b3480156103df57600080fd5b5061027760035481565b3480156103f557600080fd5b50610419610404366004612b5d565b600f6020526000908152604090205460ff1681565b6040519015158152602001610281565b34801561043557600080fd5b50610255610444366004612a6b565b610a25565b610255610457366004612b81565b610a62565b34801561046857600080fd5b5060145461047c906001600160a01b031681565b6040516001600160a01b039091168152602001610281565b3480156104a057600080fd5b506102556104af366004612bf6565b610d2b565b3480156104c057600080fd5b50610255610e02565b3480156104d557600080fd5b506102556104e4366004612a6b565b610e16565b3480156104f557600080fd5b50610509610504366004612a6b565b610e53565b6040516102819190612cf3565b34801561052257600080fd5b50610277610531366004612dc1565b60066020526000908152604090205481565b34801561054f57600080fd5b5061025561055e366004612a6b565b610fc7565b34801561056f57600080fd5b506000546001600160a01b031661047c565b34801561058d57600080fd5b5061027760125481565b3480156105a357600080fd5b506102556105b2366004612a6b565b611004565b3480156105c357600080fd5b50610277606481565b3480156105d857600080fd5b506102556105e7366004612b81565b611041565b3480156105f857600080fd5b50610277610607366004612a6b565b611091565b34801561061857600080fd5b5061027760135481565b34801561062e57600080fd5b5061025561063d366004612dde565b6110a1565b610255610650366004612e6e565b6110bd565b34801561066157600080fd5b50610675610670366004612dc1565b611565565b60405160ff9091168152602001610281565b34801561069357600080fd5b506102556106a2366004612ee9565b6115d7565b3480156106b357600080fd5b506102776106c2366004612f3b565b611678565b3480156106d357600080fd5b506102556106e2366004612a6b565b611758565b3480156106f357600080fd5b50610707610702366004612a6b565b611795565b60405161028193929190612f7f565b6102556107243660046129dc565b611a0e565b34801561073557600080fd5b50610255610744366004612b5d565b611dbd565b34801561075557600080fd5b5061027760115481565b34801561076b57600080fd5b5061025561077a366004612b5d565b611e69565b34801561078b57600080fd5b5060025461047c906001600160a01b031681565b3480156107ab57600080fd5b5061027760055481565b6107bd611ee2565b80516004146107df57604051630a0c531d60e21b815260040160405180910390fd5b60005b815181101561082c578181815181106107fd576107fd612fb5565b6020026020010151600b826004811061081857610818612fb5565b01558061082481612fe1565b9150506107e2565b507f98ca19bdb11270949fde3a63b16fa2bed6423bb119c5c843b790e52dd8e78b738160405161085c9190612ffa565b60405180910390a150565b600080610876600a6064613023565b60078460ff166004811061088c5761088c612fb5565b015461089a600a6064613023565b600b8760ff16600481106108b0576108b0612fb5565b01546108bc9190613037565b60ff88166000908152600660205260409020546108d99190613037565b6108e39190613037565b6108ed9190613037565b90506108f881611f3c565b95945050505050565b630a85bd0160e11b5b949350505050565b61091a611ee2565b600280546001600160a01b0319166001600160a01b0383169081179091556040519081527e642c94770a2c959864e4fbb2263a24c595122ac021c793bde7e74ccd8a95929060200161085c565b600b816004811061097757600080fd5b0154905081565b610986611ee2565b80516004146109a857604051633c7d600160e21b815260040160405180910390fd5b60005b81518110156109f5578181815181106109c6576109c6612fb5565b6020026020010151600782600481106109e1576109e1612fb5565b0155806109ed81612fe1565b9150506109ab565b507f596fa74df10fee1c054d0da789f1c93264dcabf896d901d62468b96b78acb3968160405161085c9190612ffa565b610a2d611ee2565b60058190556040518181527f37a3f859af53950ef188652dad3d67bd0a3344f046a87c53939feb1995823f389060200161085c565b610a6a611f90565b601354610a78908290613037565b3414610a9f5760405162461bcd60e51b8152600401610a969061304e565b60405180910390fd5b6014546013546000916001600160a01b031690610abd908490613037565b604051600081818185875af1925050503d8060008114610af9576040519150601f19603f3d011682016040523d82523d6000602084013e610afe565b606091505b5050905080610b1f5760405162461bcd60e51b8152600401610a9690613077565b60005b82811015610d1c57610b4b848483818110610b3f57610b3f612fb5565b90506020020135611fe9565b600060106000868685818110610b6357610b63612fb5565b9050602002013581526020019081526020016000206040518061010001604052908160008201805480602002602001604051908101604052809291908181526020018280548015610bdd57602002820191906000526020600020905b81546001600160a01b03168152600190910190602001808311610bbf575b5050505050815260200160018201805480602002602001604051908101604052809291908181526020018280548015610c3557602002820191906000526020600020905b815481526020019060010190808311610c21575b5050509183525050600282015460208201526003820154604082015260048201546060820152600582015460808201526006909101546001600160a01b03811660a0830152600160a01b900460ff16151560c0909101529050848483818110610ca057610ca0612fb5565b90506020020135336001600160a01b03167fe6a5300ea998c525f257e87871550bc4e6c3c9234da6429f7194854d5131159b8360600151846020015185600001514260125442610cf091906130a0565b604051610d019594939291906130ec565b60405180910390a35080610d1481612fe1565b915050610b22565b5050610d2760018055565b5050565b610d33611ee2565b8051825114610d5557604051637ee7a24760e01b815260040160405180910390fd5b60005b8251811015610dc457818181518110610d7357610d73612fb5565b602002602001015160066000858481518110610d9157610d91612fb5565b602002602001015160ff1660ff168152602001908152602001600020819055508080610dbc90612fe1565b915050610d58565b507fc156667c1ebccb7c542c0b4cabb127e2cd3677718b0ba369c27d30b452e19d0e8282604051610df692919061312c565b60405180910390a15050565b610e0a611ee2565b610e1460006122f3565b565b610e1e611ee2565b60128190556040518181527fc38cdc4f7fb60e3e5423e4fefd869dfab2469e11d215c708825ae79d48dae0b09060200161085c565b610ea660405180610100016040528060608152602001606081526020016000815260200160008152602001600081526020016000815260200160006001600160a01b031681526020016000151581525090565b600082815260106020908152604091829020825181546101209381028201840190945261010081018481529093919284928491840182828015610f1257602002820191906000526020600020905b81546001600160a01b03168152600190910190602001808311610ef4575b5050505050815260200160018201805480602002602001604051908101604052809291908181526020018280548015610f6a57602002820191906000526020600020905b815481526020019060010190808311610f56575b5050509183525050600282015460208201526003820154604082015260048201546060820152600582015460808201526006909101546001600160a01b03811660a0830152600160a01b900460ff16151560c09091015292915050565b610fcf611ee2565b60048190556040518181527f8217da956dcf4d73c51aa9de7149058021c2983d24c79e5d7239820b5b2ea81d9060200161085c565b61100c611ee2565b60038190556040518181527f8277f39c6c6c1583753ebd5b813ef80f2e4abe3c7f91be6aaa1713c1b6274ee39060200161085c565b611049611f90565b60005b818110156110875761107583838381811061106957611069612fb5565b90506020020135612343565b8061107f81612fe1565b91505061104c565b50610d2760018055565b6007816004811061097757600080fd5b6110a9611ee2565b610d276001600160a01b03831633836125dc565b60135434146110de5760405162461bcd60e51b8152600401610a969061304e565b60025460408051635c9a1a3d60e01b815290516000926001600160a01b031691635c9a1a3d9160048083019260209291908290030181865afa158015611128573d6000803e3d6000fd5b505050506040513d601f19601f8201168201806040525081019061114c9190613186565b6014546013546040519293506000926001600160a01b03909216918381818185875af1925050503d806000811461119f576040519150601f19603f3d011682016040523d82523d6000602084013e6111a4565b606091505b50509050806111c55760405162461bcd60e51b8152600401610a9690613077565b60405163058d950160e41b8152600481018690526000906001600160a01b038416906358d950109060240160c060405180830381865afa15801561120d573d6000803e3d6000fd5b505050506040513d601f19601f8201168201806040525081019061123191906131cc565b51845186519192501461125757604051632b6ccf6960e11b815260040160405180910390fd5b61126081611565565b60ff168551111561128457604051632b6ccf6960e11b815260040160405180910390fd5b6040518061010001604052808681526020018581526020016011548152602001878152602001428152602001601254426112be91906130a0565b81523360208083019190915260006040928301819052601154815260108252919091208251805191926112f692849290910190612828565b50602082810151805161130f926001850192019061288d565b5060408201516002820155606082015160038201556080820151600482015560a0820151600582015560c08201516006909101805460e0909301511515600160a01b026001600160a81b03199093166001600160a01b03909216919091179190911790556011805490600061138383612fe1565b9091555050604051632142170760e11b81526001600160a01b038416906342842e0e906113b890339030908b9060040161325b565b600060405180830381600087803b1580156113d257600080fd5b505af11580156113e6573d6000803e3d6000fd5b5050505060005b85518110156114f757600f600087838151811061140c5761140c612fb5565b6020908102919091018101516001600160a01b031682528101919091526040016000205460ff166114505760405163bd30795160e01b815260040160405180910390fd5b85818151811061146257611462612fb5565b60200260200101516001600160a01b03166342842e0e333088858151811061148c5761148c612fb5565b60200260200101516040518463ffffffff1660e01b81526004016114b29392919061325b565b600060405180830381600087803b1580156114cc57600080fd5b505af11580156114e0573d6000803e3d6000fd5b5050505080806114ef90612fe1565b9150506113ed565b506001601154611507919061327f565b336001600160a01b03167fe6a5300ea998c525f257e87871550bc4e6c3c9234da6429f7194854d5131159b888789426012544261154491906130a0565b6040516115559594939291906130ec565b60405180910390a3505050505050565b600060148260ff16101561157b57506000919050565b60148260ff16101580156115925750601e8260ff16105b1561159f57506001919050565b601e8260ff16101580156115b6575060288260ff16105b156115c357506002919050565b60288260ff16106115d2575060035b919050565b6115df611ee2565b60005b82518110156116465781600f600085848151811061160257611602612fb5565b6020908102919091018101516001600160a01b03168252810191909152604001600020805460ff19169115159190911790558061163e81612fe1565b9150506115e2565b507f7070c17b430b654066a20658692bf86a10069f5cd94e3492caee49d9c21f32e88282604051610df6929190613292565b60008260ff1660000361168e5750600354611752565b60ff8084169083166116a26003606461339a565b6003546116b16002606461339a565b6005546116bf606486613037565b6116c99190613037565b6116d391906130a0565b6116df6002606461339a565b6116eb6003606461339a565b600454600260646116fd60018b61327f565b6117079190613037565b611711919061339a565b61171b9190613037565b61172591906130a0565b61172f9190613023565b6117399190613037565b6117439190613037565b61174d9190613023565b925050505b92915050565b611760611ee2565b60138190556040518181527faa4b71ac29531fdea0ef1650c76ef91e3771dac25f4a4dd2a561ff3e0b9a5de29060200161085c565b600080600080600260009054906101000a90046001600160a01b03166001600160a01b0316635c9a1a3d6040518163ffffffff1660e01b8152600401602060405180830381865afa1580156117ee573d6000803e3d6000fd5b505050506040513d601f19601f820116820180604052508101906118129190613186565b600086815260106020908152604080832081518154610120948102820185019093526101008101838152959650939490928492849184018282801561188057602002820191906000526020600020905b81546001600160a01b03168152600190910190602001808311611862575b50505050508152602001600182018054806020026020016040519081016040528092919081815260200182805480156118d857602002820191906000526020600020905b8154815260200190600101908083116118c4575b5050509183525050600282015460208201526003820154604080830191909152600480840154606080850191909152600585015460808501526006909401546001600160a01b0380821660a0860152600160a01b90910460ff16151560c09094019390935292840151905163058d950160e41b8152928301819052929350600091908516906358d950109060240160c060405180830381865afa158015611983573d6000803e3d6000fd5b505050506040513d601f19601f820116820180604052508101906119a791906131cc565b905060006119d48260000151836040015160038111156119c9576119c9612f69565b866020015151610867565b905060006119f68360000151846040015160038111156106c2576106c2612f69565b60209390930151919a91995091975095505050505050565b6000815111611a535760405162461bcd60e51b8152602060048201526011602482015270496e76616c696420706c616e657449647360781b6044820152606401610a96565b8051601354611a629190613037565b3414611a805760405162461bcd60e51b8152600401610a969061304e565b60025460408051635c9a1a3d60e01b815290516000926001600160a01b031691635c9a1a3d9160048083019260209291908290030181865afa158015611aca573d6000803e3d6000fd5b505050506040513d601f19601f82011682018060405250810190611aee9190613186565b60145483516013549293506000926001600160a01b0390921691611b129190613037565b604051600081818185875af1925050503d8060008114611b4e576040519150601f19603f3d011682016040523d82523d6000602084013e611b53565b606091505b5050905080611b745760405162461bcd60e51b8152600401610a9690613077565b604080516000808252602082018181528284019093529091905b8551811015611db5576040518061010001604052808481526020018381526020016011548152602001878381518110611bc957611bc9612fb5565b6020026020010151815260200142815260200160125442611bea91906130a0565b8152336020808301919091526000604092830181905260115481526010825291909120825180519192611c2292849290910190612828565b506020828101518051611c3b926001850192019061288d565b5060408201516002820155606082015160038201556080820151600482015560a0820151600582015560c08201516006909101805460e0909301511515600160a01b026001600160a81b03199093166001600160a01b039092169190911791909117905560118054906000611caf83612fe1565b9190505550846001600160a01b03166342842e0e3330898581518110611cd757611cd7612fb5565b60200260200101516040518463ffffffff1660e01b8152600401611cfd9392919061325b565b600060405180830381600087803b158015611d1757600080fd5b505af1158015611d2b573d6000803e3d6000fd5b505050506001601154611d3e919061327f565b336001600160a01b03167fe6a5300ea998c525f257e87871550bc4e6c3c9234da6429f7194854d5131159b888481518110611d7b57611d7b612fb5565b602002602001015185874260125442611d9491906130a0565b604051611da59594939291906130ec565b60405180910390a3600101611b8e565b505050505050565b611dc5611ee2565b6001600160a01b038116611e1b5760405162461bcd60e51b815260206004820152601860248201527f496e76616c6964207472656173757279206164647265737300000000000000006044820152606401610a96565b601480546001600160a01b0319166001600160a01b0383169081179091556040519081527f7dae230f18360d76a040c81f050aa14eb9d6dc7901b20fc5d855e2a20fe814d19060200161085c565b611e71611ee2565b6001600160a01b038116611ed65760405162461bcd60e51b815260206004820152602660248201527f4f776e61626c653a206e6577206f776e657220697320746865207a65726f206160448201526564647265737360d01b6064820152608401610a96565b611edf816122f3565b50565b6000546001600160a01b03163314610e145760405162461bcd60e51b815260206004820181905260248201527f4f776e61626c653a2063616c6c6572206973206e6f7420746865206f776e65726044820152606401610a96565b6000611f4a6002606461339a565b611f5490836133a9565b15611f7a57611f656002606461339a565b611f6f9083613023565b6117529060016130a0565b611f866002606461339a565b6117529083613023565b600260015403611fe25760405162461bcd60e51b815260206004820152601f60248201527f5265656e7472616e637947756172643a207265656e7472616e742063616c6c006044820152606401610a96565b6002600155565b6000818152601060205260409020600601546001600160a01b03163314612023576040516309a6da5960e21b815260040160405180910390fd5b6002546040805163301c981160e21b815290516000926001600160a01b03169163c07260449160048083019260209291908290030181865afa15801561206d573d6000803e3d6000fd5b505050506040513d601f19601f820116820180604052508101906120919190613186565b90506000600260009054906101000a90046001600160a01b03166001600160a01b031663786d10866040518163ffffffff1660e01b8152600401602060405180830381865afa1580156120e8573d6000803e3d6000fd5b505050506040513d601f19601f8201168201806040525081019061210c9190613186565b6000848152601060205260409020600681015491925090600160a01b900460ff161561214b57604051631b99c4ff60e21b815260040160405180910390fd5b42816005015411156121705760405163107f326d60e21b815260040160405180910390fd5b6000848152601060205260409020426004909101819055601254612193916130a0565b60008581526010602052604081206005019190915580806121b387611795565b90945090925090506121cf6001600160a01b03871633836125dc565b846001600160a01b031663156e29f6338560028111156121f1576121f1612f69565b6121fc9060016133bd565b6040516001600160e01b031960e085901b1681526001600160a01b03909216600483015260ff16602482015260448101859052606401600060405180830381600087803b15801561224c57600080fd5b505af1158015612260573d6000803e3d6000fd5b5050505082600281111561227657612276612f69565b6122819060016133bd565b60ff1687336001600160a01b03167f81cf85e873bf8ffc652276abd1df29c5cc0765b36ab5af38b47472b8fe55e119858589600401548a600501546040516122e2949392919093845260208401929092526040830152606082015260800190565b60405180910390a450505050505050565b600080546001600160a01b038381166001600160a01b0319831681178455604051919092169283917f8be0079c531659141344cd1fd0a4f28419497f9722a3daafe3b4186f6b6457e09190a35050565b60025460408051635c9a1a3d60e01b815290516000926001600160a01b031691635c9a1a3d9160048083019260209291908290030181865afa15801561238d573d6000803e3d6000fd5b505050506040513d601f19601f820116820180604052508101906123b19190613186565b6000838152601060205260409020600681015491925090600160a01b900460ff16156123f057604051631b99c4ff60e21b815260040160405180910390fd5b42816005015411156124155760405163107f326d60e21b815260040160405180910390fd5b60068101546001600160a01b03163314612442576040516309a6da5960e21b815260040160405180910390fd5b60005b81548110156125145781600001818154811061246357612463612fb5565b9060005260206000200160009054906101000a90046001600160a01b03166001600160a01b03166342842e0e30338560010185815481106124a6576124a6612fb5565b90600052602060002001546040518463ffffffff1660e01b81526004016124cf9392919061325b565b600060405180830381600087803b1580156124e957600080fd5b505af11580156124fd573d6000803e3d6000fd5b50505050808061250c90612fe1565b915050612445565b506003810154604051632142170760e11b81526001600160a01b038416916342842e0e9161254991309133919060040161325b565b600060405180830381600087803b15801561256357600080fd5b505af1158015612577573d6000803e3d6000fd5b5050505061258483611fe9565b60068101805460ff60a01b1916600160a01b179055604051839033907f86d343e090426335e1c377c70b8a7b1a23f035994e759823ebb68398098c0cf1906125cf9042815260200190565b60405180910390a3505050565b604080516001600160a01b038416602482015260448082018490528251808303909101815260649091019091526020810180516001600160e01b031663a9059cbb60e01b17905261262e908490612633565b505050565b6000612688826040518060400160405280602081526020017f5361666545524332303a206c6f772d6c6576656c2063616c6c206661696c6564815250856001600160a01b03166127059092919063ffffffff16565b80519091501561262e57808060200190518101906126a691906133d6565b61262e5760405162461bcd60e51b815260206004820152602a60248201527f5361666545524332303a204552433230206f7065726174696f6e20646964206e6044820152691bdd081cdd58d8d9595960b21b6064820152608401610a96565b606061090a848460008585600080866001600160a01b0316858760405161272c9190613417565b60006040518083038185875af1925050503d8060008114612769576040519150601f19603f3d011682016040523d82523d6000602084013e61276e565b606091505b509150915061277f8783838761278a565b979650505050505050565b606083156127f95782516000036127f2576001600160a01b0385163b6127f25760405162461bcd60e51b815260206004820152601d60248201527f416464726573733a2063616c6c20746f206e6f6e2d636f6e74726163740000006044820152606401610a96565b508161090a565b61090a838381511561280e5781518083602001fd5b8060405162461bcd60e51b8152600401610a969190613433565b82805482825590600052602060002090810192821561287d579160200282015b8281111561287d57825182546001600160a01b0319166001600160a01b03909116178255602090920191600190910190612848565b506128899291506128c8565b5090565b82805482825590600052602060002090810192821561287d579160200282015b8281111561287d5782518255916020019190600101906128ad565b5b8082111561288957600081556001016128c9565b634e487b7160e01b600052604160045260246000fd5b60405160c0810167ffffffffffffffff81118282101715612916576129166128dd565b60405290565b604051601f8201601f1916810167ffffffffffffffff81118282101715612945576129456128dd565b604052919050565b600067ffffffffffffffff821115612967576129676128dd565b5060051b60200190565b600082601f83011261298257600080fd5b813560206129976129928361294d565b61291c565b82815260059290921b840181019181810190868411156129b657600080fd5b8286015b848110156129d157803583529183019183016129ba565b509695505050505050565b6000602082840312156129ee57600080fd5b813567ffffffffffffffff811115612a0557600080fd5b61090a84828501612971565b60ff81168114611edf57600080fd5b600080600060608486031215612a3557600080fd5b8335612a4081612a11565b92506020840135612a5081612a11565b91506040840135612a6081612a11565b809150509250925092565b600060208284031215612a7d57600080fd5b5035919050565b6001600160a01b0381168114611edf57600080fd5b60008060008060808587031215612aaf57600080fd5b8435612aba81612a84565b9350602085810135612acb81612a84565b935060408601359250606086013567ffffffffffffffff80821115612aef57600080fd5b818801915088601f830112612b0357600080fd5b813581811115612b1557612b156128dd565b612b27601f8201601f1916850161291c565b91508082528984828501011115612b3d57600080fd5b808484018584013760008482840101525080935050505092959194509250565b600060208284031215612b6f57600080fd5b8135612b7a81612a84565b9392505050565b60008060208385031215612b9457600080fd5b823567ffffffffffffffff80821115612bac57600080fd5b818501915085601f830112612bc057600080fd5b813581811115612bcf57600080fd5b8660208260051b8501011115612be457600080fd5b60209290920196919550909350505050565b60008060408385031215612c0957600080fd5b823567ffffffffffffffff80821115612c2157600080fd5b818501915085601f830112612c3557600080fd5b81356020612c456129928361294d565b82815260059290921b84018101918181019089841115612c6457600080fd5b948201945b83861015612c8b578535612c7c81612a11565b82529482019490820190612c69565b96505086013592505080821115612ca157600080fd5b50612cae85828601612971565b9150509250929050565b600081518084526020808501945080840160005b83811015612ce857815187529582019590820190600101612ccc565b509495945050505050565b60208082528251610100838301819052815161012085018190526000939283019184916101408701905b80841015612d465784516001600160a01b03168252938501936001939093019290850190612d1d565b5093870151868503601f1901604088015293612d628186612cb8565b9450506040870151606087015260608701516080870152608087015160a087015260a087015160c087015260c08701519250612da960e08701846001600160a01b03169052565b60e09690960151151595909401949094529392505050565b600060208284031215612dd357600080fd5b8135612b7a81612a11565b60008060408385031215612df157600080fd5b8235612dfc81612a84565b946020939093013593505050565b600082601f830112612e1b57600080fd5b81356020612e2b6129928361294d565b82815260059290921b84018101918181019086841115612e4a57600080fd5b8286015b848110156129d1578035612e6181612a84565b8352918301918301612e4e565b600080600060608486031215612e8357600080fd5b83359250602084013567ffffffffffffffff80821115612ea257600080fd5b612eae87838801612e0a565b93506040860135915080821115612ec457600080fd5b50612ed186828701612971565b9150509250925092565b8015158114611edf57600080fd5b60008060408385031215612efc57600080fd5b823567ffffffffffffffff811115612f1357600080fd5b612f1f85828601612e0a565b9250506020830135612f3081612edb565b809150509250929050565b60008060408385031215612f4e57600080fd5b8235612f5981612a11565b91506020830135612f3081612a11565b634e487b7160e01b600052602160045260246000fd5b8381526060810160038410612fa457634e487b7160e01b600052602160045260246000fd5b602082019390935260400152919050565b634e487b7160e01b600052603260045260246000fd5b634e487b7160e01b600052601160045260246000fd5b600060018201612ff357612ff3612fcb565b5060010190565b602081526000612b7a6020830184612cb8565b634e487b7160e01b600052601260045260246000fd5b6000826130325761303261300d565b500490565b808202811582820484141761175257611752612fcb565b6020808252600f908201526e496e76616c6964207461782066656560881b604082015260600190565b6020808252600f908201526e151c985b9cd9995c8819985a5b1959608a1b604082015260600190565b8082018082111561175257611752612fcb565b600081518084526020808501945080840160005b83811015612ce85781516001600160a01b0316875295820195908201906001016130c7565b85815260a06020820152600061310560a0830187612cb8565b828103604084015261311781876130b3565b60608401959095525050608001529392505050565b604080825283519082018190526000906020906060840190828701845b8281101561316857815160ff1684529284019290840190600101613149565b5050508381038285015261317c8186612cb8565b9695505050505050565b60006020828403121561319857600080fd5b8151612b7a81612a84565b8051600b81106115d257600080fd5b8051600881106115d257600080fd5b80516115d281612edb565b600060c082840312156131de57600080fd5b6131e66128f3565b82516131f181612a11565b815260208301516003811061320557600080fd5b602082015260408301516004811061321c57600080fd5b604082015261322d606084016131a3565b606082015261323e608084016131b2565b608082015261324f60a084016131c1565b60a08201529392505050565b6001600160a01b039384168152919092166020820152604081019190915260600190565b8181038181111561175257611752612fcb565b6040815260006132a560408301856130b3565b905082151560208301529392505050565b600181815b808511156132f15781600019048211156132d7576132d7612fcb565b808516156132e457918102915b93841c93908002906132bb565b509250929050565b60008261330857506001611752565b8161331557506000611752565b816001811461332b576002811461333557613351565b6001915050611752565b60ff84111561334657613346612fcb565b50506001821b611752565b5060208310610133831016604e8410600b8410161715613374575081810a611752565b61337e83836132b6565b806000190482111561339257613392612fcb565b029392505050565b6000612b7a60ff8416836132f9565b6000826133b8576133b861300d565b500690565b60ff818116838216019081111561175257611752612fcb565b6000602082840312156133e857600080fd5b8151612b7a81612edb565b60005b8381101561340e5781810151838201526020016133f6565b50506000910152565b600082516134298184602087016133f3565b9190910192915050565b60208152600082518060208401526134528160408501602087016133f3565b601f01601f1916919091016040019291505056fea264697066735822122096f81d0ce4ee1fd069163a0e5c9eaf0d032e4cab39b4fd79bf38c09b0f17105464736f6c63430008110033",
  "devdoc": {
    "details": "Send your Argonauts and Planets on an expedition to earn rewards in terms of Stardust tokens and gemstones!",
    "kind": "dev",
    "methods": {
      "calculateNFTsStakable(uint8)": {
        "params": {
          "_planetLevel": "Level of the planet"
        }
      },
      "calculateStardustPerExpedition(uint8,uint8)": {
        "params": {
          "_planetLevel": "Level of the planet",
          "_planetOrbit": "Orbit tier of the planet From Spreadsheet: Stardust earned per expedition = (((planet_level -1) ^ 2) * level_parameter + 1) * ((planet_rarity -1) * rarity_parameter + 1) * stardust_base_rate Planet orbit will always start from 1. Hence, planetOrbit which is planet_rarity, will need to + 1 to match the equation."
        }
      },
      "claimRewards(uint256[])": {
        "params": {
          "_expeditionIds": "ExpeditionIds of expeditions to claim rewards for"
        }
      },
      "constructor": {
        "params": {
          "_registry": "Address registry contract",
          "_treasury": "Address of EOA treasury"
        }
      },
      "endExpeditions(uint256[])": {
        "details": "- Must be called by the owner of the expedition      - Must be called after the expedition has ended (block.timestamp > block.timestamp)      - Must be called before the expedition has been claimed (hasEnded == false)",
        "params": {
          "_expeditionIds": "ExpeditionIds of expeditions to stop"
        }
      },
      "gemstoneGenerated(uint8,uint8,uint8)": {
        "params": {
          "_amountArgonauts": "ExpeditionId of the expedition From Spreadsheet: Gemstone generated / expedition = roundup(base_Gemstone_rate * planet_rarity * argonauts_Gemstone_multiplier)",
          "_planetLevel": "ExpeditionId of the expedition",
          "_planetOrbit": "ExpeditionId of the expedition"
        }
      },
      "getExpeditionInfo(uint256)": {
        "params": {
          "_expeditionId": "Expedition Id"
        },
        "returns": {
          "_0": "Expedition of given expeditionId"
        }
      },
      "onERC721Received(address,address,uint256,bytes)": {
        "details": "See {IERC721Receiver-onERC721Received}. Always returns `IERC721Receiver.onERC721Received.selector`."
      },
      "owner()": {
        "details": "Returns the address of the current owner."
      },
      "renounceOwnership()": {
        "details": "Leaves the contract without owner. It will not be possible to call `onlyOwner` functions anymore. Can only be called by the current owner. NOTE: Renouncing ownership will leave the contract without an owner, thereby removing any functionality that is only available to the owner."
      },
      "setAddressRegistry(address)": {
        "params": {
          "_addressRegistry": "The address of the Address Registry"
        }
      },
      "setBaseStardustRate(uint256)": {
        "params": {
          "_baseStardustRate": "The base stardust rewards rate"
        }
      },
      "setExpeditionDuration(uint256)": {
        "params": {
          "_duration": "The duration of an expedition in seconds"
        }
      },
      "setGemstoneRate(uint8[],uint256[])": {
        "params": {
          "_levels": "The level of the gemstone",
          "_rates": "The rate of the gemstone"
        }
      },
      "setLevelParameter(uint256)": {
        "params": {
          "_levelParameter": "The level parameter for rewards"
        }
      },
      "setNftGemstoneMultiplier(uint256[])": {
        "params": {
          "_multipliers": "The multiplier of the rewards"
        }
      },
      "setRarityParameter(uint256)": {
        "params": {
          "_rarityParameter": "The rarity parameter for rewards"
        }
      },
      "setTaxFee(uint256)": {
        "params": {
          "_taxFee": "The amount tax fee"
        }
      },
      "setTreasury(address)": {
        "params": {
          "_treasury": "Address of treasury"
        }
      },
      "setWhitelistedCollections(address[],bool)": {
        "details": "Only whitelisted collections can be staked",
        "params": {
          "_collectionAddresses": "The address of the collection",
          "_status": "The whitelisted status of the collection"
        }
      },
      "startExpedition(uint256,address[],uint256[])": {
        "details": "NFTs sent on expedition must be whitelisted",
        "params": {
          "_collectionAddresses": "Collection Addresses of nfts to send on expedition",
          "_planetId": "PlanetId of planets to send NFTs on expedition",
          "_tokenIds": "TokenIds of nfts to send on expedition"
        }
      },
      "startMultipleExpeditions(uint256[])": {
        "params": {
          "_planetIds": "PlanetId of planets to send NFTs on expedition"
        }
      },
      "transferOwnership(address)": {
        "details": "Transfers ownership of the contract to a new account (`newOwner`). Can only be called by the current owner."
      },
      "withdrawERC20(address,uint256)": {
        "params": {
          "_amount": "Amount to withdraw",
          "_tokenAddress": "The token address to withdraw"
        }
      }
    },
    "title": "Atlantis - Expedition contract",
    "version": 1
  },
  "userdoc": {
    "errors": {
      "ArrayLengthMismatch()": [
        {
          "notice": "The length of tokenIds and collectionAddress must be the same"
        }
      ],
      "ExpeditionAlreadyEnded()": [
        {
          "notice": "Expedition already ended"
        }
      ],
      "ExpeditionInProgress()": [
        {
          "notice": "Expeditton in progress"
        }
      ],
      "InvalidExpeditionInput()": [
        {
          "notice": "Invalid expedition input"
        }
      ],
      "InvalidSetGemstoneRateInput()": [
        {
          "notice": "Invalid gemstone rate input"
        }
      ],
      "InvalidSetNFTGemstoneMultiplierInput()": [
        {
          "notice": "Invalid inputs while setting NFTGemstoneMultiplier"
        }
      ],
      "InvalidSetRarityMultiplierInput()": [
        {
          "notice": "Invalid inputs while setting RarityMultiplier"
        }
      ],
      "NFTCollectionNotWhitelisted()": [
        {
          "notice": "The nft staked must belong to an approved collection"
        }
      ],
      "NotOwnerOfExpedition()": [
        {
          "notice": "Not the owner of the expedition"
        }
      ],
      "TokenIdInputEmpty()": [
        {
          "notice": "The length of tokenIds should not be 0"
        }
      ]
    },
    "events": {
      "AddressRegistryUpdated(address)": {
        "notice": "Event emitted when registry is updated"
      },
      "BaseStardustRateUpdated(uint256)": {
        "notice": "Event emitted when BaseStardustRate is updated"
      },
      "ExpeditionDurationUpdated(uint256)": {
        "notice": "Event emitted when expedition duration is changed"
      },
      "ExpeditionEnded(address,uint256,uint256)": {
        "notice": "Event emitted when expedition is ended"
      },
      "ExpeditionStarted(address,uint256,uint256,uint256[],address[],uint256,uint256)": {
        "notice": "Event emitted when expedition is started"
      },
      "GemstoneRateUpdated(uint8[],uint256[])": {
        "notice": "Event emitted when gemstone rate is updated"
      },
      "LevelParameterUpdated(uint256)": {
        "notice": "Event emitted when level parameter is updated"
      },
      "NFTGemstoneMultiplierUpdated(uint256[])": {
        "notice": "Event emitted when NFTGemstoneMultiplier is updated"
      },
      "RarityMultiplierUpdated(uint256[])": {
        "notice": "Event emitted when RarityMultiplier is updated"
      },
      "RarityParameterUpdated(uint256)": {
        "notice": "Event emitted when rarity parameter is updated"
      },
      "RewardsClaimed(address,uint256,uint256,uint256,uint256,uint256,uint256)": {
        "notice": "Event emitted when rewards are claimed"
      },
      "TaxFeeUpdated(uint256)": {
        "notice": "Event emitted when tax fee is updated"
      },
      "TreasuryUpdated(address)": {
        "notice": "Event emitted when treasury is updated"
      },
      "WhitelistedCollectionsUpdated(address[],bool)": {
        "notice": "Event emitted when whitelisted collections are updated"
      }
    },
    "kind": "user",
    "methods": {
      "DENOMINATOR()": {
        "notice": "Denominator used for calculation"
      },
      "addressRegistry()": {
        "notice": "Atlantis address registry, which allows contracts to keep track of the latest deployed addresses at all times."
      },
      "baseStardustRate()": {
        "notice": "Base rate of stardust per expedition"
      },
      "calculateNFTsStakable(uint8)": {
        "notice": "Returns number of NFTs that can be staked on the planet"
      },
      "calculateStardustPerExpedition(uint8,uint8)": {
        "notice": "Returns the amount of stardust earned"
      },
      "claimRewards(uint256[])": {
        "notice": "Claims rewards for multiple expeditions"
      },
      "constructor": {
        "notice": "Constructor for Atlantis Expedition"
      },
      "currentExpeditionId()": {
        "notice": "Variable to track current Expedition id"
      },
      "endExpeditions(uint256[])": {
        "notice": "Ends multiple Atlantis Expeditions"
      },
      "expeditionDuration()": {
        "notice": "Variable to track expedition duration"
      },
      "expeditions(uint256)": {
        "notice": "Mapping of user address to array of Expedition struct"
      },
      "gemstoneGenerated(uint8,uint8,uint8)": {
        "notice": "Returns the amount of Gemstones earned"
      },
      "gemstoneRate(uint8)": {
        "notice": "Mapping of level to Gemstone rate"
      },
      "getExpeditionInfo(uint256)": {
        "notice": "Get Expedition Info"
      },
      "levelParameter()": {
        "notice": "Level parameter"
      },
      "nftGemstoneMultiplier(uint256)": {
        "notice": "Mapping of NFTs staked to gemstone multiplier"
      },
      "rarityMultiplier(uint256)": {
        "notice": "Array of orbit to rarity multiplier"
      },
      "rarityParameter()": {
        "notice": "Rarity parameter"
      },
      "setAddressRegistry(address)": {
        "notice": "Set the Address Registry"
      },
      "setBaseStardustRate(uint256)": {
        "notice": "Set the Base Stardust Rate parameter"
      },
      "setExpeditionDuration(uint256)": {
        "notice": "Set the duration of an expedition"
      },
      "setGemstoneRate(uint8[],uint256[])": {
        "notice": "Set the gemstone rate for a level"
      },
      "setLevelParameter(uint256)": {
        "notice": "Set the level parameter"
      },
      "setNftGemstoneMultiplier(uint256[])": {
        "notice": "Set the gemstone multiplier for a NFT"
      },
      "setRarityMultiplier(uint256[])": {
        "notice": "Set the Rarity Multiplier parameter"
      },
      "setRarityParameter(uint256)": {
        "notice": "Set the rarity parameter"
      },
      "setTaxFee(uint256)": {
        "notice": "Set the expedition tax fee"
      },
      "setTreasury(address)": {
        "notice": "Set the treasury address"
      },
      "setWhitelistedCollections(address[],bool)": {
        "notice": "Set the whitelisted status of a collection"
      },
      "startExpedition(uint256,address[],uint256[])": {
        "notice": "Starts an Atlantis Expedition"
      },
      "startMultipleExpeditions(uint256[])": {
        "notice": "Starts multiple expeditions without boosting NFTs"
      },
      "taxFee()": {
        "notice": "Tax fee for going on expeditions"
      },
      "treasury()": {
        "notice": "EOA for treasury"
      },
      "whitelistedCollections(address)": {
        "notice": "Mapping of address to boolean whitelisted status"
      },
      "withdrawERC20(address,uint256)": {
        "notice": "Function to withdraw any ERC20 tokens from the contract"
      }
    },
    "version": 1
  },
  "storageLayout": {
    "storage": [
      {
        "astId": 7,
        "contract": "contracts/Atlantis.sol:Atlantis",
        "label": "_owner",
        "offset": 0,
        "slot": "0",
        "type": "t_address"
      },
      {
        "astId": 123,
        "contract": "contracts/Atlantis.sol:Atlantis",
        "label": "_status",
        "offset": 0,
        "slot": "1",
        "type": "t_uint256"
      },
      {
        "astId": 4319,
        "contract": "contracts/Atlantis.sol:Atlantis",
        "label": "addressRegistry",
        "offset": 0,
        "slot": "2",
        "type": "t_contract(AtlantisAddressRegistry)6190"
      },
      {
        "astId": 4323,
        "contract": "contracts/Atlantis.sol:Atlantis",
        "label": "baseStardustRate",
        "offset": 0,
        "slot": "3",
        "type": "t_uint256"
      },
      {
        "astId": 4327,
        "contract": "contracts/Atlantis.sol:Atlantis",
        "label": "levelParameter",
        "offset": 0,
        "slot": "4",
        "type": "t_uint256"
      },
      {
        "astId": 4331,
        "contract": "contracts/Atlantis.sol:Atlantis",
        "label": "rarityParameter",
        "offset": 0,
        "slot": "5",
        "type": "t_uint256"
      },
      {
        "astId": 4336,
        "contract": "contracts/Atlantis.sol:Atlantis",
        "label": "gemstoneRate",
        "offset": 0,
        "slot": "6",
        "type": "t_mapping(t_uint8,t_uint256)"
      },
      {
        "astId": 4341,
        "contract": "contracts/Atlantis.sol:Atlantis",
        "label": "nftGemstoneMultiplier",
        "offset": 0,
        "slot": "7",
        "type": "t_array(t_uint256)4_storage"
      },
      {
        "astId": 4346,
        "contract": "contracts/Atlantis.sol:Atlantis",
        "label": "rarityMultiplier",
        "offset": 0,
        "slot": "11",
        "type": "t_array(t_uint256)4_storage"
      },
      {
        "astId": 4351,
        "contract": "contracts/Atlantis.sol:Atlantis",
        "label": "whitelistedCollections",
        "offset": 0,
        "slot": "15",
        "type": "t_mapping(t_address,t_bool)"
      },
      {
        "astId": 4357,
        "contract": "contracts/Atlantis.sol:Atlantis",
        "label": "expeditions",
        "offset": 0,
        "slot": "16",
        "type": "t_mapping(t_uint256,t_struct(Expedition)12047_storage)"
      },
      {
        "astId": 4361,
        "contract": "contracts/Atlantis.sol:Atlantis",
        "label": "currentExpeditionId",
        "offset": 0,
        "slot": "17",
        "type": "t_uint256"
      },
      {
        "astId": 4365,
        "contract": "contracts/Atlantis.sol:Atlantis",
        "label": "expeditionDuration",
        "offset": 0,
        "slot": "18",
        "type": "t_uint256"
      },
      {
        "astId": 4373,
        "contract": "contracts/Atlantis.sol:Atlantis",
        "label": "taxFee",
        "offset": 0,
        "slot": "19",
        "type": "t_uint256"
      },
      {
        "astId": 4376,
        "contract": "contracts/Atlantis.sol:Atlantis",
        "label": "treasury",
        "offset": 0,
        "slot": "20",
        "type": "t_address"
      }
    ],
    "types": {
      "t_address": {
        "encoding": "inplace",
        "label": "address",
        "numberOfBytes": "20"
      },
      "t_array(t_address)dyn_storage": {
        "base": "t_address",
        "encoding": "dynamic_array",
        "label": "address[]",
        "numberOfBytes": "32"
      },
      "t_array(t_uint256)4_storage": {
        "base": "t_uint256",
        "encoding": "inplace",
        "label": "uint256[4]",
        "numberOfBytes": "128"
      },
      "t_array(t_uint256)dyn_storage": {
        "base": "t_uint256",
        "encoding": "dynamic_array",
        "label": "uint256[]",
        "numberOfBytes": "32"
      },
      "t_bool": {
        "encoding": "inplace",
        "label": "bool",
        "numberOfBytes": "1"
      },
      "t_contract(AtlantisAddressRegistry)6190": {
        "encoding": "inplace",
        "label": "contract AtlantisAddressRegistry",
        "numberOfBytes": "20"
      },
      "t_mapping(t_address,t_bool)": {
        "encoding": "mapping",
        "key": "t_address",
        "label": "mapping(address => bool)",
        "numberOfBytes": "32",
        "value": "t_bool"
      },
      "t_mapping(t_uint256,t_struct(Expedition)12047_storage)": {
        "encoding": "mapping",
        "key": "t_uint256",
        "label": "mapping(uint256 => struct IAtlantis.Expedition)",
        "numberOfBytes": "32",
        "value": "t_struct(Expedition)12047_storage"
      },
      "t_mapping(t_uint8,t_uint256)": {
        "encoding": "mapping",
        "key": "t_uint8",
        "label": "mapping(uint8 => uint256)",
        "numberOfBytes": "32",
        "value": "t_uint256"
      },
      "t_struct(Expedition)12047_storage": {
        "encoding": "inplace",
        "label": "struct IAtlantis.Expedition",
        "members": [
          {
            "astId": 12031,
            "contract": "contracts/Atlantis.sol:Atlantis",
            "label": "collectionAddresses",
            "offset": 0,
            "slot": "0",
            "type": "t_array(t_address)dyn_storage"
          },
          {
            "astId": 12034,
            "contract": "contracts/Atlantis.sol:Atlantis",
            "label": "tokenIds",
            "offset": 0,
            "slot": "1",
            "type": "t_array(t_uint256)dyn_storage"
          },
          {
            "astId": 12036,
            "contract": "contracts/Atlantis.sol:Atlantis",
            "label": "id",
            "offset": 0,
            "slot": "2",
            "type": "t_uint256"
          },
          {
            "astId": 12038,
            "contract": "contracts/Atlantis.sol:Atlantis",
            "label": "planetId",
            "offset": 0,
            "slot": "3",
            "type": "t_uint256"
          },
          {
            "astId": 12040,
            "contract": "contracts/Atlantis.sol:Atlantis",
            "label": "startTime",
            "offset": 0,
            "slot": "4",
            "type": "t_uint256"
          },
          {
            "astId": 12042,
            "contract": "contracts/Atlantis.sol:Atlantis",
            "label": "endTime",
            "offset": 0,
            "slot": "5",
            "type": "t_uint256"
          },
          {
            "astId": 12044,
            "contract": "contracts/Atlantis.sol:Atlantis",
            "label": "owner",
            "offset": 0,
            "slot": "6",
            "type": "t_address"
          },
          {
            "astId": 12046,
            "contract": "contracts/Atlantis.sol:Atlantis",
            "label": "hasEnded",
            "offset": 20,
            "slot": "6",
            "type": "t_bool"
          }
        ],
        "numberOfBytes": "224"
      },
      "t_uint256": {
        "encoding": "inplace",
        "label": "uint256",
        "numberOfBytes": "32"
      },
      "t_uint8": {
        "encoding": "inplace",
        "label": "uint8",
        "numberOfBytes": "1"
      }
    }
  }
}