{
  "address": "0x9B363edFFD5015d1995c532D70a378C9BAc684Dd",
  "abi": [
    {
      "inputs": [
        {
          "internalType": "contract IERC1155",
          "name": "erc1155Token",
          "type": "address"
        }
      ],
      "stateMutability": "nonpayable",
      "type": "constructor"
    },
    {
      "anonymous": false,
      "inputs": [
        {
          "indexed": true,
          "internalType": "address",
          "name": "user",
          "type": "address"
        },
        {
          "indexed": true,
          "internalType": "uint256",
          "name": "tokenId",
          "type": "uint256"
        },
        {
          "indexed": false,
          "internalType": "uint256",
          "name": "amount",
          "type": "uint256"
        }
      ],
      "name": "TokensBurned",
      "type": "event"
    },
    {
      "inputs": [
        {
          "internalType": "uint256",
          "name": "tokenId",
          "type": "uint256"
        },
        {
          "internalType": "uint256",
          "name": "amount",
          "type": "uint256"
        }
      ],
      "name": "burnTokens",
      "outputs": [],
      "stateMutability": "nonpayable",
      "type": "function"
    },
    {
      "inputs": [
        {
          "internalType": "address",
          "name": "",
          "type": "address"
        }
      ],
      "name": "burnt",
      "outputs": [
        {
          "internalType": "uint256",
          "name": "",
          "type": "uint256"
        }
      ],
      "stateMutability": "view",
      "type": "function"
    },
    {
      "inputs": [
        {
          "internalType": "address",
          "name": "operator",
          "type": "address"
        },
        {
          "internalType": "address",
          "name": "from",
          "type": "address"
        },
        {
          "internalType": "uint256[]",
          "name": "ids",
          "type": "uint256[]"
        },
        {
          "internalType": "uint256[]",
          "name": "values",
          "type": "uint256[]"
        },
        {
          "internalType": "bytes",
          "name": "data",
          "type": "bytes"
        }
      ],
      "name": "onERC1155BatchReceived",
      "outputs": [
        {
          "internalType": "bytes4",
          "name": "",
          "type": "bytes4"
        }
      ],
      "stateMutability": "nonpayable",
      "type": "function"
    },
    {
      "inputs": [
        {
          "internalType": "address",
          "name": "operator",
          "type": "address"
        },
        {
          "internalType": "address",
          "name": "from",
          "type": "address"
        },
        {
          "internalType": "uint256",
          "name": "id",
          "type": "uint256"
        },
        {
          "internalType": "uint256",
          "name": "value",
          "type": "uint256"
        },
        {
          "internalType": "bytes",
          "name": "data",
          "type": "bytes"
        }
      ],
      "name": "onERC1155Received",
      "outputs": [
        {
          "internalType": "bytes4",
          "name": "",
          "type": "bytes4"
        }
      ],
      "stateMutability": "nonpayable",
      "type": "function"
    },
    {
      "inputs": [
        {
          "internalType": "bytes4",
          "name": "interfaceId",
          "type": "bytes4"
        }
      ],
      "name": "supportsInterface",
      "outputs": [
        {
          "internalType": "bool",
          "name": "",
          "type": "bool"
        }
      ],
      "stateMutability": "view",
      "type": "function"
    }
  ],
  "transactionHash": "0x6d6b467d5c84ddcb9f8898426fdaf43a8c8df1eefa7e5bd70658239b23f83ce4",
  "args": [
    "0xf9Aa7fE65C66c766Afecb3fc3A6d82D3737Ccd10"
  ],
  "numDeployments": 2,
  "solcInputHash": "dd56f595c9090923f089739e0ba784c6",
  "bytecode": "0x60a060405234801561001057600080fd5b5060405161058238038061058283398101604081905261002f91610040565b6001600160a01b0316608052610070565b60006020828403121561005257600080fd5b81516001600160a01b038116811461006957600080fd5b9392505050565b6080516104f761008b60003960006101b601526104f76000f3fe608060405234801561001057600080fd5b50600436106100575760003560e01c806301ffc9a71461005c5780630a3c5275146100845780638e81c64d146100b2578063bc197c81146100c7578063f23a6e6114610102575b600080fd5b61006f61006a366004610255565b610122565b60405190151581526020015b60405180910390f35b6100a46100923660046102a2565b60006020819052908152604090205481565b60405190815260200161007b565b6100c56100c03660046102bd565b610159565b005b6100e96100d536600461036d565b63bc197c8160e01b98975050505050505050565b6040516001600160e01b0319909116815260200161007b565b6100e9610110366004610428565b63f23a6e6160e01b9695505050505050565b60006001600160e01b03198216630271189760e51b148061015357506001600160e01b031982166301ffc9a760e01b145b92915050565b33600090815260208190526040812080548392906101789084906104a0565b9091555050604051637921219560e11b815233600482015261dead6024820152604481018390526064810182905260a06084820152600060a48201527f00000000000000000000000000000000000000000000000000000000000000006001600160a01b03169063f242432a9060c401600060405180830381600087803b15801561020257600080fd5b505af1158015610216573d6000803e3d6000fd5b50506040518381528492503391507fccbea4088a3b7ae9ca2d15fab9a9742a4075b4d7247768a1eecea917565aba009060200160405180910390a35050565b60006020828403121561026757600080fd5b81356001600160e01b03198116811461027f57600080fd5b9392505050565b80356001600160a01b038116811461029d57600080fd5b919050565b6000602082840312156102b457600080fd5b61027f82610286565b600080604083850312156102d057600080fd5b50508035926020909101359150565b60008083601f8401126102f157600080fd5b50813567ffffffffffffffff81111561030957600080fd5b6020830191508360208260051b850101111561032457600080fd5b9250929050565b60008083601f84011261033d57600080fd5b50813567ffffffffffffffff81111561035557600080fd5b60208301915083602082850101111561032457600080fd5b60008060008060008060008060a0898b03121561038957600080fd5b61039289610286565b97506103a060208a01610286565b9650604089013567ffffffffffffffff808211156103bd57600080fd5b6103c98c838d016102df565b909850965060608b01359150808211156103e257600080fd5b6103ee8c838d016102df565b909650945060808b013591508082111561040757600080fd5b506104148b828c0161032b565b999c989b5096995094979396929594505050565b60008060008060008060a0878903121561044157600080fd5b61044a87610286565b955061045860208801610286565b94506040870135935060608701359250608087013567ffffffffffffffff81111561048257600080fd5b61048e89828a0161032b565b979a9699509497509295939492505050565b8082018082111561015357634e487b7160e01b600052601160045260246000fdfea264697066735822122033e009536bab2f774080ade22906ced50fa4dd37def55cc8aa6392b6e88d49de64736f6c63430008110033",
  "devdoc": {
    "kind": "dev",
    "methods": {
      "onERC1155BatchReceived(address,address,uint256[],uint256[],bytes)": {
        "details": "Handles the receipt of a multiple ERC1155 token types. This function is called at the end of a `safeBatchTransferFrom` after the balances have been updated. NOTE: To accept the transfer(s), this must return `bytes4(keccak256(\"onERC1155BatchReceived(address,address,uint256[],uint256[],bytes)\"))` (i.e. 0xbc197c81, or its own function selector).",
        "params": {
          "data": "Additional data with no specified format",
          "from": "The address which previously owned the token",
          "ids": "An array containing ids of each token being transferred (order and length must match values array)",
          "operator": "The address which initiated the batch transfer (i.e. msg.sender)",
          "values": "An array containing amounts of each token being transferred (order and length must match ids array)"
        },
        "returns": {
          "_0": "`bytes4(keccak256(\"onERC1155BatchReceived(address,address,uint256[],uint256[],bytes)\"))` if transfer is allowed"
        }
      },
      "onERC1155Received(address,address,uint256,uint256,bytes)": {
        "details": "Handles the receipt of a single ERC1155 token type. This function is called at the end of a `safeTransferFrom` after the balance has been updated. NOTE: To accept the transfer, this must return `bytes4(keccak256(\"onERC1155Received(address,address,uint256,uint256,bytes)\"))` (i.e. 0xf23a6e61, or its own function selector).",
        "params": {
          "data": "Additional data with no specified format",
          "from": "The address which previously owned the token",
          "id": "The ID of the token being transferred",
          "operator": "The address which initiated the transfer (i.e. msg.sender)",
          "value": "The amount of tokens being transferred"
        },
        "returns": {
          "_0": "`bytes4(keccak256(\"onERC1155Received(address,address,uint256,uint256,bytes)\"))` if transfer is allowed"
        }
      },
      "supportsInterface(bytes4)": {
        "details": "Returns true if this contract implements the interface defined by `interfaceId`. See the corresponding https://eips.ethereum.org/EIPS/eip-165#how-interfaces-are-identified[EIP section] to learn more about how these ids are created. This function call must use less than 30 000 gas."
      }
    },
    "version": 1
  },
  "userdoc": {
    "kind": "user",
    "methods": {},
    "version": 1
  },
  "storageLayout": {
    "storage": [
      {
        "astId": 1209,
        "contract": "contracts/ERC1155Burner.sol:ERC1155Burner",
        "label": "burnt",
        "offset": 0,
        "slot": "0",
        "type": "t_mapping(t_address,t_uint256)"
      }
    ],
    "types": {
      "t_address": {
        "encoding": "inplace",
        "label": "address",
        "numberOfBytes": "20"
      },
      "t_mapping(t_address,t_uint256)": {
        "encoding": "mapping",
        "key": "t_address",
        "label": "mapping(address => uint256)",
        "numberOfBytes": "32",
        "value": "t_uint256"
      },
      "t_uint256": {
        "encoding": "inplace",
        "label": "uint256",
        "numberOfBytes": "32"
      }
    }
  }
}