{
  "address": "0x7e2bC482e3a1f59d4276B6C0deEC9e2eB86715Ba",
  "abi": [
    {
      "inputs": [
        {
          "internalType": "address",
          "name": "_gold",
          "type": "address"
        },
        {
          "internalType": "address",
          "name": "_stardust",
          "type": "address"
        },
        {
          "internalType": "uint256",
          "name": "_rewardPerBlock",
          "type": "uint256"
        },
        {
          "internalType": "uint256",
          "name": "_startBlock",
          "type": "uint256"
        },
        {
          "internalType": "uint256",
          "name": "_endBlock",
          "type": "uint256"
        }
      ],
      "stateMutability": "nonpayable",
      "type": "constructor"
    },
    {
      "anonymous": false,
      "inputs": [
        {
          "indexed": true,
          "internalType": "address",
          "name": "user",
          "type": "address"
        },
        {
          "indexed": false,
          "internalType": "uint256",
          "name": "amount",
          "type": "uint256"
        }
      ],
      "name": "Deposit",
      "type": "event"
    },
    {
      "anonymous": false,
      "inputs": [
        {
          "indexed": true,
          "internalType": "address",
          "name": "user",
          "type": "address"
        },
        {
          "indexed": false,
          "internalType": "uint256",
          "name": "amount",
          "type": "uint256"
        }
      ],
      "name": "EmergencyWithdraw",
      "type": "event"
    },
    {
      "anonymous": false,
      "inputs": [
        {
          "indexed": false,
          "internalType": "uint256",
          "name": "rewardPerBlock",
          "type": "uint256"
        },
        {
          "indexed": false,
          "internalType": "uint256",
          "name": "startBlock",
          "type": "uint256"
        },
        {
          "indexed": false,
          "internalType": "uint256",
          "name": "bonusEndBlock",
          "type": "uint256"
        },
        {
          "indexed": false,
          "internalType": "uint256",
          "name": "lastRewardBlock",
          "type": "uint256"
        }
      ],
      "name": "EmissionsModified",
      "type": "event"
    },
    {
      "anonymous": false,
      "inputs": [
        {
          "indexed": true,
          "internalType": "address",
          "name": "previousOwner",
          "type": "address"
        },
        {
          "indexed": true,
          "internalType": "address",
          "name": "newOwner",
          "type": "address"
        }
      ],
      "name": "OwnershipTransferred",
      "type": "event"
    },
    {
      "anonymous": false,
      "inputs": [
        {
          "indexed": false,
          "internalType": "address",
          "name": "account",
          "type": "address"
        }
      ],
      "name": "Paused",
      "type": "event"
    },
    {
      "anonymous": false,
      "inputs": [
        {
          "indexed": false,
          "internalType": "uint256",
          "name": "accRewardPerShare",
          "type": "uint256"
        },
        {
          "indexed": false,
          "internalType": "uint256",
          "name": "lastRewardBlock",
          "type": "uint256"
        }
      ],
      "name": "PoolUpdate",
      "type": "event"
    },
    {
      "anonymous": false,
      "inputs": [
        {
          "indexed": false,
          "internalType": "address",
          "name": "account",
          "type": "address"
        }
      ],
      "name": "Unpaused",
      "type": "event"
    },
    {
      "anonymous": false,
      "inputs": [
        {
          "indexed": true,
          "internalType": "address",
          "name": "user",
          "type": "address"
        },
        {
          "indexed": false,
          "internalType": "uint256",
          "name": "amount",
          "type": "uint256"
        }
      ],
      "name": "Withdraw",
      "type": "event"
    },
    {
      "inputs": [],
      "name": "bonusEndBlock",
      "outputs": [
        {
          "internalType": "uint256",
          "name": "",
          "type": "uint256"
        }
      ],
      "stateMutability": "view",
      "type": "function"
    },
    {
      "inputs": [
        {
          "internalType": "uint256",
          "name": "_amount",
          "type": "uint256"
        }
      ],
      "name": "deposit",
      "outputs": [],
      "stateMutability": "nonpayable",
      "type": "function"
    },
    {
      "inputs": [],
      "name": "emergencyWithdraw",
      "outputs": [],
      "stateMutability": "nonpayable",
      "type": "function"
    },
    {
      "inputs": [],
      "name": "gold",
      "outputs": [
        {
          "internalType": "contract IERC20",
          "name": "",
          "type": "address"
        }
      ],
      "stateMutability": "view",
      "type": "function"
    },
    {
      "inputs": [
        {
          "internalType": "uint256",
          "name": "_rewardPerBlock",
          "type": "uint256"
        },
        {
          "internalType": "uint256",
          "name": "_startBlock",
          "type": "uint256"
        },
        {
          "internalType": "uint256",
          "name": "_endBlock",
          "type": "uint256"
        }
      ],
      "name": "modifyEmissions",
      "outputs": [],
      "stateMutability": "nonpayable",
      "type": "function"
    },
    {
      "inputs": [],
      "name": "owner",
      "outputs": [
        {
          "internalType": "address",
          "name": "",
          "type": "address"
        }
      ],
      "stateMutability": "view",
      "type": "function"
    },
    {
      "inputs": [],
      "name": "pause",
      "outputs": [],
      "stateMutability": "nonpayable",
      "type": "function"
    },
    {
      "inputs": [],
      "name": "paused",
      "outputs": [
        {
          "internalType": "bool",
          "name": "",
          "type": "bool"
        }
      ],
      "stateMutability": "view",
      "type": "function"
    },
    {
      "inputs": [
        {
          "internalType": "address",
          "name": "_user",
          "type": "address"
        }
      ],
      "name": "pendingReward",
      "outputs": [
        {
          "internalType": "uint256",
          "name": "",
          "type": "uint256"
        }
      ],
      "stateMutability": "view",
      "type": "function"
    },
    {
      "inputs": [],
      "name": "poolInfo",
      "outputs": [
        {
          "internalType": "uint256",
          "name": "lastRewardBlock",
          "type": "uint256"
        },
        {
          "internalType": "uint256",
          "name": "accRewardPerShare",
          "type": "uint256"
        }
      ],
      "stateMutability": "view",
      "type": "function"
    },
    {
      "inputs": [],
      "name": "renounceOwnership",
      "outputs": [],
      "stateMutability": "nonpayable",
      "type": "function"
    },
    {
      "inputs": [],
      "name": "rewardPerBlock",
      "outputs": [
        {
          "internalType": "uint256",
          "name": "",
          "type": "uint256"
        }
      ],
      "stateMutability": "view",
      "type": "function"
    },
    {
      "inputs": [],
      "name": "stardust",
      "outputs": [
        {
          "internalType": "contract IERC20",
          "name": "",
          "type": "address"
        }
      ],
      "stateMutability": "view",
      "type": "function"
    },
    {
      "inputs": [],
      "name": "startBlock",
      "outputs": [
        {
          "internalType": "uint256",
          "name": "",
          "type": "uint256"
        }
      ],
      "stateMutability": "view",
      "type": "function"
    },
    {
      "inputs": [],
      "name": "totalGold",
      "outputs": [
        {
          "internalType": "uint256",
          "name": "",
          "type": "uint256"
        }
      ],
      "stateMutability": "view",
      "type": "function"
    },
    {
      "inputs": [
        {
          "internalType": "address",
          "name": "newOwner",
          "type": "address"
        }
      ],
      "name": "transferOwnership",
      "outputs": [],
      "stateMutability": "nonpayable",
      "type": "function"
    },
    {
      "inputs": [],
      "name": "unpause",
      "outputs": [],
      "stateMutability": "nonpayable",
      "type": "function"
    },
    {
      "inputs": [],
      "name": "updatePool",
      "outputs": [],
      "stateMutability": "nonpayable",
      "type": "function"
    },
    {
      "inputs": [
        {
          "internalType": "address",
          "name": "",
          "type": "address"
        }
      ],
      "name": "userInfo",
      "outputs": [
        {
          "internalType": "uint256",
          "name": "amount",
          "type": "uint256"
        },
        {
          "internalType": "uint256",
          "name": "rewardDebt",
          "type": "uint256"
        }
      ],
      "stateMutability": "view",
      "type": "function"
    },
    {
      "inputs": [
        {
          "internalType": "uint256",
          "name": "_amount",
          "type": "uint256"
        }
      ],
      "name": "withdraw",
      "outputs": [],
      "stateMutability": "nonpayable",
      "type": "function"
    }
  ],
  "transactionHash": "0x64aea81cf72a94336cdb15f20b1bc39f63aea4ecffc1e67a235db4842ba98e0e",
  "args": [
    "0x86F9293853740338949726E7853C81fD26d521d2",
    "0x0e5fF6C0cDfCf27e3b4Cacff117Bf368Ea6E0EC7",
    "500000000000000000",
    9147179,
    9319979
  ],
  "numDeployments": 1,
  "solcInputHash": "dd56f595c9090923f089739e0ba784c6",
  "bytecode": "0x60806040523480156200001157600080fd5b50604051620013b1380380620013b18339810160408190526200003491620002e0565b6200003f3362000273565b6000805460ff60a01b19169055600180556001600160a01b038516620000bd5760405162461bcd60e51b815260206004820152602860248201527f476f6c64506c656467696e673a20676f6c6420616464726573732063616e6e6f604482015267074206265203078360c41b60648201526084015b60405180910390fd5b6001600160a01b0384166200012a5760405162461bcd60e51b815260206004820152602c60248201527f476f6c64506c656467696e673a2073746172647573742061646472657373206360448201526b0616e6e6f74206265203078360a41b6064820152608401620000b4565b600380546001600160a01b038087166001600160a01b0319928316179092556002805492881692909116919091179055818111620001d15760405162461bcd60e51b815260206004820152603660248201527f476f6c64506c656467696e673a20656e64426c6f636b206d757374206265206760448201527f726561746572207468616e207374617274426c6f636b000000000000000000006064820152608401620000b4565b814310620002395760405162461bcd60e51b815260206004820152602e60248201527f476f6c64506c656467696e673a207374617274426c6f636b206d75737420626560448201526d20696e207468652066757475726560901b6064820152608401620000b4565b6004929092556009819055600a91909155604080518082019091528181526000602090910181905260069190915560075550620003339050565b600080546001600160a01b038381166001600160a01b0319831681178455604051919092169283917f8be0079c531659141344cd1fd0a4f28419497f9722a3daafe3b4186f6b6457e09190a35050565b80516001600160a01b0381168114620002db57600080fd5b919050565b600080600080600060a08688031215620002f957600080fd5b6200030486620002c3565b94506200031460208701620002c3565b6040870151606088015160809098015196999198509695945092505050565b61106e80620003436000396000f3fe608060405234801561001057600080fd5b506004361061012c5760003560e01c80638ae39cac116100ad578063db2e21bc11610071578063db2e21bc1461025a578063e3161ddd14610262578063f2fde38b1461026a578063f40f0f521461027d578063fbec6f211461029057600080fd5b80638ae39cac146101fd5780638da5cb5b14610206578063a9f48f8d1461022b578063b6b55f2514610234578063c69f5bb71461024757600080fd5b80635a2f3d09116100f45780635a2f3d09146101af5780635c975abb146101bd578063715018a6146101da57806383c7c8d0146101e25780638456cb59146101f557600080fd5b80631959a002146101315780631aed6553146101725780632e1a7d4d146101895780633f4ba83a1461019e57806348cd4cb1146101a6575b600080fd5b61015861013f366004610eb9565b6008602052600090815260409020805460019091015482565b604080519283526020830191909152015b60405180910390f35b61017b600a5481565b604051908152602001610169565b61019c610197366004610ee9565b6102a3565b005b61019c61044f565b61017b60095481565b600654600754610158919082565b600054600160a01b900460ff166040519015158152602001610169565b61019c610461565b61019c6101f0366004610f02565b610473565b61019c6105b1565b61017b60045481565b6000546001600160a01b03165b6040516001600160a01b039091168152602001610169565b61017b60055481565b61019c610242366004610ee9565b6105c1565b600354610213906001600160a01b031681565b61019c6106eb565b61019c610759565b61019c610278366004610eb9565b610805565b61017b61028b366004610eb9565b61087b565b600254610213906001600160a01b031681565b6102ab610938565b6102b3610991565b600081116102f35760405162461bcd60e51b81526020600482015260086024820152670616d6f756e7420360c41b60448201526064015b60405180910390fd5b336000908152600860205260409020805482111561034a5760405162461bcd60e51b81526020600482015260146024820152730eed2e8d0c8e4c2ee7440dcdee840cadcdeeaced60631b60448201526064016102ea565b610352610759565b81600560008282546103649190610f44565b9091555050600181015460075482546000929164e8d4a51000916103889190610f57565b6103929190610f6e565b61039c9190610f44565b905080156103bb576003546103bb906001600160a01b031633836109de565b82156103e8576002546103d8906001600160a01b031633856109de565b81546103e5908490610f44565b82555b600754825464e8d4a51000916103fd91610f57565b6104079190610f6e565b600183015560405183815233907f884edad9ce6fa2440d8a54cc123490eb96d2768479d49ff9c7366125a94243649060200160405180910390a2505061044c60018055565b50565b610457610a46565b61045f610aa0565b565b610469610a46565b61045f6000610af5565b61047b610a46565b8143106104e15760405162461bcd60e51b815260206004820152602e60248201527f476f6c64506c656467696e673a207374617274426c6f636b206d75737420626560448201526d20696e207468652066757475726560901b60648201526084016102ea565b81811161054f5760405162461bcd60e51b815260206004820152603660248201527f476f6c64506c656467696e673a20656e64426c6f636b206d7573742062652067604482015275726561746572207468616e207374617274426c6f636b60501b60648201526084016102ea565b60048390556009829055600a81905560068290556040805184815260208101849052908101829052606081018390527f9ceb25e5270d635d47b42ddee66050307219093cb483019783043074a29ffe74906080015b60405180910390a1505050565b6105b9610a46565b61045f610b45565b6105c9610938565b6105d1610991565b3360009081526008602052604090206105e8610759565b81600560008282546105fa9190610f90565b909155505080541561065a57600181015460075482546000929164e8d4a51000916106259190610f57565b61062f9190610f6e565b6106399190610f44565b9050801561065857600354610658906001600160a01b031633836109de565b505b811561068857600254610678906001600160a01b0316333085610b88565b8054610685908390610f90565b81555b600754815464e8d4a510009161069d91610f57565b6106a79190610f6e565b600182015560405182815233907fe1fffcc4923d04b559f4d29a8bfc6cda04eb5b0d3c460751c2402c5c5cc9109c9060200160405180910390a25061044c60018055565b336000818152600860205260408120805482825560018201929092556002549092610720916001600160a01b031690836109de565b60405181815233907f5fafa99d0643513820be26656b45130b01e1c03062e1266bf36f88cbd3bd96959060200160405180910390a25050565b600654431161076457565b6005546000819003610777575043600655565b600061078860066000015443610bc6565b905060006004548261079a9190610f57565b9050826107ac8264e8d4a51000610f57565b6107b69190610f6e565b6007546107c39190610f90565b60078190554360068190556040517f7a82ddc04b2a4dbbd6f9eb8a0eba412839065badf78dde2949d1b781b7ffe668926105a492908252602082015260400190565b61080d610a46565b6001600160a01b0381166108725760405162461bcd60e51b815260206004820152602660248201527f4f776e61626c653a206e6577206f776e657220697320746865207a65726f206160448201526564647265737360d01b60648201526084016102ea565b61044c81610af5565b6001600160a01b0381166000908152600860205260408120600754600554600680549093929190431180156108af57508015155b156109015760006108c4856000015443610bc6565b90506000600454826108d69190610f57565b9050826108e88264e8d4a51000610f57565b6108f29190610f6e565b6108fc9085610f90565b935050505b6001830154835464e8d4a510009061091a908590610f57565b6109249190610f6e565b61092e9190610f44565b9695505050505050565b60026001540361098a5760405162461bcd60e51b815260206004820152601f60248201527f5265656e7472616e637947756172643a207265656e7472616e742063616c6c0060448201526064016102ea565b6002600155565b600054600160a01b900460ff161561045f5760405162461bcd60e51b815260206004820152601060248201526f14185d5cd8589b194e881c185d5cd95960821b60448201526064016102ea565b6040516001600160a01b038316602482015260448101829052610a4190849063a9059cbb60e01b906064015b60408051601f198184030181529190526020810180516001600160e01b03166001600160e01b031990931692909217909152610c07565b505050565b6000546001600160a01b0316331461045f5760405162461bcd60e51b815260206004820181905260248201527f4f776e61626c653a2063616c6c6572206973206e6f7420746865206f776e657260448201526064016102ea565b610aa8610cd9565b6000805460ff60a01b191690557f5db9ee0a495bf2e6ff9c91a7834c1ba4fdd244a5e8aa4e537bd38aeae4b073aa335b6040516001600160a01b03909116815260200160405180910390a1565b600080546001600160a01b038381166001600160a01b0319831681178455604051919092169283917f8be0079c531659141344cd1fd0a4f28419497f9722a3daafe3b4186f6b6457e09190a35050565b610b4d610991565b6000805460ff60a01b1916600160a01b1790557f62e78cea01bee320cd4e420270b5ea74000d11b0c9f74754ebdbfc544b05a258610ad83390565b6040516001600160a01b0380851660248301528316604482015260648101829052610bc09085906323b872dd60e01b90608401610a0a565b50505050565b6000600a548211610be257610bdb8383610f44565b9050610c01565b600a548310610bf357506000610c01565b82600a54610bdb9190610f44565b92915050565b6000610c5c826040518060400160405280602081526020017f5361666545524332303a206c6f772d6c6576656c2063616c6c206661696c6564815250856001600160a01b0316610d299092919063ffffffff16565b805190915015610a415780806020019051810190610c7a9190610fa3565b610a415760405162461bcd60e51b815260206004820152602a60248201527f5361666545524332303a204552433230206f7065726174696f6e20646964206e6044820152691bdd081cdd58d8d9595960b21b60648201526084016102ea565b600054600160a01b900460ff1661045f5760405162461bcd60e51b815260206004820152601460248201527314185d5cd8589b194e881b9bdd081c185d5cd95960621b60448201526064016102ea565b6060610d388484600085610d40565b949350505050565b606082471015610da15760405162461bcd60e51b815260206004820152602660248201527f416464726573733a20696e73756666696369656e742062616c616e636520666f6044820152651c8818d85b1b60d21b60648201526084016102ea565b600080866001600160a01b03168587604051610dbd9190610fe9565b60006040518083038185875af1925050503d8060008114610dfa576040519150601f19603f3d011682016040523d82523d6000602084013e610dff565b606091505b5091509150610e1087838387610e1b565b979650505050505050565b60608315610e8a578251600003610e83576001600160a01b0385163b610e835760405162461bcd60e51b815260206004820152601d60248201527f416464726573733a2063616c6c20746f206e6f6e2d636f6e747261637400000060448201526064016102ea565b5081610d38565b610d388383815115610e9f5781518083602001fd5b8060405162461bcd60e51b81526004016102ea9190611005565b600060208284031215610ecb57600080fd5b81356001600160a01b0381168114610ee257600080fd5b9392505050565b600060208284031215610efb57600080fd5b5035919050565b600080600060608486031215610f1757600080fd5b505081359360208301359350604090920135919050565b634e487b7160e01b600052601160045260246000fd5b81810381811115610c0157610c01610f2e565b8082028115828204841417610c0157610c01610f2e565b600082610f8b57634e487b7160e01b600052601260045260246000fd5b500490565b80820180821115610c0157610c01610f2e565b600060208284031215610fb557600080fd5b81518015158114610ee257600080fd5b60005b83811015610fe0578181015183820152602001610fc8565b50506000910152565b60008251610ffb818460208701610fc5565b9190910192915050565b6020815260008251806020840152611024816040850160208701610fc5565b601f01601f1916919091016040019291505056fea264697066735822122004adabee456c8edcbb6f846e200571965126fba36e34917529d90e8632824cc464736f6c63430008110033",
  "devdoc": {
    "kind": "dev",
    "methods": {
      "owner()": {
        "details": "Returns the address of the current owner."
      },
      "paused()": {
        "details": "Returns true if the contract is paused, and false otherwise."
      },
      "renounceOwnership()": {
        "details": "Leaves the contract without owner. It will not be possible to call `onlyOwner` functions anymore. Can only be called by the current owner. NOTE: Renouncing ownership will leave the contract without an owner, thereby removing any functionality that is only available to the owner."
      },
      "transferOwnership(address)": {
        "details": "Transfers ownership of the contract to a new account (`newOwner`). Can only be called by the current owner."
      }
    },
    "version": 1
  },
  "userdoc": {
    "kind": "user",
    "methods": {},
    "version": 1
  },
  "storageLayout": {
    "storage": [
      {
        "astId": 7,
        "contract": "contracts/GoldPledging.sol:GoldPledging",
        "label": "_owner",
        "offset": 0,
        "slot": "0",
        "type": "t_address"
      },
      {
        "astId": 130,
        "contract": "contracts/GoldPledging.sol:GoldPledging",
        "label": "_paused",
        "offset": 20,
        "slot": "0",
        "type": "t_bool"
      },
      {
        "astId": 231,
        "contract": "contracts/GoldPledging.sol:GoldPledging",
        "label": "_status",
        "offset": 0,
        "slot": "1",
        "type": "t_uint256"
      },
      {
        "astId": 1362,
        "contract": "contracts/GoldPledging.sol:GoldPledging",
        "label": "gold",
        "offset": 0,
        "slot": "2",
        "type": "t_contract(IERC20)515"
      },
      {
        "astId": 1365,
        "contract": "contracts/GoldPledging.sol:GoldPledging",
        "label": "stardust",
        "offset": 0,
        "slot": "3",
        "type": "t_contract(IERC20)515"
      },
      {
        "astId": 1367,
        "contract": "contracts/GoldPledging.sol:GoldPledging",
        "label": "rewardPerBlock",
        "offset": 0,
        "slot": "4",
        "type": "t_uint256"
      },
      {
        "astId": 1369,
        "contract": "contracts/GoldPledging.sol:GoldPledging",
        "label": "totalGold",
        "offset": 0,
        "slot": "5",
        "type": "t_uint256"
      },
      {
        "astId": 1372,
        "contract": "contracts/GoldPledging.sol:GoldPledging",
        "label": "poolInfo",
        "offset": 0,
        "slot": "6",
        "type": "t_struct(PoolInfo)1359_storage"
      },
      {
        "astId": 1377,
        "contract": "contracts/GoldPledging.sol:GoldPledging",
        "label": "userInfo",
        "offset": 0,
        "slot": "8",
        "type": "t_mapping(t_address,t_struct(UserInfo)1354_storage)"
      },
      {
        "astId": 1379,
        "contract": "contracts/GoldPledging.sol:GoldPledging",
        "label": "startBlock",
        "offset": 0,
        "slot": "9",
        "type": "t_uint256"
      },
      {
        "astId": 1381,
        "contract": "contracts/GoldPledging.sol:GoldPledging",
        "label": "bonusEndBlock",
        "offset": 0,
        "slot": "10",
        "type": "t_uint256"
      }
    ],
    "types": {
      "t_address": {
        "encoding": "inplace",
        "label": "address",
        "numberOfBytes": "20"
      },
      "t_bool": {
        "encoding": "inplace",
        "label": "bool",
        "numberOfBytes": "1"
      },
      "t_contract(IERC20)515": {
        "encoding": "inplace",
        "label": "contract IERC20",
        "numberOfBytes": "20"
      },
      "t_mapping(t_address,t_struct(UserInfo)1354_storage)": {
        "encoding": "mapping",
        "key": "t_address",
        "label": "mapping(address => struct GoldPledging.UserInfo)",
        "numberOfBytes": "32",
        "value": "t_struct(UserInfo)1354_storage"
      },
      "t_struct(PoolInfo)1359_storage": {
        "encoding": "inplace",
        "label": "struct GoldPledging.PoolInfo",
        "members": [
          {
            "astId": 1356,
            "contract": "contracts/GoldPledging.sol:GoldPledging",
            "label": "lastRewardBlock",
            "offset": 0,
            "slot": "0",
            "type": "t_uint256"
          },
          {
            "astId": 1358,
            "contract": "contracts/GoldPledging.sol:GoldPledging",
            "label": "accRewardPerShare",
            "offset": 0,
            "slot": "1",
            "type": "t_uint256"
          }
        ],
        "numberOfBytes": "64"
      },
      "t_struct(UserInfo)1354_storage": {
        "encoding": "inplace",
        "label": "struct GoldPledging.UserInfo",
        "members": [
          {
            "astId": 1351,
            "contract": "contracts/GoldPledging.sol:GoldPledging",
            "label": "amount",
            "offset": 0,
            "slot": "0",
            "type": "t_uint256"
          },
          {
            "astId": 1353,
            "contract": "contracts/GoldPledging.sol:GoldPledging",
            "label": "rewardDebt",
            "offset": 0,
            "slot": "1",
            "type": "t_uint256"
          }
        ],
        "numberOfBytes": "64"
      },
      "t_uint256": {
        "encoding": "inplace",
        "label": "uint256",
        "numberOfBytes": "32"
      }
    }
  }
}