{
  "address": "0xEcFec2b44f2A95f9AE932f1b6D17C8E6ECcD76C1",
  "abi": [
    {
      "inputs": [
        {
          "internalType": "address",
          "name": "_addressRegistry",
          "type": "address"
        }
      ],
      "stateMutability": "nonpayable",
      "type": "constructor"
    },
    {
      "inputs": [],
      "name": "ApprovalCallerNotOwnerNorApproved",
      "type": "error"
    },
    {
      "inputs": [],
      "name": "ApprovalQueryForNonexistentToken",
      "type": "error"
    },
    {
      "inputs": [],
      "name": "BalanceQueryForZeroAddress",
      "type": "error"
    },
    {
      "inputs": [],
      "name": "MintERC2309QuantityExceedsLimit",
      "type": "error"
    },
    {
      "inputs": [],
      "name": "MintToZeroAddress",
      "type": "error"
    },
    {
      "inputs": [],
      "name": "MintZeroQuantity",
      "type": "error"
    },
    {
      "inputs": [],
      "name": "OwnerQueryForNonexistentToken",
      "type": "error"
    },
    {
      "inputs": [],
      "name": "OwnershipNotInitializedForExtraData",
      "type": "error"
    },
    {
      "inputs": [],
      "name": "TransferCallerNotOwnerNorApproved",
      "type": "error"
    },
    {
      "inputs": [],
      "name": "TransferFromIncorrectOwner",
      "type": "error"
    },
    {
      "inputs": [],
      "name": "TransferToNonERC721ReceiverImplementer",
      "type": "error"
    },
    {
      "inputs": [],
      "name": "TransferToZeroAddress",
      "type": "error"
    },
    {
      "inputs": [],
      "name": "URIQueryForNonexistentToken",
      "type": "error"
    },
    {
      "anonymous": false,
      "inputs": [
        {
          "indexed": true,
          "internalType": "address",
          "name": "owner",
          "type": "address"
        },
        {
          "indexed": true,
          "internalType": "address",
          "name": "approved",
          "type": "address"
        },
        {
          "indexed": true,
          "internalType": "uint256",
          "name": "tokenId",
          "type": "uint256"
        }
      ],
      "name": "Approval",
      "type": "event"
    },
    {
      "anonymous": false,
      "inputs": [
        {
          "indexed": true,
          "internalType": "address",
          "name": "owner",
          "type": "address"
        },
        {
          "indexed": true,
          "internalType": "address",
          "name": "operator",
          "type": "address"
        },
        {
          "indexed": false,
          "internalType": "bool",
          "name": "approved",
          "type": "bool"
        }
      ],
      "name": "ApprovalForAll",
      "type": "event"
    },
    {
      "anonymous": false,
      "inputs": [
        {
          "indexed": true,
          "internalType": "uint256",
          "name": "fromTokenId",
          "type": "uint256"
        },
        {
          "indexed": false,
          "internalType": "uint256",
          "name": "toTokenId",
          "type": "uint256"
        },
        {
          "indexed": true,
          "internalType": "address",
          "name": "from",
          "type": "address"
        },
        {
          "indexed": true,
          "internalType": "address",
          "name": "to",
          "type": "address"
        }
      ],
      "name": "ConsecutiveTransfer",
      "type": "event"
    },
    {
      "anonymous": false,
      "inputs": [
        {
          "indexed": true,
          "internalType": "address",
          "name": "from",
          "type": "address"
        },
        {
          "indexed": true,
          "internalType": "address",
          "name": "to",
          "type": "address"
        },
        {
          "indexed": true,
          "internalType": "uint256",
          "name": "tokenId",
          "type": "uint256"
        }
      ],
      "name": "Transfer",
      "type": "event"
    },
    {
      "inputs": [
        {
          "internalType": "address",
          "name": "to",
          "type": "address"
        },
        {
          "internalType": "uint256",
          "name": "tokenId",
          "type": "uint256"
        }
      ],
      "name": "approve",
      "outputs": [],
      "stateMutability": "payable",
      "type": "function"
    },
    {
      "inputs": [
        {
          "internalType": "address",
          "name": "owner",
          "type": "address"
        }
      ],
      "name": "balanceOf",
      "outputs": [
        {
          "internalType": "uint256",
          "name": "",
          "type": "uint256"
        }
      ],
      "stateMutability": "view",
      "type": "function"
    },
    {
      "inputs": [],
      "name": "baseURI",
      "outputs": [
        {
          "internalType": "string",
          "name": "",
          "type": "string"
        }
      ],
      "stateMutability": "view",
      "type": "function"
    },
    {
      "inputs": [
        {
          "internalType": "uint256",
          "name": "tokenId",
          "type": "uint256"
        }
      ],
      "name": "exists",
      "outputs": [
        {
          "internalType": "bool",
          "name": "",
          "type": "bool"
        }
      ],
      "stateMutability": "view",
      "type": "function"
    },
    {
      "inputs": [
        {
          "internalType": "uint256",
          "name": "tokenId",
          "type": "uint256"
        }
      ],
      "name": "getApproved",
      "outputs": [
        {
          "internalType": "address",
          "name": "",
          "type": "address"
        }
      ],
      "stateMutability": "view",
      "type": "function"
    },
    {
      "inputs": [
        {
          "internalType": "address",
          "name": "owner",
          "type": "address"
        },
        {
          "internalType": "address",
          "name": "operator",
          "type": "address"
        }
      ],
      "name": "isApprovedForAll",
      "outputs": [
        {
          "internalType": "bool",
          "name": "",
          "type": "bool"
        }
      ],
      "stateMutability": "view",
      "type": "function"
    },
    {
      "inputs": [
        {
          "internalType": "uint256",
          "name": "_mintAmount",
          "type": "uint256"
        }
      ],
      "name": "mint",
      "outputs": [],
      "stateMutability": "nonpayable",
      "type": "function"
    },
    {
      "inputs": [],
      "name": "name",
      "outputs": [
        {
          "internalType": "string",
          "name": "",
          "type": "string"
        }
      ],
      "stateMutability": "view",
      "type": "function"
    },
    {
      "inputs": [
        {
          "internalType": "uint256",
          "name": "tokenId",
          "type": "uint256"
        }
      ],
      "name": "ownerOf",
      "outputs": [
        {
          "internalType": "address",
          "name": "",
          "type": "address"
        }
      ],
      "stateMutability": "view",
      "type": "function"
    },
    {
      "inputs": [
        {
          "internalType": "address",
          "name": "from",
          "type": "address"
        },
        {
          "internalType": "address",
          "name": "to",
          "type": "address"
        },
        {
          "internalType": "uint256",
          "name": "tokenId",
          "type": "uint256"
        }
      ],
      "name": "safeTransferFrom",
      "outputs": [],
      "stateMutability": "payable",
      "type": "function"
    },
    {
      "inputs": [
        {
          "internalType": "address",
          "name": "from",
          "type": "address"
        },
        {
          "internalType": "address",
          "name": "to",
          "type": "address"
        },
        {
          "internalType": "uint256",
          "name": "tokenId",
          "type": "uint256"
        },
        {
          "internalType": "bytes",
          "name": "_data",
          "type": "bytes"
        }
      ],
      "name": "safeTransferFrom",
      "outputs": [],
      "stateMutability": "payable",
      "type": "function"
    },
    {
      "inputs": [
        {
          "internalType": "address",
          "name": "operator",
          "type": "address"
        },
        {
          "internalType": "bool",
          "name": "approved",
          "type": "bool"
        }
      ],
      "name": "setApprovalForAll",
      "outputs": [],
      "stateMutability": "nonpayable",
      "type": "function"
    },
    {
      "inputs": [
        {
          "internalType": "bytes4",
          "name": "interfaceId",
          "type": "bytes4"
        }
      ],
      "name": "supportsInterface",
      "outputs": [
        {
          "internalType": "bool",
          "name": "",
          "type": "bool"
        }
      ],
      "stateMutability": "view",
      "type": "function"
    },
    {
      "inputs": [],
      "name": "symbol",
      "outputs": [
        {
          "internalType": "string",
          "name": "",
          "type": "string"
        }
      ],
      "stateMutability": "view",
      "type": "function"
    },
    {
      "inputs": [
        {
          "internalType": "uint256",
          "name": "tokenId",
          "type": "uint256"
        }
      ],
      "name": "tokenURI",
      "outputs": [
        {
          "internalType": "string",
          "name": "",
          "type": "string"
        }
      ],
      "stateMutability": "view",
      "type": "function"
    },
    {
      "inputs": [],
      "name": "totalSupply",
      "outputs": [
        {
          "internalType": "uint256",
          "name": "",
          "type": "uint256"
        }
      ],
      "stateMutability": "view",
      "type": "function"
    },
    {
      "inputs": [
        {
          "internalType": "address",
          "name": "from",
          "type": "address"
        },
        {
          "internalType": "address",
          "name": "to",
          "type": "address"
        },
        {
          "internalType": "uint256",
          "name": "tokenId",
          "type": "uint256"
        }
      ],
      "name": "transferFrom",
      "outputs": [],
      "stateMutability": "payable",
      "type": "function"
    }
  ],
  "transactionHash": "0x229c8b5657b88386f0421b8d9631dd348a2b1bace9cc3d9022344aa726925057",
  "args": [
    "0xf0776a4F32a4F95649D3b1c79eb5FFE6c43e53F3"
  ],
  "numDeployments": 1,
  "solcInputHash": "63ec47db4e850dfbc3d41c010ac65a01",
  "bytecode": "0x60806040523480156200001157600080fd5b506040516200124c3803806200124c8339810160408190526200003491620000c6565b604051806040016040528060098152602001684172676f6e6175747360b81b815250604051806040016040528060098152602001684152474f4e4155545360b81b81525081600290816200008991906200019d565b5060036200009882826200019d565b5060016000555050600880546001600160a01b0319166001600160a01b039290921691909117905562000269565b600060208284031215620000d957600080fd5b81516001600160a01b0381168114620000f157600080fd5b9392505050565b634e487b7160e01b600052604160045260246000fd5b600181811c908216806200012357607f821691505b6020821081036200014457634e487b7160e01b600052602260045260246000fd5b50919050565b601f8211156200019857600081815260208120601f850160051c81016020861015620001735750805b601f850160051c820191505b8181101562000194578281556001016200017f565b5050505b505050565b81516001600160401b03811115620001b957620001b9620000f8565b620001d181620001ca84546200010e565b846200014a565b602080601f831160018114620002095760008415620001f05750858301515b600019600386901b1c1916600185901b17855562000194565b600085815260208120601f198616915b828110156200023a5788860151825594840194600190910190840162000219565b5085821015620002595787850151600019600388901b60f8161c191681555b5050505050600190811b01905550565b610fd380620002796000396000f3fe6080604052600436106100fe5760003560e01c80636352211e11610095578063a0712d6811610064578063a0712d681461027e578063a22cb4651461029e578063b88d4fde146102be578063c87b56dd146102d1578063e985e9c5146102f157600080fd5b80636352211e146102145780636c0360eb1461023457806370a082311461024957806395d89b411461026957600080fd5b806318160ddd116100d157806318160ddd146101a757806323b872dd146101ce57806342842e0e146101e15780634f558e79146101f457600080fd5b806301ffc9a71461010357806306fdde0314610138578063081812fc1461015a578063095ea7b314610192575b600080fd5b34801561010f57600080fd5b5061012361011e366004610c16565b61033a565b60405190151581526020015b60405180910390f35b34801561014457600080fd5b5061014d61038c565b60405161012f9190610c83565b34801561016657600080fd5b5061017a610175366004610c96565b61041e565b6040516001600160a01b03909116815260200161012f565b6101a56101a0366004610ccb565b610462565b005b3480156101b357600080fd5b5060015460005403600019015b60405190815260200161012f565b6101a56101dc366004610cf5565b610502565b6101a56101ef366004610cf5565b61069a565b34801561020057600080fd5b5061012361020f366004610c96565b6106ba565b34801561022057600080fd5b5061017a61022f366004610c96565b6106c5565b34801561024057600080fd5b5061014d6106d0565b34801561025557600080fd5b506101c0610264366004610d31565b6106df565b34801561027557600080fd5b5061014d61072e565b34801561028a57600080fd5b506101a5610299366004610c96565b61073d565b3480156102aa57600080fd5b506101a56102b9366004610d4c565b61074a565b6101a56102cc366004610d9e565b6107b6565b3480156102dd57600080fd5b5061014d6102ec366004610c96565b610800565b3480156102fd57600080fd5b5061012361030c366004610e7a565b6001600160a01b03918216600090815260076020908152604080832093909416825291909152205460ff1690565b60006301ffc9a760e01b6001600160e01b03198316148061036b57506380ac58cd60e01b6001600160e01b03198316145b806103865750635b5e139f60e01b6001600160e01b03198316145b92915050565b60606002805461039b90610ead565b80601f01602080910402602001604051908101604052809291908181526020018280546103c790610ead565b80156104145780601f106103e957610100808354040283529160200191610414565b820191906000526020600020905b8154815290600101906020018083116103f757829003601f168201915b5050505050905090565b600061042982610884565b610446576040516333d1c03960e21b815260040160405180910390fd5b506000908152600660205260409020546001600160a01b031690565b600061046d826106c5565b9050336001600160a01b038216146104a657610489813361030c565b6104a6576040516367d9dca160e11b815260040160405180910390fd5b60008281526006602052604080822080546001600160a01b0319166001600160a01b0387811691821790925591518593918516917f8c5be1e5ebec7d5bd14f71427d1e84f3dd0314c0f7b2291e5b200ac8c7c3b92591a4505050565b600061050d826108b9565b9050836001600160a01b0316816001600160a01b0316146105405760405162a1148160e81b815260040160405180910390fd5b60008281526006602052604090208054338082146001600160a01b0388169091141761058d57610570863361030c565b61058d57604051632ce44b5f60e11b815260040160405180910390fd5b6001600160a01b0385166105b457604051633a954ecd60e21b815260040160405180910390fd5b80156105bf57600082555b6001600160a01b038681166000908152600560205260408082208054600019019055918716808252919020805460010190554260a01b17600160e11b17600085815260046020526040812091909155600160e11b841690036106515760018401600081815260046020526040812054900361064f57600054811461064f5760008181526004602052604090208490555b505b83856001600160a01b0316876001600160a01b03167fddf252ad1be2c89b69c2b068fc378daa952ba7f163c4a11628f55a4df523b3ef60405160405180910390a4505050505050565b6106b5838383604051806020016040528060008152506107b6565b505050565b600061038682610884565b6000610386826108b9565b60606106da610928565b905090565b60006001600160a01b038216610708576040516323d3ad8160e21b815260040160405180910390fd5b506001600160a01b031660009081526005602052604090205467ffffffffffffffff1690565b60606003805461039b90610ead565b6107473282610948565b50565b3360008181526007602090815260408083206001600160a01b03871680855290835292819020805460ff191686151590811790915590519081529192917f17307eab39ab6107e8899845ad3d59bd9653f200f220920489ca2b5937696c31910160405180910390a35050565b6107c1848484610502565b6001600160a01b0383163b156107fa576107dd84848484610966565b6107fa576040516368d2bf6b60e11b815260040160405180910390fd5b50505050565b606061080b82610884565b61082857604051630a14c4b560e41b815260040160405180910390fd5b6000610832610928565b90508051600003610852576040518060200160405280600081525061087d565b8061085c84610a51565b60405160200161086d929190610ee7565b6040516020818303038152906040525b9392505050565b600081600111158015610898575060005482105b8015610386575050600090815260046020526040902054600160e01b161590565b6000818060011161090f5760005481101561090f5760008181526004602052604081205490600160e01b8216900361090d575b8060000361087d5750600019016000818152600460205260409020546108ec565b505b604051636f96cda160e11b815260040160405180910390fd5b60606040518060600160405280602d8152602001610f71602d9139905090565b610962828260405180602001604052806000815250610a95565b5050565b604051630a85bd0160e11b81526000906001600160a01b0385169063150b7a029061099b903390899088908890600401610f16565b6020604051808303816000875af19250505080156109d6575060408051601f3d908101601f191682019092526109d391810190610f53565b60015b610a34573d808015610a04576040519150601f19603f3d011682016040523d82523d6000602084013e610a09565b606091505b508051600003610a2c576040516368d2bf6b60e11b815260040160405180910390fd5b805181602001fd5b6001600160e01b031916630a85bd0160e11b149050949350505050565b606060a06040510180604052602081039150506000815280825b600183039250600a81066030018353600a900480610a6b5750819003601f19909101908152919050565b610a9f8383610b02565b6001600160a01b0383163b156106b5576000548281035b610ac96000868380600101945086610966565b610ae6576040516368d2bf6b60e11b815260040160405180910390fd5b818110610ab6578160005414610afb57600080fd5b5050505050565b6000805490829003610b275760405163b562e8dd60e01b815260040160405180910390fd5b6001600160a01b03831660008181526005602090815260408083208054680100000000000000018802019055848352600490915281206001851460e11b4260a01b178317905582840190839083907fddf252ad1be2c89b69c2b068fc378daa952ba7f163c4a11628f55a4df523b3ef8180a4600183015b818114610bd657808360007fddf252ad1be2c89b69c2b068fc378daa952ba7f163c4a11628f55a4df523b3ef600080a4600101610b9e565b5081600003610bf757604051622e076360e81b815260040160405180910390fd5b60005550505050565b6001600160e01b03198116811461074757600080fd5b600060208284031215610c2857600080fd5b813561087d81610c00565b60005b83811015610c4e578181015183820152602001610c36565b50506000910152565b60008151808452610c6f816020860160208601610c33565b601f01601f19169290920160200192915050565b60208152600061087d6020830184610c57565b600060208284031215610ca857600080fd5b5035919050565b80356001600160a01b0381168114610cc657600080fd5b919050565b60008060408385031215610cde57600080fd5b610ce783610caf565b946020939093013593505050565b600080600060608486031215610d0a57600080fd5b610d1384610caf565b9250610d2160208501610caf565b9150604084013590509250925092565b600060208284031215610d4357600080fd5b61087d82610caf565b60008060408385031215610d5f57600080fd5b610d6883610caf565b915060208301358015158114610d7d57600080fd5b809150509250929050565b634e487b7160e01b600052604160045260246000fd5b60008060008060808587031215610db457600080fd5b610dbd85610caf565b9350610dcb60208601610caf565b925060408501359150606085013567ffffffffffffffff80821115610def57600080fd5b818701915087601f830112610e0357600080fd5b813581811115610e1557610e15610d88565b604051601f8201601f19908116603f01168101908382118183101715610e3d57610e3d610d88565b816040528281528a6020848701011115610e5657600080fd5b82602086016020830137600060208483010152809550505050505092959194509250565b60008060408385031215610e8d57600080fd5b610e9683610caf565b9150610ea460208401610caf565b90509250929050565b600181811c90821680610ec157607f821691505b602082108103610ee157634e487b7160e01b600052602260045260246000fd5b50919050565b60008351610ef9818460208801610c33565b835190830190610f0d818360208801610c33565b01949350505050565b6001600160a01b0385811682528416602082015260408101839052608060608201819052600090610f4990830184610c57565b9695505050505050565b600060208284031215610f6557600080fd5b815161087d81610c0056fe68747470733a2f2f6172676f6e617574732d6e66742e6865726f6b756170702e636f6d2f6d657461646174612fa2646970667358221220f3702f42e71885c63cc99d5ed2c0154ccd8e63d203caaa6f8caef3443dcd02d664736f6c63430008110033",
  "devdoc": {
    "kind": "dev",
    "methods": {
      "approve(address,uint256)": {
        "details": "Gives permission to `to` to transfer `tokenId` token to another account. The approval is cleared when the token is transferred. Only a single account can be approved at a time, so approving the zero address clears previous approvals. Requirements: - The caller must own the token or be an approved operator. - `tokenId` must exist. Emits an {Approval} event."
      },
      "balanceOf(address)": {
        "details": "Returns the number of tokens in `owner`'s account."
      },
      "getApproved(uint256)": {
        "details": "Returns the account approved for `tokenId` token. Requirements: - `tokenId` must exist."
      },
      "isApprovedForAll(address,address)": {
        "details": "Returns if the `operator` is allowed to manage all of the assets of `owner`. See {setApprovalForAll}."
      },
      "name()": {
        "details": "Returns the token collection name."
      },
      "ownerOf(uint256)": {
        "details": "Returns the owner of the `tokenId` token. Requirements: - `tokenId` must exist."
      },
      "safeTransferFrom(address,address,uint256)": {
        "details": "Equivalent to `safeTransferFrom(from, to, tokenId, '')`."
      },
      "safeTransferFrom(address,address,uint256,bytes)": {
        "details": "Safely transfers `tokenId` token from `from` to `to`. Requirements: - `from` cannot be the zero address. - `to` cannot be the zero address. - `tokenId` token must exist and be owned by `from`. - If the caller is not `from`, it must be approved to move this token by either {approve} or {setApprovalForAll}. - If `to` refers to a smart contract, it must implement {IERC721Receiver-onERC721Received}, which is called upon a safe transfer. Emits a {Transfer} event."
      },
      "setApprovalForAll(address,bool)": {
        "details": "Approve or remove `operator` as an operator for the caller. Operators can call {transferFrom} or {safeTransferFrom} for any token owned by the caller. Requirements: - The `operator` cannot be the caller. Emits an {ApprovalForAll} event."
      },
      "supportsInterface(bytes4)": {
        "details": "Returns true if this contract implements the interface defined by `interfaceId`. See the corresponding [EIP section](https://eips.ethereum.org/EIPS/eip-165#how-interfaces-are-identified) to learn more about how these ids are created. This function call must use less than 30000 gas."
      },
      "symbol()": {
        "details": "Returns the token collection symbol."
      },
      "tokenURI(uint256)": {
        "details": "Returns the Uniform Resource Identifier (URI) for `tokenId` token."
      },
      "totalSupply()": {
        "details": "Returns the total number of tokens in existence. Burned tokens will reduce the count. To get the total number of tokens minted, please see {_totalMinted}."
      },
      "transferFrom(address,address,uint256)": {
        "details": "Transfers `tokenId` from `from` to `to`. Requirements: - `from` cannot be the zero address. - `to` cannot be the zero address. - `tokenId` token must be owned by `from`. - If the caller is not `from`, it must be approved to move this token by either {approve} or {setApprovalForAll}. Emits a {Transfer} event."
      }
    },
    "title": "Argonauts Mint Contract v2",
    "version": 1
  },
  "userdoc": {
    "errors": {
      "ApprovalCallerNotOwnerNorApproved()": [
        {
          "notice": "The caller must own the token or be an approved operator."
        }
      ],
      "ApprovalQueryForNonexistentToken()": [
        {
          "notice": "The token does not exist."
        }
      ],
      "BalanceQueryForZeroAddress()": [
        {
          "notice": "Cannot query the balance for the zero address."
        }
      ],
      "MintERC2309QuantityExceedsLimit()": [
        {
          "notice": "The `quantity` minted with ERC2309 exceeds the safety limit."
        }
      ],
      "MintToZeroAddress()": [
        {
          "notice": "Cannot mint to the zero address."
        }
      ],
      "MintZeroQuantity()": [
        {
          "notice": "The quantity of tokens minted must be more than zero."
        }
      ],
      "OwnerQueryForNonexistentToken()": [
        {
          "notice": "The token does not exist."
        }
      ],
      "OwnershipNotInitializedForExtraData()": [
        {
          "notice": "The `extraData` cannot be set on an unintialized ownership slot."
        }
      ],
      "TransferCallerNotOwnerNorApproved()": [
        {
          "notice": "The caller must own the token or be an approved operator."
        }
      ],
      "TransferFromIncorrectOwner()": [
        {
          "notice": "The token must be owned by `from`."
        }
      ],
      "TransferToNonERC721ReceiverImplementer()": [
        {
          "notice": "Cannot safely transfer to a contract that does not implement the ERC721Receiver interface."
        }
      ],
      "TransferToZeroAddress()": [
        {
          "notice": "Cannot transfer to the zero address."
        }
      ],
      "URIQueryForNonexistentToken()": [
        {
          "notice": "The token does not exist."
        }
      ]
    },
    "kind": "user",
    "methods": {},
    "version": 1
  },
  "storageLayout": {
    "storage": [
      {
        "astId": 21608,
        "contract": "contracts/common/MockArgonauts.sol:MockArgonauts",
        "label": "_currentIndex",
        "offset": 0,
        "slot": "0",
        "type": "t_uint256"
      },
      {
        "astId": 21610,
        "contract": "contracts/common/MockArgonauts.sol:MockArgonauts",
        "label": "_burnCounter",
        "offset": 0,
        "slot": "1",
        "type": "t_uint256"
      },
      {
        "astId": 21612,
        "contract": "contracts/common/MockArgonauts.sol:MockArgonauts",
        "label": "_name",
        "offset": 0,
        "slot": "2",
        "type": "t_string_storage"
      },
      {
        "astId": 21614,
        "contract": "contracts/common/MockArgonauts.sol:MockArgonauts",
        "label": "_symbol",
        "offset": 0,
        "slot": "3",
        "type": "t_string_storage"
      },
      {
        "astId": 21618,
        "contract": "contracts/common/MockArgonauts.sol:MockArgonauts",
        "label": "_packedOwnerships",
        "offset": 0,
        "slot": "4",
        "type": "t_mapping(t_uint256,t_uint256)"
      },
      {
        "astId": 21622,
        "contract": "contracts/common/MockArgonauts.sol:MockArgonauts",
        "label": "_packedAddressData",
        "offset": 0,
        "slot": "5",
        "type": "t_mapping(t_address,t_uint256)"
      },
      {
        "astId": 21627,
        "contract": "contracts/common/MockArgonauts.sol:MockArgonauts",
        "label": "_tokenApprovals",
        "offset": 0,
        "slot": "6",
        "type": "t_mapping(t_uint256,t_struct(TokenApprovalRef)21540_storage)"
      },
      {
        "astId": 21633,
        "contract": "contracts/common/MockArgonauts.sol:MockArgonauts",
        "label": "_operatorApprovals",
        "offset": 0,
        "slot": "7",
        "type": "t_mapping(t_address,t_mapping(t_address,t_bool))"
      },
      {
        "astId": 23373,
        "contract": "contracts/common/MockArgonauts.sol:MockArgonauts",
        "label": "addressRegistry",
        "offset": 0,
        "slot": "8",
        "type": "t_address"
      }
    ],
    "types": {
      "t_address": {
        "encoding": "inplace",
        "label": "address",
        "numberOfBytes": "20"
      },
      "t_bool": {
        "encoding": "inplace",
        "label": "bool",
        "numberOfBytes": "1"
      },
      "t_mapping(t_address,t_bool)": {
        "encoding": "mapping",
        "key": "t_address",
        "label": "mapping(address => bool)",
        "numberOfBytes": "32",
        "value": "t_bool"
      },
      "t_mapping(t_address,t_mapping(t_address,t_bool))": {
        "encoding": "mapping",
        "key": "t_address",
        "label": "mapping(address => mapping(address => bool))",
        "numberOfBytes": "32",
        "value": "t_mapping(t_address,t_bool)"
      },
      "t_mapping(t_address,t_uint256)": {
        "encoding": "mapping",
        "key": "t_address",
        "label": "mapping(address => uint256)",
        "numberOfBytes": "32",
        "value": "t_uint256"
      },
      "t_mapping(t_uint256,t_struct(TokenApprovalRef)21540_storage)": {
        "encoding": "mapping",
        "key": "t_uint256",
        "label": "mapping(uint256 => struct ERC721A.TokenApprovalRef)",
        "numberOfBytes": "32",
        "value": "t_struct(TokenApprovalRef)21540_storage"
      },
      "t_mapping(t_uint256,t_uint256)": {
        "encoding": "mapping",
        "key": "t_uint256",
        "label": "mapping(uint256 => uint256)",
        "numberOfBytes": "32",
        "value": "t_uint256"
      },
      "t_string_storage": {
        "encoding": "bytes",
        "label": "string",
        "numberOfBytes": "32"
      },
      "t_struct(TokenApprovalRef)21540_storage": {
        "encoding": "inplace",
        "label": "struct ERC721A.TokenApprovalRef",
        "members": [
          {
            "astId": 21539,
            "contract": "contracts/common/MockArgonauts.sol:MockArgonauts",
            "label": "value",
            "offset": 0,
            "slot": "0",
            "type": "t_address"
          }
        ],
        "numberOfBytes": "32"
      },
      "t_uint256": {
        "encoding": "inplace",
        "label": "uint256",
        "numberOfBytes": "32"
      }
    }
  }
}