{
  "address": "0xf9Aa7fE65C66c766Afecb3fc3A6d82D3737Ccd10",
  "abi": [
    {
      "inputs": [],
      "stateMutability": "nonpayable",
      "type": "constructor"
    },
    {
      "anonymous": false,
      "inputs": [
        {
          "indexed": true,
          "internalType": "address",
          "name": "account",
          "type": "address"
        },
        {
          "indexed": true,
          "internalType": "address",
          "name": "operator",
          "type": "address"
        },
        {
          "indexed": false,
          "internalType": "bool",
          "name": "approved",
          "type": "bool"
        }
      ],
      "name": "ApprovalForAll",
      "type": "event"
    },
    {
      "anonymous": false,
      "inputs": [
        {
          "indexed": true,
          "internalType": "address",
          "name": "operator",
          "type": "address"
        },
        {
          "indexed": true,
          "internalType": "address",
          "name": "from",
          "type": "address"
        },
        {
          "indexed": true,
          "internalType": "address",
          "name": "to",
          "type": "address"
        },
        {
          "indexed": false,
          "internalType": "uint256[]",
          "name": "ids",
          "type": "uint256[]"
        },
        {
          "indexed": false,
          "internalType": "uint256[]",
          "name": "values",
          "type": "uint256[]"
        }
      ],
      "name": "TransferBatch",
      "type": "event"
    },
    {
      "anonymous": false,
      "inputs": [
        {
          "indexed": true,
          "internalType": "address",
          "name": "operator",
          "type": "address"
        },
        {
          "indexed": true,
          "internalType": "address",
          "name": "from",
          "type": "address"
        },
        {
          "indexed": true,
          "internalType": "address",
          "name": "to",
          "type": "address"
        },
        {
          "indexed": false,
          "internalType": "uint256",
          "name": "id",
          "type": "uint256"
        },
        {
          "indexed": false,
          "internalType": "uint256",
          "name": "value",
          "type": "uint256"
        }
      ],
      "name": "TransferSingle",
      "type": "event"
    },
    {
      "anonymous": false,
      "inputs": [
        {
          "indexed": false,
          "internalType": "string",
          "name": "value",
          "type": "string"
        },
        {
          "indexed": true,
          "internalType": "uint256",
          "name": "id",
          "type": "uint256"
        }
      ],
      "name": "URI",
      "type": "event"
    },
    {
      "inputs": [
        {
          "internalType": "address",
          "name": "account",
          "type": "address"
        },
        {
          "internalType": "uint256",
          "name": "id",
          "type": "uint256"
        }
      ],
      "name": "balanceOf",
      "outputs": [
        {
          "internalType": "uint256",
          "name": "",
          "type": "uint256"
        }
      ],
      "stateMutability": "view",
      "type": "function"
    },
    {
      "inputs": [
        {
          "internalType": "address[]",
          "name": "accounts",
          "type": "address[]"
        },
        {
          "internalType": "uint256[]",
          "name": "ids",
          "type": "uint256[]"
        }
      ],
      "name": "balanceOfBatch",
      "outputs": [
        {
          "internalType": "uint256[]",
          "name": "",
          "type": "uint256[]"
        }
      ],
      "stateMutability": "view",
      "type": "function"
    },
    {
      "inputs": [
        {
          "internalType": "address",
          "name": "account",
          "type": "address"
        },
        {
          "internalType": "address",
          "name": "operator",
          "type": "address"
        }
      ],
      "name": "isApprovedForAll",
      "outputs": [
        {
          "internalType": "bool",
          "name": "",
          "type": "bool"
        }
      ],
      "stateMutability": "view",
      "type": "function"
    },
    {
      "inputs": [
        {
          "internalType": "address",
          "name": "account",
          "type": "address"
        },
        {
          "internalType": "uint256",
          "name": "id",
          "type": "uint256"
        },
        {
          "internalType": "uint256",
          "name": "amount",
          "type": "uint256"
        },
        {
          "internalType": "bytes",
          "name": "data",
          "type": "bytes"
        }
      ],
      "name": "mint",
      "outputs": [],
      "stateMutability": "nonpayable",
      "type": "function"
    },
    {
      "inputs": [
        {
          "internalType": "address",
          "name": "to",
          "type": "address"
        },
        {
          "internalType": "uint256[]",
          "name": "ids",
          "type": "uint256[]"
        },
        {
          "internalType": "uint256[]",
          "name": "amounts",
          "type": "uint256[]"
        },
        {
          "internalType": "bytes",
          "name": "data",
          "type": "bytes"
        }
      ],
      "name": "mintBatch",
      "outputs": [],
      "stateMutability": "nonpayable",
      "type": "function"
    },
    {
      "inputs": [
        {
          "internalType": "address",
          "name": "from",
          "type": "address"
        },
        {
          "internalType": "address",
          "name": "to",
          "type": "address"
        },
        {
          "internalType": "uint256[]",
          "name": "ids",
          "type": "uint256[]"
        },
        {
          "internalType": "uint256[]",
          "name": "amounts",
          "type": "uint256[]"
        },
        {
          "internalType": "bytes",
          "name": "data",
          "type": "bytes"
        }
      ],
      "name": "safeBatchTransferFrom",
      "outputs": [],
      "stateMutability": "nonpayable",
      "type": "function"
    },
    {
      "inputs": [
        {
          "internalType": "address",
          "name": "from",
          "type": "address"
        },
        {
          "internalType": "address",
          "name": "to",
          "type": "address"
        },
        {
          "internalType": "uint256",
          "name": "id",
          "type": "uint256"
        },
        {
          "internalType": "uint256",
          "name": "amount",
          "type": "uint256"
        },
        {
          "internalType": "bytes",
          "name": "data",
          "type": "bytes"
        }
      ],
      "name": "safeTransferFrom",
      "outputs": [],
      "stateMutability": "nonpayable",
      "type": "function"
    },
    {
      "inputs": [
        {
          "internalType": "address",
          "name": "operator",
          "type": "address"
        },
        {
          "internalType": "bool",
          "name": "approved",
          "type": "bool"
        }
      ],
      "name": "setApprovalForAll",
      "outputs": [],
      "stateMutability": "nonpayable",
      "type": "function"
    },
    {
      "inputs": [
        {
          "internalType": "bytes4",
          "name": "interfaceId",
          "type": "bytes4"
        }
      ],
      "name": "supportsInterface",
      "outputs": [
        {
          "internalType": "bool",
          "name": "",
          "type": "bool"
        }
      ],
      "stateMutability": "view",
      "type": "function"
    },
    {
      "inputs": [
        {
          "internalType": "uint256",
          "name": "",
          "type": "uint256"
        }
      ],
      "name": "uri",
      "outputs": [
        {
          "internalType": "string",
          "name": "",
          "type": "string"
        }
      ],
      "stateMutability": "view",
      "type": "function"
    }
  ],
  "transactionHash": "0x77ca3ba136f3bbbab03e0a53299942f5aece4c6bea26ddcf383c9e718c58552d",
  "args": [],
  "numDeployments": 1,
  "solcInputHash": "63ec47db4e850dfbc3d41c010ac65a01",
  "bytecode": "0x60806040523480156200001157600080fd5b506040805180820190915260078152667465737455524960c81b60208201526200003b8162000042565b50620001c5565b6002620000508282620000f9565b5050565b634e487b7160e01b600052604160045260246000fd5b600181811c908216806200007f57607f821691505b602082108103620000a057634e487b7160e01b600052602260045260246000fd5b50919050565b601f821115620000f457600081815260208120601f850160051c81016020861015620000cf5750805b601f850160051c820191505b81811015620000f057828155600101620000db565b5050505b505050565b81516001600160401b0381111562000115576200011562000054565b6200012d816200012684546200006a565b84620000a6565b602080601f8311600181146200016557600084156200014c5750858301515b600019600386901b1c1916600185901b178555620000f0565b600085815260208120601f198616915b82811015620001965788860151825594840194600190910190840162000175565b5085821015620001b55787850151600019600388901b60f8161c191681555b5050505050600190811b01905550565b61172980620001d56000396000f3fe608060405234801561001057600080fd5b506004361061009d5760003560e01c80634e1273f4116100665780634e1273f414610133578063731133e914610153578063a22cb46514610166578063e985e9c514610179578063f242432a146101b557600080fd5b8062fdd58e146100a257806301ffc9a7146100c85780630e89341c146100eb5780631f7fdffa1461010b5780632eb2c2d614610120575b600080fd5b6100b56100b0366004610d75565b6101c8565b6040519081526020015b60405180910390f35b6100db6100d6366004610db8565b610261565b60405190151581526020016100bf565b6100fe6100f9366004610ddc565b6102b1565b6040516100bf9190610e3b565b61011e610119366004610f9a565b610345565b005b61011e61012e366004611033565b610357565b6101466101413660046110dd565b6103a3565b6040516100bf91906111e3565b61011e6101613660046111f6565b6104cd565b61011e61017436600461124b565b6104d9565b6100db610187366004611287565b6001600160a01b03918216600090815260016020908152604080832093909416825291909152205460ff1690565b61011e6101c33660046112ba565b6104e8565b60006001600160a01b0383166102385760405162461bcd60e51b815260206004820152602a60248201527f455243313135353a2061646472657373207a65726f206973206e6f742061207660448201526930b634b21037bbb732b960b11b60648201526084015b60405180910390fd5b506000818152602081815260408083206001600160a01b03861684529091529020545b92915050565b60006001600160e01b03198216636cdb3d1360e11b148061029257506001600160e01b031982166303a24d0760e21b145b8061025b57506301ffc9a760e01b6001600160e01b031983161461025b565b6060600280546102c09061131f565b80601f01602080910402602001604051908101604052809291908181526020018280546102ec9061131f565b80156103395780601f1061030e57610100808354040283529160200191610339565b820191906000526020600020905b81548152906001019060200180831161031c57829003601f168201915b50505050509050919050565b6103518484848461052d565b50505050565b6001600160a01b03851633148061037357506103738533610187565b61038f5760405162461bcd60e51b815260040161022f90611359565b61039c8585858585610678565b5050505050565b606081518351146104085760405162461bcd60e51b815260206004820152602960248201527f455243313135353a206163636f756e747320616e6420696473206c656e677468604482015268040dad2e6dac2e8c6d60bb1b606482015260840161022f565b6000835167ffffffffffffffff81111561042457610424610e4e565b60405190808252806020026020018201604052801561044d578160200160208202803683370190505b50905060005b84518110156104c557610498858281518110610471576104716113a7565b602002602001015185838151811061048b5761048b6113a7565b60200260200101516101c8565b8282815181106104aa576104aa6113a7565b60209081029190910101526104be816113d3565b9050610453565b509392505050565b61035184848484610814565b6104e43383836108ee565b5050565b6001600160a01b03851633148061050457506105048533610187565b6105205760405162461bcd60e51b815260040161022f90611359565b61039c85858585856109ce565b6001600160a01b0384166105535760405162461bcd60e51b815260040161022f906113ec565b81518351146105745760405162461bcd60e51b815260040161022f9061142d565b3360005b845181101561061057838181518110610593576105936113a7565b60200260200101516000808784815181106105b0576105b06113a7565b602002602001015181526020019081526020016000206000886001600160a01b03166001600160a01b0316815260200190815260200160002060008282546105f89190611475565b90915550819050610608816113d3565b915050610578565b50846001600160a01b031660006001600160a01b0316826001600160a01b03167f4a39dc06d4c0dbc64b70af90fd698a233a518aa5d07e595d983b8c0526c8f7fb8787604051610661929190611488565b60405180910390a461039c81600087878787610af8565b81518351146106995760405162461bcd60e51b815260040161022f9061142d565b6001600160a01b0384166106bf5760405162461bcd60e51b815260040161022f906114b6565b3360005b84518110156107a65760008582815181106106e0576106e06113a7565b6020026020010151905060008583815181106106fe576106fe6113a7565b602090810291909101810151600084815280835260408082206001600160a01b038e16835290935291909120549091508181101561074e5760405162461bcd60e51b815260040161022f906114fb565b6000838152602081815260408083206001600160a01b038e8116855292528083208585039055908b1682528120805484929061078b908490611475565b925050819055505050508061079f906113d3565b90506106c3565b50846001600160a01b0316866001600160a01b0316826001600160a01b03167f4a39dc06d4c0dbc64b70af90fd698a233a518aa5d07e595d983b8c0526c8f7fb87876040516107f6929190611488565b60405180910390a461080c818787878787610af8565b505050505050565b6001600160a01b03841661083a5760405162461bcd60e51b815260040161022f906113ec565b33600061084685610c53565b9050600061085385610c53565b90506000868152602081815260408083206001600160a01b038b16845290915281208054879290610885908490611475565b909155505060408051878152602081018790526001600160a01b03808a1692600092918716917fc3d58168c5ae7397731d063d5bbf3d657854427343f4c083240f7aacaa2d0f62910160405180910390a46108e583600089898989610c9e565b50505050505050565b816001600160a01b0316836001600160a01b0316036109615760405162461bcd60e51b815260206004820152602960248201527f455243313135353a2073657474696e6720617070726f76616c20737461747573604482015268103337b91039b2b63360b91b606482015260840161022f565b6001600160a01b03838116600081815260016020908152604080832094871680845294825291829020805460ff191686151590811790915591519182527f17307eab39ab6107e8899845ad3d59bd9653f200f220920489ca2b5937696c31910160405180910390a3505050565b6001600160a01b0384166109f45760405162461bcd60e51b815260040161022f906114b6565b336000610a0085610c53565b90506000610a0d85610c53565b90506000868152602081815260408083206001600160a01b038c16845290915290205485811015610a505760405162461bcd60e51b815260040161022f906114fb565b6000878152602081815260408083206001600160a01b038d8116855292528083208985039055908a16825281208054889290610a8d908490611475565b909155505060408051888152602081018890526001600160a01b03808b16928c821692918816917fc3d58168c5ae7397731d063d5bbf3d657854427343f4c083240f7aacaa2d0f62910160405180910390a4610aed848a8a8a8a8a610c9e565b505050505050505050565b6001600160a01b0384163b1561080c5760405163bc197c8160e01b81526001600160a01b0385169063bc197c8190610b3c9089908990889088908890600401611545565b6020604051808303816000875af1925050508015610b77575060408051601f3d908101601f19168201909252610b74918101906115a3565b60015b610c2357610b836115c0565b806308c379a003610bbc5750610b976115dc565b80610ba25750610bbe565b8060405162461bcd60e51b815260040161022f9190610e3b565b505b60405162461bcd60e51b815260206004820152603460248201527f455243313135353a207472616e7366657220746f206e6f6e2d455243313135356044820152732932b1b2b4bb32b91034b6b83632b6b2b73a32b960611b606482015260840161022f565b6001600160e01b0319811663bc197c8160e01b146108e55760405162461bcd60e51b815260040161022f90611666565b60408051600180825281830190925260609160009190602080830190803683370190505090508281600081518110610c8d57610c8d6113a7565b602090810291909101015292915050565b6001600160a01b0384163b1561080c5760405163f23a6e6160e01b81526001600160a01b0385169063f23a6e6190610ce290899089908890889088906004016116ae565b6020604051808303816000875af1925050508015610d1d575060408051601f3d908101601f19168201909252610d1a918101906115a3565b60015b610d2957610b836115c0565b6001600160e01b0319811663f23a6e6160e01b146108e55760405162461bcd60e51b815260040161022f90611666565b80356001600160a01b0381168114610d7057600080fd5b919050565b60008060408385031215610d8857600080fd5b610d9183610d59565b946020939093013593505050565b6001600160e01b031981168114610db557600080fd5b50565b600060208284031215610dca57600080fd5b8135610dd581610d9f565b9392505050565b600060208284031215610dee57600080fd5b5035919050565b6000815180845260005b81811015610e1b57602081850181015186830182015201610dff565b506000602082860101526020601f19601f83011685010191505092915050565b602081526000610dd56020830184610df5565b634e487b7160e01b600052604160045260246000fd5b601f8201601f1916810167ffffffffffffffff81118282101715610e8a57610e8a610e4e565b6040525050565b600067ffffffffffffffff821115610eab57610eab610e4e565b5060051b60200190565b600082601f830112610ec657600080fd5b81356020610ed382610e91565b604051610ee08282610e64565b83815260059390931b8501820192828101915086841115610f0057600080fd5b8286015b84811015610f1b5780358352918301918301610f04565b509695505050505050565b600082601f830112610f3757600080fd5b813567ffffffffffffffff811115610f5157610f51610e4e565b604051610f68601f8301601f191660200182610e64565b818152846020838601011115610f7d57600080fd5b816020850160208301376000918101602001919091529392505050565b60008060008060808587031215610fb057600080fd5b610fb985610d59565b9350602085013567ffffffffffffffff80821115610fd657600080fd5b610fe288838901610eb5565b94506040870135915080821115610ff857600080fd5b61100488838901610eb5565b9350606087013591508082111561101a57600080fd5b5061102787828801610f26565b91505092959194509250565b600080600080600060a0868803121561104b57600080fd5b61105486610d59565b945061106260208701610d59565b9350604086013567ffffffffffffffff8082111561107f57600080fd5b61108b89838a01610eb5565b945060608801359150808211156110a157600080fd5b6110ad89838a01610eb5565b935060808801359150808211156110c357600080fd5b506110d088828901610f26565b9150509295509295909350565b600080604083850312156110f057600080fd5b823567ffffffffffffffff8082111561110857600080fd5b818501915085601f83011261111c57600080fd5b8135602061112982610e91565b6040516111368282610e64565b83815260059390931b850182019282810191508984111561115657600080fd5b948201945b8386101561117b5761116c86610d59565b8252948201949082019061115b565b9650508601359250508082111561119157600080fd5b5061119e85828601610eb5565b9150509250929050565b600081518084526020808501945080840160005b838110156111d8578151875295820195908201906001016111bc565b509495945050505050565b602081526000610dd560208301846111a8565b6000806000806080858703121561120c57600080fd5b61121585610d59565b93506020850135925060408501359150606085013567ffffffffffffffff81111561123f57600080fd5b61102787828801610f26565b6000806040838503121561125e57600080fd5b61126783610d59565b91506020830135801515811461127c57600080fd5b809150509250929050565b6000806040838503121561129a57600080fd5b6112a383610d59565b91506112b160208401610d59565b90509250929050565b600080600080600060a086880312156112d257600080fd5b6112db86610d59565b94506112e960208701610d59565b93506040860135925060608601359150608086013567ffffffffffffffff81111561131357600080fd5b6110d088828901610f26565b600181811c9082168061133357607f821691505b60208210810361135357634e487b7160e01b600052602260045260246000fd5b50919050565b6020808252602e908201527f455243313135353a2063616c6c6572206973206e6f7420746f6b656e206f776e60408201526d195c881bdc88185c1c1c9bdd995960921b606082015260800190565b634e487b7160e01b600052603260045260246000fd5b634e487b7160e01b600052601160045260246000fd5b6000600182016113e5576113e56113bd565b5060010190565b60208082526021908201527f455243313135353a206d696e7420746f20746865207a65726f206164647265736040820152607360f81b606082015260800190565b60208082526028908201527f455243313135353a2069647320616e6420616d6f756e7473206c656e677468206040820152670dad2e6dac2e8c6d60c31b606082015260800190565b8082018082111561025b5761025b6113bd565b60408152600061149b60408301856111a8565b82810360208401526114ad81856111a8565b95945050505050565b60208082526025908201527f455243313135353a207472616e7366657220746f20746865207a65726f206164604082015264647265737360d81b606082015260800190565b6020808252602a908201527f455243313135353a20696e73756666696369656e742062616c616e636520666f60408201526939103a3930b739b332b960b11b606082015260800190565b6001600160a01b0386811682528516602082015260a060408201819052600090611571908301866111a8565b828103606084015261158381866111a8565b905082810360808401526115978185610df5565b98975050505050505050565b6000602082840312156115b557600080fd5b8151610dd581610d9f565b600060033d11156115d95760046000803e5060005160e01c5b90565b600060443d10156115ea5790565b6040516003193d81016004833e81513d67ffffffffffffffff816024840111818411171561161a57505050505090565b82850191508151818111156116325750505050505090565b843d870101602082850101111561164c5750505050505090565b61165b60208286010187610e64565b509095945050505050565b60208082526028908201527f455243313135353a204552433131353552656365697665722072656a656374656040820152676420746f6b656e7360c01b606082015260800190565b6001600160a01b03868116825285166020820152604081018490526060810183905260a0608082018190526000906116e890830184610df5565b97965050505050505056fea2646970667358221220a5c507539803cdc87ac2f68d93e0a944b4eee62b906f02aada63e4d5355165d664736f6c63430008110033",
  "devdoc": {
    "kind": "dev",
    "methods": {
      "balanceOf(address,uint256)": {
        "details": "See {IERC1155-balanceOf}. Requirements: - `account` cannot be the zero address."
      },
      "balanceOfBatch(address[],uint256[])": {
        "details": "See {IERC1155-balanceOfBatch}. Requirements: - `accounts` and `ids` must have the same length."
      },
      "isApprovedForAll(address,address)": {
        "details": "See {IERC1155-isApprovedForAll}."
      },
      "safeBatchTransferFrom(address,address,uint256[],uint256[],bytes)": {
        "details": "See {IERC1155-safeBatchTransferFrom}."
      },
      "safeTransferFrom(address,address,uint256,uint256,bytes)": {
        "details": "See {IERC1155-safeTransferFrom}."
      },
      "setApprovalForAll(address,bool)": {
        "details": "See {IERC1155-setApprovalForAll}."
      },
      "supportsInterface(bytes4)": {
        "details": "See {IERC165-supportsInterface}."
      },
      "uri(uint256)": {
        "details": "See {IERC1155MetadataURI-uri}. This implementation returns the same URI for *all* token types. It relies on the token type ID substitution mechanism https://eips.ethereum.org/EIPS/eip-1155#metadata[defined in the EIP]. Clients calling this function must replace the `\\{id\\}` substring with the actual token type ID."
      }
    },
    "version": 1
  },
  "userdoc": {
    "kind": "user",
    "methods": {},
    "version": 1
  },
  "storageLayout": {
    "storage": [
      {
        "astId": 4051,
        "contract": "contracts/common/MockERC1155.sol:MockERC1155",
        "label": "_balances",
        "offset": 0,
        "slot": "0",
        "type": "t_mapping(t_uint256,t_mapping(t_address,t_uint256))"
      },
      {
        "astId": 4057,
        "contract": "contracts/common/MockERC1155.sol:MockERC1155",
        "label": "_operatorApprovals",
        "offset": 0,
        "slot": "1",
        "type": "t_mapping(t_address,t_mapping(t_address,t_bool))"
      },
      {
        "astId": 4059,
        "contract": "contracts/common/MockERC1155.sol:MockERC1155",
        "label": "_uri",
        "offset": 0,
        "slot": "2",
        "type": "t_string_storage"
      }
    ],
    "types": {
      "t_address": {
        "encoding": "inplace",
        "label": "address",
        "numberOfBytes": "20"
      },
      "t_bool": {
        "encoding": "inplace",
        "label": "bool",
        "numberOfBytes": "1"
      },
      "t_mapping(t_address,t_bool)": {
        "encoding": "mapping",
        "key": "t_address",
        "label": "mapping(address => bool)",
        "numberOfBytes": "32",
        "value": "t_bool"
      },
      "t_mapping(t_address,t_mapping(t_address,t_bool))": {
        "encoding": "mapping",
        "key": "t_address",
        "label": "mapping(address => mapping(address => bool))",
        "numberOfBytes": "32",
        "value": "t_mapping(t_address,t_bool)"
      },
      "t_mapping(t_address,t_uint256)": {
        "encoding": "mapping",
        "key": "t_address",
        "label": "mapping(address => uint256)",
        "numberOfBytes": "32",
        "value": "t_uint256"
      },
      "t_mapping(t_uint256,t_mapping(t_address,t_uint256))": {
        "encoding": "mapping",
        "key": "t_uint256",
        "label": "mapping(uint256 => mapping(address => uint256))",
        "numberOfBytes": "32",
        "value": "t_mapping(t_address,t_uint256)"
      },
      "t_string_storage": {
        "encoding": "bytes",
        "label": "string",
        "numberOfBytes": "32"
      },
      "t_uint256": {
        "encoding": "inplace",
        "label": "uint256",
        "numberOfBytes": "32"
      }
    }
  }
}