{
  "address": "0xfEf67EcCd2751e71e5ba33AD9c87dA713B2FB469",
  "abi": [
    {
      "anonymous": false,
      "inputs": [
        {
          "indexed": false,
          "internalType": "uint8",
          "name": "version",
          "type": "uint8"
        }
      ],
      "name": "Initialized",
      "type": "event"
    },
    {
      "anonymous": false,
      "inputs": [
        {
          "indexed": true,
          "internalType": "address",
          "name": "staker",
          "type": "address"
        },
        {
          "indexed": false,
          "internalType": "uint256",
          "name": "claimedAmount",
          "type": "uint256"
        },
        {
          "indexed": false,
          "internalType": "uint256",
          "name": "timestamp",
          "type": "uint256"
        }
      ],
      "name": "LogClaimed",
      "type": "event"
    },
    {
      "anonymous": false,
      "inputs": [
        {
          "indexed": false,
          "internalType": "address",
          "name": "addressRegistry",
          "type": "address"
        }
      ],
      "name": "LogSetAddressRegistry",
      "type": "event"
    },
    {
      "anonymous": false,
      "inputs": [
        {
          "indexed": false,
          "internalType": "address",
          "name": "atlantis",
          "type": "address"
        },
        {
          "indexed": false,
          "internalType": "uint256",
          "name": "timestamp",
          "type": "uint256"
        }
      ],
      "name": "LogSetAtlantisGemstones",
      "type": "event"
    },
    {
      "anonymous": false,
      "inputs": [
        {
          "indexed": false,
          "internalType": "address",
          "name": "stardust",
          "type": "address"
        },
        {
          "indexed": false,
          "internalType": "uint256",
          "name": "timestamp",
          "type": "uint256"
        }
      ],
      "name": "LogSetStardust",
      "type": "event"
    },
    {
      "anonymous": false,
      "inputs": [
        {
          "indexed": false,
          "internalType": "uint256",
          "name": "unstakeTime",
          "type": "uint256"
        },
        {
          "indexed": false,
          "internalType": "uint256",
          "name": "timestamp",
          "type": "uint256"
        }
      ],
      "name": "LogSetUnstakeTime",
      "type": "event"
    },
    {
      "anonymous": false,
      "inputs": [
        {
          "indexed": true,
          "internalType": "address",
          "name": "staker",
          "type": "address"
        },
        {
          "indexed": false,
          "internalType": "uint256",
          "name": "goldAmount",
          "type": "uint256"
        },
        {
          "indexed": false,
          "internalType": "uint256",
          "name": "timestamp",
          "type": "uint256"
        }
      ],
      "name": "LogStake",
      "type": "event"
    },
    {
      "anonymous": false,
      "inputs": [
        {
          "indexed": true,
          "internalType": "address",
          "name": "staker",
          "type": "address"
        },
        {
          "indexed": false,
          "internalType": "uint256",
          "name": "stardustAmount",
          "type": "uint256"
        },
        {
          "indexed": false,
          "internalType": "uint256",
          "name": "unstakeStart",
          "type": "uint256"
        },
        {
          "indexed": false,
          "internalType": "uint256",
          "name": "unstakeUnlocked",
          "type": "uint256"
        }
      ],
      "name": "LogUnstake",
      "type": "event"
    },
    {
      "anonymous": false,
      "inputs": [
        {
          "indexed": true,
          "internalType": "address",
          "name": "staker",
          "type": "address"
        },
        {
          "indexed": true,
          "internalType": "address",
          "name": "from",
          "type": "address"
        },
        {
          "indexed": false,
          "internalType": "uint256",
          "name": "stardustAmount",
          "type": "uint256"
        },
        {
          "indexed": false,
          "internalType": "uint256",
          "name": "burnTime",
          "type": "uint256"
        }
      ],
      "name": "LogUnstakeAndBurn",
      "type": "event"
    },
    {
      "anonymous": false,
      "inputs": [
        {
          "indexed": true,
          "internalType": "address",
          "name": "previousOwner",
          "type": "address"
        },
        {
          "indexed": true,
          "internalType": "address",
          "name": "newOwner",
          "type": "address"
        }
      ],
      "name": "OwnershipTransferred",
      "type": "event"
    },
    {
      "anonymous": false,
      "inputs": [
        {
          "indexed": false,
          "internalType": "address",
          "name": "account",
          "type": "address"
        }
      ],
      "name": "Paused",
      "type": "event"
    },
    {
      "anonymous": false,
      "inputs": [
        {
          "indexed": true,
          "internalType": "bytes32",
          "name": "role",
          "type": "bytes32"
        },
        {
          "indexed": true,
          "internalType": "bytes32",
          "name": "previousAdminRole",
          "type": "bytes32"
        },
        {
          "indexed": true,
          "internalType": "bytes32",
          "name": "newAdminRole",
          "type": "bytes32"
        }
      ],
      "name": "RoleAdminChanged",
      "type": "event"
    },
    {
      "anonymous": false,
      "inputs": [
        {
          "indexed": true,
          "internalType": "bytes32",
          "name": "role",
          "type": "bytes32"
        },
        {
          "indexed": true,
          "internalType": "address",
          "name": "account",
          "type": "address"
        },
        {
          "indexed": true,
          "internalType": "address",
          "name": "sender",
          "type": "address"
        }
      ],
      "name": "RoleGranted",
      "type": "event"
    },
    {
      "anonymous": false,
      "inputs": [
        {
          "indexed": true,
          "internalType": "bytes32",
          "name": "role",
          "type": "bytes32"
        },
        {
          "indexed": true,
          "internalType": "address",
          "name": "account",
          "type": "address"
        },
        {
          "indexed": true,
          "internalType": "address",
          "name": "sender",
          "type": "address"
        }
      ],
      "name": "RoleRevoked",
      "type": "event"
    },
    {
      "anonymous": false,
      "inputs": [
        {
          "indexed": false,
          "internalType": "address",
          "name": "account",
          "type": "address"
        }
      ],
      "name": "Unpaused",
      "type": "event"
    },
    {
      "inputs": [],
      "name": "DEFAULT_ADMIN_ROLE",
      "outputs": [
        {
          "internalType": "bytes32",
          "name": "",
          "type": "bytes32"
        }
      ],
      "stateMutability": "view",
      "type": "function"
    },
    {
      "inputs": [],
      "name": "PAUSER_ROLE",
      "outputs": [
        {
          "internalType": "bytes32",
          "name": "",
          "type": "bytes32"
        }
      ],
      "stateMutability": "view",
      "type": "function"
    },
    {
      "inputs": [
        {
          "internalType": "address",
          "name": "_admin",
          "type": "address"
        },
        {
          "internalType": "contract AtlantisAddressRegistry",
          "name": "_addressRegistry",
          "type": "address"
        }
      ],
      "name": "__StakingWithLock_init",
      "outputs": [],
      "stateMutability": "nonpayable",
      "type": "function"
    },
    {
      "inputs": [],
      "name": "addressRegistry",
      "outputs": [
        {
          "internalType": "contract AtlantisAddressRegistry",
          "name": "",
          "type": "address"
        }
      ],
      "stateMutability": "view",
      "type": "function"
    },
    {
      "inputs": [],
      "name": "claim",
      "outputs": [
        {
          "internalType": "bool",
          "name": "",
          "type": "bool"
        }
      ],
      "stateMutability": "nonpayable",
      "type": "function"
    },
    {
      "inputs": [
        {
          "internalType": "bytes32",
          "name": "role",
          "type": "bytes32"
        }
      ],
      "name": "getRoleAdmin",
      "outputs": [
        {
          "internalType": "bytes32",
          "name": "",
          "type": "bytes32"
        }
      ],
      "stateMutability": "view",
      "type": "function"
    },
    {
      "inputs": [
        {
          "internalType": "address",
          "name": "_user",
          "type": "address"
        }
      ],
      "name": "getUserClaimableGold",
      "outputs": [
        {
          "internalType": "uint256",
          "name": "",
          "type": "uint256"
        }
      ],
      "stateMutability": "view",
      "type": "function"
    },
    {
      "inputs": [
        {
          "internalType": "address",
          "name": "_user",
          "type": "address"
        }
      ],
      "name": "getUserPendingUnstakes",
      "outputs": [
        {
          "components": [
            {
              "internalType": "uint256",
              "name": "amount",
              "type": "uint256"
            },
            {
              "internalType": "uint256",
              "name": "startTime",
              "type": "uint256"
            },
            {
              "internalType": "uint256",
              "name": "claimTime",
              "type": "uint256"
            }
          ],
          "internalType": "struct StakingWithLock.Unstake[]",
          "name": "",
          "type": "tuple[]"
        }
      ],
      "stateMutability": "view",
      "type": "function"
    },
    {
      "inputs": [
        {
          "internalType": "address",
          "name": "_user",
          "type": "address"
        }
      ],
      "name": "getUserTotalGoldPendingUnstake",
      "outputs": [
        {
          "internalType": "uint256",
          "name": "",
          "type": "uint256"
        }
      ],
      "stateMutability": "view",
      "type": "function"
    },
    {
      "inputs": [
        {
          "internalType": "bytes32",
          "name": "role",
          "type": "bytes32"
        },
        {
          "internalType": "address",
          "name": "account",
          "type": "address"
        }
      ],
      "name": "grantRole",
      "outputs": [],
      "stateMutability": "nonpayable",
      "type": "function"
    },
    {
      "inputs": [
        {
          "internalType": "bytes32",
          "name": "role",
          "type": "bytes32"
        },
        {
          "internalType": "address",
          "name": "account",
          "type": "address"
        }
      ],
      "name": "hasRole",
      "outputs": [
        {
          "internalType": "bool",
          "name": "",
          "type": "bool"
        }
      ],
      "stateMutability": "view",
      "type": "function"
    },
    {
      "inputs": [],
      "name": "owner",
      "outputs": [
        {
          "internalType": "address",
          "name": "",
          "type": "address"
        }
      ],
      "stateMutability": "view",
      "type": "function"
    },
    {
      "inputs": [],
      "name": "pauseContract",
      "outputs": [],
      "stateMutability": "nonpayable",
      "type": "function"
    },
    {
      "inputs": [],
      "name": "paused",
      "outputs": [
        {
          "internalType": "bool",
          "name": "",
          "type": "bool"
        }
      ],
      "stateMutability": "view",
      "type": "function"
    },
    {
      "inputs": [],
      "name": "renounceOwnership",
      "outputs": [],
      "stateMutability": "nonpayable",
      "type": "function"
    },
    {
      "inputs": [
        {
          "internalType": "bytes32",
          "name": "role",
          "type": "bytes32"
        },
        {
          "internalType": "address",
          "name": "account",
          "type": "address"
        }
      ],
      "name": "renounceRole",
      "outputs": [],
      "stateMutability": "nonpayable",
      "type": "function"
    },
    {
      "inputs": [
        {
          "internalType": "bytes32",
          "name": "role",
          "type": "bytes32"
        },
        {
          "internalType": "address",
          "name": "account",
          "type": "address"
        }
      ],
      "name": "revokeRole",
      "outputs": [],
      "stateMutability": "nonpayable",
      "type": "function"
    },
    {
      "inputs": [
        {
          "internalType": "contract AtlantisAddressRegistry",
          "name": "_addressRegistry",
          "type": "address"
        }
      ],
      "name": "setAtlantisRegistry",
      "outputs": [],
      "stateMutability": "nonpayable",
      "type": "function"
    },
    {
      "inputs": [
        {
          "internalType": "uint256",
          "name": "_unstakeTime",
          "type": "uint256"
        }
      ],
      "name": "setUnstakeTime",
      "outputs": [],
      "stateMutability": "nonpayable",
      "type": "function"
    },
    {
      "inputs": [
        {
          "internalType": "uint256",
          "name": "_amount",
          "type": "uint256"
        }
      ],
      "name": "stake",
      "outputs": [
        {
          "internalType": "bool",
          "name": "",
          "type": "bool"
        }
      ],
      "stateMutability": "nonpayable",
      "type": "function"
    },
    {
      "inputs": [
        {
          "internalType": "bytes4",
          "name": "interfaceId",
          "type": "bytes4"
        }
      ],
      "name": "supportsInterface",
      "outputs": [
        {
          "internalType": "bool",
          "name": "",
          "type": "bool"
        }
      ],
      "stateMutability": "view",
      "type": "function"
    },
    {
      "inputs": [
        {
          "internalType": "address",
          "name": "newOwner",
          "type": "address"
        }
      ],
      "name": "transferOwnership",
      "outputs": [],
      "stateMutability": "nonpayable",
      "type": "function"
    },
    {
      "inputs": [],
      "name": "unpause",
      "outputs": [],
      "stateMutability": "nonpayable",
      "type": "function"
    },
    {
      "inputs": [
        {
          "internalType": "uint256",
          "name": "_amount",
          "type": "uint256"
        }
      ],
      "name": "unstake",
      "outputs": [
        {
          "internalType": "bool",
          "name": "",
          "type": "bool"
        }
      ],
      "stateMutability": "nonpayable",
      "type": "function"
    },
    {
      "inputs": [
        {
          "internalType": "uint256",
          "name": "_amount",
          "type": "uint256"
        }
      ],
      "name": "unstakeAndBurn",
      "outputs": [],
      "stateMutability": "nonpayable",
      "type": "function"
    },
    {
      "inputs": [
        {
          "internalType": "address",
          "name": "",
          "type": "address"
        },
        {
          "internalType": "uint256",
          "name": "",
          "type": "uint256"
        }
      ],
      "name": "unstakeInfo",
      "outputs": [
        {
          "internalType": "uint256",
          "name": "amount",
          "type": "uint256"
        },
        {
          "internalType": "uint256",
          "name": "startTime",
          "type": "uint256"
        },
        {
          "internalType": "uint256",
          "name": "claimTime",
          "type": "uint256"
        }
      ],
      "stateMutability": "view",
      "type": "function"
    },
    {
      "inputs": [],
      "name": "unstakeTime",
      "outputs": [
        {
          "internalType": "uint256",
          "name": "",
          "type": "uint256"
        }
      ],
      "stateMutability": "view",
      "type": "function"
    },
    {
      "inputs": [
        {
          "internalType": "address",
          "name": "",
          "type": "address"
        }
      ],
      "name": "whitelistedContracts",
      "outputs": [
        {
          "internalType": "uint256",
          "name": "",
          "type": "uint256"
        }
      ],
      "stateMutability": "view",
      "type": "function"
    }
  ],
  "transactionHash": "0x51a7ca29f358ac7afff38bb9d3eefb92cdad0d52bc75f7a443c51924c59f38f7",
  "args": [],
  "numDeployments": 1,
  "solcInputHash": "a6d980fc1505f1cf54d4793b02b44993",
  "bytecode": "0x608060405234801561001057600080fd5b506124a4806100206000396000f3fe608060405234801561001057600080fd5b50600436106101c35760003560e01c80634e71d92d116100f9578063a694fc3a11610097578063d7e5274511610071578063d7e52745146103ce578063e63ab1e9146103d8578063f2fde38b146103ed578063f3ad65f41461040057600080fd5b8063a694fc3a14610395578063a7b8b491146103a8578063d547741f146103bb57600080fd5b8063715018a6116100d3578063715018a61461034d5780638da5cb5b1461035557806391d148541461037a578063a217fddf1461038d57600080fd5b80634e71d92d146103275780635c975abb1461032f5780636a8467c11461033a57600080fd5b80632e17de7811610166578063391feebb11610140578063391feebb146102e35780633f4ba83a14610304578063439766ce1461030c5780634b62e0881461031457600080fd5b80632e17de78146102aa5780632f2ff15d146102bd57806336568abe146102d057600080fd5b8063190106ea116101a2578063190106ea146102185780631984cc1d14610238578063248a9ca31461026657806327b1f5791461029757600080fd5b806253e76a146101c857806301ffc9a7146101dd57806313f9f34014610205575b600080fd5b6101db6101d6366004612073565b610414565b005b6101f06101eb366004612090565b610476565b60405190151581526020015b60405180910390f35b6101db6102133660046120ba565b6104ad565b61022b610226366004612073565b6104f3565b6040516101fc91906120d3565b61024b61024636600461212c565b610587565b604080519384526020840192909252908201526060016101fc565b6102896102743660046120ba565b60009081526065602052604090206001015490565b6040519081526020016101fc565b6102896102a5366004612073565b6105ca565b6101f06102b83660046120ba565b6106c7565b6101db6102cb366004612158565b61093a565b6101db6102de366004612158565b610964565b6102896102f1366004612073565b61012f6020526000908152604090205481565b6101db6109e2565b6101db610a05565b610289610322366004612073565b610a25565b6101f0610b22565b60975460ff166101f0565b6101db610348366004612188565b610f39565b6101db6110b9565b60fb546001600160a01b03165b6040516001600160a01b0390911681526020016101fc565b6101f0610388366004612158565b6110cd565b610289600081565b6101f06103a33660046120ba565b6110f8565b6101db6103b63660046120ba565b611311565b6101db6103c9366004612158565b6115b7565b6102896101305481565b61028960008051602061244f83398151915281565b6101db6103fb366004612073565b6115dc565b61012d54610362906001600160a01b031681565b600061041f81611652565b61012d80546001600160a01b0319166001600160a01b0384169081179091556040519081527f18c5c00095c56f1915eddb0ef653ea1a1724615726d5896d706ce09384ecb0f9906020015b60405180910390a15050565b60006001600160e01b03198216637965db0b60e01b14806104a757506301ffc9a760e01b6001600160e01b03198316145b92915050565b60006104b881611652565b610130829055604080518381524260208201527fb7c986bef6a847c373c37fac58700d5a9443aa7cbed017d47c7ae940e92b1ff5910161046a565b6001600160a01b038116600090815261012e60209081526040808320805482518185028101850190935280835260609492939192909184015b8282101561057c578382906000526020600020906003020160405180606001604052908160008201548152602001600182015481526020016002820154815250508152602001906001019061052c565b505050509050919050565b61012e60205281600052604060002081815481106105a457600080fd5b600091825260209091206003909102018054600182015460029092015490935090915083565b6001600160a01b038116600090815261012e6020908152604080832080548251818502810185019093528083528493849084015b8282101561064e57838290600052602060002090600302016040518060600160405290816000820154815260200160018201548152602001600282015481525050815260200190600101906105fe565b50508251929350600091508190505b828110156106aa576000848281518110610679576106796121b6565b6020908102919091010151805190915061069381856121e2565b9350505080806106a2906121fa565b91505061065d565b506106b485610a25565b6106be9082612215565b95945050505050565b60006106d161165c565b6106d96116b6565b600082116107025760405162461bcd60e51b81526004016106f99061222c565b60405180910390fd5b61012d546040805163301c981160e21b815290516000926001600160a01b03169163c07260449160048083019260209291908290030181865afa15801561074d573d6000803e3d6000fd5b505050506040513d601f19601f82011682018060405250810190610771919061226f565b905060006040518060600160405280858152602001428152602001610130544261079b91906121e2565b905233600081815261012e60209081526040808320805460018082018355918552938390208651600390950201938455918501519183019190915583810151600290920191909155516323b872dd60e01b81526004810191909152306024820152604481018690529091506001600160a01b038316906323b872dd906064016020604051808303816000875af1158015610839573d6000803e3d6000fd5b505050506040513d601f19601f8201168201806040525081019061085d919061228c565b50604051630852cd8d60e31b8152600481018590526001600160a01b038316906342966c68906024016020604051808303816000875af11580156108a5573d6000803e3d6000fd5b505050506040513d601f19601f820116820180604052508101906108c9919061228c565b50336001600160a01b03167f753014cc7945cb3c93016ecb5bc2a66e26d69971a934fcfe2a882794cb3448278542610130544261090691906121e2565b604080519384526020840192909252908201526060015b60405180910390a2600192505050610935600160c955565b919050565b60008281526065602052604090206001015461095581611652565b61095f8383611703565b505050565b6001600160a01b03811633146109d45760405162461bcd60e51b815260206004820152602f60248201527f416363657373436f6e74726f6c3a2063616e206f6e6c792072656e6f756e636560448201526e103937b632b9903337b91039b2b63360891b60648201526084016106f9565b6109de8282611789565b5050565b60008051602061244f8339815191526109fa81611652565b610a026117f0565b50565b60008051602061244f833981519152610a1d81611652565b610a02611842565b6001600160a01b038116600090815261012e60209081526040808320805482518185028101850190935280835284938493929190849084015b82821015610aae5783829060005260206000209060030201604051806060016040529081600082015481526020016001820154815260200160028201548152505081526020019060010190610a5e565b5050825192935060009150505b81811015610b18576000838281518110610ad757610ad76121b6565b6020908102919091010151604081015181519192509042821015610b0257610aff81886121e2565b96505b5050508080610b10906121fa565b915050610abb565b5091949350505050565b6000610b2c61165c565b610b346116b6565b61012d5460408051632178329960e11b815290516000926001600160a01b0316916342f065329160048083019260209291908290030181865afa158015610b7f573d6000803e3d6000fd5b505050506040513d601f19601f82011682018060405250810190610ba3919061226f565b33600090815261012e6020526040812080549293509091606091908067ffffffffffffffff811115610bd757610bd76122ae565b604051908082528060200260200182016040528015610c2c57816020015b610c1960405180606001604052806000815260200160008152602001600081525090565b815260200190600190039081610bf55790505b50925060005b81811015610cd5576000838281548110610c4e57610c4e6121b6565b60009182526020909120600390910201600281015481549192509042821015610c8257610c7b81896121e2565b9750610cbf565b60405180606001604052808281526020018460010154815260200183815250878581518110610cb357610cb36121b6565b60200260200101819052505b5050508080610ccd906121fa565b915050610c32565b5033600090815261012e60205260408120610cef9161201c565b825160005b81811015610d9857848181518110610d0e57610d0e6121b6565b602002602001015160200151600014610d865733600090815261012e602052604090208551869083908110610d4557610d456121b6565b602090810291909101810151825460018181018555600094855293839020825160039092020190815591810151928201929092556040909101516002909101555b80610d90816121fa565b915050610cf4565b506060935060008511610df75760405162461bcd60e51b815260206004820152602160248201527f5374616b696e67576974684c6f636b3a204e6f7468696e6720746f20636c61696044820152606d60f81b60648201526084016106f9565b6040516370a0823160e01b81523060048201526001600160a01b038716906370a0823190602401602060405180830381865afa158015610e3b573d6000803e3d6000fd5b505050506040513d601f19601f82011682018060405250810190610e5f91906122c4565b851115610ed45760405162461bcd60e51b815260206004820152603760248201527f5374616b696e67576974684c6f636b3a20496e73756666696369656e7420626160448201527f6c616e63652c20636865636b206261636b206c6174657200000000000000000060648201526084016106f9565b610ee86001600160a01b038716338761187f565b6040805186815242602082015233917fdaf43f13f8e52679dc580fc78bf80028f7d4ed733283deb8554be3907944533d910160405180910390a260019650505050505050610f36600160c955565b90565b600054610100900460ff1615808015610f595750600054600160ff909116105b80610f735750303b158015610f73575060005460ff166001145b610fd65760405162461bcd60e51b815260206004820152602e60248201527f496e697469616c697a61626c653a20636f6e747261637420697320616c72656160448201526d191e481a5b9a5d1a585b1a5e995960921b60648201526084016106f9565b6000805460ff191660011790558015610ff9576000805461ff0019166101001790555b6110016118e2565b611009611909565b611011611930565b611019611909565b611021611909565b611029611963565b611034600084611993565b61104c60008051602061244f83398151915284611993565b61012d80546001600160a01b0319166001600160a01b038416179055610e1061013055801561095f576000805461ff0019169055604051600181527f7f26b83ff96e1f2b6a682f133852f6798a09c465da95921460cefb38474024989060200160405180910390a1505050565b6110c161199d565b6110cb60006119f7565b565b60009182526065602090815260408084206001600160a01b0393909316845291905290205460ff1690565b600061110261165c565b61110a6116b6565b600082116111665760405162461bcd60e51b815260206004820152602360248201527f5374616b696e67576974684c6f636b3a204e6f7468696e6720746f206465706f6044820152621cda5d60ea1b60648201526084016106f9565b61012d5460408051632178329960e11b815290516000926001600160a01b0316916342f065329160048083019260209291908290030181865afa1580156111b1573d6000803e3d6000fd5b505050506040513d601f19601f820116820180604052508101906111d5919061226f565b9050600061012d60009054906101000a90046001600160a01b03166001600160a01b031663c07260446040518163ffffffff1660e01b8152600401602060405180830381865afa15801561122d573d6000803e3d6000fd5b505050506040513d601f19601f82011682018060405250810190611251919061226f565b90506112686001600160a01b038316333087611a49565b6040516340c10f1960e01b8152336004820152602481018590526001600160a01b038216906340c10f19906044016020604051808303816000875af11580156112b5573d6000803e3d6000fd5b505050506040513d601f19601f820116820180604052508101906112d9919061228c565b506040805185815242602082015233917fa0d1fa51224fb08c7c0b48d481448ad6a31c945d1a68cac8758cac3a92d5001c910161091d565b611319611a87565b61012d546040805163301c981160e21b815290516000926001600160a01b03169163c07260449160048083019260209291908290030181865afa158015611364573d6000803e3d6000fd5b505050506040513d601f19601f82011682018060405250810190611388919061226f565b9050600061012d60009054906101000a90046001600160a01b03166001600160a01b03166342f065326040518163ffffffff1660e01b8152600401602060405180830381865afa1580156113e0573d6000803e3d6000fd5b505050506040513d601f19601f82011682018060405250810190611404919061226f565b9050600083116114265760405162461bcd60e51b81526004016106f99061222c565b6040516323b872dd60e01b8152326004820152306024820152604481018490526001600160a01b038316906323b872dd906064016020604051808303816000875af1158015611479573d6000803e3d6000fd5b505050506040513d601f19601f8201168201806040525081019061149d919061228c565b50604051630852cd8d60e31b8152600481018490526001600160a01b038316906342966c68906024016020604051808303816000875af11580156114e5573d6000803e3d6000fd5b505050506040513d601f19601f82011682018060405250810190611509919061228c565b50604051630852cd8d60e31b8152600481018490526001600160a01b038216906342966c68906024016020604051808303816000875af1158015611551573d6000803e3d6000fd5b505050506040513d601f19601f82011682018060405250810190611575919061228c565b5060408051848152426020820152339132917f42849e375a18bc47be6ed47fbd7f66156e75e6a652b2b47a4d5842c802d7c81b910160405180910390a3505050565b6000828152606560205260409020600101546115d281611652565b61095f8383611789565b6115e461199d565b6001600160a01b0381166116495760405162461bcd60e51b815260206004820152602660248201527f4f776e61626c653a206e6577206f776e657220697320746865207a65726f206160448201526564647265737360d01b60648201526084016106f9565b610a02816119f7565b610a028133611b66565b600260c95414156116af5760405162461bcd60e51b815260206004820152601f60248201527f5265656e7472616e637947756172643a207265656e7472616e742063616c6c0060448201526064016106f9565b600260c955565b60975460ff16156110cb5760405162461bcd60e51b815260206004820152601060248201526f14185d5cd8589b194e881c185d5cd95960821b60448201526064016106f9565b600160c955565b61170d82826110cd565b6109de5760008281526065602090815260408083206001600160a01b03851684529091529020805460ff191660011790556117453390565b6001600160a01b0316816001600160a01b0316837f2f8788117e7eff1d82e926ec794901d17c78024a50270940304540a733656f0d60405160405180910390a45050565b61179382826110cd565b156109de5760008281526065602090815260408083206001600160a01b0385168085529252808320805460ff1916905551339285917ff6391f5c32d9c69d2a47ea670b442974b53935d1edc7fd64eb21e047a839171b9190a45050565b6117f8611bbf565b6097805460ff191690557f5db9ee0a495bf2e6ff9c91a7834c1ba4fdd244a5e8aa4e537bd38aeae4b073aa335b6040516001600160a01b03909116815260200160405180910390a1565b61184a6116b6565b6097805460ff191660011790557f62e78cea01bee320cd4e420270b5ea74000d11b0c9f74754ebdbfc544b05a2586118253390565b6040516001600160a01b03831660248201526044810182905261095f90849063a9059cbb60e01b906064015b60408051601f198184030181529190526020810180516001600160e01b03166001600160e01b031990931692909217909152611c08565b600054610100900460ff166116fc5760405162461bcd60e51b81526004016106f9906122dd565b600054610100900460ff166110cb5760405162461bcd60e51b81526004016106f9906122dd565b600054610100900460ff166119575760405162461bcd60e51b81526004016106f9906122dd565b6097805460ff19169055565b600054610100900460ff1661198a5760405162461bcd60e51b81526004016106f9906122dd565b6110cb336119f7565b6109de8282611703565b60fb546001600160a01b031633146110cb5760405162461bcd60e51b815260206004820181905260248201527f4f776e61626c653a2063616c6c6572206973206e6f7420746865206f776e657260448201526064016106f9565b60fb80546001600160a01b038381166001600160a01b0319831681179093556040519116919082907f8be0079c531659141344cd1fd0a4f28419497f9722a3daafe3b4186f6b6457e090600090a35050565b6040516001600160a01b0380851660248301528316604482015260648101829052611a819085906323b872dd60e01b906084016118ab565b50505050565b61012d54604051634dd20a0360e11b81523360048201526001600160a01b0390911690639ba4140690602401602060405180830381865afa158015611ad0573d6000803e3d6000fd5b505050506040513d601f19601f82011682018060405250810190611af4919061228c565b6110cb5760405162461bcd60e51b815260206004820152603f60248201527f5374616b696e67576974684c6f636b3a204f6e6c792041746c616e746973206360448201527f6f6e7472616374732063616e2063616c6c20746869732066756e6374696f6e0060648201526084016106f9565b611b7082826110cd565b6109de57611b7d81611cda565b611b88836020611cec565b604051602001611b99929190612354565b60408051601f198184030181529082905262461bcd60e51b82526106f9916004016123c9565b60975460ff166110cb5760405162461bcd60e51b815260206004820152601460248201527314185d5cd8589b194e881b9bdd081c185d5cd95960621b60448201526064016106f9565b6000611c5d826040518060400160405280602081526020017f5361666545524332303a206c6f772d6c6576656c2063616c6c206661696c6564815250856001600160a01b0316611e8f9092919063ffffffff16565b80519091501561095f5780806020019051810190611c7b919061228c565b61095f5760405162461bcd60e51b815260206004820152602a60248201527f5361666545524332303a204552433230206f7065726174696f6e20646964206e6044820152691bdd081cdd58d8d9595960b21b60648201526084016106f9565b60606104a76001600160a01b03831660145b60606000611cfb8360026123fc565b611d069060026121e2565b67ffffffffffffffff811115611d1e57611d1e6122ae565b6040519080825280601f01601f191660200182016040528015611d48576020820181803683370190505b509050600360fc1b81600081518110611d6357611d636121b6565b60200101906001600160f81b031916908160001a905350600f60fb1b81600181518110611d9257611d926121b6565b60200101906001600160f81b031916908160001a9053506000611db68460026123fc565b611dc19060016121e2565b90505b6001811115611e39576f181899199a1a9b1b9c1cb0b131b232b360811b85600f1660108110611df557611df56121b6565b1a60f81b828281518110611e0b57611e0b6121b6565b60200101906001600160f81b031916908160001a90535060049490941c93611e328161241b565b9050611dc4565b508315611e885760405162461bcd60e51b815260206004820181905260248201527f537472696e67733a20686578206c656e67746820696e73756666696369656e7460448201526064016106f9565b9392505050565b6060611e9e8484600085611ea6565b949350505050565b606082471015611f075760405162461bcd60e51b815260206004820152602660248201527f416464726573733a20696e73756666696369656e742062616c616e636520666f6044820152651c8818d85b1b60d21b60648201526084016106f9565b600080866001600160a01b03168587604051611f239190612432565b60006040518083038185875af1925050503d8060008114611f60576040519150601f19603f3d011682016040523d82523d6000602084013e611f65565b606091505b5091509150611f7687838387611f81565b979650505050505050565b60608315611fed578251611fe6576001600160a01b0385163b611fe65760405162461bcd60e51b815260206004820152601d60248201527f416464726573733a2063616c6c20746f206e6f6e2d636f6e747261637400000060448201526064016106f9565b5081611e9e565b611e9e83838151156120025781518083602001fd5b8060405162461bcd60e51b81526004016106f991906123c9565b5080546000825560030290600052602060002090810190610a0291905b8082111561205a576000808255600182018190556002820155600301612039565b5090565b6001600160a01b0381168114610a0257600080fd5b60006020828403121561208557600080fd5b8135611e888161205e565b6000602082840312156120a257600080fd5b81356001600160e01b031981168114611e8857600080fd5b6000602082840312156120cc57600080fd5b5035919050565b602080825282518282018190526000919060409081850190868401855b8281101561211f57815180518552868101518786015285015185850152606090930192908501906001016120f0565b5091979650505050505050565b6000806040838503121561213f57600080fd5b823561214a8161205e565b946020939093013593505050565b6000806040838503121561216b57600080fd5b82359150602083013561217d8161205e565b809150509250929050565b6000806040838503121561219b57600080fd5b82356121a68161205e565b9150602083013561217d8161205e565b634e487b7160e01b600052603260045260246000fd5b634e487b7160e01b600052601160045260246000fd5b600082198211156121f5576121f56121cc565b500190565b600060001982141561220e5761220e6121cc565b5060010190565b600082821015612227576122276121cc565b500390565b60208082526023908201527f5374616b696e67576974684c6f636b3a204e6f7468696e6720746f20756e7374604082015262616b6560e81b606082015260800190565b60006020828403121561228157600080fd5b8151611e888161205e565b60006020828403121561229e57600080fd5b81518015158114611e8857600080fd5b634e487b7160e01b600052604160045260246000fd5b6000602082840312156122d657600080fd5b5051919050565b6020808252602b908201527f496e697469616c697a61626c653a20636f6e7472616374206973206e6f74206960408201526a6e697469616c697a696e6760a81b606082015260800190565b60005b8381101561234357818101518382015260200161232b565b83811115611a815750506000910152565b7f416363657373436f6e74726f6c3a206163636f756e742000000000000000000081526000835161238c816017850160208801612328565b7001034b99036b4b9b9b4b733903937b6329607d1b60179184019182015283516123bd816028840160208801612328565b01602801949350505050565b60208152600082518060208401526123e8816040850160208701612328565b601f01601f19169190910160400192915050565b6000816000190483118215151615612416576124166121cc565b500290565b60008161242a5761242a6121cc565b506000190190565b60008251612444818460208701612328565b919091019291505056fe65d7a28e3265b37a6474929f336521b332c1681b933f6cb9f3376673440d862aa26469706673582212204abc52082a62fcfbe56375c02ac1078d6c85c59d1881431e82045f69913f10f864736f6c634300080b0033",
  "devdoc": {
    "kind": "dev",
    "methods": {
      "__StakingWithLock_init(address,address)": {
        "params": {
          "_admin": "address of the admin."
        }
      },
      "getRoleAdmin(bytes32)": {
        "details": "Returns the admin role that controls `role`. See {grantRole} and {revokeRole}. To change a role's admin, use {_setRoleAdmin}."
      },
      "grantRole(bytes32,address)": {
        "details": "Grants `role` to `account`. If `account` had not been already granted `role`, emits a {RoleGranted} event. Requirements: - the caller must have ``role``'s admin role. May emit a {RoleGranted} event."
      },
      "hasRole(bytes32,address)": {
        "details": "Returns `true` if `account` has been granted `role`."
      },
      "owner()": {
        "details": "Returns the address of the current owner."
      },
      "pauseContract()": {
        "details": "Can only be called by pauser role."
      },
      "paused()": {
        "details": "Returns true if the contract is paused, and false otherwise."
      },
      "renounceOwnership()": {
        "details": "Leaves the contract without owner. It will not be possible to call `onlyOwner` functions anymore. Can only be called by the current owner. NOTE: Renouncing ownership will leave the contract without an owner, thereby removing any functionality that is only available to the owner."
      },
      "renounceRole(bytes32,address)": {
        "details": "Revokes `role` from the calling account. Roles are often managed via {grantRole} and {revokeRole}: this function's purpose is to provide a mechanism for accounts to lose their privileges if they are compromised (such as when a trusted device is misplaced). If the calling account had been revoked `role`, emits a {RoleRevoked} event. Requirements: - the caller must be `account`. May emit a {RoleRevoked} event."
      },
      "revokeRole(bytes32,address)": {
        "details": "Revokes `role` from `account`. If `account` had been granted `role`, emits a {RoleRevoked} event. Requirements: - the caller must have ``role``'s admin role. May emit a {RoleRevoked} event."
      },
      "setAtlantisRegistry(address)": {
        "params": {
          "_addressRegistry": "address of Atlantis Registry"
        }
      },
      "stake(uint256)": {
        "params": {
          "_amount": "amount of gold tokens to stake."
        }
      },
      "supportsInterface(bytes4)": {
        "details": "See {IERC165-supportsInterface}."
      },
      "transferOwnership(address)": {
        "details": "Transfers ownership of the contract to a new account (`newOwner`). Can only be called by the current owner."
      },
      "unpause()": {
        "details": "Can only be called by pauser role."
      },
      "unstake(uint256)": {
        "params": {
          "_amount": "amount of stardust tokens to unstake."
        }
      }
    },
    "stateVariables": {
      "__gap": {
        "details": "This empty reserved space is put in place to allow future versions to add new variables without shifting down storage in the inheritance chain. See https://docs.openzeppelin.com/contracts/4.x/upgradeable#storage_gaps"
      }
    },
    "title": "StakingWithLock",
    "version": 1
  },
  "userdoc": {
    "kind": "user",
    "methods": {
      "__StakingWithLock_init(address,address)": {
        "notice": "Initialises StakingWithLock contract with the required addresses."
      },
      "claim()": {
        "notice": "Function to claim after the unstaking period of Stardust."
      },
      "getUserClaimableGold(address)": {
        "notice": "View user's claimable Gold."
      },
      "getUserPendingUnstakes(address)": {
        "notice": "View user's pending unstakes."
      },
      "getUserTotalGoldPendingUnstake(address)": {
        "notice": "View user's total amount of Gold that is pending unstake (includes Gold that are not yet claimed)."
      },
      "pauseContract()": {
        "notice": "Pauses contract."
      },
      "setAtlantisRegistry(address)": {
        "notice": "Set Atlantis Registry"
      },
      "stake(uint256)": {
        "notice": "Stake gold tokens in exchange for stardust tokens."
      },
      "unpause()": {
        "notice": "Unpauses contract."
      },
      "unstake(uint256)": {
        "notice": "Initiate unstake of stardust tokens which will require unstaking period before claiming."
      }
    },
    "notice": "StakingWithLock is the contract that allows users to stake their gold tokens and receive stardust.",
    "version": 1
  },
  "storageLayout": {
    "storage": [
      {
        "astId": 547,
        "contract": "contracts/StakingWithLock.sol:StakingWithLock",
        "label": "_initialized",
        "offset": 0,
        "slot": "0",
        "type": "t_uint8"
      },
      {
        "astId": 550,
        "contract": "contracts/StakingWithLock.sol:StakingWithLock",
        "label": "_initializing",
        "offset": 1,
        "slot": "0",
        "type": "t_bool"
      },
      {
        "astId": 1629,
        "contract": "contracts/StakingWithLock.sol:StakingWithLock",
        "label": "__gap",
        "offset": 0,
        "slot": "1",
        "type": "t_array(t_uint256)50_storage"
      },
      {
        "astId": 1848,
        "contract": "contracts/StakingWithLock.sol:StakingWithLock",
        "label": "__gap",
        "offset": 0,
        "slot": "51",
        "type": "t_array(t_uint256)50_storage"
      },
      {
        "astId": 39,
        "contract": "contracts/StakingWithLock.sol:StakingWithLock",
        "label": "_roles",
        "offset": 0,
        "slot": "101",
        "type": "t_mapping(t_bytes32,t_struct(RoleData)34_storage)"
      },
      {
        "astId": 334,
        "contract": "contracts/StakingWithLock.sol:StakingWithLock",
        "label": "__gap",
        "offset": 0,
        "slot": "102",
        "type": "t_array(t_uint256)49_storage"
      },
      {
        "astId": 730,
        "contract": "contracts/StakingWithLock.sol:StakingWithLock",
        "label": "_paused",
        "offset": 0,
        "slot": "151",
        "type": "t_bool"
      },
      {
        "astId": 835,
        "contract": "contracts/StakingWithLock.sol:StakingWithLock",
        "label": "__gap",
        "offset": 0,
        "slot": "152",
        "type": "t_array(t_uint256)49_storage"
      },
      {
        "astId": 850,
        "contract": "contracts/StakingWithLock.sol:StakingWithLock",
        "label": "_status",
        "offset": 0,
        "slot": "201",
        "type": "t_uint256"
      },
      {
        "astId": 908,
        "contract": "contracts/StakingWithLock.sol:StakingWithLock",
        "label": "__gap",
        "offset": 0,
        "slot": "202",
        "type": "t_array(t_uint256)49_storage"
      },
      {
        "astId": 419,
        "contract": "contracts/StakingWithLock.sol:StakingWithLock",
        "label": "_owner",
        "offset": 0,
        "slot": "251",
        "type": "t_address"
      },
      {
        "astId": 539,
        "contract": "contracts/StakingWithLock.sol:StakingWithLock",
        "label": "__gap",
        "offset": 0,
        "slot": "252",
        "type": "t_array(t_uint256)49_storage"
      },
      {
        "astId": 3437,
        "contract": "contracts/StakingWithLock.sol:StakingWithLock",
        "label": "addressRegistry",
        "offset": 0,
        "slot": "301",
        "type": "t_contract(AtlantisAddressRegistry)3401"
      },
      {
        "astId": 3443,
        "contract": "contracts/StakingWithLock.sol:StakingWithLock",
        "label": "unstakeInfo",
        "offset": 0,
        "slot": "302",
        "type": "t_mapping(t_address,t_array(t_struct(Unstake)3434_storage)dyn_storage)"
      },
      {
        "astId": 3447,
        "contract": "contracts/StakingWithLock.sol:StakingWithLock",
        "label": "whitelistedContracts",
        "offset": 0,
        "slot": "303",
        "type": "t_mapping(t_address,t_uint256)"
      },
      {
        "astId": 3449,
        "contract": "contracts/StakingWithLock.sol:StakingWithLock",
        "label": "unstakeTime",
        "offset": 0,
        "slot": "304",
        "type": "t_uint256"
      },
      {
        "astId": 3517,
        "contract": "contracts/StakingWithLock.sol:StakingWithLock",
        "label": "__gap",
        "offset": 0,
        "slot": "305",
        "type": "t_array(t_uint256)50_storage"
      }
    ],
    "types": {
      "t_address": {
        "encoding": "inplace",
        "label": "address",
        "numberOfBytes": "20"
      },
      "t_array(t_struct(Unstake)3434_storage)dyn_storage": {
        "base": "t_struct(Unstake)3434_storage",
        "encoding": "dynamic_array",
        "label": "struct StakingWithLock.Unstake[]",
        "numberOfBytes": "32"
      },
      "t_array(t_uint256)49_storage": {
        "base": "t_uint256",
        "encoding": "inplace",
        "label": "uint256[49]",
        "numberOfBytes": "1568"
      },
      "t_array(t_uint256)50_storage": {
        "base": "t_uint256",
        "encoding": "inplace",
        "label": "uint256[50]",
        "numberOfBytes": "1600"
      },
      "t_bool": {
        "encoding": "inplace",
        "label": "bool",
        "numberOfBytes": "1"
      },
      "t_bytes32": {
        "encoding": "inplace",
        "label": "bytes32",
        "numberOfBytes": "32"
      },
      "t_contract(AtlantisAddressRegistry)3401": {
        "encoding": "inplace",
        "label": "contract AtlantisAddressRegistry",
        "numberOfBytes": "20"
      },
      "t_mapping(t_address,t_array(t_struct(Unstake)3434_storage)dyn_storage)": {
        "encoding": "mapping",
        "key": "t_address",
        "label": "mapping(address => struct StakingWithLock.Unstake[])",
        "numberOfBytes": "32",
        "value": "t_array(t_struct(Unstake)3434_storage)dyn_storage"
      },
      "t_mapping(t_address,t_bool)": {
        "encoding": "mapping",
        "key": "t_address",
        "label": "mapping(address => bool)",
        "numberOfBytes": "32",
        "value": "t_bool"
      },
      "t_mapping(t_address,t_uint256)": {
        "encoding": "mapping",
        "key": "t_address",
        "label": "mapping(address => uint256)",
        "numberOfBytes": "32",
        "value": "t_uint256"
      },
      "t_mapping(t_bytes32,t_struct(RoleData)34_storage)": {
        "encoding": "mapping",
        "key": "t_bytes32",
        "label": "mapping(bytes32 => struct AccessControlUpgradeable.RoleData)",
        "numberOfBytes": "32",
        "value": "t_struct(RoleData)34_storage"
      },
      "t_struct(RoleData)34_storage": {
        "encoding": "inplace",
        "label": "struct AccessControlUpgradeable.RoleData",
        "members": [
          {
            "astId": 31,
            "contract": "contracts/StakingWithLock.sol:StakingWithLock",
            "label": "members",
            "offset": 0,
            "slot": "0",
            "type": "t_mapping(t_address,t_bool)"
          },
          {
            "astId": 33,
            "contract": "contracts/StakingWithLock.sol:StakingWithLock",
            "label": "adminRole",
            "offset": 0,
            "slot": "1",
            "type": "t_bytes32"
          }
        ],
        "numberOfBytes": "64"
      },
      "t_struct(Unstake)3434_storage": {
        "encoding": "inplace",
        "label": "struct StakingWithLock.Unstake",
        "members": [
          {
            "astId": 3429,
            "contract": "contracts/StakingWithLock.sol:StakingWithLock",
            "label": "amount",
            "offset": 0,
            "slot": "0",
            "type": "t_uint256"
          },
          {
            "astId": 3431,
            "contract": "contracts/StakingWithLock.sol:StakingWithLock",
            "label": "startTime",
            "offset": 0,
            "slot": "1",
            "type": "t_uint256"
          },
          {
            "astId": 3433,
            "contract": "contracts/StakingWithLock.sol:StakingWithLock",
            "label": "claimTime",
            "offset": 0,
            "slot": "2",
            "type": "t_uint256"
          }
        ],
        "numberOfBytes": "96"
      },
      "t_uint256": {
        "encoding": "inplace",
        "label": "uint256",
        "numberOfBytes": "32"
      },
      "t_uint8": {
        "encoding": "inplace",
        "label": "uint8",
        "numberOfBytes": "1"
      }
    }
  }
}