{
  "address": "0xE5a5f513aA1f2e5146396B7C0b63286099E8378f",
  "abi": [
    {
      "anonymous": false,
      "inputs": [
        {
          "indexed": false,
          "internalType": "uint8",
          "name": "version",
          "type": "uint8"
        }
      ],
      "name": "Initialized",
      "type": "event"
    },
    {
      "anonymous": false,
      "inputs": [
        {
          "indexed": false,
          "internalType": "address",
          "name": "account",
          "type": "address"
        }
      ],
      "name": "Paused",
      "type": "event"
    },
    {
      "anonymous": false,
      "inputs": [
        {
          "indexed": true,
          "internalType": "address",
          "name": "user",
          "type": "address"
        },
        {
          "indexed": false,
          "internalType": "uint256",
          "name": "amount",
          "type": "uint256"
        }
      ],
      "name": "Pledge",
      "type": "event"
    },
    {
      "anonymous": false,
      "inputs": [
        {
          "indexed": false,
          "internalType": "uint256",
          "name": "reward",
          "type": "uint256"
        }
      ],
      "name": "RewardAdded",
      "type": "event"
    },
    {
      "anonymous": false,
      "inputs": [
        {
          "indexed": true,
          "internalType": "address",
          "name": "user",
          "type": "address"
        },
        {
          "indexed": true,
          "internalType": "address",
          "name": "rewardsToken",
          "type": "address"
        },
        {
          "indexed": false,
          "internalType": "uint256",
          "name": "reward",
          "type": "uint256"
        }
      ],
      "name": "RewardPaid",
      "type": "event"
    },
    {
      "anonymous": false,
      "inputs": [
        {
          "indexed": true,
          "internalType": "bytes32",
          "name": "role",
          "type": "bytes32"
        },
        {
          "indexed": true,
          "internalType": "bytes32",
          "name": "previousAdminRole",
          "type": "bytes32"
        },
        {
          "indexed": true,
          "internalType": "bytes32",
          "name": "newAdminRole",
          "type": "bytes32"
        }
      ],
      "name": "RoleAdminChanged",
      "type": "event"
    },
    {
      "anonymous": false,
      "inputs": [
        {
          "indexed": true,
          "internalType": "bytes32",
          "name": "role",
          "type": "bytes32"
        },
        {
          "indexed": true,
          "internalType": "address",
          "name": "account",
          "type": "address"
        },
        {
          "indexed": true,
          "internalType": "address",
          "name": "sender",
          "type": "address"
        }
      ],
      "name": "RoleGranted",
      "type": "event"
    },
    {
      "anonymous": false,
      "inputs": [
        {
          "indexed": true,
          "internalType": "bytes32",
          "name": "role",
          "type": "bytes32"
        },
        {
          "indexed": true,
          "internalType": "address",
          "name": "account",
          "type": "address"
        },
        {
          "indexed": true,
          "internalType": "address",
          "name": "sender",
          "type": "address"
        }
      ],
      "name": "RoleRevoked",
      "type": "event"
    },
    {
      "anonymous": false,
      "inputs": [
        {
          "indexed": false,
          "internalType": "address",
          "name": "account",
          "type": "address"
        }
      ],
      "name": "Unpaused",
      "type": "event"
    },
    {
      "anonymous": false,
      "inputs": [
        {
          "indexed": true,
          "internalType": "address",
          "name": "user",
          "type": "address"
        },
        {
          "indexed": false,
          "internalType": "uint256",
          "name": "amount",
          "type": "uint256"
        }
      ],
      "name": "Unpledge",
      "type": "event"
    },
    {
      "inputs": [],
      "name": "DEFAULT_ADMIN_ROLE",
      "outputs": [
        {
          "internalType": "bytes32",
          "name": "",
          "type": "bytes32"
        }
      ],
      "stateMutability": "view",
      "type": "function"
    },
    {
      "inputs": [],
      "name": "PAUSER_ROLE",
      "outputs": [
        {
          "internalType": "bytes32",
          "name": "",
          "type": "bytes32"
        }
      ],
      "stateMutability": "view",
      "type": "function"
    },
    {
      "inputs": [
        {
          "internalType": "address",
          "name": "_admin",
          "type": "address"
        },
        {
          "internalType": "address",
          "name": "_stakingToken",
          "type": "address"
        }
      ],
      "name": "__StardustPledging_init",
      "outputs": [],
      "stateMutability": "nonpayable",
      "type": "function"
    },
    {
      "inputs": [
        {
          "internalType": "address",
          "name": "",
          "type": "address"
        }
      ],
      "name": "_balances",
      "outputs": [
        {
          "internalType": "uint256",
          "name": "",
          "type": "uint256"
        }
      ],
      "stateMutability": "view",
      "type": "function"
    },
    {
      "inputs": [
        {
          "internalType": "address",
          "name": "_rewardsToken",
          "type": "address"
        },
        {
          "internalType": "address",
          "name": "_distributor",
          "type": "address"
        }
      ],
      "name": "addReward",
      "outputs": [],
      "stateMutability": "nonpayable",
      "type": "function"
    },
    {
      "inputs": [
        {
          "internalType": "address",
          "name": "_rewardsToken",
          "type": "address"
        },
        {
          "internalType": "address",
          "name": "_distributor",
          "type": "address"
        },
        {
          "internalType": "bool",
          "name": "_approved",
          "type": "bool"
        }
      ],
      "name": "approveRewardDistributor",
      "outputs": [],
      "stateMutability": "nonpayable",
      "type": "function"
    },
    {
      "inputs": [
        {
          "internalType": "address",
          "name": "account",
          "type": "address"
        }
      ],
      "name": "claimableRewards",
      "outputs": [
        {
          "components": [
            {
              "internalType": "address",
              "name": "token",
              "type": "address"
            },
            {
              "internalType": "uint256",
              "name": "amount",
              "type": "uint256"
            }
          ],
          "internalType": "struct StardustPledging.RewardData[]",
          "name": "_rewards",
          "type": "tuple[]"
        }
      ],
      "stateMutability": "view",
      "type": "function"
    },
    {
      "inputs": [],
      "name": "getReward",
      "outputs": [],
      "stateMutability": "nonpayable",
      "type": "function"
    },
    {
      "inputs": [
        {
          "internalType": "address",
          "name": "_rewardsToken",
          "type": "address"
        }
      ],
      "name": "getRewardForDuration",
      "outputs": [
        {
          "internalType": "uint256",
          "name": "",
          "type": "uint256"
        }
      ],
      "stateMutability": "view",
      "type": "function"
    },
    {
      "inputs": [
        {
          "internalType": "bytes32",
          "name": "role",
          "type": "bytes32"
        }
      ],
      "name": "getRoleAdmin",
      "outputs": [
        {
          "internalType": "bytes32",
          "name": "",
          "type": "bytes32"
        }
      ],
      "stateMutability": "view",
      "type": "function"
    },
    {
      "inputs": [],
      "name": "getUserStardustPledged",
      "outputs": [
        {
          "internalType": "uint256",
          "name": "",
          "type": "uint256"
        }
      ],
      "stateMutability": "view",
      "type": "function"
    },
    {
      "inputs": [
        {
          "internalType": "bytes32",
          "name": "role",
          "type": "bytes32"
        },
        {
          "internalType": "address",
          "name": "account",
          "type": "address"
        }
      ],
      "name": "grantRole",
      "outputs": [],
      "stateMutability": "nonpayable",
      "type": "function"
    },
    {
      "inputs": [
        {
          "internalType": "bytes32",
          "name": "role",
          "type": "bytes32"
        },
        {
          "internalType": "address",
          "name": "account",
          "type": "address"
        }
      ],
      "name": "hasRole",
      "outputs": [
        {
          "internalType": "bool",
          "name": "",
          "type": "bool"
        }
      ],
      "stateMutability": "view",
      "type": "function"
    },
    {
      "inputs": [
        {
          "internalType": "address",
          "name": "_rewardsToken",
          "type": "address"
        }
      ],
      "name": "lastTimeRewardApplicable",
      "outputs": [
        {
          "internalType": "uint256",
          "name": "",
          "type": "uint256"
        }
      ],
      "stateMutability": "view",
      "type": "function"
    },
    {
      "inputs": [
        {
          "internalType": "address",
          "name": "_rewardsToken",
          "type": "address"
        },
        {
          "internalType": "uint256",
          "name": "reward",
          "type": "uint256"
        }
      ],
      "name": "notifyRewardAmount",
      "outputs": [],
      "stateMutability": "nonpayable",
      "type": "function"
    },
    {
      "inputs": [],
      "name": "pauseContract",
      "outputs": [],
      "stateMutability": "nonpayable",
      "type": "function"
    },
    {
      "inputs": [],
      "name": "paused",
      "outputs": [
        {
          "internalType": "bool",
          "name": "",
          "type": "bool"
        }
      ],
      "stateMutability": "view",
      "type": "function"
    },
    {
      "inputs": [
        {
          "internalType": "uint256",
          "name": "_amount",
          "type": "uint256"
        }
      ],
      "name": "pledge",
      "outputs": [],
      "stateMutability": "nonpayable",
      "type": "function"
    },
    {
      "inputs": [
        {
          "internalType": "bytes32",
          "name": "role",
          "type": "bytes32"
        },
        {
          "internalType": "address",
          "name": "account",
          "type": "address"
        }
      ],
      "name": "renounceRole",
      "outputs": [],
      "stateMutability": "nonpayable",
      "type": "function"
    },
    {
      "inputs": [
        {
          "internalType": "bytes32",
          "name": "role",
          "type": "bytes32"
        },
        {
          "internalType": "address",
          "name": "account",
          "type": "address"
        }
      ],
      "name": "revokeRole",
      "outputs": [],
      "stateMutability": "nonpayable",
      "type": "function"
    },
    {
      "inputs": [
        {
          "internalType": "address",
          "name": "",
          "type": "address"
        }
      ],
      "name": "rewardData",
      "outputs": [
        {
          "internalType": "uint256",
          "name": "periodFinish",
          "type": "uint256"
        },
        {
          "internalType": "uint256",
          "name": "rewardRate",
          "type": "uint256"
        },
        {
          "internalType": "uint256",
          "name": "lastUpdateTime",
          "type": "uint256"
        },
        {
          "internalType": "uint256",
          "name": "rewardPerTokenStored",
          "type": "uint256"
        }
      ],
      "stateMutability": "view",
      "type": "function"
    },
    {
      "inputs": [
        {
          "internalType": "address",
          "name": "",
          "type": "address"
        },
        {
          "internalType": "address",
          "name": "",
          "type": "address"
        }
      ],
      "name": "rewardDistributors",
      "outputs": [
        {
          "internalType": "bool",
          "name": "",
          "type": "bool"
        }
      ],
      "stateMutability": "view",
      "type": "function"
    },
    {
      "inputs": [
        {
          "internalType": "address",
          "name": "_rewardsToken",
          "type": "address"
        }
      ],
      "name": "rewardPerToken",
      "outputs": [
        {
          "internalType": "uint256",
          "name": "",
          "type": "uint256"
        }
      ],
      "stateMutability": "view",
      "type": "function"
    },
    {
      "inputs": [
        {
          "internalType": "uint256",
          "name": "",
          "type": "uint256"
        }
      ],
      "name": "rewardTokens",
      "outputs": [
        {
          "internalType": "address",
          "name": "",
          "type": "address"
        }
      ],
      "stateMutability": "view",
      "type": "function"
    },
    {
      "inputs": [
        {
          "internalType": "address",
          "name": "",
          "type": "address"
        },
        {
          "internalType": "address",
          "name": "",
          "type": "address"
        }
      ],
      "name": "rewards",
      "outputs": [
        {
          "internalType": "uint256",
          "name": "",
          "type": "uint256"
        }
      ],
      "stateMutability": "view",
      "type": "function"
    },
    {
      "inputs": [],
      "name": "rewardsDuration",
      "outputs": [
        {
          "internalType": "uint256",
          "name": "",
          "type": "uint256"
        }
      ],
      "stateMutability": "view",
      "type": "function"
    },
    {
      "inputs": [],
      "name": "stakingToken",
      "outputs": [
        {
          "internalType": "contract IERC20Upgradeable",
          "name": "",
          "type": "address"
        }
      ],
      "stateMutability": "view",
      "type": "function"
    },
    {
      "inputs": [
        {
          "internalType": "bytes4",
          "name": "interfaceId",
          "type": "bytes4"
        }
      ],
      "name": "supportsInterface",
      "outputs": [
        {
          "internalType": "bool",
          "name": "",
          "type": "bool"
        }
      ],
      "stateMutability": "view",
      "type": "function"
    },
    {
      "inputs": [],
      "name": "totalSupply",
      "outputs": [
        {
          "internalType": "uint256",
          "name": "",
          "type": "uint256"
        }
      ],
      "stateMutability": "view",
      "type": "function"
    },
    {
      "inputs": [],
      "name": "unpause",
      "outputs": [],
      "stateMutability": "nonpayable",
      "type": "function"
    },
    {
      "inputs": [
        {
          "internalType": "uint256",
          "name": "_amount",
          "type": "uint256"
        }
      ],
      "name": "unpledge",
      "outputs": [],
      "stateMutability": "nonpayable",
      "type": "function"
    },
    {
      "inputs": [
        {
          "internalType": "address",
          "name": "",
          "type": "address"
        },
        {
          "internalType": "address",
          "name": "",
          "type": "address"
        }
      ],
      "name": "userRewardPerTokenPaid",
      "outputs": [
        {
          "internalType": "uint256",
          "name": "",
          "type": "uint256"
        }
      ],
      "stateMutability": "view",
      "type": "function"
    },
    {
      "stateMutability": "payable",
      "type": "receive"
    }
  ],
  "transactionHash": "0x59ee17c188301321e3960ee36b9875bc6e838747a2c5bc5b4bcf05e37bc9f83c",
  "args": [],
  "numDeployments": 1,
  "solcInputHash": "31ee4102209b6581ca8b5762e734f07e",
  "bytecode": "0x608060405234801561001057600080fd5b5061230b806100206000396000f3fe6080604052600436106101e75760003560e01c80636ebcf60711610102578063b66503cf11610095578063dc01f60d11610064578063dc01f60d146105fb578063e63ab1e914610628578063e70b9e271461064a578063f12297771461068357600080fd5b8063b66503cf1461057b578063bcd110141461059b578063c7258ba6146105bb578063d547741f146105db57600080fd5b80637bb7bed1116100d15780637bb7bed1146105065780637d3319df1461052657806391d1485414610546578063a217fddf1461056657600080fd5b80636ebcf607146104485780637035ab981461047657806372f702f3146104ae5780637326c9c0146104e657600080fd5b80633d18b9121161017a57806348e5d9f81161014957806348e5d9f81461038d5780635c975abb146103f0578063638634ee146104085780636724c9101461042857600080fd5b80633d18b9121461032e5780633f4ba83a1461034357806340b47e1a14610358578063439766ce1461037857600080fd5b806333d967b9116101b657806333d967b91461029a57806336568abe146102bd578063386a9525146102dd57806339fc9713146102f357600080fd5b806301ffc9a7146101f357806318160ddd14610228578063248a9ca3146102485780632f2ff15d1461027857600080fd5b366101ee57005b600080fd5b3480156101ff57600080fd5b5061021361020e366004611ed2565b6106a3565b60405190151581526020015b60405180910390f35b34801561023457600080fd5b50610101545b60405190815260200161021f565b34801561025457600080fd5b5061023a610263366004611efc565b60009081526065602052604090206001015490565b34801561028457600080fd5b50610298610293366004611f31565b6106da565b005b3480156102a657600080fd5b50336000908152610102602052604090205461023a565b3480156102c957600080fd5b506102986102d8366004611f31565b610704565b3480156102e957600080fd5b5061023a60fd5481565b3480156102ff57600080fd5b5061021361030e366004611f5d565b60fe60209081526000928352604080842090915290825290205460ff1681565b34801561033a57600080fd5b50610298610787565b34801561034f57600080fd5b506102986109ac565b34801561036457600080fd5b50610298610373366004611f5d565b6109cf565b34801561038457600080fd5b50610298610a8a565b34801561039957600080fd5b506103d06103a8366004611f87565b6101036020526000908152604090208054600182015460028301546003909301549192909184565b60408051948552602085019390935291830152606082015260800161021f565b3480156103fc57600080fd5b5060975460ff16610213565b34801561041457600080fd5b5061023a610423366004611f87565b610aaa565b34801561043457600080fd5b50610298610443366004611fb0565b610af0565b34801561045457600080fd5b5061023a610463366004611f87565b6101026020526000908152604090205481565b34801561048257600080fd5b5061023a610491366004611f5d565b60ff60209081526000928352604080842090915290825290205481565b3480156104ba57600080fd5b5060fb546104ce906001600160a01b031681565b6040516001600160a01b03909116815260200161021f565b3480156104f257600080fd5b50610298610501366004611efc565b610b71565b34801561051257600080fd5b506104ce610521366004611efc565b610d3b565b34801561053257600080fd5b50610298610541366004611f5d565b610d65565b34801561055257600080fd5b50610213610561366004611f31565b610f2c565b34801561057257600080fd5b5061023a600081565b34801561058757600080fd5b50610298610596366004611ff7565b610f57565b3480156105a757600080fd5b5061023a6105b6366004611f87565b611159565b3480156105c757600080fd5b506102986105d6366004611efc565b611184565b3480156105e757600080fd5b506102986105f6366004611f31565b61133b565b34801561060757600080fd5b5061061b610616366004611f87565b611360565b60405161021f9190612021565b34801561063457600080fd5b5061023a6000805160206122b683398151915281565b34801561065657600080fd5b5061023a610665366004611f5d565b61010060209081526000928352604080842090915290825290205481565b34801561068f57600080fd5b5061023a61069e366004611f87565b6114c3565b60006001600160e01b03198216637965db0b60e01b14806106d457506301ffc9a760e01b6001600160e01b03198316145b92915050565b6000828152606560205260409020600101546106f5816114d2565b6106ff83836114dc565b505050565b6001600160a01b03811633146107795760405162461bcd60e51b815260206004820152602f60248201527f416363657373436f6e74726f6c3a2063616e206f6e6c792072656e6f756e636560448201526e103937b632b9903337b91039b2b63360891b60648201526084015b60405180910390fd5b6107838282611562565b5050565b61078f6115c9565b610797611623565b60fb5433600081815261010260205260408120546101015492936001600160a01b03169290915b60fc548110156108b75760fc81815481106107db576107db612079565b6000918252602090912001546001600160a01b031693506107fc8483611669565b6001600160a01b0385166000908152610103602052604090206003015561082284610aaa565b6001600160a01b03808616600090815261010360205260409020600201919091558516156108a55761085685858585611721565b6001600160a01b03808716600081815261010060209081526040808320948a168084529482528083209590955561010381528482206003015492825260ff815284822093825292909252919020555b806108af816120a5565b9150506107be565b5060005b60fc5481101561099b57600060fc82815481106108da576108da612079565b6000918252602080832090910154338352610100825260408084206001600160a01b0390921680855291909252912054909150801561098657336000818152610100602090815260408083206001600160a01b038716808552925282209190915561094591836117a6565b6040518181526001600160a01b0383169033907f540798df468d7b23d11f156fdb954cb19ad414d150722a7b6d55ba369dea792e9060200160405180910390a35b50508080610993906120a5565b9150506108bb565b50505050506109aa600160c955565b565b6000805160206122b68339815191526109c4816114d2565b6109cc611810565b50565b60006109da816114d2565b6001600160a01b0383166000908152610103602052604090206002015415610a0157600080fd5b5060fc805460018082019092557f371f36870d18f32a11fea0f144b021c8b407bb50f8e0267c711123f454b963c00180546001600160a01b0319166001600160a01b039485169081179091556000908152610103602090815260408083204260028201819055905560fe825280832094909516825292909252919020805460ff19169091179055565b6000805160206122b6833981519152610aa2816114d2565b6109cc611862565b6001600160a01b038116600090815261010360205260408120544210610ae9576001600160a01b038216600090815261010360205260409020546106d4565b4292915050565b6000610afb816114d2565b60fb546001600160a01b03858116911614610b36576001600160a01b03841660009081526101036020526040902060020154610b3657600080fd5b506001600160a01b03928316600090815260fe6020908152604080832094909516825292909252919020805460ff1916911515919091179055565b610b796115c9565b610b81611623565b60fb5433600081815261010260205260408120546101015492936001600160a01b03169290915b60fc54811015610ca15760fc8181548110610bc557610bc5612079565b6000918252602090912001546001600160a01b03169350610be68483611669565b6001600160a01b03851660009081526101036020526040902060030155610c0c84610aaa565b6001600160a01b0380861660009081526101036020526040902060020191909155851615610c8f57610c4085858585611721565b6001600160a01b03808716600081815261010060209081526040808320948a168084529482528083209590955561010381528482206003015492825260ff815284822093825292909252919020555b80610c99816120a5565b915050610ba8565b50846101016000828254610cb591906120c0565b9091555050336000908152610102602052604081208054879290610cda9084906120c0565b909155505060fb54610cf7906001600160a01b031633308861189f565b60405185815233907f5e91ea8ea1c46300eb761859be01d7b16d44389ef91e03a163a87413cbf55b95906020015b60405180910390a2505050506109cc600160c955565b60fc8181548110610d4b57600080fd5b6000918252602090912001546001600160a01b0316905081565b600054610100900460ff1615808015610d855750600054600160ff909116105b80610d9f5750303b158015610d9f575060005460ff166001145b610e025760405162461bcd60e51b815260206004820152602e60248201527f496e697469616c697a61626c653a20636f6e747261637420697320616c72656160448201526d191e481a5b9a5d1a585b1a5e995960921b6064820152608401610770565b6000805460ff191660011790558015610e25576000805461ff0019166101001790555b610e2d6118dd565b610e35611904565b610e3d61192b565b610e45611904565b610e4d611904565b610e5860008461195e565b610e706000805160206122b68339815191528461195e565b60fb80546001600160a01b0384166001600160a01b0319918216811790925562093a8060fd5560fc8054600181019091557f371f36870d18f32a11fea0f144b021c8b407bb50f8e0267c711123f454b963c0018054909116821790556000908152610103602052604090204260029091015580156106ff576000805461ff0019169055604051600181527f7f26b83ff96e1f2b6a682f133852f6798a09c465da95921460cefb38474024989060200160405180910390a1505050565b60009182526065602090815260408084206001600160a01b0393909316845291905290205460ff1690565b60fb5460008080526101026020527f565a22c1af7fcc038f06206699a6bd0ad8c85d23dafe9aebac3e0df68e8fb320546101015491926001600160a01b031691835b60fc548110156110925760fc8181548110610fb657610fb6612079565b6000918252602090912001546001600160a01b03169350610fd78483611669565b6001600160a01b03851660009081526101036020526040902060030155610ffd84610aaa565b6001600160a01b03808616600090815261010360205260409020600201919091558516156110805761103185858585611721565b6001600160a01b03808716600081815261010060209081526040808320948a168084529482528083209590955561010381528482206003015492825260ff815284822093825292909252919020555b8061108a816120a5565b915050610f99565b506001600160a01b038616600090815260fe6020908152604080832033845290915290205460ff166110c357600080fd5b600085116110ff5760405162461bcd60e51b8152602060048201526009602482015268139bc81c995dd85c9960ba1b6044820152606401610770565b6111146001600160a01b03871633308861189f565b61111e8686611968565b6040518581527fde88a922e0d3b88b24e9623efeb464919c6bf9f66857a65e2bfcf2ce87a9433d9060200160405180910390a1505050505050565b60fd546001600160a01b0382166000908152610103602052604081206001015490916106d4916120d8565b61118c6115c9565b611194611623565b60fb5433600081815261010260205260408120546101015492936001600160a01b03169290915b60fc548110156112b45760fc81815481106111d8576111d8612079565b6000918252602090912001546001600160a01b031693506111f98483611669565b6001600160a01b0385166000908152610103602052604090206003015561121f84610aaa565b6001600160a01b03808616600090815261010360205260409020600201919091558516156112a25761125385858585611721565b6001600160a01b03808716600081815261010060209081526040808320948a168084529482528083209590955561010381528482206003015492825260ff815284822093825292909252919020555b806112ac816120a5565b9150506111bb565b508461010160008282546112c891906120f7565b90915550503360009081526101026020526040812080548792906112ed9084906120f7565b909155505060fb54611309906001600160a01b031633876117a6565b60405185815233907f0cdb7e259318c69f16c8770399e09f5531befac5033bf7c447e3bc296116929590602001610d25565b600082815260656020526040902060010154611356816114d2565b6106ff8383611562565b60fc5460609067ffffffffffffffff81111561137e5761137e61210e565b6040519080825280602002602001820160405280156113c357816020015b604080518082019091526000808252602082015281526020019060019003908161139c5790505b50905060005b81518110156114bd5760fc81815481106113e5576113e5612079565b9060005260206000200160009054906101000a90046001600160a01b031682828151811061141557611415612079565b6020026020010151600001906001600160a01b031690816001600160a01b03168152505061148b8383838151811061144f5761144f612079565b6020026020010151600001516101026000876001600160a01b03166001600160a01b031681526020019081526020016000205461010154611721565b82828151811061149d5761149d612079565b6020908102919091018101510152806114b5816120a5565b9150506113c9565b50919050565b60006106d48261010154611669565b6109cc8133611a90565b6114e68282610f2c565b6107835760008281526065602090815260408083206001600160a01b03851684529091529020805460ff1916600117905561151e3390565b6001600160a01b0316816001600160a01b0316837f2f8788117e7eff1d82e926ec794901d17c78024a50270940304540a733656f0d60405160405180910390a45050565b61156c8282610f2c565b156107835760008281526065602090815260408083206001600160a01b0385168085529252808320805460ff1916905551339285917ff6391f5c32d9c69d2a47ea670b442974b53935d1edc7fd64eb21e047a839171b9190a45050565b600260c954141561161c5760405162461bcd60e51b815260206004820152601f60248201527f5265656e7472616e637947756172643a207265656e7472616e742063616c6c006044820152606401610770565b600260c955565b60975460ff16156109aa5760405162461bcd60e51b815260206004820152601060248201526f14185d5cd8589b194e881c185d5cd95960821b6044820152606401610770565b60008161169357506001600160a01b038216600090815261010360205260409020600301546106d4565b6001600160a01b03831660009081526101036020526040902060018101546002909101548391906116c386610aaa565b6116cd91906120f7565b6116d791906120d8565b6116e990670de0b6b3a76400006120d8565b6116f39190612124565b6001600160a01b0384166000908152610103602052604090206003015461171a91906120c0565b9392505050565b6001600160a01b038085166000818152610100602090815260408083209488168084529482528083205493835260ff825280832094835293905291822054670de0b6b3a7640000906117738786611669565b61177d91906120f7565b61178790866120d8565b6117919190612124565b61179b91906120c0565b90505b949350505050565b6040516001600160a01b0383166024820152604481018290526106ff90849063a9059cbb60e01b906064015b60408051601f198184030181529190526020810180516001600160e01b03166001600160e01b031990931692909217909152611ae9565b600160c955565b611818611bbb565b6097805460ff191690557f5db9ee0a495bf2e6ff9c91a7834c1ba4fdd244a5e8aa4e537bd38aeae4b073aa335b6040516001600160a01b03909116815260200160405180910390a1565b61186a611623565b6097805460ff191660011790557f62e78cea01bee320cd4e420270b5ea74000d11b0c9f74754ebdbfc544b05a2586118453390565b6040516001600160a01b03808516602483015283166044820152606481018290526118d79085906323b872dd60e01b906084016117d2565b50505050565b600054610100900460ff166118095760405162461bcd60e51b815260040161077090612146565b600054610100900460ff166109aa5760405162461bcd60e51b815260040161077090612146565b600054610100900460ff166119525760405162461bcd60e51b815260040161077090612146565b6097805460ff19169055565b61078382826114dc565b6001600160a01b0382166000908152610103602052604090205442106119b75760fd546119959082612124565b6001600160a01b03831660009081526101036020526040902060010155611a41565b6001600160a01b038216600090815261010360205260408120546119dc9042906120f7565b6001600160a01b0384166000908152610103602052604081206001015491925090611a0790836120d8565b60fd54909150611a1782856120c0565b611a219190612124565b6001600160a01b0385166000908152610103602052604090206001015550505b6001600160a01b03821660009081526101036020526040902042600290910181905560fd54611a6f916120c0565b6001600160a01b039092166000908152610103602052604090209190915550565b611a9a8282610f2c565b61078357611aa781611c04565b611ab2836020611c16565b604051602001611ac39291906121bd565b60408051601f198184030181529082905262461bcd60e51b825261077091600401612232565b6000611b3e826040518060400160405280602081526020017f5361666545524332303a206c6f772d6c6576656c2063616c6c206661696c6564815250856001600160a01b0316611db29092919063ffffffff16565b8051909150156106ff5780806020019051810190611b5c9190612265565b6106ff5760405162461bcd60e51b815260206004820152602a60248201527f5361666545524332303a204552433230206f7065726174696f6e20646964206e6044820152691bdd081cdd58d8d9595960b21b6064820152608401610770565b60975460ff166109aa5760405162461bcd60e51b815260206004820152601460248201527314185d5cd8589b194e881b9bdd081c185d5cd95960621b6044820152606401610770565b60606106d46001600160a01b03831660145b60606000611c258360026120d8565b611c309060026120c0565b67ffffffffffffffff811115611c4857611c4861210e565b6040519080825280601f01601f191660200182016040528015611c72576020820181803683370190505b509050600360fc1b81600081518110611c8d57611c8d612079565b60200101906001600160f81b031916908160001a905350600f60fb1b81600181518110611cbc57611cbc612079565b60200101906001600160f81b031916908160001a9053506000611ce08460026120d8565b611ceb9060016120c0565b90505b6001811115611d63576f181899199a1a9b1b9c1cb0b131b232b360811b85600f1660108110611d1f57611d1f612079565b1a60f81b828281518110611d3557611d35612079565b60200101906001600160f81b031916908160001a90535060049490941c93611d5c81612282565b9050611cee565b50831561171a5760405162461bcd60e51b815260206004820181905260248201527f537472696e67733a20686578206c656e67746820696e73756666696369656e746044820152606401610770565b606061179e848460008585600080866001600160a01b03168587604051611dd99190612299565b60006040518083038185875af1925050503d8060008114611e16576040519150601f19603f3d011682016040523d82523d6000602084013e611e1b565b606091505b5091509150611e2c87838387611e37565b979650505050505050565b60608315611ea3578251611e9c576001600160a01b0385163b611e9c5760405162461bcd60e51b815260206004820152601d60248201527f416464726573733a2063616c6c20746f206e6f6e2d636f6e74726163740000006044820152606401610770565b508161179e565b61179e8383815115611eb85781518083602001fd5b8060405162461bcd60e51b81526004016107709190612232565b600060208284031215611ee457600080fd5b81356001600160e01b03198116811461171a57600080fd5b600060208284031215611f0e57600080fd5b5035919050565b80356001600160a01b0381168114611f2c57600080fd5b919050565b60008060408385031215611f4457600080fd5b82359150611f5460208401611f15565b90509250929050565b60008060408385031215611f7057600080fd5b611f7983611f15565b9150611f5460208401611f15565b600060208284031215611f9957600080fd5b61171a82611f15565b80151581146109cc57600080fd5b600080600060608486031215611fc557600080fd5b611fce84611f15565b9250611fdc60208501611f15565b91506040840135611fec81611fa2565b809150509250925092565b6000806040838503121561200a57600080fd5b61201383611f15565b946020939093013593505050565b602080825282518282018190526000919060409081850190868401855b8281101561206c57815180516001600160a01b0316855286015186850152928401929085019060010161203e565b5091979650505050505050565b634e487b7160e01b600052603260045260246000fd5b634e487b7160e01b600052601160045260246000fd5b60006000198214156120b9576120b961208f565b5060010190565b600082198211156120d3576120d361208f565b500190565b60008160001904831182151516156120f2576120f261208f565b500290565b6000828210156121095761210961208f565b500390565b634e487b7160e01b600052604160045260246000fd5b60008261214157634e487b7160e01b600052601260045260246000fd5b500490565b6020808252602b908201527f496e697469616c697a61626c653a20636f6e7472616374206973206e6f74206960408201526a6e697469616c697a696e6760a81b606082015260800190565b60005b838110156121ac578181015183820152602001612194565b838111156118d75750506000910152565b7f416363657373436f6e74726f6c3a206163636f756e74200000000000000000008152600083516121f5816017850160208801612191565b7001034b99036b4b9b9b4b733903937b6329607d1b6017918401918201528351612226816028840160208801612191565b01602801949350505050565b6020815260008251806020840152612251816040850160208701612191565b601f01601f19169190910160400192915050565b60006020828403121561227757600080fd5b815161171a81611fa2565b6000816122915761229161208f565b506000190190565b600082516122ab818460208701612191565b919091019291505056fe65d7a28e3265b37a6474929f336521b332c1681b933f6cb9f3376673440d862aa264697066735822122000adcdb9f95d8c4f8eaf0c1b6a9b4f89f4efc3c068de034156d535cdea3d0fdd64736f6c634300080b0033",
  "devdoc": {
    "kind": "dev",
    "methods": {
      "__StardustPledging_init(address,address)": {
        "params": {
          "_admin": "address of the admin.",
          "_stakingToken": "address of staking token."
        }
      },
      "getRoleAdmin(bytes32)": {
        "details": "Returns the admin role that controls `role`. See {grantRole} and {revokeRole}. To change a role's admin, use {_setRoleAdmin}."
      },
      "grantRole(bytes32,address)": {
        "details": "Grants `role` to `account`. If `account` had not been already granted `role`, emits a {RoleGranted} event. Requirements: - the caller must have ``role``'s admin role. May emit a {RoleGranted} event."
      },
      "hasRole(bytes32,address)": {
        "details": "Returns `true` if `account` has been granted `role`."
      },
      "pauseContract()": {
        "details": "Can only be called by pauser role."
      },
      "paused()": {
        "details": "Returns true if the contract is paused, and false otherwise."
      },
      "renounceRole(bytes32,address)": {
        "details": "Revokes `role` from the calling account. Roles are often managed via {grantRole} and {revokeRole}: this function's purpose is to provide a mechanism for accounts to lose their privileges if they are compromised (such as when a trusted device is misplaced). If the calling account had been revoked `role`, emits a {RoleRevoked} event. Requirements: - the caller must be `account`. May emit a {RoleRevoked} event."
      },
      "revokeRole(bytes32,address)": {
        "details": "Revokes `role` from `account`. If `account` had been granted `role`, emits a {RoleRevoked} event. Requirements: - the caller must have ``role``'s admin role. May emit a {RoleRevoked} event."
      },
      "supportsInterface(bytes4)": {
        "details": "See {IERC165-supportsInterface}."
      },
      "unpause()": {
        "details": "Can only be called by pauser role."
      }
    },
    "stateVariables": {
      "__gap": {
        "details": "This empty reserved space is put in place to allow future versions to add new variables without shifting down storage in the inheritance chain. See https://docs.openzeppelin.com/contracts/4.x/upgradeable#storage_gaps"
      }
    },
    "version": 1
  },
  "userdoc": {
    "kind": "user",
    "methods": {
      "__StardustPledging_init(address,address)": {
        "notice": "Initialises StardustPledging contract with the required addresses."
      },
      "pauseContract()": {
        "notice": "Pauses contract."
      },
      "unpause()": {
        "notice": "Unpauses contract."
      }
    },
    "version": 1
  },
  "storageLayout": {
    "storage": [
      {
        "astId": 720,
        "contract": "contracts/StardustPledging.sol:StardustPledging",
        "label": "_initialized",
        "offset": 0,
        "slot": "0",
        "type": "t_uint8"
      },
      {
        "astId": 723,
        "contract": "contracts/StardustPledging.sol:StardustPledging",
        "label": "_initializing",
        "offset": 1,
        "slot": "0",
        "type": "t_bool"
      },
      {
        "astId": 2040,
        "contract": "contracts/StardustPledging.sol:StardustPledging",
        "label": "__gap",
        "offset": 0,
        "slot": "1",
        "type": "t_array(t_uint256)50_storage"
      },
      {
        "astId": 2259,
        "contract": "contracts/StardustPledging.sol:StardustPledging",
        "label": "__gap",
        "offset": 0,
        "slot": "51",
        "type": "t_array(t_uint256)50_storage"
      },
      {
        "astId": 184,
        "contract": "contracts/StardustPledging.sol:StardustPledging",
        "label": "_roles",
        "offset": 0,
        "slot": "101",
        "type": "t_mapping(t_bytes32,t_struct(RoleData)179_storage)"
      },
      {
        "astId": 479,
        "contract": "contracts/StardustPledging.sol:StardustPledging",
        "label": "__gap",
        "offset": 0,
        "slot": "102",
        "type": "t_array(t_uint256)49_storage"
      },
      {
        "astId": 903,
        "contract": "contracts/StardustPledging.sol:StardustPledging",
        "label": "_paused",
        "offset": 0,
        "slot": "151",
        "type": "t_bool"
      },
      {
        "astId": 1008,
        "contract": "contracts/StardustPledging.sol:StardustPledging",
        "label": "__gap",
        "offset": 0,
        "slot": "152",
        "type": "t_array(t_uint256)49_storage"
      },
      {
        "astId": 1023,
        "contract": "contracts/StardustPledging.sol:StardustPledging",
        "label": "_status",
        "offset": 0,
        "slot": "201",
        "type": "t_uint256"
      },
      {
        "astId": 1081,
        "contract": "contracts/StardustPledging.sol:StardustPledging",
        "label": "__gap",
        "offset": 0,
        "slot": "202",
        "type": "t_array(t_uint256)49_storage"
      },
      {
        "astId": 9180,
        "contract": "contracts/StardustPledging.sol:StardustPledging",
        "label": "stakingToken",
        "offset": 0,
        "slot": "251",
        "type": "t_contract(IERC20Upgradeable)1282"
      },
      {
        "astId": 9183,
        "contract": "contracts/StardustPledging.sol:StardustPledging",
        "label": "rewardTokens",
        "offset": 0,
        "slot": "252",
        "type": "t_array(t_address)dyn_storage"
      },
      {
        "astId": 9185,
        "contract": "contracts/StardustPledging.sol:StardustPledging",
        "label": "rewardsDuration",
        "offset": 0,
        "slot": "253",
        "type": "t_uint256"
      },
      {
        "astId": 9191,
        "contract": "contracts/StardustPledging.sol:StardustPledging",
        "label": "rewardDistributors",
        "offset": 0,
        "slot": "254",
        "type": "t_mapping(t_address,t_mapping(t_address,t_bool))"
      },
      {
        "astId": 9197,
        "contract": "contracts/StardustPledging.sol:StardustPledging",
        "label": "userRewardPerTokenPaid",
        "offset": 0,
        "slot": "255",
        "type": "t_mapping(t_address,t_mapping(t_address,t_uint256))"
      },
      {
        "astId": 9203,
        "contract": "contracts/StardustPledging.sol:StardustPledging",
        "label": "rewards",
        "offset": 0,
        "slot": "256",
        "type": "t_mapping(t_address,t_mapping(t_address,t_uint256))"
      },
      {
        "astId": 9205,
        "contract": "contracts/StardustPledging.sol:StardustPledging",
        "label": "_totalSupply",
        "offset": 0,
        "slot": "257",
        "type": "t_uint256"
      },
      {
        "astId": 9209,
        "contract": "contracts/StardustPledging.sol:StardustPledging",
        "label": "_balances",
        "offset": 0,
        "slot": "258",
        "type": "t_mapping(t_address,t_uint256)"
      },
      {
        "astId": 9228,
        "contract": "contracts/StardustPledging.sol:StardustPledging",
        "label": "rewardData",
        "offset": 0,
        "slot": "259",
        "type": "t_mapping(t_address,t_struct(Reward)9218_storage)"
      },
      {
        "astId": 9238,
        "contract": "contracts/StardustPledging.sol:StardustPledging",
        "label": "__gap",
        "offset": 0,
        "slot": "260",
        "type": "t_array(t_uint256)50_storage"
      }
    ],
    "types": {
      "t_address": {
        "encoding": "inplace",
        "label": "address",
        "numberOfBytes": "20"
      },
      "t_array(t_address)dyn_storage": {
        "base": "t_address",
        "encoding": "dynamic_array",
        "label": "address[]",
        "numberOfBytes": "32"
      },
      "t_array(t_uint256)49_storage": {
        "base": "t_uint256",
        "encoding": "inplace",
        "label": "uint256[49]",
        "numberOfBytes": "1568"
      },
      "t_array(t_uint256)50_storage": {
        "base": "t_uint256",
        "encoding": "inplace",
        "label": "uint256[50]",
        "numberOfBytes": "1600"
      },
      "t_bool": {
        "encoding": "inplace",
        "label": "bool",
        "numberOfBytes": "1"
      },
      "t_bytes32": {
        "encoding": "inplace",
        "label": "bytes32",
        "numberOfBytes": "32"
      },
      "t_contract(IERC20Upgradeable)1282": {
        "encoding": "inplace",
        "label": "contract IERC20Upgradeable",
        "numberOfBytes": "20"
      },
      "t_mapping(t_address,t_bool)": {
        "encoding": "mapping",
        "key": "t_address",
        "label": "mapping(address => bool)",
        "numberOfBytes": "32",
        "value": "t_bool"
      },
      "t_mapping(t_address,t_mapping(t_address,t_bool))": {
        "encoding": "mapping",
        "key": "t_address",
        "label": "mapping(address => mapping(address => bool))",
        "numberOfBytes": "32",
        "value": "t_mapping(t_address,t_bool)"
      },
      "t_mapping(t_address,t_mapping(t_address,t_uint256))": {
        "encoding": "mapping",
        "key": "t_address",
        "label": "mapping(address => mapping(address => uint256))",
        "numberOfBytes": "32",
        "value": "t_mapping(t_address,t_uint256)"
      },
      "t_mapping(t_address,t_struct(Reward)9218_storage)": {
        "encoding": "mapping",
        "key": "t_address",
        "label": "mapping(address => struct StardustPledging.Reward)",
        "numberOfBytes": "32",
        "value": "t_struct(Reward)9218_storage"
      },
      "t_mapping(t_address,t_uint256)": {
        "encoding": "mapping",
        "key": "t_address",
        "label": "mapping(address => uint256)",
        "numberOfBytes": "32",
        "value": "t_uint256"
      },
      "t_mapping(t_bytes32,t_struct(RoleData)179_storage)": {
        "encoding": "mapping",
        "key": "t_bytes32",
        "label": "mapping(bytes32 => struct AccessControlUpgradeable.RoleData)",
        "numberOfBytes": "32",
        "value": "t_struct(RoleData)179_storage"
      },
      "t_struct(Reward)9218_storage": {
        "encoding": "inplace",
        "label": "struct StardustPledging.Reward",
        "members": [
          {
            "astId": 9211,
            "contract": "contracts/StardustPledging.sol:StardustPledging",
            "label": "periodFinish",
            "offset": 0,
            "slot": "0",
            "type": "t_uint256"
          },
          {
            "astId": 9213,
            "contract": "contracts/StardustPledging.sol:StardustPledging",
            "label": "rewardRate",
            "offset": 0,
            "slot": "1",
            "type": "t_uint256"
          },
          {
            "astId": 9215,
            "contract": "contracts/StardustPledging.sol:StardustPledging",
            "label": "lastUpdateTime",
            "offset": 0,
            "slot": "2",
            "type": "t_uint256"
          },
          {
            "astId": 9217,
            "contract": "contracts/StardustPledging.sol:StardustPledging",
            "label": "rewardPerTokenStored",
            "offset": 0,
            "slot": "3",
            "type": "t_uint256"
          }
        ],
        "numberOfBytes": "128"
      },
      "t_struct(RoleData)179_storage": {
        "encoding": "inplace",
        "label": "struct AccessControlUpgradeable.RoleData",
        "members": [
          {
            "astId": 176,
            "contract": "contracts/StardustPledging.sol:StardustPledging",
            "label": "members",
            "offset": 0,
            "slot": "0",
            "type": "t_mapping(t_address,t_bool)"
          },
          {
            "astId": 178,
            "contract": "contracts/StardustPledging.sol:StardustPledging",
            "label": "adminRole",
            "offset": 0,
            "slot": "1",
            "type": "t_bytes32"
          }
        ],
        "numberOfBytes": "64"
      },
      "t_uint256": {
        "encoding": "inplace",
        "label": "uint256",
        "numberOfBytes": "32"
      },
      "t_uint8": {
        "encoding": "inplace",
        "label": "uint8",
        "numberOfBytes": "1"
      }
    }
  }
}