{
  "address": "0x2B0f409Bc0C8A72558Fbe249C4ddF7aDe0b79340",
  "abi": [
    {
      "inputs": [
        {
          "internalType": "string",
          "name": "_name",
          "type": "string"
        },
        {
          "internalType": "string",
          "name": "_symbol",
          "type": "string"
        },
        {
          "internalType": "string",
          "name": "_baseURI",
          "type": "string"
        },
        {
          "internalType": "uint16",
          "name": "maxSupply_",
          "type": "uint16"
        },
        {
          "internalType": "address",
          "name": "withdrawAddress",
          "type": "address"
        },
        {
          "internalType": "address",
          "name": "_whitelistSignerAddress",
          "type": "address"
        },
        {
          "internalType": "uint256",
          "name": "_publicMaxMint",
          "type": "uint256"
        },
        {
          "internalType": "uint256",
          "name": "_whitelistMaxMint",
          "type": "uint256"
        },
        {
          "internalType": "uint256",
          "name": "_whitelistMintPrice",
          "type": "uint256"
        },
        {
          "internalType": "uint256",
          "name": "_publicMintPrice",
          "type": "uint256"
        },
        {
          "internalType": "uint256",
          "name": "_maxCrews",
          "type": "uint256"
        }
      ],
      "stateMutability": "nonpayable",
      "type": "constructor"
    },
    {
      "inputs": [],
      "name": "AlreadyMinted",
      "type": "error"
    },
    {
      "inputs": [],
      "name": "InvalidRecipient",
      "type": "error"
    },
    {
      "inputs": [],
      "name": "NoMoreTokenIds",
      "type": "error"
    },
    {
      "inputs": [],
      "name": "NotMinted",
      "type": "error"
    },
    {
      "inputs": [
        {
          "internalType": "address",
          "name": "operator",
          "type": "address"
        }
      ],
      "name": "OperatorNotAllowed",
      "type": "error"
    },
    {
      "inputs": [],
      "name": "Unauthorized",
      "type": "error"
    },
    {
      "inputs": [],
      "name": "UnsafeRecipient",
      "type": "error"
    },
    {
      "inputs": [],
      "name": "WithdrawFailed",
      "type": "error"
    },
    {
      "inputs": [],
      "name": "WrongFrom",
      "type": "error"
    },
    {
      "inputs": [],
      "name": "ZeroAddress",
      "type": "error"
    },
    {
      "anonymous": false,
      "inputs": [
        {
          "indexed": true,
          "internalType": "address",
          "name": "owner",
          "type": "address"
        },
        {
          "indexed": true,
          "internalType": "address",
          "name": "spender",
          "type": "address"
        },
        {
          "indexed": true,
          "internalType": "uint256",
          "name": "id",
          "type": "uint256"
        }
      ],
      "name": "Approval",
      "type": "event"
    },
    {
      "anonymous": false,
      "inputs": [
        {
          "indexed": true,
          "internalType": "address",
          "name": "owner",
          "type": "address"
        },
        {
          "indexed": true,
          "internalType": "address",
          "name": "operator",
          "type": "address"
        },
        {
          "indexed": false,
          "internalType": "bool",
          "name": "approved",
          "type": "bool"
        }
      ],
      "name": "ApprovalForAll",
      "type": "event"
    },
    {
      "anonymous": false,
      "inputs": [
        {
          "indexed": true,
          "internalType": "uint256",
          "name": "tokenId",
          "type": "uint256"
        }
      ],
      "name": "ChestRevealed",
      "type": "event"
    },
    {
      "anonymous": false,
      "inputs": [
        {
          "indexed": true,
          "internalType": "address",
          "name": "previousOwner",
          "type": "address"
        },
        {
          "indexed": true,
          "internalType": "address",
          "name": "newOwner",
          "type": "address"
        }
      ],
      "name": "OwnershipTransferred",
      "type": "event"
    },
    {
      "anonymous": false,
      "inputs": [
        {
          "indexed": true,
          "internalType": "uint256",
          "name": "tokenId",
          "type": "uint256"
        },
        {
          "indexed": false,
          "internalType": "uint256",
          "name": "questStartedAt",
          "type": "uint256"
        },
        {
          "indexed": false,
          "internalType": "uint256[]",
          "name": "crews",
          "type": "uint256[]"
        },
        {
          "indexed": false,
          "internalType": "uint256",
          "name": "questEditedAt",
          "type": "uint256"
        }
      ],
      "name": "QuestEdited",
      "type": "event"
    },
    {
      "anonymous": false,
      "inputs": [
        {
          "indexed": true,
          "internalType": "uint256",
          "name": "tokenId",
          "type": "uint256"
        },
        {
          "indexed": false,
          "internalType": "uint256",
          "name": "questStartedAt",
          "type": "uint256"
        },
        {
          "indexed": false,
          "internalType": "uint256[]",
          "name": "crews",
          "type": "uint256[]"
        }
      ],
      "name": "QuestStarted",
      "type": "event"
    },
    {
      "anonymous": false,
      "inputs": [
        {
          "indexed": true,
          "internalType": "uint256",
          "name": "tokenId",
          "type": "uint256"
        },
        {
          "indexed": false,
          "internalType": "uint256",
          "name": "questStartedAt",
          "type": "uint256"
        },
        {
          "indexed": false,
          "internalType": "uint256",
          "name": "questStoppedAt",
          "type": "uint256"
        }
      ],
      "name": "QuestStopped",
      "type": "event"
    },
    {
      "anonymous": false,
      "inputs": [
        {
          "indexed": true,
          "internalType": "uint256",
          "name": "tokenId",
          "type": "uint256"
        },
        {
          "indexed": true,
          "internalType": "address",
          "name": "approvedContract",
          "type": "address"
        }
      ],
      "name": "TokenLocked",
      "type": "event"
    },
    {
      "anonymous": false,
      "inputs": [
        {
          "indexed": true,
          "internalType": "uint256",
          "name": "tokenId",
          "type": "uint256"
        },
        {
          "indexed": true,
          "internalType": "address",
          "name": "approvedContract",
          "type": "address"
        }
      ],
      "name": "TokenUnlocked",
      "type": "event"
    },
    {
      "anonymous": false,
      "inputs": [
        {
          "indexed": true,
          "internalType": "address",
          "name": "from",
          "type": "address"
        },
        {
          "indexed": true,
          "internalType": "address",
          "name": "to",
          "type": "address"
        },
        {
          "indexed": true,
          "internalType": "uint256",
          "name": "id",
          "type": "uint256"
        }
      ],
      "name": "Transfer",
      "type": "event"
    },
    {
      "inputs": [],
      "name": "MAX_CREWS",
      "outputs": [
        {
          "internalType": "uint256",
          "name": "",
          "type": "uint256"
        }
      ],
      "stateMutability": "view",
      "type": "function"
    },
    {
      "inputs": [],
      "name": "MAX_SUPPLY",
      "outputs": [
        {
          "internalType": "uint16",
          "name": "",
          "type": "uint16"
        }
      ],
      "stateMutability": "view",
      "type": "function"
    },
    {
      "inputs": [],
      "name": "OPERATOR_FILTER_REGISTRY",
      "outputs": [
        {
          "internalType": "contract IOperatorFilterRegistry",
          "name": "",
          "type": "address"
        }
      ],
      "stateMutability": "view",
      "type": "function"
    },
    {
      "inputs": [],
      "name": "PUBLIC_MAX_MINT",
      "outputs": [
        {
          "internalType": "uint256",
          "name": "",
          "type": "uint256"
        }
      ],
      "stateMutability": "view",
      "type": "function"
    },
    {
      "inputs": [],
      "name": "WHITELIST_MAX_MINT",
      "outputs": [
        {
          "internalType": "uint256",
          "name": "",
          "type": "uint256"
        }
      ],
      "stateMutability": "view",
      "type": "function"
    },
    {
      "inputs": [],
      "name": "WHITELIST_SIGNER_ADDRESS",
      "outputs": [
        {
          "internalType": "address",
          "name": "",
          "type": "address"
        }
      ],
      "stateMutability": "view",
      "type": "function"
    },
    {
      "inputs": [],
      "name": "WITHDRAW_ADDRESS",
      "outputs": [
        {
          "internalType": "address",
          "name": "",
          "type": "address"
        }
      ],
      "stateMutability": "view",
      "type": "function"
    },
    {
      "inputs": [
        {
          "internalType": "address[]",
          "name": "receivers",
          "type": "address[]"
        },
        {
          "internalType": "uint256[]",
          "name": "amounts",
          "type": "uint256[]"
        }
      ],
      "name": "airdropWithAmounts",
      "outputs": [],
      "stateMutability": "nonpayable",
      "type": "function"
    },
    {
      "inputs": [
        {
          "internalType": "address",
          "name": "spender",
          "type": "address"
        },
        {
          "internalType": "uint256",
          "name": "id",
          "type": "uint256"
        }
      ],
      "name": "approve",
      "outputs": [],
      "stateMutability": "nonpayable",
      "type": "function"
    },
    {
      "inputs": [
        {
          "internalType": "address",
          "name": "",
          "type": "address"
        }
      ],
      "name": "approvedContract",
      "outputs": [
        {
          "internalType": "bool",
          "name": "",
          "type": "bool"
        }
      ],
      "stateMutability": "view",
      "type": "function"
    },
    {
      "inputs": [
        {
          "internalType": "address",
          "name": "owner",
          "type": "address"
        }
      ],
      "name": "balanceOf",
      "outputs": [
        {
          "internalType": "uint256",
          "name": "",
          "type": "uint256"
        }
      ],
      "stateMutability": "view",
      "type": "function"
    },
    {
      "inputs": [],
      "name": "baseURI",
      "outputs": [
        {
          "internalType": "string",
          "name": "",
          "type": "string"
        }
      ],
      "stateMutability": "view",
      "type": "function"
    },
    {
      "inputs": [
        {
          "components": [
            {
              "internalType": "uint256",
              "name": "tokenId",
              "type": "uint256"
            },
            {
              "internalType": "uint256[]",
              "name": "minionTokenIds",
              "type": "uint256[]"
            }
          ],
          "internalType": "struct Leader.QuestInfo[]",
          "name": "questInfos",
          "type": "tuple[]"
        }
      ],
      "name": "batchEditQuest",
      "outputs": [],
      "stateMutability": "nonpayable",
      "type": "function"
    },
    {
      "inputs": [
        {
          "components": [
            {
              "internalType": "uint256",
              "name": "tokenId",
              "type": "uint256"
            },
            {
              "internalType": "uint256[]",
              "name": "minionTokenIds",
              "type": "uint256[]"
            }
          ],
          "internalType": "struct Leader.QuestInfo[]",
          "name": "questInfos",
          "type": "tuple[]"
        }
      ],
      "name": "batchStartQuest",
      "outputs": [],
      "stateMutability": "nonpayable",
      "type": "function"
    },
    {
      "inputs": [
        {
          "internalType": "uint256[]",
          "name": "tokenIds",
          "type": "uint256[]"
        }
      ],
      "name": "batchStopQuest",
      "outputs": [],
      "stateMutability": "nonpayable",
      "type": "function"
    },
    {
      "inputs": [],
      "name": "canQuest",
      "outputs": [
        {
          "internalType": "bool",
          "name": "",
          "type": "bool"
        }
      ],
      "stateMutability": "view",
      "type": "function"
    },
    {
      "inputs": [
        {
          "internalType": "uint256",
          "name": "tokenId",
          "type": "uint256"
        },
        {
          "internalType": "uint256[]",
          "name": "minionTokenIds",
          "type": "uint256[]"
        }
      ],
      "name": "editQuest",
      "outputs": [],
      "stateMutability": "nonpayable",
      "type": "function"
    },
    {
      "inputs": [
        {
          "internalType": "uint256",
          "name": "_id",
          "type": "uint256"
        },
        {
          "internalType": "address",
          "name": "_contract",
          "type": "address"
        }
      ],
      "name": "freeId",
      "outputs": [],
      "stateMutability": "nonpayable",
      "type": "function"
    },
    {
      "inputs": [
        {
          "internalType": "uint256",
          "name": "tokenId",
          "type": "uint256"
        }
      ],
      "name": "getActiveCrews",
      "outputs": [
        {
          "internalType": "uint256[]",
          "name": "",
          "type": "uint256[]"
        }
      ],
      "stateMutability": "view",
      "type": "function"
    },
    {
      "inputs": [
        {
          "internalType": "uint256",
          "name": "",
          "type": "uint256"
        }
      ],
      "name": "getApproved",
      "outputs": [
        {
          "internalType": "address",
          "name": "",
          "type": "address"
        }
      ],
      "stateMutability": "view",
      "type": "function"
    },
    {
      "inputs": [
        {
          "internalType": "uint256",
          "name": "tokenId",
          "type": "uint256"
        }
      ],
      "name": "getTokenInfo",
      "outputs": [
        {
          "internalType": "uint256",
          "name": "lastQuestedAt",
          "type": "uint256"
        },
        {
          "internalType": "uint256[]",
          "name": "crewTokenIds",
          "type": "uint256[]"
        },
        {
          "internalType": "bool",
          "name": "hasRevealed",
          "type": "bool"
        }
      ],
      "stateMutability": "view",
      "type": "function"
    },
    {
      "inputs": [
        {
          "internalType": "address",
          "name": "",
          "type": "address"
        },
        {
          "internalType": "address",
          "name": "",
          "type": "address"
        }
      ],
      "name": "isApprovedForAll",
      "outputs": [
        {
          "internalType": "bool",
          "name": "",
          "type": "bool"
        }
      ],
      "stateMutability": "view",
      "type": "function"
    },
    {
      "inputs": [
        {
          "internalType": "uint256",
          "name": "tokenId",
          "type": "uint256"
        }
      ],
      "name": "isMinionQuesting",
      "outputs": [
        {
          "internalType": "bool",
          "name": "",
          "type": "bool"
        }
      ],
      "stateMutability": "view",
      "type": "function"
    },
    {
      "inputs": [
        {
          "internalType": "uint256",
          "name": "_id",
          "type": "uint256"
        }
      ],
      "name": "isUnlocked",
      "outputs": [
        {
          "internalType": "bool",
          "name": "",
          "type": "bool"
        }
      ],
      "stateMutability": "view",
      "type": "function"
    },
    {
      "inputs": [
        {
          "internalType": "uint256",
          "name": "",
          "type": "uint256"
        }
      ],
      "name": "lockCount",
      "outputs": [
        {
          "internalType": "uint256",
          "name": "",
          "type": "uint256"
        }
      ],
      "stateMutability": "view",
      "type": "function"
    },
    {
      "inputs": [
        {
          "internalType": "uint256",
          "name": "_id",
          "type": "uint256"
        }
      ],
      "name": "lockId",
      "outputs": [],
      "stateMutability": "nonpayable",
      "type": "function"
    },
    {
      "inputs": [
        {
          "internalType": "uint256",
          "name": "",
          "type": "uint256"
        },
        {
          "internalType": "uint256",
          "name": "",
          "type": "uint256"
        }
      ],
      "name": "lockMap",
      "outputs": [
        {
          "internalType": "address",
          "name": "",
          "type": "address"
        }
      ],
      "stateMutability": "view",
      "type": "function"
    },
    {
      "inputs": [
        {
          "internalType": "uint256",
          "name": "",
          "type": "uint256"
        },
        {
          "internalType": "address",
          "name": "",
          "type": "address"
        }
      ],
      "name": "lockMapIndex",
      "outputs": [
        {
          "internalType": "uint256",
          "name": "",
          "type": "uint256"
        }
      ],
      "stateMutability": "view",
      "type": "function"
    },
    {
      "inputs": [],
      "name": "minion",
      "outputs": [
        {
          "internalType": "contract IMinion",
          "name": "",
          "type": "address"
        }
      ],
      "stateMutability": "view",
      "type": "function"
    },
    {
      "inputs": [
        {
          "internalType": "uint256",
          "name": "",
          "type": "uint256"
        },
        {
          "internalType": "uint256",
          "name": "",
          "type": "uint256"
        }
      ],
      "name": "minionCrew",
      "outputs": [
        {
          "internalType": "uint256",
          "name": "",
          "type": "uint256"
        }
      ],
      "stateMutability": "view",
      "type": "function"
    },
    {
      "inputs": [
        {
          "internalType": "address",
          "name": "",
          "type": "address"
        }
      ],
      "name": "moderators",
      "outputs": [
        {
          "internalType": "bool",
          "name": "",
          "type": "bool"
        }
      ],
      "stateMutability": "view",
      "type": "function"
    },
    {
      "inputs": [],
      "name": "name",
      "outputs": [
        {
          "internalType": "string",
          "name": "",
          "type": "string"
        }
      ],
      "stateMutability": "view",
      "type": "function"
    },
    {
      "inputs": [],
      "name": "owner",
      "outputs": [
        {
          "internalType": "address",
          "name": "",
          "type": "address"
        }
      ],
      "stateMutability": "view",
      "type": "function"
    },
    {
      "inputs": [
        {
          "internalType": "uint256",
          "name": "id",
          "type": "uint256"
        }
      ],
      "name": "ownerOf",
      "outputs": [
        {
          "internalType": "address",
          "name": "owner",
          "type": "address"
        }
      ],
      "stateMutability": "view",
      "type": "function"
    },
    {
      "inputs": [
        {
          "internalType": "uint256",
          "name": "_amount",
          "type": "uint256"
        }
      ],
      "name": "publicMint",
      "outputs": [],
      "stateMutability": "payable",
      "type": "function"
    },
    {
      "inputs": [
        {
          "internalType": "address",
          "name": "",
          "type": "address"
        }
      ],
      "name": "publicMintCount",
      "outputs": [
        {
          "internalType": "uint256",
          "name": "",
          "type": "uint256"
        }
      ],
      "stateMutability": "view",
      "type": "function"
    },
    {
      "inputs": [],
      "name": "publicMintPrice",
      "outputs": [
        {
          "internalType": "uint256",
          "name": "",
          "type": "uint256"
        }
      ],
      "stateMutability": "view",
      "type": "function"
    },
    {
      "inputs": [
        {
          "internalType": "uint256",
          "name": "",
          "type": "uint256"
        },
        {
          "internalType": "uint256",
          "name": "",
          "type": "uint256"
        }
      ],
      "name": "questCrews",
      "outputs": [
        {
          "internalType": "uint256",
          "name": "",
          "type": "uint256"
        }
      ],
      "stateMutability": "view",
      "type": "function"
    },
    {
      "inputs": [
        {
          "internalType": "uint256",
          "name": "minionTokenId",
          "type": "uint256"
        }
      ],
      "name": "removeCrew",
      "outputs": [],
      "stateMutability": "nonpayable",
      "type": "function"
    },
    {
      "inputs": [],
      "name": "renounceOwnership",
      "outputs": [],
      "stateMutability": "nonpayable",
      "type": "function"
    },
    {
      "inputs": [
        {
          "internalType": "uint256",
          "name": "",
          "type": "uint256"
        }
      ],
      "name": "revealed",
      "outputs": [
        {
          "internalType": "bool",
          "name": "",
          "type": "bool"
        }
      ],
      "stateMutability": "view",
      "type": "function"
    },
    {
      "inputs": [
        {
          "internalType": "uint256",
          "name": "tokenId",
          "type": "uint256"
        },
        {
          "internalType": "uint256",
          "name": "salePrice",
          "type": "uint256"
        }
      ],
      "name": "royaltyInfo",
      "outputs": [
        {
          "internalType": "address",
          "name": "",
          "type": "address"
        },
        {
          "internalType": "uint256",
          "name": "",
          "type": "uint256"
        }
      ],
      "stateMutability": "view",
      "type": "function"
    },
    {
      "inputs": [
        {
          "internalType": "address",
          "name": "from",
          "type": "address"
        },
        {
          "internalType": "address",
          "name": "to",
          "type": "address"
        },
        {
          "internalType": "uint256",
          "name": "id",
          "type": "uint256"
        }
      ],
      "name": "safeTransferFrom",
      "outputs": [],
      "stateMutability": "nonpayable",
      "type": "function"
    },
    {
      "inputs": [
        {
          "internalType": "address",
          "name": "from",
          "type": "address"
        },
        {
          "internalType": "address",
          "name": "to",
          "type": "address"
        },
        {
          "internalType": "uint256",
          "name": "tokenId",
          "type": "uint256"
        },
        {
          "internalType": "bytes",
          "name": "_data",
          "type": "bytes"
        }
      ],
      "name": "safeTransferFrom",
      "outputs": [],
      "stateMutability": "nonpayable",
      "type": "function"
    },
    {
      "inputs": [
        {
          "internalType": "address",
          "name": "operator",
          "type": "address"
        },
        {
          "internalType": "bool",
          "name": "approved",
          "type": "bool"
        }
      ],
      "name": "setApprovalForAll",
      "outputs": [],
      "stateMutability": "nonpayable",
      "type": "function"
    },
    {
      "inputs": [
        {
          "internalType": "string",
          "name": "_baseURI_",
          "type": "string"
        }
      ],
      "name": "setBaseURI",
      "outputs": [],
      "stateMutability": "nonpayable",
      "type": "function"
    },
    {
      "inputs": [
        {
          "internalType": "bool",
          "name": "b",
          "type": "bool"
        }
      ],
      "name": "setCanQuest",
      "outputs": [],
      "stateMutability": "nonpayable",
      "type": "function"
    },
    {
      "inputs": [
        {
          "internalType": "address",
          "name": "receiver",
          "type": "address"
        },
        {
          "internalType": "uint96",
          "name": "feeNumerator",
          "type": "uint96"
        }
      ],
      "name": "setDefaultRoyalty",
      "outputs": [],
      "stateMutability": "nonpayable",
      "type": "function"
    },
    {
      "inputs": [
        {
          "internalType": "address",
          "name": "addr",
          "type": "address"
        }
      ],
      "name": "setMinion",
      "outputs": [],
      "stateMutability": "nonpayable",
      "type": "function"
    },
    {
      "inputs": [
        {
          "internalType": "address",
          "name": "addr",
          "type": "address"
        },
        {
          "internalType": "bool",
          "name": "add",
          "type": "bool"
        }
      ],
      "name": "setModerator",
      "outputs": [],
      "stateMutability": "nonpayable",
      "type": "function"
    },
    {
      "inputs": [
        {
          "internalType": "string",
          "name": "_newName",
          "type": "string"
        },
        {
          "internalType": "string",
          "name": "_newSymbol",
          "type": "string"
        }
      ],
      "name": "setNameAndSymbol",
      "outputs": [],
      "stateMutability": "nonpayable",
      "type": "function"
    },
    {
      "inputs": [
        {
          "internalType": "uint256",
          "name": "_publicMintPrice",
          "type": "uint256"
        }
      ],
      "name": "setPublicMintPrice",
      "outputs": [],
      "stateMutability": "nonpayable",
      "type": "function"
    },
    {
      "inputs": [
        {
          "internalType": "uint8",
          "name": "_newStage",
          "type": "uint8"
        }
      ],
      "name": "setStage",
      "outputs": [],
      "stateMutability": "nonpayable",
      "type": "function"
    },
    {
      "inputs": [
        {
          "internalType": "uint256",
          "name": "tokenId",
          "type": "uint256"
        },
        {
          "internalType": "address",
          "name": "receiver",
          "type": "address"
        },
        {
          "internalType": "uint96",
          "name": "feeNumerator",
          "type": "uint96"
        }
      ],
      "name": "setTokenRoyalty",
      "outputs": [],
      "stateMutability": "nonpayable",
      "type": "function"
    },
    {
      "inputs": [
        {
          "internalType": "uint256",
          "name": "_whitelistMintPrice",
          "type": "uint256"
        }
      ],
      "name": "setWhitelistMintPrice",
      "outputs": [],
      "stateMutability": "nonpayable",
      "type": "function"
    },
    {
      "inputs": [],
      "name": "stage",
      "outputs": [
        {
          "internalType": "uint8",
          "name": "",
          "type": "uint8"
        }
      ],
      "stateMutability": "view",
      "type": "function"
    },
    {
      "inputs": [
        {
          "internalType": "uint256",
          "name": "tokenId",
          "type": "uint256"
        },
        {
          "internalType": "uint256[]",
          "name": "minionTokenIds",
          "type": "uint256[]"
        }
      ],
      "name": "startQuest",
      "outputs": [],
      "stateMutability": "nonpayable",
      "type": "function"
    },
    {
      "inputs": [
        {
          "internalType": "uint256",
          "name": "tokenId",
          "type": "uint256"
        }
      ],
      "name": "stopQuest",
      "outputs": [],
      "stateMutability": "nonpayable",
      "type": "function"
    },
    {
      "inputs": [
        {
          "internalType": "bytes4",
          "name": "interfaceId",
          "type": "bytes4"
        }
      ],
      "name": "supportsInterface",
      "outputs": [
        {
          "internalType": "bool",
          "name": "",
          "type": "bool"
        }
      ],
      "stateMutability": "view",
      "type": "function"
    },
    {
      "inputs": [],
      "name": "symbol",
      "outputs": [
        {
          "internalType": "string",
          "name": "",
          "type": "string"
        }
      ],
      "stateMutability": "view",
      "type": "function"
    },
    {
      "inputs": [
        {
          "internalType": "uint256",
          "name": "_id",
          "type": "uint256"
        }
      ],
      "name": "tokenURI",
      "outputs": [
        {
          "internalType": "string",
          "name": "",
          "type": "string"
        }
      ],
      "stateMutability": "view",
      "type": "function"
    },
    {
      "inputs": [
        {
          "internalType": "uint256",
          "name": "",
          "type": "uint256"
        }
      ],
      "name": "tokensLastQuestedAt",
      "outputs": [
        {
          "internalType": "uint256",
          "name": "",
          "type": "uint256"
        }
      ],
      "stateMutability": "view",
      "type": "function"
    },
    {
      "inputs": [],
      "name": "totalSupply",
      "outputs": [
        {
          "internalType": "uint256",
          "name": "",
          "type": "uint256"
        }
      ],
      "stateMutability": "view",
      "type": "function"
    },
    {
      "inputs": [
        {
          "internalType": "address",
          "name": "from",
          "type": "address"
        },
        {
          "internalType": "address",
          "name": "to",
          "type": "address"
        },
        {
          "internalType": "uint256",
          "name": "tokenId",
          "type": "uint256"
        }
      ],
      "name": "transferFrom",
      "outputs": [],
      "stateMutability": "nonpayable",
      "type": "function"
    },
    {
      "inputs": [
        {
          "internalType": "address",
          "name": "newOwner",
          "type": "address"
        }
      ],
      "name": "transferOwnership",
      "outputs": [],
      "stateMutability": "nonpayable",
      "type": "function"
    },
    {
      "inputs": [
        {
          "internalType": "uint256",
          "name": "_id",
          "type": "uint256"
        }
      ],
      "name": "unlockId",
      "outputs": [],
      "stateMutability": "nonpayable",
      "type": "function"
    },
    {
      "inputs": [
        {
          "internalType": "address[]",
          "name": "_contracts",
          "type": "address[]"
        },
        {
          "internalType": "bool[]",
          "name": "_values",
          "type": "bool[]"
        }
      ],
      "name": "updateApprovedContracts",
      "outputs": [],
      "stateMutability": "nonpayable",
      "type": "function"
    },
    {
      "inputs": [
        {
          "internalType": "uint256",
          "name": "_amount",
          "type": "uint256"
        },
        {
          "internalType": "bytes",
          "name": "nonce",
          "type": "bytes"
        },
        {
          "internalType": "bytes",
          "name": "signature",
          "type": "bytes"
        }
      ],
      "name": "whitelistMint",
      "outputs": [],
      "stateMutability": "payable",
      "type": "function"
    },
    {
      "inputs": [
        {
          "internalType": "address",
          "name": "",
          "type": "address"
        }
      ],
      "name": "whitelistMintCount",
      "outputs": [
        {
          "internalType": "uint256",
          "name": "",
          "type": "uint256"
        }
      ],
      "stateMutability": "view",
      "type": "function"
    },
    {
      "inputs": [],
      "name": "whitelistMintPrice",
      "outputs": [
        {
          "internalType": "uint256",
          "name": "",
          "type": "uint256"
        }
      ],
      "stateMutability": "view",
      "type": "function"
    },
    {
      "inputs": [],
      "name": "withdraw",
      "outputs": [],
      "stateMutability": "nonpayable",
      "type": "function"
    }
  ],
  "transactionHash": "0x569d707fc038bfd366aeb43c510a673d04acc77ef18acbfd5a7be4ee20bd9ee9",
  "args": [
    "Mock Leader",
    "Leader",
    "backendAPI",
    1000,
    "0x6A8f07700CaF7d76BA3Ef4E8C8d0674894587877",
    "0xBDfAAD57daecf05786a5Fca0dB9BB0c7Ea2c04E0",
    10000,
    20,
    "10000000000000000",
    "20000000000000000",
    3
  ],
  "numDeployments": 1,
  "solcInputHash": "083924f91c7c7bc6edf0567c60bb9181",
  "bytecode": "0x6101406040523480156200001257600080fd5b5060405162005a4a38038062005a4a83398101604081905262000035916200040c565b733cc6cdda760b79bafa08df41ecfa224f810dceb660018c8c8c8c8c8c8c8c8c8c898981816000620000688382620005a6565b506001620000778282620005a6565b505050620000946200008e6200024460201b60201c565b62000248565b505061ffff87166080819052600e805461ffff19169091179055620000b9886200029a565b6001600160a01b0395861660e052939094166101005260a09190915260c05261101191909155611012555050506daaeb6d7670e522a718067333cd4e3b1590506200022d5780156200017b57604051633e9f1edf60e11b81523060048201526001600160a01b03831660248201526daaeb6d7670e522a718067333cd4e90637d3e3dbe906044015b600060405180830381600087803b1580156200015c57600080fd5b505af115801562000171573d6000803e3d6000fd5b505050506200022d565b6001600160a01b03821615620001cc5760405163a0af290360e01b81523060048201526001600160a01b03831660248201526daaeb6d7670e522a718067333cd4e9063a0af29039060440162000141565b604051632210724360e11b81523060048201526daaeb6d7670e522a718067333cd4e90634420e48690602401600060405180830381600087803b1580156200021357600080fd5b505af115801562000228573d6000803e3d6000fd5b505050505b505061012052506200067298505050505050505050565b3390565b600680546001600160a01b038381166001600160a01b0319831681179093556040519116919082907f8be0079c531659141344cd1fd0a4f28419497f9722a3daafe3b4186f6b6457e090600090a35050565b620002a4620002b6565b600b620002b28282620005a6565b5050565b6006546001600160a01b03163314620003155760405162461bcd60e51b815260206004820181905260248201527f4f776e61626c653a2063616c6c6572206973206e6f7420746865206f776e6572604482015260640160405180910390fd5b565b634e487b7160e01b600052604160045260246000fd5b600082601f8301126200033f57600080fd5b81516001600160401b03808211156200035c576200035c62000317565b604051601f8301601f19908116603f0116810190828211818310171562000387576200038762000317565b81604052838152602092508683858801011115620003a457600080fd5b600091505b83821015620003c85785820183015181830184015290820190620003a9565b600093810190920192909252949350505050565b805161ffff81168114620003ef57600080fd5b919050565b80516001600160a01b0381168114620003ef57600080fd5b60008060008060008060008060008060006101608c8e0312156200042f57600080fd5b8b516001600160401b038111156200044657600080fd5b620004548e828f016200032d565b60208e0151909c5090506001600160401b038111156200047357600080fd5b620004818e828f016200032d565b60408e0151909b5090506001600160401b03811115620004a057600080fd5b620004ae8e828f016200032d565b995050620004bf60608d01620003dc565b9750620004cf60808d01620003f4565b9650620004df60a08d01620003f4565b955060c08c0151945060e08c015193506101008c015192506101208c015191506101408c015190509295989b509295989b9093969950565b600181811c908216806200052c57607f821691505b6020821081036200054d57634e487b7160e01b600052602260045260246000fd5b50919050565b601f821115620005a157600081815260208120601f850160051c810160208610156200057c5750805b601f850160051c820191505b818110156200059d5782815560010162000588565b5050505b505050565b81516001600160401b03811115620005c257620005c262000317565b620005da81620005d3845462000517565b8462000553565b602080601f831160018114620006125760008415620005f95750858301515b600019600386901b1c1916600185901b1785556200059d565b600085815260208120601f198616915b82811015620006435788860151825594840194600190910190840162000622565b5085821015620006625787850151600019600388901b60f8161c191681555b5050505050600190811b01905550565b60805160a05160c05160e051610100516101205161532662000724600039600081816107ca01528181611861015281816119c9015261280e015260008181610bff0152612fd90152600081816105740152611b5d015260008181610d1501526112cc015260008181610c7301526116050152600081816105df0152818161076301528181611214015281816112460152818161154e0152818161158001528181611fa801526122fc01526153266000f3fe6080604052600436106104105760003560e01c80636352211e1161021e578063a611708e11610123578063c040e6b8116100ab578063dc53fd921161007a578063dc53fd9214610e14578063e0f2cb9314610e2b578063e985e9c514610e4b578063f2fde38b14610e86578063f72f20f214610ea657600080fd5b8063c040e6b814610d87578063c87b56dd14610db4578063ce3cd99714610dd4578063d73744fa14610df457600080fd5b8063ac52e644116100f2578063ac52e64414610cb5578063ae85e02c14610cd5578063aeb1676814610d03578063b1a6505f14610d37578063b88d4fde14610d6757600080fd5b8063a611708e14610c21578063a6171eff14610c41578063a734678014610c61578063aa44048b14610c9557600080fd5b8063876c0e05116101a657806395d89b411161017557806395d89b4114610b6857806396330b5f14610b7d5780639eb5614a14610bab578063a22cb46514610bcd578063a591c4cb14610bed57600080fd5b8063876c0e0514610ace5780638c7a63ae14610afb5780638da5cb5b14610b2a57806394d216d614610b4857600080fd5b8063704a6f59116101ed578063704a6f5914610a2b57806370a0823114610a4b578063715018a614610a6b57806372abc8b714610a805780638350885614610aae57600080fd5b80636352211e1461099957806363d13c8f146109b9578063650b00f6146109e95780636c0360eb14610a1657600080fd5b80632dede78d116103245780633ee2b01d116102ac57806355f804b31161027b57806355f804b3146108e85780635944c753146109085780635a446215146109285780635d82cf6e1461094857806361a2bc011461096857600080fd5b80633ee2b01d1461086657806340a9c8df1461088657806341f43434146108a657806342842e0e146108c857600080fd5b8063359168e7116102f3578063359168e7146107b857806335c6aaf8146107ec5780633bdf4ac6146108035780633c34c38a146108315780633ccfd60b1461085157600080fd5b80632dede78d1461071157806332adcea11461073157806332cb6b0c14610751578063348d501c1461079857600080fd5b806314d0f1ba116103a75780632799cde0116103765780632799cde0146106385780632a55205a146106585780632b77abdf146106975780632cba8123146106bd5780632db11544146106fe57600080fd5b806314d0f1ba1461059657806318160ddd146105c757806323b872dd1461060557806324436f771461062557600080fd5b806309308e5d116103e357806309308e5d146104dc578063095ea7b3146105225780630ac04f4514610542578063122e04a81461056257600080fd5b806301ffc9a71461041557806304634d8d1461044a57806306fdde031461046c578063081812fc1461048e575b600080fd5b34801561042157600080fd5b506104356104303660046143d9565b610ec6565b60405190151581526020015b60405180910390f35b34801561045657600080fd5b5061046a610465366004614429565b610ee6565b005b34801561047857600080fd5b50610481610efc565b6040516104419190614482565b34801561049a57600080fd5b506104c46104a93660046144b5565b6004602052600090815260409020546001600160a01b031681565b6040516001600160a01b039091168152602001610441565b3480156104e857600080fd5b506105146104f73660046144ce565b600a60209081526000928352604080842090915290825290205481565b604051908152602001610441565b34801561052e57600080fd5b5061046a61053d3660046144fe565b610f8a565b34801561054e57600080fd5b5061046a61055d36600461456e565b61104f565b34801561056e57600080fd5b506104c47f000000000000000000000000000000000000000000000000000000000000000081565b3480156105a257600080fd5b506104356105b13660046145af565b6110186020526000908152604090205460ff1681565b3480156105d357600080fd5b50600e5461ffff9081167f00000000000000000000000000000000000000000000000000000000000000000316610514565b34801561061157600080fd5b5061046a6106203660046145cc565b61108a565b61046a61063336600461464e565b611111565b34801561064457600080fd5b5061046a6106533660046144b5565b6113c3565b34801561066457600080fd5b506106786106733660046146c7565b611403565b604080516001600160a01b039093168352602083019190915201610441565b3480156106a357600080fd5b50611013546104c49061010090046001600160a01b031681565b3480156106c957600080fd5b506104c46106d83660046146c7565b60096020908152600092835260408084209091529082529020546001600160a01b031681565b61046a61070c3660046144b5565b6114b1565b34801561071d57600080fd5b5061046a61072c36600461456e565b6116ec565b34801561073d57600080fd5b5061046a61074c3660046146e9565b61190a565b34801561075d57600080fd5b506107857f000000000000000000000000000000000000000000000000000000000000000081565b60405161ffff9091168152602001610441565b3480156107a457600080fd5b5061046a6107b3366004614808565b611a72565b3480156107c457600080fd5b506105147f000000000000000000000000000000000000000000000000000000000000000081565b3480156107f857600080fd5b506105146110115481565b34801561080f57600080fd5b5061051461081e3660046145af565b61100f6020526000908152604090205481565b34801561083d57600080fd5b5061051461084c3660046146c7565b611b27565b34801561085d57600080fd5b5061046a611b59565b34801561087257600080fd5b5061046a6108813660046148d7565b611bed565b34801561089257600080fd5b5061046a6108a13660046144b5565b611c21565b3480156108b257600080fd5b506104c46daaeb6d7670e522a718067333cd4e81565b3480156108d457600080fd5b5061046a6108e33660046145cc565b611c5e565b3480156108f457600080fd5b5061046a610903366004614905565b611d2c565b34801561091457600080fd5b5061046a610923366004614999565b611d40565b34801561093457600080fd5b5061046a6109433660046149d7565b611d53565b34801561095457600080fd5b5061046a6109633660046144b5565b611d7d565b34801561097457600080fd5b506104356109833660046144b5565b6110176020526000908152604090205460ff1681565b3480156109a557600080fd5b506104c46109b43660046144b5565b611d8b565b3480156109c557600080fd5b506104356109d43660046144b5565b60009081526110166020526040902054151590565b3480156109f557600080fd5b50610514610a043660046144b5565b60086020526000908152604090205481565b348015610a2257600080fd5b50610481611dc6565b348015610a3757600080fd5b5061046a610a463660046144b5565b611dd3565b348015610a5757600080fd5b50610514610a663660046145af565b6121d6565b348015610a7757600080fd5b5061046a61221b565b348015610a8c57600080fd5b50610435610a9b3660046144b5565b6000908152600860205260409020541590565b348015610aba57600080fd5b5061046a610ac9366004614a42565b61222f565b348015610ada57600080fd5b50610aee610ae93660046144b5565b612256565b6040516104419190614a9a565b348015610b0757600080fd5b50610b1b610b163660046144b5565b61254e565b60405161044193929190614aad565b348015610b3657600080fd5b506006546001600160a01b03166104c4565b348015610b5457600080fd5b5061046a610b633660046144ce565b6125d4565b348015610b7457600080fd5b50610481612612565b348015610b8957600080fd5b50610514610b983660046145af565b6110106020526000908152604090205481565b348015610bb757600080fd5b506110135461043590600160a81b900460ff1681565b348015610bd957600080fd5b5061046a610be83660046148d7565b61261f565b348015610bf957600080fd5b506104c47f000000000000000000000000000000000000000000000000000000000000000081565b348015610c2d57600080fd5b5061046a610c3c3660046144b5565b61268b565b348015610c4d57600080fd5b5061046a610c5c36600461456e565b612699565b348015610c6d57600080fd5b506105147f000000000000000000000000000000000000000000000000000000000000000081565b348015610ca157600080fd5b5061046a610cb03660046146e9565b612707565b348015610cc157600080fd5b5061046a610cd0366004614ad8565b612906565b348015610ce157600080fd5b50610514610cf03660046144b5565b6110146020526000908152604090205481565b348015610d0f57600080fd5b506105147f000000000000000000000000000000000000000000000000000000000000000081565b348015610d4357600080fd5b50610435610d523660046145af565b60076020526000908152604090205460ff1681565b348015610d7357600080fd5b5061046a610d82366004614b37565b6129de565b348015610d9357600080fd5b5061101354610da29060ff1681565b60405160ff9091168152602001610441565b348015610dc057600080fd5b50610481610dcf3660046144b5565b612a62565b348015610de057600080fd5b5061046a610def366004614b98565b612acb565b348015610e0057600080fd5b50610514610e0f3660046146c7565b612aea565b348015610e2057600080fd5b506105146110125481565b348015610e3757600080fd5b5061046a610e463660046145af565b612b07565b348015610e5757600080fd5b50610435610e66366004614bbb565b600560209081526000928352604080842090915290825290205460ff1681565b348015610e9257600080fd5b5061046a610ea13660046145af565b612b38565b348015610eb257600080fd5b5061046a610ec13660046144b5565b612bae565b6000610ed182612ca8565b80610ee05750610ee082612cf6565b92915050565b610eee612d2b565b610ef88282612d85565b5050565b60008054610f0990614be9565b80601f0160208091040260200160405190810160405280929190818152602001828054610f3590614be9565b8015610f825780601f10610f5757610100808354040283529160200191610f82565b820191906000526020600020905b815481529060010190602001808311610f6557829003601f168201915b505050505081565b6000818152600260205260409020546001600160a01b0316338114801590610fd657506001600160a01b038116600090815260056020908152604080832033845290915290205460ff16155b15610ff3576040516282b42960e81b815260040160405180910390fd5b60008281526004602052604080822080546001600160a01b0319166001600160a01b0387811691821790925591518593918516917f8c5be1e5ebec7d5bd14f71427d1e84f3dd0314c0f7b2291e5b200ac8c7c3b92591a4505050565b8060005b818110156110845761107c84848381811061107057611070614c23565b90506020020135612bae565b600101611053565b50505050565b826001600160a01b03811633146110a4576110a433612e3f565b60008281526110146020526040902054156111065760405162461bcd60e51b815260206004820152601e60248201527f43616e6e6f74207472616e73666572207175657374696e6720746f6b656e000060448201526064015b60405180910390fd5b611084848484612ef8565b6110135461112b903390869086908690869060ff16612f51565b61116c5760405162461bcd60e51b8152602060048201526012602482015271496e76616c6964205369676e61747572652160701b60448201526064016110fd565b6110135460ff166001146111c25760405162461bcd60e51b815260206004820152601a60248201527f57686974656c697374204d696e74206973206e6f74206f70656e00000000000060448201526064016110fd565b611011546111d09086614c4f565b34146112125760405162461bcd60e51b8152602060048201526011602482015270496e73756666696369656e74204554482160781b60448201526064016110fd565b7f000000000000000000000000000000000000000000000000000000000000000061ffff168561126a600e5461ffff9081167f0000000000000000000000000000000000000000000000000000000000000000031690565b6112749190614c66565b11156112b95760405162461bcd60e51b81526020600482015260146024820152734578636565646564204d617820537570706c792160601b60448201526064016110fd565b33600090815261100f60205260409020547f0000000000000000000000000000000000000000000000000000000000000000906112f7908790614c66565b111561136b5760405162461bcd60e51b815260206004820152603860248201527f57616c6c65742068617320616c7265616479206d696e746564204d617820416d60448201527f6f756e7420666f722057686974656c697374204d696e7421000000000000000060648201526084016110fd565b33600090815261100f60205260408120805487929061138b908490614c66565b90915550600090505b858110156113bb5760006113a661300f565b90506113b233826131dd565b50600101611394565b505050505050565b6000818152600260205260409020546001600160a01b03166113f75760405162461bcd60e51b81526004016110fd90614c79565b611400816132a7565b50565b6000828152600d602090815260408083208151808301909252546001600160a01b038116808352600160a01b9091046001600160601b0316928201929092528291611478575060408051808201909152600c546001600160a01b0381168252600160a01b90046001600160601b031660208201525b602081015160009061271090611497906001600160601b031687614c4f565b6114a19190614cb5565b91519350909150505b9250929050565b6110135460ff166002146114fd5760405162461bcd60e51b81526020600482015260136024820152725075626c69632053616c6520436c6f7365642160681b60448201526064016110fd565b6110125461150b9082614c4f565b341461154c5760405162461bcd60e51b815260206004820152601060248201526f092dce6eaccccd2c6d2cadce8408aa8960831b60448201526064016110fd565b7f000000000000000000000000000000000000000000000000000000000000000061ffff16816115a4600e5461ffff9081167f0000000000000000000000000000000000000000000000000000000000000000031690565b6115ae9190614c66565b11156115f25760405162461bcd60e51b81526020600482015260136024820152724d617820537570706c7920526561636865642160681b60448201526064016110fd565b33600090815261101060205260409020547f000000000000000000000000000000000000000000000000000000000000000090611630908390614c66565b111561169c5760405162461bcd60e51b815260206004820152603560248201527f57616c6c65742068617320616c7265616479206d696e746564204d617820416d6044820152746f756e7420666f72205075626c6963204d696e742160581b60648201526084016110fd565b3360009081526110106020526040812080548392906116bc908490614c66565b90915550600090505b81811015610ef85760006116d761300f565b90506116e333826131dd565b506001016116c5565b61101354600160a81b900460ff166117165760405162461bcd60e51b81526004016110fd90614cc9565b6110135461010090046001600160a01b03166117445760405162461bcd60e51b81526004016110fd90614cf4565b8060005b818110156117f057600084848381811061176457611764614c23565b90506020028101906117769190614d1c565b35905061178281611d8b565b6001600160a01b0316336001600160a01b0316146117b25760405162461bcd60e51b81526004016110fd90614d3c565b600081815261101460205260409020546117de5760405162461bcd60e51b81526004016110fd90614d73565b6117e7816133e7565b50600101611748565b5060005b8181101561108457600084848381811061181057611810614c23565b90506020028101906118229190614d1c565b35905036600086868581811061183a5761183a614c23565b905060200281019061184c9190614d1c565b61185a906020810190614dbd565b90925090507f000000000000000000000000000000000000000000000000000000000000000081111561189f5760405162461bcd60e51b81526004016110fd90614e06565b6118aa838383613487565b827f321f5b987da3cdd88d15ba5e36586aa60fd631bcbb32fbcd879dfa2d533bb7ca6110146000868152602001908152602001600020548484426040516118f49493929190614e6f565b60405180910390a28360010193505050506117f4565b61101354600160a81b900460ff166119345760405162461bcd60e51b81526004016110fd90614cc9565b6110135461010090046001600160a01b03166119625760405162461bcd60e51b81526004016110fd90614cf4565b61196b83611d8b565b6001600160a01b0316336001600160a01b03161461199b5760405162461bcd60e51b81526004016110fd90614d3c565b600083815261101460205260409020546119c75760405162461bcd60e51b81526004016110fd90614d73565b7f0000000000000000000000000000000000000000000000000000000000000000811115611a075760405162461bcd60e51b81526004016110fd90614e06565b611a10836133e7565b611a1b838383613487565b827f321f5b987da3cdd88d15ba5e36586aa60fd631bcbb32fbcd879dfa2d533bb7ca611014600086815260200190815260200160002054848442604051611a659493929190614e6f565b60405180910390a2505050565b611a7a612d2b565b600182511015611ac25760405162461bcd60e51b815260206004820152601360248201527230ba103632b0b9ba1018903932b1b2b4bb32b960691b60448201526064016110fd565b60005b8251811015611b22576000838281518110611ae257611ae2614c23565b60200260200101519050611b0f81848481518110611b0257611b02614c23565b60200260200101516131dd565b5080611b1a81614e9a565b915050611ac5565b505050565b6110166020528160005260406000208181548110611b4457600080fd5b90600052602060002001600091509150505481565b60007f00000000000000000000000000000000000000000000000000000000000000006001600160a01b03164760405160006040518083038185875af1925050503d8060008114611bc6576040519150601f19603f3d011682016040523d82523d6000602084013e611bcb565b606091505b505090508061140057604051631d42c86760e21b815260040160405180910390fd5b611bf5612d2b565b6001600160a01b0391909116600090815261101860205260409020805460ff1916911515919091179055565b6000818152600260205260409020546001600160a01b0316611c555760405162461bcd60e51b81526004016110fd90614c79565b6114008161370a565b611c6983838361108a565b6001600160a01b0382163b15611b2257604051630a85bd0160e11b8082523360048301526001600160a01b03858116602484015260448301849052608060648401526000608484015290919084169063150b7a029060a4016020604051808303816000875af1158015611ce0573d6000803e3d6000fd5b505050506040513d601f19601f82011682018060405250810190611d049190614eb3565b6001600160e01b03191614611b2257604051633da6393160e01b815260040160405180910390fd5b611d34612d2b565b600b610ef88282614f16565b611d48612d2b565b611b228383836138aa565b611d5b612d2b565b6000611d68848683614fd5565b506001611d76828483614fd5565b5050505050565b611d85612d2b565b61101255565b6000818152600260205260409020546001600160a01b031680611dc157604051634d5e5fb360e01b815260040160405180910390fd5b919050565b600b8054610f0990614be9565b6110135461010090046001600160a01b0316611e015760405162461bcd60e51b81526004016110fd90614cf4565b61101354604051633db7d39d60e11b8152600481018390526101009091046001600160a01b031690637b6fa73a90602401602060405180830381865afa158015611e4f573d6000803e3d6000fd5b505050506040513d601f19601f82011682018060405250810190611e739190615094565b6001600160a01b0316336001600160a01b03161480611ea257506110135461010090046001600160a01b031633145b611eff5760405162461bcd60e51b815260206004820152602860248201527f63616c6c6572206d75737420626520616e793a206d696e696f6e206f776e6572604482015267161036b4b734b7b760c11b60648201526084016110fd565b6000818152611016602052604081208054909103611f5f5760405162461bcd60e51b815260206004820152601a60248201527f6d696e696f6e546f6b656e4964206e6f74207175657374696e6700000000000060448201526064016110fd565b600081600081548110611f7457611f74614c23565b600091825260208083209091015480835261101582526040808420805482518186028101860190935280835292955061ffff7f000000000000000000000000000000000000000000000000000000000000000016949391929091830182828015611ffd57602002820191906000526020600020905b815481526020019060010190808311611fe9575b5050835193945083925060009150505b8281101561206f57600084828151811061202957612029614c23565b60200260200101519050888103612066578585838151811061204d5761204d614c23565b602090810291909101015282612062816150b1565b9350505b5060010161200d565b50808351036120c05760405162461bcd60e51b815260206004820152601960248201527f6d696e696f6e546f6b656e4964206e6f7420696e20637265770000000000000060448201526064016110fd565b6000816001600160401b038111156120da576120da614734565b604051908082528060200260200182016040528015612103578160200160208202803683370190505b5090506000805b8481101561217f578686828151811061212557612125614c23565b6020026020010151146121775785818151811061214457612144614c23565b602002602001015183838061215890614e9a565b94508151811061216a5761216a614c23565b6020026020010181815250505b60010161210a565b5060008781526110156020908152604090912083516121a092850190614328565b5060408051600080825260208083018085528d835261101690915292902090516121ca9290614328565b50505050505050505050565b60006001600160a01b0382166121ff5760405163d92e233d60e01b815260040160405180910390fd5b506001600160a01b031660009081526003602052604090205490565b612223612d2b565b61222d6000613975565b565b612237612d2b565b6110138054911515600160a81b0260ff60a81b19909216919091179055565b6110135460609061010090046001600160a01b03166122875760405162461bcd60e51b81526004016110fd90614cf4565b600061229283611d8b565b600084815261101560209081526040808320805482518185028101850190935280835294955092939092918301828280156122ec57602002820191906000526020600020905b8154815260200190600101908083116122d8575b505083519394508392505061ffff7f000000000000000000000000000000000000000000000000000000000000000016905060005b8381101561248057600085828151811061233d5761233d614c23565b602090810291909101015161101354604051633db7d39d60e11b8152600481018390529192506001600160a01b03898116926101009092041690637b6fa73a90602401602060405180830381865afa15801561239d573d6000803e3d6000fd5b505050506040513d601f19601f820116820180604052508101906123c19190615094565b6001600160a01b031614158061244657506110135460405163025d476560e21b8152600481018390526101009091046001600160a01b0316906309751d9490602401602060405180830381865afa158015612420573d6000803e3d6000fd5b505050506040513d601f19601f8201168201806040525081019061244491906150c8565b155b15612477578286838151811061245e5761245e614c23565b602090810291909101015283612473816150b1565b9450505b50600101612321565b506000826001600160401b0381111561249b5761249b614734565b6040519080825280602002602001820160405280156124c4578160200160208202803683370190505b5090506000805b8581101561254057838782815181106124e6576124e6614c23565b6020026020010151146125385786818151811061250557612505614c23565b602002602001015183838061251990614e9a565b94508151811061252b5761252b614c23565b6020026020010181815250505b6001016124cb565b509098975050505050505050565b6000818152611014602090815260408083205461101583528184206110178452828520548154845181870281018701909552808552606095879560ff909316929184918301828280156125c057602002820191906000526020600020905b8154815260200190600101908083116125ac575b505050505091509250925092509193909250565b6000828152600260205260409020546001600160a01b03166126085760405162461bcd60e51b81526004016110fd90614c79565b610ef882826139c7565b60018054610f0990614be9565b3360008181526005602090815260408083206001600160a01b03871680855290835292819020805460ff191686151590811790915590519081529192917f17307eab39ab6107e8899845ad3d59bd9653f200f220920489ca2b5937696c31910160405180910390a35050565b612693612d2b565b61101155565b8060005b81811015611084576126ff8484838181106126ba576126ba614c23565b90506020028101906126cc9190614d1c565b358585848181106126df576126df614c23565b90506020028101906126f19190614d1c565b610cb0906020810190614dbd565b60010161269d565b61101354600160a81b900460ff166127315760405162461bcd60e51b81526004016110fd90614cc9565b6110135461010090046001600160a01b031661275f5760405162461bcd60e51b81526004016110fd90614cf4565b61276883611d8b565b6001600160a01b0316336001600160a01b0316146127985760405162461bcd60e51b81526004016110fd90614d3c565b600083815261101460205260409020541561280c5760405162461bcd60e51b815260206004820152602e60248201527f7175657374656420616c7265616479207374617274656420666f72205b63617060448201526d7461696e7a20746f6b656e49645d60901b60648201526084016110fd565b7f000000000000000000000000000000000000000000000000000000000000000081111561284c5760405162461bcd60e51b81526004016110fd90614e06565b612857838383613487565b60008381526110146020526040908190204290819055905184917f9cf69842ab0633697d5e469283f269dbc744d6e296704f7e470181a0e005bb14916128a19190869086906150e5565b60405180910390a26000838152611017602052604090205460ff16611b225760008381526110176020526040808220805460ff191660011790555184917fdbe40b7fc30b2cd8e8d4d0170b5c8e061655dab270f7644e251c1865152d4bf391a2505050565b61290e612d2b565b8281146129475760405162461bcd60e51b8152602060048201526007602482015266042d8cadccee8d60cb1b60448201526064016110fd565b60005b83811015611d765782828281811061296457612964614c23565b90506020020160208101906129799190614a42565b6007600087878581811061298f5761298f614c23565b90506020020160208101906129a491906145af565b6001600160a01b031681526020810191909152604001600020805460ff1916911515919091179055806129d681614e9a565b91505061294a565b846001600160a01b03811633146129f8576129f833612e3f565b6000848152611014602052604090205415612a555760405162461bcd60e51b815260206004820152601e60248201527f43616e6e6f74207472616e73666572207175657374696e6720746f6b656e000060448201526064016110fd565b6113bb8686868686613b7d565b6000818152600260205260409020546060906001600160a01b0316612a995760405162461bcd60e51b81526004016110fd90614c79565b600b612aa483613bd8565b604051602001612ab5929190615108565b6040516020818303038152906040529050919050565b612ad3612d2b565b611013805460ff191660ff92909216919091179055565b6110156020528160005260406000208181548110611b4457600080fd5b612b0f612d2b565b61101380546001600160a01b0390921661010002610100600160a81b0319909216919091179055565b612b40612d2b565b6001600160a01b038116612ba55760405162461bcd60e51b815260206004820152602660248201527f4f776e61626c653a206e6577206f776e657220697320746865207a65726f206160448201526564647265737360d01b60648201526084016110fd565b61140081613975565b612bb781611d8b565b6001600160a01b0316336001600160a01b03161480612be057506006546001600160a01b031633145b80612bfb5750336000908152611018602052604090205460ff165b612c175760405162461bcd60e51b81526004016110fd90614d3c565b60008181526110146020526040902054612c435760405162461bcd60e51b81526004016110fd90614d73565b612c4c816133e7565b6000818152611014602052604080822080549290555182907ffa5379006eec3c8c0cffc1c41cc3e046db15af77d7055cffa281a25a0ea7ac3990612c9c9084904290918252602082015260400190565b60405180910390a25050565b60006301ffc9a760e01b6001600160e01b031983161480612cd957506380ac58cd60e01b6001600160e01b03198316145b80610ee05750506001600160e01b031916635b5e139f60e01b1490565b60006001600160e01b0319821663152a902d60e11b1480610ee057506301ffc9a760e01b6001600160e01b0319831614610ee0565b6006546001600160a01b0316331461222d5760405162461bcd60e51b815260206004820181905260248201527f4f776e61626c653a2063616c6c6572206973206e6f7420746865206f776e657260448201526064016110fd565b6127106001600160601b0382161115612db05760405162461bcd60e51b81526004016110fd9061518f565b6001600160a01b038216612e065760405162461bcd60e51b815260206004820152601960248201527f455243323938313a20696e76616c69642072656365697665720000000000000060448201526064016110fd565b604080518082019091526001600160a01b039092168083526001600160601b039091166020909201829052600160a01b90910217600c55565b6daaeb6d7670e522a718067333cd4e3b1561140057604051633185c44d60e21b81523060048201526001600160a01b03821660248201526daaeb6d7670e522a718067333cd4e9063c617113490604401602060405180830381865afa158015612eac573d6000803e3d6000fd5b505050506040513d601f19601f82011682018060405250810190612ed091906150c8565b61140057604051633b79c77360e21b81526001600160a01b03821660048201526024016110fd565b60008181526008602052604090205415612f465760405162461bcd60e51b815260206004820152600f60248201526e151bdad95b881a5cc81b1bd8dad959608a1b60448201526064016110fd565b611b22838383613c6a565b60008087878785604051602001612f6b94939291906151d9565b604051602081830303815290604052805190602001209050612fce85858080601f016020809104026020016040519081016040528093929190818152602001838380828437600092019190915250612fc89250859150613dd79050565b90613e0a565b6001600160a01b03167f00000000000000000000000000000000000000000000000000000000000000006001600160a01b0316149150509695505050505050565b600e5460009061ffff168082036130395760405163aeb0cc9b60e01b815260040160405180910390fd5b600061304482613e2e565b905060006130528383615216565b90506000600f8262010000811061306b5761306b614c23565b601091828204019190066002029054906101000a900461ffff1661ffff16905060008160000361309c57508161309f565b50805b60006130ac60018761522a565b90508084146131a3576000600f826201000081106130cc576130cc614c23565b601091828204019190066002029054906101000a900461ffff1661ffff169050806000036131345781600f8662010000811061310a5761310a614c23565b601091828204019190066002026101000a81548161ffff021916908361ffff1602179055506131a1565b80600f8662010000811061314a5761314a614c23565b601091828204019190066002026101000a81548161ffff021916908361ffff160217905550600f8262010000811061318457613184614c23565b601091828204019190066002026101000a81549061ffff02191690555b505b600e80546000906131b79061ffff1661523d565b91906101000a81548161ffff021916908361ffff16021790555081965050505050505090565b6131e78282613e7c565b6001600160a01b0382163b15610ef857604051630a85bd0160e11b80825233600483015260006024830181905260448301849052608060648401526084830152906001600160a01b0384169063150b7a029060a4016020604051808303816000875af115801561325b573d6000803e3d6000fd5b505050506040513d601f19601f8201168201806040525081019061327f9190614eb3565b6001600160e01b03191614610ef857604051633da6393160e01b815260040160405180910390fd5b3360009081526007602052604090205460ff166132d65760405162461bcd60e51b81526004016110fd9061525b565b6000818152600a602090815260408083203384529091529020541561333d5760405162461bcd60e51b815260206004820152601b60248201527f494420616c7265616479206c6f636b65642062792063616c6c6572000000000060448201526064016110fd565b600081815260086020526040812054613357906001614c66565b6000838152600960209081526040808320848452825280832080546001600160a01b03191633908117909155868452600a83528184209084528252808320849055858352600890915281208054929350906133b183614e9a565b9091555050604051339083907f9ecfd70e9ff36df72989324a49559383d39f9290d700b10cf5ac10dcb68d264390600090a35050565b600081815261101560205260409020805460018110611b225760408051600080825260208201909252905b8281101561346657600084828154811061342e5761342e614c23565b600091825260208083209091015480835261101682526040909220855192935061345c929091860190614328565b5050600101613412565b506000848152611015602090815260409091208251611d7692840190614328565b8060018110611084576040805160018082528183019092526000916020808301908036833701905050905084816000815181106134c6576134c6614c23565b60200260200101818152505060005b828110156136ef5760008585838181106134f1576134f1614c23565b61101354604051633db7d39d60e11b81526020929092029390930135600482018190529350339261010090046001600160a01b03169150637b6fa73a90602401602060405180830381865afa15801561354e573d6000803e3d6000fd5b505050506040513d601f19601f820116820180604052508101906135729190615094565b6001600160a01b0316146135c85760405162461bcd60e51b815260206004820152601d60248201527f6e6f74206f776e6572206f66205b6d696e696f6e20746f6b656e49645d00000060448201526064016110fd565b6110135460405163025d476560e21b8152600481018390526101009091046001600160a01b0316906309751d9490602401602060405180830381865afa158015613616573d6000803e3d6000fd5b505050506040513d601f19601f8201168201806040525081019061363a91906150c8565b6136a257611013546040516345c6b37960e11b8152600481018390526101009091046001600160a01b031690638b8d66f290602401600060405180830381600087803b15801561368957600080fd5b505af115801561369d573d6000803e3d6000fd5b505050505b6000818152611016602052604090208054156136c1576136c182611dd3565b60008281526110166020908152604090912085516136e192870190614328565b5082600101925050506134d5565b506000858152611015602052604090206113bb908585614373565b3360009081526007602052604090205460ff166137395760405162461bcd60e51b81526004016110fd9061525b565b6000818152600a60209081526040808320338452909152812054908190036137a35760405162461bcd60e51b815260206004820152601760248201527f4944206e6f74206c6f636b65642062792063616c6c657200000000000000000060448201526064016110fd565b6000828152600860205260409020548181146138195760008381526009602090815260408083208484528252808320805486855282852080546001600160a01b03199081166001600160a01b03909316928317909155825416909155868452600a83528184209084529091529020829055613841565b6000838152600960209081526040808320858452909152902080546001600160a01b03191690555b6000838152600a60209081526040808320338452825280832083905585835260089091528120805491613873836150b1565b9091555050604051339084907f0fe7d9801197f79ef3b1595d19379eb58f0fff5f98b0f6d6f34c03cae5306c3790600090a3505050565b6127106001600160601b03821611156138d55760405162461bcd60e51b81526004016110fd9061518f565b6001600160a01b03821661392b5760405162461bcd60e51b815260206004820152601b60248201527f455243323938313a20496e76616c696420706172616d6574657273000000000060448201526064016110fd565b6040805180820182526001600160a01b0393841681526001600160601b0392831660208083019182526000968752600d90529190942093519051909116600160a01b029116179055565b600680546001600160a01b038381166001600160a01b0319831681179093556040519116919082907f8be0079c531659141344cd1fd0a4f28419497f9722a3daafe3b4186f6b6457e090600090a35050565b6001600160a01b03811660009081526007602052604090205460ff1615613a005760405162461bcd60e51b81526004016110fd9061525b565b6000828152600a602090815260408083206001600160a01b038516845290915281205490819003613a635760405162461bcd60e51b815260206004820152600d60248201526c1251081b9bdd081b1bd8dad959609a1b60448201526064016110fd565b600083815260086020526040902054818114613ad95760008481526009602090815260408083208484528252808320805486855282852080546001600160a01b03199081166001600160a01b03909316928317909155825416909155878452600a83528184209084529091529020829055613b01565b6000848152600960209081526040808320858452909152902080546001600160a01b03191690555b6000848152600a602090815260408083206001600160a01b0387168452825280832083905586835260089091528120805491613b3c836150b1565b90915550506040516001600160a01b0384169085907f0fe7d9801197f79ef3b1595d19379eb58f0fff5f98b0f6d6f34c03cae5306c3790600090a350505050565b60008381526008602052604090205415613bcb5760405162461bcd60e51b815260206004820152600f60248201526e151bdad95b881a5cc81b1bd8dad959608a1b60448201526064016110fd565b611d768585858585613f44565b60606000613be583614000565b60010190506000816001600160401b03811115613c0457613c04614734565b6040519080825280601f01601f191660200182016040528015613c2e576020820181803683370190505b5090508181016020015b600019016f181899199a1a9b1b9c1cb0b131b232b360811b600a86061a8153600a8504945084613c3857509392505050565b6000818152600260205260409020546001600160a01b03848116911614613ca45760405163c6de3f2560e01b815260040160405180910390fd5b6001600160a01b038216613ccb57604051634e46966960e11b815260040160405180910390fd5b336001600160a01b03841614801590613d0857506001600160a01b038316600090815260056020908152604080832033845290915290205460ff16155b8015613d2b57506000818152600460205260409020546001600160a01b03163314155b15613d48576040516282b42960e81b815260040160405180910390fd5b6001600160a01b0380841660008181526003602090815260408083208054600019019055938616808352848320805460010190558583526002825284832080546001600160a01b03199081168317909155600490925284832080549092169091559251849392917fddf252ad1be2c89b69c2b068fc378daa952ba7f163c4a11628f55a4df523b3ef91a4505050565b7f19457468657265756d205369676e6564204d6573736167653a0a3332000000006000908152601c91909152603c902090565b6000806000613e1985856140d8565b91509150613e268161411a565b509392505050565b600044613e3c60014361522a565b6040805160208101939093529040908201523060608201526080810183905260a00160408051601f19818403018152919052805160209091012092915050565b6001600160a01b038216613ea357604051634e46966960e11b815260040160405180910390fd5b6000818152600260205260409020546001600160a01b031615613ed957604051631bbdf5c560e31b815260040160405180910390fd5b6001600160a01b038216600081815260036020908152604080832080546001019055848352600290915280822080546001600160a01b0319168417905551839291907fddf252ad1be2c89b69c2b068fc378daa952ba7f163c4a11628f55a4df523b3ef908290a45050565b613f4f85858561108a565b6001600160a01b0384163b15611d7657604051630a85bd0160e11b808252906001600160a01b0386169063150b7a0290613f959033908a90899089908990600401615286565b6020604051808303816000875af1158015613fb4573d6000803e3d6000fd5b505050506040513d601f19601f82011682018060405250810190613fd89190614eb3565b6001600160e01b03191614611d7657604051633da6393160e01b815260040160405180910390fd5b60008072184f03e93ff9f4daa797ed6e38ed64bf6a1f0160401b831061403f5772184f03e93ff9f4daa797ed6e38ed64bf6a1f0160401b830492506040015b6d04ee2d6d415b85acef8100000000831061406b576d04ee2d6d415b85acef8100000000830492506020015b662386f26fc10000831061408957662386f26fc10000830492506010015b6305f5e10083106140a1576305f5e100830492506008015b61271083106140b557612710830492506004015b606483106140c7576064830492506002015b600a8310610ee05760010192915050565b600080825160410361410e5760208301516040840151606085015160001a61410287828585614264565b945094505050506114aa565b506000905060026114aa565b600081600481111561412e5761412e6152da565b036141365750565b600181600481111561414a5761414a6152da565b036141975760405162461bcd60e51b815260206004820152601860248201527f45434453413a20696e76616c6964207369676e6174757265000000000000000060448201526064016110fd565b60028160048111156141ab576141ab6152da565b036141f85760405162461bcd60e51b815260206004820152601f60248201527f45434453413a20696e76616c6964207369676e6174757265206c656e6774680060448201526064016110fd565b600381600481111561420c5761420c6152da565b036114005760405162461bcd60e51b815260206004820152602260248201527f45434453413a20696e76616c6964207369676e6174757265202773272076616c604482015261756560f01b60648201526084016110fd565b6000807f7fffffffffffffffffffffffffffffff5d576e7357a4501ddfe92f46681b20a083111561429b575060009050600361431f565b6040805160008082526020820180845289905260ff881692820192909252606081018690526080810185905260019060a0016020604051602081039080840390855afa1580156142ef573d6000803e3d6000fd5b5050604051601f1901519150506001600160a01b0381166143185760006001925092505061431f565b9150600090505b94509492505050565b828054828255906000526020600020908101928215614363579160200282015b82811115614363578251825591602001919060010190614348565b5061436f9291506143ae565b5090565b828054828255906000526020600020908101928215614363579160200282015b82811115614363578235825591602001919060010190614393565b5b8082111561436f57600081556001016143af565b6001600160e01b03198116811461140057600080fd5b6000602082840312156143eb57600080fd5b81356143f6816143c3565b9392505050565b6001600160a01b038116811461140057600080fd5b80356001600160601b0381168114611dc157600080fd5b6000806040838503121561443c57600080fd5b8235614447816143fd565b915061445560208401614412565b90509250929050565b60005b83811015614479578181015183820152602001614461565b50506000910152565b60208152600082518060208401526144a181604085016020870161445e565b601f01601f19169190910160400192915050565b6000602082840312156144c757600080fd5b5035919050565b600080604083850312156144e157600080fd5b8235915060208301356144f3816143fd565b809150509250929050565b6000806040838503121561451157600080fd5b823561451c816143fd565b946020939093013593505050565b60008083601f84011261453c57600080fd5b5081356001600160401b0381111561455357600080fd5b6020830191508360208260051b85010111156114aa57600080fd5b6000806020838503121561458157600080fd5b82356001600160401b0381111561459757600080fd5b6145a38582860161452a565b90969095509350505050565b6000602082840312156145c157600080fd5b81356143f6816143fd565b6000806000606084860312156145e157600080fd5b83356145ec816143fd565b925060208401356145fc816143fd565b929592945050506040919091013590565b60008083601f84011261461f57600080fd5b5081356001600160401b0381111561463657600080fd5b6020830191508360208285010111156114aa57600080fd5b60008060008060006060868803121561466657600080fd5b8535945060208601356001600160401b038082111561468457600080fd5b61469089838a0161460d565b909650945060408801359150808211156146a957600080fd5b506146b68882890161460d565b969995985093965092949392505050565b600080604083850312156146da57600080fd5b50508035926020909101359150565b6000806000604084860312156146fe57600080fd5b8335925060208401356001600160401b0381111561471b57600080fd5b6147278682870161452a565b9497909650939450505050565b634e487b7160e01b600052604160045260246000fd5b604051601f8201601f191681016001600160401b038111828210171561477257614772614734565b604052919050565b60006001600160401b0382111561479357614793614734565b5060051b60200190565b600082601f8301126147ae57600080fd5b813560206147c36147be8361477a565b61474a565b82815260059290921b840181019181810190868411156147e257600080fd5b8286015b848110156147fd57803583529183019183016147e6565b509695505050505050565b6000806040838503121561481b57600080fd5b82356001600160401b038082111561483257600080fd5b818501915085601f83011261484657600080fd5b813560206148566147be8361477a565b82815260059290921b8401810191818101908984111561487557600080fd5b948201945b8386101561489c57853561488d816143fd565b8252948201949082019061487a565b965050860135925050808211156148b257600080fd5b506148bf8582860161479d565b9150509250929050565b801515811461140057600080fd5b600080604083850312156148ea57600080fd5b82356148f5816143fd565b915060208301356144f3816148c9565b6000602080838503121561491857600080fd5b82356001600160401b038082111561492f57600080fd5b818501915085601f83011261494357600080fd5b81358181111561495557614955614734565b614967601f8201601f1916850161474a565b9150808252868482850101111561497d57600080fd5b8084840185840137600090820190930192909252509392505050565b6000806000606084860312156149ae57600080fd5b8335925060208401356149c0816143fd565b91506149ce60408501614412565b90509250925092565b600080600080604085870312156149ed57600080fd5b84356001600160401b0380821115614a0457600080fd5b614a108883890161460d565b90965094506020870135915080821115614a2957600080fd5b50614a368782880161460d565b95989497509550505050565b600060208284031215614a5457600080fd5b81356143f6816148c9565b600081518084526020808501945080840160005b83811015614a8f57815187529582019590820190600101614a73565b509495945050505050565b6020815260006143f66020830184614a5f565b838152606060208201526000614ac66060830185614a5f565b90508215156040830152949350505050565b60008060008060408587031215614aee57600080fd5b84356001600160401b0380821115614b0557600080fd5b614b118883890161452a565b90965094506020870135915080821115614b2a57600080fd5b50614a368782880161452a565b600080600080600060808688031215614b4f57600080fd5b8535614b5a816143fd565b94506020860135614b6a816143fd565b93506040860135925060608601356001600160401b03811115614b8c57600080fd5b6146b68882890161460d565b600060208284031215614baa57600080fd5b813560ff811681146143f657600080fd5b60008060408385031215614bce57600080fd5b8235614bd9816143fd565b915060208301356144f3816143fd565b600181811c90821680614bfd57607f821691505b602082108103614c1d57634e487b7160e01b600052602260045260246000fd5b50919050565b634e487b7160e01b600052603260045260246000fd5b634e487b7160e01b600052601160045260246000fd5b8082028115828204841417610ee057610ee0614c39565b80820180821115610ee057610ee0614c39565b6020808252600c908201526b151bdad95b8808595e1a5cdd60a21b604082015260600190565b634e487b7160e01b600052601260045260246000fd5b600082614cc457614cc4614c9f565b500490565b60208082526011908201527038bab2b9ba34b733903737ba1037b832b760791b604082015260600190565b6020808252600e908201526d1b5a5b9a5bdb881b9bdd081cd95d60921b604082015260600190565b60008235603e19833603018112614d3257600080fd5b9190910192915050565b6020808252601f908201527f6e6f74206f776e6572206f66205b6361707461696e7a20746f6b656e49645d00604082015260600190565b6020808252602a908201527f71756573746564206e6f74207374617274656420666f72205b6361707461696e6040820152697a20746f6b656e49645d60b01b606082015260800190565b6000808335601e19843603018112614dd457600080fd5b8301803591506001600160401b03821115614dee57600080fd5b6020019150600581901b36038213156114aa57600080fd5b6020808252601f908201527f746f6f206d616e79206372657773205b6d696e696f6e546f6b656e4964735d00604082015260600190565b81835260006001600160fb1b03831115614e5657600080fd5b8260051b80836020870137939093016020019392505050565b848152606060208201526000614e89606083018587614e3d565b905082604083015295945050505050565b600060018201614eac57614eac614c39565b5060010190565b600060208284031215614ec557600080fd5b81516143f6816143c3565b601f821115611b2257600081815260208120601f850160051c81016020861015614ef75750805b601f850160051c820191505b818110156113bb57828155600101614f03565b81516001600160401b03811115614f2f57614f2f614734565b614f4381614f3d8454614be9565b84614ed0565b602080601f831160018114614f785760008415614f605750858301515b600019600386901b1c1916600185901b1785556113bb565b600085815260208120601f198616915b82811015614fa757888601518255948401946001909101908401614f88565b5085821015614fc55787850151600019600388901b60f8161c191681555b5050505050600190811b01905550565b6001600160401b03831115614fec57614fec614734565b61500083614ffa8354614be9565b83614ed0565b6000601f841160018114615034576000851561501c5750838201355b600019600387901b1c1916600186901b178355611d76565b600083815260209020601f19861690835b828110156150655786850135825560209485019460019092019101615045565b50868210156150825760001960f88860031b161c19848701351681555b505060018560011b0183555050505050565b6000602082840312156150a657600080fd5b81516143f6816143fd565b6000816150c0576150c0614c39565b506000190190565b6000602082840312156150da57600080fd5b81516143f6816148c9565b8381526040602082015260006150ff604083018486614e3d565b95945050505050565b600080845461511681614be9565b6001828116801561512e576001811461514357615172565b60ff1984168752821515830287019450615172565b8860005260208060002060005b858110156151695781548a820152908401908201615150565b50505082870194505b50505050835161518681836020880161445e565b01949350505050565b6020808252602a908201527f455243323938313a20726f79616c7479206665652077696c6c206578636565646040820152692073616c65507269636560b01b606082015260800190565b6001600160601b03198560601b1681528284601483013760f89190911b6001600160f81b0319166014919092019081019190915260150192915050565b60008261522557615225614c9f565b500690565b81810381811115610ee057610ee0614c39565b600061ffff82168061525157615251614c39565b6000190192915050565b602080825260119082015270043616e6e6f7420757064617465206d617607c1b604082015260600190565b6001600160a01b038681168252851660208201526040810184905260806060820181905281018290526000828460a0840137600060a0848401015260a0601f19601f85011683010190509695505050505050565b634e487b7160e01b600052602160045260246000fdfea2646970667358221220becb542fe8e04c01313736c97952c843f75df68dd39ed0bcf7a97f6a81df626464736f6c63430008120033",
  "devdoc": {
    "errors": {
      "OperatorNotAllowed(address)": [
        {
          "details": "Emitted when an operator is not allowed."
        }
      ]
    },
    "kind": "dev",
    "methods": {
      "freeId(uint256,address)": {
        "details": "Unlocks a token from a given contract if the contract is no longer approved."
      },
      "isUnlocked(uint256)": {
        "details": "Returns if the token is locked (non-transferrable) or not."
      },
      "lockId(uint256)": {
        "details": "Locks a token, preventing it from being transferrable"
      },
      "owner()": {
        "details": "Returns the address of the current owner."
      },
      "renounceOwnership()": {
        "details": "Leaves the contract without owner. It will not be possible to call `onlyOwner` functions. Can only be called by the current owner. NOTE: Renouncing ownership will leave the contract without an owner, thereby disabling any functionality that is only available to the owner."
      },
      "royaltyInfo(uint256,uint256)": {
        "details": "Returns how much royalty is owed and to whom, based on a sale price that may be denominated in any unit of exchange. The royalty amount is denominated and should be paid in that same unit of exchange."
      },
      "transferOwnership(address)": {
        "details": "Transfers ownership of the contract to a new account (`newOwner`). Can only be called by the current owner."
      },
      "unlockId(uint256)": {
        "details": "Unlocks a token."
      }
    },
    "version": 1
  },
  "userdoc": {
    "errors": {
      "NotMinted()": [
        {
          "notice": "----------------------------------------------------------------------- Custom Errors -----------------------------------------------------------------------"
        }
      ]
    },
    "events": {
      "Transfer(address,address,uint256)": {
        "notice": "----------------------------------------------------------------------- Events -----------------------------------------------------------------------"
      }
    },
    "kind": "user",
    "methods": {
      "approve(address,uint256)": {
        "notice": "----------------------------------------------------------------------- ERC721 Logic -----------------------------------------------------------------------"
      },
      "getApproved(uint256)": {
        "notice": "----------------------------------------------------------------------- ERC721 Approval Storage -----------------------------------------------------------------------"
      },
      "name()": {
        "notice": "----------------------------------------------------------------------- Metadata Storage/Logic -----------------------------------------------------------------------"
      }
    },
    "version": 1
  },
  "storageLayout": {
    "storage": [
      {
        "astId": 4577,
        "contract": "contracts/Leader.sol:Leader",
        "label": "name",
        "offset": 0,
        "slot": "0",
        "type": "t_string_storage"
      },
      {
        "astId": 4579,
        "contract": "contracts/Leader.sol:Leader",
        "label": "symbol",
        "offset": 0,
        "slot": "1",
        "type": "t_string_storage"
      },
      {
        "astId": 4591,
        "contract": "contracts/Leader.sol:Leader",
        "label": "_ownerOf",
        "offset": 0,
        "slot": "2",
        "type": "t_mapping(t_uint256,t_address)"
      },
      {
        "astId": 4595,
        "contract": "contracts/Leader.sol:Leader",
        "label": "_balanceOf",
        "offset": 0,
        "slot": "3",
        "type": "t_mapping(t_address,t_uint256)"
      },
      {
        "astId": 4645,
        "contract": "contracts/Leader.sol:Leader",
        "label": "getApproved",
        "offset": 0,
        "slot": "4",
        "type": "t_mapping(t_uint256,t_address)"
      },
      {
        "astId": 4651,
        "contract": "contracts/Leader.sol:Leader",
        "label": "isApprovedForAll",
        "offset": 0,
        "slot": "5",
        "type": "t_mapping(t_address,t_mapping(t_address,t_bool))"
      },
      {
        "astId": 7,
        "contract": "contracts/Leader.sol:Leader",
        "label": "_owner",
        "offset": 0,
        "slot": "6",
        "type": "t_address"
      },
      {
        "astId": 5562,
        "contract": "contracts/Leader.sol:Leader",
        "label": "approvedContract",
        "offset": 0,
        "slot": "7",
        "type": "t_mapping(t_address,t_bool)"
      },
      {
        "astId": 5567,
        "contract": "contracts/Leader.sol:Leader",
        "label": "lockCount",
        "offset": 0,
        "slot": "8",
        "type": "t_mapping(t_uint256,t_uint256)"
      },
      {
        "astId": 5574,
        "contract": "contracts/Leader.sol:Leader",
        "label": "lockMap",
        "offset": 0,
        "slot": "9",
        "type": "t_mapping(t_uint256,t_mapping(t_uint256,t_address))"
      },
      {
        "astId": 5581,
        "contract": "contracts/Leader.sol:Leader",
        "label": "lockMapIndex",
        "offset": 0,
        "slot": "10",
        "type": "t_mapping(t_uint256,t_mapping(t_address,t_uint256))"
      },
      {
        "astId": 5159,
        "contract": "contracts/Leader.sol:Leader",
        "label": "baseURI",
        "offset": 0,
        "slot": "11",
        "type": "t_string_storage"
      },
      {
        "astId": 329,
        "contract": "contracts/Leader.sol:Leader",
        "label": "_defaultRoyaltyInfo",
        "offset": 0,
        "slot": "12",
        "type": "t_struct(RoyaltyInfo)326_storage"
      },
      {
        "astId": 334,
        "contract": "contracts/Leader.sol:Leader",
        "label": "_tokenRoyaltyInfo",
        "offset": 0,
        "slot": "13",
        "type": "t_mapping(t_uint256,t_struct(RoyaltyInfo)326_storage)"
      },
      {
        "astId": 2157,
        "contract": "contracts/Leader.sol:Leader",
        "label": "_numAvailableRemainingTokens",
        "offset": 0,
        "slot": "14",
        "type": "t_uint16"
      },
      {
        "astId": 2161,
        "contract": "contracts/Leader.sol:Leader",
        "label": "_availableRemainingTokens",
        "offset": 0,
        "slot": "15",
        "type": "t_array(t_uint16)65536_storage"
      },
      {
        "astId": 2173,
        "contract": "contracts/Leader.sol:Leader",
        "label": "whitelistMintCount",
        "offset": 0,
        "slot": "4111",
        "type": "t_mapping(t_address,t_uint256)"
      },
      {
        "astId": 2177,
        "contract": "contracts/Leader.sol:Leader",
        "label": "publicMintCount",
        "offset": 0,
        "slot": "4112",
        "type": "t_mapping(t_address,t_uint256)"
      },
      {
        "astId": 2179,
        "contract": "contracts/Leader.sol:Leader",
        "label": "whitelistMintPrice",
        "offset": 0,
        "slot": "4113",
        "type": "t_uint256"
      },
      {
        "astId": 2181,
        "contract": "contracts/Leader.sol:Leader",
        "label": "publicMintPrice",
        "offset": 0,
        "slot": "4114",
        "type": "t_uint256"
      },
      {
        "astId": 2183,
        "contract": "contracts/Leader.sol:Leader",
        "label": "stage",
        "offset": 0,
        "slot": "4115",
        "type": "t_uint8"
      },
      {
        "astId": 2784,
        "contract": "contracts/Leader.sol:Leader",
        "label": "minion",
        "offset": 1,
        "slot": "4115",
        "type": "t_contract(IMinion)6175"
      },
      {
        "astId": 2788,
        "contract": "contracts/Leader.sol:Leader",
        "label": "canQuest",
        "offset": 21,
        "slot": "4115",
        "type": "t_bool"
      },
      {
        "astId": 2792,
        "contract": "contracts/Leader.sol:Leader",
        "label": "tokensLastQuestedAt",
        "offset": 0,
        "slot": "4116",
        "type": "t_mapping(t_uint256,t_uint256)"
      },
      {
        "astId": 2797,
        "contract": "contracts/Leader.sol:Leader",
        "label": "questCrews",
        "offset": 0,
        "slot": "4117",
        "type": "t_mapping(t_uint256,t_array(t_uint256)dyn_storage)"
      },
      {
        "astId": 2802,
        "contract": "contracts/Leader.sol:Leader",
        "label": "minionCrew",
        "offset": 0,
        "slot": "4118",
        "type": "t_mapping(t_uint256,t_array(t_uint256)dyn_storage)"
      },
      {
        "astId": 2806,
        "contract": "contracts/Leader.sol:Leader",
        "label": "revealed",
        "offset": 0,
        "slot": "4119",
        "type": "t_mapping(t_uint256,t_bool)"
      },
      {
        "astId": 2810,
        "contract": "contracts/Leader.sol:Leader",
        "label": "moderators",
        "offset": 0,
        "slot": "4120",
        "type": "t_mapping(t_address,t_bool)"
      }
    ],
    "types": {
      "t_address": {
        "encoding": "inplace",
        "label": "address",
        "numberOfBytes": "20"
      },
      "t_array(t_uint16)65536_storage": {
        "base": "t_uint16",
        "encoding": "inplace",
        "label": "uint16[65536]",
        "numberOfBytes": "131072"
      },
      "t_array(t_uint256)dyn_storage": {
        "base": "t_uint256",
        "encoding": "dynamic_array",
        "label": "uint256[]",
        "numberOfBytes": "32"
      },
      "t_bool": {
        "encoding": "inplace",
        "label": "bool",
        "numberOfBytes": "1"
      },
      "t_contract(IMinion)6175": {
        "encoding": "inplace",
        "label": "contract IMinion",
        "numberOfBytes": "20"
      },
      "t_mapping(t_address,t_bool)": {
        "encoding": "mapping",
        "key": "t_address",
        "label": "mapping(address => bool)",
        "numberOfBytes": "32",
        "value": "t_bool"
      },
      "t_mapping(t_address,t_mapping(t_address,t_bool))": {
        "encoding": "mapping",
        "key": "t_address",
        "label": "mapping(address => mapping(address => bool))",
        "numberOfBytes": "32",
        "value": "t_mapping(t_address,t_bool)"
      },
      "t_mapping(t_address,t_uint256)": {
        "encoding": "mapping",
        "key": "t_address",
        "label": "mapping(address => uint256)",
        "numberOfBytes": "32",
        "value": "t_uint256"
      },
      "t_mapping(t_uint256,t_address)": {
        "encoding": "mapping",
        "key": "t_uint256",
        "label": "mapping(uint256 => address)",
        "numberOfBytes": "32",
        "value": "t_address"
      },
      "t_mapping(t_uint256,t_array(t_uint256)dyn_storage)": {
        "encoding": "mapping",
        "key": "t_uint256",
        "label": "mapping(uint256 => uint256[])",
        "numberOfBytes": "32",
        "value": "t_array(t_uint256)dyn_storage"
      },
      "t_mapping(t_uint256,t_bool)": {
        "encoding": "mapping",
        "key": "t_uint256",
        "label": "mapping(uint256 => bool)",
        "numberOfBytes": "32",
        "value": "t_bool"
      },
      "t_mapping(t_uint256,t_mapping(t_address,t_uint256))": {
        "encoding": "mapping",
        "key": "t_uint256",
        "label": "mapping(uint256 => mapping(address => uint256))",
        "numberOfBytes": "32",
        "value": "t_mapping(t_address,t_uint256)"
      },
      "t_mapping(t_uint256,t_mapping(t_uint256,t_address))": {
        "encoding": "mapping",
        "key": "t_uint256",
        "label": "mapping(uint256 => mapping(uint256 => address))",
        "numberOfBytes": "32",
        "value": "t_mapping(t_uint256,t_address)"
      },
      "t_mapping(t_uint256,t_struct(RoyaltyInfo)326_storage)": {
        "encoding": "mapping",
        "key": "t_uint256",
        "label": "mapping(uint256 => struct ERC2981.RoyaltyInfo)",
        "numberOfBytes": "32",
        "value": "t_struct(RoyaltyInfo)326_storage"
      },
      "t_mapping(t_uint256,t_uint256)": {
        "encoding": "mapping",
        "key": "t_uint256",
        "label": "mapping(uint256 => uint256)",
        "numberOfBytes": "32",
        "value": "t_uint256"
      },
      "t_string_storage": {
        "encoding": "bytes",
        "label": "string",
        "numberOfBytes": "32"
      },
      "t_struct(RoyaltyInfo)326_storage": {
        "encoding": "inplace",
        "label": "struct ERC2981.RoyaltyInfo",
        "members": [
          {
            "astId": 323,
            "contract": "contracts/Leader.sol:Leader",
            "label": "receiver",
            "offset": 0,
            "slot": "0",
            "type": "t_address"
          },
          {
            "astId": 325,
            "contract": "contracts/Leader.sol:Leader",
            "label": "royaltyFraction",
            "offset": 20,
            "slot": "0",
            "type": "t_uint96"
          }
        ],
        "numberOfBytes": "32"
      },
      "t_uint16": {
        "encoding": "inplace",
        "label": "uint16",
        "numberOfBytes": "2"
      },
      "t_uint256": {
        "encoding": "inplace",
        "label": "uint256",
        "numberOfBytes": "32"
      },
      "t_uint8": {
        "encoding": "inplace",
        "label": "uint8",
        "numberOfBytes": "1"
      },
      "t_uint96": {
        "encoding": "inplace",
        "label": "uint96",
        "numberOfBytes": "12"
      }
    }
  }
}