{
  "address": "0x6303FC2e1e3c8ceEE3098486D22F16d8f57f592e",
  "abi": [
    {
      "inputs": [
        {
          "internalType": "string",
          "name": "_name",
          "type": "string"
        },
        {
          "internalType": "string",
          "name": "_symbol",
          "type": "string"
        },
        {
          "internalType": "string",
          "name": "_baseURI",
          "type": "string"
        },
        {
          "internalType": "uint16",
          "name": "maxSupply_",
          "type": "uint16"
        },
        {
          "internalType": "address",
          "name": "withdrawAddress",
          "type": "address"
        },
        {
          "internalType": "address",
          "name": "_whitelistSignerAddress",
          "type": "address"
        },
        {
          "internalType": "uint256",
          "name": "_whitelistMaxMint",
          "type": "uint256"
        },
        {
          "internalType": "uint256",
          "name": "_publicMaxMint",
          "type": "uint256"
        }
      ],
      "stateMutability": "nonpayable",
      "type": "constructor"
    },
    {
      "inputs": [],
      "name": "AlreadyMinted",
      "type": "error"
    },
    {
      "inputs": [],
      "name": "InvalidRecipient",
      "type": "error"
    },
    {
      "inputs": [],
      "name": "InvalidTokenId",
      "type": "error"
    },
    {
      "inputs": [],
      "name": "NotMinted",
      "type": "error"
    },
    {
      "inputs": [],
      "name": "Unauthorized",
      "type": "error"
    },
    {
      "inputs": [],
      "name": "UnsafeRecipient",
      "type": "error"
    },
    {
      "inputs": [],
      "name": "WithdrawFailed",
      "type": "error"
    },
    {
      "inputs": [],
      "name": "WrongFrom",
      "type": "error"
    },
    {
      "inputs": [],
      "name": "ZeroAddress",
      "type": "error"
    },
    {
      "anonymous": false,
      "inputs": [
        {
          "indexed": true,
          "internalType": "address",
          "name": "owner",
          "type": "address"
        },
        {
          "indexed": true,
          "internalType": "address",
          "name": "spender",
          "type": "address"
        },
        {
          "indexed": true,
          "internalType": "uint256",
          "name": "id",
          "type": "uint256"
        }
      ],
      "name": "Approval",
      "type": "event"
    },
    {
      "anonymous": false,
      "inputs": [
        {
          "indexed": true,
          "internalType": "address",
          "name": "owner",
          "type": "address"
        },
        {
          "indexed": true,
          "internalType": "address",
          "name": "operator",
          "type": "address"
        },
        {
          "indexed": false,
          "internalType": "bool",
          "name": "approved",
          "type": "bool"
        }
      ],
      "name": "ApprovalForAll",
      "type": "event"
    },
    {
      "anonymous": false,
      "inputs": [
        {
          "indexed": true,
          "internalType": "address",
          "name": "previousOwner",
          "type": "address"
        },
        {
          "indexed": true,
          "internalType": "address",
          "name": "newOwner",
          "type": "address"
        }
      ],
      "name": "OwnershipTransferred",
      "type": "event"
    },
    {
      "anonymous": false,
      "inputs": [
        {
          "indexed": true,
          "internalType": "address",
          "name": "from",
          "type": "address"
        },
        {
          "indexed": true,
          "internalType": "address",
          "name": "to",
          "type": "address"
        },
        {
          "indexed": true,
          "internalType": "uint256",
          "name": "id",
          "type": "uint256"
        }
      ],
      "name": "Transfer",
      "type": "event"
    },
    {
      "inputs": [],
      "name": "MAX_SUPPLY",
      "outputs": [
        {
          "internalType": "uint16",
          "name": "",
          "type": "uint16"
        }
      ],
      "stateMutability": "view",
      "type": "function"
    },
    {
      "inputs": [],
      "name": "PUBLIC_MAX_MINT",
      "outputs": [
        {
          "internalType": "uint256",
          "name": "",
          "type": "uint256"
        }
      ],
      "stateMutability": "view",
      "type": "function"
    },
    {
      "inputs": [],
      "name": "WHITELIST_MAX_MINT",
      "outputs": [
        {
          "internalType": "uint256",
          "name": "",
          "type": "uint256"
        }
      ],
      "stateMutability": "view",
      "type": "function"
    },
    {
      "inputs": [],
      "name": "WHITELIST_SIGNER_ADDRESS",
      "outputs": [
        {
          "internalType": "address",
          "name": "",
          "type": "address"
        }
      ],
      "stateMutability": "view",
      "type": "function"
    },
    {
      "inputs": [],
      "name": "WITHDRAW_ADDRESS",
      "outputs": [
        {
          "internalType": "address",
          "name": "",
          "type": "address"
        }
      ],
      "stateMutability": "view",
      "type": "function"
    },
    {
      "inputs": [
        {
          "internalType": "address",
          "name": "spender",
          "type": "address"
        },
        {
          "internalType": "uint256",
          "name": "id",
          "type": "uint256"
        }
      ],
      "name": "approve",
      "outputs": [],
      "stateMutability": "nonpayable",
      "type": "function"
    },
    {
      "inputs": [],
      "name": "availableTokenCount",
      "outputs": [
        {
          "internalType": "uint256",
          "name": "",
          "type": "uint256"
        }
      ],
      "stateMutability": "view",
      "type": "function"
    },
    {
      "inputs": [
        {
          "internalType": "address",
          "name": "owner",
          "type": "address"
        }
      ],
      "name": "balanceOf",
      "outputs": [
        {
          "internalType": "uint256",
          "name": "",
          "type": "uint256"
        }
      ],
      "stateMutability": "view",
      "type": "function"
    },
    {
      "inputs": [],
      "name": "baseURI",
      "outputs": [
        {
          "internalType": "string",
          "name": "",
          "type": "string"
        }
      ],
      "stateMutability": "view",
      "type": "function"
    },
    {
      "inputs": [
        {
          "internalType": "uint256",
          "name": "",
          "type": "uint256"
        }
      ],
      "name": "getApproved",
      "outputs": [
        {
          "internalType": "address",
          "name": "",
          "type": "address"
        }
      ],
      "stateMutability": "view",
      "type": "function"
    },
    {
      "inputs": [
        {
          "internalType": "address",
          "name": "",
          "type": "address"
        },
        {
          "internalType": "address",
          "name": "",
          "type": "address"
        }
      ],
      "name": "isApprovedForAll",
      "outputs": [
        {
          "internalType": "bool",
          "name": "",
          "type": "bool"
        }
      ],
      "stateMutability": "view",
      "type": "function"
    },
    {
      "inputs": [],
      "name": "name",
      "outputs": [
        {
          "internalType": "string",
          "name": "",
          "type": "string"
        }
      ],
      "stateMutability": "view",
      "type": "function"
    },
    {
      "inputs": [],
      "name": "owner",
      "outputs": [
        {
          "internalType": "address",
          "name": "",
          "type": "address"
        }
      ],
      "stateMutability": "view",
      "type": "function"
    },
    {
      "inputs": [
        {
          "internalType": "uint256",
          "name": "id",
          "type": "uint256"
        }
      ],
      "name": "ownerOf",
      "outputs": [
        {
          "internalType": "address",
          "name": "owner",
          "type": "address"
        }
      ],
      "stateMutability": "view",
      "type": "function"
    },
    {
      "inputs": [
        {
          "internalType": "uint256",
          "name": "_amount",
          "type": "uint256"
        }
      ],
      "name": "publicMint",
      "outputs": [],
      "stateMutability": "payable",
      "type": "function"
    },
    {
      "inputs": [
        {
          "internalType": "address",
          "name": "",
          "type": "address"
        }
      ],
      "name": "publicMintCount",
      "outputs": [
        {
          "internalType": "uint256",
          "name": "",
          "type": "uint256"
        }
      ],
      "stateMutability": "view",
      "type": "function"
    },
    {
      "inputs": [],
      "name": "publicMintPrice",
      "outputs": [
        {
          "internalType": "uint256",
          "name": "",
          "type": "uint256"
        }
      ],
      "stateMutability": "view",
      "type": "function"
    },
    {
      "inputs": [],
      "name": "renounceOwnership",
      "outputs": [],
      "stateMutability": "nonpayable",
      "type": "function"
    },
    {
      "inputs": [
        {
          "internalType": "uint256",
          "name": "tokenId",
          "type": "uint256"
        },
        {
          "internalType": "uint256",
          "name": "salePrice",
          "type": "uint256"
        }
      ],
      "name": "royaltyInfo",
      "outputs": [
        {
          "internalType": "address",
          "name": "",
          "type": "address"
        },
        {
          "internalType": "uint256",
          "name": "",
          "type": "uint256"
        }
      ],
      "stateMutability": "view",
      "type": "function"
    },
    {
      "inputs": [
        {
          "internalType": "address",
          "name": "from",
          "type": "address"
        },
        {
          "internalType": "address",
          "name": "to",
          "type": "address"
        },
        {
          "internalType": "uint256",
          "name": "id",
          "type": "uint256"
        }
      ],
      "name": "safeTransferFrom",
      "outputs": [],
      "stateMutability": "nonpayable",
      "type": "function"
    },
    {
      "inputs": [
        {
          "internalType": "address",
          "name": "from",
          "type": "address"
        },
        {
          "internalType": "address",
          "name": "to",
          "type": "address"
        },
        {
          "internalType": "uint256",
          "name": "id",
          "type": "uint256"
        },
        {
          "internalType": "bytes",
          "name": "data",
          "type": "bytes"
        }
      ],
      "name": "safeTransferFrom",
      "outputs": [],
      "stateMutability": "nonpayable",
      "type": "function"
    },
    {
      "inputs": [
        {
          "internalType": "address",
          "name": "operator",
          "type": "address"
        },
        {
          "internalType": "bool",
          "name": "approved",
          "type": "bool"
        }
      ],
      "name": "setApprovalForAll",
      "outputs": [],
      "stateMutability": "nonpayable",
      "type": "function"
    },
    {
      "inputs": [
        {
          "internalType": "string",
          "name": "_baseURI_",
          "type": "string"
        }
      ],
      "name": "setBaseURI",
      "outputs": [],
      "stateMutability": "nonpayable",
      "type": "function"
    },
    {
      "inputs": [
        {
          "internalType": "address",
          "name": "receiver",
          "type": "address"
        },
        {
          "internalType": "uint96",
          "name": "feeNumerator",
          "type": "uint96"
        }
      ],
      "name": "setDefaultRoyalty",
      "outputs": [],
      "stateMutability": "nonpayable",
      "type": "function"
    },
    {
      "inputs": [
        {
          "internalType": "string",
          "name": "_newName",
          "type": "string"
        },
        {
          "internalType": "string",
          "name": "_newSymbol",
          "type": "string"
        }
      ],
      "name": "setNameAndSymbol",
      "outputs": [],
      "stateMutability": "nonpayable",
      "type": "function"
    },
    {
      "inputs": [
        {
          "internalType": "uint256",
          "name": "_publicMintPrice",
          "type": "uint256"
        }
      ],
      "name": "setPublicMintPrice",
      "outputs": [],
      "stateMutability": "nonpayable",
      "type": "function"
    },
    {
      "inputs": [
        {
          "internalType": "uint8",
          "name": "_newStage",
          "type": "uint8"
        }
      ],
      "name": "setStage",
      "outputs": [],
      "stateMutability": "nonpayable",
      "type": "function"
    },
    {
      "inputs": [
        {
          "internalType": "uint256",
          "name": "tokenId",
          "type": "uint256"
        },
        {
          "internalType": "address",
          "name": "receiver",
          "type": "address"
        },
        {
          "internalType": "uint96",
          "name": "feeNumerator",
          "type": "uint96"
        }
      ],
      "name": "setTokenRoyalty",
      "outputs": [],
      "stateMutability": "nonpayable",
      "type": "function"
    },
    {
      "inputs": [
        {
          "internalType": "uint256",
          "name": "_whitelistMintPrice",
          "type": "uint256"
        }
      ],
      "name": "setWhitelistMintPrice",
      "outputs": [],
      "stateMutability": "nonpayable",
      "type": "function"
    },
    {
      "inputs": [],
      "name": "stage",
      "outputs": [
        {
          "internalType": "uint8",
          "name": "",
          "type": "uint8"
        }
      ],
      "stateMutability": "view",
      "type": "function"
    },
    {
      "inputs": [
        {
          "internalType": "bytes4",
          "name": "interfaceId",
          "type": "bytes4"
        }
      ],
      "name": "supportsInterface",
      "outputs": [
        {
          "internalType": "bool",
          "name": "",
          "type": "bool"
        }
      ],
      "stateMutability": "view",
      "type": "function"
    },
    {
      "inputs": [],
      "name": "symbol",
      "outputs": [
        {
          "internalType": "string",
          "name": "",
          "type": "string"
        }
      ],
      "stateMutability": "view",
      "type": "function"
    },
    {
      "inputs": [],
      "name": "tokenCount",
      "outputs": [
        {
          "internalType": "uint256",
          "name": "",
          "type": "uint256"
        }
      ],
      "stateMutability": "view",
      "type": "function"
    },
    {
      "inputs": [
        {
          "internalType": "uint256",
          "name": "tokenId",
          "type": "uint256"
        }
      ],
      "name": "tokenURI",
      "outputs": [
        {
          "internalType": "string",
          "name": "",
          "type": "string"
        }
      ],
      "stateMutability": "view",
      "type": "function"
    },
    {
      "inputs": [],
      "name": "totalMaxSupply",
      "outputs": [
        {
          "internalType": "uint256",
          "name": "",
          "type": "uint256"
        }
      ],
      "stateMutability": "view",
      "type": "function"
    },
    {
      "inputs": [],
      "name": "totalSupply",
      "outputs": [
        {
          "internalType": "uint256",
          "name": "",
          "type": "uint256"
        }
      ],
      "stateMutability": "view",
      "type": "function"
    },
    {
      "inputs": [
        {
          "internalType": "address",
          "name": "from",
          "type": "address"
        },
        {
          "internalType": "address",
          "name": "to",
          "type": "address"
        },
        {
          "internalType": "uint256",
          "name": "id",
          "type": "uint256"
        }
      ],
      "name": "transferFrom",
      "outputs": [],
      "stateMutability": "nonpayable",
      "type": "function"
    },
    {
      "inputs": [
        {
          "internalType": "address",
          "name": "newOwner",
          "type": "address"
        }
      ],
      "name": "transferOwnership",
      "outputs": [],
      "stateMutability": "nonpayable",
      "type": "function"
    },
    {
      "inputs": [
        {
          "internalType": "uint256",
          "name": "_amount",
          "type": "uint256"
        },
        {
          "internalType": "bytes",
          "name": "nonce",
          "type": "bytes"
        },
        {
          "internalType": "bytes",
          "name": "signature",
          "type": "bytes"
        }
      ],
      "name": "whitelistMint",
      "outputs": [],
      "stateMutability": "payable",
      "type": "function"
    },
    {
      "inputs": [
        {
          "internalType": "address",
          "name": "",
          "type": "address"
        }
      ],
      "name": "whitelistMintCount",
      "outputs": [
        {
          "internalType": "uint256",
          "name": "",
          "type": "uint256"
        }
      ],
      "stateMutability": "view",
      "type": "function"
    },
    {
      "inputs": [],
      "name": "whitelistMintPrice",
      "outputs": [
        {
          "internalType": "uint256",
          "name": "",
          "type": "uint256"
        }
      ],
      "stateMutability": "view",
      "type": "function"
    },
    {
      "inputs": [],
      "name": "withdraw",
      "outputs": [],
      "stateMutability": "nonpayable",
      "type": "function"
    }
  ],
  "transactionHash": "0xa185427d650637dbb25c21600eef77ae8a1879aebafcecccdf04abff238614d0",
  "args": [
    "Mock Minion",
    "Minion",
    "https://testnet-api.argopetz.com/api/v1/argopetz/",
    8888,
    "0x865F4c222D7B23365C7Eb2F4f74d1a2533CD663E",
    "0x6A952f966c5DcC36A094c8AB141f027fb58F864e",
    9999,
    9999
  ],
  "numDeployments": 4,
  "solcInputHash": "5be582a253c3779acf87fe0bbf47b549",
  "bytecode": "0x610120604052670de0b6b3a764000061100f55671bc16d674ec80000611010553480156200002c57600080fd5b5060405162002f5438038062002f548339810160408190526200004f91620002a9565b61ffff85166006818a8a600062000067838262000414565b50600162000076828262000414565b505050600955600b55506200008b33620000e4565b61ffff85166080819052600c805461ffff60a01b1916600160a01b909202919091179055620000ba8662000136565b6001600160a01b0393841660e052919092166101005260c09190915260a05250620004e092505050565b600c80546001600160a01b038381166001600160a01b0319831681179093556040519116919082907f8be0079c531659141344cd1fd0a4f28419497f9722a3daafe3b4186f6b6457e090600090a35050565b6200014062000153565b6110126200014f828262000414565b5050565b600c546001600160a01b03163314620001b25760405162461bcd60e51b815260206004820181905260248201527f4f776e61626c653a2063616c6c6572206973206e6f7420746865206f776e6572604482015260640160405180910390fd5b565b634e487b7160e01b600052604160045260246000fd5b600082601f830112620001dc57600080fd5b81516001600160401b0380821115620001f957620001f9620001b4565b604051601f8301601f19908116603f01168101908282118183101715620002245762000224620001b4565b816040528381526020925086838588010111156200024157600080fd5b600091505b8382101562000265578582018301518183018401529082019062000246565b600093810190920192909252949350505050565b805161ffff811681146200028c57600080fd5b919050565b80516001600160a01b03811681146200028c57600080fd5b600080600080600080600080610100898b031215620002c757600080fd5b88516001600160401b0380821115620002df57600080fd5b620002ed8c838d01620001ca565b995060208b01519150808211156200030457600080fd5b620003128c838d01620001ca565b985060408b01519150808211156200032957600080fd5b50620003388b828c01620001ca565b9650506200034960608a0162000279565b94506200035960808a0162000291565b93506200036960a08a0162000291565b60c08a015160e0909a0151989b979a5095989497939692505050565b600181811c908216806200039a57607f821691505b602082108103620003bb57634e487b7160e01b600052602260045260246000fd5b50919050565b601f8211156200040f57600081815260208120601f850160051c81016020861015620003ea5750805b601f850160051c820191505b818110156200040b57828155600101620003f6565b5050505b505050565b81516001600160401b03811115620004305762000430620001b4565b620004488162000441845462000385565b84620003c1565b602080601f831160018114620004805760008415620004675750858301515b600019600386901b1c1916600185901b1785556200040b565b600085815260208120601f198616915b82811015620004b15788860151825594840194600190910190840162000490565b5085821015620004d05787850151600019600388901b60f8161c191681555b5050505050600190811b01905550565b60805160a05160c05160e051610100516129fe6200055660003960008181610681015261183601526000818161034f01526111450152600081816107090152610d410152600081816106d5015261105201526000818161042b015281816109da01528181610c960152610fa501526129fe6000f3fe6080604052600436106102515760003560e01c80636c0360eb11610139578063a611708e116100b6578063c87b56dd1161007a578063c87b56dd14610778578063ce3cd99714610798578063dc53fd92146107b8578063e14ca353146107cf578063e985e9c5146107e4578063f2fde38b1461081f57600080fd5b8063a611708e146106a3578063a7346780146106c3578063aeb16768146106f7578063b88d4fde1461072b578063c040e6b81461074b57600080fd5b806396330b5f116100fd57806396330b5f146105f75780639f181b5e14610625578063a0617ad01461063a578063a22cb4651461064f578063a591c4cb1461066f57600080fd5b80636c0360eb1461057a57806370a082311461058f578063715018a6146105af5780638da5cb5b146105c457806395d89b41146105e257600080fd5b80632db11544116101d257806342842e0e1161019657806342842e0e146104ba57806355f804b3146104da5780635944c753146104fa5780635a4462151461051a5780635d82cf6e1461053a5780636352211e1461055a57600080fd5b80632db115441461040657806332cb6b0c1461041957806335c6aaf8146104605780633bdf4ac6146104775780633ccfd60b146104a557600080fd5b8063122e04a811610219578063122e04a81461033d57806318160ddd1461037157806323b872dd1461039457806324436f77146103b45780632a55205a146103c757600080fd5b806301ffc9a71461025657806304634d8d1461028b57806306fdde03146102ad578063081812fc146102cf578063095ea7b31461031d575b600080fd5b34801561026257600080fd5b506102766102713660046120f8565b61083f565b60405190151581526020015b60405180910390f35b34801561029757600080fd5b506102ab6102a636600461214a565b61085f565b005b3480156102b957600080fd5b506102c2610875565b60405161028291906121a1565b3480156102db57600080fd5b506103056102ea3660046121d4565b6004602052600090815260409020546001600160a01b031681565b6040516001600160a01b039091168152602001610282565b34801561032957600080fd5b506102ab6103383660046121ed565b610903565b34801561034957600080fd5b506103057f000000000000000000000000000000000000000000000000000000000000000081565b34801561037d57600080fd5b506103866109c8565b604051908152602001610282565b3480156103a057600080fd5b506102ab6103af366004612217565b6109fe565b6102ab6103c2366004612295565b610b6b565b3480156103d357600080fd5b506103e76103e236600461230f565b610e43565b604080516001600160a01b039093168352602083019190915201610282565b6102ab6104143660046121d4565b610ef1565b34801561042557600080fd5b5061044d7f000000000000000000000000000000000000000000000000000000000000000081565b60405161ffff9091168152602001610282565b34801561046c57600080fd5b5061038661100f5481565b34801561048357600080fd5b50610386610492366004612331565b61100d6020526000908152604090205481565b3480156104b157600080fd5b506102ab611141565b3480156104c657600080fd5b506102ab6104d5366004612217565b6111d8565b3480156104e657600080fd5b506102ab6104f5366004612362565b6112ab565b34801561050657600080fd5b506102ab610515366004612413565b6112c0565b34801561052657600080fd5b506102ab61053536600461244f565b6112d3565b34801561054657600080fd5b506102ab6105553660046121d4565b6112fd565b34801561056657600080fd5b506103056105753660046121d4565b61130b565b34801561058657600080fd5b506102c2611346565b34801561059b57600080fd5b506103866105aa366004612331565b611354565b3480156105bb57600080fd5b506102ab611399565b3480156105d057600080fd5b50600c546001600160a01b0316610305565b3480156105ee57600080fd5b506102c26113ad565b34801561060357600080fd5b50610386610612366004612331565b61100e6020526000908152604090205481565b34801561063157600080fd5b506103866113ba565b34801561064657600080fd5b50600954610386565b34801561065b57600080fd5b506102ab61066a3660046124bb565b6113ca565b34801561067b57600080fd5b506103057f000000000000000000000000000000000000000000000000000000000000000081565b3480156106af57600080fd5b506102ab6106be3660046121d4565b611436565b3480156106cf57600080fd5b506103867f000000000000000000000000000000000000000000000000000000000000000081565b34801561070357600080fd5b506103867f000000000000000000000000000000000000000000000000000000000000000081565b34801561073757600080fd5b506102ab6107463660046124f7565b611444565b34801561075757600080fd5b50611011546107669060ff1681565b60405160ff9091168152602001610282565b34801561078457600080fd5b506102c26107933660046121d4565b611500565b3480156107a457600080fd5b506102ab6107b3366004612555565b61156b565b3480156107c457600080fd5b506103866110105481565b3480156107db57600080fd5b5061038661158a565b3480156107f057600080fd5b506102766107ff366004612578565b600560209081526000928352604080842090915290825290205460ff1681565b34801561082b57600080fd5b506102ab61083a366004612331565b6115a1565b600061084a82611617565b80610859575061085982611665565b92915050565b61086761169a565b61087182826116f4565b5050565b60008054610882906125a2565b80601f01602080910402602001604051908101604052809291908181526020018280546108ae906125a2565b80156108fb5780601f106108d0576101008083540402835291602001916108fb565b820191906000526020600020905b8154815290600101906020018083116108de57829003601f168201915b505050505081565b6000818152600260205260409020546001600160a01b031633811480159061094f57506001600160a01b038116600090815260056020908152604080832033845290915290205460ff16155b1561096c576040516282b42960e81b815260040160405180910390fd5b60008281526004602052604080822080546001600160a01b0319166001600160a01b0387811691821790925591518593918516917f8c5be1e5ebec7d5bd14f71427d1e84f3dd0314c0f7b2291e5b200ac8c7c3b92591a4505050565b600c5461ffff600160a01b90910481167f0000000000000000000000000000000000000000000000000000000000000000031690565b6000818152600260205260409020546001600160a01b03848116911614610a385760405163c6de3f2560e01b815260040160405180910390fd5b6001600160a01b038216610a5f57604051634e46966960e11b815260040160405180910390fd5b336001600160a01b03841614801590610a9c57506001600160a01b038316600090815260056020908152604080832033845290915290205460ff16155b8015610abf57506000818152600460205260409020546001600160a01b03163314155b15610adc576040516282b42960e81b815260040160405180910390fd5b6001600160a01b0380841660008181526003602090815260408083208054600019019055938616808352848320805460010190558583526002825284832080546001600160a01b03199081168317909155600490925284832080549092169091559251849392917fddf252ad1be2c89b69c2b068fc378daa952ba7f163c4a11628f55a4df523b3ef91a4505050565b61101154610b85903390869086908690869060ff166117ae565b610bd65760405162461bcd60e51b815260206004820152601c60248201527f4172676f5065747a3a20496e76616c6964205369676e6174757265210000000060448201526064015b60405180910390fd5b6110115460ff16600114610c385760405162461bcd60e51b8152602060048201526024808201527f4172676f5065747a3a2057686974656c697374204d696e74206973206e6f742060448201526337b832b760e11b6064820152608401610bcd565b61100f54610c4690866125f2565b3414610c945760405162461bcd60e51b815260206004820152601b60248201527f4172676f5065747a3a20496e73756666696369656e742043524f2100000000006044820152606401610bcd565b7f000000000000000000000000000000000000000000000000000000000000000061ffff1685610cc26109c8565b610ccc9190612609565b1115610d2e5760405162461bcd60e51b815260206004820152602b60248201527f4172676f5065747a3a204578636565646564204d617820537570706c7920666f60448201526a72204172676f5065747a2160a81b6064820152608401610bcd565b33600090815261100d60205260409020547f000000000000000000000000000000000000000000000000000000000000000090610d6c908790612609565b1115610deb5760405162461bcd60e51b815260206004820152604260248201527f4172676f5065747a3a2057616c6c65742068617320616c7265616479206d696e60448201527f746564204d617820416d6f756e7420666f722057686974656c697374204d696e606482015261742160f01b608482015260a401610bcd565b33600090815261100d602052604081208054879290610e0b908490612609565b90915550600090505b85811015610e3b576000610e2661186c565b9050610e323382611a05565b50600101610e14565b505050505050565b60008281526007602090815260408083208151808301909252546001600160a01b038116808352600160a01b9091046001600160601b0316928201929092528291610eb85750604080518082019091526006546001600160a01b0381168252600160a01b90046001600160601b031660208201525b602081015160009061271090610ed7906001600160601b0316876125f2565b610ee19190612632565b91519350909150505b9250929050565b6110115460ff16600214610f475760405162461bcd60e51b815260206004820152601d60248201527f4172676f5065747a3a205075626c69632053616c6520436c6f736564210000006044820152606401610bcd565b61101054610f5590826125f2565b3414610fa35760405162461bcd60e51b815260206004820152601b60248201527f4172676f5065747a3a20496e73756666696369656e742043524f2100000000006044820152606401610bcd565b7f000000000000000000000000000000000000000000000000000000000000000061ffff1681610fd16109c8565b610fdb9190612609565b111561103f5760405162461bcd60e51b815260206004820152602d60248201527f4172676f5065747a3a204d617820537570706c7920666f72205075626c69632060448201526c4d696e7420526561636865642160981b6064820152608401610bcd565b33600090815261100e60205260409020547f00000000000000000000000000000000000000000000000000000000000000009061107d908390612609565b11156110f15760405162461bcd60e51b815260206004820152603f60248201527f4172676f5065747a3a2057616c6c65742068617320616c7265616479206d696e60448201527f746564204d617820416d6f756e7420666f72205075626c6963204d696e7421006064820152608401610bcd565b33600090815261100e602052604081208054839290611111908490612609565b90915550600090505b8181101561087157600061112c61186c565b90506111383382611a05565b5060010161111a565b60007f00000000000000000000000000000000000000000000000000000000000000006001600160a01b03164760405160006040518083038185875af1925050503d80600081146111ae576040519150601f19603f3d011682016040523d82523d6000602084013e6111b3565b606091505b50509050806111d557604051631d42c86760e21b815260040160405180910390fd5b50565b6111e38383836109fe565b6001600160a01b0382163b156112a657604051630a85bd0160e11b8082523360048301526001600160a01b03858116602484015260448301849052608060648401526000608484015290919084169063150b7a029060a4016020604051808303816000875af115801561125a573d6000803e3d6000fd5b505050506040513d601f19601f8201168201806040525081019061127e9190612646565b6001600160e01b031916146112a657604051633da6393160e01b815260040160405180910390fd5b505050565b6112b361169a565b61101261087182826126a9565b6112c861169a565b6112a6838383611acf565b6112db61169a565b60006112e8848683612769565b5060016112f6828483612769565b5050505050565b61130561169a565b61101055565b6000818152600260205260409020546001600160a01b03168061134157604051634d5e5fb360e01b815260040160405180910390fd5b919050565b6110128054610882906125a2565b60006001600160a01b03821661137d5760405163d92e233d60e01b815260040160405180910390fd5b506001600160a01b031660009081526003602052604090205490565b6113a161169a565b6113ab6000611b9a565b565b60018054610882906125a2565b60006113c560085490565b905090565b3360008181526005602090815260408083206001600160a01b03871680855290835292819020805460ff191686151590811790915590519081529192917f17307eab39ab6107e8899845ad3d59bd9653f200f220920489ca2b5937696c31910160405180910390a35050565b61143e61169a565b61100f55565b61144f8585856109fe565b6001600160a01b0384163b156112f657604051630a85bd0160e11b808252906001600160a01b0386169063150b7a02906114959033908a90899089908990600401612829565b6020604051808303816000875af11580156114b4573d6000803e3d6000fd5b505050506040513d601f19601f820116820180604052508101906114d89190612646565b6001600160e01b031916146112f657604051633da6393160e01b815260040160405180910390fd5b6000818152600260205260409020546060906001600160a01b0316611538576040516307ed98ed60e31b815260040160405180910390fd5b61101261154483611bec565b60405160200161155592919061287d565b6040516020818303038152906040529050919050565b61157361169a565b611011805460ff191660ff92909216919091179055565b60006115946113ba565b6009546113c59190612904565b6115a961169a565b6001600160a01b03811661160e5760405162461bcd60e51b815260206004820152602660248201527f4f776e61626c653a206e6577206f776e657220697320746865207a65726f206160448201526564647265737360d01b6064820152608401610bcd565b6111d581611b9a565b60006301ffc9a760e01b6001600160e01b03198316148061164857506380ac58cd60e01b6001600160e01b03198316145b806108595750506001600160e01b031916635b5e139f60e01b1490565b60006001600160e01b0319821663152a902d60e11b148061085957506301ffc9a760e01b6001600160e01b0319831614610859565b600c546001600160a01b031633146113ab5760405162461bcd60e51b815260206004820181905260248201527f4f776e61626c653a2063616c6c6572206973206e6f7420746865206f776e65726044820152606401610bcd565b6127106001600160601b038216111561171f5760405162461bcd60e51b8152600401610bcd90612917565b6001600160a01b0382166117755760405162461bcd60e51b815260206004820152601960248201527f455243323938313a20696e76616c6964207265636569766572000000000000006044820152606401610bcd565b604080518082019091526001600160a01b039092168083526001600160601b039091166020909201829052600160a01b90910217600655565b600080878787856040516020016117c89493929190612961565b60405160208183030381529060405280519060200120905061182b85858080601f0160208091040260200160405190810160405280939291908181526020018383808284376000920191909152506118259250859150611c7f9050565b90611cb2565b6001600160a01b03167f00000000000000000000000000000000000000000000000000000000000000006001600160a01b0316149150509695505050505050565b60008061187761158a565b116118c45760405162461bcd60e51b815260206004820152601860248201527f4e6f206d6f726520746f6b656e7320617661696c61626c6500000000000000006044820152606401610bcd565b60006118ce6113ba565b6009546118db9190612904565b6040516bffffffffffffffffffffffff1933606090811b8216602084015241901b166034820152446048820152456068820152426088820152909150600090829060a8016040516020818303038152906040528051906020012060001c611942919061299e565b6000818152600a6020526040812054919250908103611962575080611973565b506000818152600a60205260409020545b600a6000611982600186612904565b8152602001908152602001600020546000036119b7576119a3600184612904565b6000838152600a60205260409020556119e7565b600a60006119c6600186612904565b81526020808201929092526040908101600090812054858252600a90935220555b6119ef611cd6565b50600b546119fd9082612609565b935050505090565b611a0f8282611cf2565b6001600160a01b0382163b1561087157604051630a85bd0160e11b80825233600483015260006024830181905260448301849052608060648401526084830152906001600160a01b0384169063150b7a029060a4016020604051808303816000875af1158015611a83573d6000803e3d6000fd5b505050506040513d601f19601f82011682018060405250810190611aa79190612646565b6001600160e01b0319161461087157604051633da6393160e01b815260040160405180910390fd5b6127106001600160601b0382161115611afa5760405162461bcd60e51b8152600401610bcd90612917565b6001600160a01b038216611b505760405162461bcd60e51b815260206004820152601b60248201527f455243323938313a20496e76616c696420706172616d657465727300000000006044820152606401610bcd565b6040805180820182526001600160a01b0393841681526001600160601b0392831660208083019182526000968752600790529190942093519051909116600160a01b029116179055565b600c80546001600160a01b038381166001600160a01b0319831681179093556040519116919082907f8be0079c531659141344cd1fd0a4f28419497f9722a3daafe3b4186f6b6457e090600090a35050565b60606000611bf983611dba565b600101905060008167ffffffffffffffff811115611c1957611c1961234c565b6040519080825280601f01601f191660200182016040528015611c43576020820181803683370190505b5090508181016020015b600019016f181899199a1a9b1b9c1cb0b131b232b360811b600a86061a8153600a8504945084611c4d57509392505050565b7f19457468657265756d205369676e6564204d6573736167653a0a3332000000006000908152601c91909152603c902090565b6000806000611cc18585611e92565b91509150611cce81611ed4565b509392505050565b600080611ce260085490565b9050611341600880546001019055565b6001600160a01b038216611d1957604051634e46966960e11b815260040160405180910390fd5b6000818152600260205260409020546001600160a01b031615611d4f57604051631bbdf5c560e31b815260040160405180910390fd5b6001600160a01b038216600081815260036020908152604080832080546001019055848352600290915280822080546001600160a01b0319168417905551839291907fddf252ad1be2c89b69c2b068fc378daa952ba7f163c4a11628f55a4df523b3ef908290a45050565b60008072184f03e93ff9f4daa797ed6e38ed64bf6a1f0160401b8310611df95772184f03e93ff9f4daa797ed6e38ed64bf6a1f0160401b830492506040015b6d04ee2d6d415b85acef81000000008310611e25576d04ee2d6d415b85acef8100000000830492506020015b662386f26fc100008310611e4357662386f26fc10000830492506010015b6305f5e1008310611e5b576305f5e100830492506008015b6127108310611e6f57612710830492506004015b60648310611e81576064830492506002015b600a83106108595760010192915050565b6000808251604103611ec85760208301516040840151606085015160001a611ebc8782858561201e565b94509450505050610eea565b50600090506002610eea565b6000816004811115611ee857611ee86129b2565b03611ef05750565b6001816004811115611f0457611f046129b2565b03611f515760405162461bcd60e51b815260206004820152601860248201527f45434453413a20696e76616c6964207369676e617475726500000000000000006044820152606401610bcd565b6002816004811115611f6557611f656129b2565b03611fb25760405162461bcd60e51b815260206004820152601f60248201527f45434453413a20696e76616c6964207369676e6174757265206c656e677468006044820152606401610bcd565b6003816004811115611fc657611fc66129b2565b036111d55760405162461bcd60e51b815260206004820152602260248201527f45434453413a20696e76616c6964207369676e6174757265202773272076616c604482015261756560f01b6064820152608401610bcd565b6000807f7fffffffffffffffffffffffffffffff5d576e7357a4501ddfe92f46681b20a083111561205557506000905060036120d9565b6040805160008082526020820180845289905260ff881692820192909252606081018690526080810185905260019060a0016020604051602081039080840390855afa1580156120a9573d6000803e3d6000fd5b5050604051601f1901519150506001600160a01b0381166120d2576000600192509250506120d9565b9150600090505b94509492505050565b6001600160e01b0319811681146111d557600080fd5b60006020828403121561210a57600080fd5b8135612115816120e2565b9392505050565b80356001600160a01b038116811461134157600080fd5b80356001600160601b038116811461134157600080fd5b6000806040838503121561215d57600080fd5b6121668361211c565b915061217460208401612133565b90509250929050565b60005b83811015612198578181015183820152602001612180565b50506000910152565b60208152600082518060208401526121c081604085016020870161217d565b601f01601f19169190910160400192915050565b6000602082840312156121e657600080fd5b5035919050565b6000806040838503121561220057600080fd5b6122098361211c565b946020939093013593505050565b60008060006060848603121561222c57600080fd5b6122358461211c565b92506122436020850161211c565b9150604084013590509250925092565b60008083601f84011261226557600080fd5b50813567ffffffffffffffff81111561227d57600080fd5b602083019150836020828501011115610eea57600080fd5b6000806000806000606086880312156122ad57600080fd5b85359450602086013567ffffffffffffffff808211156122cc57600080fd5b6122d889838a01612253565b909650945060408801359150808211156122f157600080fd5b506122fe88828901612253565b969995985093965092949392505050565b6000806040838503121561232257600080fd5b50508035926020909101359150565b60006020828403121561234357600080fd5b6121158261211c565b634e487b7160e01b600052604160045260246000fd5b60006020828403121561237457600080fd5b813567ffffffffffffffff8082111561238c57600080fd5b818401915084601f8301126123a057600080fd5b8135818111156123b2576123b261234c565b604051601f8201601f19908116603f011681019083821181831017156123da576123da61234c565b816040528281528760208487010111156123f357600080fd5b826020860160208301376000928101602001929092525095945050505050565b60008060006060848603121561242857600080fd5b833592506124386020850161211c565b915061244660408501612133565b90509250925092565b6000806000806040858703121561246557600080fd5b843567ffffffffffffffff8082111561247d57600080fd5b61248988838901612253565b909650945060208701359150808211156124a257600080fd5b506124af87828801612253565b95989497509550505050565b600080604083850312156124ce57600080fd5b6124d78361211c565b9150602083013580151581146124ec57600080fd5b809150509250929050565b60008060008060006080868803121561250f57600080fd5b6125188661211c565b94506125266020870161211c565b935060408601359250606086013567ffffffffffffffff81111561254957600080fd5b6122fe88828901612253565b60006020828403121561256757600080fd5b813560ff8116811461211557600080fd5b6000806040838503121561258b57600080fd5b6125948361211c565b91506121746020840161211c565b600181811c908216806125b657607f821691505b6020821081036125d657634e487b7160e01b600052602260045260246000fd5b50919050565b634e487b7160e01b600052601160045260246000fd5b8082028115828204841417610859576108596125dc565b80820180821115610859576108596125dc565b634e487b7160e01b600052601260045260246000fd5b6000826126415761264161261c565b500490565b60006020828403121561265857600080fd5b8151612115816120e2565b601f8211156112a657600081815260208120601f850160051c8101602086101561268a5750805b601f850160051c820191505b81811015610e3b57828155600101612696565b815167ffffffffffffffff8111156126c3576126c361234c565b6126d7816126d184546125a2565b84612663565b602080601f83116001811461270c57600084156126f45750858301515b600019600386901b1c1916600185901b178555610e3b565b600085815260208120601f198616915b8281101561273b5788860151825594840194600190910190840161271c565b50858210156127595787850151600019600388901b60f8161c191681555b5050505050600190811b01905550565b67ffffffffffffffff8311156127815761278161234c565b6127958361278f83546125a2565b83612663565b6000601f8411600181146127c957600085156127b15750838201355b600019600387901b1c1916600186901b1783556112f6565b600083815260209020601f19861690835b828110156127fa57868501358255602094850194600190920191016127da565b50868210156128175760001960f88860031b161c19848701351681555b505060018560011b0183555050505050565b6001600160a01b038681168252851660208201526040810184905260806060820181905281018290526000828460a0840137600060a0848401015260a0601f19601f85011683010190509695505050505050565b600080845461288b816125a2565b600182811680156128a357600181146128b8576128e7565b60ff19841687528215158302870194506128e7565b8860005260208060002060005b858110156128de5781548a8201529084019082016128c5565b50505082870194505b5050505083516128fb81836020880161217d565b01949350505050565b81810381811115610859576108596125dc565b6020808252602a908201527f455243323938313a20726f79616c7479206665652077696c6c206578636565646040820152692073616c65507269636560b01b606082015260800190565b6001600160601b03198560601b1681528284601483013760f89190911b6001600160f81b0319166014919092019081019190915260150192915050565b6000826129ad576129ad61261c565b500690565b634e487b7160e01b600052602160045260246000fdfea2646970667358221220d31e22489f0e807c6d39b162c22f27ad282b1551cabb1a835516b75bb829d1f764736f6c63430008120033",
  "devdoc": {
    "kind": "dev",
    "methods": {
      "availableTokenCount()": {
        "details": "Check whether tokens are still available",
        "returns": {
          "_0": "the available token count"
        }
      },
      "owner()": {
        "details": "Returns the address of the current owner."
      },
      "renounceOwnership()": {
        "details": "Leaves the contract without owner. It will not be possible to call `onlyOwner` functions. Can only be called by the current owner. NOTE: Renouncing ownership will leave the contract without an owner, thereby disabling any functionality that is only available to the owner."
      },
      "royaltyInfo(uint256,uint256)": {
        "details": "Returns how much royalty is owed and to whom, based on a sale price that may be denominated in any unit of exchange. The royalty amount is denominated and should be paid in that same unit of exchange."
      },
      "tokenCount()": {
        "details": "Get the current token count",
        "returns": {
          "_0": "the created token count"
        }
      },
      "totalMaxSupply()": {
        "details": "Get the max Supply",
        "returns": {
          "_0": "the maximum token count"
        }
      },
      "transferOwnership(address)": {
        "details": "Transfers ownership of the contract to a new account (`newOwner`). Can only be called by the current owner."
      }
    },
    "version": 1
  },
  "userdoc": {
    "errors": {
      "NotMinted()": [
        {
          "notice": "----------------------------------------------------------------------- Custom Errors -----------------------------------------------------------------------"
        }
      ]
    },
    "events": {
      "Transfer(address,address,uint256)": {
        "notice": "----------------------------------------------------------------------- Events -----------------------------------------------------------------------"
      }
    },
    "kind": "user",
    "methods": {
      "approve(address,uint256)": {
        "notice": "----------------------------------------------------------------------- ERC721 Logic -----------------------------------------------------------------------"
      },
      "getApproved(uint256)": {
        "notice": "----------------------------------------------------------------------- ERC721 Approval Storage -----------------------------------------------------------------------"
      },
      "name()": {
        "notice": "----------------------------------------------------------------------- Metadata Storage/Logic -----------------------------------------------------------------------"
      }
    },
    "version": 1
  },
  "storageLayout": {
    "storage": [
      {
        "astId": 2580,
        "contract": "contracts/ArgoPetz.sol:ArgoPetz",
        "label": "name",
        "offset": 0,
        "slot": "0",
        "type": "t_string_storage"
      },
      {
        "astId": 2582,
        "contract": "contracts/ArgoPetz.sol:ArgoPetz",
        "label": "symbol",
        "offset": 0,
        "slot": "1",
        "type": "t_string_storage"
      },
      {
        "astId": 2594,
        "contract": "contracts/ArgoPetz.sol:ArgoPetz",
        "label": "_ownerOf",
        "offset": 0,
        "slot": "2",
        "type": "t_mapping(t_uint256,t_address)"
      },
      {
        "astId": 2598,
        "contract": "contracts/ArgoPetz.sol:ArgoPetz",
        "label": "_balanceOf",
        "offset": 0,
        "slot": "3",
        "type": "t_mapping(t_address,t_uint256)"
      },
      {
        "astId": 2648,
        "contract": "contracts/ArgoPetz.sol:ArgoPetz",
        "label": "getApproved",
        "offset": 0,
        "slot": "4",
        "type": "t_mapping(t_uint256,t_address)"
      },
      {
        "astId": 2654,
        "contract": "contracts/ArgoPetz.sol:ArgoPetz",
        "label": "isApprovedForAll",
        "offset": 0,
        "slot": "5",
        "type": "t_mapping(t_address,t_mapping(t_address,t_bool))"
      },
      {
        "astId": 148,
        "contract": "contracts/ArgoPetz.sol:ArgoPetz",
        "label": "_defaultRoyaltyInfo",
        "offset": 0,
        "slot": "6",
        "type": "t_struct(RoyaltyInfo)145_storage"
      },
      {
        "astId": 153,
        "contract": "contracts/ArgoPetz.sol:ArgoPetz",
        "label": "_tokenRoyaltyInfo",
        "offset": 0,
        "slot": "7",
        "type": "t_mapping(t_uint256,t_struct(RoyaltyInfo)145_storage)"
      },
      {
        "astId": 3268,
        "contract": "contracts/ArgoPetz.sol:ArgoPetz",
        "label": "_tokenCount",
        "offset": 0,
        "slot": "8",
        "type": "t_struct(Counter)357_storage"
      },
      {
        "astId": 3271,
        "contract": "contracts/ArgoPetz.sol:ArgoPetz",
        "label": "_totalMaxSupply",
        "offset": 0,
        "slot": "9",
        "type": "t_uint256"
      },
      {
        "astId": 3138,
        "contract": "contracts/ArgoPetz.sol:ArgoPetz",
        "label": "tokenMatrix",
        "offset": 0,
        "slot": "10",
        "type": "t_mapping(t_uint256,t_uint256)"
      },
      {
        "astId": 3140,
        "contract": "contracts/ArgoPetz.sol:ArgoPetz",
        "label": "startFrom",
        "offset": 0,
        "slot": "11",
        "type": "t_uint256"
      },
      {
        "astId": 7,
        "contract": "contracts/ArgoPetz.sol:ArgoPetz",
        "label": "_owner",
        "offset": 0,
        "slot": "12",
        "type": "t_address"
      },
      {
        "astId": 2059,
        "contract": "contracts/ArgoPetz.sol:ArgoPetz",
        "label": "_numAvailableRemainingTokens",
        "offset": 20,
        "slot": "12",
        "type": "t_uint16"
      },
      {
        "astId": 2063,
        "contract": "contracts/ArgoPetz.sol:ArgoPetz",
        "label": "_availableRemainingTokens",
        "offset": 0,
        "slot": "13",
        "type": "t_array(t_uint16)65536_storage"
      },
      {
        "astId": 2075,
        "contract": "contracts/ArgoPetz.sol:ArgoPetz",
        "label": "whitelistMintCount",
        "offset": 0,
        "slot": "4109",
        "type": "t_mapping(t_address,t_uint256)"
      },
      {
        "astId": 2079,
        "contract": "contracts/ArgoPetz.sol:ArgoPetz",
        "label": "publicMintCount",
        "offset": 0,
        "slot": "4110",
        "type": "t_mapping(t_address,t_uint256)"
      },
      {
        "astId": 2082,
        "contract": "contracts/ArgoPetz.sol:ArgoPetz",
        "label": "whitelistMintPrice",
        "offset": 0,
        "slot": "4111",
        "type": "t_uint256"
      },
      {
        "astId": 2085,
        "contract": "contracts/ArgoPetz.sol:ArgoPetz",
        "label": "publicMintPrice",
        "offset": 0,
        "slot": "4112",
        "type": "t_uint256"
      },
      {
        "astId": 2087,
        "contract": "contracts/ArgoPetz.sol:ArgoPetz",
        "label": "stage",
        "offset": 0,
        "slot": "4113",
        "type": "t_uint8"
      },
      {
        "astId": 2089,
        "contract": "contracts/ArgoPetz.sol:ArgoPetz",
        "label": "baseURI",
        "offset": 0,
        "slot": "4114",
        "type": "t_string_storage"
      }
    ],
    "types": {
      "t_address": {
        "encoding": "inplace",
        "label": "address",
        "numberOfBytes": "20"
      },
      "t_array(t_uint16)65536_storage": {
        "base": "t_uint16",
        "encoding": "inplace",
        "label": "uint16[65536]",
        "numberOfBytes": "131072"
      },
      "t_bool": {
        "encoding": "inplace",
        "label": "bool",
        "numberOfBytes": "1"
      },
      "t_mapping(t_address,t_bool)": {
        "encoding": "mapping",
        "key": "t_address",
        "label": "mapping(address => bool)",
        "numberOfBytes": "32",
        "value": "t_bool"
      },
      "t_mapping(t_address,t_mapping(t_address,t_bool))": {
        "encoding": "mapping",
        "key": "t_address",
        "label": "mapping(address => mapping(address => bool))",
        "numberOfBytes": "32",
        "value": "t_mapping(t_address,t_bool)"
      },
      "t_mapping(t_address,t_uint256)": {
        "encoding": "mapping",
        "key": "t_address",
        "label": "mapping(address => uint256)",
        "numberOfBytes": "32",
        "value": "t_uint256"
      },
      "t_mapping(t_uint256,t_address)": {
        "encoding": "mapping",
        "key": "t_uint256",
        "label": "mapping(uint256 => address)",
        "numberOfBytes": "32",
        "value": "t_address"
      },
      "t_mapping(t_uint256,t_struct(RoyaltyInfo)145_storage)": {
        "encoding": "mapping",
        "key": "t_uint256",
        "label": "mapping(uint256 => struct ERC2981.RoyaltyInfo)",
        "numberOfBytes": "32",
        "value": "t_struct(RoyaltyInfo)145_storage"
      },
      "t_mapping(t_uint256,t_uint256)": {
        "encoding": "mapping",
        "key": "t_uint256",
        "label": "mapping(uint256 => uint256)",
        "numberOfBytes": "32",
        "value": "t_uint256"
      },
      "t_string_storage": {
        "encoding": "bytes",
        "label": "string",
        "numberOfBytes": "32"
      },
      "t_struct(Counter)357_storage": {
        "encoding": "inplace",
        "label": "struct Counters.Counter",
        "members": [
          {
            "astId": 356,
            "contract": "contracts/ArgoPetz.sol:ArgoPetz",
            "label": "_value",
            "offset": 0,
            "slot": "0",
            "type": "t_uint256"
          }
        ],
        "numberOfBytes": "32"
      },
      "t_struct(RoyaltyInfo)145_storage": {
        "encoding": "inplace",
        "label": "struct ERC2981.RoyaltyInfo",
        "members": [
          {
            "astId": 142,
            "contract": "contracts/ArgoPetz.sol:ArgoPetz",
            "label": "receiver",
            "offset": 0,
            "slot": "0",
            "type": "t_address"
          },
          {
            "astId": 144,
            "contract": "contracts/ArgoPetz.sol:ArgoPetz",
            "label": "royaltyFraction",
            "offset": 20,
            "slot": "0",
            "type": "t_uint96"
          }
        ],
        "numberOfBytes": "32"
      },
      "t_uint16": {
        "encoding": "inplace",
        "label": "uint16",
        "numberOfBytes": "2"
      },
      "t_uint256": {
        "encoding": "inplace",
        "label": "uint256",
        "numberOfBytes": "32"
      },
      "t_uint8": {
        "encoding": "inplace",
        "label": "uint8",
        "numberOfBytes": "1"
      },
      "t_uint96": {
        "encoding": "inplace",
        "label": "uint96",
        "numberOfBytes": "12"
      }
    }
  }
}