{
  "address": "0x61303936E734cd87DDBBC5B677B7b3097b91a11d",
  "abi": [
    {
      "inputs": [
        {
          "internalType": "address",
          "name": "_argonauts",
          "type": "address"
        },
        {
          "internalType": "address",
          "name": "_argopetz",
          "type": "address"
        }
      ],
      "stateMutability": "nonpayable",
      "type": "constructor"
    },
    {
      "anonymous": false,
      "inputs": [
        {
          "indexed": true,
          "internalType": "address",
          "name": "previousOwner",
          "type": "address"
        },
        {
          "indexed": true,
          "internalType": "address",
          "name": "newOwner",
          "type": "address"
        }
      ],
      "name": "OwnershipTransferred",
      "type": "event"
    },
    {
      "anonymous": false,
      "inputs": [
        {
          "indexed": true,
          "internalType": "uint256",
          "name": "tokenId",
          "type": "uint256"
        },
        {
          "indexed": false,
          "internalType": "uint256",
          "name": "questStartedAt",
          "type": "uint256"
        },
        {
          "indexed": false,
          "internalType": "uint256[]",
          "name": "crews",
          "type": "uint256[]"
        },
        {
          "indexed": false,
          "internalType": "uint256",
          "name": "questEditedAt",
          "type": "uint256"
        }
      ],
      "name": "QuestEdited",
      "type": "event"
    },
    {
      "anonymous": false,
      "inputs": [
        {
          "indexed": true,
          "internalType": "uint256",
          "name": "tokenId",
          "type": "uint256"
        },
        {
          "indexed": false,
          "internalType": "uint256",
          "name": "questStartedAt",
          "type": "uint256"
        },
        {
          "indexed": false,
          "internalType": "uint256[]",
          "name": "crews",
          "type": "uint256[]"
        }
      ],
      "name": "QuestStarted",
      "type": "event"
    },
    {
      "anonymous": false,
      "inputs": [
        {
          "indexed": true,
          "internalType": "uint256",
          "name": "tokenId",
          "type": "uint256"
        },
        {
          "indexed": false,
          "internalType": "uint256",
          "name": "questStartedAt",
          "type": "uint256"
        },
        {
          "indexed": false,
          "internalType": "uint256",
          "name": "questStoppedAt",
          "type": "uint256"
        }
      ],
      "name": "QuestStopped",
      "type": "event"
    },
    {
      "inputs": [],
      "name": "argonauts",
      "outputs": [
        {
          "internalType": "contract IERC721",
          "name": "",
          "type": "address"
        }
      ],
      "stateMutability": "view",
      "type": "function"
    },
    {
      "inputs": [
        {
          "internalType": "uint256",
          "name": "",
          "type": "uint256"
        }
      ],
      "name": "argonautsOwners",
      "outputs": [
        {
          "internalType": "address",
          "name": "",
          "type": "address"
        }
      ],
      "stateMutability": "view",
      "type": "function"
    },
    {
      "inputs": [],
      "name": "argopetz",
      "outputs": [
        {
          "internalType": "contract IERC721",
          "name": "",
          "type": "address"
        }
      ],
      "stateMutability": "view",
      "type": "function"
    },
    {
      "inputs": [
        {
          "internalType": "uint256",
          "name": "",
          "type": "uint256"
        },
        {
          "internalType": "uint256",
          "name": "",
          "type": "uint256"
        }
      ],
      "name": "argopetzCrew",
      "outputs": [
        {
          "internalType": "uint256",
          "name": "",
          "type": "uint256"
        }
      ],
      "stateMutability": "view",
      "type": "function"
    },
    {
      "inputs": [
        {
          "internalType": "uint256",
          "name": "",
          "type": "uint256"
        }
      ],
      "name": "argopetzOwners",
      "outputs": [
        {
          "internalType": "address",
          "name": "",
          "type": "address"
        }
      ],
      "stateMutability": "view",
      "type": "function"
    },
    {
      "inputs": [
        {
          "components": [
            {
              "internalType": "uint256",
              "name": "tokenId",
              "type": "uint256"
            },
            {
              "internalType": "uint256[]",
              "name": "argopetzTokenIds",
              "type": "uint256[]"
            }
          ],
          "internalType": "struct ArgoQuest.QuestInfo[]",
          "name": "questInfos",
          "type": "tuple[]"
        }
      ],
      "name": "batchEditQuest",
      "outputs": [],
      "stateMutability": "nonpayable",
      "type": "function"
    },
    {
      "inputs": [
        {
          "components": [
            {
              "internalType": "uint256",
              "name": "tokenId",
              "type": "uint256"
            },
            {
              "internalType": "uint256[]",
              "name": "argopetzTokenIds",
              "type": "uint256[]"
            }
          ],
          "internalType": "struct ArgoQuest.QuestInfo[]",
          "name": "questInfos",
          "type": "tuple[]"
        }
      ],
      "name": "batchStartQuest",
      "outputs": [],
      "stateMutability": "nonpayable",
      "type": "function"
    },
    {
      "inputs": [
        {
          "internalType": "uint256[]",
          "name": "tokenIds",
          "type": "uint256[]"
        }
      ],
      "name": "batchStopQuest",
      "outputs": [],
      "stateMutability": "nonpayable",
      "type": "function"
    },
    {
      "inputs": [],
      "name": "canQuest",
      "outputs": [
        {
          "internalType": "bool",
          "name": "",
          "type": "bool"
        }
      ],
      "stateMutability": "view",
      "type": "function"
    },
    {
      "inputs": [
        {
          "internalType": "uint256",
          "name": "tokenId",
          "type": "uint256"
        },
        {
          "internalType": "uint256[]",
          "name": "argopetzTokenIds",
          "type": "uint256[]"
        }
      ],
      "name": "editQuest",
      "outputs": [],
      "stateMutability": "nonpayable",
      "type": "function"
    },
    {
      "inputs": [
        {
          "internalType": "uint256",
          "name": "tokenId",
          "type": "uint256"
        }
      ],
      "name": "getTokenInfo",
      "outputs": [
        {
          "internalType": "uint256",
          "name": "lastQuestedAt",
          "type": "uint256"
        },
        {
          "internalType": "uint256[]",
          "name": "crewTokenIds",
          "type": "uint256[]"
        }
      ],
      "stateMutability": "view",
      "type": "function"
    },
    {
      "inputs": [
        {
          "internalType": "uint256",
          "name": "tokenId",
          "type": "uint256"
        }
      ],
      "name": "isArgopetzQuesting",
      "outputs": [
        {
          "internalType": "bool",
          "name": "",
          "type": "bool"
        }
      ],
      "stateMutability": "view",
      "type": "function"
    },
    {
      "inputs": [],
      "name": "maxCrews",
      "outputs": [
        {
          "internalType": "uint8",
          "name": "",
          "type": "uint8"
        }
      ],
      "stateMutability": "view",
      "type": "function"
    },
    {
      "inputs": [
        {
          "internalType": "address",
          "name": "",
          "type": "address"
        },
        {
          "internalType": "address",
          "name": "",
          "type": "address"
        },
        {
          "internalType": "uint256",
          "name": "",
          "type": "uint256"
        },
        {
          "internalType": "bytes",
          "name": "",
          "type": "bytes"
        }
      ],
      "name": "onERC721Received",
      "outputs": [
        {
          "internalType": "bytes4",
          "name": "",
          "type": "bytes4"
        }
      ],
      "stateMutability": "nonpayable",
      "type": "function"
    },
    {
      "inputs": [],
      "name": "owner",
      "outputs": [
        {
          "internalType": "address",
          "name": "",
          "type": "address"
        }
      ],
      "stateMutability": "view",
      "type": "function"
    },
    {
      "inputs": [
        {
          "internalType": "uint256",
          "name": "",
          "type": "uint256"
        },
        {
          "internalType": "uint256",
          "name": "",
          "type": "uint256"
        }
      ],
      "name": "questCrews",
      "outputs": [
        {
          "internalType": "uint256",
          "name": "",
          "type": "uint256"
        }
      ],
      "stateMutability": "view",
      "type": "function"
    },
    {
      "inputs": [
        {
          "internalType": "uint256",
          "name": "argopetzTokenId",
          "type": "uint256"
        }
      ],
      "name": "removeCrew",
      "outputs": [],
      "stateMutability": "nonpayable",
      "type": "function"
    },
    {
      "inputs": [],
      "name": "renounceOwnership",
      "outputs": [],
      "stateMutability": "nonpayable",
      "type": "function"
    },
    {
      "inputs": [
        {
          "internalType": "address",
          "name": "addr",
          "type": "address"
        }
      ],
      "name": "setArgonauts",
      "outputs": [],
      "stateMutability": "nonpayable",
      "type": "function"
    },
    {
      "inputs": [
        {
          "internalType": "address",
          "name": "addr",
          "type": "address"
        }
      ],
      "name": "setArgopetz",
      "outputs": [],
      "stateMutability": "nonpayable",
      "type": "function"
    },
    {
      "inputs": [
        {
          "internalType": "bool",
          "name": "b",
          "type": "bool"
        }
      ],
      "name": "setCanQuest",
      "outputs": [],
      "stateMutability": "nonpayable",
      "type": "function"
    },
    {
      "inputs": [
        {
          "internalType": "uint8",
          "name": "n",
          "type": "uint8"
        }
      ],
      "name": "setMaxQuest",
      "outputs": [],
      "stateMutability": "nonpayable",
      "type": "function"
    },
    {
      "inputs": [
        {
          "internalType": "uint256",
          "name": "tokenId",
          "type": "uint256"
        },
        {
          "internalType": "uint256[]",
          "name": "argopetzTokenIds",
          "type": "uint256[]"
        }
      ],
      "name": "startQuest",
      "outputs": [],
      "stateMutability": "nonpayable",
      "type": "function"
    },
    {
      "inputs": [
        {
          "internalType": "uint256",
          "name": "tokenId",
          "type": "uint256"
        }
      ],
      "name": "stopQuest",
      "outputs": [],
      "stateMutability": "nonpayable",
      "type": "function"
    },
    {
      "inputs": [
        {
          "internalType": "uint256",
          "name": "",
          "type": "uint256"
        }
      ],
      "name": "tokensLastQuestedAt",
      "outputs": [
        {
          "internalType": "uint256",
          "name": "",
          "type": "uint256"
        }
      ],
      "stateMutability": "view",
      "type": "function"
    },
    {
      "inputs": [
        {
          "internalType": "address",
          "name": "newOwner",
          "type": "address"
        }
      ],
      "name": "transferOwnership",
      "outputs": [],
      "stateMutability": "nonpayable",
      "type": "function"
    }
  ],
  "transactionHash": "0x6c4b1eba208c68b0456ebf9597290ff53e74bb566ff147964710f0a445a28db5",
  "args": [
    "0x60F5CEb4b06434E77e335B9140D17814f72De05a",
    "0x681BaC6cBc89D4bb6AA4cBcB7a31bFA944cA7A10"
  ],
  "numDeployments": 4,
  "solcInputHash": "8299e481dba421c355f2244f6e5c5ffd",
  "bytecode": "0x60806040526002805460ff60a81b1916600560a81b1790553480156200002457600080fd5b5060405162001b3138038062001b318339810160408190526200004791620000f1565b620000523362000084565b600180546001600160a01b039384166001600160a01b0319918216179091556002805492909316911617905562000129565b600080546001600160a01b038381166001600160a01b0319831681178455604051919092169283917f8be0079c531659141344cd1fd0a4f28419497f9722a3daafe3b4186f6b6457e09190a35050565b80516001600160a01b0381168114620000ec57600080fd5b919050565b600080604083850312156200010557600080fd5b6200011083620000d4565b91506200012060208401620000d4565b90509250929050565b6119f880620001396000396000f3fe608060405234801561001057600080fd5b506004361061018e5760003560e01c806391b16307116100de578063ae85e02c11610097578063d73744fa11610071578063d73744fa146103f3578063decfb2d714610406578063f2fde38b14610419578063f72f20f21461042c57600080fd5b8063ae85e02c1461039a578063c2a20198146103ba578063d59642e2146103e057600080fd5b806391b16307146102fb57806397b167ff146103245780639a4e26491461034d5780639eb5614a14610360578063a6171eff14610374578063aa44048b1461038757600080fd5b806354cb4c691161014b578063715018a611610125578063715018a6146102ae57806383508856146102b65780638c7a63ae146102c95780638da5cb5b146102ea57600080fd5b806354cb4c69146102565780636b96530114610269578063704a6f591461029b57600080fd5b80630ac04f4514610193578063150b7a02146101a85780631802d72b146101e4578063180f4583146102055780632dede78d1461023057806332adcea114610243575b600080fd5b6101a66101a13660046114ec565b61043f565b005b6101c66101b6366004611560565b630a85bd0160e11b949350505050565b6040516001600160e01b031990911681526020015b60405180910390f35b6101f76101f236600461163c565b61047a565b6040519081526020016101db565b600254610218906001600160a01b031681565b6040516001600160a01b0390911681526020016101db565b6101a661023e3660046114ec565b6104ab565b6101a661025136600461165e565b6106ad565b6101a66102643660046116aa565b6107bf565b61028b6102773660046116d4565b600090815260076020526040902054151590565b60405190151581526020016101db565b6101a66102a93660046116d4565b6107e7565b6101a6610ba0565b6101a66102c43660046116ed565b610bb4565b6102dc6102d73660046116d4565b610bda565b6040516101db92919061170f565b6000546001600160a01b0316610218565b6102186103093660046116d4565b6004602052600090815260409020546001600160a01b031681565b6102186103323660046116d4565b6003602052600090815260409020546001600160a01b031681565b600154610218906001600160a01b031681565b60025461028b90600160a01b900460ff1681565b6101a66103823660046114ec565b610c4d565b6101a661039536600461165e565b610cbb565b6101f76103a83660046116d4565b60056020526000908152604090205481565b6002546103ce90600160a81b900460ff1681565b60405160ff90911681526020016101db565b6101a66103ee36600461175d565b610dff565b6101f761040136600461163c565b610e29565b6101a661041436600461175d565b610e45565b6101a661042736600461175d565b610e6f565b6101a661043a3660046116d4565b610ee8565b8060005b818110156104745761046c84848381811061046057610460611778565b90506020020135610ee8565b600101610443565b50505050565b6007602052816000526040600020818154811061049657600080fd5b90600052602060002001600091509150505481565b600254600160a01b900460ff166104dd5760405162461bcd60e51b81526004016104d49061178e565b60405180910390fd5b6002546001600160a01b03166105355760405162461bcd60e51b815260206004820152601960248201527f4172676f7065747a20636f6e7472616374206e6f74207365740000000000000060448201526064016104d4565b8060005b818110156105a857600084848381811061055557610555611778565b905060200281019061056791906117b9565b356000818152600560205260409020549091506105965760405162461bcd60e51b81526004016104d4906117d9565b61059f81610fd3565b50600101610539565b5060005b818110156104745760008484838181106105c8576105c8611778565b90506020028101906105da91906117b9565b3590503660008686858181106105f2576105f2611778565b905060200281019061060491906117b9565b610612906020810190611823565b6002549193509150600160a81b900460ff168111156106435760405162461bcd60e51b81526004016104d49061186d565b61064e83838361116c565b827f321f5b987da3cdd88d15ba5e36586aa60fd631bcbb32fbcd879dfa2d533bb7ca600560008681526020019081526020016000205484844260405161069794939291906118e0565b60405180910390a28360010193505050506105ac565b600254600160a01b900460ff166106d65760405162461bcd60e51b81526004016104d49061178e565b6002546001600160a01b03166106fe5760405162461bcd60e51b81526004016104d49061190b565b6000838152600560205260409020546107295760405162461bcd60e51b81526004016104d4906117d9565b600254600160a81b900460ff168111156107555760405162461bcd60e51b81526004016104d49061186d565b61075e83610fd3565b61076983838361116c565b827f321f5b987da3cdd88d15ba5e36586aa60fd631bcbb32fbcd879dfa2d533bb7ca60056000868152602001908152602001600020548484426040516107b294939291906118e0565b60405180910390a2505050565b6107c761135b565b6002805460ff909216600160a81b0260ff60a81b19909216919091179055565b6002546001600160a01b031661080f5760405162461bcd60e51b81526004016104d49061190b565b6000818152600460205260409020546001600160a01b0316331461086a5760405162461bcd60e51b81526020600482015260126024820152713737ba1030b933b7b832ba3d1037bbb732b960711b60448201526064016104d4565b600081815260076020526040812080549091036108c95760405162461bcd60e51b815260206004820152601c60248201527f6172676f7065747a546f6b656e4964206e6f74207175657374696e670000000060448201526064016104d4565b6000816000815481106108de576108de611778565b600091825260208083209091015480835260068252604080842080548251818602810186019093528083529295506122b894939192909183018282801561094457602002820191906000526020600020905b815481526020019060010190808311610930575b5050835193945083925060009150505b82811015610a3a57600084828151811061097057610970611778565b60200260200101519050888103610a3157600081815260046020526040902080546001600160a01b0319169055845186908690849081106109b3576109b3611778565b6020908102919091010152826109c88161194b565b600254604051632142170760e11b81529195506001600160a01b031691506342842e0e906109fe90309033908690600401611962565b600060405180830381600087803b158015610a1857600080fd5b505af1158015610a2c573d6000803e3d6000fd5b505050505b50600101610954565b5080835103610a8b5760405162461bcd60e51b815260206004820152601b60248201527f6172676f7065747a546f6b656e4964206e6f7420696e2063726577000000000060448201526064016104d4565b60008167ffffffffffffffff811115610aa657610aa661154a565b604051908082528060200260200182016040528015610acf578160200160208202803683370190505b5090506000805b84811015610b4b5786868281518110610af157610af1611778565b602002602001015114610b4357858181518110610b1057610b10611778565b6020026020010151838380610b2490611986565b945081518110610b3657610b36611778565b6020026020010181815250505b600101610ad6565b5060008781526006602090815260409091208351610b6b92850190611405565b5060408051600080825260208083018085528d835260079091529290209051610b949290611405565b50505050505050505050565b610ba861135b565b610bb260006113b5565b565b610bbc61135b565b60028054911515600160a01b0260ff60a01b19909216919091179055565b60008181526005602090815260408083205460068352818420805483518186028101860190945280845260609492939192839190830182828015610c3d57602002820191906000526020600020905b815481526020019060010190808311610c29575b5050505050905091509150915091565b8060005b8181101561047457610cb3848483818110610c6e57610c6e611778565b9050602002810190610c8091906117b9565b35858584818110610c9357610c93611778565b9050602002810190610ca591906117b9565b610395906020810190611823565b600101610c51565b600254600160a01b900460ff16610ce45760405162461bcd60e51b81526004016104d49061178e565b6002546001600160a01b0316610d0c5760405162461bcd60e51b81526004016104d49061190b565b60008381526005602052604090205415610d7f5760405162461bcd60e51b815260206004820152602e60248201527f7175657374656420616c7265616479207374617274656420666f72205b61726760448201526d6f6e61757420746f6b656e49645d60901b60648201526084016104d4565b600254600160a81b900460ff16811115610dab5760405162461bcd60e51b81526004016104d49061186d565b610db683838361116c565b600083815260056020526040908190204290819055905184917f9cf69842ab0633697d5e469283f269dbc744d6e296704f7e470181a0e005bb14916107b291908690869061199f565b610e0761135b565b600180546001600160a01b0319166001600160a01b0392909216919091179055565b6006602052816000526040600020818154811061049657600080fd5b610e4d61135b565b600280546001600160a01b0319166001600160a01b0392909216919091179055565b610e7761135b565b6001600160a01b038116610edc5760405162461bcd60e51b815260206004820152602660248201527f4f776e61626c653a206e6577206f776e657220697320746865207a65726f206160448201526564647265737360d01b60648201526084016104d4565b610ee5816113b5565b50565b600081815260056020526040902054610f135760405162461bcd60e51b81526004016104d4906117d9565b6000818152600360205260409020546001600160a01b03163314610f6f5760405162461bcd60e51b81526020600482015260136024820152723737ba1030b933b7b730baba399037bbb732b960691b60448201526064016104d4565b610f7881610fd3565b60008181526005602052604080822080549290555182907ffa5379006eec3c8c0cffc1c41cc3e046db15af77d7055cffa281a25a0ea7ac3990610fc79084904290918252602082015260400190565b60405180910390a25050565b60008181526006602052604090208054600181106110ef5760408051600080825260208201909252905b828110156110cc57600084828154811061101957611019611778565b60009182526020808320909101548083526007825260409092208551929350611046929091860190611405565b50600254600082815260046020819052604091829020549151632142170760e11b81526001600160a01b03938416936342842e0e9361108e9330939190921691879101611962565b600060405180830381600087803b1580156110a857600080fd5b505af11580156110bc573d6000803e3d6000fd5b5050505081600101915050610ffd565b50600084815260066020908152604090912082516110ec92840190611405565b50505b60015460008481526003602052604090819020549051632142170760e11b81526001600160a01b03928316926342842e0e92611135923092909116908890600401611962565b600060405180830381600087803b15801561114f57600080fd5b505af1158015611163573d6000803e3d6000fd5b50505050505050565b6000838152600360205260408082208054336001600160a01b03199091161790558051600180825281830190925283929181602001602082028036833701905050905084816000815181106111c3576111c3611778565b602002602001018181525050600182106112ee5760005b828110156112d25760008585838181106111f6576111f6611778565b60209081029290920135600081815260048452604080822080546001600160a01b0319163317905560079094529290922080549293509115905061123d5761123d826107e7565b600254604051632142170760e11b81526001600160a01b03909116906342842e0e9061127190339030908790600401611962565b600060405180830381600087803b15801561128b57600080fd5b505af115801561129f573d6000803e3d6000fd5b505050600083815260076020908152604090912086516112c493509091870190611405565b5082600101925050506111da565b5060008581526006602052604090206112ec908585611450565b505b600154604051632142170760e11b81526001600160a01b03909116906342842e0e9061132290339030908a90600401611962565b600060405180830381600087803b15801561133c57600080fd5b505af1158015611350573d6000803e3d6000fd5b505050505050505050565b6000546001600160a01b03163314610bb25760405162461bcd60e51b815260206004820181905260248201527f4f776e61626c653a2063616c6c6572206973206e6f7420746865206f776e657260448201526064016104d4565b600080546001600160a01b038381166001600160a01b0319831681178455604051919092169283917f8be0079c531659141344cd1fd0a4f28419497f9722a3daafe3b4186f6b6457e09190a35050565b828054828255906000526020600020908101928215611440579160200282015b82811115611440578251825591602001919060010190611425565b5061144c92915061148b565b5090565b828054828255906000526020600020908101928215611440579160200282015b82811115611440578235825591602001919060010190611470565b5b8082111561144c576000815560010161148c565b60008083601f8401126114b257600080fd5b50813567ffffffffffffffff8111156114ca57600080fd5b6020830191508360208260051b85010111156114e557600080fd5b9250929050565b600080602083850312156114ff57600080fd5b823567ffffffffffffffff81111561151657600080fd5b611522858286016114a0565b90969095509350505050565b80356001600160a01b038116811461154557600080fd5b919050565b634e487b7160e01b600052604160045260246000fd5b6000806000806080858703121561157657600080fd5b61157f8561152e565b935061158d6020860161152e565b925060408501359150606085013567ffffffffffffffff808211156115b157600080fd5b818701915087601f8301126115c557600080fd5b8135818111156115d7576115d761154a565b604051601f8201601f19908116603f011681019083821181831017156115ff576115ff61154a565b816040528281528a602084870101111561161857600080fd5b82602086016020830137600060208483010152809550505050505092959194509250565b6000806040838503121561164f57600080fd5b50508035926020909101359150565b60008060006040848603121561167357600080fd5b83359250602084013567ffffffffffffffff81111561169157600080fd5b61169d868287016114a0565b9497909650939450505050565b6000602082840312156116bc57600080fd5b813560ff811681146116cd57600080fd5b9392505050565b6000602082840312156116e657600080fd5b5035919050565b6000602082840312156116ff57600080fd5b813580151581146116cd57600080fd5b6000604082018483526020604081850152818551808452606086019150828701935060005b8181101561175057845183529383019391830191600101611734565b5090979650505050505050565b60006020828403121561176f57600080fd5b6116cd8261152e565b634e487b7160e01b600052603260045260246000fd5b60208082526011908201527038bab2b9ba34b733903737ba1037b832b760791b604082015260600190565b60008235603e198336030181126117cf57600080fd5b9190910192915050565b6020808252602a908201527f71756573746564206e6f74207374617274656420666f72205b6172676f6e61756040820152697420746f6b656e49645d60b01b606082015260800190565b6000808335601e1984360301811261183a57600080fd5b83018035915067ffffffffffffffff82111561185557600080fd5b6020019150600581901b36038213156114e557600080fd5b60208082526021908201527f746f6f206d616e79206372657773205b6172676f7065747a546f6b656e4964736040820152605d60f81b606082015260800190565b81835260006001600160fb1b038311156118c757600080fd5b8260051b80836020870137939093016020019392505050565b8481526060602082015260006118fa6060830185876118ae565b905082604083015295945050505050565b60208082526010908201526f185c99dbdc195d1e881b9bdd081cd95d60821b604082015260600190565b634e487b7160e01b600052601160045260246000fd5b60008161195a5761195a611935565b506000190190565b6001600160a01b039384168152919092166020820152604081019190915260600190565b60006001820161199857611998611935565b5060010190565b8381526040602082015260006119b96040830184866118ae565b9594505050505056fea26469706673582212207bfb060032787dc23b5eacfcd864c050ec2685afa607112518a910244259bef364736f6c63430008120033",
  "devdoc": {
    "kind": "dev",
    "methods": {
      "onERC721Received(address,address,uint256,bytes)": {
        "details": "See {IERC721Receiver-onERC721Received}. Always returns `IERC721Receiver.onERC721Received.selector`."
      },
      "owner()": {
        "details": "Returns the address of the current owner."
      },
      "renounceOwnership()": {
        "details": "Leaves the contract without owner. It will not be possible to call `onlyOwner` functions. Can only be called by the current owner. NOTE: Renouncing ownership will leave the contract without an owner, thereby disabling any functionality that is only available to the owner."
      },
      "transferOwnership(address)": {
        "details": "Transfers ownership of the contract to a new account (`newOwner`). Can only be called by the current owner."
      }
    },
    "version": 1
  },
  "userdoc": {
    "kind": "user",
    "methods": {},
    "version": 1
  },
  "storageLayout": {
    "storage": [
      {
        "astId": 7,
        "contract": "contracts/ArgoQuest.sol:ArgoQuest",
        "label": "_owner",
        "offset": 0,
        "slot": "0",
        "type": "t_address"
      },
      {
        "astId": 320,
        "contract": "contracts/ArgoQuest.sol:ArgoQuest",
        "label": "argonauts",
        "offset": 0,
        "slot": "1",
        "type": "t_contract(IERC721)228"
      },
      {
        "astId": 323,
        "contract": "contracts/ArgoQuest.sol:ArgoQuest",
        "label": "argopetz",
        "offset": 0,
        "slot": "2",
        "type": "t_contract(IERC721)228"
      },
      {
        "astId": 325,
        "contract": "contracts/ArgoQuest.sol:ArgoQuest",
        "label": "canQuest",
        "offset": 20,
        "slot": "2",
        "type": "t_bool"
      },
      {
        "astId": 328,
        "contract": "contracts/ArgoQuest.sol:ArgoQuest",
        "label": "maxCrews",
        "offset": 21,
        "slot": "2",
        "type": "t_uint8"
      },
      {
        "astId": 332,
        "contract": "contracts/ArgoQuest.sol:ArgoQuest",
        "label": "argonautsOwners",
        "offset": 0,
        "slot": "3",
        "type": "t_mapping(t_uint256,t_address)"
      },
      {
        "astId": 336,
        "contract": "contracts/ArgoQuest.sol:ArgoQuest",
        "label": "argopetzOwners",
        "offset": 0,
        "slot": "4",
        "type": "t_mapping(t_uint256,t_address)"
      },
      {
        "astId": 340,
        "contract": "contracts/ArgoQuest.sol:ArgoQuest",
        "label": "tokensLastQuestedAt",
        "offset": 0,
        "slot": "5",
        "type": "t_mapping(t_uint256,t_uint256)"
      },
      {
        "astId": 345,
        "contract": "contracts/ArgoQuest.sol:ArgoQuest",
        "label": "questCrews",
        "offset": 0,
        "slot": "6",
        "type": "t_mapping(t_uint256,t_array(t_uint256)dyn_storage)"
      },
      {
        "astId": 350,
        "contract": "contracts/ArgoQuest.sol:ArgoQuest",
        "label": "argopetzCrew",
        "offset": 0,
        "slot": "7",
        "type": "t_mapping(t_uint256,t_array(t_uint256)dyn_storage)"
      }
    ],
    "types": {
      "t_address": {
        "encoding": "inplace",
        "label": "address",
        "numberOfBytes": "20"
      },
      "t_array(t_uint256)dyn_storage": {
        "base": "t_uint256",
        "encoding": "dynamic_array",
        "label": "uint256[]",
        "numberOfBytes": "32"
      },
      "t_bool": {
        "encoding": "inplace",
        "label": "bool",
        "numberOfBytes": "1"
      },
      "t_contract(IERC721)228": {
        "encoding": "inplace",
        "label": "contract IERC721",
        "numberOfBytes": "20"
      },
      "t_mapping(t_uint256,t_address)": {
        "encoding": "mapping",
        "key": "t_uint256",
        "label": "mapping(uint256 => address)",
        "numberOfBytes": "32",
        "value": "t_address"
      },
      "t_mapping(t_uint256,t_array(t_uint256)dyn_storage)": {
        "encoding": "mapping",
        "key": "t_uint256",
        "label": "mapping(uint256 => uint256[])",
        "numberOfBytes": "32",
        "value": "t_array(t_uint256)dyn_storage"
      },
      "t_mapping(t_uint256,t_uint256)": {
        "encoding": "mapping",
        "key": "t_uint256",
        "label": "mapping(uint256 => uint256)",
        "numberOfBytes": "32",
        "value": "t_uint256"
      },
      "t_uint256": {
        "encoding": "inplace",
        "label": "uint256",
        "numberOfBytes": "32"
      },
      "t_uint8": {
        "encoding": "inplace",
        "label": "uint8",
        "numberOfBytes": "1"
      }
    }
  }
}