{
  "address": "0x0058D1BD14Eb604C430CCB74e6aA7427A3b28b07",
  "abi": [
    {
      "inputs": [
        {
          "internalType": "address",
          "name": "_argonauts",
          "type": "address"
        },
        {
          "internalType": "address",
          "name": "_argopetz",
          "type": "address"
        }
      ],
      "stateMutability": "nonpayable",
      "type": "constructor"
    },
    {
      "anonymous": false,
      "inputs": [
        {
          "indexed": true,
          "internalType": "address",
          "name": "previousOwner",
          "type": "address"
        },
        {
          "indexed": true,
          "internalType": "address",
          "name": "newOwner",
          "type": "address"
        }
      ],
      "name": "OwnershipTransferred",
      "type": "event"
    },
    {
      "anonymous": false,
      "inputs": [
        {
          "indexed": true,
          "internalType": "uint256",
          "name": "tokenId",
          "type": "uint256"
        },
        {
          "indexed": false,
          "internalType": "uint256",
          "name": "questStartedAt",
          "type": "uint256"
        },
        {
          "indexed": false,
          "internalType": "uint256[]",
          "name": "crews",
          "type": "uint256[]"
        },
        {
          "indexed": false,
          "internalType": "uint256",
          "name": "questEditedAt",
          "type": "uint256"
        }
      ],
      "name": "QuestEdited",
      "type": "event"
    },
    {
      "anonymous": false,
      "inputs": [
        {
          "indexed": true,
          "internalType": "uint256",
          "name": "tokenId",
          "type": "uint256"
        },
        {
          "indexed": false,
          "internalType": "uint256",
          "name": "questStartedAt",
          "type": "uint256"
        },
        {
          "indexed": false,
          "internalType": "uint256[]",
          "name": "crews",
          "type": "uint256[]"
        }
      ],
      "name": "QuestStarted",
      "type": "event"
    },
    {
      "anonymous": false,
      "inputs": [
        {
          "indexed": true,
          "internalType": "uint256",
          "name": "tokenId",
          "type": "uint256"
        },
        {
          "indexed": false,
          "internalType": "uint256",
          "name": "questStartedAt",
          "type": "uint256"
        },
        {
          "indexed": false,
          "internalType": "uint256",
          "name": "questStoppedAt",
          "type": "uint256"
        }
      ],
      "name": "QuestStopped",
      "type": "event"
    },
    {
      "inputs": [],
      "name": "MAX_SUPPLY",
      "outputs": [
        {
          "internalType": "uint256",
          "name": "",
          "type": "uint256"
        }
      ],
      "stateMutability": "view",
      "type": "function"
    },
    {
      "inputs": [],
      "name": "argonauts",
      "outputs": [
        {
          "internalType": "contract IERC721",
          "name": "",
          "type": "address"
        }
      ],
      "stateMutability": "view",
      "type": "function"
    },
    {
      "inputs": [
        {
          "internalType": "uint256",
          "name": "",
          "type": "uint256"
        }
      ],
      "name": "argonautsOwners",
      "outputs": [
        {
          "internalType": "address",
          "name": "",
          "type": "address"
        }
      ],
      "stateMutability": "view",
      "type": "function"
    },
    {
      "inputs": [],
      "name": "argopetz",
      "outputs": [
        {
          "internalType": "contract IERC721",
          "name": "",
          "type": "address"
        }
      ],
      "stateMutability": "view",
      "type": "function"
    },
    {
      "inputs": [
        {
          "internalType": "uint256",
          "name": "",
          "type": "uint256"
        },
        {
          "internalType": "uint256",
          "name": "",
          "type": "uint256"
        }
      ],
      "name": "argopetzCrew",
      "outputs": [
        {
          "internalType": "uint256",
          "name": "",
          "type": "uint256"
        }
      ],
      "stateMutability": "view",
      "type": "function"
    },
    {
      "inputs": [
        {
          "internalType": "uint256",
          "name": "",
          "type": "uint256"
        }
      ],
      "name": "argopetzOwners",
      "outputs": [
        {
          "internalType": "address",
          "name": "",
          "type": "address"
        }
      ],
      "stateMutability": "view",
      "type": "function"
    },
    {
      "inputs": [
        {
          "components": [
            {
              "internalType": "uint256",
              "name": "tokenId",
              "type": "uint256"
            },
            {
              "internalType": "uint256[]",
              "name": "argopetzTokenIds",
              "type": "uint256[]"
            }
          ],
          "internalType": "struct ArgoQuest.QuestInfo[]",
          "name": "questInfos",
          "type": "tuple[]"
        }
      ],
      "name": "batchEditQuest",
      "outputs": [],
      "stateMutability": "nonpayable",
      "type": "function"
    },
    {
      "inputs": [
        {
          "components": [
            {
              "internalType": "uint256",
              "name": "tokenId",
              "type": "uint256"
            },
            {
              "internalType": "uint256[]",
              "name": "argopetzTokenIds",
              "type": "uint256[]"
            }
          ],
          "internalType": "struct ArgoQuest.QuestInfo[]",
          "name": "questInfos",
          "type": "tuple[]"
        }
      ],
      "name": "batchStartQuest",
      "outputs": [],
      "stateMutability": "nonpayable",
      "type": "function"
    },
    {
      "inputs": [
        {
          "internalType": "uint256[]",
          "name": "tokenIds",
          "type": "uint256[]"
        }
      ],
      "name": "batchStopQuest",
      "outputs": [],
      "stateMutability": "nonpayable",
      "type": "function"
    },
    {
      "inputs": [],
      "name": "canQuest",
      "outputs": [
        {
          "internalType": "bool",
          "name": "",
          "type": "bool"
        }
      ],
      "stateMutability": "view",
      "type": "function"
    },
    {
      "inputs": [
        {
          "internalType": "uint256",
          "name": "tokenId",
          "type": "uint256"
        },
        {
          "internalType": "uint256[]",
          "name": "argopetzTokenIds",
          "type": "uint256[]"
        }
      ],
      "name": "editQuest",
      "outputs": [],
      "stateMutability": "nonpayable",
      "type": "function"
    },
    {
      "inputs": [
        {
          "internalType": "uint256",
          "name": "tokenId",
          "type": "uint256"
        }
      ],
      "name": "getTokenInfo",
      "outputs": [
        {
          "internalType": "uint256",
          "name": "lastQuestedAt",
          "type": "uint256"
        },
        {
          "internalType": "uint256[]",
          "name": "crewTokenIds",
          "type": "uint256[]"
        }
      ],
      "stateMutability": "view",
      "type": "function"
    },
    {
      "inputs": [
        {
          "internalType": "uint256",
          "name": "tokenId",
          "type": "uint256"
        }
      ],
      "name": "isArgopetzQuesting",
      "outputs": [
        {
          "internalType": "bool",
          "name": "",
          "type": "bool"
        }
      ],
      "stateMutability": "view",
      "type": "function"
    },
    {
      "inputs": [],
      "name": "maxCrews",
      "outputs": [
        {
          "internalType": "uint8",
          "name": "",
          "type": "uint8"
        }
      ],
      "stateMutability": "view",
      "type": "function"
    },
    {
      "inputs": [
        {
          "internalType": "address",
          "name": "",
          "type": "address"
        },
        {
          "internalType": "address",
          "name": "",
          "type": "address"
        },
        {
          "internalType": "uint256",
          "name": "",
          "type": "uint256"
        },
        {
          "internalType": "bytes",
          "name": "",
          "type": "bytes"
        }
      ],
      "name": "onERC721Received",
      "outputs": [
        {
          "internalType": "bytes4",
          "name": "",
          "type": "bytes4"
        }
      ],
      "stateMutability": "nonpayable",
      "type": "function"
    },
    {
      "inputs": [],
      "name": "owner",
      "outputs": [
        {
          "internalType": "address",
          "name": "",
          "type": "address"
        }
      ],
      "stateMutability": "view",
      "type": "function"
    },
    {
      "inputs": [
        {
          "internalType": "uint256",
          "name": "",
          "type": "uint256"
        },
        {
          "internalType": "uint256",
          "name": "",
          "type": "uint256"
        }
      ],
      "name": "questCrews",
      "outputs": [
        {
          "internalType": "uint256",
          "name": "",
          "type": "uint256"
        }
      ],
      "stateMutability": "view",
      "type": "function"
    },
    {
      "inputs": [
        {
          "internalType": "uint256",
          "name": "argopetzTokenId",
          "type": "uint256"
        }
      ],
      "name": "removeCrew",
      "outputs": [],
      "stateMutability": "nonpayable",
      "type": "function"
    },
    {
      "inputs": [],
      "name": "renounceOwnership",
      "outputs": [],
      "stateMutability": "nonpayable",
      "type": "function"
    },
    {
      "inputs": [
        {
          "internalType": "address",
          "name": "addr",
          "type": "address"
        }
      ],
      "name": "setArgonauts",
      "outputs": [],
      "stateMutability": "nonpayable",
      "type": "function"
    },
    {
      "inputs": [
        {
          "internalType": "address",
          "name": "addr",
          "type": "address"
        }
      ],
      "name": "setArgopetz",
      "outputs": [],
      "stateMutability": "nonpayable",
      "type": "function"
    },
    {
      "inputs": [
        {
          "internalType": "bool",
          "name": "b",
          "type": "bool"
        }
      ],
      "name": "setCanQuest",
      "outputs": [],
      "stateMutability": "nonpayable",
      "type": "function"
    },
    {
      "inputs": [
        {
          "internalType": "uint256",
          "name": "tokenId",
          "type": "uint256"
        },
        {
          "internalType": "uint256[]",
          "name": "argopetzTokenIds",
          "type": "uint256[]"
        }
      ],
      "name": "startQuest",
      "outputs": [],
      "stateMutability": "nonpayable",
      "type": "function"
    },
    {
      "inputs": [
        {
          "internalType": "uint256",
          "name": "tokenId",
          "type": "uint256"
        }
      ],
      "name": "stopQuest",
      "outputs": [],
      "stateMutability": "nonpayable",
      "type": "function"
    },
    {
      "inputs": [
        {
          "internalType": "uint256",
          "name": "",
          "type": "uint256"
        }
      ],
      "name": "tokensLastQuestedAt",
      "outputs": [
        {
          "internalType": "uint256",
          "name": "",
          "type": "uint256"
        }
      ],
      "stateMutability": "view",
      "type": "function"
    },
    {
      "inputs": [
        {
          "internalType": "address",
          "name": "newOwner",
          "type": "address"
        }
      ],
      "name": "transferOwnership",
      "outputs": [],
      "stateMutability": "nonpayable",
      "type": "function"
    }
  ],
  "transactionHash": "0xaff70c5ed3daba5d29be0c222916c9b92057d93333b8ff8e174f93e4319556c5",
  "args": [
    "0x60F5CEb4b06434E77e335B9140D17814f72De05a",
    "0xFA686785D49a3ff521F56D0C7CD8251C33d08c45"
  ],
  "numDeployments": 1,
  "solcInputHash": "0d6c95b0250ff5d258563d4a661aa0d5",
  "bytecode": "0x60806040526002805460ff60a01b1916600360a01b1790553480156200002457600080fd5b5060405162001ab538038062001ab58339810160408190526200004791620000f1565b620000523362000084565b600180546001600160a01b039384166001600160a01b0319918216179091556002805492909316911617905562000129565b600080546001600160a01b038381166001600160a01b0319831681178455604051919092169283917f8be0079c531659141344cd1fd0a4f28419497f9722a3daafe3b4186f6b6457e09190a35050565b80516001600160a01b0381168114620000ec57600080fd5b919050565b600080604083850312156200010557600080fd5b6200011083620000d4565b91506200012060208401620000d4565b90509250929050565b61197c80620001396000396000f3fe608060405234801561001057600080fd5b506004361061018e5760003560e01c806391b16307116100de578063ae85e02c11610097578063d73744fa11610071578063d73744fa146103e2578063decfb2d7146103f5578063f2fde38b14610408578063f72f20f21461041b57600080fd5b8063ae85e02c14610389578063c2a20198146103a9578063d59642e2146103cf57600080fd5b806391b16307146102f157806397b167ff1461031a5780639a4e2649146103435780639eb5614a14610356578063a6171eff14610363578063aa44048b1461037657600080fd5b806332cb6b0c1161014b578063715018a611610125578063715018a6146102a457806383508856146102ac5780638c7a63ae146102bf5780638da5cb5b146102e057600080fd5b806332cb6b0c146102565780636b9653011461025f578063704a6f591461029157600080fd5b80630ac04f4514610193578063150b7a02146101a85780631802d72b146101e4578063180f4583146102055780632dede78d1461023057806332adcea114610243575b600080fd5b6101a66101a1366004611493565b61042e565b005b6101c66101b6366004611507565b630a85bd0160e11b949350505050565b6040516001600160e01b031990911681526020015b60405180910390f35b6101f76101f23660046115e3565b610469565b6040519081526020016101db565b600254610218906001600160a01b031681565b6040516001600160a01b0390911681526020016101db565b6101a661023e366004611493565b61049a565b6101a6610251366004611605565b610695565b6101f76122b881565b61028161026d366004611651565b600090815260086020526040902054151590565b60405190151581526020016101db565b6101a661029f366004611651565b6107a0565b6101a6610b59565b6101a66102ba36600461166a565b610b6d565b6102d26102cd366004611651565b610b88565b6040516101db929190611693565b6000546001600160a01b0316610218565b6102186102ff366004611651565b6004602052600090815260409020546001600160a01b031681565b610218610328366004611651565b6003602052600090815260409020546001600160a01b031681565b600154610218906001600160a01b031681565b6005546102819060ff1681565b6101a6610371366004611493565b610bfb565b6101a6610384366004611605565b610c69565b6101f7610397366004611651565b60066020526000908152604090205481565b6002546103bd90600160a01b900460ff1681565b60405160ff90911681526020016101db565b6101a66103dd3660046116e1565b610da6565b6101f76103f03660046115e3565b610dd0565b6101a66104033660046116e1565b610dec565b6101a66104163660046116e1565b610e16565b6101a6610429366004611651565b610e8f565b8060005b818110156104635761045b84848381811061044f5761044f6116fc565b90506020020135610e8f565b600101610432565b50505050565b6008602052816000526040600020818154811061048557600080fd5b90600052602060002001600091509150505481565b60055460ff166104c55760405162461bcd60e51b81526004016104bc90611712565b60405180910390fd5b6002546001600160a01b031661051d5760405162461bcd60e51b815260206004820152601960248201527f4172676f7065747a20636f6e7472616374206e6f74207365740000000000000060448201526064016104bc565b8060005b8181101561059057600084848381811061053d5761053d6116fc565b905060200281019061054f919061173d565b3560008181526006602052604090205490915061057e5760405162461bcd60e51b81526004016104bc9061175d565b61058781610f7a565b50600101610521565b5060005b818110156104635760008484838181106105b0576105b06116fc565b90506020028101906105c2919061173d565b3590503660008686858181106105da576105da6116fc565b90506020028101906105ec919061173d565b6105fa9060208101906117a7565b6002549193509150600160a01b900460ff1681111561062b5760405162461bcd60e51b81526004016104bc906117f1565b610636838383611113565b827f321f5b987da3cdd88d15ba5e36586aa60fd631bcbb32fbcd879dfa2d533bb7ca600660008681526020019081526020016000205484844260405161067f9493929190611864565b60405180910390a2836001019350505050610594565b60055460ff166106b75760405162461bcd60e51b81526004016104bc90611712565b6002546001600160a01b03166106df5760405162461bcd60e51b81526004016104bc9061188f565b60008381526006602052604090205461070a5760405162461bcd60e51b81526004016104bc9061175d565b600254600160a01b900460ff168111156107365760405162461bcd60e51b81526004016104bc906117f1565b61073f83610f7a565b61074a838383611113565b827f321f5b987da3cdd88d15ba5e36586aa60fd631bcbb32fbcd879dfa2d533bb7ca60066000868152602001908152602001600020548484426040516107939493929190611864565b60405180910390a2505050565b6002546001600160a01b03166107c85760405162461bcd60e51b81526004016104bc9061188f565b6000818152600460205260409020546001600160a01b031633146108235760405162461bcd60e51b81526020600482015260126024820152713737ba1030b933b7b832ba3d1037bbb732b960711b60448201526064016104bc565b600081815260086020526040812080549091036108825760405162461bcd60e51b815260206004820152601c60248201527f6172676f7065747a546f6b656e4964206e6f74207175657374696e670000000060448201526064016104bc565b600081600081548110610897576108976116fc565b600091825260208083209091015480835260078252604080842080548251818602810186019093528083529295506122b89493919290918301828280156108fd57602002820191906000526020600020905b8154815260200190600101908083116108e9575b5050835193945083925060009150505b828110156109f3576000848281518110610929576109296116fc565b602002602001015190508881036109ea57600081815260046020526040902080546001600160a01b03191690558451869086908490811061096c5761096c6116fc565b602090810291909101015282610981816118cf565b600254604051632142170760e11b81529195506001600160a01b031691506342842e0e906109b7903090339086906004016118e6565b600060405180830381600087803b1580156109d157600080fd5b505af11580156109e5573d6000803e3d6000fd5b505050505b5060010161090d565b5080835103610a445760405162461bcd60e51b815260206004820152601b60248201527f6172676f7065747a546f6b656e4964206e6f7420696e2063726577000000000060448201526064016104bc565b60008167ffffffffffffffff811115610a5f57610a5f6114f1565b604051908082528060200260200182016040528015610a88578160200160208202803683370190505b5090506000805b84811015610b045786868281518110610aaa57610aaa6116fc565b602002602001015114610afc57858181518110610ac957610ac96116fc565b6020026020010151838380610add9061190a565b945081518110610aef57610aef6116fc565b6020026020010181815250505b600101610a8f565b5060008781526007602090815260409091208351610b24928501906113ac565b5060408051600080825260208083018085528d835260089091529290209051610b4d92906113ac565b50505050505050505050565b610b61611302565b610b6b600061135c565b565b610b75611302565b6005805460ff1916911515919091179055565b60008181526006602090815260408083205460078352818420805483518186028101860190945280845260609492939192839190830182828015610beb57602002820191906000526020600020905b815481526020019060010190808311610bd7575b5050505050905091509150915091565b8060005b8181101561046357610c61848483818110610c1c57610c1c6116fc565b9050602002810190610c2e919061173d565b35858584818110610c4157610c416116fc565b9050602002810190610c53919061173d565b6103849060208101906117a7565b600101610bff565b60055460ff16610c8b5760405162461bcd60e51b81526004016104bc90611712565b6002546001600160a01b0316610cb35760405162461bcd60e51b81526004016104bc9061188f565b60008381526006602052604090205415610d265760405162461bcd60e51b815260206004820152602e60248201527f7175657374656420616c7265616479207374617274656420666f72205b61726760448201526d6f6e61757420746f6b656e49645d60901b60648201526084016104bc565b600254600160a01b900460ff16811115610d525760405162461bcd60e51b81526004016104bc906117f1565b610d5d838383611113565b600083815260066020526040908190204290819055905184917f9cf69842ab0633697d5e469283f269dbc744d6e296704f7e470181a0e005bb1491610793919086908690611923565b610dae611302565b600180546001600160a01b0319166001600160a01b0392909216919091179055565b6007602052816000526040600020818154811061048557600080fd5b610df4611302565b600280546001600160a01b0319166001600160a01b0392909216919091179055565b610e1e611302565b6001600160a01b038116610e835760405162461bcd60e51b815260206004820152602660248201527f4f776e61626c653a206e6577206f776e657220697320746865207a65726f206160448201526564647265737360d01b60648201526084016104bc565b610e8c8161135c565b50565b600081815260066020526040902054610eba5760405162461bcd60e51b81526004016104bc9061175d565b6000818152600360205260409020546001600160a01b03163314610f165760405162461bcd60e51b81526020600482015260136024820152723737ba1030b933b7b730baba399037bbb732b960691b60448201526064016104bc565b610f1f81610f7a565b60008181526006602052604080822080549290555182907ffa5379006eec3c8c0cffc1c41cc3e046db15af77d7055cffa281a25a0ea7ac3990610f6e9084904290918252602082015260400190565b60405180910390a25050565b60008181526007602052604090208054600181106110965760408051600080825260208201909252905b82811015611073576000848281548110610fc057610fc06116fc565b60009182526020808320909101548083526008825260409092208551929350610fed9290918601906113ac565b50600254600082815260046020819052604091829020549151632142170760e11b81526001600160a01b03938416936342842e0e9361103593309391909216918791016118e6565b600060405180830381600087803b15801561104f57600080fd5b505af1158015611063573d6000803e3d6000fd5b5050505081600101915050610fa4565b5060008481526007602090815260409091208251611093928401906113ac565b50505b60015460008481526003602052604090819020549051632142170760e11b81526001600160a01b03928316926342842e0e926110dc9230929091169088906004016118e6565b600060405180830381600087803b1580156110f657600080fd5b505af115801561110a573d6000803e3d6000fd5b50505050505050565b6000838152600360205260408082208054336001600160a01b031990911617905580516001808252818301909252839291816020016020820280368337019050509050848160008151811061116a5761116a6116fc565b602002602001018181525050600182106112955760005b8281101561127957600085858381811061119d5761119d6116fc565b60209081029290920135600081815260048452604080822080546001600160a01b031916331790556008909452929092208054929350911590506111e4576111e4826107a0565b600254604051632142170760e11b81526001600160a01b03909116906342842e0e90611218903390309087906004016118e6565b600060405180830381600087803b15801561123257600080fd5b505af1158015611246573d6000803e3d6000fd5b5050506000838152600860209081526040909120865161126b935090918701906113ac565b508260010192505050611181565b5060008581526007602052604090206112939085856113f7565b505b600154604051632142170760e11b81526001600160a01b03909116906342842e0e906112c990339030908a906004016118e6565b600060405180830381600087803b1580156112e357600080fd5b505af11580156112f7573d6000803e3d6000fd5b505050505050505050565b6000546001600160a01b03163314610b6b5760405162461bcd60e51b815260206004820181905260248201527f4f776e61626c653a2063616c6c6572206973206e6f7420746865206f776e657260448201526064016104bc565b600080546001600160a01b038381166001600160a01b0319831681178455604051919092169283917f8be0079c531659141344cd1fd0a4f28419497f9722a3daafe3b4186f6b6457e09190a35050565b8280548282559060005260206000209081019282156113e7579160200282015b828111156113e75782518255916020019190600101906113cc565b506113f3929150611432565b5090565b8280548282559060005260206000209081019282156113e7579160200282015b828111156113e7578235825591602001919060010190611417565b5b808211156113f35760008155600101611433565b60008083601f84011261145957600080fd5b50813567ffffffffffffffff81111561147157600080fd5b6020830191508360208260051b850101111561148c57600080fd5b9250929050565b600080602083850312156114a657600080fd5b823567ffffffffffffffff8111156114bd57600080fd5b6114c985828601611447565b90969095509350505050565b80356001600160a01b03811681146114ec57600080fd5b919050565b634e487b7160e01b600052604160045260246000fd5b6000806000806080858703121561151d57600080fd5b611526856114d5565b9350611534602086016114d5565b925060408501359150606085013567ffffffffffffffff8082111561155857600080fd5b818701915087601f83011261156c57600080fd5b81358181111561157e5761157e6114f1565b604051601f8201601f19908116603f011681019083821181831017156115a6576115a66114f1565b816040528281528a60208487010111156115bf57600080fd5b82602086016020830137600060208483010152809550505050505092959194509250565b600080604083850312156115f657600080fd5b50508035926020909101359150565b60008060006040848603121561161a57600080fd5b83359250602084013567ffffffffffffffff81111561163857600080fd5b61164486828701611447565b9497909650939450505050565b60006020828403121561166357600080fd5b5035919050565b60006020828403121561167c57600080fd5b8135801515811461168c57600080fd5b9392505050565b6000604082018483526020604081850152818551808452606086019150828701935060005b818110156116d4578451835293830193918301916001016116b8565b5090979650505050505050565b6000602082840312156116f357600080fd5b61168c826114d5565b634e487b7160e01b600052603260045260246000fd5b60208082526011908201527038bab2b9ba34b733903737ba1037b832b760791b604082015260600190565b60008235603e1983360301811261175357600080fd5b9190910192915050565b6020808252602a908201527f71756573746564206e6f74207374617274656420666f72205b6172676f6e61756040820152697420746f6b656e49645d60b01b606082015260800190565b6000808335601e198436030181126117be57600080fd5b83018035915067ffffffffffffffff8211156117d957600080fd5b6020019150600581901b360382131561148c57600080fd5b60208082526021908201527f746f6f206d616e79206372657773205b6172676f7065747a546f6b656e4964736040820152605d60f81b606082015260800190565b81835260006001600160fb1b0383111561184b57600080fd5b8260051b80836020870137939093016020019392505050565b84815260606020820152600061187e606083018587611832565b905082604083015295945050505050565b60208082526010908201526f185c99dbdc195d1e881b9bdd081cd95d60821b604082015260600190565b634e487b7160e01b600052601160045260246000fd5b6000816118de576118de6118b9565b506000190190565b6001600160a01b039384168152919092166020820152604081019190915260600190565b60006001820161191c5761191c6118b9565b5060010190565b83815260406020820152600061193d604083018486611832565b9594505050505056fea2646970667358221220db3f9eac0f089db4a01ac3e38a37f508e1874bbc267b9c9772e6e69a66df71a664736f6c63430008120033",
  "devdoc": {
    "kind": "dev",
    "methods": {
      "onERC721Received(address,address,uint256,bytes)": {
        "details": "See {IERC721Receiver-onERC721Received}. Always returns `IERC721Receiver.onERC721Received.selector`."
      },
      "owner()": {
        "details": "Returns the address of the current owner."
      },
      "renounceOwnership()": {
        "details": "Leaves the contract without owner. It will not be possible to call `onlyOwner` functions anymore. Can only be called by the current owner. NOTE: Renouncing ownership will leave the contract without an owner, thereby removing any functionality that is only available to the owner."
      },
      "transferOwnership(address)": {
        "details": "Transfers ownership of the contract to a new account (`newOwner`). Can only be called by the current owner."
      }
    },
    "version": 1
  },
  "userdoc": {
    "kind": "user",
    "methods": {},
    "version": 1
  },
  "storageLayout": {
    "storage": [
      {
        "astId": 7,
        "contract": "contracts/ArgoQuest.sol:ArgoQuest",
        "label": "_owner",
        "offset": 0,
        "slot": "0",
        "type": "t_address"
      },
      {
        "astId": 320,
        "contract": "contracts/ArgoQuest.sol:ArgoQuest",
        "label": "argonauts",
        "offset": 0,
        "slot": "1",
        "type": "t_contract(IERC721)228"
      },
      {
        "astId": 323,
        "contract": "contracts/ArgoQuest.sol:ArgoQuest",
        "label": "argopetz",
        "offset": 0,
        "slot": "2",
        "type": "t_contract(IERC721)228"
      },
      {
        "astId": 326,
        "contract": "contracts/ArgoQuest.sol:ArgoQuest",
        "label": "maxCrews",
        "offset": 20,
        "slot": "2",
        "type": "t_uint8"
      },
      {
        "astId": 330,
        "contract": "contracts/ArgoQuest.sol:ArgoQuest",
        "label": "argonautsOwners",
        "offset": 0,
        "slot": "3",
        "type": "t_mapping(t_uint256,t_address)"
      },
      {
        "astId": 334,
        "contract": "contracts/ArgoQuest.sol:ArgoQuest",
        "label": "argopetzOwners",
        "offset": 0,
        "slot": "4",
        "type": "t_mapping(t_uint256,t_address)"
      },
      {
        "astId": 336,
        "contract": "contracts/ArgoQuest.sol:ArgoQuest",
        "label": "canQuest",
        "offset": 0,
        "slot": "5",
        "type": "t_bool"
      },
      {
        "astId": 340,
        "contract": "contracts/ArgoQuest.sol:ArgoQuest",
        "label": "tokensLastQuestedAt",
        "offset": 0,
        "slot": "6",
        "type": "t_mapping(t_uint256,t_uint256)"
      },
      {
        "astId": 345,
        "contract": "contracts/ArgoQuest.sol:ArgoQuest",
        "label": "questCrews",
        "offset": 0,
        "slot": "7",
        "type": "t_mapping(t_uint256,t_array(t_uint256)dyn_storage)"
      },
      {
        "astId": 350,
        "contract": "contracts/ArgoQuest.sol:ArgoQuest",
        "label": "argopetzCrew",
        "offset": 0,
        "slot": "8",
        "type": "t_mapping(t_uint256,t_array(t_uint256)dyn_storage)"
      }
    ],
    "types": {
      "t_address": {
        "encoding": "inplace",
        "label": "address",
        "numberOfBytes": "20"
      },
      "t_array(t_uint256)dyn_storage": {
        "base": "t_uint256",
        "encoding": "dynamic_array",
        "label": "uint256[]",
        "numberOfBytes": "32"
      },
      "t_bool": {
        "encoding": "inplace",
        "label": "bool",
        "numberOfBytes": "1"
      },
      "t_contract(IERC721)228": {
        "encoding": "inplace",
        "label": "contract IERC721",
        "numberOfBytes": "20"
      },
      "t_mapping(t_uint256,t_address)": {
        "encoding": "mapping",
        "key": "t_uint256",
        "label": "mapping(uint256 => address)",
        "numberOfBytes": "32",
        "value": "t_address"
      },
      "t_mapping(t_uint256,t_array(t_uint256)dyn_storage)": {
        "encoding": "mapping",
        "key": "t_uint256",
        "label": "mapping(uint256 => uint256[])",
        "numberOfBytes": "32",
        "value": "t_array(t_uint256)dyn_storage"
      },
      "t_mapping(t_uint256,t_uint256)": {
        "encoding": "mapping",
        "key": "t_uint256",
        "label": "mapping(uint256 => uint256)",
        "numberOfBytes": "32",
        "value": "t_uint256"
      },
      "t_uint256": {
        "encoding": "inplace",
        "label": "uint256",
        "numberOfBytes": "32"
      },
      "t_uint8": {
        "encoding": "inplace",
        "label": "uint8",
        "numberOfBytes": "1"
      }
    }
  }
}