{
  "address": "0xc0958bDE2Ef9Ac061788036D55f31E18eE6B1270",
  "abi": [
    {
      "inputs": [
        {
          "internalType": "string",
          "name": "_name",
          "type": "string"
        },
        {
          "internalType": "string",
          "name": "_symbol",
          "type": "string"
        },
        {
          "internalType": "string",
          "name": "_baseURI",
          "type": "string"
        },
        {
          "internalType": "uint16",
          "name": "maxSupply_",
          "type": "uint16"
        },
        {
          "internalType": "address",
          "name": "withdrawAddress",
          "type": "address"
        },
        {
          "internalType": "address",
          "name": "_whitelistSignerAddress",
          "type": "address"
        },
        {
          "internalType": "uint256",
          "name": "_whitelistMaxMint",
          "type": "uint256"
        },
        {
          "internalType": "uint256",
          "name": "_publicMaxMint",
          "type": "uint256"
        }
      ],
      "stateMutability": "nonpayable",
      "type": "constructor"
    },
    {
      "inputs": [],
      "name": "AlreadyMinted",
      "type": "error"
    },
    {
      "inputs": [],
      "name": "InvalidRecipient",
      "type": "error"
    },
    {
      "inputs": [],
      "name": "InvalidTokenId",
      "type": "error"
    },
    {
      "inputs": [],
      "name": "NotMinted",
      "type": "error"
    },
    {
      "inputs": [],
      "name": "Unauthorized",
      "type": "error"
    },
    {
      "inputs": [],
      "name": "UnsafeRecipient",
      "type": "error"
    },
    {
      "inputs": [],
      "name": "WithdrawFailed",
      "type": "error"
    },
    {
      "inputs": [],
      "name": "WrongFrom",
      "type": "error"
    },
    {
      "inputs": [],
      "name": "ZeroAddress",
      "type": "error"
    },
    {
      "anonymous": false,
      "inputs": [
        {
          "indexed": true,
          "internalType": "address",
          "name": "owner",
          "type": "address"
        },
        {
          "indexed": true,
          "internalType": "address",
          "name": "spender",
          "type": "address"
        },
        {
          "indexed": true,
          "internalType": "uint256",
          "name": "id",
          "type": "uint256"
        }
      ],
      "name": "Approval",
      "type": "event"
    },
    {
      "anonymous": false,
      "inputs": [
        {
          "indexed": true,
          "internalType": "address",
          "name": "owner",
          "type": "address"
        },
        {
          "indexed": true,
          "internalType": "address",
          "name": "operator",
          "type": "address"
        },
        {
          "indexed": false,
          "internalType": "bool",
          "name": "approved",
          "type": "bool"
        }
      ],
      "name": "ApprovalForAll",
      "type": "event"
    },
    {
      "anonymous": false,
      "inputs": [
        {
          "indexed": true,
          "internalType": "address",
          "name": "previousOwner",
          "type": "address"
        },
        {
          "indexed": true,
          "internalType": "address",
          "name": "newOwner",
          "type": "address"
        }
      ],
      "name": "OwnershipTransferred",
      "type": "event"
    },
    {
      "anonymous": false,
      "inputs": [
        {
          "indexed": true,
          "internalType": "address",
          "name": "from",
          "type": "address"
        },
        {
          "indexed": true,
          "internalType": "address",
          "name": "to",
          "type": "address"
        },
        {
          "indexed": true,
          "internalType": "uint256",
          "name": "id",
          "type": "uint256"
        }
      ],
      "name": "Transfer",
      "type": "event"
    },
    {
      "inputs": [],
      "name": "MAX_SUPPLY",
      "outputs": [
        {
          "internalType": "uint16",
          "name": "",
          "type": "uint16"
        }
      ],
      "stateMutability": "view",
      "type": "function"
    },
    {
      "inputs": [],
      "name": "PUBLIC_MAX_MINT",
      "outputs": [
        {
          "internalType": "uint256",
          "name": "",
          "type": "uint256"
        }
      ],
      "stateMutability": "view",
      "type": "function"
    },
    {
      "inputs": [],
      "name": "WHITELIST_MAX_MINT",
      "outputs": [
        {
          "internalType": "uint256",
          "name": "",
          "type": "uint256"
        }
      ],
      "stateMutability": "view",
      "type": "function"
    },
    {
      "inputs": [],
      "name": "WHITELIST_SIGNER_ADDRESS",
      "outputs": [
        {
          "internalType": "address",
          "name": "",
          "type": "address"
        }
      ],
      "stateMutability": "view",
      "type": "function"
    },
    {
      "inputs": [],
      "name": "WITHDRAW_ADDRESS",
      "outputs": [
        {
          "internalType": "address",
          "name": "",
          "type": "address"
        }
      ],
      "stateMutability": "view",
      "type": "function"
    },
    {
      "inputs": [
        {
          "internalType": "address",
          "name": "spender",
          "type": "address"
        },
        {
          "internalType": "uint256",
          "name": "id",
          "type": "uint256"
        }
      ],
      "name": "approve",
      "outputs": [],
      "stateMutability": "nonpayable",
      "type": "function"
    },
    {
      "inputs": [],
      "name": "availableTokenCount",
      "outputs": [
        {
          "internalType": "uint256",
          "name": "",
          "type": "uint256"
        }
      ],
      "stateMutability": "view",
      "type": "function"
    },
    {
      "inputs": [
        {
          "internalType": "address",
          "name": "owner",
          "type": "address"
        }
      ],
      "name": "balanceOf",
      "outputs": [
        {
          "internalType": "uint256",
          "name": "",
          "type": "uint256"
        }
      ],
      "stateMutability": "view",
      "type": "function"
    },
    {
      "inputs": [],
      "name": "baseURI",
      "outputs": [
        {
          "internalType": "string",
          "name": "",
          "type": "string"
        }
      ],
      "stateMutability": "view",
      "type": "function"
    },
    {
      "inputs": [],
      "name": "currentSupply",
      "outputs": [
        {
          "internalType": "uint256",
          "name": "",
          "type": "uint256"
        }
      ],
      "stateMutability": "view",
      "type": "function"
    },
    {
      "inputs": [
        {
          "internalType": "uint256",
          "name": "",
          "type": "uint256"
        }
      ],
      "name": "getApproved",
      "outputs": [
        {
          "internalType": "address",
          "name": "",
          "type": "address"
        }
      ],
      "stateMutability": "view",
      "type": "function"
    },
    {
      "inputs": [
        {
          "internalType": "address",
          "name": "",
          "type": "address"
        },
        {
          "internalType": "address",
          "name": "",
          "type": "address"
        }
      ],
      "name": "isApprovedForAll",
      "outputs": [
        {
          "internalType": "bool",
          "name": "",
          "type": "bool"
        }
      ],
      "stateMutability": "view",
      "type": "function"
    },
    {
      "inputs": [],
      "name": "name",
      "outputs": [
        {
          "internalType": "string",
          "name": "",
          "type": "string"
        }
      ],
      "stateMutability": "view",
      "type": "function"
    },
    {
      "inputs": [],
      "name": "owner",
      "outputs": [
        {
          "internalType": "address",
          "name": "",
          "type": "address"
        }
      ],
      "stateMutability": "view",
      "type": "function"
    },
    {
      "inputs": [
        {
          "internalType": "uint256",
          "name": "id",
          "type": "uint256"
        }
      ],
      "name": "ownerOf",
      "outputs": [
        {
          "internalType": "address",
          "name": "owner",
          "type": "address"
        }
      ],
      "stateMutability": "view",
      "type": "function"
    },
    {
      "inputs": [
        {
          "internalType": "uint256",
          "name": "_amount",
          "type": "uint256"
        }
      ],
      "name": "publicMint",
      "outputs": [],
      "stateMutability": "payable",
      "type": "function"
    },
    {
      "inputs": [
        {
          "internalType": "address",
          "name": "",
          "type": "address"
        }
      ],
      "name": "publicMintCount",
      "outputs": [
        {
          "internalType": "uint256",
          "name": "",
          "type": "uint256"
        }
      ],
      "stateMutability": "view",
      "type": "function"
    },
    {
      "inputs": [],
      "name": "publicMintPrice",
      "outputs": [
        {
          "internalType": "uint256",
          "name": "",
          "type": "uint256"
        }
      ],
      "stateMutability": "view",
      "type": "function"
    },
    {
      "inputs": [],
      "name": "renounceOwnership",
      "outputs": [],
      "stateMutability": "nonpayable",
      "type": "function"
    },
    {
      "inputs": [
        {
          "internalType": "uint256",
          "name": "tokenId",
          "type": "uint256"
        },
        {
          "internalType": "uint256",
          "name": "salePrice",
          "type": "uint256"
        }
      ],
      "name": "royaltyInfo",
      "outputs": [
        {
          "internalType": "address",
          "name": "",
          "type": "address"
        },
        {
          "internalType": "uint256",
          "name": "",
          "type": "uint256"
        }
      ],
      "stateMutability": "view",
      "type": "function"
    },
    {
      "inputs": [
        {
          "internalType": "address",
          "name": "from",
          "type": "address"
        },
        {
          "internalType": "address",
          "name": "to",
          "type": "address"
        },
        {
          "internalType": "uint256",
          "name": "id",
          "type": "uint256"
        }
      ],
      "name": "safeTransferFrom",
      "outputs": [],
      "stateMutability": "nonpayable",
      "type": "function"
    },
    {
      "inputs": [
        {
          "internalType": "address",
          "name": "from",
          "type": "address"
        },
        {
          "internalType": "address",
          "name": "to",
          "type": "address"
        },
        {
          "internalType": "uint256",
          "name": "id",
          "type": "uint256"
        },
        {
          "internalType": "bytes",
          "name": "data",
          "type": "bytes"
        }
      ],
      "name": "safeTransferFrom",
      "outputs": [],
      "stateMutability": "nonpayable",
      "type": "function"
    },
    {
      "inputs": [
        {
          "internalType": "address",
          "name": "operator",
          "type": "address"
        },
        {
          "internalType": "bool",
          "name": "approved",
          "type": "bool"
        }
      ],
      "name": "setApprovalForAll",
      "outputs": [],
      "stateMutability": "nonpayable",
      "type": "function"
    },
    {
      "inputs": [
        {
          "internalType": "string",
          "name": "_baseURI_",
          "type": "string"
        }
      ],
      "name": "setBaseURI",
      "outputs": [],
      "stateMutability": "nonpayable",
      "type": "function"
    },
    {
      "inputs": [
        {
          "internalType": "address",
          "name": "receiver",
          "type": "address"
        },
        {
          "internalType": "uint96",
          "name": "feeNumerator",
          "type": "uint96"
        }
      ],
      "name": "setDefaultRoyalty",
      "outputs": [],
      "stateMutability": "nonpayable",
      "type": "function"
    },
    {
      "inputs": [
        {
          "internalType": "string",
          "name": "_newName",
          "type": "string"
        },
        {
          "internalType": "string",
          "name": "_newSymbol",
          "type": "string"
        }
      ],
      "name": "setNameAndSymbol",
      "outputs": [],
      "stateMutability": "nonpayable",
      "type": "function"
    },
    {
      "inputs": [
        {
          "internalType": "uint256",
          "name": "_publicMintPrice",
          "type": "uint256"
        }
      ],
      "name": "setPublicMintPrice",
      "outputs": [],
      "stateMutability": "nonpayable",
      "type": "function"
    },
    {
      "inputs": [
        {
          "internalType": "uint8",
          "name": "_newStage",
          "type": "uint8"
        }
      ],
      "name": "setStage",
      "outputs": [],
      "stateMutability": "nonpayable",
      "type": "function"
    },
    {
      "inputs": [
        {
          "internalType": "uint256",
          "name": "tokenId",
          "type": "uint256"
        },
        {
          "internalType": "address",
          "name": "receiver",
          "type": "address"
        },
        {
          "internalType": "uint96",
          "name": "feeNumerator",
          "type": "uint96"
        }
      ],
      "name": "setTokenRoyalty",
      "outputs": [],
      "stateMutability": "nonpayable",
      "type": "function"
    },
    {
      "inputs": [
        {
          "internalType": "uint256",
          "name": "_whitelistMintPrice",
          "type": "uint256"
        }
      ],
      "name": "setWhitelistMintPrice",
      "outputs": [],
      "stateMutability": "nonpayable",
      "type": "function"
    },
    {
      "inputs": [],
      "name": "stage",
      "outputs": [
        {
          "internalType": "uint8",
          "name": "",
          "type": "uint8"
        }
      ],
      "stateMutability": "view",
      "type": "function"
    },
    {
      "inputs": [
        {
          "internalType": "bytes4",
          "name": "interfaceId",
          "type": "bytes4"
        }
      ],
      "name": "supportsInterface",
      "outputs": [
        {
          "internalType": "bool",
          "name": "",
          "type": "bool"
        }
      ],
      "stateMutability": "view",
      "type": "function"
    },
    {
      "inputs": [],
      "name": "symbol",
      "outputs": [
        {
          "internalType": "string",
          "name": "",
          "type": "string"
        }
      ],
      "stateMutability": "view",
      "type": "function"
    },
    {
      "inputs": [],
      "name": "tokenCount",
      "outputs": [
        {
          "internalType": "uint256",
          "name": "",
          "type": "uint256"
        }
      ],
      "stateMutability": "view",
      "type": "function"
    },
    {
      "inputs": [
        {
          "internalType": "uint256",
          "name": "tokenId",
          "type": "uint256"
        }
      ],
      "name": "tokenURI",
      "outputs": [
        {
          "internalType": "string",
          "name": "",
          "type": "string"
        }
      ],
      "stateMutability": "view",
      "type": "function"
    },
    {
      "inputs": [],
      "name": "totalMaxSupply",
      "outputs": [
        {
          "internalType": "uint256",
          "name": "",
          "type": "uint256"
        }
      ],
      "stateMutability": "view",
      "type": "function"
    },
    {
      "inputs": [],
      "name": "totalSupply",
      "outputs": [
        {
          "internalType": "uint256",
          "name": "",
          "type": "uint256"
        }
      ],
      "stateMutability": "view",
      "type": "function"
    },
    {
      "inputs": [
        {
          "internalType": "address",
          "name": "from",
          "type": "address"
        },
        {
          "internalType": "address",
          "name": "to",
          "type": "address"
        },
        {
          "internalType": "uint256",
          "name": "id",
          "type": "uint256"
        }
      ],
      "name": "transferFrom",
      "outputs": [],
      "stateMutability": "nonpayable",
      "type": "function"
    },
    {
      "inputs": [
        {
          "internalType": "address",
          "name": "newOwner",
          "type": "address"
        }
      ],
      "name": "transferOwnership",
      "outputs": [],
      "stateMutability": "nonpayable",
      "type": "function"
    },
    {
      "inputs": [
        {
          "internalType": "uint256",
          "name": "_amount",
          "type": "uint256"
        },
        {
          "internalType": "bytes",
          "name": "nonce",
          "type": "bytes"
        },
        {
          "internalType": "bytes",
          "name": "signature",
          "type": "bytes"
        }
      ],
      "name": "whitelistMint",
      "outputs": [],
      "stateMutability": "payable",
      "type": "function"
    },
    {
      "inputs": [
        {
          "internalType": "address",
          "name": "",
          "type": "address"
        }
      ],
      "name": "whitelistMintCount",
      "outputs": [
        {
          "internalType": "uint256",
          "name": "",
          "type": "uint256"
        }
      ],
      "stateMutability": "view",
      "type": "function"
    },
    {
      "inputs": [],
      "name": "whitelistMintPrice",
      "outputs": [
        {
          "internalType": "uint256",
          "name": "",
          "type": "uint256"
        }
      ],
      "stateMutability": "view",
      "type": "function"
    },
    {
      "inputs": [],
      "name": "withdraw",
      "outputs": [],
      "stateMutability": "nonpayable",
      "type": "function"
    }
  ],
  "transactionHash": "0x5cff60a41d0bade978f697f7d90c6edfdc9fc820f8812fb9bf3b3aa5dc5eb056",
  "args": [
    "Mock Minion",
    "Minion",
    "https://testnet-api.argopetz.com/api/v1/argopetz/",
    8888,
    "0x865F4c222D7B23365C7Eb2F4f74d1a2533CD663E",
    "0x6A952f966c5DcC36A094c8AB141f027fb58F864e",
    9999,
    9999
  ],
  "numDeployments": 5,
  "solcInputHash": "eb3d9eca6ffbc7a3e6cfb7ebcd60c493",
  "bytecode": "0x610120604052600060105560006011553480156200001c57600080fd5b5060405162002f2338038062002f238339810160408190526200003f916200027c565b61ffff85166006818a8a6000620000578382620003e7565b506001620000668282620003e7565b505050600955600b55506200007b33620000b8565b61ffff85166080526200008e866200010a565b6001600160a01b0393841660e052919092166101005260c09190915260a05250620004b392505050565b600c80546001600160a01b038381166001600160a01b0319831681179093556040519116919082907f8be0079c531659141344cd1fd0a4f28419497f9722a3daafe3b4186f6b6457e090600090a35050565b6200011462000126565b6013620001228282620003e7565b5050565b600c546001600160a01b03163314620001855760405162461bcd60e51b815260206004820181905260248201527f4f776e61626c653a2063616c6c6572206973206e6f7420746865206f776e6572604482015260640160405180910390fd5b565b634e487b7160e01b600052604160045260246000fd5b600082601f830112620001af57600080fd5b81516001600160401b0380821115620001cc57620001cc62000187565b604051601f8301601f19908116603f01168101908282118183101715620001f757620001f762000187565b816040528381526020925086838588010111156200021457600080fd5b600091505b8382101562000238578582018301518183018401529082019062000219565b600093810190920192909252949350505050565b805161ffff811681146200025f57600080fd5b919050565b80516001600160a01b03811681146200025f57600080fd5b600080600080600080600080610100898b0312156200029a57600080fd5b88516001600160401b0380821115620002b257600080fd5b620002c08c838d016200019d565b995060208b0151915080821115620002d757600080fd5b620002e58c838d016200019d565b985060408b0151915080821115620002fc57600080fd5b506200030b8b828c016200019d565b9650506200031c60608a016200024c565b94506200032c60808a0162000264565b93506200033c60a08a0162000264565b60c08a015160e0909a0151989b979a5095989497939692505050565b600181811c908216806200036d57607f821691505b6020821081036200038e57634e487b7160e01b600052602260045260246000fd5b50919050565b601f821115620003e257600081815260208120601f850160051c81016020861015620003bd5750805b601f850160051c820191505b81811015620003de57828155600101620003c9565b5050505b505050565b81516001600160401b0381111562000403576200040362000187565b6200041b8162000414845462000358565b8462000394565b602080601f8311600181146200045357600084156200043a5750858301515b600019600386901b1c1916600185901b178555620003de565b600085815260208120601f198616915b82811015620004845788860151825594840194600190910190840162000463565b5085821015620004a35787850151600019600388901b60f8161c191681555b5050505050600190811b01905550565b60805160a05160c05160e05161010051612a01620005226000396000818161069b015261183901526000818161035a015261114e0152600081816107230152610d200152600081816106ef015261104501526000818161043201528181610c750152610f980152612a016000f3fe60806040526004361061025c5760003560e01c80636c0360eb11610144578063a611708e116100b6578063c87b56dd1161007a578063c87b56dd14610791578063ce3cd997146107b1578063dc53fd92146107d1578063e14ca353146107e7578063e985e9c5146107fc578063f2fde38b1461083757600080fd5b8063a611708e146106bd578063a7346780146106dd578063aeb1676814610711578063b88d4fde14610745578063c040e6b81461076557600080fd5b806395d89b411161010857806395d89b41146105fd57806396330b5f146106125780639f181b5e1461063f578063a0617ad014610654578063a22cb46514610669578063a591c4cb1461068957600080fd5b80636c0360eb1461057f57806370a0823114610594578063715018a6146105b4578063771282f6146105c95780638da5cb5b146105df57600080fd5b80632db11544116101dd57806342842e0e116101a157806342842e0e146104bf57806355f804b3146104df5780635944c753146104ff5780635a4462151461051f5780635d82cf6e1461053f5780636352211e1461055f57600080fd5b80632db115441461040d57806332cb6b0c1461042057806335c6aaf8146104675780633bdf4ac61461047d5780633ccfd60b146104aa57600080fd5b8063122e04a811610224578063122e04a81461034857806318160ddd1461037c57806323b872dd1461039b57806324436f77146103bb5780632a55205a146103ce57600080fd5b806301ffc9a71461026157806304634d8d1461029657806306fdde03146102b8578063081812fc146102da578063095ea7b314610328575b600080fd5b34801561026d57600080fd5b5061028161027c3660046120fb565b610857565b60405190151581526020015b60405180910390f35b3480156102a257600080fd5b506102b66102b136600461214d565b610877565b005b3480156102c457600080fd5b506102cd61088d565b60405161028d91906121a4565b3480156102e657600080fd5b506103106102f53660046121d7565b6004602052600090815260409020546001600160a01b031681565b6040516001600160a01b03909116815260200161028d565b34801561033457600080fd5b506102b66103433660046121f0565b61091b565b34801561035457600080fd5b506103107f000000000000000000000000000000000000000000000000000000000000000081565b34801561038857600080fd5b50600d545b60405190815260200161028d565b3480156103a757600080fd5b506102b66103b636600461221a565b6109e0565b6102b66103c9366004612298565b610b4d565b3480156103da57600080fd5b506103ee6103e9366004612312565b610e38565b604080516001600160a01b03909316835260208301919091520161028d565b6102b661041b3660046121d7565b610ee6565b34801561042c57600080fd5b506104547f000000000000000000000000000000000000000000000000000000000000000081565b60405161ffff909116815260200161028d565b34801561047357600080fd5b5061038d60105481565b34801561048957600080fd5b5061038d610498366004612334565b600e6020526000908152604090205481565b3480156104b657600080fd5b506102b661114a565b3480156104cb57600080fd5b506102b66104da36600461221a565b6111e1565b3480156104eb57600080fd5b506102b66104fa366004612365565b6112b4565b34801561050b57600080fd5b506102b661051a366004612416565b6112c8565b34801561052b57600080fd5b506102b661053a366004612452565b6112db565b34801561054b57600080fd5b506102b661055a3660046121d7565b611305565b34801561056b57600080fd5b5061031061057a3660046121d7565b611312565b34801561058b57600080fd5b506102cd61134d565b3480156105a057600080fd5b5061038d6105af366004612334565b61135a565b3480156105c057600080fd5b506102b661139f565b3480156105d557600080fd5b5061038d600d5481565b3480156105eb57600080fd5b50600c546001600160a01b0316610310565b34801561060957600080fd5b506102cd6113b3565b34801561061e57600080fd5b5061038d61062d366004612334565b600f6020526000908152604090205481565b34801561064b57600080fd5b5061038d6113c0565b34801561066057600080fd5b5060095461038d565b34801561067557600080fd5b506102b66106843660046124be565b6113d0565b34801561069557600080fd5b506103107f000000000000000000000000000000000000000000000000000000000000000081565b3480156106c957600080fd5b506102b66106d83660046121d7565b61143c565b3480156106e957600080fd5b5061038d7f000000000000000000000000000000000000000000000000000000000000000081565b34801561071d57600080fd5b5061038d7f000000000000000000000000000000000000000000000000000000000000000081565b34801561075157600080fd5b506102b66107603660046124fa565b611449565b34801561077157600080fd5b5060125461077f9060ff1681565b60405160ff909116815260200161028d565b34801561079d57600080fd5b506102cd6107ac3660046121d7565b611505565b3480156107bd57600080fd5b506102b66107cc366004612558565b61156f565b3480156107dd57600080fd5b5061038d60115481565b3480156107f357600080fd5b5061038d61158d565b34801561080857600080fd5b5061028161081736600461257b565b600560209081526000928352604080842090915290825290205460ff1681565b34801561084357600080fd5b506102b6610852366004612334565b6115a4565b60006108628261161a565b80610871575061087182611668565b92915050565b61087f61169d565b61088982826116f7565b5050565b6000805461089a906125a5565b80601f01602080910402602001604051908101604052809291908181526020018280546108c6906125a5565b80156109135780601f106108e857610100808354040283529160200191610913565b820191906000526020600020905b8154815290600101906020018083116108f657829003601f168201915b505050505081565b6000818152600260205260409020546001600160a01b031633811480159061096757506001600160a01b038116600090815260056020908152604080832033845290915290205460ff16155b15610984576040516282b42960e81b815260040160405180910390fd5b60008281526004602052604080822080546001600160a01b0319166001600160a01b0387811691821790925591518593918516917f8c5be1e5ebec7d5bd14f71427d1e84f3dd0314c0f7b2291e5b200ac8c7c3b92591a4505050565b6000818152600260205260409020546001600160a01b03848116911614610a1a5760405163c6de3f2560e01b815260040160405180910390fd5b6001600160a01b038216610a4157604051634e46966960e11b815260040160405180910390fd5b336001600160a01b03841614801590610a7e57506001600160a01b038316600090815260056020908152604080832033845290915290205460ff16155b8015610aa157506000818152600460205260409020546001600160a01b03163314155b15610abe576040516282b42960e81b815260040160405180910390fd5b6001600160a01b0380841660008181526003602090815260408083208054600019019055938616808352848320805460010190558583526002825284832080546001600160a01b03199081168317909155600490925284832080549092169091559251849392917fddf252ad1be2c89b69c2b068fc378daa952ba7f163c4a11628f55a4df523b3ef91a4505050565b601254610b66903390869086908690869060ff166117b1565b610bb75760405162461bcd60e51b815260206004820152601c60248201527f4172676f5065747a3a20496e76616c6964205369676e6174757265210000000060448201526064015b60405180910390fd5b60125460ff16600114610c185760405162461bcd60e51b8152602060048201526024808201527f4172676f5065747a3a2057686974656c697374204d696e74206973206e6f742060448201526337b832b760e11b6064820152608401610bae565b601054610c2590866125f5565b3414610c735760405162461bcd60e51b815260206004820152601b60248201527f4172676f5065747a3a20496e73756666696369656e742043524f2100000000006044820152606401610bae565b7f000000000000000000000000000000000000000000000000000000000000000061ffff1685610ca2600d5490565b610cac919061260c565b1115610d0e5760405162461bcd60e51b815260206004820152602b60248201527f4172676f5065747a3a204578636565646564204d617820537570706c7920666f60448201526a72204172676f5065747a2160a81b6064820152608401610bae565b336000908152600e60205260409020547f000000000000000000000000000000000000000000000000000000000000000090610d4b90879061260c565b1115610dca5760405162461bcd60e51b815260206004820152604260248201527f4172676f5065747a3a2057616c6c65742068617320616c7265616479206d696e60448201527f746564204d617820416d6f756e7420666f722057686974656c697374204d696e606482015261742160f01b608482015260a401610bae565b84600d6000828254610ddc919061260c565b9091555050336000908152600e602052604081208054879290610e0090849061260c565b90915550600090505b85811015610e30576000610e1b61186f565b9050610e273382611a08565b50600101610e09565b505050505050565b60008281526007602090815260408083208151808301909252546001600160a01b038116808352600160a01b9091046001600160601b0316928201929092528291610ead5750604080518082019091526006546001600160a01b0381168252600160a01b90046001600160601b031660208201525b602081015160009061271090610ecc906001600160601b0316876125f5565b610ed69190612635565b91519350909150505b9250929050565b60125460ff16600214610f3b5760405162461bcd60e51b815260206004820152601d60248201527f4172676f5065747a3a205075626c69632053616c6520436c6f736564210000006044820152606401610bae565b601154610f4890826125f5565b3414610f965760405162461bcd60e51b815260206004820152601b60248201527f4172676f5065747a3a20496e73756666696369656e742043524f2100000000006044820152606401610bae565b7f000000000000000000000000000000000000000000000000000000000000000061ffff1681610fc5600d5490565b610fcf919061260c565b11156110335760405162461bcd60e51b815260206004820152602d60248201527f4172676f5065747a3a204d617820537570706c7920666f72205075626c69632060448201526c4d696e7420526561636865642160981b6064820152608401610bae565b336000908152600f60205260409020547f00000000000000000000000000000000000000000000000000000000000000009061107090839061260c565b11156110e45760405162461bcd60e51b815260206004820152603f60248201527f4172676f5065747a3a2057616c6c65742068617320616c7265616479206d696e60448201527f746564204d617820416d6f756e7420666f72205075626c6963204d696e7421006064820152608401610bae565b80600d60008282546110f6919061260c565b9091555050336000908152600f60205260408120805483929061111a90849061260c565b90915550600090505b8181101561088957600061113561186f565b90506111413382611a08565b50600101611123565b60007f00000000000000000000000000000000000000000000000000000000000000006001600160a01b03164760405160006040518083038185875af1925050503d80600081146111b7576040519150601f19603f3d011682016040523d82523d6000602084013e6111bc565b606091505b50509050806111de57604051631d42c86760e21b815260040160405180910390fd5b50565b6111ec8383836109e0565b6001600160a01b0382163b156112af57604051630a85bd0160e11b8082523360048301526001600160a01b03858116602484015260448301849052608060648401526000608484015290919084169063150b7a029060a4016020604051808303816000875af1158015611263573d6000803e3d6000fd5b505050506040513d601f19601f820116820180604052508101906112879190612649565b6001600160e01b031916146112af57604051633da6393160e01b815260040160405180910390fd5b505050565b6112bc61169d565b601361088982826126ac565b6112d061169d565b6112af838383611ad2565b6112e361169d565b60006112f084868361276c565b5060016112fe82848361276c565b5050505050565b61130d61169d565b601155565b6000818152600260205260409020546001600160a01b03168061134857604051634d5e5fb360e01b815260040160405180910390fd5b919050565b6013805461089a906125a5565b60006001600160a01b0382166113835760405163d92e233d60e01b815260040160405180910390fd5b506001600160a01b031660009081526003602052604090205490565b6113a761169d565b6113b16000611b9d565b565b6001805461089a906125a5565b60006113cb60085490565b905090565b3360008181526005602090815260408083206001600160a01b03871680855290835292819020805460ff191686151590811790915590519081529192917f17307eab39ab6107e8899845ad3d59bd9653f200f220920489ca2b5937696c31910160405180910390a35050565b61144461169d565b601055565b6114548585856109e0565b6001600160a01b0384163b156112fe57604051630a85bd0160e11b808252906001600160a01b0386169063150b7a029061149a9033908a9089908990899060040161282c565b6020604051808303816000875af11580156114b9573d6000803e3d6000fd5b505050506040513d601f19601f820116820180604052508101906114dd9190612649565b6001600160e01b031916146112fe57604051633da6393160e01b815260040160405180910390fd5b6000818152600260205260409020546060906001600160a01b031661153d576040516307ed98ed60e31b815260040160405180910390fd5b601361154883611bef565b604051602001611559929190612880565b6040516020818303038152906040529050919050565b61157761169d565b6012805460ff191660ff92909216919091179055565b60006115976113c0565b6009546113cb9190612907565b6115ac61169d565b6001600160a01b0381166116115760405162461bcd60e51b815260206004820152602660248201527f4f776e61626c653a206e6577206f776e657220697320746865207a65726f206160448201526564647265737360d01b6064820152608401610bae565b6111de81611b9d565b60006301ffc9a760e01b6001600160e01b03198316148061164b57506380ac58cd60e01b6001600160e01b03198316145b806108715750506001600160e01b031916635b5e139f60e01b1490565b60006001600160e01b0319821663152a902d60e11b148061087157506301ffc9a760e01b6001600160e01b0319831614610871565b600c546001600160a01b031633146113b15760405162461bcd60e51b815260206004820181905260248201527f4f776e61626c653a2063616c6c6572206973206e6f7420746865206f776e65726044820152606401610bae565b6127106001600160601b03821611156117225760405162461bcd60e51b8152600401610bae9061291a565b6001600160a01b0382166117785760405162461bcd60e51b815260206004820152601960248201527f455243323938313a20696e76616c6964207265636569766572000000000000006044820152606401610bae565b604080518082019091526001600160a01b039092168083526001600160601b039091166020909201829052600160a01b90910217600655565b600080878787856040516020016117cb9493929190612964565b60405160208183030381529060405280519060200120905061182e85858080601f0160208091040260200160405190810160405280939291908181526020018383808284376000920191909152506118289250859150611c829050565b90611cb5565b6001600160a01b03167f00000000000000000000000000000000000000000000000000000000000000006001600160a01b0316149150509695505050505050565b60008061187a61158d565b116118c75760405162461bcd60e51b815260206004820152601860248201527f4e6f206d6f726520746f6b656e7320617661696c61626c6500000000000000006044820152606401610bae565b60006118d16113c0565b6009546118de9190612907565b6040516bffffffffffffffffffffffff1933606090811b8216602084015241901b166034820152446048820152456068820152426088820152909150600090829060a8016040516020818303038152906040528051906020012060001c61194591906129a1565b6000818152600a6020526040812054919250908103611965575080611976565b506000818152600a60205260409020545b600a6000611985600186612907565b8152602001908152602001600020546000036119ba576119a6600184612907565b6000838152600a60205260409020556119ea565b600a60006119c9600186612907565b81526020808201929092526040908101600090812054858252600a90935220555b6119f2611cd9565b50600b54611a00908261260c565b935050505090565b611a128282611cf5565b6001600160a01b0382163b1561088957604051630a85bd0160e11b80825233600483015260006024830181905260448301849052608060648401526084830152906001600160a01b0384169063150b7a029060a4016020604051808303816000875af1158015611a86573d6000803e3d6000fd5b505050506040513d601f19601f82011682018060405250810190611aaa9190612649565b6001600160e01b0319161461088957604051633da6393160e01b815260040160405180910390fd5b6127106001600160601b0382161115611afd5760405162461bcd60e51b8152600401610bae9061291a565b6001600160a01b038216611b535760405162461bcd60e51b815260206004820152601b60248201527f455243323938313a20496e76616c696420706172616d657465727300000000006044820152606401610bae565b6040805180820182526001600160a01b0393841681526001600160601b0392831660208083019182526000968752600790529190942093519051909116600160a01b029116179055565b600c80546001600160a01b038381166001600160a01b0319831681179093556040519116919082907f8be0079c531659141344cd1fd0a4f28419497f9722a3daafe3b4186f6b6457e090600090a35050565b60606000611bfc83611dbd565b600101905060008167ffffffffffffffff811115611c1c57611c1c61234f565b6040519080825280601f01601f191660200182016040528015611c46576020820181803683370190505b5090508181016020015b600019016f181899199a1a9b1b9c1cb0b131b232b360811b600a86061a8153600a8504945084611c5057509392505050565b7f19457468657265756d205369676e6564204d6573736167653a0a3332000000006000908152601c91909152603c902090565b6000806000611cc48585611e95565b91509150611cd181611ed7565b509392505050565b600080611ce560085490565b9050611348600880546001019055565b6001600160a01b038216611d1c57604051634e46966960e11b815260040160405180910390fd5b6000818152600260205260409020546001600160a01b031615611d5257604051631bbdf5c560e31b815260040160405180910390fd5b6001600160a01b038216600081815260036020908152604080832080546001019055848352600290915280822080546001600160a01b0319168417905551839291907fddf252ad1be2c89b69c2b068fc378daa952ba7f163c4a11628f55a4df523b3ef908290a45050565b60008072184f03e93ff9f4daa797ed6e38ed64bf6a1f0160401b8310611dfc5772184f03e93ff9f4daa797ed6e38ed64bf6a1f0160401b830492506040015b6d04ee2d6d415b85acef81000000008310611e28576d04ee2d6d415b85acef8100000000830492506020015b662386f26fc100008310611e4657662386f26fc10000830492506010015b6305f5e1008310611e5e576305f5e100830492506008015b6127108310611e7257612710830492506004015b60648310611e84576064830492506002015b600a83106108715760010192915050565b6000808251604103611ecb5760208301516040840151606085015160001a611ebf87828585612021565b94509450505050610edf565b50600090506002610edf565b6000816004811115611eeb57611eeb6129b5565b03611ef35750565b6001816004811115611f0757611f076129b5565b03611f545760405162461bcd60e51b815260206004820152601860248201527f45434453413a20696e76616c6964207369676e617475726500000000000000006044820152606401610bae565b6002816004811115611f6857611f686129b5565b03611fb55760405162461bcd60e51b815260206004820152601f60248201527f45434453413a20696e76616c6964207369676e6174757265206c656e677468006044820152606401610bae565b6003816004811115611fc957611fc96129b5565b036111de5760405162461bcd60e51b815260206004820152602260248201527f45434453413a20696e76616c6964207369676e6174757265202773272076616c604482015261756560f01b6064820152608401610bae565b6000807f7fffffffffffffffffffffffffffffff5d576e7357a4501ddfe92f46681b20a083111561205857506000905060036120dc565b6040805160008082526020820180845289905260ff881692820192909252606081018690526080810185905260019060a0016020604051602081039080840390855afa1580156120ac573d6000803e3d6000fd5b5050604051601f1901519150506001600160a01b0381166120d5576000600192509250506120dc565b9150600090505b94509492505050565b6001600160e01b0319811681146111de57600080fd5b60006020828403121561210d57600080fd5b8135612118816120e5565b9392505050565b80356001600160a01b038116811461134857600080fd5b80356001600160601b038116811461134857600080fd5b6000806040838503121561216057600080fd5b6121698361211f565b915061217760208401612136565b90509250929050565b60005b8381101561219b578181015183820152602001612183565b50506000910152565b60208152600082518060208401526121c3816040850160208701612180565b601f01601f19169190910160400192915050565b6000602082840312156121e957600080fd5b5035919050565b6000806040838503121561220357600080fd5b61220c8361211f565b946020939093013593505050565b60008060006060848603121561222f57600080fd5b6122388461211f565b92506122466020850161211f565b9150604084013590509250925092565b60008083601f84011261226857600080fd5b50813567ffffffffffffffff81111561228057600080fd5b602083019150836020828501011115610edf57600080fd5b6000806000806000606086880312156122b057600080fd5b85359450602086013567ffffffffffffffff808211156122cf57600080fd5b6122db89838a01612256565b909650945060408801359150808211156122f457600080fd5b5061230188828901612256565b969995985093965092949392505050565b6000806040838503121561232557600080fd5b50508035926020909101359150565b60006020828403121561234657600080fd5b6121188261211f565b634e487b7160e01b600052604160045260246000fd5b60006020828403121561237757600080fd5b813567ffffffffffffffff8082111561238f57600080fd5b818401915084601f8301126123a357600080fd5b8135818111156123b5576123b561234f565b604051601f8201601f19908116603f011681019083821181831017156123dd576123dd61234f565b816040528281528760208487010111156123f657600080fd5b826020860160208301376000928101602001929092525095945050505050565b60008060006060848603121561242b57600080fd5b8335925061243b6020850161211f565b915061244960408501612136565b90509250925092565b6000806000806040858703121561246857600080fd5b843567ffffffffffffffff8082111561248057600080fd5b61248c88838901612256565b909650945060208701359150808211156124a557600080fd5b506124b287828801612256565b95989497509550505050565b600080604083850312156124d157600080fd5b6124da8361211f565b9150602083013580151581146124ef57600080fd5b809150509250929050565b60008060008060006080868803121561251257600080fd5b61251b8661211f565b94506125296020870161211f565b935060408601359250606086013567ffffffffffffffff81111561254c57600080fd5b61230188828901612256565b60006020828403121561256a57600080fd5b813560ff8116811461211857600080fd5b6000806040838503121561258e57600080fd5b6125978361211f565b91506121776020840161211f565b600181811c908216806125b957607f821691505b6020821081036125d957634e487b7160e01b600052602260045260246000fd5b50919050565b634e487b7160e01b600052601160045260246000fd5b8082028115828204841417610871576108716125df565b80820180821115610871576108716125df565b634e487b7160e01b600052601260045260246000fd5b6000826126445761264461261f565b500490565b60006020828403121561265b57600080fd5b8151612118816120e5565b601f8211156112af57600081815260208120601f850160051c8101602086101561268d5750805b601f850160051c820191505b81811015610e3057828155600101612699565b815167ffffffffffffffff8111156126c6576126c661234f565b6126da816126d484546125a5565b84612666565b602080601f83116001811461270f57600084156126f75750858301515b600019600386901b1c1916600185901b178555610e30565b600085815260208120601f198616915b8281101561273e5788860151825594840194600190910190840161271f565b508582101561275c5787850151600019600388901b60f8161c191681555b5050505050600190811b01905550565b67ffffffffffffffff8311156127845761278461234f565b6127988361279283546125a5565b83612666565b6000601f8411600181146127cc57600085156127b45750838201355b600019600387901b1c1916600186901b1783556112fe565b600083815260209020601f19861690835b828110156127fd57868501358255602094850194600190920191016127dd565b508682101561281a5760001960f88860031b161c19848701351681555b505060018560011b0183555050505050565b6001600160a01b038681168252851660208201526040810184905260806060820181905281018290526000828460a0840137600060a0848401015260a0601f19601f85011683010190509695505050505050565b600080845461288e816125a5565b600182811680156128a657600181146128bb576128ea565b60ff19841687528215158302870194506128ea565b8860005260208060002060005b858110156128e15781548a8201529084019082016128c8565b50505082870194505b5050505083516128fe818360208801612180565b01949350505050565b81810381811115610871576108716125df565b6020808252602a908201527f455243323938313a20726f79616c7479206665652077696c6c206578636565646040820152692073616c65507269636560b01b606082015260800190565b6001600160601b03198560601b1681528284601483013760f89190911b6001600160f81b0319166014919092019081019190915260150192915050565b6000826129b0576129b061261f565b500690565b634e487b7160e01b600052602160045260246000fdfea2646970667358221220f37c82e7e0ad0ff326289f15eb84cb128f05713dc2f6c5da5158367f1904ebbc64736f6c63430008120033",
  "devdoc": {
    "kind": "dev",
    "methods": {
      "availableTokenCount()": {
        "details": "Check whether tokens are still available",
        "returns": {
          "_0": "the available token count"
        }
      },
      "owner()": {
        "details": "Returns the address of the current owner."
      },
      "renounceOwnership()": {
        "details": "Leaves the contract without owner. It will not be possible to call `onlyOwner` functions. Can only be called by the current owner. NOTE: Renouncing ownership will leave the contract without an owner, thereby disabling any functionality that is only available to the owner."
      },
      "royaltyInfo(uint256,uint256)": {
        "details": "Returns how much royalty is owed and to whom, based on a sale price that may be denominated in any unit of exchange. The royalty amount is denominated and should be paid in that same unit of exchange."
      },
      "tokenCount()": {
        "details": "Get the current token count",
        "returns": {
          "_0": "the created token count"
        }
      },
      "totalMaxSupply()": {
        "details": "Get the max Supply",
        "returns": {
          "_0": "the maximum token count"
        }
      },
      "transferOwnership(address)": {
        "details": "Transfers ownership of the contract to a new account (`newOwner`). Can only be called by the current owner."
      }
    },
    "version": 1
  },
  "userdoc": {
    "errors": {
      "NotMinted()": [
        {
          "notice": "----------------------------------------------------------------------- Custom Errors -----------------------------------------------------------------------"
        }
      ]
    },
    "events": {
      "Transfer(address,address,uint256)": {
        "notice": "----------------------------------------------------------------------- Events -----------------------------------------------------------------------"
      }
    },
    "kind": "user",
    "methods": {
      "approve(address,uint256)": {
        "notice": "----------------------------------------------------------------------- ERC721 Logic -----------------------------------------------------------------------"
      },
      "getApproved(uint256)": {
        "notice": "----------------------------------------------------------------------- ERC721 Approval Storage -----------------------------------------------------------------------"
      },
      "name()": {
        "notice": "----------------------------------------------------------------------- Metadata Storage/Logic -----------------------------------------------------------------------"
      }
    },
    "version": 1
  },
  "storageLayout": {
    "storage": [
      {
        "astId": 2577,
        "contract": "contracts/ArgoPetz.sol:ArgoPetz",
        "label": "name",
        "offset": 0,
        "slot": "0",
        "type": "t_string_storage"
      },
      {
        "astId": 2579,
        "contract": "contracts/ArgoPetz.sol:ArgoPetz",
        "label": "symbol",
        "offset": 0,
        "slot": "1",
        "type": "t_string_storage"
      },
      {
        "astId": 2591,
        "contract": "contracts/ArgoPetz.sol:ArgoPetz",
        "label": "_ownerOf",
        "offset": 0,
        "slot": "2",
        "type": "t_mapping(t_uint256,t_address)"
      },
      {
        "astId": 2595,
        "contract": "contracts/ArgoPetz.sol:ArgoPetz",
        "label": "_balanceOf",
        "offset": 0,
        "slot": "3",
        "type": "t_mapping(t_address,t_uint256)"
      },
      {
        "astId": 2645,
        "contract": "contracts/ArgoPetz.sol:ArgoPetz",
        "label": "getApproved",
        "offset": 0,
        "slot": "4",
        "type": "t_mapping(t_uint256,t_address)"
      },
      {
        "astId": 2651,
        "contract": "contracts/ArgoPetz.sol:ArgoPetz",
        "label": "isApprovedForAll",
        "offset": 0,
        "slot": "5",
        "type": "t_mapping(t_address,t_mapping(t_address,t_bool))"
      },
      {
        "astId": 148,
        "contract": "contracts/ArgoPetz.sol:ArgoPetz",
        "label": "_defaultRoyaltyInfo",
        "offset": 0,
        "slot": "6",
        "type": "t_struct(RoyaltyInfo)145_storage"
      },
      {
        "astId": 153,
        "contract": "contracts/ArgoPetz.sol:ArgoPetz",
        "label": "_tokenRoyaltyInfo",
        "offset": 0,
        "slot": "7",
        "type": "t_mapping(t_uint256,t_struct(RoyaltyInfo)145_storage)"
      },
      {
        "astId": 3265,
        "contract": "contracts/ArgoPetz.sol:ArgoPetz",
        "label": "_tokenCount",
        "offset": 0,
        "slot": "8",
        "type": "t_struct(Counter)357_storage"
      },
      {
        "astId": 3268,
        "contract": "contracts/ArgoPetz.sol:ArgoPetz",
        "label": "_totalMaxSupply",
        "offset": 0,
        "slot": "9",
        "type": "t_uint256"
      },
      {
        "astId": 3135,
        "contract": "contracts/ArgoPetz.sol:ArgoPetz",
        "label": "tokenMatrix",
        "offset": 0,
        "slot": "10",
        "type": "t_mapping(t_uint256,t_uint256)"
      },
      {
        "astId": 3137,
        "contract": "contracts/ArgoPetz.sol:ArgoPetz",
        "label": "startFrom",
        "offset": 0,
        "slot": "11",
        "type": "t_uint256"
      },
      {
        "astId": 7,
        "contract": "contracts/ArgoPetz.sol:ArgoPetz",
        "label": "_owner",
        "offset": 0,
        "slot": "12",
        "type": "t_address"
      },
      {
        "astId": 2059,
        "contract": "contracts/ArgoPetz.sol:ArgoPetz",
        "label": "currentSupply",
        "offset": 0,
        "slot": "13",
        "type": "t_uint256"
      },
      {
        "astId": 2071,
        "contract": "contracts/ArgoPetz.sol:ArgoPetz",
        "label": "whitelistMintCount",
        "offset": 0,
        "slot": "14",
        "type": "t_mapping(t_address,t_uint256)"
      },
      {
        "astId": 2075,
        "contract": "contracts/ArgoPetz.sol:ArgoPetz",
        "label": "publicMintCount",
        "offset": 0,
        "slot": "15",
        "type": "t_mapping(t_address,t_uint256)"
      },
      {
        "astId": 2078,
        "contract": "contracts/ArgoPetz.sol:ArgoPetz",
        "label": "whitelistMintPrice",
        "offset": 0,
        "slot": "16",
        "type": "t_uint256"
      },
      {
        "astId": 2081,
        "contract": "contracts/ArgoPetz.sol:ArgoPetz",
        "label": "publicMintPrice",
        "offset": 0,
        "slot": "17",
        "type": "t_uint256"
      },
      {
        "astId": 2083,
        "contract": "contracts/ArgoPetz.sol:ArgoPetz",
        "label": "stage",
        "offset": 0,
        "slot": "18",
        "type": "t_uint8"
      },
      {
        "astId": 2085,
        "contract": "contracts/ArgoPetz.sol:ArgoPetz",
        "label": "baseURI",
        "offset": 0,
        "slot": "19",
        "type": "t_string_storage"
      }
    ],
    "types": {
      "t_address": {
        "encoding": "inplace",
        "label": "address",
        "numberOfBytes": "20"
      },
      "t_bool": {
        "encoding": "inplace",
        "label": "bool",
        "numberOfBytes": "1"
      },
      "t_mapping(t_address,t_bool)": {
        "encoding": "mapping",
        "key": "t_address",
        "label": "mapping(address => bool)",
        "numberOfBytes": "32",
        "value": "t_bool"
      },
      "t_mapping(t_address,t_mapping(t_address,t_bool))": {
        "encoding": "mapping",
        "key": "t_address",
        "label": "mapping(address => mapping(address => bool))",
        "numberOfBytes": "32",
        "value": "t_mapping(t_address,t_bool)"
      },
      "t_mapping(t_address,t_uint256)": {
        "encoding": "mapping",
        "key": "t_address",
        "label": "mapping(address => uint256)",
        "numberOfBytes": "32",
        "value": "t_uint256"
      },
      "t_mapping(t_uint256,t_address)": {
        "encoding": "mapping",
        "key": "t_uint256",
        "label": "mapping(uint256 => address)",
        "numberOfBytes": "32",
        "value": "t_address"
      },
      "t_mapping(t_uint256,t_struct(RoyaltyInfo)145_storage)": {
        "encoding": "mapping",
        "key": "t_uint256",
        "label": "mapping(uint256 => struct ERC2981.RoyaltyInfo)",
        "numberOfBytes": "32",
        "value": "t_struct(RoyaltyInfo)145_storage"
      },
      "t_mapping(t_uint256,t_uint256)": {
        "encoding": "mapping",
        "key": "t_uint256",
        "label": "mapping(uint256 => uint256)",
        "numberOfBytes": "32",
        "value": "t_uint256"
      },
      "t_string_storage": {
        "encoding": "bytes",
        "label": "string",
        "numberOfBytes": "32"
      },
      "t_struct(Counter)357_storage": {
        "encoding": "inplace",
        "label": "struct Counters.Counter",
        "members": [
          {
            "astId": 356,
            "contract": "contracts/ArgoPetz.sol:ArgoPetz",
            "label": "_value",
            "offset": 0,
            "slot": "0",
            "type": "t_uint256"
          }
        ],
        "numberOfBytes": "32"
      },
      "t_struct(RoyaltyInfo)145_storage": {
        "encoding": "inplace",
        "label": "struct ERC2981.RoyaltyInfo",
        "members": [
          {
            "astId": 142,
            "contract": "contracts/ArgoPetz.sol:ArgoPetz",
            "label": "receiver",
            "offset": 0,
            "slot": "0",
            "type": "t_address"
          },
          {
            "astId": 144,
            "contract": "contracts/ArgoPetz.sol:ArgoPetz",
            "label": "royaltyFraction",
            "offset": 20,
            "slot": "0",
            "type": "t_uint96"
          }
        ],
        "numberOfBytes": "32"
      },
      "t_uint256": {
        "encoding": "inplace",
        "label": "uint256",
        "numberOfBytes": "32"
      },
      "t_uint8": {
        "encoding": "inplace",
        "label": "uint8",
        "numberOfBytes": "1"
      },
      "t_uint96": {
        "encoding": "inplace",
        "label": "uint96",
        "numberOfBytes": "12"
      }
    }
  }
}