{
  "address": "0x0e28992CDE9Ed01c1f1BDDD0e8f083465c129C33",
  "abi": [
    {
      "inputs": [
        {
          "internalType": "string",
          "name": "_name",
          "type": "string"
        },
        {
          "internalType": "string",
          "name": "_symbol",
          "type": "string"
        },
        {
          "internalType": "string",
          "name": "_baseURI",
          "type": "string"
        },
        {
          "internalType": "uint16",
          "name": "maxSupply_",
          "type": "uint16"
        },
        {
          "internalType": "address",
          "name": "withdrawAddress",
          "type": "address"
        },
        {
          "internalType": "address",
          "name": "_whitelistSignerAddress",
          "type": "address"
        }
      ],
      "stateMutability": "nonpayable",
      "type": "constructor"
    },
    {
      "inputs": [],
      "name": "AlreadyMinted",
      "type": "error"
    },
    {
      "inputs": [],
      "name": "InvalidRecipient",
      "type": "error"
    },
    {
      "inputs": [],
      "name": "InvalidTokenId",
      "type": "error"
    },
    {
      "inputs": [],
      "name": "NoMoreTokenIds",
      "type": "error"
    },
    {
      "inputs": [],
      "name": "NotMinted",
      "type": "error"
    },
    {
      "inputs": [],
      "name": "Unauthorized",
      "type": "error"
    },
    {
      "inputs": [],
      "name": "UnsafeRecipient",
      "type": "error"
    },
    {
      "inputs": [],
      "name": "WithdrawFailed",
      "type": "error"
    },
    {
      "inputs": [],
      "name": "WrongFrom",
      "type": "error"
    },
    {
      "inputs": [],
      "name": "ZeroAddress",
      "type": "error"
    },
    {
      "anonymous": false,
      "inputs": [
        {
          "indexed": true,
          "internalType": "address",
          "name": "owner",
          "type": "address"
        },
        {
          "indexed": true,
          "internalType": "address",
          "name": "spender",
          "type": "address"
        },
        {
          "indexed": true,
          "internalType": "uint256",
          "name": "id",
          "type": "uint256"
        }
      ],
      "name": "Approval",
      "type": "event"
    },
    {
      "anonymous": false,
      "inputs": [
        {
          "indexed": true,
          "internalType": "address",
          "name": "owner",
          "type": "address"
        },
        {
          "indexed": true,
          "internalType": "address",
          "name": "operator",
          "type": "address"
        },
        {
          "indexed": false,
          "internalType": "bool",
          "name": "approved",
          "type": "bool"
        }
      ],
      "name": "ApprovalForAll",
      "type": "event"
    },
    {
      "anonymous": false,
      "inputs": [
        {
          "indexed": true,
          "internalType": "address",
          "name": "previousOwner",
          "type": "address"
        },
        {
          "indexed": true,
          "internalType": "address",
          "name": "newOwner",
          "type": "address"
        }
      ],
      "name": "OwnershipTransferred",
      "type": "event"
    },
    {
      "anonymous": false,
      "inputs": [
        {
          "indexed": true,
          "internalType": "address",
          "name": "from",
          "type": "address"
        },
        {
          "indexed": true,
          "internalType": "address",
          "name": "to",
          "type": "address"
        },
        {
          "indexed": true,
          "internalType": "uint256",
          "name": "id",
          "type": "uint256"
        }
      ],
      "name": "Transfer",
      "type": "event"
    },
    {
      "inputs": [],
      "name": "MAX_SUPPLY",
      "outputs": [
        {
          "internalType": "uint16",
          "name": "",
          "type": "uint16"
        }
      ],
      "stateMutability": "view",
      "type": "function"
    },
    {
      "inputs": [],
      "name": "PUBLIC_MAX_MINT",
      "outputs": [
        {
          "internalType": "uint256",
          "name": "",
          "type": "uint256"
        }
      ],
      "stateMutability": "view",
      "type": "function"
    },
    {
      "inputs": [],
      "name": "WHITELIST_MAX_MINT",
      "outputs": [
        {
          "internalType": "uint256",
          "name": "",
          "type": "uint256"
        }
      ],
      "stateMutability": "view",
      "type": "function"
    },
    {
      "inputs": [],
      "name": "WHITELIST_SIGNER_ADDRESS",
      "outputs": [
        {
          "internalType": "address",
          "name": "",
          "type": "address"
        }
      ],
      "stateMutability": "view",
      "type": "function"
    },
    {
      "inputs": [],
      "name": "WITHDRAW_ADDRESS",
      "outputs": [
        {
          "internalType": "address",
          "name": "",
          "type": "address"
        }
      ],
      "stateMutability": "view",
      "type": "function"
    },
    {
      "inputs": [
        {
          "internalType": "address",
          "name": "spender",
          "type": "address"
        },
        {
          "internalType": "uint256",
          "name": "id",
          "type": "uint256"
        }
      ],
      "name": "approve",
      "outputs": [],
      "stateMutability": "nonpayable",
      "type": "function"
    },
    {
      "inputs": [
        {
          "internalType": "address",
          "name": "owner",
          "type": "address"
        }
      ],
      "name": "balanceOf",
      "outputs": [
        {
          "internalType": "uint256",
          "name": "",
          "type": "uint256"
        }
      ],
      "stateMutability": "view",
      "type": "function"
    },
    {
      "inputs": [],
      "name": "baseURI",
      "outputs": [
        {
          "internalType": "string",
          "name": "",
          "type": "string"
        }
      ],
      "stateMutability": "view",
      "type": "function"
    },
    {
      "inputs": [
        {
          "internalType": "uint256",
          "name": "",
          "type": "uint256"
        }
      ],
      "name": "getApproved",
      "outputs": [
        {
          "internalType": "address",
          "name": "",
          "type": "address"
        }
      ],
      "stateMutability": "view",
      "type": "function"
    },
    {
      "inputs": [
        {
          "internalType": "address",
          "name": "",
          "type": "address"
        },
        {
          "internalType": "address",
          "name": "",
          "type": "address"
        }
      ],
      "name": "isApprovedForAll",
      "outputs": [
        {
          "internalType": "bool",
          "name": "",
          "type": "bool"
        }
      ],
      "stateMutability": "view",
      "type": "function"
    },
    {
      "inputs": [],
      "name": "name",
      "outputs": [
        {
          "internalType": "string",
          "name": "",
          "type": "string"
        }
      ],
      "stateMutability": "view",
      "type": "function"
    },
    {
      "inputs": [],
      "name": "owner",
      "outputs": [
        {
          "internalType": "address",
          "name": "",
          "type": "address"
        }
      ],
      "stateMutability": "view",
      "type": "function"
    },
    {
      "inputs": [
        {
          "internalType": "uint256",
          "name": "id",
          "type": "uint256"
        }
      ],
      "name": "ownerOf",
      "outputs": [
        {
          "internalType": "address",
          "name": "owner",
          "type": "address"
        }
      ],
      "stateMutability": "view",
      "type": "function"
    },
    {
      "inputs": [
        {
          "internalType": "uint256",
          "name": "_amount",
          "type": "uint256"
        }
      ],
      "name": "publicMint",
      "outputs": [],
      "stateMutability": "payable",
      "type": "function"
    },
    {
      "inputs": [
        {
          "internalType": "address",
          "name": "",
          "type": "address"
        }
      ],
      "name": "publicMintCount",
      "outputs": [
        {
          "internalType": "uint256",
          "name": "",
          "type": "uint256"
        }
      ],
      "stateMutability": "view",
      "type": "function"
    },
    {
      "inputs": [],
      "name": "publicMintPrice",
      "outputs": [
        {
          "internalType": "uint256",
          "name": "",
          "type": "uint256"
        }
      ],
      "stateMutability": "view",
      "type": "function"
    },
    {
      "inputs": [],
      "name": "renounceOwnership",
      "outputs": [],
      "stateMutability": "nonpayable",
      "type": "function"
    },
    {
      "inputs": [
        {
          "internalType": "uint256",
          "name": "tokenId",
          "type": "uint256"
        },
        {
          "internalType": "uint256",
          "name": "salePrice",
          "type": "uint256"
        }
      ],
      "name": "royaltyInfo",
      "outputs": [
        {
          "internalType": "address",
          "name": "",
          "type": "address"
        },
        {
          "internalType": "uint256",
          "name": "",
          "type": "uint256"
        }
      ],
      "stateMutability": "view",
      "type": "function"
    },
    {
      "inputs": [
        {
          "internalType": "address",
          "name": "from",
          "type": "address"
        },
        {
          "internalType": "address",
          "name": "to",
          "type": "address"
        },
        {
          "internalType": "uint256",
          "name": "id",
          "type": "uint256"
        }
      ],
      "name": "safeTransferFrom",
      "outputs": [],
      "stateMutability": "nonpayable",
      "type": "function"
    },
    {
      "inputs": [
        {
          "internalType": "address",
          "name": "from",
          "type": "address"
        },
        {
          "internalType": "address",
          "name": "to",
          "type": "address"
        },
        {
          "internalType": "uint256",
          "name": "id",
          "type": "uint256"
        },
        {
          "internalType": "bytes",
          "name": "data",
          "type": "bytes"
        }
      ],
      "name": "safeTransferFrom",
      "outputs": [],
      "stateMutability": "nonpayable",
      "type": "function"
    },
    {
      "inputs": [
        {
          "internalType": "address",
          "name": "operator",
          "type": "address"
        },
        {
          "internalType": "bool",
          "name": "approved",
          "type": "bool"
        }
      ],
      "name": "setApprovalForAll",
      "outputs": [],
      "stateMutability": "nonpayable",
      "type": "function"
    },
    {
      "inputs": [
        {
          "internalType": "string",
          "name": "_baseURI_",
          "type": "string"
        }
      ],
      "name": "setBaseURI",
      "outputs": [],
      "stateMutability": "nonpayable",
      "type": "function"
    },
    {
      "inputs": [
        {
          "internalType": "address",
          "name": "receiver",
          "type": "address"
        },
        {
          "internalType": "uint96",
          "name": "feeNumerator",
          "type": "uint96"
        }
      ],
      "name": "setDefaultRoyalty",
      "outputs": [],
      "stateMutability": "nonpayable",
      "type": "function"
    },
    {
      "inputs": [
        {
          "internalType": "string",
          "name": "_newName",
          "type": "string"
        },
        {
          "internalType": "string",
          "name": "_newSymbol",
          "type": "string"
        }
      ],
      "name": "setNameAndSymbol",
      "outputs": [],
      "stateMutability": "nonpayable",
      "type": "function"
    },
    {
      "inputs": [
        {
          "internalType": "uint256",
          "name": "_publicMintPrice",
          "type": "uint256"
        }
      ],
      "name": "setPublicMintPrice",
      "outputs": [],
      "stateMutability": "nonpayable",
      "type": "function"
    },
    {
      "inputs": [
        {
          "internalType": "uint8",
          "name": "_newStage",
          "type": "uint8"
        }
      ],
      "name": "setStage",
      "outputs": [],
      "stateMutability": "nonpayable",
      "type": "function"
    },
    {
      "inputs": [
        {
          "internalType": "uint256",
          "name": "tokenId",
          "type": "uint256"
        },
        {
          "internalType": "address",
          "name": "receiver",
          "type": "address"
        },
        {
          "internalType": "uint96",
          "name": "feeNumerator",
          "type": "uint96"
        }
      ],
      "name": "setTokenRoyalty",
      "outputs": [],
      "stateMutability": "nonpayable",
      "type": "function"
    },
    {
      "inputs": [
        {
          "internalType": "uint256",
          "name": "_whitelistMintPrice",
          "type": "uint256"
        }
      ],
      "name": "setWhitelistMintPrice",
      "outputs": [],
      "stateMutability": "nonpayable",
      "type": "function"
    },
    {
      "inputs": [],
      "name": "stage",
      "outputs": [
        {
          "internalType": "uint8",
          "name": "",
          "type": "uint8"
        }
      ],
      "stateMutability": "view",
      "type": "function"
    },
    {
      "inputs": [
        {
          "internalType": "bytes4",
          "name": "interfaceId",
          "type": "bytes4"
        }
      ],
      "name": "supportsInterface",
      "outputs": [
        {
          "internalType": "bool",
          "name": "",
          "type": "bool"
        }
      ],
      "stateMutability": "view",
      "type": "function"
    },
    {
      "inputs": [],
      "name": "symbol",
      "outputs": [
        {
          "internalType": "string",
          "name": "",
          "type": "string"
        }
      ],
      "stateMutability": "view",
      "type": "function"
    },
    {
      "inputs": [
        {
          "internalType": "uint256",
          "name": "tokenId",
          "type": "uint256"
        }
      ],
      "name": "tokenURI",
      "outputs": [
        {
          "internalType": "string",
          "name": "",
          "type": "string"
        }
      ],
      "stateMutability": "view",
      "type": "function"
    },
    {
      "inputs": [],
      "name": "totalSupply",
      "outputs": [
        {
          "internalType": "uint256",
          "name": "",
          "type": "uint256"
        }
      ],
      "stateMutability": "view",
      "type": "function"
    },
    {
      "inputs": [
        {
          "internalType": "address",
          "name": "from",
          "type": "address"
        },
        {
          "internalType": "address",
          "name": "to",
          "type": "address"
        },
        {
          "internalType": "uint256",
          "name": "id",
          "type": "uint256"
        }
      ],
      "name": "transferFrom",
      "outputs": [],
      "stateMutability": "nonpayable",
      "type": "function"
    },
    {
      "inputs": [
        {
          "internalType": "address",
          "name": "newOwner",
          "type": "address"
        }
      ],
      "name": "transferOwnership",
      "outputs": [],
      "stateMutability": "nonpayable",
      "type": "function"
    },
    {
      "inputs": [
        {
          "internalType": "uint256",
          "name": "_amount",
          "type": "uint256"
        },
        {
          "internalType": "bytes",
          "name": "nonce",
          "type": "bytes"
        },
        {
          "internalType": "bytes",
          "name": "signature",
          "type": "bytes"
        }
      ],
      "name": "whitelistMint",
      "outputs": [],
      "stateMutability": "payable",
      "type": "function"
    },
    {
      "inputs": [
        {
          "internalType": "address",
          "name": "",
          "type": "address"
        }
      ],
      "name": "whitelistMintCount",
      "outputs": [
        {
          "internalType": "uint256",
          "name": "",
          "type": "uint256"
        }
      ],
      "stateMutability": "view",
      "type": "function"
    },
    {
      "inputs": [],
      "name": "whitelistMintPrice",
      "outputs": [
        {
          "internalType": "uint256",
          "name": "",
          "type": "uint256"
        }
      ],
      "stateMutability": "view",
      "type": "function"
    },
    {
      "inputs": [],
      "name": "withdraw",
      "outputs": [],
      "stateMutability": "nonpayable",
      "type": "function"
    }
  ],
  "transactionHash": "0x2f190359720a0403881cd782c4468070ca41b201ce0393270f6f86d63dcf93ba",
  "args": [
    "Mock Minion",
    "Minion",
    "https://testnet-api.argopetz.com/api/v1/argopetz/",
    8888,
    "0x865F4c222D7B23365C7Eb2F4f74d1a2533CD663E",
    "0x6A952f966c5DcC36A094c8AB141f027fb58F864e"
  ],
  "numDeployments": 3,
  "solcInputHash": "c8a7e5b4fe2b7b1fc2f81a6d9a6e4028",
  "bytecode": "0x60e0604052670de0b6b3a764000061100b55671bc16d674ec8000061100c553480156200002b57600080fd5b5060405162002eae38038062002eae8339810160408190526200004e916200028c565b858560026200005e8382620003eb565b5060036200006d8282620003eb565b5050506200008a62000084620000d660201b60201c565b620000da565b61ffff831660808190526008805461ffff60a01b1916600160a01b909202919091179055620000b9846200012c565b6001600160a01b0391821660a0521660c05250620004b792505050565b3390565b600880546001600160a01b038381166001600160a01b0319831681179093556040519116919082907f8be0079c531659141344cd1fd0a4f28419497f9722a3daafe3b4186f6b6457e090600090a35050565b6200013662000149565b61100e620001458282620003eb565b5050565b6008546001600160a01b03163314620001a85760405162461bcd60e51b815260206004820181905260248201527f4f776e61626c653a2063616c6c6572206973206e6f7420746865206f776e6572604482015260640160405180910390fd5b565b634e487b7160e01b600052604160045260246000fd5b600082601f830112620001d257600080fd5b81516001600160401b0380821115620001ef57620001ef620001aa565b604051601f8301601f19908116603f011681019082821181831017156200021a576200021a620001aa565b816040528381526020925086838588010111156200023757600080fd5b600091505b838210156200025b57858201830151818301840152908201906200023c565b600093810190920192909252949350505050565b80516001600160a01b03811681146200028757600080fd5b919050565b60008060008060008060c08789031215620002a657600080fd5b86516001600160401b0380821115620002be57600080fd5b620002cc8a838b01620001c0565b97506020890151915080821115620002e357600080fd5b620002f18a838b01620001c0565b965060408901519150808211156200030857600080fd5b506200031789828a01620001c0565b945050606087015161ffff811681146200033057600080fd5b925062000340608088016200026f565b91506200035060a088016200026f565b90509295509295509295565b600181811c908216806200037157607f821691505b6020821081036200039257634e487b7160e01b600052602260045260246000fd5b50919050565b601f821115620003e657600081815260208120601f850160051c81016020861015620003c15750805b601f850160051c820191505b81811015620003e257828155600101620003cd565b5050505b505050565b81516001600160401b03811115620004075762000407620001aa565b6200041f816200041884546200035c565b8462000398565b602080601f8311600181146200045757600084156200043e5750858301515b600019600386901b1c1916600185901b178555620003e2565b600085815260208120601f198616915b82811015620004885788860151825594840194600190910190840162000467565b5085821015620004a75787850151600019600388901b60f8161c191681555b5050505050600190811b01905550565b60805160a05160c0516129a46200050a60003960008181610636015261173301526000818161032e015261106901526000818161040a0152818161093c01528181610bf80152610ee801526129a46000f3fe6080604052600436106102305760003560e01c80635d82cf6e1161012e578063a611708e116100ab578063c87b56dd1161006f578063c87b56dd146106ef578063ce3cd9971461070f578063dc53fd921461072f578063e985e9c514610746578063f2fde38b1461078157600080fd5b8063a611708e14610658578063a734678014610678578063aeb167681461068d578063b88d4fde146106a2578063c040e6b8146106c257600080fd5b80638da5cb5b116100f25780638da5cb5b146105a357806395d89b41146105c157806396330b5f146105d6578063a22cb46514610604578063a591c4cb1461062457600080fd5b80635d82cf6e146105195780636352211e146105395780636c0360eb1461055957806370a082311461056e578063715018a61461058e57600080fd5b80632a55205a116101bc5780633ccfd60b116101805780633ccfd60b1461048457806342842e0e1461049957806355f804b3146104b95780635944c753146104d95780635a446215146104f957600080fd5b80632a55205a146103a65780632db11544146103e557806332cb6b0c146103f857806335c6aaf81461043f5780633bdf4ac61461045657600080fd5b8063095ea7b311610203578063095ea7b3146102fc578063122e04a81461031c57806318160ddd1461035057806323b872dd1461037357806324436f771461039357600080fd5b806301ffc9a71461023557806304634d8d1461026a57806306fdde031461028c578063081812fc146102ae575b600080fd5b34801561024157600080fd5b5061025561025036600461206a565b6107a1565b60405190151581526020015b60405180910390f35b34801561027657600080fd5b5061028a6102853660046120bc565b6107c1565b005b34801561029857600080fd5b506102a16107d7565b6040516102619190612113565b3480156102ba57600080fd5b506102e46102c9366004612146565b6006602052600090815260409020546001600160a01b031681565b6040516001600160a01b039091168152602001610261565b34801561030857600080fd5b5061028a61031736600461215f565b610865565b34801561032857600080fd5b506102e47f000000000000000000000000000000000000000000000000000000000000000081565b34801561035c57600080fd5b5061036561092a565b604051908152602001610261565b34801561037f57600080fd5b5061028a61038e366004612189565b610960565b61028a6103a1366004612207565b610acd565b3480156103b257600080fd5b506103c66103c1366004612281565b610d86565b604080516001600160a01b039093168352602083019190915201610261565b61028a6103f3366004612146565b610e34565b34801561040457600080fd5b5061042c7f000000000000000000000000000000000000000000000000000000000000000081565b60405161ffff9091168152602001610261565b34801561044b57600080fd5b5061036561100b5481565b34801561046257600080fd5b506103656104713660046122a3565b6110096020526000908152604090205481565b34801561049057600080fd5b5061028a611065565b3480156104a557600080fd5b5061028a6104b4366004612189565b6110fc565b3480156104c557600080fd5b5061028a6104d43660046122d4565b6111cf565b3480156104e557600080fd5b5061028a6104f4366004612385565b6111e4565b34801561050557600080fd5b5061028a6105143660046123c1565b6111f7565b34801561052557600080fd5b5061028a610534366004612146565b611221565b34801561054557600080fd5b506102e4610554366004612146565b61122f565b34801561056557600080fd5b506102a161126a565b34801561057a57600080fd5b506103656105893660046122a3565b611278565b34801561059a57600080fd5b5061028a6112bd565b3480156105af57600080fd5b506008546001600160a01b03166102e4565b3480156105cd57600080fd5b506102a16112d1565b3480156105e257600080fd5b506103656105f13660046122a3565b61100a6020526000908152604090205481565b34801561061057600080fd5b5061028a61061f36600461242d565b6112de565b34801561063057600080fd5b506102e47f000000000000000000000000000000000000000000000000000000000000000081565b34801561066457600080fd5b5061028a610673366004612146565b61134a565b34801561068457600080fd5b50610365601481565b34801561069957600080fd5b50610365600581565b3480156106ae57600080fd5b5061028a6106bd366004612469565b611358565b3480156106ce57600080fd5b5061100d546106dd9060ff1681565b60405160ff9091168152602001610261565b3480156106fb57600080fd5b506102a161070a366004612146565b611414565b34801561071b57600080fd5b5061028a61072a3660046124c7565b61147f565b34801561073b57600080fd5b5061036561100c5481565b34801561075257600080fd5b506102556107613660046124ea565b600760209081526000928352604080842090915290825290205460ff1681565b34801561078d57600080fd5b5061028a61079c3660046122a3565b61149e565b60006107ac82611514565b806107bb57506107bb82611562565b92915050565b6107c9611597565b6107d382826115f1565b5050565b600280546107e490612514565b80601f016020809104026020016040519081016040528092919081815260200182805461081090612514565b801561085d5780601f106108325761010080835404028352916020019161085d565b820191906000526020600020905b81548152906001019060200180831161084057829003601f168201915b505050505081565b6000818152600460205260409020546001600160a01b03163381148015906108b157506001600160a01b038116600090815260076020908152604080832033845290915290205460ff16155b156108ce576040516282b42960e81b815260040160405180910390fd5b60008281526006602052604080822080546001600160a01b0319166001600160a01b0387811691821790925591518593918516917f8c5be1e5ebec7d5bd14f71427d1e84f3dd0314c0f7b2291e5b200ac8c7c3b92591a4505050565b60085461ffff600160a01b90910481167f0000000000000000000000000000000000000000000000000000000000000000031690565b6000818152600460205260409020546001600160a01b0384811691161461099a5760405163c6de3f2560e01b815260040160405180910390fd5b6001600160a01b0382166109c157604051634e46966960e11b815260040160405180910390fd5b336001600160a01b038416148015906109fe57506001600160a01b038316600090815260076020908152604080832033845290915290205460ff16155b8015610a2157506000818152600660205260409020546001600160a01b03163314155b15610a3e576040516282b42960e81b815260040160405180910390fd5b6001600160a01b0380841660008181526005602090815260408083208054600019019055938616808352848320805460010190558583526004825284832080546001600160a01b03199081168317909155600690925284832080549092169091559251849392917fddf252ad1be2c89b69c2b068fc378daa952ba7f163c4a11628f55a4df523b3ef91a4505050565b61100d54610ae7903390869086908690869060ff166116ab565b610b385760405162461bcd60e51b815260206004820152601c60248201527f4172676f5065747a3a20496e76616c6964205369676e6174757265210000000060448201526064015b60405180910390fd5b61100d5460ff16600114610b9a5760405162461bcd60e51b8152602060048201526024808201527f4172676f5065747a3a2057686974656c697374204d696e74206973206e6f742060448201526337b832b760e11b6064820152608401610b2f565b61100b54610ba89086612564565b3414610bf65760405162461bcd60e51b815260206004820152601b60248201527f4172676f5065747a3a20496e73756666696369656e742043524f2100000000006044820152606401610b2f565b7f000000000000000000000000000000000000000000000000000000000000000061ffff1685610c2461092a565b610c2e919061257b565b1115610c905760405162461bcd60e51b815260206004820152602b60248201527f4172676f5065747a3a204578636565646564204d617820537570706c7920666f60448201526a72204172676f5065747a2160a81b6064820152608401610b2f565b3360009081526110096020526040902054600590610caf90879061257b565b1115610d2e5760405162461bcd60e51b815260206004820152604260248201527f4172676f5065747a3a2057616c6c65742068617320616c7265616479206d696e60448201527f746564204d617820416d6f756e7420666f722057686974656c697374204d696e606482015261742160f01b608482015260a401610b2f565b336000908152611009602052604081208054879290610d4e90849061257b565b90915550600090505b85811015610d7e576000610d69611769565b9050610d753382611945565b50600101610d57565b505050505050565b60008281526001602090815260408083208151808301909252546001600160a01b038116808352600160a01b9091046001600160601b0316928201929092528291610dfb5750604080518082019091526000546001600160a01b0381168252600160a01b90046001600160601b031660208201525b602081015160009061271090610e1a906001600160601b031687612564565b610e2491906125a4565b91519350909150505b9250929050565b61100d5460ff16600214610e8a5760405162461bcd60e51b815260206004820152601d60248201527f4172676f5065747a3a205075626c69632053616c6520436c6f736564210000006044820152606401610b2f565b61100c54610e989082612564565b3414610ee65760405162461bcd60e51b815260206004820152601b60248201527f4172676f5065747a3a20496e73756666696369656e742043524f2100000000006044820152606401610b2f565b7f000000000000000000000000000000000000000000000000000000000000000061ffff1681610f1461092a565b610f1e919061257b565b1115610f825760405162461bcd60e51b815260206004820152602d60248201527f4172676f5065747a3a204d617820537570706c7920666f72205075626c69632060448201526c4d696e7420526561636865642160981b6064820152608401610b2f565b33600090815261100a6020526040902054601490610fa190839061257b565b11156110155760405162461bcd60e51b815260206004820152603f60248201527f4172676f5065747a3a2057616c6c65742068617320616c7265616479206d696e60448201527f746564204d617820416d6f756e7420666f72205075626c6963204d696e7421006064820152608401610b2f565b33600090815261100a60205260408120805483929061103590849061257b565b90915550600090505b818110156107d3576000611050611769565b905061105c3382611945565b5060010161103e565b60007f00000000000000000000000000000000000000000000000000000000000000006001600160a01b03164760405160006040518083038185875af1925050503d80600081146110d2576040519150601f19603f3d011682016040523d82523d6000602084013e6110d7565b606091505b50509050806110f957604051631d42c86760e21b815260040160405180910390fd5b50565b611107838383610960565b6001600160a01b0382163b156111ca57604051630a85bd0160e11b8082523360048301526001600160a01b03858116602484015260448301849052608060648401526000608484015290919084169063150b7a029060a4016020604051808303816000875af115801561117e573d6000803e3d6000fd5b505050506040513d601f19601f820116820180604052508101906111a291906125b8565b6001600160e01b031916146111ca57604051633da6393160e01b815260040160405180910390fd5b505050565b6111d7611597565b61100e6107d3828261261b565b6111ec611597565b6111ca838383611a0f565b6111ff611597565b600261120c8486836126db565b50600361121a8284836126db565b5050505050565b611229611597565b61100c55565b6000818152600460205260409020546001600160a01b03168061126557604051634d5e5fb360e01b815260040160405180910390fd5b919050565b61100e80546107e490612514565b60006001600160a01b0382166112a15760405163d92e233d60e01b815260040160405180910390fd5b506001600160a01b031660009081526005602052604090205490565b6112c5611597565b6112cf6000611ada565b565b600380546107e490612514565b3360008181526007602090815260408083206001600160a01b03871680855290835292819020805460ff191686151590811790915590519081529192917f17307eab39ab6107e8899845ad3d59bd9653f200f220920489ca2b5937696c31910160405180910390a35050565b611352611597565b61100b55565b611363858585610960565b6001600160a01b0384163b1561121a57604051630a85bd0160e11b808252906001600160a01b0386169063150b7a02906113a99033908a9089908990899060040161279b565b6020604051808303816000875af11580156113c8573d6000803e3d6000fd5b505050506040513d601f19601f820116820180604052508101906113ec91906125b8565b6001600160e01b0319161461121a57604051633da6393160e01b815260040160405180910390fd5b6000818152600460205260409020546060906001600160a01b031661144c576040516307ed98ed60e31b815260040160405180910390fd5b61100e61145883611b2c565b6040516020016114699291906127ef565b6040516020818303038152906040529050919050565b611487611597565b61100d805460ff191660ff92909216919091179055565b6114a6611597565b6001600160a01b03811661150b5760405162461bcd60e51b815260206004820152602660248201527f4f776e61626c653a206e6577206f776e657220697320746865207a65726f206160448201526564647265737360d01b6064820152608401610b2f565b6110f981611ada565b60006301ffc9a760e01b6001600160e01b03198316148061154557506380ac58cd60e01b6001600160e01b03198316145b806107bb5750506001600160e01b031916635b5e139f60e01b1490565b60006001600160e01b0319821663152a902d60e11b14806107bb57506301ffc9a760e01b6001600160e01b03198316146107bb565b6008546001600160a01b031633146112cf5760405162461bcd60e51b815260206004820181905260248201527f4f776e61626c653a2063616c6c6572206973206e6f7420746865206f776e65726044820152606401610b2f565b6127106001600160601b038216111561161c5760405162461bcd60e51b8152600401610b2f90612876565b6001600160a01b0382166116725760405162461bcd60e51b815260206004820152601960248201527f455243323938313a20696e76616c6964207265636569766572000000000000006044820152606401610b2f565b604080518082019091526001600160a01b039092168083526001600160601b039091166020909201829052600160a01b90910217600055565b600080878787856040516020016116c594939291906128c0565b60405160208183030381529060405280519060200120905061172885858080601f0160208091040260200160405190810160405280939291908181526020018383808284376000920191909152506117229250859150611bbf9050565b90611bf2565b6001600160a01b03167f00000000000000000000000000000000000000000000000000000000000000006001600160a01b0316149150509695505050505050565b600854600090600160a01b900461ffff1680820361179a5760405163aeb0cc9b60e01b815260040160405180910390fd5b60006117a582611c16565b905060006117b383836128fd565b905060006009826201000081106117cc576117cc612911565b601091828204019190066002029054906101000a900461ffff1661ffff1690506000816000036117fd575081611800565b50805b600061180d600187612927565b905080841461190457600060098262010000811061182d5761182d612911565b601091828204019190066002029054906101000a900461ffff1661ffff16905080600003611895578160098662010000811061186b5761186b612911565b601091828204019190066002026101000a81548161ffff021916908361ffff160217905550611902565b806009866201000081106118ab576118ab612911565b601091828204019190066002026101000a81548161ffff021916908361ffff1602179055506009826201000081106118e5576118e5612911565b601091828204019190066002026101000a81549061ffff02191690555b505b6008805460149061191f90600160a01b900461ffff1661293a565b91906101000a81548161ffff021916908361ffff16021790555081965050505050505090565b61194f8282611c64565b6001600160a01b0382163b156107d357604051630a85bd0160e11b80825233600483015260006024830181905260448301849052608060648401526084830152906001600160a01b0384169063150b7a029060a4016020604051808303816000875af11580156119c3573d6000803e3d6000fd5b505050506040513d601f19601f820116820180604052508101906119e791906125b8565b6001600160e01b031916146107d357604051633da6393160e01b815260040160405180910390fd5b6127106001600160601b0382161115611a3a5760405162461bcd60e51b8152600401610b2f90612876565b6001600160a01b038216611a905760405162461bcd60e51b815260206004820152601b60248201527f455243323938313a20496e76616c696420706172616d657465727300000000006044820152606401610b2f565b6040805180820182526001600160a01b0393841681526001600160601b0392831660208083019182526000968752600190529190942093519051909116600160a01b029116179055565b600880546001600160a01b038381166001600160a01b0319831681179093556040519116919082907f8be0079c531659141344cd1fd0a4f28419497f9722a3daafe3b4186f6b6457e090600090a35050565b60606000611b3983611d2c565b600101905060008167ffffffffffffffff811115611b5957611b596122be565b6040519080825280601f01601f191660200182016040528015611b83576020820181803683370190505b5090508181016020015b600019016f181899199a1a9b1b9c1cb0b131b232b360811b600a86061a8153600a8504945084611b8d57509392505050565b7f19457468657265756d205369676e6564204d6573736167653a0a3332000000006000908152601c91909152603c902090565b6000806000611c018585611e04565b91509150611c0e81611e46565b509392505050565b600044611c24600143612927565b6040805160208101939093529040908201523060608201526080810183905260a00160408051601f19818403018152919052805160209091012092915050565b6001600160a01b038216611c8b57604051634e46966960e11b815260040160405180910390fd5b6000818152600460205260409020546001600160a01b031615611cc157604051631bbdf5c560e31b815260040160405180910390fd5b6001600160a01b038216600081815260056020908152604080832080546001019055848352600490915280822080546001600160a01b0319168417905551839291907fddf252ad1be2c89b69c2b068fc378daa952ba7f163c4a11628f55a4df523b3ef908290a45050565b60008072184f03e93ff9f4daa797ed6e38ed64bf6a1f0160401b8310611d6b5772184f03e93ff9f4daa797ed6e38ed64bf6a1f0160401b830492506040015b6d04ee2d6d415b85acef81000000008310611d97576d04ee2d6d415b85acef8100000000830492506020015b662386f26fc100008310611db557662386f26fc10000830492506010015b6305f5e1008310611dcd576305f5e100830492506008015b6127108310611de157612710830492506004015b60648310611df3576064830492506002015b600a83106107bb5760010192915050565b6000808251604103611e3a5760208301516040840151606085015160001a611e2e87828585611f90565b94509450505050610e2d565b50600090506002610e2d565b6000816004811115611e5a57611e5a612958565b03611e625750565b6001816004811115611e7657611e76612958565b03611ec35760405162461bcd60e51b815260206004820152601860248201527f45434453413a20696e76616c6964207369676e617475726500000000000000006044820152606401610b2f565b6002816004811115611ed757611ed7612958565b03611f245760405162461bcd60e51b815260206004820152601f60248201527f45434453413a20696e76616c6964207369676e6174757265206c656e677468006044820152606401610b2f565b6003816004811115611f3857611f38612958565b036110f95760405162461bcd60e51b815260206004820152602260248201527f45434453413a20696e76616c6964207369676e6174757265202773272076616c604482015261756560f01b6064820152608401610b2f565b6000807f7fffffffffffffffffffffffffffffff5d576e7357a4501ddfe92f46681b20a0831115611fc7575060009050600361204b565b6040805160008082526020820180845289905260ff881692820192909252606081018690526080810185905260019060a0016020604051602081039080840390855afa15801561201b573d6000803e3d6000fd5b5050604051601f1901519150506001600160a01b0381166120445760006001925092505061204b565b9150600090505b94509492505050565b6001600160e01b0319811681146110f957600080fd5b60006020828403121561207c57600080fd5b813561208781612054565b9392505050565b80356001600160a01b038116811461126557600080fd5b80356001600160601b038116811461126557600080fd5b600080604083850312156120cf57600080fd5b6120d88361208e565b91506120e6602084016120a5565b90509250929050565b60005b8381101561210a5781810151838201526020016120f2565b50506000910152565b60208152600082518060208401526121328160408501602087016120ef565b601f01601f19169190910160400192915050565b60006020828403121561215857600080fd5b5035919050565b6000806040838503121561217257600080fd5b61217b8361208e565b946020939093013593505050565b60008060006060848603121561219e57600080fd5b6121a78461208e565b92506121b56020850161208e565b9150604084013590509250925092565b60008083601f8401126121d757600080fd5b50813567ffffffffffffffff8111156121ef57600080fd5b602083019150836020828501011115610e2d57600080fd5b60008060008060006060868803121561221f57600080fd5b85359450602086013567ffffffffffffffff8082111561223e57600080fd5b61224a89838a016121c5565b9096509450604088013591508082111561226357600080fd5b50612270888289016121c5565b969995985093965092949392505050565b6000806040838503121561229457600080fd5b50508035926020909101359150565b6000602082840312156122b557600080fd5b6120878261208e565b634e487b7160e01b600052604160045260246000fd5b6000602082840312156122e657600080fd5b813567ffffffffffffffff808211156122fe57600080fd5b818401915084601f83011261231257600080fd5b813581811115612324576123246122be565b604051601f8201601f19908116603f0116810190838211818310171561234c5761234c6122be565b8160405282815287602084870101111561236557600080fd5b826020860160208301376000928101602001929092525095945050505050565b60008060006060848603121561239a57600080fd5b833592506123aa6020850161208e565b91506123b8604085016120a5565b90509250925092565b600080600080604085870312156123d757600080fd5b843567ffffffffffffffff808211156123ef57600080fd5b6123fb888389016121c5565b9096509450602087013591508082111561241457600080fd5b50612421878288016121c5565b95989497509550505050565b6000806040838503121561244057600080fd5b6124498361208e565b91506020830135801515811461245e57600080fd5b809150509250929050565b60008060008060006080868803121561248157600080fd5b61248a8661208e565b94506124986020870161208e565b935060408601359250606086013567ffffffffffffffff8111156124bb57600080fd5b612270888289016121c5565b6000602082840312156124d957600080fd5b813560ff8116811461208757600080fd5b600080604083850312156124fd57600080fd5b6125068361208e565b91506120e66020840161208e565b600181811c9082168061252857607f821691505b60208210810361254857634e487b7160e01b600052602260045260246000fd5b50919050565b634e487b7160e01b600052601160045260246000fd5b80820281158282048414176107bb576107bb61254e565b808201808211156107bb576107bb61254e565b634e487b7160e01b600052601260045260246000fd5b6000826125b3576125b361258e565b500490565b6000602082840312156125ca57600080fd5b815161208781612054565b601f8211156111ca57600081815260208120601f850160051c810160208610156125fc5750805b601f850160051c820191505b81811015610d7e57828155600101612608565b815167ffffffffffffffff811115612635576126356122be565b612649816126438454612514565b846125d5565b602080601f83116001811461267e57600084156126665750858301515b600019600386901b1c1916600185901b178555610d7e565b600085815260208120601f198616915b828110156126ad5788860151825594840194600190910190840161268e565b50858210156126cb5787850151600019600388901b60f8161c191681555b5050505050600190811b01905550565b67ffffffffffffffff8311156126f3576126f36122be565b612707836127018354612514565b836125d5565b6000601f84116001811461273b57600085156127235750838201355b600019600387901b1c1916600186901b17835561121a565b600083815260209020601f19861690835b8281101561276c578685013582556020948501946001909201910161274c565b50868210156127895760001960f88860031b161c19848701351681555b505060018560011b0183555050505050565b6001600160a01b038681168252851660208201526040810184905260806060820181905281018290526000828460a0840137600060a0848401015260a0601f19601f85011683010190509695505050505050565b60008084546127fd81612514565b60018281168015612815576001811461282a57612859565b60ff1984168752821515830287019450612859565b8860005260208060002060005b858110156128505781548a820152908401908201612837565b50505082870194505b50505050835161286d8183602088016120ef565b01949350505050565b6020808252602a908201527f455243323938313a20726f79616c7479206665652077696c6c206578636565646040820152692073616c65507269636560b01b606082015260800190565b6001600160601b03198560601b1681528284601483013760f89190911b6001600160f81b0319166014919092019081019190915260150192915050565b60008261290c5761290c61258e565b500690565b634e487b7160e01b600052603260045260246000fd5b818103818111156107bb576107bb61254e565b600061ffff82168061294e5761294e61254e565b6000190192915050565b634e487b7160e01b600052602160045260246000fdfea264697066735822122009d9d38d17156914541ece755defbea9b5dece1f56b24efa30ff6c6f3fd9575e64736f6c63430008120033",
  "devdoc": {
    "kind": "dev",
    "methods": {
      "owner()": {
        "details": "Returns the address of the current owner."
      },
      "renounceOwnership()": {
        "details": "Leaves the contract without owner. It will not be possible to call `onlyOwner` functions. Can only be called by the current owner. NOTE: Renouncing ownership will leave the contract without an owner, thereby disabling any functionality that is only available to the owner."
      },
      "royaltyInfo(uint256,uint256)": {
        "details": "Returns how much royalty is owed and to whom, based on a sale price that may be denominated in any unit of exchange. The royalty amount is denominated and should be paid in that same unit of exchange."
      },
      "transferOwnership(address)": {
        "details": "Transfers ownership of the contract to a new account (`newOwner`). Can only be called by the current owner."
      }
    },
    "version": 1
  },
  "userdoc": {
    "errors": {
      "NotMinted()": [
        {
          "notice": "----------------------------------------------------------------------- Custom Errors -----------------------------------------------------------------------"
        }
      ]
    },
    "events": {
      "Transfer(address,address,uint256)": {
        "notice": "----------------------------------------------------------------------- Events -----------------------------------------------------------------------"
      }
    },
    "kind": "user",
    "methods": {
      "approve(address,uint256)": {
        "notice": "----------------------------------------------------------------------- ERC721 Logic -----------------------------------------------------------------------"
      },
      "getApproved(uint256)": {
        "notice": "----------------------------------------------------------------------- ERC721 Approval Storage -----------------------------------------------------------------------"
      },
      "name()": {
        "notice": "----------------------------------------------------------------------- Metadata Storage/Logic -----------------------------------------------------------------------"
      }
    },
    "version": 1
  },
  "storageLayout": {
    "storage": [
      {
        "astId": 148,
        "contract": "contracts/ArgoPetz.sol:ArgoPetz",
        "label": "_defaultRoyaltyInfo",
        "offset": 0,
        "slot": "0",
        "type": "t_struct(RoyaltyInfo)145_storage"
      },
      {
        "astId": 153,
        "contract": "contracts/ArgoPetz.sol:ArgoPetz",
        "label": "_tokenRoyaltyInfo",
        "offset": 0,
        "slot": "1",
        "type": "t_mapping(t_uint256,t_struct(RoyaltyInfo)145_storage)"
      },
      {
        "astId": 2623,
        "contract": "contracts/ArgoPetz.sol:ArgoPetz",
        "label": "name",
        "offset": 0,
        "slot": "2",
        "type": "t_string_storage"
      },
      {
        "astId": 2625,
        "contract": "contracts/ArgoPetz.sol:ArgoPetz",
        "label": "symbol",
        "offset": 0,
        "slot": "3",
        "type": "t_string_storage"
      },
      {
        "astId": 2637,
        "contract": "contracts/ArgoPetz.sol:ArgoPetz",
        "label": "_ownerOf",
        "offset": 0,
        "slot": "4",
        "type": "t_mapping(t_uint256,t_address)"
      },
      {
        "astId": 2641,
        "contract": "contracts/ArgoPetz.sol:ArgoPetz",
        "label": "_balanceOf",
        "offset": 0,
        "slot": "5",
        "type": "t_mapping(t_address,t_uint256)"
      },
      {
        "astId": 2691,
        "contract": "contracts/ArgoPetz.sol:ArgoPetz",
        "label": "getApproved",
        "offset": 0,
        "slot": "6",
        "type": "t_mapping(t_uint256,t_address)"
      },
      {
        "astId": 2697,
        "contract": "contracts/ArgoPetz.sol:ArgoPetz",
        "label": "isApprovedForAll",
        "offset": 0,
        "slot": "7",
        "type": "t_mapping(t_address,t_mapping(t_address,t_bool))"
      },
      {
        "astId": 7,
        "contract": "contracts/ArgoPetz.sol:ArgoPetz",
        "label": "_owner",
        "offset": 0,
        "slot": "8",
        "type": "t_address"
      },
      {
        "astId": 1982,
        "contract": "contracts/ArgoPetz.sol:ArgoPetz",
        "label": "_numAvailableRemainingTokens",
        "offset": 20,
        "slot": "8",
        "type": "t_uint16"
      },
      {
        "astId": 1986,
        "contract": "contracts/ArgoPetz.sol:ArgoPetz",
        "label": "_availableRemainingTokens",
        "offset": 0,
        "slot": "9",
        "type": "t_array(t_uint16)65536_storage"
      },
      {
        "astId": 2000,
        "contract": "contracts/ArgoPetz.sol:ArgoPetz",
        "label": "whitelistMintCount",
        "offset": 0,
        "slot": "4105",
        "type": "t_mapping(t_address,t_uint256)"
      },
      {
        "astId": 2004,
        "contract": "contracts/ArgoPetz.sol:ArgoPetz",
        "label": "publicMintCount",
        "offset": 0,
        "slot": "4106",
        "type": "t_mapping(t_address,t_uint256)"
      },
      {
        "astId": 2007,
        "contract": "contracts/ArgoPetz.sol:ArgoPetz",
        "label": "whitelistMintPrice",
        "offset": 0,
        "slot": "4107",
        "type": "t_uint256"
      },
      {
        "astId": 2010,
        "contract": "contracts/ArgoPetz.sol:ArgoPetz",
        "label": "publicMintPrice",
        "offset": 0,
        "slot": "4108",
        "type": "t_uint256"
      },
      {
        "astId": 2012,
        "contract": "contracts/ArgoPetz.sol:ArgoPetz",
        "label": "stage",
        "offset": 0,
        "slot": "4109",
        "type": "t_uint8"
      },
      {
        "astId": 2014,
        "contract": "contracts/ArgoPetz.sol:ArgoPetz",
        "label": "baseURI",
        "offset": 0,
        "slot": "4110",
        "type": "t_string_storage"
      }
    ],
    "types": {
      "t_address": {
        "encoding": "inplace",
        "label": "address",
        "numberOfBytes": "20"
      },
      "t_array(t_uint16)65536_storage": {
        "base": "t_uint16",
        "encoding": "inplace",
        "label": "uint16[65536]",
        "numberOfBytes": "131072"
      },
      "t_bool": {
        "encoding": "inplace",
        "label": "bool",
        "numberOfBytes": "1"
      },
      "t_mapping(t_address,t_bool)": {
        "encoding": "mapping",
        "key": "t_address",
        "label": "mapping(address => bool)",
        "numberOfBytes": "32",
        "value": "t_bool"
      },
      "t_mapping(t_address,t_mapping(t_address,t_bool))": {
        "encoding": "mapping",
        "key": "t_address",
        "label": "mapping(address => mapping(address => bool))",
        "numberOfBytes": "32",
        "value": "t_mapping(t_address,t_bool)"
      },
      "t_mapping(t_address,t_uint256)": {
        "encoding": "mapping",
        "key": "t_address",
        "label": "mapping(address => uint256)",
        "numberOfBytes": "32",
        "value": "t_uint256"
      },
      "t_mapping(t_uint256,t_address)": {
        "encoding": "mapping",
        "key": "t_uint256",
        "label": "mapping(uint256 => address)",
        "numberOfBytes": "32",
        "value": "t_address"
      },
      "t_mapping(t_uint256,t_struct(RoyaltyInfo)145_storage)": {
        "encoding": "mapping",
        "key": "t_uint256",
        "label": "mapping(uint256 => struct ERC2981.RoyaltyInfo)",
        "numberOfBytes": "32",
        "value": "t_struct(RoyaltyInfo)145_storage"
      },
      "t_string_storage": {
        "encoding": "bytes",
        "label": "string",
        "numberOfBytes": "32"
      },
      "t_struct(RoyaltyInfo)145_storage": {
        "encoding": "inplace",
        "label": "struct ERC2981.RoyaltyInfo",
        "members": [
          {
            "astId": 142,
            "contract": "contracts/ArgoPetz.sol:ArgoPetz",
            "label": "receiver",
            "offset": 0,
            "slot": "0",
            "type": "t_address"
          },
          {
            "astId": 144,
            "contract": "contracts/ArgoPetz.sol:ArgoPetz",
            "label": "royaltyFraction",
            "offset": 20,
            "slot": "0",
            "type": "t_uint96"
          }
        ],
        "numberOfBytes": "32"
      },
      "t_uint16": {
        "encoding": "inplace",
        "label": "uint16",
        "numberOfBytes": "2"
      },
      "t_uint256": {
        "encoding": "inplace",
        "label": "uint256",
        "numberOfBytes": "32"
      },
      "t_uint8": {
        "encoding": "inplace",
        "label": "uint8",
        "numberOfBytes": "1"
      },
      "t_uint96": {
        "encoding": "inplace",
        "label": "uint96",
        "numberOfBytes": "12"
      }
    }
  }
}