{
  "address": "0x56EC8c71B5D5D6F93d6B628b7FD706ef4da7C0dF",
  "abi": [
    {
      "inputs": [
        {
          "internalType": "string",
          "name": "_name",
          "type": "string"
        },
        {
          "internalType": "string",
          "name": "_symbol",
          "type": "string"
        },
        {
          "internalType": "string",
          "name": "_baseURI",
          "type": "string"
        },
        {
          "internalType": "uint16",
          "name": "maxSupply_",
          "type": "uint16"
        },
        {
          "internalType": "address",
          "name": "withdrawAddress",
          "type": "address"
        },
        {
          "internalType": "address",
          "name": "_whitelistSignerAddress",
          "type": "address"
        }
      ],
      "stateMutability": "nonpayable",
      "type": "constructor"
    },
    {
      "inputs": [],
      "name": "AlreadyMinted",
      "type": "error"
    },
    {
      "inputs": [],
      "name": "InvalidRecipient",
      "type": "error"
    },
    {
      "inputs": [],
      "name": "InvalidTokenId",
      "type": "error"
    },
    {
      "inputs": [],
      "name": "NoMoreTokenIds",
      "type": "error"
    },
    {
      "inputs": [],
      "name": "NotMinted",
      "type": "error"
    },
    {
      "inputs": [],
      "name": "Unauthorized",
      "type": "error"
    },
    {
      "inputs": [],
      "name": "UnsafeRecipient",
      "type": "error"
    },
    {
      "inputs": [],
      "name": "WithdrawFailed",
      "type": "error"
    },
    {
      "inputs": [],
      "name": "WrongFrom",
      "type": "error"
    },
    {
      "inputs": [],
      "name": "ZeroAddress",
      "type": "error"
    },
    {
      "anonymous": false,
      "inputs": [
        {
          "indexed": true,
          "internalType": "address",
          "name": "owner",
          "type": "address"
        },
        {
          "indexed": true,
          "internalType": "address",
          "name": "spender",
          "type": "address"
        },
        {
          "indexed": true,
          "internalType": "uint256",
          "name": "id",
          "type": "uint256"
        }
      ],
      "name": "Approval",
      "type": "event"
    },
    {
      "anonymous": false,
      "inputs": [
        {
          "indexed": true,
          "internalType": "address",
          "name": "owner",
          "type": "address"
        },
        {
          "indexed": true,
          "internalType": "address",
          "name": "operator",
          "type": "address"
        },
        {
          "indexed": false,
          "internalType": "bool",
          "name": "approved",
          "type": "bool"
        }
      ],
      "name": "ApprovalForAll",
      "type": "event"
    },
    {
      "anonymous": false,
      "inputs": [
        {
          "indexed": true,
          "internalType": "address",
          "name": "previousOwner",
          "type": "address"
        },
        {
          "indexed": true,
          "internalType": "address",
          "name": "newOwner",
          "type": "address"
        }
      ],
      "name": "OwnershipTransferred",
      "type": "event"
    },
    {
      "anonymous": false,
      "inputs": [
        {
          "indexed": true,
          "internalType": "address",
          "name": "from",
          "type": "address"
        },
        {
          "indexed": true,
          "internalType": "address",
          "name": "to",
          "type": "address"
        },
        {
          "indexed": true,
          "internalType": "uint256",
          "name": "id",
          "type": "uint256"
        }
      ],
      "name": "Transfer",
      "type": "event"
    },
    {
      "inputs": [],
      "name": "MAX_SUPPLY",
      "outputs": [
        {
          "internalType": "uint16",
          "name": "",
          "type": "uint16"
        }
      ],
      "stateMutability": "view",
      "type": "function"
    },
    {
      "inputs": [],
      "name": "PUBLIC_MAX_MINT",
      "outputs": [
        {
          "internalType": "uint256",
          "name": "",
          "type": "uint256"
        }
      ],
      "stateMutability": "view",
      "type": "function"
    },
    {
      "inputs": [],
      "name": "WHITELIST_MAX_MINT",
      "outputs": [
        {
          "internalType": "uint256",
          "name": "",
          "type": "uint256"
        }
      ],
      "stateMutability": "view",
      "type": "function"
    },
    {
      "inputs": [],
      "name": "WHITELIST_SIGNER_ADDRESS",
      "outputs": [
        {
          "internalType": "address",
          "name": "",
          "type": "address"
        }
      ],
      "stateMutability": "view",
      "type": "function"
    },
    {
      "inputs": [],
      "name": "WITHDRAW_ADDRESS",
      "outputs": [
        {
          "internalType": "address",
          "name": "",
          "type": "address"
        }
      ],
      "stateMutability": "view",
      "type": "function"
    },
    {
      "inputs": [
        {
          "internalType": "address",
          "name": "spender",
          "type": "address"
        },
        {
          "internalType": "uint256",
          "name": "id",
          "type": "uint256"
        }
      ],
      "name": "approve",
      "outputs": [],
      "stateMutability": "nonpayable",
      "type": "function"
    },
    {
      "inputs": [
        {
          "internalType": "address",
          "name": "owner",
          "type": "address"
        }
      ],
      "name": "balanceOf",
      "outputs": [
        {
          "internalType": "uint256",
          "name": "",
          "type": "uint256"
        }
      ],
      "stateMutability": "view",
      "type": "function"
    },
    {
      "inputs": [],
      "name": "baseURI",
      "outputs": [
        {
          "internalType": "string",
          "name": "",
          "type": "string"
        }
      ],
      "stateMutability": "view",
      "type": "function"
    },
    {
      "inputs": [
        {
          "internalType": "uint256",
          "name": "",
          "type": "uint256"
        }
      ],
      "name": "getApproved",
      "outputs": [
        {
          "internalType": "address",
          "name": "",
          "type": "address"
        }
      ],
      "stateMutability": "view",
      "type": "function"
    },
    {
      "inputs": [
        {
          "internalType": "address",
          "name": "",
          "type": "address"
        },
        {
          "internalType": "address",
          "name": "",
          "type": "address"
        }
      ],
      "name": "isApprovedForAll",
      "outputs": [
        {
          "internalType": "bool",
          "name": "",
          "type": "bool"
        }
      ],
      "stateMutability": "view",
      "type": "function"
    },
    {
      "inputs": [],
      "name": "name",
      "outputs": [
        {
          "internalType": "string",
          "name": "",
          "type": "string"
        }
      ],
      "stateMutability": "view",
      "type": "function"
    },
    {
      "inputs": [],
      "name": "owner",
      "outputs": [
        {
          "internalType": "address",
          "name": "",
          "type": "address"
        }
      ],
      "stateMutability": "view",
      "type": "function"
    },
    {
      "inputs": [
        {
          "internalType": "uint256",
          "name": "id",
          "type": "uint256"
        }
      ],
      "name": "ownerOf",
      "outputs": [
        {
          "internalType": "address",
          "name": "owner",
          "type": "address"
        }
      ],
      "stateMutability": "view",
      "type": "function"
    },
    {
      "inputs": [
        {
          "internalType": "address",
          "name": "to",
          "type": "address"
        },
        {
          "internalType": "uint256",
          "name": "_amount",
          "type": "uint256"
        }
      ],
      "name": "publicMint",
      "outputs": [],
      "stateMutability": "payable",
      "type": "function"
    },
    {
      "inputs": [
        {
          "internalType": "address",
          "name": "",
          "type": "address"
        }
      ],
      "name": "publicMintCount",
      "outputs": [
        {
          "internalType": "uint256",
          "name": "",
          "type": "uint256"
        }
      ],
      "stateMutability": "view",
      "type": "function"
    },
    {
      "inputs": [],
      "name": "publicMintPrice",
      "outputs": [
        {
          "internalType": "uint256",
          "name": "",
          "type": "uint256"
        }
      ],
      "stateMutability": "view",
      "type": "function"
    },
    {
      "inputs": [],
      "name": "renounceOwnership",
      "outputs": [],
      "stateMutability": "nonpayable",
      "type": "function"
    },
    {
      "inputs": [
        {
          "internalType": "uint256",
          "name": "_tokenId",
          "type": "uint256"
        },
        {
          "internalType": "uint256",
          "name": "_salePrice",
          "type": "uint256"
        }
      ],
      "name": "royaltyInfo",
      "outputs": [
        {
          "internalType": "address",
          "name": "",
          "type": "address"
        },
        {
          "internalType": "uint256",
          "name": "",
          "type": "uint256"
        }
      ],
      "stateMutability": "view",
      "type": "function"
    },
    {
      "inputs": [
        {
          "internalType": "address",
          "name": "from",
          "type": "address"
        },
        {
          "internalType": "address",
          "name": "to",
          "type": "address"
        },
        {
          "internalType": "uint256",
          "name": "id",
          "type": "uint256"
        }
      ],
      "name": "safeTransferFrom",
      "outputs": [],
      "stateMutability": "nonpayable",
      "type": "function"
    },
    {
      "inputs": [
        {
          "internalType": "address",
          "name": "from",
          "type": "address"
        },
        {
          "internalType": "address",
          "name": "to",
          "type": "address"
        },
        {
          "internalType": "uint256",
          "name": "id",
          "type": "uint256"
        },
        {
          "internalType": "bytes",
          "name": "data",
          "type": "bytes"
        }
      ],
      "name": "safeTransferFrom",
      "outputs": [],
      "stateMutability": "nonpayable",
      "type": "function"
    },
    {
      "inputs": [
        {
          "internalType": "address",
          "name": "operator",
          "type": "address"
        },
        {
          "internalType": "bool",
          "name": "approved",
          "type": "bool"
        }
      ],
      "name": "setApprovalForAll",
      "outputs": [],
      "stateMutability": "nonpayable",
      "type": "function"
    },
    {
      "inputs": [
        {
          "internalType": "string",
          "name": "_baseURI_",
          "type": "string"
        }
      ],
      "name": "setBaseURI",
      "outputs": [],
      "stateMutability": "nonpayable",
      "type": "function"
    },
    {
      "inputs": [
        {
          "internalType": "address",
          "name": "receiver",
          "type": "address"
        },
        {
          "internalType": "uint96",
          "name": "feeNumerator",
          "type": "uint96"
        }
      ],
      "name": "setDefaultRoyalty",
      "outputs": [],
      "stateMutability": "nonpayable",
      "type": "function"
    },
    {
      "inputs": [
        {
          "internalType": "string",
          "name": "_newName",
          "type": "string"
        },
        {
          "internalType": "string",
          "name": "_newSymbol",
          "type": "string"
        }
      ],
      "name": "setNameAndSymbol",
      "outputs": [],
      "stateMutability": "nonpayable",
      "type": "function"
    },
    {
      "inputs": [
        {
          "internalType": "uint256",
          "name": "_publicMintPrice",
          "type": "uint256"
        }
      ],
      "name": "setPublicMintPrice",
      "outputs": [],
      "stateMutability": "nonpayable",
      "type": "function"
    },
    {
      "inputs": [
        {
          "internalType": "uint8",
          "name": "_newStage",
          "type": "uint8"
        }
      ],
      "name": "setStage",
      "outputs": [],
      "stateMutability": "nonpayable",
      "type": "function"
    },
    {
      "inputs": [
        {
          "internalType": "uint256",
          "name": "tokenId",
          "type": "uint256"
        },
        {
          "internalType": "address",
          "name": "receiver",
          "type": "address"
        },
        {
          "internalType": "uint96",
          "name": "feeNumerator",
          "type": "uint96"
        }
      ],
      "name": "setTokenRoyalty",
      "outputs": [],
      "stateMutability": "nonpayable",
      "type": "function"
    },
    {
      "inputs": [
        {
          "internalType": "uint256",
          "name": "_whitelistMintPrice",
          "type": "uint256"
        }
      ],
      "name": "setWhitelistMintPrice",
      "outputs": [],
      "stateMutability": "nonpayable",
      "type": "function"
    },
    {
      "inputs": [],
      "name": "stage",
      "outputs": [
        {
          "internalType": "uint8",
          "name": "",
          "type": "uint8"
        }
      ],
      "stateMutability": "view",
      "type": "function"
    },
    {
      "inputs": [
        {
          "internalType": "bytes4",
          "name": "interfaceId",
          "type": "bytes4"
        }
      ],
      "name": "supportsInterface",
      "outputs": [
        {
          "internalType": "bool",
          "name": "",
          "type": "bool"
        }
      ],
      "stateMutability": "view",
      "type": "function"
    },
    {
      "inputs": [],
      "name": "symbol",
      "outputs": [
        {
          "internalType": "string",
          "name": "",
          "type": "string"
        }
      ],
      "stateMutability": "view",
      "type": "function"
    },
    {
      "inputs": [
        {
          "internalType": "uint256",
          "name": "tokenId",
          "type": "uint256"
        }
      ],
      "name": "tokenURI",
      "outputs": [
        {
          "internalType": "string",
          "name": "",
          "type": "string"
        }
      ],
      "stateMutability": "view",
      "type": "function"
    },
    {
      "inputs": [],
      "name": "totalSupply",
      "outputs": [
        {
          "internalType": "uint256",
          "name": "",
          "type": "uint256"
        }
      ],
      "stateMutability": "view",
      "type": "function"
    },
    {
      "inputs": [
        {
          "internalType": "address",
          "name": "from",
          "type": "address"
        },
        {
          "internalType": "address",
          "name": "to",
          "type": "address"
        },
        {
          "internalType": "uint256",
          "name": "id",
          "type": "uint256"
        }
      ],
      "name": "transferFrom",
      "outputs": [],
      "stateMutability": "nonpayable",
      "type": "function"
    },
    {
      "inputs": [
        {
          "internalType": "address",
          "name": "newOwner",
          "type": "address"
        }
      ],
      "name": "transferOwnership",
      "outputs": [],
      "stateMutability": "nonpayable",
      "type": "function"
    },
    {
      "inputs": [
        {
          "internalType": "address",
          "name": "to",
          "type": "address"
        },
        {
          "internalType": "uint256",
          "name": "_amount",
          "type": "uint256"
        },
        {
          "internalType": "bytes",
          "name": "nonce",
          "type": "bytes"
        },
        {
          "internalType": "bytes",
          "name": "signature",
          "type": "bytes"
        }
      ],
      "name": "whitelistMint",
      "outputs": [],
      "stateMutability": "payable",
      "type": "function"
    },
    {
      "inputs": [
        {
          "internalType": "address",
          "name": "",
          "type": "address"
        }
      ],
      "name": "whitelistMintCount",
      "outputs": [
        {
          "internalType": "uint256",
          "name": "",
          "type": "uint256"
        }
      ],
      "stateMutability": "view",
      "type": "function"
    },
    {
      "inputs": [],
      "name": "whitelistMintPrice",
      "outputs": [
        {
          "internalType": "uint256",
          "name": "",
          "type": "uint256"
        }
      ],
      "stateMutability": "view",
      "type": "function"
    },
    {
      "inputs": [],
      "name": "withdraw",
      "outputs": [],
      "stateMutability": "nonpayable",
      "type": "function"
    }
  ],
  "transactionHash": "0x9eb4edc03e0dc530993cd7a992f59cab2239c7b6341aa9c5e6f1e8d28e3ec617",
  "args": [
    "Mock Minion",
    "Minion",
    "https://testnet-api.argopetz.com/api/v1/argopetz/",
    8888,
    "0x865F4c222D7B23365C7Eb2F4f74d1a2533CD663E",
    "0x6A952f966c5DcC36A094c8AB141f027fb58F864e"
  ],
  "numDeployments": 2,
  "solcInputHash": "9e920c4dc57df6517e7a5f2bbf019a45",
  "bytecode": "0x60e0604052670de0b6b3a764000061100b55671bc16d674ec8000061100c553480156200002b57600080fd5b5060405162002ef838038062002ef88339810160408190526200004e916200028c565b858560026200005e8382620003eb565b5060036200006d8282620003eb565b5050506200008a62000084620000d660201b60201c565b620000da565b61ffff831660808190526008805461ffff60a01b1916600160a01b909202919091179055620000b9846200012c565b6001600160a01b0391821660a0521660c05250620004b792505050565b3390565b600880546001600160a01b038381166001600160a01b0319831681179093556040519116919082907f8be0079c531659141344cd1fd0a4f28419497f9722a3daafe3b4186f6b6457e090600090a35050565b6200013662000149565b61100e620001458282620003eb565b5050565b6008546001600160a01b03163314620001a85760405162461bcd60e51b815260206004820181905260248201527f4f776e61626c653a2063616c6c6572206973206e6f7420746865206f776e6572604482015260640160405180910390fd5b565b634e487b7160e01b600052604160045260246000fd5b600082601f830112620001d257600080fd5b81516001600160401b0380821115620001ef57620001ef620001aa565b604051601f8301601f19908116603f011681019082821181831017156200021a576200021a620001aa565b816040528381526020925086838588010111156200023757600080fd5b600091505b838210156200025b57858201830151818301840152908201906200023c565b600093810190920192909252949350505050565b80516001600160a01b03811681146200028757600080fd5b919050565b60008060008060008060c08789031215620002a657600080fd5b86516001600160401b0380821115620002be57600080fd5b620002cc8a838b01620001c0565b97506020890151915080821115620002e357600080fd5b620002f18a838b01620001c0565b965060408901519150808211156200030857600080fd5b506200031789828a01620001c0565b945050606087015161ffff811681146200033057600080fd5b925062000340608088016200026f565b91506200035060a088016200026f565b90509295509295509295565b600181811c908216806200037157607f821691505b6020821081036200039257634e487b7160e01b600052602260045260246000fd5b50919050565b601f821115620003e657600081815260208120601f850160051c81016020861015620003c15750805b601f850160051c820191505b81811015620003e257828155600101620003cd565b5050505b505050565b81516001600160401b03811115620004075762000407620001aa565b6200041f816200041884546200035c565b8462000398565b602080601f8311600181146200045757600084156200043e5750858301515b600019600386901b1c1916600185901b178555620003e2565b600085815260208120601f198616915b82811015620004885788860151825594840194600190910190840162000467565b5085821015620004a75787850151600019600388901b60f8161c191681555b5050505050600190811b01905550565b60805160a05160c0516129ee6200050a60003960008181610610015261185101526000818161032e0152610b7f0152600081816103e40152818161093c01528181610f99015261132201526129ee6000f3fe6080604052600436106102305760003560e01c80636c0360eb1161012e578063aeb16768116100ab578063ce3cd9971161006f578063ce3cd997146106fc578063ce6df2b91461071c578063dc53fd921461072f578063e985e9c514610746578063f2fde38b1461078157600080fd5b8063aeb1676814610667578063b20563061461067c578063b88d4fde1461068f578063c040e6b8146106af578063c87b56dd146106dc57600080fd5b806396330b5f116100f257806396330b5f146105b0578063a22cb465146105de578063a591c4cb146105fe578063a611708e14610632578063a73467801461065257600080fd5b80636c0360eb1461053357806370a0823114610548578063715018a6146105685780638da5cb5b1461057d57806395d89b411461059b57600080fd5b806332cb6b0c116101bc57806355f804b31161018057806355f804b3146104935780635944c753146104b35780635a446215146104d35780635d82cf6e146104f35780636352211e1461051357600080fd5b806332cb6b0c146103d257806335c6aaf8146104195780633bdf4ac6146104305780633ccfd60b1461045e57806342842e0e1461047357600080fd5b8063095ea7b311610203578063095ea7b3146102fc578063122e04a81461031c57806318160ddd1461035057806323b872dd146103735780632a55205a1461039357600080fd5b806301ffc9a71461023557806304634d8d1461026a57806306fdde031461028c578063081812fc146102ae575b600080fd5b34801561024157600080fd5b5061025561025036600461208b565b6107a1565b60405190151581526020015b60405180910390f35b34801561027657600080fd5b5061028a6102853660046120dd565b6107c1565b005b34801561029857600080fd5b506102a16107d7565b6040516102619190612134565b3480156102ba57600080fd5b506102e46102c9366004612167565b6006602052600090815260409020546001600160a01b031681565b6040516001600160a01b039091168152602001610261565b34801561030857600080fd5b5061028a610317366004612180565b610865565b34801561032857600080fd5b506102e47f000000000000000000000000000000000000000000000000000000000000000081565b34801561035c57600080fd5b5061036561092a565b604051908152602001610261565b34801561037f57600080fd5b5061028a61038e3660046121aa565b610960565b34801561039f57600080fd5b506103b36103ae3660046121e6565b610acd565b604080516001600160a01b039093168352602083019190915201610261565b3480156103de57600080fd5b506104067f000000000000000000000000000000000000000000000000000000000000000081565b60405161ffff9091168152602001610261565b34801561042557600080fd5b5061036561100b5481565b34801561043c57600080fd5b5061036561044b366004612208565b6110096020526000908152604090205481565b34801561046a57600080fd5b5061028a610b7b565b34801561047f57600080fd5b5061028a61048e3660046121aa565b610c12565b34801561049f57600080fd5b5061028a6104ae366004612239565b610ce5565b3480156104bf57600080fd5b5061028a6104ce3660046122ea565b610cfa565b3480156104df57600080fd5b5061028a6104ee366004612368565b610d0d565b3480156104ff57600080fd5b5061028a61050e366004612167565b610d37565b34801561051f57600080fd5b506102e461052e366004612167565b610d45565b34801561053f57600080fd5b506102a1610d80565b34801561055457600080fd5b50610365610563366004612208565b610d8e565b34801561057457600080fd5b5061028a610dd3565b34801561058957600080fd5b506008546001600160a01b03166102e4565b3480156105a757600080fd5b506102a1610de7565b3480156105bc57600080fd5b506103656105cb366004612208565b61100a6020526000908152604090205481565b3480156105ea57600080fd5b5061028a6105f93660046123d4565b610df4565b34801561060a57600080fd5b506102e47f000000000000000000000000000000000000000000000000000000000000000081565b34801561063e57600080fd5b5061028a61064d366004612167565b610e60565b34801561065e57600080fd5b50610365601481565b34801561067357600080fd5b50610365600581565b61028a61068a366004612410565b610e6e565b34801561069b57600080fd5b5061028a6106aa36600461249a565b611128565b3480156106bb57600080fd5b5061100d546106ca9060ff1681565b60405160ff9091168152602001610261565b3480156106e857600080fd5b506102a16106f7366004612167565b6111e4565b34801561070857600080fd5b5061028a610717366004612509565b61124f565b61028a61072a366004612180565b61126e565b34801561073b57600080fd5b5061036561100c5481565b34801561075257600080fd5b5061025561076136600461252c565b600760209081526000928352604080842090915290825290205460ff1681565b34801561078d57600080fd5b5061028a61079c366004612208565b61149f565b60006107ac82611515565b806107bb57506107bb82611563565b92915050565b6107c9611598565b6107d382826115f2565b5050565b600280546107e490612556565b80601f016020809104026020016040519081016040528092919081815260200182805461081090612556565b801561085d5780601f106108325761010080835404028352916020019161085d565b820191906000526020600020905b81548152906001019060200180831161084057829003601f168201915b505050505081565b6000818152600460205260409020546001600160a01b03163381148015906108b157506001600160a01b038116600090815260076020908152604080832033845290915290205460ff16155b156108ce576040516282b42960e81b815260040160405180910390fd5b60008281526006602052604080822080546001600160a01b0319166001600160a01b0387811691821790925591518593918516917f8c5be1e5ebec7d5bd14f71427d1e84f3dd0314c0f7b2291e5b200ac8c7c3b92591a4505050565b60085461ffff600160a01b90910481167f0000000000000000000000000000000000000000000000000000000000000000031690565b6000818152600460205260409020546001600160a01b0384811691161461099a5760405163c6de3f2560e01b815260040160405180910390fd5b6001600160a01b0382166109c157604051634e46966960e11b815260040160405180910390fd5b336001600160a01b038416148015906109fe57506001600160a01b038316600090815260076020908152604080832033845290915290205460ff16155b8015610a2157506000818152600660205260409020546001600160a01b03163314155b15610a3e576040516282b42960e81b815260040160405180910390fd5b6001600160a01b0380841660008181526005602090815260408083208054600019019055938616808352848320805460010190558583526004825284832080546001600160a01b03199081168317909155600690925284832080549092169091559251849392917fddf252ad1be2c89b69c2b068fc378daa952ba7f163c4a11628f55a4df523b3ef91a4505050565b60008281526001602090815260408083208151808301909252546001600160a01b038116808352600160a01b9091046001600160601b0316928201929092528291610b425750604080518082019091526000546001600160a01b0381168252600160a01b90046001600160601b031660208201525b602081015160009061271090610b61906001600160601b0316876125a6565b610b6b91906125d3565b91519350909150505b9250929050565b60007f00000000000000000000000000000000000000000000000000000000000000006001600160a01b03164760405160006040518083038185875af1925050503d8060008114610be8576040519150601f19603f3d011682016040523d82523d6000602084013e610bed565b606091505b5050905080610c0f57604051631d42c86760e21b815260040160405180910390fd5b50565b610c1d838383610960565b6001600160a01b0382163b15610ce057604051630a85bd0160e11b8082523360048301526001600160a01b03858116602484015260448301849052608060648401526000608484015290919084169063150b7a029060a4016020604051808303816000875af1158015610c94573d6000803e3d6000fd5b505050506040513d601f19601f82011682018060405250810190610cb891906125e7565b6001600160e01b03191614610ce057604051633da6393160e01b815260040160405180910390fd5b505050565b610ced611598565b61100e6107d38282612652565b610d02611598565b610ce08383836116ac565b610d15611598565b6002610d22848683612712565b506003610d30828483612712565b5050505050565b610d3f611598565b61100c55565b6000818152600460205260409020546001600160a01b031680610d7b57604051634d5e5fb360e01b815260040160405180910390fd5b919050565b61100e80546107e490612556565b60006001600160a01b038216610db75760405163d92e233d60e01b815260040160405180910390fd5b506001600160a01b031660009081526005602052604090205490565b610ddb611598565b610de56000611777565b565b600380546107e490612556565b3360008181526007602090815260408083206001600160a01b03871680855290835292819020805460ff191686151590811790915590519081529192917f17307eab39ab6107e8899845ad3d59bd9653f200f220920489ca2b5937696c31910160405180910390a35050565b610e68611598565b61100b55565b61100d54610e88903390869086908690869060ff166117c9565b610ed95760405162461bcd60e51b815260206004820152601c60248201527f4172676f5065747a3a20496e76616c6964205369676e6174757265210000000060448201526064015b60405180910390fd5b61100d5460ff16600114610f3b5760405162461bcd60e51b8152602060048201526024808201527f4172676f5065747a3a2057686974656c697374204d696e74206973206e6f742060448201526337b832b760e11b6064820152608401610ed0565b61100b54610f4990866125a6565b3414610f975760405162461bcd60e51b815260206004820152601b60248201527f4172676f5065747a3a20496e73756666696369656e742043524f2100000000006044820152606401610ed0565b7f000000000000000000000000000000000000000000000000000000000000000061ffff1685610fc561092a565b610fcf91906127d2565b11156110315760405162461bcd60e51b815260206004820152602b60248201527f4172676f5065747a3a204578636565646564204d617820537570706c7920666f60448201526a72204172676f5065747a2160a81b6064820152608401610ed0565b33600090815261100960205260409020546005906110509087906127d2565b11156110cf5760405162461bcd60e51b815260206004820152604260248201527f4172676f5065747a3a2057616c6c65742068617320616c7265616479206d696e60448201527f746564204d617820416d6f756e7420666f722057686974656c697374204d696e606482015261742160f01b608482015260a401610ed0565b3360009081526110096020526040812080548792906110ef9084906127d2565b90915550600090505b8581101561111f57600061110a611887565b90506111168882611a63565b506001016110f8565b50505050505050565b611133858585610960565b6001600160a01b0384163b15610d3057604051630a85bd0160e11b808252906001600160a01b0386169063150b7a02906111799033908a908990899089906004016127e5565b6020604051808303816000875af1158015611198573d6000803e3d6000fd5b505050506040513d601f19601f820116820180604052508101906111bc91906125e7565b6001600160e01b03191614610d3057604051633da6393160e01b815260040160405180910390fd5b6000818152600460205260409020546060906001600160a01b031661121c576040516307ed98ed60e31b815260040160405180910390fd5b61100e61122883611b2d565b604051602001611239929190612839565b6040516020818303038152906040529050919050565b611257611598565b61100d805460ff191660ff92909216919091179055565b61100d5460ff166002146112c45760405162461bcd60e51b815260206004820152601d60248201527f4172676f5065747a3a205075626c69632053616c6520436c6f736564210000006044820152606401610ed0565b61100c546112d290826125a6565b34146113205760405162461bcd60e51b815260206004820152601b60248201527f4172676f5065747a3a20496e73756666696369656e742043524f2100000000006044820152606401610ed0565b7f000000000000000000000000000000000000000000000000000000000000000061ffff168161134e61092a565b61135891906127d2565b11156113bc5760405162461bcd60e51b815260206004820152602d60248201527f4172676f5065747a3a204d617820537570706c7920666f72205075626c69632060448201526c4d696e7420526561636865642160981b6064820152608401610ed0565b33600090815261100a60205260409020546014906113db9083906127d2565b111561144f5760405162461bcd60e51b815260206004820152603f60248201527f4172676f5065747a3a2057616c6c65742068617320616c7265616479206d696e60448201527f746564204d617820416d6f756e7420666f72205075626c6963204d696e7421006064820152608401610ed0565b33600090815261100a60205260408120805483929061146f9084906127d2565b90915550600090505b81811015610ce057600061148a611887565b90506114968482611a63565b50600101611478565b6114a7611598565b6001600160a01b03811661150c5760405162461bcd60e51b815260206004820152602660248201527f4f776e61626c653a206e6577206f776e657220697320746865207a65726f206160448201526564647265737360d01b6064820152608401610ed0565b610c0f81611777565b60006301ffc9a760e01b6001600160e01b03198316148061154657506380ac58cd60e01b6001600160e01b03198316145b806107bb5750506001600160e01b031916635b5e139f60e01b1490565b60006001600160e01b0319821663152a902d60e11b14806107bb57506301ffc9a760e01b6001600160e01b03198316146107bb565b6008546001600160a01b03163314610de55760405162461bcd60e51b815260206004820181905260248201527f4f776e61626c653a2063616c6c6572206973206e6f7420746865206f776e65726044820152606401610ed0565b6127106001600160601b038216111561161d5760405162461bcd60e51b8152600401610ed0906128c0565b6001600160a01b0382166116735760405162461bcd60e51b815260206004820152601960248201527f455243323938313a20696e76616c6964207265636569766572000000000000006044820152606401610ed0565b604080518082019091526001600160a01b039092168083526001600160601b039091166020909201829052600160a01b90910217600055565b6127106001600160601b03821611156116d75760405162461bcd60e51b8152600401610ed0906128c0565b6001600160a01b03821661172d5760405162461bcd60e51b815260206004820152601b60248201527f455243323938313a20496e76616c696420706172616d657465727300000000006044820152606401610ed0565b6040805180820182526001600160a01b0393841681526001600160601b0392831660208083019182526000968752600190529190942093519051909116600160a01b029116179055565b600880546001600160a01b038381166001600160a01b0319831681179093556040519116919082907f8be0079c531659141344cd1fd0a4f28419497f9722a3daafe3b4186f6b6457e090600090a35050565b600080878787856040516020016117e3949392919061290a565b60405160208183030381529060405280519060200120905061184685858080601f0160208091040260200160405190810160405280939291908181526020018383808284376000920191909152506118409250859150611bc09050565b90611c13565b6001600160a01b03167f00000000000000000000000000000000000000000000000000000000000000006001600160a01b0316149150509695505050505050565b600854600090600160a01b900461ffff168082036118b85760405163aeb0cc9b60e01b815260040160405180910390fd5b60006118c382611c37565b905060006118d18383612947565b905060006009826201000081106118ea576118ea61295b565b601091828204019190066002029054906101000a900461ffff1661ffff16905060008160000361191b57508161191e565b50805b600061192b600187612971565b9050808414611a2257600060098262010000811061194b5761194b61295b565b601091828204019190066002029054906101000a900461ffff1661ffff169050806000036119b357816009866201000081106119895761198961295b565b601091828204019190066002026101000a81548161ffff021916908361ffff160217905550611a20565b806009866201000081106119c9576119c961295b565b601091828204019190066002026101000a81548161ffff021916908361ffff160217905550600982620100008110611a0357611a0361295b565b601091828204019190066002026101000a81549061ffff02191690555b505b60088054601490611a3d90600160a01b900461ffff16612984565b91906101000a81548161ffff021916908361ffff16021790555081965050505050505090565b611a6d8282611c85565b6001600160a01b0382163b156107d357604051630a85bd0160e11b80825233600483015260006024830181905260448301849052608060648401526084830152906001600160a01b0384169063150b7a029060a4016020604051808303816000875af1158015611ae1573d6000803e3d6000fd5b505050506040513d601f19601f82011682018060405250810190611b0591906125e7565b6001600160e01b031916146107d357604051633da6393160e01b815260040160405180910390fd5b60606000611b3a83611d4d565b600101905060008167ffffffffffffffff811115611b5a57611b5a612223565b6040519080825280601f01601f191660200182016040528015611b84576020820181803683370190505b5090508181016020015b600019016f181899199a1a9b1b9c1cb0b131b232b360811b600a86061a8153600a8504945084611b8e57509392505050565b6040517f19457468657265756d205369676e6564204d6573736167653a0a3332000000006020820152603c8101829052600090605c01604051602081830303815290604052805190602001209050919050565b6000806000611c228585611e25565b91509150611c2f81611e67565b509392505050565b600044611c45600143612971565b6040805160208101939093529040908201523060608201526080810183905260a00160408051601f19818403018152919052805160209091012092915050565b6001600160a01b038216611cac57604051634e46966960e11b815260040160405180910390fd5b6000818152600460205260409020546001600160a01b031615611ce257604051631bbdf5c560e31b815260040160405180910390fd5b6001600160a01b038216600081815260056020908152604080832080546001019055848352600490915280822080546001600160a01b0319168417905551839291907fddf252ad1be2c89b69c2b068fc378daa952ba7f163c4a11628f55a4df523b3ef908290a45050565b60008072184f03e93ff9f4daa797ed6e38ed64bf6a1f0160401b8310611d8c5772184f03e93ff9f4daa797ed6e38ed64bf6a1f0160401b830492506040015b6d04ee2d6d415b85acef81000000008310611db8576d04ee2d6d415b85acef8100000000830492506020015b662386f26fc100008310611dd657662386f26fc10000830492506010015b6305f5e1008310611dee576305f5e100830492506008015b6127108310611e0257612710830492506004015b60648310611e14576064830492506002015b600a83106107bb5760010192915050565b6000808251604103611e5b5760208301516040840151606085015160001a611e4f87828585611fb1565b94509450505050610b74565b50600090506002610b74565b6000816004811115611e7b57611e7b6129a2565b03611e835750565b6001816004811115611e9757611e976129a2565b03611ee45760405162461bcd60e51b815260206004820152601860248201527f45434453413a20696e76616c6964207369676e617475726500000000000000006044820152606401610ed0565b6002816004811115611ef857611ef86129a2565b03611f455760405162461bcd60e51b815260206004820152601f60248201527f45434453413a20696e76616c6964207369676e6174757265206c656e677468006044820152606401610ed0565b6003816004811115611f5957611f596129a2565b03610c0f5760405162461bcd60e51b815260206004820152602260248201527f45434453413a20696e76616c6964207369676e6174757265202773272076616c604482015261756560f01b6064820152608401610ed0565b6000807f7fffffffffffffffffffffffffffffff5d576e7357a4501ddfe92f46681b20a0831115611fe8575060009050600361206c565b6040805160008082526020820180845289905260ff881692820192909252606081018690526080810185905260019060a0016020604051602081039080840390855afa15801561203c573d6000803e3d6000fd5b5050604051601f1901519150506001600160a01b0381166120655760006001925092505061206c565b9150600090505b94509492505050565b6001600160e01b031981168114610c0f57600080fd5b60006020828403121561209d57600080fd5b81356120a881612075565b9392505050565b80356001600160a01b0381168114610d7b57600080fd5b80356001600160601b0381168114610d7b57600080fd5b600080604083850312156120f057600080fd5b6120f9836120af565b9150612107602084016120c6565b90509250929050565b60005b8381101561212b578181015183820152602001612113565b50506000910152565b6020815260008251806020840152612153816040850160208701612110565b601f01601f19169190910160400192915050565b60006020828403121561217957600080fd5b5035919050565b6000806040838503121561219357600080fd5b61219c836120af565b946020939093013593505050565b6000806000606084860312156121bf57600080fd5b6121c8846120af565b92506121d6602085016120af565b9150604084013590509250925092565b600080604083850312156121f957600080fd5b50508035926020909101359150565b60006020828403121561221a57600080fd5b6120a8826120af565b634e487b7160e01b600052604160045260246000fd5b60006020828403121561224b57600080fd5b813567ffffffffffffffff8082111561226357600080fd5b818401915084601f83011261227757600080fd5b81358181111561228957612289612223565b604051601f8201601f19908116603f011681019083821181831017156122b1576122b1612223565b816040528281528760208487010111156122ca57600080fd5b826020860160208301376000928101602001929092525095945050505050565b6000806000606084860312156122ff57600080fd5b8335925061230f602085016120af565b915061231d604085016120c6565b90509250925092565b60008083601f84011261233857600080fd5b50813567ffffffffffffffff81111561235057600080fd5b602083019150836020828501011115610b7457600080fd5b6000806000806040858703121561237e57600080fd5b843567ffffffffffffffff8082111561239657600080fd5b6123a288838901612326565b909650945060208701359150808211156123bb57600080fd5b506123c887828801612326565b95989497509550505050565b600080604083850312156123e757600080fd5b6123f0836120af565b91506020830135801515811461240557600080fd5b809150509250929050565b6000806000806000806080878903121561242957600080fd5b612432876120af565b955060208701359450604087013567ffffffffffffffff8082111561245657600080fd5b6124628a838b01612326565b9096509450606089013591508082111561247b57600080fd5b5061248889828a01612326565b979a9699509497509295939492505050565b6000806000806000608086880312156124b257600080fd5b6124bb866120af565b94506124c9602087016120af565b935060408601359250606086013567ffffffffffffffff8111156124ec57600080fd5b6124f888828901612326565b969995985093965092949392505050565b60006020828403121561251b57600080fd5b813560ff811681146120a857600080fd5b6000806040838503121561253f57600080fd5b612548836120af565b9150612107602084016120af565b600181811c9082168061256a57607f821691505b60208210810361258a57634e487b7160e01b600052602260045260246000fd5b50919050565b634e487b7160e01b600052601160045260246000fd5b80820281158282048414176107bb576107bb612590565b634e487b7160e01b600052601260045260246000fd5b6000826125e2576125e26125bd565b500490565b6000602082840312156125f957600080fd5b81516120a881612075565b601f821115610ce057600081815260208120601f850160051c8101602086101561262b5750805b601f850160051c820191505b8181101561264a57828155600101612637565b505050505050565b815167ffffffffffffffff81111561266c5761266c612223565b6126808161267a8454612556565b84612604565b602080601f8311600181146126b5576000841561269d5750858301515b600019600386901b1c1916600185901b17855561264a565b600085815260208120601f198616915b828110156126e4578886015182559484019460019091019084016126c5565b50858210156127025787850151600019600388901b60f8161c191681555b5050505050600190811b01905550565b67ffffffffffffffff83111561272a5761272a612223565b61273e836127388354612556565b83612604565b6000601f841160018114612772576000851561275a5750838201355b600019600387901b1c1916600186901b178355610d30565b600083815260209020601f19861690835b828110156127a35786850135825560209485019460019092019101612783565b50868210156127c05760001960f88860031b161c19848701351681555b505060018560011b0183555050505050565b808201808211156107bb576107bb612590565b6001600160a01b038681168252851660208201526040810184905260806060820181905281018290526000828460a0840137600060a0848401015260a0601f19601f85011683010190509695505050505050565b600080845461284781612556565b6001828116801561285f5760018114612874576128a3565b60ff19841687528215158302870194506128a3565b8860005260208060002060005b8581101561289a5781548a820152908401908201612881565b50505082870194505b5050505083516128b7818360208801612110565b01949350505050565b6020808252602a908201527f455243323938313a20726f79616c7479206665652077696c6c206578636565646040820152692073616c65507269636560b01b606082015260800190565b6001600160601b03198560601b1681528284601483013760f89190911b6001600160f81b0319166014919092019081019190915260150192915050565b600082612956576129566125bd565b500690565b634e487b7160e01b600052603260045260246000fd5b818103818111156107bb576107bb612590565b600061ffff82168061299857612998612590565b6000190192915050565b634e487b7160e01b600052602160045260246000fdfea2646970667358221220821d10d3357c6203c1369c7a0148f4cf44e65f5d6901acd7976d70beda0c0a5964736f6c63430008120033",
  "devdoc": {
    "kind": "dev",
    "methods": {
      "owner()": {
        "details": "Returns the address of the current owner."
      },
      "renounceOwnership()": {
        "details": "Leaves the contract without owner. It will not be possible to call `onlyOwner` functions anymore. Can only be called by the current owner. NOTE: Renouncing ownership will leave the contract without an owner, thereby removing any functionality that is only available to the owner."
      },
      "royaltyInfo(uint256,uint256)": {
        "details": "Returns how much royalty is owed and to whom, based on a sale price that may be denominated in any unit of exchange. The royalty amount is denominated and should be paid in that same unit of exchange."
      },
      "transferOwnership(address)": {
        "details": "Transfers ownership of the contract to a new account (`newOwner`). Can only be called by the current owner."
      }
    },
    "version": 1
  },
  "userdoc": {
    "errors": {
      "NotMinted()": [
        {
          "notice": "----------------------------------------------------------------------- Custom Errors -----------------------------------------------------------------------"
        }
      ]
    },
    "events": {
      "Transfer(address,address,uint256)": {
        "notice": "----------------------------------------------------------------------- Events -----------------------------------------------------------------------"
      }
    },
    "kind": "user",
    "methods": {
      "approve(address,uint256)": {
        "notice": "----------------------------------------------------------------------- ERC721 Logic -----------------------------------------------------------------------"
      },
      "getApproved(uint256)": {
        "notice": "----------------------------------------------------------------------- ERC721 Approval Storage -----------------------------------------------------------------------"
      },
      "name()": {
        "notice": "----------------------------------------------------------------------- Metadata Storage/Logic -----------------------------------------------------------------------"
      }
    },
    "version": 1
  },
  "storageLayout": {
    "storage": [
      {
        "astId": 148,
        "contract": "contracts/ArgoPetz.sol:ArgoPetz",
        "label": "_defaultRoyaltyInfo",
        "offset": 0,
        "slot": "0",
        "type": "t_struct(RoyaltyInfo)145_storage"
      },
      {
        "astId": 153,
        "contract": "contracts/ArgoPetz.sol:ArgoPetz",
        "label": "_tokenRoyaltyInfo",
        "offset": 0,
        "slot": "1",
        "type": "t_mapping(t_uint256,t_struct(RoyaltyInfo)145_storage)"
      },
      {
        "astId": 2460,
        "contract": "contracts/ArgoPetz.sol:ArgoPetz",
        "label": "name",
        "offset": 0,
        "slot": "2",
        "type": "t_string_storage"
      },
      {
        "astId": 2462,
        "contract": "contracts/ArgoPetz.sol:ArgoPetz",
        "label": "symbol",
        "offset": 0,
        "slot": "3",
        "type": "t_string_storage"
      },
      {
        "astId": 2474,
        "contract": "contracts/ArgoPetz.sol:ArgoPetz",
        "label": "_ownerOf",
        "offset": 0,
        "slot": "4",
        "type": "t_mapping(t_uint256,t_address)"
      },
      {
        "astId": 2478,
        "contract": "contracts/ArgoPetz.sol:ArgoPetz",
        "label": "_balanceOf",
        "offset": 0,
        "slot": "5",
        "type": "t_mapping(t_address,t_uint256)"
      },
      {
        "astId": 2528,
        "contract": "contracts/ArgoPetz.sol:ArgoPetz",
        "label": "getApproved",
        "offset": 0,
        "slot": "6",
        "type": "t_mapping(t_uint256,t_address)"
      },
      {
        "astId": 2534,
        "contract": "contracts/ArgoPetz.sol:ArgoPetz",
        "label": "isApprovedForAll",
        "offset": 0,
        "slot": "7",
        "type": "t_mapping(t_address,t_mapping(t_address,t_bool))"
      },
      {
        "astId": 7,
        "contract": "contracts/ArgoPetz.sol:ArgoPetz",
        "label": "_owner",
        "offset": 0,
        "slot": "8",
        "type": "t_address"
      },
      {
        "astId": 1817,
        "contract": "contracts/ArgoPetz.sol:ArgoPetz",
        "label": "_numAvailableRemainingTokens",
        "offset": 20,
        "slot": "8",
        "type": "t_uint16"
      },
      {
        "astId": 1821,
        "contract": "contracts/ArgoPetz.sol:ArgoPetz",
        "label": "_availableRemainingTokens",
        "offset": 0,
        "slot": "9",
        "type": "t_array(t_uint16)65536_storage"
      },
      {
        "astId": 1835,
        "contract": "contracts/ArgoPetz.sol:ArgoPetz",
        "label": "whitelistMintCount",
        "offset": 0,
        "slot": "4105",
        "type": "t_mapping(t_address,t_uint256)"
      },
      {
        "astId": 1839,
        "contract": "contracts/ArgoPetz.sol:ArgoPetz",
        "label": "publicMintCount",
        "offset": 0,
        "slot": "4106",
        "type": "t_mapping(t_address,t_uint256)"
      },
      {
        "astId": 1842,
        "contract": "contracts/ArgoPetz.sol:ArgoPetz",
        "label": "whitelistMintPrice",
        "offset": 0,
        "slot": "4107",
        "type": "t_uint256"
      },
      {
        "astId": 1845,
        "contract": "contracts/ArgoPetz.sol:ArgoPetz",
        "label": "publicMintPrice",
        "offset": 0,
        "slot": "4108",
        "type": "t_uint256"
      },
      {
        "astId": 1847,
        "contract": "contracts/ArgoPetz.sol:ArgoPetz",
        "label": "stage",
        "offset": 0,
        "slot": "4109",
        "type": "t_uint8"
      },
      {
        "astId": 1849,
        "contract": "contracts/ArgoPetz.sol:ArgoPetz",
        "label": "baseURI",
        "offset": 0,
        "slot": "4110",
        "type": "t_string_storage"
      }
    ],
    "types": {
      "t_address": {
        "encoding": "inplace",
        "label": "address",
        "numberOfBytes": "20"
      },
      "t_array(t_uint16)65536_storage": {
        "base": "t_uint16",
        "encoding": "inplace",
        "label": "uint16[65536]",
        "numberOfBytes": "131072"
      },
      "t_bool": {
        "encoding": "inplace",
        "label": "bool",
        "numberOfBytes": "1"
      },
      "t_mapping(t_address,t_bool)": {
        "encoding": "mapping",
        "key": "t_address",
        "label": "mapping(address => bool)",
        "numberOfBytes": "32",
        "value": "t_bool"
      },
      "t_mapping(t_address,t_mapping(t_address,t_bool))": {
        "encoding": "mapping",
        "key": "t_address",
        "label": "mapping(address => mapping(address => bool))",
        "numberOfBytes": "32",
        "value": "t_mapping(t_address,t_bool)"
      },
      "t_mapping(t_address,t_uint256)": {
        "encoding": "mapping",
        "key": "t_address",
        "label": "mapping(address => uint256)",
        "numberOfBytes": "32",
        "value": "t_uint256"
      },
      "t_mapping(t_uint256,t_address)": {
        "encoding": "mapping",
        "key": "t_uint256",
        "label": "mapping(uint256 => address)",
        "numberOfBytes": "32",
        "value": "t_address"
      },
      "t_mapping(t_uint256,t_struct(RoyaltyInfo)145_storage)": {
        "encoding": "mapping",
        "key": "t_uint256",
        "label": "mapping(uint256 => struct ERC2981.RoyaltyInfo)",
        "numberOfBytes": "32",
        "value": "t_struct(RoyaltyInfo)145_storage"
      },
      "t_string_storage": {
        "encoding": "bytes",
        "label": "string",
        "numberOfBytes": "32"
      },
      "t_struct(RoyaltyInfo)145_storage": {
        "encoding": "inplace",
        "label": "struct ERC2981.RoyaltyInfo",
        "members": [
          {
            "astId": 142,
            "contract": "contracts/ArgoPetz.sol:ArgoPetz",
            "label": "receiver",
            "offset": 0,
            "slot": "0",
            "type": "t_address"
          },
          {
            "astId": 144,
            "contract": "contracts/ArgoPetz.sol:ArgoPetz",
            "label": "royaltyFraction",
            "offset": 20,
            "slot": "0",
            "type": "t_uint96"
          }
        ],
        "numberOfBytes": "32"
      },
      "t_uint16": {
        "encoding": "inplace",
        "label": "uint16",
        "numberOfBytes": "2"
      },
      "t_uint256": {
        "encoding": "inplace",
        "label": "uint256",
        "numberOfBytes": "32"
      },
      "t_uint8": {
        "encoding": "inplace",
        "label": "uint8",
        "numberOfBytes": "1"
      },
      "t_uint96": {
        "encoding": "inplace",
        "label": "uint96",
        "numberOfBytes": "12"
      }
    }
  }
}