{
  "address": "0xd3Df91EE04ffcCcE2A2aA43908b66DC043834a59",
  "abi": [
    {
      "inputs": [
        {
          "internalType": "address",
          "name": "_argopetz",
          "type": "address"
        }
      ],
      "stateMutability": "nonpayable",
      "type": "constructor"
    },
    {
      "anonymous": false,
      "inputs": [
        {
          "indexed": true,
          "internalType": "address",
          "name": "previousOwner",
          "type": "address"
        },
        {
          "indexed": true,
          "internalType": "address",
          "name": "newOwner",
          "type": "address"
        }
      ],
      "name": "OwnershipTransferred",
      "type": "event"
    },
    {
      "anonymous": false,
      "inputs": [
        {
          "indexed": true,
          "internalType": "address",
          "name": "user",
          "type": "address"
        },
        {
          "indexed": true,
          "internalType": "uint256",
          "name": "nftId",
          "type": "uint256"
        },
        {
          "indexed": false,
          "internalType": "uint256",
          "name": "startTime",
          "type": "uint256"
        }
      ],
      "name": "StakedNFT",
      "type": "event"
    },
    {
      "anonymous": false,
      "inputs": [
        {
          "indexed": false,
          "internalType": "uint256",
          "name": "craftingTime",
          "type": "uint256"
        }
      ],
      "name": "StarmapCraftingTimeSet",
      "type": "event"
    },
    {
      "anonymous": false,
      "inputs": [
        {
          "indexed": true,
          "internalType": "address",
          "name": "user",
          "type": "address"
        },
        {
          "indexed": true,
          "internalType": "uint256",
          "name": "nftId",
          "type": "uint256"
        },
        {
          "indexed": false,
          "internalType": "uint256",
          "name": "unstakeTime",
          "type": "uint256"
        }
      ],
      "name": "UnstakedNFT",
      "type": "event"
    },
    {
      "inputs": [],
      "name": "argopetz",
      "outputs": [
        {
          "internalType": "contract IERC721",
          "name": "",
          "type": "address"
        }
      ],
      "stateMutability": "view",
      "type": "function"
    },
    {
      "inputs": [
        {
          "internalType": "address",
          "name": "_user",
          "type": "address"
        }
      ],
      "name": "getStakedNFTCount",
      "outputs": [
        {
          "internalType": "uint256",
          "name": "",
          "type": "uint256"
        }
      ],
      "stateMutability": "view",
      "type": "function"
    },
    {
      "inputs": [
        {
          "internalType": "address",
          "name": "_user",
          "type": "address"
        }
      ],
      "name": "getStakedNFTs",
      "outputs": [
        {
          "internalType": "uint256[]",
          "name": "",
          "type": "uint256[]"
        }
      ],
      "stateMutability": "view",
      "type": "function"
    },
    {
      "inputs": [],
      "name": "owner",
      "outputs": [
        {
          "internalType": "address",
          "name": "",
          "type": "address"
        }
      ],
      "stateMutability": "view",
      "type": "function"
    },
    {
      "inputs": [],
      "name": "renounceOwnership",
      "outputs": [],
      "stateMutability": "nonpayable",
      "type": "function"
    },
    {
      "inputs": [
        {
          "internalType": "uint256",
          "name": "_starmapCraftingTime",
          "type": "uint256"
        }
      ],
      "name": "setStarmapCraftingTime",
      "outputs": [],
      "stateMutability": "nonpayable",
      "type": "function"
    },
    {
      "inputs": [
        {
          "internalType": "uint256[]",
          "name": "_nftIds",
          "type": "uint256[]"
        }
      ],
      "name": "stakeNFT",
      "outputs": [],
      "stateMutability": "nonpayable",
      "type": "function"
    },
    {
      "inputs": [],
      "name": "starmapCraftingTime",
      "outputs": [
        {
          "internalType": "uint256",
          "name": "",
          "type": "uint256"
        }
      ],
      "stateMutability": "view",
      "type": "function"
    },
    {
      "inputs": [
        {
          "internalType": "address",
          "name": "newOwner",
          "type": "address"
        }
      ],
      "name": "transferOwnership",
      "outputs": [],
      "stateMutability": "nonpayable",
      "type": "function"
    },
    {
      "inputs": [
        {
          "internalType": "uint256[]",
          "name": "_nftIds",
          "type": "uint256[]"
        }
      ],
      "name": "unstakeNFT",
      "outputs": [],
      "stateMutability": "nonpayable",
      "type": "function"
    }
  ],
  "transactionHash": "0x55d9e075870562016376336d773076e21f9548d99eba49c4b73e761c2f076a48",
  "args": [
    "0xFA686785D49a3ff521F56D0C7CD8251C33d08c45"
  ],
  "numDeployments": 1,
  "solcInputHash": "532b00c24b456962a1f24838d5637bc6",
  "bytecode": "0x60806040526203f48060025534801561001757600080fd5b50604051610b81380380610b81833981016040819052610036916100b4565b61003f33610064565b600380546001600160a01b0319166001600160a01b03929092169190911790556100e4565b600080546001600160a01b038381166001600160a01b0319831681178455604051919092169283917f8be0079c531659141344cd1fd0a4f28419497f9722a3daafe3b4186f6b6457e09190a35050565b6000602082840312156100c657600080fd5b81516001600160a01b03811681146100dd57600080fd5b9392505050565b610a8e806100f36000396000f3fe608060405234801561001057600080fd5b506004361061009d5760003560e01c8063715018a611610066578063715018a6146101315780638453734d146101395780638da5cb5b1461014c578063b390bd911461015d578063f2fde38b1461017057600080fd5b8062ea14c8146100a2578063180f4583146100be578063182c5744146100e957806357ff239a146100fe5780636f70d21214610111575b600080fd5b6100ab60025481565b6040519081526020015b60405180910390f35b6003546100d1906001600160a01b031681565b6040516001600160a01b0390911681526020016100b5565b6100fc6100f73660046108d9565b610183565b005b6100fc61010c36600461094e565b610311565b61012461011f366004610967565b610354565b6040516100b59190610990565b6100fc61037e565b6100fc6101473660046108d9565b610392565b6000546001600160a01b03166100d1565b6100ab61016b366004610967565b61053c565b6100fc61017e366004610967565b61055d565b806101d55760405162461bcd60e51b815260206004820152601960248201527f4d757374207374616b65206174206c656173742031204e46540000000000000060448201526064015b60405180910390fd5b60005b8181101561030c576102138383838181106101f5576101f56109d4565b336000908152600160209081526040909120939102013590506105d6565b506003546001600160a01b03166342842e0e3330868686818110610239576102396109d4565b6040516001600160e01b031960e088901b1681526001600160a01b03958616600482015294909316602485015250602090910201356044820152606401600060405180830381600087803b15801561029057600080fd5b505af11580156102a4573d6000803e3d6000fd5b505050508282828181106102ba576102ba6109d4565b90506020020135336001600160a01b03167fd4832bcae9834661799ae29001c73a6d9915f2668ab97c975b2470c6d188a97f426040516102fc91815260200190565b60405180910390a36001016101d8565b505050565b6103196105e9565b60028190556040518181527f7b9377883a93ee3b1fd4d20c61c36b427701e7783a6a2059542187ee89bf06909060200160405180910390a150565b6001600160a01b038116600090815260016020526040902060609061037890610643565b92915050565b6103866105e9565b61039060006106e3565b565b60005b8181101561030c576103d08383838181106103b2576103b26109d4565b33600090815260016020908152604090912093910201359050610733565b6104105760405162461bcd60e51b8152602060048201526011602482015270139195081a5cc81b9bdd081cdd185ad959607a1b60448201526064016101cc565b610443838383818110610425576104256109d4565b3360009081526001602090815260409091209391020135905061074b565b506003546001600160a01b03166342842e0e3033868686818110610469576104696109d4565b6040516001600160e01b031960e088901b1681526001600160a01b03958616600482015294909316602485015250602090910201356044820152606401600060405180830381600087803b1580156104c057600080fd5b505af11580156104d4573d6000803e3d6000fd5b505050508282828181106104ea576104ea6109d4565b90506020020135336001600160a01b03167f7675d67b1a43620fbbbdbe07ab3aa82cac67ccfc994ca205bd2a2fd9f0a59af34260405161052c91815260200190565b60405180910390a3600101610395565b6001600160a01b038116600090815260016020526040812061037890610757565b6105656105e9565b6001600160a01b0381166105ca5760405162461bcd60e51b815260206004820152602660248201527f4f776e61626c653a206e6577206f776e657220697320746865207a65726f206160448201526564647265737360d01b60648201526084016101cc565b6105d3816106e3565b50565b60006105e28383610761565b9392505050565b6000546001600160a01b031633146103905760405162461bcd60e51b815260206004820181905260248201527f4f776e61626c653a2063616c6c6572206973206e6f7420746865206f776e657260448201526064016101cc565b6060600061065083610757565b905060008167ffffffffffffffff81111561066d5761066d6109ea565b604051908082528060200260200182016040528015610696578160200160208202803683370190505b50905060005b828110156106db576106ae85826107b0565b8282815181106106c0576106c06109d4565b60209081029190910101526106d481610a16565b905061069c565b509392505050565b600080546001600160a01b038381166001600160a01b0319831681178455604051919092169283917f8be0079c531659141344cd1fd0a4f28419497f9722a3daafe3b4186f6b6457e09190a35050565b600081815260018301602052604081205415156105e2565b60006105e283836107bc565b6000610378825490565b60008181526001830160205260408120546107a857508154600181810184556000848152602080822090930184905584548482528286019093526040902091909155610378565b506000610378565b60006105e283836108af565b600081815260018301602052604081205480156108a55760006107e0600183610a2f565b85549091506000906107f490600190610a2f565b9050818114610859576000866000018281548110610814576108146109d4565b9060005260206000200154905080876000018481548110610837576108376109d4565b6000918252602080832090910192909255918252600188019052604090208390555b855486908061086a5761086a610a42565b600190038181906000526020600020016000905590558560010160008681526020019081526020016000206000905560019350505050610378565b6000915050610378565b60008260000182815481106108c6576108c66109d4565b9060005260206000200154905092915050565b600080602083850312156108ec57600080fd5b823567ffffffffffffffff8082111561090457600080fd5b818501915085601f83011261091857600080fd5b81358181111561092757600080fd5b8660208260051b850101111561093c57600080fd5b60209290920196919550909350505050565b60006020828403121561096057600080fd5b5035919050565b60006020828403121561097957600080fd5b81356001600160a01b03811681146105e257600080fd5b6020808252825182820181905260009190848201906040850190845b818110156109c8578351835292840192918401916001016109ac565b50909695505050505050565b634e487b7160e01b600052603260045260246000fd5b634e487b7160e01b600052604160045260246000fd5b634e487b7160e01b600052601160045260246000fd5b600060018201610a2857610a28610a00565b5060010190565b8181038181111561037857610378610a00565b634e487b7160e01b600052603160045260246000fdfea2646970667358221220a1a34d0f821b2df19db69e1b2b5085d308a58fd20de808b7a6be8e3e0a0ab19764736f6c63430008120033",
  "devdoc": {
    "author": "Kratos",
    "kind": "dev",
    "methods": {
      "getStakedNFTCount(address)": {
        "params": {
          "_user": "The address of the user"
        },
        "returns": {
          "_0": "The number of staked NFTs"
        }
      },
      "getStakedNFTs(address)": {
        "params": {
          "_user": "The address of the user"
        },
        "returns": {
          "_0": "The IDs of the NFTs"
        }
      },
      "owner()": {
        "details": "Returns the address of the current owner."
      },
      "renounceOwnership()": {
        "details": "Leaves the contract without owner. It will not be possible to call `onlyOwner` functions anymore. Can only be called by the current owner. NOTE: Renouncing ownership will leave the contract without an owner, thereby removing any functionality that is only available to the owner."
      },
      "setStarmapCraftingTime(uint256)": {
        "params": {
          "_starmapCraftingTime": "The starmap crafting time"
        }
      },
      "stakeNFT(uint256[])": {
        "params": {
          "_nftIds": "The IDs of the NFTs"
        }
      },
      "transferOwnership(address)": {
        "details": "Transfers ownership of the contract to a new account (`newOwner`). Can only be called by the current owner."
      },
      "unstakeNFT(uint256[])": {
        "params": {
          "_nftIds": "The IDs of the NFTs"
        }
      }
    },
    "title": "StarMapCrafting",
    "version": 1
  },
  "userdoc": {
    "events": {
      "StakedNFT(address,uint256,uint256)": {
        "notice": "Event emitted when an NFT is staked"
      },
      "StarmapCraftingTimeSet(uint256)": {
        "notice": "Event emitted when crafting time is set"
      },
      "UnstakedNFT(address,uint256,uint256)": {
        "notice": "Event emitted when an NFT is unstaked"
      }
    },
    "kind": "user",
    "methods": {
      "getStakedNFTCount(address)": {
        "notice": "Get staked NFT count of a user"
      },
      "getStakedNFTs(address)": {
        "notice": "Get staked NFTs of a user"
      },
      "setStarmapCraftingTime(uint256)": {
        "notice": "Set starmap crafting time"
      },
      "stakeNFT(uint256[])": {
        "notice": "Stake NFTs"
      },
      "starmapCraftingTime()": {
        "notice": "Starmap crafting time"
      },
      "unstakeNFT(uint256[])": {
        "notice": "Unstake NFTs"
      }
    },
    "notice": "This contract is used to craft starmaps with Argopetz",
    "version": 1
  },
  "storageLayout": {
    "storage": [
      {
        "astId": 7,
        "contract": "contracts/StarMapCrafting.sol:StarMapCrafting",
        "label": "_owner",
        "offset": 0,
        "slot": "0",
        "type": "t_address"
      },
      {
        "astId": 906,
        "contract": "contracts/StarMapCrafting.sol:StarMapCrafting",
        "label": "userStakedNFTs",
        "offset": 0,
        "slot": "1",
        "type": "t_mapping(t_address,t_struct(UintSet)745_storage)"
      },
      {
        "astId": 910,
        "contract": "contracts/StarMapCrafting.sol:StarMapCrafting",
        "label": "starmapCraftingTime",
        "offset": 0,
        "slot": "2",
        "type": "t_uint256"
      },
      {
        "astId": 936,
        "contract": "contracts/StarMapCrafting.sol:StarMapCrafting",
        "label": "argopetz",
        "offset": 0,
        "slot": "3",
        "type": "t_contract(IERC721)228"
      }
    ],
    "types": {
      "t_address": {
        "encoding": "inplace",
        "label": "address",
        "numberOfBytes": "20"
      },
      "t_array(t_bytes32)dyn_storage": {
        "base": "t_bytes32",
        "encoding": "dynamic_array",
        "label": "bytes32[]",
        "numberOfBytes": "32"
      },
      "t_bytes32": {
        "encoding": "inplace",
        "label": "bytes32",
        "numberOfBytes": "32"
      },
      "t_contract(IERC721)228": {
        "encoding": "inplace",
        "label": "contract IERC721",
        "numberOfBytes": "20"
      },
      "t_mapping(t_address,t_struct(UintSet)745_storage)": {
        "encoding": "mapping",
        "key": "t_address",
        "label": "mapping(address => struct EnumerableSet.UintSet)",
        "numberOfBytes": "32",
        "value": "t_struct(UintSet)745_storage"
      },
      "t_mapping(t_bytes32,t_uint256)": {
        "encoding": "mapping",
        "key": "t_bytes32",
        "label": "mapping(bytes32 => uint256)",
        "numberOfBytes": "32",
        "value": "t_uint256"
      },
      "t_struct(Set)273_storage": {
        "encoding": "inplace",
        "label": "struct EnumerableSet.Set",
        "members": [
          {
            "astId": 268,
            "contract": "contracts/StarMapCrafting.sol:StarMapCrafting",
            "label": "_values",
            "offset": 0,
            "slot": "0",
            "type": "t_array(t_bytes32)dyn_storage"
          },
          {
            "astId": 272,
            "contract": "contracts/StarMapCrafting.sol:StarMapCrafting",
            "label": "_indexes",
            "offset": 0,
            "slot": "1",
            "type": "t_mapping(t_bytes32,t_uint256)"
          }
        ],
        "numberOfBytes": "64"
      },
      "t_struct(UintSet)745_storage": {
        "encoding": "inplace",
        "label": "struct EnumerableSet.UintSet",
        "members": [
          {
            "astId": 744,
            "contract": "contracts/StarMapCrafting.sol:StarMapCrafting",
            "label": "_inner",
            "offset": 0,
            "slot": "0",
            "type": "t_struct(Set)273_storage"
          }
        ],
        "numberOfBytes": "64"
      },
      "t_uint256": {
        "encoding": "inplace",
        "label": "uint256",
        "numberOfBytes": "32"
      }
    }
  }
}